{
	"src/DLT.sol": {
		"DLT": {
			"abi": [
				{
					"inputs": [
						{
							"internalType": "string",
							"name": "name",
							"type": "string"
						},
						{
							"internalType": "string",
							"name": "symbol",
							"type": "string"
						}
					],
					"stateMutability": "nonpayable",
					"type": "constructor"
				},
				{
					"anonymous": false,
					"inputs": [
						{
							"indexed": true,
							"internalType": "address",
							"name": "owner",
							"type": "address"
						},
						{
							"indexed": true,
							"internalType": "address",
							"name": "spender",
							"type": "address"
						},
						{
							"indexed": false,
							"internalType": "uint256",
							"name": "mainId",
							"type": "uint256"
						},
						{
							"indexed": false,
							"internalType": "uint256",
							"name": "subId",
							"type": "uint256"
						},
						{
							"indexed": false,
							"internalType": "uint256",
							"name": "amount",
							"type": "uint256"
						}
					],
					"name": "Approval",
					"type": "event"
				},
				{
					"anonymous": false,
					"inputs": [
						{
							"indexed": true,
							"internalType": "address",
							"name": "spender",
							"type": "address"
						},
						{
							"indexed": true,
							"internalType": "address",
							"name": "operator",
							"type": "address"
						},
						{
							"indexed": false,
							"internalType": "bool",
							"name": "approved",
							"type": "bool"
						}
					],
					"name": "ApprovalForAll",
					"type": "event"
				},
				{
					"anonymous": false,
					"inputs": [
						{
							"indexed": true,
							"internalType": "address",
							"name": "sender",
							"type": "address"
						},
						{
							"indexed": true,
							"internalType": "address",
							"name": "recipient",
							"type": "address"
						},
						{
							"indexed": true,
							"internalType": "uint256",
							"name": "mainId",
							"type": "uint256"
						},
						{
							"indexed": false,
							"internalType": "uint256",
							"name": "subId",
							"type": "uint256"
						},
						{
							"indexed": false,
							"internalType": "uint256",
							"name": "amount",
							"type": "uint256"
						}
					],
					"name": "Transfer",
					"type": "event"
				},
				{
					"anonymous": false,
					"inputs": [
						{
							"indexed": true,
							"internalType": "address",
							"name": "spender",
							"type": "address"
						},
						{
							"indexed": true,
							"internalType": "address",
							"name": "sender",
							"type": "address"
						},
						{
							"indexed": true,
							"internalType": "address",
							"name": "recipient",
							"type": "address"
						},
						{
							"indexed": false,
							"internalType": "uint256[]",
							"name": "mainIds",
							"type": "uint256[]"
						},
						{
							"indexed": false,
							"internalType": "uint256[]",
							"name": "subIds",
							"type": "uint256[]"
						},
						{
							"indexed": false,
							"internalType": "uint256[]",
							"name": "amounts",
							"type": "uint256[]"
						}
					],
					"name": "TransferBatch",
					"type": "event"
				},
				{
					"anonymous": false,
					"inputs": [
						{
							"indexed": false,
							"internalType": "string",
							"name": "oldValue",
							"type": "string"
						},
						{
							"indexed": false,
							"internalType": "string",
							"name": "newValue",
							"type": "string"
						},
						{
							"indexed": true,
							"internalType": "uint256",
							"name": "mainId",
							"type": "uint256"
						}
					],
					"name": "URI",
					"type": "event"
				},
				{
					"inputs": [
						{
							"internalType": "address",
							"name": "owner",
							"type": "address"
						},
						{
							"internalType": "address",
							"name": "spender",
							"type": "address"
						},
						{
							"internalType": "uint256",
							"name": "mainId",
							"type": "uint256"
						},
						{
							"internalType": "uint256",
							"name": "subId",
							"type": "uint256"
						}
					],
					"name": "allowance",
					"outputs": [
						{
							"internalType": "uint256",
							"name": "",
							"type": "uint256"
						}
					],
					"stateMutability": "view",
					"type": "function"
				},
				{
					"inputs": [
						{
							"internalType": "address",
							"name": "spender",
							"type": "address"
						},
						{
							"internalType": "uint256",
							"name": "mainId",
							"type": "uint256"
						},
						{
							"internalType": "uint256",
							"name": "subId",
							"type": "uint256"
						},
						{
							"internalType": "uint256",
							"name": "amount",
							"type": "uint256"
						}
					],
					"name": "approve",
					"outputs": [
						{
							"internalType": "bool",
							"name": "",
							"type": "bool"
						}
					],
					"stateMutability": "nonpayable",
					"type": "function"
				},
				{
					"inputs": [
						{
							"internalType": "address[]",
							"name": "accounts",
							"type": "address[]"
						},
						{
							"internalType": "uint256[]",
							"name": "mainIds",
							"type": "uint256[]"
						},
						{
							"internalType": "uint256[]",
							"name": "subIds",
							"type": "uint256[]"
						}
					],
					"name": "balanceOfBatch",
					"outputs": [
						{
							"internalType": "uint256[]",
							"name": "",
							"type": "uint256[]"
						}
					],
					"stateMutability": "view",
					"type": "function"
				},
				{
					"inputs": [
						{
							"internalType": "address",
							"name": "owner",
							"type": "address"
						},
						{
							"internalType": "address",
							"name": "operator",
							"type": "address"
						}
					],
					"name": "isApprovedForAll",
					"outputs": [
						{
							"internalType": "bool",
							"name": "",
							"type": "bool"
						}
					],
					"stateMutability": "view",
					"type": "function"
				},
				{
					"inputs": [
						{
							"internalType": "address",
							"name": "sender",
							"type": "address"
						},
						{
							"internalType": "address",
							"name": "recipient",
							"type": "address"
						},
						{
							"internalType": "uint256[]",
							"name": "mainIds",
							"type": "uint256[]"
						},
						{
							"internalType": "uint256[]",
							"name": "subIds",
							"type": "uint256[]"
						},
						{
							"internalType": "uint256[]",
							"name": "amounts",
							"type": "uint256[]"
						},
						{
							"internalType": "bytes",
							"name": "data",
							"type": "bytes"
						}
					],
					"name": "safeBatchTransferFrom",
					"outputs": [
						{
							"internalType": "bool",
							"name": "",
							"type": "bool"
						}
					],
					"stateMutability": "nonpayable",
					"type": "function"
				},
				{
					"inputs": [
						{
							"internalType": "address",
							"name": "sender",
							"type": "address"
						},
						{
							"internalType": "address",
							"name": "recipient",
							"type": "address"
						},
						{
							"internalType": "uint256",
							"name": "mainId",
							"type": "uint256"
						},
						{
							"internalType": "uint256",
							"name": "subId",
							"type": "uint256"
						},
						{
							"internalType": "uint256",
							"name": "amount",
							"type": "uint256"
						}
					],
					"name": "safeTransferFrom",
					"outputs": [
						{
							"internalType": "bool",
							"name": "",
							"type": "bool"
						}
					],
					"stateMutability": "nonpayable",
					"type": "function"
				},
				{
					"inputs": [
						{
							"internalType": "address",
							"name": "sender",
							"type": "address"
						},
						{
							"internalType": "address",
							"name": "recipient",
							"type": "address"
						},
						{
							"internalType": "uint256",
							"name": "mainId",
							"type": "uint256"
						},
						{
							"internalType": "uint256",
							"name": "subId",
							"type": "uint256"
						},
						{
							"internalType": "uint256",
							"name": "amount",
							"type": "uint256"
						},
						{
							"internalType": "bytes",
							"name": "dataextensions",
							"type": "bytes"
						}
					],
					"name": "safeTransferFrom",
					"outputs": [
						{
							"internalType": "bool",
							"name": "",
							"type": "bool"
						}
					],
					"stateMutability": "nonpayable",
					"type": "function"
				},
				{
					"inputs": [
						{
							"internalType": "address",
							"name": "operator",
							"type": "address"
						},
						{
							"internalType": "bool",
							"name": "approved",
							"type": "bool"
						}
					],
					"name": "setApprovalForAll",
					"outputs": [],
					"stateMutability": "nonpayable",
					"type": "function"
				},
				{
					"inputs": [
						{
							"internalType": "address",
							"name": "account",
							"type": "address"
						},
						{
							"internalType": "uint256",
							"name": "mainId",
							"type": "uint256"
						},
						{
							"internalType": "uint256",
							"name": "subId",
							"type": "uint256"
						}
					],
					"name": "subBalanceOf",
					"outputs": [
						{
							"internalType": "uint256",
							"name": "",
							"type": "uint256"
						}
					],
					"stateMutability": "view",
					"type": "function"
				},
				{
					"inputs": [
						{
							"internalType": "address",
							"name": "sender",
							"type": "address"
						},
						{
							"internalType": "address",
							"name": "recipient",
							"type": "address"
						},
						{
							"internalType": "uint256",
							"name": "mainId",
							"type": "uint256"
						},
						{
							"internalType": "uint256",
							"name": "subId",
							"type": "uint256"
						},
						{
							"internalType": "uint256",
							"name": "amount",
							"type": "uint256"
						}
					],
					"name": "transferFrom",
					"outputs": [
						{
							"internalType": "bool",
							"name": "",
							"type": "bool"
						}
					],
					"stateMutability": "nonpayable",
					"type": "function"
				}
			],
			"devdoc": {
				"events": {
					"Approval(address,address,uint256,uint256,uint256)": {
						"details": "Emitted when `owner` enables `spender` to manage the `subId` token."
					},
					"ApprovalForAll(address,address,bool)": {
						"details": "Emitted when `spender` enables or disables (`approved`) `operator` to manage all of its assets."
					},
					"Transfer(address,address,uint256,uint256,uint256)": {
						"details": "Emitted when `subId` token is transferred from `sender` to `recipient`."
					}
				},
				"kind": "dev",
				"methods": {
					"allowance(address,address,uint256,uint256)": {
						"details": "Returns the remaining number of tokens that `spender` will be allowed to spend on behalf of `owner` through {transferFrom}. This is zero by default. This value changes when {approve} or {transferFrom} are called."
					},
					"approve(address,uint256,uint256,uint256)": {
						"details": "Sets `amount` as the allowance of `spender` over the caller's tokens. Returns a boolean value indicating whether the operation succeeded. Emits an {Approval} event."
					},
					"balanceOfBatch(address[],uint256[],uint256[])": {
						"details": "See {IDLT-balanceOfBatch}. Requirements: - `accounts` and `mainIds` and `subIds` must have the same length."
					},
					"isApprovedForAll(address,address)": {
						"details": "Returns if the `operator` is allowed to manage all of the assets of `owner`. See {setApprovalForAll}"
					},
					"safeTransferFrom(address,address,uint256,uint256,uint256)": {
						"details": "See {IDLT-transferFrom}. NOTE: Does not update the allowance if the current allowance is the maximum `uint256`. Requirements: - `sender` and `recipient` cannot be the zero address. - `sender` must have a balance of at least `amount`. - the caller must have allowance for `sender`'s tokens of at least `amount`."
					},
					"setApprovalForAll(address,bool)": {
						"details": "See {DLT-setApprovalForAll}."
					},
					"subBalanceOf(address,uint256,uint256)": {
						"details": "Returns the amount of tokens owned by `account` in subId."
					}
				},
				"version": 1
			},
			"evm": {
				"assembly": "    /* \"src/DLT.sol\":235:19953  contract DLT is Context, IDLT {... */\n  mstore(0x40, 0x80)\n    /* \"src/DLT.sol\":648:757  constructor(string memory name, string memory symbol) {... */\n  callvalue\n  dup1\n  iszero\n  tag_1\n  jumpi\n  0x00\n  dup1\n  revert\ntag_1:\n  pop\n  mload(0x40)\n  sub(codesize, bytecodeSize)\n  dup1\n  bytecodeSize\n  dup4\n  codecopy\n  dup2\n  dup2\n  add\n  0x40\n  mstore\n  dup2\n  add\n  swap1\n  tag_2\n  swap2\n  swap1\n  tag_3\n  jump\t// in\ntag_2:\n    /* \"src/DLT.sol\":720:724  name */\n  dup2\n    /* \"src/DLT.sol\":712:717  _name */\n  0x00\n    /* \"src/DLT.sol\":712:724  _name = name */\n  swap1\n  dup2\n  tag_6\n  swap2\n  swap1\n  tag_7\n  jump\t// in\ntag_6:\n  pop\n    /* \"src/DLT.sol\":744:750  symbol */\n  dup1\n    /* \"src/DLT.sol\":734:741  _symbol */\n  0x01\n    /* \"src/DLT.sol\":734:750  _symbol = symbol */\n  swap1\n  dup2\n  tag_8\n  swap2\n  swap1\n  tag_7\n  jump\t// in\ntag_8:\n  pop\n    /* \"src/DLT.sol\":648:757  constructor(string memory name, string memory symbol) {... */\n  pop\n  pop\n    /* \"src/DLT.sol\":235:19953  contract DLT is Context, IDLT {... */\n  jump(tag_9)\n    /* \"#utility.yul\":7:82   */\ntag_10:\n    /* \"#utility.yul\":40:46   */\n  0x00\n    /* \"#utility.yul\":73:75   */\n  0x40\n    /* \"#utility.yul\":67:76   */\n  mload\n    /* \"#utility.yul\":57:76   */\n  swap1\n  pop\n    /* \"#utility.yul\":7:82   */\n  swap1\n  jump\t// out\n    /* \"#utility.yul\":88:205   */\ntag_11:\n    /* \"#utility.yul\":197:198   */\n  0x00\n    /* \"#utility.yul\":194:195   */\n  dup1\n    /* \"#utility.yul\":187:199   */\n  revert\n    /* \"#utility.yul\":211:328   */\ntag_12:\n    /* \"#utility.yul\":320:321   */\n  0x00\n    /* \"#utility.yul\":317:318   */\n  dup1\n    /* \"#utility.yul\":310:322   */\n  revert\n    /* \"#utility.yul\":334:451   */\ntag_13:\n    /* \"#utility.yul\":443:444   */\n  0x00\n    /* \"#utility.yul\":440:441   */\n  dup1\n    /* \"#utility.yul\":433:445   */\n  revert\n    /* \"#utility.yul\":457:574   */\ntag_14:\n    /* \"#utility.yul\":566:567   */\n  0x00\n    /* \"#utility.yul\":563:564   */\n  dup1\n    /* \"#utility.yul\":556:568   */\n  revert\n    /* \"#utility.yul\":580:682   */\ntag_15:\n    /* \"#utility.yul\":621:627   */\n  0x00\n    /* \"#utility.yul\":672:674   */\n  0x1f\n    /* \"#utility.yul\":668:675   */\n  not\n    /* \"#utility.yul\":663:665   */\n  0x1f\n    /* \"#utility.yul\":656:661   */\n  dup4\n    /* \"#utility.yul\":652:666   */\n  add\n    /* \"#utility.yul\":648:676   */\n  and\n    /* \"#utility.yul\":638:676   */\n  swap1\n  pop\n    /* \"#utility.yul\":580:682   */\n  swap2\n  swap1\n  pop\n  jump\t// out\n    /* \"#utility.yul\":688:868   */\ntag_16:\n    /* \"#utility.yul\":736:813   */\n  0x4e487b7100000000000000000000000000000000000000000000000000000000\n    /* \"#utility.yul\":733:734   */\n  0x00\n    /* \"#utility.yul\":726:814   */\n  mstore\n    /* \"#utility.yul\":833:837   */\n  0x41\n    /* \"#utility.yul\":830:831   */\n  0x04\n    /* \"#utility.yul\":823:838   */\n  mstore\n    /* \"#utility.yul\":857:861   */\n  0x24\n    /* \"#utility.yul\":854:855   */\n  0x00\n    /* \"#utility.yul\":847:862   */\n  revert\n    /* \"#utility.yul\":874:1155   */\ntag_17:\n    /* \"#utility.yul\":957:984   */\n  tag_51\n    /* \"#utility.yul\":979:983   */\n  dup3\n    /* \"#utility.yul\":957:984   */\n  tag_15\n  jump\t// in\ntag_51:\n    /* \"#utility.yul\":949:955   */\n  dup2\n    /* \"#utility.yul\":945:985   */\n  add\n    /* \"#utility.yul\":1087:1093   */\n  dup2\n    /* \"#utility.yul\":1075:1085   */\n  dup2\n    /* \"#utility.yul\":1072:1094   */\n  lt\n    /* \"#utility.yul\":1051:1069   */\n  0xffffffffffffffff\n    /* \"#utility.yul\":1039:1049   */\n  dup3\n    /* \"#utility.yul\":1036:1070   */\n  gt\n    /* \"#utility.yul\":1033:1095   */\n  or\n    /* \"#utility.yul\":1030:1118   */\n  iszero\n  tag_52\n  jumpi\n    /* \"#utility.yul\":1098:1116   */\n  tag_53\n  tag_16\n  jump\t// in\ntag_53:\n    /* \"#utility.yul\":1030:1118   */\ntag_52:\n    /* \"#utility.yul\":1138:1148   */\n  dup1\n    /* \"#utility.yul\":1134:1136   */\n  0x40\n    /* \"#utility.yul\":1127:1149   */\n  mstore\n    /* \"#utility.yul\":917:1155   */\n  pop\n    /* \"#utility.yul\":874:1155   */\n  pop\n  pop\n  jump\t// out\n    /* \"#utility.yul\":1161:1290   */\ntag_18:\n    /* \"#utility.yul\":1195:1201   */\n  0x00\n    /* \"#utility.yul\":1222:1242   */\n  tag_55\n  tag_10\n  jump\t// in\ntag_55:\n    /* \"#utility.yul\":1212:1242   */\n  swap1\n  pop\n    /* \"#utility.yul\":1251:1284   */\n  tag_56\n    /* \"#utility.yul\":1279:1283   */\n  dup3\n    /* \"#utility.yul\":1271:1277   */\n  dup3\n    /* \"#utility.yul\":1251:1284   */\n  tag_17\n  jump\t// in\ntag_56:\n    /* \"#utility.yul\":1161:1290   */\n  swap2\n  swap1\n  pop\n  jump\t// out\n    /* \"#utility.yul\":1296:1604   */\ntag_19:\n    /* \"#utility.yul\":1358:1362   */\n  0x00\n    /* \"#utility.yul\":1448:1466   */\n  0xffffffffffffffff\n    /* \"#utility.yul\":1440:1446   */\n  dup3\n    /* \"#utility.yul\":1437:1467   */\n  gt\n    /* \"#utility.yul\":1434:1490   */\n  iszero\n  tag_58\n  jumpi\n    /* \"#utility.yul\":1470:1488   */\n  tag_59\n  tag_16\n  jump\t// in\ntag_59:\n    /* \"#utility.yul\":1434:1490   */\ntag_58:\n    /* \"#utility.yul\":1508:1537   */\n  tag_60\n    /* \"#utility.yul\":1530:1536   */\n  dup3\n    /* \"#utility.yul\":1508:1537   */\n  tag_15\n  jump\t// in\ntag_60:\n    /* \"#utility.yul\":1500:1537   */\n  swap1\n  pop\n    /* \"#utility.yul\":1592:1596   */\n  0x20\n    /* \"#utility.yul\":1586:1590   */\n  dup2\n    /* \"#utility.yul\":1582:1597   */\n  add\n    /* \"#utility.yul\":1574:1597   */\n  swap1\n  pop\n    /* \"#utility.yul\":1296:1604   */\n  swap2\n  swap1\n  pop\n  jump\t// out\n    /* \"#utility.yul\":1610:1856   */\ntag_20:\n    /* \"#utility.yul\":1691:1692   */\n  0x00\n    /* \"#utility.yul\":1701:1814   */\ntag_62:\n    /* \"#utility.yul\":1715:1721   */\n  dup4\n    /* \"#utility.yul\":1712:1713   */\n  dup2\n    /* \"#utility.yul\":1709:1722   */\n  lt\n    /* \"#utility.yul\":1701:1814   */\n  iszero\n  tag_64\n  jumpi\n    /* \"#utility.yul\":1800:1801   */\n  dup1\n    /* \"#utility.yul\":1795:1798   */\n  dup3\n    /* \"#utility.yul\":1791:1802   */\n  add\n    /* \"#utility.yul\":1785:1803   */\n  mload\n    /* \"#utility.yul\":1781:1782   */\n  dup2\n    /* \"#utility.yul\":1776:1779   */\n  dup5\n    /* \"#utility.yul\":1772:1783   */\n  add\n    /* \"#utility.yul\":1765:1804   */\n  mstore\n    /* \"#utility.yul\":1737:1739   */\n  0x20\n    /* \"#utility.yul\":1734:1735   */\n  dup2\n    /* \"#utility.yul\":1730:1740   */\n  add\n    /* \"#utility.yul\":1725:1740   */\n  swap1\n  pop\n    /* \"#utility.yul\":1701:1814   */\n  jump(tag_62)\ntag_64:\n    /* \"#utility.yul\":1848:1849   */\n  0x00\n    /* \"#utility.yul\":1839:1845   */\n  dup5\n    /* \"#utility.yul\":1834:1837   */\n  dup5\n    /* \"#utility.yul\":1830:1846   */\n  add\n    /* \"#utility.yul\":1823:1850   */\n  mstore\n    /* \"#utility.yul\":1672:1856   */\n  pop\n    /* \"#utility.yul\":1610:1856   */\n  pop\n  pop\n  pop\n  jump\t// out\n    /* \"#utility.yul\":1862:2296   */\ntag_21:\n    /* \"#utility.yul\":1951:1956   */\n  0x00\n    /* \"#utility.yul\":1976:2042   */\n  tag_66\n    /* \"#utility.yul\":1992:2041   */\n  tag_67\n    /* \"#utility.yul\":2034:2040   */\n  dup5\n    /* \"#utility.yul\":1992:2041   */\n  tag_19\n  jump\t// in\ntag_67:\n    /* \"#utility.yul\":1976:2042   */\n  tag_18\n  jump\t// in\ntag_66:\n    /* \"#utility.yul\":1967:2042   */\n  swap1\n  pop\n    /* \"#utility.yul\":2065:2071   */\n  dup3\n    /* \"#utility.yul\":2058:2063   */\n  dup2\n    /* \"#utility.yul\":2051:2072   */\n  mstore\n    /* \"#utility.yul\":2103:2107   */\n  0x20\n    /* \"#utility.yul\":2096:2101   */\n  dup2\n    /* \"#utility.yul\":2092:2108   */\n  add\n    /* \"#utility.yul\":2141:2144   */\n  dup5\n    /* \"#utility.yul\":2132:2138   */\n  dup5\n    /* \"#utility.yul\":2127:2130   */\n  dup5\n    /* \"#utility.yul\":2123:2139   */\n  add\n    /* \"#utility.yul\":2120:2145   */\n  gt\n    /* \"#utility.yul\":2117:2229   */\n  iszero\n  tag_68\n  jumpi\n    /* \"#utility.yul\":2148:2227   */\n  tag_69\n  tag_14\n  jump\t// in\ntag_69:\n    /* \"#utility.yul\":2117:2229   */\ntag_68:\n    /* \"#utility.yul\":2238:2290   */\n  tag_70\n    /* \"#utility.yul\":2283:2289   */\n  dup5\n    /* \"#utility.yul\":2278:2281   */\n  dup3\n    /* \"#utility.yul\":2273:2276   */\n  dup6\n    /* \"#utility.yul\":2238:2290   */\n  tag_20\n  jump\t// in\ntag_70:\n    /* \"#utility.yul\":1957:2296   */\n  pop\n    /* \"#utility.yul\":1862:2296   */\n  swap4\n  swap3\n  pop\n  pop\n  pop\n  jump\t// out\n    /* \"#utility.yul\":2316:2671   */\ntag_22:\n    /* \"#utility.yul\":2383:2388   */\n  0x00\n    /* \"#utility.yul\":2432:2435   */\n  dup3\n    /* \"#utility.yul\":2425:2429   */\n  0x1f\n    /* \"#utility.yul\":2417:2423   */\n  dup4\n    /* \"#utility.yul\":2413:2430   */\n  add\n    /* \"#utility.yul\":2409:2436   */\n  slt\n    /* \"#utility.yul\":2399:2521   */\n  tag_72\n  jumpi\n    /* \"#utility.yul\":2440:2519   */\n  tag_73\n  tag_13\n  jump\t// in\ntag_73:\n    /* \"#utility.yul\":2399:2521   */\ntag_72:\n    /* \"#utility.yul\":2550:2556   */\n  dup2\n    /* \"#utility.yul\":2544:2557   */\n  mload\n    /* \"#utility.yul\":2575:2665   */\n  tag_74\n    /* \"#utility.yul\":2661:2664   */\n  dup5\n    /* \"#utility.yul\":2653:2659   */\n  dup3\n    /* \"#utility.yul\":2646:2650   */\n  0x20\n    /* \"#utility.yul\":2638:2644   */\n  dup7\n    /* \"#utility.yul\":2634:2651   */\n  add\n    /* \"#utility.yul\":2575:2665   */\n  tag_21\n  jump\t// in\ntag_74:\n    /* \"#utility.yul\":2566:2665   */\n  swap2\n  pop\n    /* \"#utility.yul\":2389:2671   */\n  pop\n    /* \"#utility.yul\":2316:2671   */\n  swap3\n  swap2\n  pop\n  pop\n  jump\t// out\n    /* \"#utility.yul\":2677:3530   */\ntag_3:\n    /* \"#utility.yul\":2776:2782   */\n  0x00\n    /* \"#utility.yul\":2784:2790   */\n  dup1\n    /* \"#utility.yul\":2833:2835   */\n  0x40\n    /* \"#utility.yul\":2821:2830   */\n  dup4\n    /* \"#utility.yul\":2812:2819   */\n  dup6\n    /* \"#utility.yul\":2808:2831   */\n  sub\n    /* \"#utility.yul\":2804:2836   */\n  slt\n    /* \"#utility.yul\":2801:2920   */\n  iszero\n  tag_76\n  jumpi\n    /* \"#utility.yul\":2839:2918   */\n  tag_77\n  tag_11\n  jump\t// in\ntag_77:\n    /* \"#utility.yul\":2801:2920   */\ntag_76:\n    /* \"#utility.yul\":2980:2981   */\n  0x00\n    /* \"#utility.yul\":2969:2978   */\n  dup4\n    /* \"#utility.yul\":2965:2982   */\n  add\n    /* \"#utility.yul\":2959:2983   */\n  mload\n    /* \"#utility.yul\":3010:3028   */\n  0xffffffffffffffff\n    /* \"#utility.yul\":3002:3008   */\n  dup2\n    /* \"#utility.yul\":2999:3029   */\n  gt\n    /* \"#utility.yul\":2996:3113   */\n  iszero\n  tag_78\n  jumpi\n    /* \"#utility.yul\":3032:3111   */\n  tag_79\n  tag_12\n  jump\t// in\ntag_79:\n    /* \"#utility.yul\":2996:3113   */\ntag_78:\n    /* \"#utility.yul\":3137:3211   */\n  tag_80\n    /* \"#utility.yul\":3203:3210   */\n  dup6\n    /* \"#utility.yul\":3194:3200   */\n  dup3\n    /* \"#utility.yul\":3183:3192   */\n  dup7\n    /* \"#utility.yul\":3179:3201   */\n  add\n    /* \"#utility.yul\":3137:3211   */\n  tag_22\n  jump\t// in\ntag_80:\n    /* \"#utility.yul\":3127:3211   */\n  swap3\n  pop\n    /* \"#utility.yul\":2930:3221   */\n  pop\n    /* \"#utility.yul\":3281:3283   */\n  0x20\n    /* \"#utility.yul\":3270:3279   */\n  dup4\n    /* \"#utility.yul\":3266:3284   */\n  add\n    /* \"#utility.yul\":3260:3285   */\n  mload\n    /* \"#utility.yul\":3312:3330   */\n  0xffffffffffffffff\n    /* \"#utility.yul\":3304:3310   */\n  dup2\n    /* \"#utility.yul\":3301:3331   */\n  gt\n    /* \"#utility.yul\":3298:3415   */\n  iszero\n  tag_81\n  jumpi\n    /* \"#utility.yul\":3334:3413   */\n  tag_82\n  tag_12\n  jump\t// in\ntag_82:\n    /* \"#utility.yul\":3298:3415   */\ntag_81:\n    /* \"#utility.yul\":3439:3513   */\n  tag_83\n    /* \"#utility.yul\":3505:3512   */\n  dup6\n    /* \"#utility.yul\":3496:3502   */\n  dup3\n    /* \"#utility.yul\":3485:3494   */\n  dup7\n    /* \"#utility.yul\":3481:3503   */\n  add\n    /* \"#utility.yul\":3439:3513   */\n  tag_22\n  jump\t// in\ntag_83:\n    /* \"#utility.yul\":3429:3513   */\n  swap2\n  pop\n    /* \"#utility.yul\":3231:3523   */\n  pop\n    /* \"#utility.yul\":2677:3530   */\n  swap3\n  pop\n  swap3\n  swap1\n  pop\n  jump\t// out\n    /* \"#utility.yul\":3536:3635   */\ntag_23:\n    /* \"#utility.yul\":3588:3594   */\n  0x00\n    /* \"#utility.yul\":3622:3627   */\n  dup2\n    /* \"#utility.yul\":3616:3628   */\n  mload\n    /* \"#utility.yul\":3606:3628   */\n  swap1\n  pop\n    /* \"#utility.yul\":3536:3635   */\n  swap2\n  swap1\n  pop\n  jump\t// out\n    /* \"#utility.yul\":3641:3821   */\ntag_24:\n    /* \"#utility.yul\":3689:3766   */\n  0x4e487b7100000000000000000000000000000000000000000000000000000000\n    /* \"#utility.yul\":3686:3687   */\n  0x00\n    /* \"#utility.yul\":3679:3767   */\n  mstore\n    /* \"#utility.yul\":3786:3790   */\n  0x22\n    /* \"#utility.yul\":3783:3784   */\n  0x04\n    /* \"#utility.yul\":3776:3791   */\n  mstore\n    /* \"#utility.yul\":3810:3814   */\n  0x24\n    /* \"#utility.yul\":3807:3808   */\n  0x00\n    /* \"#utility.yul\":3800:3815   */\n  revert\n    /* \"#utility.yul\":3827:4147   */\ntag_25:\n    /* \"#utility.yul\":3871:3877   */\n  0x00\n    /* \"#utility.yul\":3908:3909   */\n  0x02\n    /* \"#utility.yul\":3902:3906   */\n  dup3\n    /* \"#utility.yul\":3898:3910   */\n  div\n    /* \"#utility.yul\":3888:3910   */\n  swap1\n  pop\n    /* \"#utility.yul\":3955:3956   */\n  0x01\n    /* \"#utility.yul\":3949:3953   */\n  dup3\n    /* \"#utility.yul\":3945:3957   */\n  and\n    /* \"#utility.yul\":3976:3994   */\n  dup1\n    /* \"#utility.yul\":3966:4047   */\n  tag_87\n  jumpi\n    /* \"#utility.yul\":4032:4036   */\n  0x7f\n    /* \"#utility.yul\":4024:4030   */\n  dup3\n    /* \"#utility.yul\":4020:4037   */\n  and\n    /* \"#utility.yul\":4010:4037   */\n  swap2\n  pop\n    /* \"#utility.yul\":3966:4047   */\ntag_87:\n    /* \"#utility.yul\":4094:4096   */\n  0x20\n    /* \"#utility.yul\":4086:4092   */\n  dup3\n    /* \"#utility.yul\":4083:4097   */\n  lt\n    /* \"#utility.yul\":4063:4081   */\n  dup2\n    /* \"#utility.yul\":4060:4098   */\n  sub\n    /* \"#utility.yul\":4057:4141   */\n  tag_88\n  jumpi\n    /* \"#utility.yul\":4113:4131   */\n  tag_89\n  tag_24\n  jump\t// in\ntag_89:\n    /* \"#utility.yul\":4057:4141   */\ntag_88:\n    /* \"#utility.yul\":3878:4147   */\n  pop\n    /* \"#utility.yul\":3827:4147   */\n  swap2\n  swap1\n  pop\n  jump\t// out\n    /* \"#utility.yul\":4153:4294   */\ntag_26:\n    /* \"#utility.yul\":4202:4206   */\n  0x00\n    /* \"#utility.yul\":4225:4228   */\n  dup2\n    /* \"#utility.yul\":4217:4228   */\n  swap1\n  pop\n    /* \"#utility.yul\":4248:4251   */\n  dup2\n    /* \"#utility.yul\":4245:4246   */\n  0x00\n    /* \"#utility.yul\":4238:4252   */\n  mstore\n    /* \"#utility.yul\":4282:4286   */\n  0x20\n    /* \"#utility.yul\":4279:4280   */\n  0x00\n    /* \"#utility.yul\":4269:4287   */\n  keccak256\n    /* \"#utility.yul\":4261:4287   */\n  swap1\n  pop\n    /* \"#utility.yul\":4153:4294   */\n  swap2\n  swap1\n  pop\n  jump\t// out\n    /* \"#utility.yul\":4300:4393   */\ntag_27:\n    /* \"#utility.yul\":4337:4343   */\n  0x00\n    /* \"#utility.yul\":4384:4386   */\n  0x20\n    /* \"#utility.yul\":4379:4381   */\n  0x1f\n    /* \"#utility.yul\":4372:4377   */\n  dup4\n    /* \"#utility.yul\":4368:4382   */\n  add\n    /* \"#utility.yul\":4364:4387   */\n  div\n    /* \"#utility.yul\":4354:4387   */\n  swap1\n  pop\n    /* \"#utility.yul\":4300:4393   */\n  swap2\n  swap1\n  pop\n  jump\t// out\n    /* \"#utility.yul\":4399:4506   */\ntag_28:\n    /* \"#utility.yul\":4443:4451   */\n  0x00\n    /* \"#utility.yul\":4493:4498   */\n  dup3\n    /* \"#utility.yul\":4487:4491   */\n  dup3\n    /* \"#utility.yul\":4483:4499   */\n  shl\n    /* \"#utility.yul\":4462:4499   */\n  swap1\n  pop\n    /* \"#utility.yul\":4399:4506   */\n  swap3\n  swap2\n  pop\n  pop\n  jump\t// out\n    /* \"#utility.yul\":4512:4905   */\ntag_29:\n    /* \"#utility.yul\":4581:4587   */\n  0x00\n    /* \"#utility.yul\":4631:4632   */\n  0x08\n    /* \"#utility.yul\":4619:4629   */\n  dup4\n    /* \"#utility.yul\":4615:4633   */\n  mul\n    /* \"#utility.yul\":4654:4751   */\n  tag_94\n    /* \"#utility.yul\":4684:4750   */\n  0xffffffffffffffffffffffffffffffffffffffffffffffffffffffffffffffff\n    /* \"#utility.yul\":4673:4682   */\n  dup3\n    /* \"#utility.yul\":4654:4751   */\n  tag_28\n  jump\t// in\ntag_94:\n    /* \"#utility.yul\":4772:4811   */\n  tag_95\n    /* \"#utility.yul\":4802:4810   */\n  dup7\n    /* \"#utility.yul\":4791:4800   */\n  dup4\n    /* \"#utility.yul\":4772:4811   */\n  tag_28\n  jump\t// in\ntag_95:\n    /* \"#utility.yul\":4760:4811   */\n  swap6\n  pop\n    /* \"#utility.yul\":4844:4848   */\n  dup1\n    /* \"#utility.yul\":4840:4849   */\n  not\n    /* \"#utility.yul\":4833:4838   */\n  dup5\n    /* \"#utility.yul\":4829:4850   */\n  and\n    /* \"#utility.yul\":4820:4850   */\n  swap4\n  pop\n    /* \"#utility.yul\":4893:4897   */\n  dup1\n    /* \"#utility.yul\":4883:4891   */\n  dup7\n    /* \"#utility.yul\":4879:4898   */\n  and\n    /* \"#utility.yul\":4872:4877   */\n  dup5\n    /* \"#utility.yul\":4869:4899   */\n  or\n    /* \"#utility.yul\":4859:4899   */\n  swap3\n  pop\n    /* \"#utility.yul\":4588:4905   */\n  pop\n  pop\n    /* \"#utility.yul\":4512:4905   */\n  swap4\n  swap3\n  pop\n  pop\n  pop\n  jump\t// out\n    /* \"#utility.yul\":4911:4988   */\ntag_30:\n    /* \"#utility.yul\":4948:4955   */\n  0x00\n    /* \"#utility.yul\":4977:4982   */\n  dup2\n    /* \"#utility.yul\":4966:4982   */\n  swap1\n  pop\n    /* \"#utility.yul\":4911:4988   */\n  swap2\n  swap1\n  pop\n  jump\t// out\n    /* \"#utility.yul\":4994:5054   */\ntag_31:\n    /* \"#utility.yul\":5022:5025   */\n  0x00\n    /* \"#utility.yul\":5043:5048   */\n  dup2\n    /* \"#utility.yul\":5036:5048   */\n  swap1\n  pop\n    /* \"#utility.yul\":4994:5054   */\n  swap2\n  swap1\n  pop\n  jump\t// out\n    /* \"#utility.yul\":5060:5202   */\ntag_32:\n    /* \"#utility.yul\":5110:5119   */\n  0x00\n    /* \"#utility.yul\":5143:5196   */\n  tag_99\n    /* \"#utility.yul\":5161:5195   */\n  tag_100\n    /* \"#utility.yul\":5170:5194   */\n  tag_101\n    /* \"#utility.yul\":5188:5193   */\n  dup5\n    /* \"#utility.yul\":5170:5194   */\n  tag_30\n  jump\t// in\ntag_101:\n    /* \"#utility.yul\":5161:5195   */\n  tag_31\n  jump\t// in\ntag_100:\n    /* \"#utility.yul\":5143:5196   */\n  tag_30\n  jump\t// in\ntag_99:\n    /* \"#utility.yul\":5130:5196   */\n  swap1\n  pop\n    /* \"#utility.yul\":5060:5202   */\n  swap2\n  swap1\n  pop\n  jump\t// out\n    /* \"#utility.yul\":5208:5283   */\ntag_33:\n    /* \"#utility.yul\":5251:5254   */\n  0x00\n    /* \"#utility.yul\":5272:5277   */\n  dup2\n    /* \"#utility.yul\":5265:5277   */\n  swap1\n  pop\n    /* \"#utility.yul\":5208:5283   */\n  swap2\n  swap1\n  pop\n  jump\t// out\n    /* \"#utility.yul\":5289:5558   */\ntag_34:\n    /* \"#utility.yul\":5399:5438   */\n  tag_104\n    /* \"#utility.yul\":5430:5437   */\n  dup4\n    /* \"#utility.yul\":5399:5438   */\n  tag_32\n  jump\t// in\ntag_104:\n    /* \"#utility.yul\":5460:5551   */\n  tag_105\n    /* \"#utility.yul\":5509:5550   */\n  tag_106\n    /* \"#utility.yul\":5533:5549   */\n  dup3\n    /* \"#utility.yul\":5509:5550   */\n  tag_33\n  jump\t// in\ntag_106:\n    /* \"#utility.yul\":5501:5507   */\n  dup5\n    /* \"#utility.yul\":5494:5498   */\n  dup5\n    /* \"#utility.yul\":5488:5499   */\n  sload\n    /* \"#utility.yul\":5460:5551   */\n  tag_29\n  jump\t// in\ntag_105:\n    /* \"#utility.yul\":5454:5458   */\n  dup3\n    /* \"#utility.yul\":5447:5552   */\n  sstore\n    /* \"#utility.yul\":5365:5558   */\n  pop\n    /* \"#utility.yul\":5289:5558   */\n  pop\n  pop\n  pop\n  jump\t// out\n    /* \"#utility.yul\":5564:5637   */\ntag_35:\n    /* \"#utility.yul\":5609:5612   */\n  0x00\n    /* \"#utility.yul\":5564:5637   */\n  swap1\n  jump\t// out\n    /* \"#utility.yul\":5643:5832   */\ntag_36:\n    /* \"#utility.yul\":5720:5752   */\n  tag_109\n  tag_35\n  jump\t// in\ntag_109:\n    /* \"#utility.yul\":5761:5826   */\n  tag_110\n    /* \"#utility.yul\":5819:5825   */\n  dup2\n    /* \"#utility.yul\":5811:5817   */\n  dup5\n    /* \"#utility.yul\":5805:5809   */\n  dup5\n    /* \"#utility.yul\":5761:5826   */\n  tag_34\n  jump\t// in\ntag_110:\n    /* \"#utility.yul\":5696:5832   */\n  pop\n    /* \"#utility.yul\":5643:5832   */\n  pop\n  pop\n  jump\t// out\n    /* \"#utility.yul\":5838:6024   */\ntag_37:\n    /* \"#utility.yul\":5898:6018   */\ntag_112:\n    /* \"#utility.yul\":5915:5918   */\n  dup2\n    /* \"#utility.yul\":5908:5913   */\n  dup2\n    /* \"#utility.yul\":5905:5919   */\n  lt\n    /* \"#utility.yul\":5898:6018   */\n  iszero\n  tag_114\n  jumpi\n    /* \"#utility.yul\":5969:6008   */\n  tag_115\n    /* \"#utility.yul\":6006:6007   */\n  0x00\n    /* \"#utility.yul\":5999:6004   */\n  dup3\n    /* \"#utility.yul\":5969:6008   */\n  tag_36\n  jump\t// in\ntag_115:\n    /* \"#utility.yul\":5942:5943   */\n  0x01\n    /* \"#utility.yul\":5935:5940   */\n  dup2\n    /* \"#utility.yul\":5931:5944   */\n  add\n    /* \"#utility.yul\":5922:5944   */\n  swap1\n  pop\n    /* \"#utility.yul\":5898:6018   */\n  jump(tag_112)\ntag_114:\n    /* \"#utility.yul\":5838:6024   */\n  pop\n  pop\n  jump\t// out\n    /* \"#utility.yul\":6030:6573   */\ntag_38:\n    /* \"#utility.yul\":6131:6133   */\n  0x1f\n    /* \"#utility.yul\":6126:6129   */\n  dup3\n    /* \"#utility.yul\":6123:6134   */\n  gt\n    /* \"#utility.yul\":6120:6566   */\n  iszero\n  tag_117\n  jumpi\n    /* \"#utility.yul\":6165:6203   */\n  tag_118\n    /* \"#utility.yul\":6197:6202   */\n  dup2\n    /* \"#utility.yul\":6165:6203   */\n  tag_26\n  jump\t// in\ntag_118:\n    /* \"#utility.yul\":6249:6278   */\n  tag_119\n    /* \"#utility.yul\":6267:6277   */\n  dup5\n    /* \"#utility.yul\":6249:6278   */\n  tag_27\n  jump\t// in\ntag_119:\n    /* \"#utility.yul\":6239:6247   */\n  dup2\n    /* \"#utility.yul\":6235:6279   */\n  add\n    /* \"#utility.yul\":6432:6434   */\n  0x20\n    /* \"#utility.yul\":6420:6430   */\n  dup6\n    /* \"#utility.yul\":6417:6435   */\n  lt\n    /* \"#utility.yul\":6414:6463   */\n  iszero\n  tag_120\n  jumpi\n    /* \"#utility.yul\":6453:6461   */\n  dup2\n    /* \"#utility.yul\":6438:6461   */\n  swap1\n  pop\n    /* \"#utility.yul\":6414:6463   */\ntag_120:\n    /* \"#utility.yul\":6476:6556   */\n  tag_121\n    /* \"#utility.yul\":6532:6554   */\n  tag_122\n    /* \"#utility.yul\":6550:6553   */\n  dup6\n    /* \"#utility.yul\":6532:6554   */\n  tag_27\n  jump\t// in\ntag_122:\n    /* \"#utility.yul\":6522:6530   */\n  dup4\n    /* \"#utility.yul\":6518:6555   */\n  add\n    /* \"#utility.yul\":6505:6516   */\n  dup3\n    /* \"#utility.yul\":6476:6556   */\n  tag_37\n  jump\t// in\ntag_121:\n    /* \"#utility.yul\":6135:6566   */\n  pop\n  pop\n    /* \"#utility.yul\":6120:6566   */\ntag_117:\n    /* \"#utility.yul\":6030:6573   */\n  pop\n  pop\n  pop\n  jump\t// out\n    /* \"#utility.yul\":6579:6696   */\ntag_39:\n    /* \"#utility.yul\":6633:6641   */\n  0x00\n    /* \"#utility.yul\":6683:6688   */\n  dup3\n    /* \"#utility.yul\":6677:6681   */\n  dup3\n    /* \"#utility.yul\":6673:6689   */\n  shr\n    /* \"#utility.yul\":6652:6689   */\n  swap1\n  pop\n    /* \"#utility.yul\":6579:6696   */\n  swap3\n  swap2\n  pop\n  pop\n  jump\t// out\n    /* \"#utility.yul\":6702:6871   */\ntag_40:\n    /* \"#utility.yul\":6746:6752   */\n  0x00\n    /* \"#utility.yul\":6779:6830   */\n  tag_125\n    /* \"#utility.yul\":6827:6828   */\n  0x00\n    /* \"#utility.yul\":6823:6829   */\n  not\n    /* \"#utility.yul\":6815:6820   */\n  dup5\n    /* \"#utility.yul\":6812:6813   */\n  0x08\n    /* \"#utility.yul\":6808:6821   */\n  mul\n    /* \"#utility.yul\":6779:6830   */\n  tag_39\n  jump\t// in\ntag_125:\n    /* \"#utility.yul\":6775:6831   */\n  not\n    /* \"#utility.yul\":6860:6864   */\n  dup1\n    /* \"#utility.yul\":6854:6858   */\n  dup4\n    /* \"#utility.yul\":6850:6865   */\n  and\n    /* \"#utility.yul\":6840:6865   */\n  swap2\n  pop\n    /* \"#utility.yul\":6753:6871   */\n  pop\n    /* \"#utility.yul\":6702:6871   */\n  swap3\n  swap2\n  pop\n  pop\n  jump\t// out\n    /* \"#utility.yul\":6876:7171   */\ntag_41:\n    /* \"#utility.yul\":6952:6956   */\n  0x00\n    /* \"#utility.yul\":7098:7127   */\n  tag_127\n    /* \"#utility.yul\":7123:7126   */\n  dup4\n    /* \"#utility.yul\":7117:7121   */\n  dup4\n    /* \"#utility.yul\":7098:7127   */\n  tag_40\n  jump\t// in\ntag_127:\n    /* \"#utility.yul\":7090:7127   */\n  swap2\n  pop\n    /* \"#utility.yul\":7160:7163   */\n  dup3\n    /* \"#utility.yul\":7157:7158   */\n  0x02\n    /* \"#utility.yul\":7153:7164   */\n  mul\n    /* \"#utility.yul\":7147:7151   */\n  dup3\n    /* \"#utility.yul\":7144:7165   */\n  or\n    /* \"#utility.yul\":7136:7165   */\n  swap1\n  pop\n    /* \"#utility.yul\":6876:7171   */\n  swap3\n  swap2\n  pop\n  pop\n  jump\t// out\n    /* \"#utility.yul\":7176:8571   */\ntag_7:\n    /* \"#utility.yul\":7293:7330   */\n  tag_129\n    /* \"#utility.yul\":7326:7329   */\n  dup3\n    /* \"#utility.yul\":7293:7330   */\n  tag_23\n  jump\t// in\ntag_129:\n    /* \"#utility.yul\":7395:7413   */\n  0xffffffffffffffff\n    /* \"#utility.yul\":7387:7393   */\n  dup2\n    /* \"#utility.yul\":7384:7414   */\n  gt\n    /* \"#utility.yul\":7381:7437   */\n  iszero\n  tag_130\n  jumpi\n    /* \"#utility.yul\":7417:7435   */\n  tag_131\n  tag_16\n  jump\t// in\ntag_131:\n    /* \"#utility.yul\":7381:7437   */\ntag_130:\n    /* \"#utility.yul\":7461:7499   */\n  tag_132\n    /* \"#utility.yul\":7493:7497   */\n  dup3\n    /* \"#utility.yul\":7487:7498   */\n  sload\n    /* \"#utility.yul\":7461:7499   */\n  tag_25\n  jump\t// in\ntag_132:\n    /* \"#utility.yul\":7546:7613   */\n  tag_133\n    /* \"#utility.yul\":7606:7612   */\n  dup3\n    /* \"#utility.yul\":7598:7604   */\n  dup3\n    /* \"#utility.yul\":7592:7596   */\n  dup6\n    /* \"#utility.yul\":7546:7613   */\n  tag_38\n  jump\t// in\ntag_133:\n    /* \"#utility.yul\":7640:7641   */\n  0x00\n    /* \"#utility.yul\":7664:7668   */\n  0x20\n    /* \"#utility.yul\":7651:7668   */\n  swap1\n  pop\n    /* \"#utility.yul\":7696:7698   */\n  0x1f\n    /* \"#utility.yul\":7688:7694   */\n  dup4\n    /* \"#utility.yul\":7685:7699   */\n  gt\n    /* \"#utility.yul\":7713:7714   */\n  0x01\n    /* \"#utility.yul\":7708:8326   */\n  dup2\n  eq\n  tag_135\n  jumpi\n    /* \"#utility.yul\":8370:8371   */\n  0x00\n    /* \"#utility.yul\":8387:8393   */\n  dup5\n    /* \"#utility.yul\":8384:8461   */\n  iszero\n  tag_136\n  jumpi\n    /* \"#utility.yul\":8436:8445   */\n  dup3\n    /* \"#utility.yul\":8431:8434   */\n  dup8\n    /* \"#utility.yul\":8427:8446   */\n  add\n    /* \"#utility.yul\":8421:8447   */\n  mload\n    /* \"#utility.yul\":8412:8447   */\n  swap1\n  pop\n    /* \"#utility.yul\":8384:8461   */\ntag_136:\n    /* \"#utility.yul\":8487:8554   */\n  tag_137\n    /* \"#utility.yul\":8547:8553   */\n  dup6\n    /* \"#utility.yul\":8540:8545   */\n  dup3\n    /* \"#utility.yul\":8487:8554   */\n  tag_41\n  jump\t// in\ntag_137:\n    /* \"#utility.yul\":8481:8485   */\n  dup7\n    /* \"#utility.yul\":8474:8555   */\n  sstore\n    /* \"#utility.yul\":8343:8565   */\n  pop\n    /* \"#utility.yul\":7678:8565   */\n  jump(tag_134)\n    /* \"#utility.yul\":7708:8326   */\ntag_135:\n    /* \"#utility.yul\":7760:7764   */\n  0x1f\n    /* \"#utility.yul\":7756:7765   */\n  not\n    /* \"#utility.yul\":7748:7754   */\n  dup5\n    /* \"#utility.yul\":7744:7766   */\n  and\n    /* \"#utility.yul\":7794:7831   */\n  tag_138\n    /* \"#utility.yul\":7826:7830   */\n  dup7\n    /* \"#utility.yul\":7794:7831   */\n  tag_26\n  jump\t// in\ntag_138:\n    /* \"#utility.yul\":7853:7854   */\n  0x00\n    /* \"#utility.yul\":7867:8075   */\ntag_139:\n    /* \"#utility.yul\":7881:7888   */\n  dup3\n    /* \"#utility.yul\":7878:7879   */\n  dup2\n    /* \"#utility.yul\":7875:7889   */\n  lt\n    /* \"#utility.yul\":7867:8075   */\n  iszero\n  tag_141\n  jumpi\n    /* \"#utility.yul\":7960:7969   */\n  dup5\n    /* \"#utility.yul\":7955:7958   */\n  dup10\n    /* \"#utility.yul\":7951:7970   */\n  add\n    /* \"#utility.yul\":7945:7971   */\n  mload\n    /* \"#utility.yul\":7937:7943   */\n  dup3\n    /* \"#utility.yul\":7930:7972   */\n  sstore\n    /* \"#utility.yul\":8011:8012   */\n  0x01\n    /* \"#utility.yul\":8003:8009   */\n  dup3\n    /* \"#utility.yul\":7999:8013   */\n  add\n    /* \"#utility.yul\":7989:8013   */\n  swap2\n  pop\n    /* \"#utility.yul\":8058:8060   */\n  0x20\n    /* \"#utility.yul\":8047:8056   */\n  dup6\n    /* \"#utility.yul\":8043:8061   */\n  add\n    /* \"#utility.yul\":8030:8061   */\n  swap5\n  pop\n    /* \"#utility.yul\":7904:7908   */\n  0x20\n    /* \"#utility.yul\":7901:7902   */\n  dup2\n    /* \"#utility.yul\":7897:7909   */\n  add\n    /* \"#utility.yul\":7892:7909   */\n  swap1\n  pop\n    /* \"#utility.yul\":7867:8075   */\n  jump(tag_139)\ntag_141:\n    /* \"#utility.yul\":8103:8109   */\n  dup7\n    /* \"#utility.yul\":8094:8101   */\n  dup4\n    /* \"#utility.yul\":8091:8110   */\n  lt\n    /* \"#utility.yul\":8088:8267   */\n  iszero\n  tag_142\n  jumpi\n    /* \"#utility.yul\":8161:8170   */\n  dup5\n    /* \"#utility.yul\":8156:8159   */\n  dup10\n    /* \"#utility.yul\":8152:8171   */\n  add\n    /* \"#utility.yul\":8146:8172   */\n  mload\n    /* \"#utility.yul\":8204:8252   */\n  tag_143\n    /* \"#utility.yul\":8246:8250   */\n  0x1f\n    /* \"#utility.yul\":8238:8244   */\n  dup10\n    /* \"#utility.yul\":8234:8251   */\n  and\n    /* \"#utility.yul\":8223:8232   */\n  dup3\n    /* \"#utility.yul\":8204:8252   */\n  tag_40\n  jump\t// in\ntag_143:\n    /* \"#utility.yul\":8196:8202   */\n  dup4\n    /* \"#utility.yul\":8189:8253   */\n  sstore\n    /* \"#utility.yul\":8111:8267   */\n  pop\n    /* \"#utility.yul\":8088:8267   */\ntag_142:\n    /* \"#utility.yul\":8313:8314   */\n  0x01\n    /* \"#utility.yul\":8309:8310   */\n  0x02\n    /* \"#utility.yul\":8301:8307   */\n  dup9\n    /* \"#utility.yul\":8297:8311   */\n  mul\n    /* \"#utility.yul\":8293:8315   */\n  add\n    /* \"#utility.yul\":8287:8291   */\n  dup9\n    /* \"#utility.yul\":8280:8316   */\n  sstore\n    /* \"#utility.yul\":7715:8326   */\n  pop\n  pop\n  pop\n    /* \"#utility.yul\":7678:8565   */\ntag_134:\n  pop\n    /* \"#utility.yul\":7268:8571   */\n  pop\n  pop\n  pop\n    /* \"#utility.yul\":7176:8571   */\n  pop\n  pop\n  jump\t// out\n    /* \"src/DLT.sol\":235:19953  contract DLT is Context, IDLT {... */\ntag_9:\n  dataSize(sub_0)\n  dup1\n  dataOffset(sub_0)\n  0x00\n  codecopy\n  0x00\n  return\nstop\n\nsub_0: assembly {\n        /* \"src/DLT.sol\":235:19953  contract DLT is Context, IDLT {... */\n      mstore(0x40, 0x80)\n      callvalue\n      dup1\n      iszero\n      tag_1\n      jumpi\n      0x00\n      dup1\n      revert\n    tag_1:\n      pop\n      jumpi(tag_2, lt(calldatasize, 0x04))\n      shr(0xe0, calldataload(0x00))\n      dup1\n      0x62b26417\n      gt\n      tag_13\n      jumpi\n      dup1\n      0x62b26417\n      eq\n      tag_8\n      jumpi\n      dup1\n      0x6b98fd1e\n      eq\n      tag_9\n      jumpi\n      dup1\n      0x8536208d\n      eq\n      tag_10\n      jumpi\n      dup1\n      0xa22cb465\n      eq\n      tag_11\n      jumpi\n      dup1\n      0xe985e9c5\n      eq\n      tag_12\n      jumpi\n      jump(tag_2)\n    tag_13:\n      dup1\n      0x01b5e494\n      eq\n      tag_3\n      jumpi\n      dup1\n      0x443b63b9\n      eq\n      tag_4\n      jumpi\n      dup1\n      0x4aed53c2\n      eq\n      tag_5\n      jumpi\n      dup1\n      0x4d47fddb\n      eq\n      tag_6\n      jumpi\n      dup1\n      0x4f4df442\n      eq\n      tag_7\n      jumpi\n    tag_2:\n      0x00\n      dup1\n      revert\n        /* \"src/DLT.sol\":1759:2044  function safeTransferFrom(... */\n    tag_3:\n      tag_14\n      0x04\n      dup1\n      calldatasize\n      sub\n      dup2\n      add\n      swap1\n      tag_15\n      swap2\n      swap1\n      tag_16\n      jump\t// in\n    tag_15:\n      tag_17\n      jump\t// in\n    tag_14:\n      mload(0x40)\n      tag_18\n      swap2\n      swap1\n      tag_19\n      jump\t// in\n    tag_18:\n      mload(0x40)\n      dup1\n      swap2\n      sub\n      swap1\n      return\n        /* \"src/DLT.sol\":4282:4514  function allowance(... */\n    tag_4:\n      tag_20\n      0x04\n      dup1\n      calldatasize\n      sub\n      dup2\n      add\n      swap1\n      tag_21\n      swap2\n      swap1\n      tag_22\n      jump\t// in\n    tag_21:\n      tag_23\n      jump\t// in\n    tag_20:\n      mload(0x40)\n      tag_24\n      swap2\n      swap1\n      tag_25\n      jump\t// in\n    tag_24:\n      mload(0x40)\n      dup1\n      swap2\n      sub\n      swap1\n      return\n        /* \"src/DLT.sol\":2998:3271  function transferFrom(... */\n    tag_5:\n      tag_26\n      0x04\n      dup1\n      calldatasize\n      sub\n      dup2\n      add\n      swap1\n      tag_27\n      swap2\n      swap1\n      tag_16\n      jump\t// in\n    tag_27:\n      tag_28\n      jump\t// in\n    tag_26:\n      mload(0x40)\n      tag_29\n      swap2\n      swap1\n      tag_19\n      jump\t// in\n    tag_29:\n      mload(0x40)\n      dup1\n      swap2\n      sub\n      swap1\n      return\n        /* \"src/DLT.sol\":2050:2384  function safeTransferFrom(... */\n    tag_6:\n      tag_30\n      0x04\n      dup1\n      calldatasize\n      sub\n      dup2\n      add\n      swap1\n      tag_31\n      swap2\n      swap1\n      tag_32\n      jump\t// in\n    tag_31:\n      tag_33\n      jump\t// in\n    tag_30:\n      mload(0x40)\n      tag_34\n      swap2\n      swap1\n      tag_19\n      jump\t// in\n    tag_34:\n      mload(0x40)\n      dup1\n      swap2\n      sub\n      swap1\n      return\n        /* \"src/DLT.sol\":763:1113  function approve(... */\n    tag_7:\n      tag_35\n      0x04\n      dup1\n      calldatasize\n      sub\n      dup2\n      add\n      swap1\n      tag_36\n      swap2\n      swap1\n      tag_37\n      jump\t// in\n    tag_36:\n      tag_38\n      jump\t// in\n    tag_35:\n      mload(0x40)\n      tag_39\n      swap2\n      swap1\n      tag_19\n      jump\t// in\n    tag_39:\n      mload(0x40)\n      dup1\n      swap2\n      sub\n      swap1\n      return\n        /* \"src/DLT.sol\":3651:4276  function balanceOfBatch(... */\n    tag_8:\n      tag_40\n      0x04\n      dup1\n      calldatasize\n      sub\n      dup2\n      add\n      swap1\n      tag_41\n      swap2\n      swap1\n      tag_42\n      jump\t// in\n    tag_41:\n      tag_43\n      jump\t// in\n    tag_40:\n      mload(0x40)\n      tag_44\n      swap2\n      swap1\n      tag_45\n      jump\t// in\n    tag_44:\n      mload(0x40)\n      dup1\n      swap2\n      sub\n      swap1\n      return\n        /* \"src/DLT.sol\":2390:2992  function safeBatchTransferFrom(... */\n    tag_9:\n      tag_46\n      0x04\n      dup1\n      calldatasize\n      sub\n      dup2\n      add\n      swap1\n      tag_47\n      swap2\n      swap1\n      tag_48\n      jump\t// in\n    tag_47:\n      tag_49\n      jump\t// in\n    tag_46:\n      mload(0x40)\n      tag_50\n      swap2\n      swap1\n      tag_19\n      jump\t// in\n    tag_50:\n      mload(0x40)\n      dup1\n      swap2\n      sub\n      swap1\n      return\n        /* \"src/DLT.sol\":3277:3481  function subBalanceOf(... */\n    tag_10:\n      tag_51\n      0x04\n      dup1\n      calldatasize\n      sub\n      dup2\n      add\n      swap1\n      tag_52\n      swap2\n      swap1\n      tag_53\n      jump\t// in\n    tag_52:\n      tag_54\n      jump\t// in\n    tag_51:\n      mload(0x40)\n      tag_55\n      swap2\n      swap1\n      tag_25\n      jump\t// in\n    tag_55:\n      mload(0x40)\n      dup1\n      swap2\n      sub\n      swap1\n      return\n        /* \"src/DLT.sol\":1176:1351  function setApprovalForAll(... */\n    tag_11:\n      tag_56\n      0x04\n      dup1\n      calldatasize\n      sub\n      dup2\n      add\n      swap1\n      tag_57\n      swap2\n      swap1\n      tag_58\n      jump\t// in\n    tag_57:\n      tag_59\n      jump\t// in\n    tag_56:\n      stop\n        /* \"src/DLT.sol\":4520:4704  function isApprovedForAll(... */\n    tag_12:\n      tag_60\n      0x04\n      dup1\n      calldatasize\n      sub\n      dup2\n      add\n      swap1\n      tag_61\n      swap2\n      swap1\n      tag_62\n      jump\t// in\n    tag_61:\n      tag_63\n      jump\t// in\n    tag_60:\n      mload(0x40)\n      tag_64\n      swap2\n      swap1\n      tag_19\n      jump\t// in\n    tag_64:\n      mload(0x40)\n      dup1\n      swap2\n      sub\n      swap1\n      return\n        /* \"src/DLT.sol\":1759:2044  function safeTransferFrom(... */\n    tag_17:\n        /* \"src/DLT.sol\":1937:1941  bool */\n      0x00\n        /* \"src/DLT.sol\":1953:2016  _safeTransferFrom(sender, recipient, mainId, subId, amount, \"\") */\n      tag_66\n        /* \"src/DLT.sol\":1971:1977  sender */\n      dup7\n        /* \"src/DLT.sol\":1979:1988  recipient */\n      dup7\n        /* \"src/DLT.sol\":1990:1996  mainId */\n      dup7\n        /* \"src/DLT.sol\":1998:2003  subId */\n      dup7\n        /* \"src/DLT.sol\":2005:2011  amount */\n      dup7\n        /* \"src/DLT.sol\":1953:2016  _safeTransferFrom(sender, recipient, mainId, subId, amount, \"\") */\n      mload(0x40)\n      dup1\n      0x20\n      add\n      0x40\n      mstore\n      dup1\n      0x00\n      dup2\n      mstore\n      pop\n        /* \"src/DLT.sol\":1953:1970  _safeTransferFrom */\n      tag_67\n        /* \"src/DLT.sol\":1953:2016  _safeTransferFrom(sender, recipient, mainId, subId, amount, \"\") */\n      jump\t// in\n    tag_66:\n        /* \"src/DLT.sol\":2033:2037  true */\n      0x01\n        /* \"src/DLT.sol\":2026:2037  return true */\n      swap1\n      pop\n        /* \"src/DLT.sol\":1759:2044  function safeTransferFrom(... */\n      swap6\n      swap5\n      pop\n      pop\n      pop\n      pop\n      pop\n      jump\t// out\n        /* \"src/DLT.sol\":4282:4514  function allowance(... */\n    tag_23:\n        /* \"src/DLT.sol\":4440:4447  uint256 */\n      0x00\n        /* \"src/DLT.sol\":4466:4507  _allowance(owner, spender, mainId, subId) */\n      tag_69\n        /* \"src/DLT.sol\":4477:4482  owner */\n      dup6\n        /* \"src/DLT.sol\":4484:4491  spender */\n      dup6\n        /* \"src/DLT.sol\":4493:4499  mainId */\n      dup6\n        /* \"src/DLT.sol\":4501:4506  subId */\n      dup6\n        /* \"src/DLT.sol\":4466:4476  _allowance */\n      tag_70\n        /* \"src/DLT.sol\":4466:4507  _allowance(owner, spender, mainId, subId) */\n      jump\t// in\n    tag_69:\n        /* \"src/DLT.sol\":4459:4507  return _allowance(owner, spender, mainId, subId) */\n      swap1\n      pop\n        /* \"src/DLT.sol\":4282:4514  function allowance(... */\n      swap5\n      swap4\n      pop\n      pop\n      pop\n      pop\n      jump\t// out\n        /* \"src/DLT.sol\":2998:3271  function transferFrom(... */\n    tag_28:\n        /* \"src/DLT.sol\":3172:3176  bool */\n      0x00\n        /* \"src/DLT.sol\":3188:3243  _transferFrom(sender, recipient, mainId, subId, amount) */\n      tag_72\n        /* \"src/DLT.sol\":3202:3208  sender */\n      dup7\n        /* \"src/DLT.sol\":3210:3219  recipient */\n      dup7\n        /* \"src/DLT.sol\":3221:3227  mainId */\n      dup7\n        /* \"src/DLT.sol\":3229:3234  subId */\n      dup7\n        /* \"src/DLT.sol\":3236:3242  amount */\n      dup7\n        /* \"src/DLT.sol\":3188:3201  _transferFrom */\n      tag_73\n        /* \"src/DLT.sol\":3188:3243  _transferFrom(sender, recipient, mainId, subId, amount) */\n      jump\t// in\n    tag_72:\n        /* \"src/DLT.sol\":3260:3264  true */\n      0x01\n        /* \"src/DLT.sol\":3253:3264  return true */\n      swap1\n      pop\n        /* \"src/DLT.sol\":2998:3271  function transferFrom(... */\n      swap6\n      swap5\n      pop\n      pop\n      pop\n      pop\n      pop\n      jump\t// out\n        /* \"src/DLT.sol\":2050:2384  function safeTransferFrom(... */\n    tag_33:\n        /* \"src/DLT.sol\":2265:2269  bool */\n      0x00\n        /* \"src/DLT.sol\":2281:2356  _safeTransferFrom(sender, recipient, mainId, subId, amount, dataextensions) */\n      tag_75\n        /* \"src/DLT.sol\":2299:2305  sender */\n      dup8\n        /* \"src/DLT.sol\":2307:2316  recipient */\n      dup8\n        /* \"src/DLT.sol\":2318:2324  mainId */\n      dup8\n        /* \"src/DLT.sol\":2326:2331  subId */\n      dup8\n        /* \"src/DLT.sol\":2333:2339  amount */\n      dup8\n        /* \"src/DLT.sol\":2341:2355  dataextensions */\n      dup8\n        /* \"src/DLT.sol\":2281:2298  _safeTransferFrom */\n      tag_67\n        /* \"src/DLT.sol\":2281:2356  _safeTransferFrom(sender, recipient, mainId, subId, amount, dataextensions) */\n      jump\t// in\n    tag_75:\n        /* \"src/DLT.sol\":2373:2377  true */\n      0x01\n        /* \"src/DLT.sol\":2366:2377  return true */\n      swap1\n      pop\n        /* \"src/DLT.sol\":2050:2384  function safeTransferFrom(... */\n      swap7\n      swap6\n      pop\n      pop\n      pop\n      pop\n      pop\n      pop\n      jump\t// out\n        /* \"src/DLT.sol\":763:1113  function approve(... */\n    tag_38:\n        /* \"src/DLT.sol\":915:919  bool */\n      0x00\n        /* \"src/DLT.sol\":931:944  address owner */\n      dup1\n        /* \"src/DLT.sol\":947:959  _msgSender() */\n      tag_77\n        /* \"src/DLT.sol\":947:957  _msgSender */\n      tag_78\n        /* \"src/DLT.sol\":947:959  _msgSender() */\n      jump\t// in\n    tag_77:\n        /* \"src/DLT.sol\":931:959  address owner = _msgSender() */\n      swap1\n      pop\n        /* \"src/DLT.sol\":988:993  owner */\n      dup1\n        /* \"src/DLT.sol\":977:993  spender != owner */\n      0xffffffffffffffffffffffffffffffffffffffff\n      and\n        /* \"src/DLT.sol\":977:984  spender */\n      dup7\n        /* \"src/DLT.sol\":977:993  spender != owner */\n      0xffffffffffffffffffffffffffffffffffffffff\n      and\n      sub\n        /* \"src/DLT.sol\":969:1028  require(spender != owner, \"DLT: approval to current owner\") */\n      tag_79\n      jumpi\n      mload(0x40)\n      0x08c379a000000000000000000000000000000000000000000000000000000000\n      dup2\n      mstore\n      0x04\n      add\n      tag_80\n      swap1\n      tag_81\n      jump\t// in\n    tag_80:\n      mload(0x40)\n      dup1\n      swap2\n      sub\n      swap1\n      revert\n    tag_79:\n        /* \"src/DLT.sol\":1038:1085  _approve(owner, spender, mainId, subId, amount) */\n      tag_82\n        /* \"src/DLT.sol\":1047:1052  owner */\n      dup2\n        /* \"src/DLT.sol\":1054:1061  spender */\n      dup8\n        /* \"src/DLT.sol\":1063:1069  mainId */\n      dup8\n        /* \"src/DLT.sol\":1071:1076  subId */\n      dup8\n        /* \"src/DLT.sol\":1078:1084  amount */\n      dup8\n        /* \"src/DLT.sol\":1038:1046  _approve */\n      tag_83\n        /* \"src/DLT.sol\":1038:1085  _approve(owner, spender, mainId, subId, amount) */\n      jump\t// in\n    tag_82:\n        /* \"src/DLT.sol\":1102:1106  true */\n      0x01\n        /* \"src/DLT.sol\":1095:1106  return true */\n      swap2\n      pop\n      pop\n        /* \"src/DLT.sol\":763:1113  function approve(... */\n      swap5\n      swap4\n      pop\n      pop\n      pop\n      pop\n      jump\t// out\n        /* \"src/DLT.sol\":3651:4276  function balanceOfBatch(... */\n    tag_43:\n        /* \"src/DLT.sol\":3810:3826  uint256[] memory */\n      0x60\n        /* \"src/DLT.sol\":3878:3885  mainIds */\n      dup5\n      dup5\n        /* \"src/DLT.sol\":3878:3892  mainIds.length */\n      swap1\n      pop\n        /* \"src/DLT.sol\":3859:3867  accounts */\n      dup8\n      dup8\n        /* \"src/DLT.sol\":3859:3874  accounts.length */\n      swap1\n      pop\n        /* \"src/DLT.sol\":3859:3892  accounts.length == mainIds.length */\n      eq\n        /* \"src/DLT.sol\":3859:3944  accounts.length == mainIds.length &&... */\n      dup1\n      iszero\n      tag_85\n      jumpi\n      pop\n        /* \"src/DLT.sol\":3931:3937  subIds */\n      dup3\n      dup3\n        /* \"src/DLT.sol\":3931:3944  subIds.length */\n      swap1\n      pop\n        /* \"src/DLT.sol\":3912:3920  accounts */\n      dup8\n      dup8\n        /* \"src/DLT.sol\":3912:3927  accounts.length */\n      swap1\n      pop\n        /* \"src/DLT.sol\":3912:3944  accounts.length == subIds.length */\n      eq\n        /* \"src/DLT.sol\":3859:3944  accounts.length == mainIds.length &&... */\n    tag_85:\n        /* \"src/DLT.sol\":3838:4016  require(... */\n      tag_86\n      jumpi\n      mload(0x40)\n      0x08c379a000000000000000000000000000000000000000000000000000000000\n      dup2\n      mstore\n      0x04\n      add\n      tag_87\n      swap1\n      tag_88\n      jump\t// in\n    tag_87:\n      mload(0x40)\n      dup1\n      swap2\n      sub\n      swap1\n      revert\n    tag_86:\n        /* \"src/DLT.sol\":4027:4057  uint256[] memory batchBalances */\n      0x00\n        /* \"src/DLT.sol\":4074:4082  accounts */\n      dup8\n      dup8\n        /* \"src/DLT.sol\":4074:4089  accounts.length */\n      swap1\n      pop\n        /* \"src/DLT.sol\":4060:4090  new uint256[](accounts.length) */\n      0xffffffffffffffff\n      dup2\n      gt\n      iszero\n      tag_89\n      jumpi\n      tag_90\n      tag_91\n      jump\t// in\n    tag_90:\n    tag_89:\n      mload(0x40)\n      swap1\n      dup1\n      dup3\n      mstore\n      dup1\n      0x20\n      mul\n      0x20\n      add\n      dup3\n      add\n      0x40\n      mstore\n      dup1\n      iszero\n      tag_92\n      jumpi\n      dup2\n      0x20\n      add\n      0x20\n      dup3\n      mul\n      dup1\n      calldatasize\n      dup4\n      calldatacopy\n      dup1\n      dup3\n      add\n      swap2\n      pop\n      pop\n      swap1\n      pop\n    tag_92:\n      pop\n        /* \"src/DLT.sol\":4027:4090  uint256[] memory batchBalances = new uint256[](accounts.length) */\n      swap1\n      pop\n        /* \"src/DLT.sol\":4106:4115  uint256 i */\n      0x00\n        /* \"src/DLT.sol\":4101:4239  for (uint256 i = 0; i < accounts.length; ++i) {... */\n    tag_93:\n        /* \"src/DLT.sol\":4125:4133  accounts */\n      dup9\n      dup9\n        /* \"src/DLT.sol\":4125:4140  accounts.length */\n      swap1\n      pop\n        /* \"src/DLT.sol\":4121:4122  i */\n      dup2\n        /* \"src/DLT.sol\":4121:4140  i < accounts.length */\n      lt\n        /* \"src/DLT.sol\":4101:4239  for (uint256 i = 0; i < accounts.length; ++i) {... */\n      iszero\n      tag_94\n      jumpi\n        /* \"src/DLT.sol\":4180:4228  subBalanceOf(accounts[i], mainIds[i], subIds[i]) */\n      tag_96\n        /* \"src/DLT.sol\":4193:4201  accounts */\n      dup10\n      dup10\n        /* \"src/DLT.sol\":4202:4203  i */\n      dup4\n        /* \"src/DLT.sol\":4193:4204  accounts[i] */\n      dup2\n      dup2\n      lt\n      tag_97\n      jumpi\n      tag_98\n      tag_99\n      jump\t// in\n    tag_98:\n    tag_97:\n      swap1\n      pop\n      0x20\n      mul\n      add\n      0x20\n      dup2\n      add\n      swap1\n      tag_100\n      swap2\n      swap1\n      tag_101\n      jump\t// in\n    tag_100:\n        /* \"src/DLT.sol\":4206:4213  mainIds */\n      dup9\n      dup9\n        /* \"src/DLT.sol\":4214:4215  i */\n      dup5\n        /* \"src/DLT.sol\":4206:4216  mainIds[i] */\n      dup2\n      dup2\n      lt\n      tag_102\n      jumpi\n      tag_103\n      tag_99\n      jump\t// in\n    tag_103:\n    tag_102:\n      swap1\n      pop\n      0x20\n      mul\n      add\n      calldataload\n        /* \"src/DLT.sol\":4218:4224  subIds */\n      dup8\n      dup8\n        /* \"src/DLT.sol\":4225:4226  i */\n      dup6\n        /* \"src/DLT.sol\":4218:4227  subIds[i] */\n      dup2\n      dup2\n      lt\n      tag_104\n      jumpi\n      tag_105\n      tag_99\n      jump\t// in\n    tag_105:\n    tag_104:\n      swap1\n      pop\n      0x20\n      mul\n      add\n      calldataload\n        /* \"src/DLT.sol\":4180:4192  subBalanceOf */\n      tag_54\n        /* \"src/DLT.sol\":4180:4228  subBalanceOf(accounts[i], mainIds[i], subIds[i]) */\n      jump\t// in\n    tag_96:\n        /* \"src/DLT.sol\":4161:4174  batchBalances */\n      dup3\n        /* \"src/DLT.sol\":4175:4176  i */\n      dup3\n        /* \"src/DLT.sol\":4161:4177  batchBalances[i] */\n      dup2\n      mload\n      dup2\n      lt\n      tag_106\n      jumpi\n      tag_107\n      tag_99\n      jump\t// in\n    tag_107:\n    tag_106:\n      0x20\n      mul\n      0x20\n      add\n      add\n        /* \"src/DLT.sol\":4161:4228  batchBalances[i] = subBalanceOf(accounts[i], mainIds[i], subIds[i]) */\n      dup2\n      dup2\n      mstore\n      pop\n      pop\n        /* \"src/DLT.sol\":4142:4145  ++i */\n      dup1\n      tag_108\n      swap1\n      tag_109\n      jump\t// in\n    tag_108:\n      swap1\n      pop\n        /* \"src/DLT.sol\":4101:4239  for (uint256 i = 0; i < accounts.length; ++i) {... */\n      jump(tag_93)\n    tag_94:\n      pop\n        /* \"src/DLT.sol\":4256:4269  batchBalances */\n      dup1\n        /* \"src/DLT.sol\":4249:4269  return batchBalances */\n      swap2\n      pop\n      pop\n        /* \"src/DLT.sol\":3651:4276  function balanceOfBatch(... */\n      swap7\n      swap6\n      pop\n      pop\n      pop\n      pop\n      pop\n      pop\n      jump\t// out\n        /* \"src/DLT.sol\":2390:2992  function safeBatchTransferFrom(... */\n    tag_49:\n        /* \"src/DLT.sol\":2630:2634  bool */\n      0x00\n        /* \"src/DLT.sol\":2646:2661  address spender */\n      dup1\n        /* \"src/DLT.sol\":2664:2676  _msgSender() */\n      tag_111\n        /* \"src/DLT.sol\":2664:2674  _msgSender */\n      tag_78\n        /* \"src/DLT.sol\":2664:2676  _msgSender() */\n      jump\t// in\n    tag_111:\n        /* \"src/DLT.sol\":2646:2676  address spender = _msgSender() */\n      swap1\n      pop\n        /* \"src/DLT.sol\":2708:2743  _isApprovedOrOwner(sender, spender) */\n      tag_112\n        /* \"src/DLT.sol\":2727:2733  sender */\n      dup13\n        /* \"src/DLT.sol\":2735:2742  spender */\n      dup3\n        /* \"src/DLT.sol\":2708:2726  _isApprovedOrOwner */\n      tag_113\n        /* \"src/DLT.sol\":2708:2743  _isApprovedOrOwner(sender, spender) */\n      jump\t// in\n    tag_112:\n        /* \"src/DLT.sol\":2687:2819  require(... */\n      tag_114\n      jumpi\n      mload(0x40)\n      0x08c379a000000000000000000000000000000000000000000000000000000000\n      dup2\n      mstore\n      0x04\n      add\n      tag_115\n      swap1\n      tag_116\n      jump\t// in\n    tag_115:\n      mload(0x40)\n      dup1\n      swap2\n      sub\n      swap1\n      revert\n    tag_114:\n        /* \"src/DLT.sol\":2830:2985  _safeBatchTransferFrom(... */\n      tag_117\n        /* \"src/DLT.sol\":2866:2872  sender */\n      dup13\n        /* \"src/DLT.sol\":2886:2895  recipient */\n      dup13\n        /* \"src/DLT.sol\":2909:2916  mainIds */\n      dup13\n      dup13\n        /* \"src/DLT.sol\":2830:2985  _safeBatchTransferFrom(... */\n      dup1\n      dup1\n      0x20\n      mul\n      0x20\n      add\n      mload(0x40)\n      swap1\n      dup2\n      add\n      0x40\n      mstore\n      dup1\n      swap4\n      swap3\n      swap2\n      swap1\n      dup2\n      dup2\n      mstore\n      0x20\n      add\n      dup4\n      dup4\n      0x20\n      mul\n      dup1\n      dup3\n      dup5\n      calldatacopy\n      0x00\n      dup2\n      dup5\n      add\n      mstore\n      not(0x1f)\n      0x1f\n      dup3\n      add\n      and\n      swap1\n      pop\n      dup1\n      dup4\n      add\n      swap3\n      pop\n      pop\n      pop\n      pop\n      pop\n      pop\n      pop\n        /* \"src/DLT.sol\":2930:2936  subIds */\n      dup12\n      dup12\n        /* \"src/DLT.sol\":2830:2985  _safeBatchTransferFrom(... */\n      dup1\n      dup1\n      0x20\n      mul\n      0x20\n      add\n      mload(0x40)\n      swap1\n      dup2\n      add\n      0x40\n      mstore\n      dup1\n      swap4\n      swap3\n      swap2\n      swap1\n      dup2\n      dup2\n      mstore\n      0x20\n      add\n      dup4\n      dup4\n      0x20\n      mul\n      dup1\n      dup3\n      dup5\n      calldatacopy\n      0x00\n      dup2\n      dup5\n      add\n      mstore\n      not(0x1f)\n      0x1f\n      dup3\n      add\n      and\n      swap1\n      pop\n      dup1\n      dup4\n      add\n      swap3\n      pop\n      pop\n      pop\n      pop\n      pop\n      pop\n      pop\n        /* \"src/DLT.sol\":2950:2957  amounts */\n      dup11\n      dup11\n        /* \"src/DLT.sol\":2830:2985  _safeBatchTransferFrom(... */\n      dup1\n      dup1\n      0x20\n      mul\n      0x20\n      add\n      mload(0x40)\n      swap1\n      dup2\n      add\n      0x40\n      mstore\n      dup1\n      swap4\n      swap3\n      swap2\n      swap1\n      dup2\n      dup2\n      mstore\n      0x20\n      add\n      dup4\n      dup4\n      0x20\n      mul\n      dup1\n      dup3\n      dup5\n      calldatacopy\n      0x00\n      dup2\n      dup5\n      add\n      mstore\n      not(0x1f)\n      0x1f\n      dup3\n      add\n      and\n      swap1\n      pop\n      dup1\n      dup4\n      add\n      swap3\n      pop\n      pop\n      pop\n      pop\n      pop\n      pop\n      pop\n        /* \"src/DLT.sol\":2971:2975  data */\n      dup10\n      dup10\n        /* \"src/DLT.sol\":2830:2985  _safeBatchTransferFrom(... */\n      dup1\n      dup1\n      0x1f\n      add\n      0x20\n      dup1\n      swap2\n      div\n      mul\n      0x20\n      add\n      mload(0x40)\n      swap1\n      dup2\n      add\n      0x40\n      mstore\n      dup1\n      swap4\n      swap3\n      swap2\n      swap1\n      dup2\n      dup2\n      mstore\n      0x20\n      add\n      dup4\n      dup4\n      dup1\n      dup3\n      dup5\n      calldatacopy\n      0x00\n      dup2\n      dup5\n      add\n      mstore\n      not(0x1f)\n      0x1f\n      dup3\n      add\n      and\n      swap1\n      pop\n      dup1\n      dup4\n      add\n      swap3\n      pop\n      pop\n      pop\n      pop\n      pop\n      pop\n      pop\n        /* \"src/DLT.sol\":2830:2852  _safeBatchTransferFrom */\n      tag_118\n        /* \"src/DLT.sol\":2830:2985  _safeBatchTransferFrom(... */\n      jump\t// in\n    tag_117:\n        /* \"src/DLT.sol\":2636:2992  {... */\n      pop\n        /* \"src/DLT.sol\":2390:2992  function safeBatchTransferFrom(... */\n      swap11\n      swap10\n      pop\n      pop\n      pop\n      pop\n      pop\n      pop\n      pop\n      pop\n      pop\n      pop\n      jump\t// out\n        /* \"src/DLT.sol\":3277:3481  function subBalanceOf(... */\n    tag_54:\n        /* \"src/DLT.sol\":3415:3422  uint256 */\n      0x00\n        /* \"src/DLT.sol\":3441:3450  _balances */\n      0x02\n        /* \"src/DLT.sol\":3441:3458  _balances[mainId] */\n      0x00\n        /* \"src/DLT.sol\":3451:3457  mainId */\n      dup5\n        /* \"src/DLT.sol\":3441:3458  _balances[mainId] */\n      dup2\n      mstore\n      0x20\n      add\n      swap1\n      dup2\n      mstore\n      0x20\n      add\n      0x00\n      keccak256\n        /* \"src/DLT.sol\":3441:3467  _balances[mainId][account] */\n      0x00\n        /* \"src/DLT.sol\":3459:3466  account */\n      dup6\n        /* \"src/DLT.sol\":3441:3467  _balances[mainId][account] */\n      0xffffffffffffffffffffffffffffffffffffffff\n      and\n      0xffffffffffffffffffffffffffffffffffffffff\n      and\n      dup2\n      mstore\n      0x20\n      add\n      swap1\n      dup2\n      mstore\n      0x20\n      add\n      0x00\n      keccak256\n        /* \"src/DLT.sol\":3441:3474  _balances[mainId][account][subId] */\n      0x00\n        /* \"src/DLT.sol\":3468:3473  subId */\n      dup4\n        /* \"src/DLT.sol\":3441:3474  _balances[mainId][account][subId] */\n      dup2\n      mstore\n      0x20\n      add\n      swap1\n      dup2\n      mstore\n      0x20\n      add\n      0x00\n      keccak256\n      sload\n        /* \"src/DLT.sol\":3434:3474  return _balances[mainId][account][subId] */\n      swap1\n      pop\n        /* \"src/DLT.sol\":3277:3481  function subBalanceOf(... */\n      swap4\n      swap3\n      pop\n      pop\n      pop\n      jump\t// out\n        /* \"src/DLT.sol\":1176:1351  function setApprovalForAll(... */\n    tag_59:\n        /* \"src/DLT.sol\":1292:1344  _setApprovalForAll(_msgSender(), operator, approved) */\n      tag_121\n        /* \"src/DLT.sol\":1311:1323  _msgSender() */\n      tag_122\n        /* \"src/DLT.sol\":1311:1321  _msgSender */\n      tag_78\n        /* \"src/DLT.sol\":1311:1323  _msgSender() */\n      jump\t// in\n    tag_122:\n        /* \"src/DLT.sol\":1325:1333  operator */\n      dup4\n        /* \"src/DLT.sol\":1335:1343  approved */\n      dup4\n        /* \"src/DLT.sol\":1292:1310  _setApprovalForAll */\n      tag_123\n        /* \"src/DLT.sol\":1292:1344  _setApprovalForAll(_msgSender(), operator, approved) */\n      jump\t// in\n    tag_121:\n        /* \"src/DLT.sol\":1176:1351  function setApprovalForAll(... */\n      pop\n      pop\n      jump\t// out\n        /* \"src/DLT.sol\":4520:4704  function isApprovedForAll(... */\n    tag_63:\n        /* \"src/DLT.sol\":4639:4643  bool */\n      0x00\n        /* \"src/DLT.sol\":4662:4680  _operatorApprovals */\n      0x03\n        /* \"src/DLT.sol\":4662:4687  _operatorApprovals[owner] */\n      0x00\n        /* \"src/DLT.sol\":4681:4686  owner */\n      dup5\n        /* \"src/DLT.sol\":4662:4687  _operatorApprovals[owner] */\n      0xffffffffffffffffffffffffffffffffffffffff\n      and\n      0xffffffffffffffffffffffffffffffffffffffff\n      and\n      dup2\n      mstore\n      0x20\n      add\n      swap1\n      dup2\n      mstore\n      0x20\n      add\n      0x00\n      keccak256\n        /* \"src/DLT.sol\":4662:4697  _operatorApprovals[owner][operator] */\n      0x00\n        /* \"src/DLT.sol\":4688:4696  operator */\n      dup4\n        /* \"src/DLT.sol\":4662:4697  _operatorApprovals[owner][operator] */\n      0xffffffffffffffffffffffffffffffffffffffff\n      and\n      0xffffffffffffffffffffffffffffffffffffffff\n      and\n      dup2\n      mstore\n      0x20\n      add\n      swap1\n      dup2\n      mstore\n      0x20\n      add\n      0x00\n      keccak256\n      0x00\n      swap1\n      sload\n      swap1\n      0x0100\n      exp\n      swap1\n      div\n      0xff\n      and\n        /* \"src/DLT.sol\":4655:4697  return _operatorApprovals[owner][operator] */\n      swap1\n      pop\n        /* \"src/DLT.sol\":4520:4704  function isApprovedForAll(... */\n      swap3\n      swap2\n      pop\n      pop\n      jump\t// out\n        /* \"src/DLT.sol\":7304:7754  function _safeTransferFrom(... */\n    tag_67:\n        /* \"src/DLT.sol\":7513:7528  address spender */\n      0x00\n        /* \"src/DLT.sol\":7531:7543  _msgSender() */\n      tag_126\n        /* \"src/DLT.sol\":7531:7541  _msgSender */\n      tag_78\n        /* \"src/DLT.sol\":7531:7543  _msgSender() */\n      jump\t// in\n    tag_126:\n        /* \"src/DLT.sol\":7513:7543  address spender = _msgSender() */\n      swap1\n      pop\n        /* \"src/DLT.sol\":7559:7594  _isApprovedOrOwner(sender, spender) */\n      tag_127\n        /* \"src/DLT.sol\":7578:7584  sender */\n      dup8\n        /* \"src/DLT.sol\":7586:7593  spender */\n      dup3\n        /* \"src/DLT.sol\":7559:7577  _isApprovedOrOwner */\n      tag_113\n        /* \"src/DLT.sol\":7559:7594  _isApprovedOrOwner(sender, spender) */\n      jump\t// in\n    tag_127:\n        /* \"src/DLT.sol\":7554:7676  if (!_isApprovedOrOwner(sender, spender)) {... */\n      tag_128\n      jumpi\n        /* \"src/DLT.sol\":7610:7665  _spendAllowance(sender, spender, mainId, subId, amount) */\n      tag_129\n        /* \"src/DLT.sol\":7626:7632  sender */\n      dup8\n        /* \"src/DLT.sol\":7634:7641  spender */\n      dup3\n        /* \"src/DLT.sol\":7643:7649  mainId */\n      dup8\n        /* \"src/DLT.sol\":7651:7656  subId */\n      dup8\n        /* \"src/DLT.sol\":7658:7664  amount */\n      dup8\n        /* \"src/DLT.sol\":7610:7625  _spendAllowance */\n      tag_130\n        /* \"src/DLT.sol\":7610:7665  _spendAllowance(sender, spender, mainId, subId, amount) */\n      jump\t// in\n    tag_129:\n        /* \"src/DLT.sol\":7554:7676  if (!_isApprovedOrOwner(sender, spender)) {... */\n    tag_128:\n        /* \"src/DLT.sol\":7686:7747  _safeTransfer(sender, recipient, mainId, subId, amount, data) */\n      tag_131\n        /* \"src/DLT.sol\":7700:7706  sender */\n      dup8\n        /* \"src/DLT.sol\":7708:7717  recipient */\n      dup8\n        /* \"src/DLT.sol\":7719:7725  mainId */\n      dup8\n        /* \"src/DLT.sol\":7727:7732  subId */\n      dup8\n        /* \"src/DLT.sol\":7734:7740  amount */\n      dup8\n        /* \"src/DLT.sol\":7742:7746  data */\n      dup8\n        /* \"src/DLT.sol\":7686:7699  _safeTransfer */\n      tag_132\n        /* \"src/DLT.sol\":7686:7747  _safeTransfer(sender, recipient, mainId, subId, amount, data) */\n      jump\t// in\n    tag_131:\n        /* \"src/DLT.sol\":7503:7754  {... */\n      pop\n        /* \"src/DLT.sol\":7304:7754  function _safeTransferFrom(... */\n      pop\n      pop\n      pop\n      pop\n      pop\n      pop\n      jump\t// out\n        /* \"src/DLT.sol\":16716:16943  function _allowance(... */\n    tag_70:\n        /* \"src/DLT.sol\":16868:16875  uint256 */\n      0x00\n        /* \"src/DLT.sol\":16894:16905  _allowances */\n      0x04\n        /* \"src/DLT.sol\":16894:16912  _allowances[owner] */\n      0x00\n        /* \"src/DLT.sol\":16906:16911  owner */\n      dup7\n        /* \"src/DLT.sol\":16894:16912  _allowances[owner] */\n      0xffffffffffffffffffffffffffffffffffffffff\n      and\n      0xffffffffffffffffffffffffffffffffffffffff\n      and\n      dup2\n      mstore\n      0x20\n      add\n      swap1\n      dup2\n      mstore\n      0x20\n      add\n      0x00\n      keccak256\n        /* \"src/DLT.sol\":16894:16921  _allowances[owner][spender] */\n      0x00\n        /* \"src/DLT.sol\":16913:16920  spender */\n      dup6\n        /* \"src/DLT.sol\":16894:16921  _allowances[owner][spender] */\n      0xffffffffffffffffffffffffffffffffffffffff\n      and\n      0xffffffffffffffffffffffffffffffffffffffff\n      and\n      dup2\n      mstore\n      0x20\n      add\n      swap1\n      dup2\n      mstore\n      0x20\n      add\n      0x00\n      keccak256\n        /* \"src/DLT.sol\":16894:16929  _allowances[owner][spender][mainId] */\n      0x00\n        /* \"src/DLT.sol\":16922:16928  mainId */\n      dup5\n        /* \"src/DLT.sol\":16894:16929  _allowances[owner][spender][mainId] */\n      dup2\n      mstore\n      0x20\n      add\n      swap1\n      dup2\n      mstore\n      0x20\n      add\n      0x00\n      keccak256\n        /* \"src/DLT.sol\":16894:16936  _allowances[owner][spender][mainId][subId] */\n      0x00\n        /* \"src/DLT.sol\":16930:16935  subId */\n      dup4\n        /* \"src/DLT.sol\":16894:16936  _allowances[owner][spender][mainId][subId] */\n      dup2\n      mstore\n      0x20\n      add\n      swap1\n      dup2\n      mstore\n      0x20\n      add\n      0x00\n      keccak256\n      sload\n        /* \"src/DLT.sol\":16887:16936  return _allowances[owner][spender][mainId][subId] */\n      swap1\n      pop\n        /* \"src/DLT.sol\":16716:16943  function _allowance(... */\n      swap5\n      swap4\n      pop\n      pop\n      pop\n      pop\n      jump\t// out\n        /* \"src/DLT.sol\":9557:9966  function _transferFrom(... */\n    tag_73:\n        /* \"src/DLT.sol\":9735:9750  address spender */\n      0x00\n        /* \"src/DLT.sol\":9753:9765  _msgSender() */\n      tag_135\n        /* \"src/DLT.sol\":9753:9763  _msgSender */\n      tag_78\n        /* \"src/DLT.sol\":9753:9765  _msgSender() */\n      jump\t// in\n    tag_135:\n        /* \"src/DLT.sol\":9735:9765  address spender = _msgSender() */\n      swap1\n      pop\n        /* \"src/DLT.sol\":9781:9816  _isApprovedOrOwner(sender, spender) */\n      tag_136\n        /* \"src/DLT.sol\":9800:9806  sender */\n      dup7\n        /* \"src/DLT.sol\":9808:9815  spender */\n      dup3\n        /* \"src/DLT.sol\":9781:9799  _isApprovedOrOwner */\n      tag_113\n        /* \"src/DLT.sol\":9781:9816  _isApprovedOrOwner(sender, spender) */\n      jump\t// in\n    tag_136:\n        /* \"src/DLT.sol\":9776:9898  if (!_isApprovedOrOwner(sender, spender)) {... */\n      tag_137\n      jumpi\n        /* \"src/DLT.sol\":9832:9887  _spendAllowance(sender, spender, mainId, subId, amount) */\n      tag_138\n        /* \"src/DLT.sol\":9848:9854  sender */\n      dup7\n        /* \"src/DLT.sol\":9856:9863  spender */\n      dup3\n        /* \"src/DLT.sol\":9865:9871  mainId */\n      dup7\n        /* \"src/DLT.sol\":9873:9878  subId */\n      dup7\n        /* \"src/DLT.sol\":9880:9886  amount */\n      dup7\n        /* \"src/DLT.sol\":9832:9847  _spendAllowance */\n      tag_130\n        /* \"src/DLT.sol\":9832:9887  _spendAllowance(sender, spender, mainId, subId, amount) */\n      jump\t// in\n    tag_138:\n        /* \"src/DLT.sol\":9776:9898  if (!_isApprovedOrOwner(sender, spender)) {... */\n    tag_137:\n        /* \"src/DLT.sol\":9908:9959  _transfer(sender, recipient, mainId, subId, amount) */\n      tag_139\n        /* \"src/DLT.sol\":9918:9924  sender */\n      dup7\n        /* \"src/DLT.sol\":9926:9935  recipient */\n      dup7\n        /* \"src/DLT.sol\":9937:9943  mainId */\n      dup7\n        /* \"src/DLT.sol\":9945:9950  subId */\n      dup7\n        /* \"src/DLT.sol\":9952:9958  amount */\n      dup7\n        /* \"src/DLT.sol\":9908:9917  _transfer */\n      tag_140\n        /* \"src/DLT.sol\":9908:9959  _transfer(sender, recipient, mainId, subId, amount) */\n      jump\t// in\n    tag_139:\n        /* \"src/DLT.sol\":9725:9966  {... */\n      pop\n        /* \"src/DLT.sol\":9557:9966  function _transferFrom(... */\n      pop\n      pop\n      pop\n      pop\n      pop\n      jump\t// out\n        /* \"@openzeppelin/contracts/utils/Context.sol\":656:752  function _msgSender() internal view virtual returns (address) {... */\n    tag_78:\n        /* \"@openzeppelin/contracts/utils/Context.sol\":709:716  address */\n      0x00\n        /* \"@openzeppelin/contracts/utils/Context.sol\":735:745  msg.sender */\n      caller\n        /* \"@openzeppelin/contracts/utils/Context.sol\":728:745  return msg.sender */\n      swap1\n      pop\n        /* \"@openzeppelin/contracts/utils/Context.sol\":656:752  function _msgSender() internal view virtual returns (address) {... */\n      swap1\n      jump\t// out\n        /* \"src/DLT.sol\":11030:11473  function _approve(... */\n    tag_83:\n        /* \"src/DLT.sol\":11225:11226  0 */\n      0x00\n        /* \"src/DLT.sol\":11208:11227  owner != address(0) */\n      0xffffffffffffffffffffffffffffffffffffffff\n      and\n        /* \"src/DLT.sol\":11208:11213  owner */\n      dup6\n        /* \"src/DLT.sol\":11208:11227  owner != address(0) */\n      0xffffffffffffffffffffffffffffffffffffffff\n      and\n      sub\n        /* \"src/DLT.sol\":11200:11266  require(owner != address(0), \"DLT: approve from the zero address\") */\n      tag_143\n      jumpi\n      mload(0x40)\n      0x08c379a000000000000000000000000000000000000000000000000000000000\n      dup2\n      mstore\n      0x04\n      add\n      tag_144\n      swap1\n      tag_145\n      jump\t// in\n    tag_144:\n      mload(0x40)\n      dup1\n      swap2\n      sub\n      swap1\n      revert\n    tag_143:\n        /* \"src/DLT.sol\":11303:11304  0 */\n      0x00\n        /* \"src/DLT.sol\":11284:11305  spender != address(0) */\n      0xffffffffffffffffffffffffffffffffffffffff\n      and\n        /* \"src/DLT.sol\":11284:11291  spender */\n      dup5\n        /* \"src/DLT.sol\":11284:11305  spender != address(0) */\n      0xffffffffffffffffffffffffffffffffffffffff\n      and\n      sub\n        /* \"src/DLT.sol\":11276:11342  require(spender != address(0), \"DLT: approve to the zero address\") */\n      tag_146\n      jumpi\n      mload(0x40)\n      0x08c379a000000000000000000000000000000000000000000000000000000000\n      dup2\n      mstore\n      0x04\n      add\n      tag_147\n      swap1\n      tag_148\n      jump\t// in\n    tag_147:\n      mload(0x40)\n      dup1\n      swap2\n      sub\n      swap1\n      revert\n    tag_146:\n        /* \"src/DLT.sol\":11398:11404  amount */\n      dup1\n        /* \"src/DLT.sol\":11353:11364  _allowances */\n      0x04\n        /* \"src/DLT.sol\":11353:11371  _allowances[owner] */\n      0x00\n        /* \"src/DLT.sol\":11365:11370  owner */\n      dup8\n        /* \"src/DLT.sol\":11353:11371  _allowances[owner] */\n      0xffffffffffffffffffffffffffffffffffffffff\n      and\n      0xffffffffffffffffffffffffffffffffffffffff\n      and\n      dup2\n      mstore\n      0x20\n      add\n      swap1\n      dup2\n      mstore\n      0x20\n      add\n      0x00\n      keccak256\n        /* \"src/DLT.sol\":11353:11380  _allowances[owner][spender] */\n      0x00\n        /* \"src/DLT.sol\":11372:11379  spender */\n      dup7\n        /* \"src/DLT.sol\":11353:11380  _allowances[owner][spender] */\n      0xffffffffffffffffffffffffffffffffffffffff\n      and\n      0xffffffffffffffffffffffffffffffffffffffff\n      and\n      dup2\n      mstore\n      0x20\n      add\n      swap1\n      dup2\n      mstore\n      0x20\n      add\n      0x00\n      keccak256\n        /* \"src/DLT.sol\":11353:11388  _allowances[owner][spender][mainId] */\n      0x00\n        /* \"src/DLT.sol\":11381:11387  mainId */\n      dup6\n        /* \"src/DLT.sol\":11353:11388  _allowances[owner][spender][mainId] */\n      dup2\n      mstore\n      0x20\n      add\n      swap1\n      dup2\n      mstore\n      0x20\n      add\n      0x00\n      keccak256\n        /* \"src/DLT.sol\":11353:11395  _allowances[owner][spender][mainId][subId] */\n      0x00\n        /* \"src/DLT.sol\":11389:11394  subId */\n      dup5\n        /* \"src/DLT.sol\":11353:11395  _allowances[owner][spender][mainId][subId] */\n      dup2\n      mstore\n      0x20\n      add\n      swap1\n      dup2\n      mstore\n      0x20\n      add\n      0x00\n      keccak256\n        /* \"src/DLT.sol\":11353:11404  _allowances[owner][spender][mainId][subId] = amount */\n      dup2\n      swap1\n      sstore\n      pop\n        /* \"src/DLT.sol\":11435:11442  spender */\n      dup4\n        /* \"src/DLT.sol\":11419:11466  Approval(owner, spender, mainId, subId, amount) */\n      0xffffffffffffffffffffffffffffffffffffffff\n      and\n        /* \"src/DLT.sol\":11428:11433  owner */\n      dup6\n        /* \"src/DLT.sol\":11419:11466  Approval(owner, spender, mainId, subId, amount) */\n      0xffffffffffffffffffffffffffffffffffffffff\n      and\n      0x3a9c85c6b31f7a9d7fe1478f53e1be42e85db97ca30d1789cfef9196dbc472c9\n        /* \"src/DLT.sol\":11444:11450  mainId */\n      dup6\n        /* \"src/DLT.sol\":11452:11457  subId */\n      dup6\n        /* \"src/DLT.sol\":11459:11465  amount */\n      dup6\n        /* \"src/DLT.sol\":11419:11466  Approval(owner, spender, mainId, subId, amount) */\n      mload(0x40)\n      tag_149\n      swap4\n      swap3\n      swap2\n      swap1\n      tag_150\n      jump\t// in\n    tag_149:\n      mload(0x40)\n      dup1\n      swap2\n      sub\n      swap1\n      log3\n        /* \"src/DLT.sol\":11030:11473  function _approve(... */\n      pop\n      pop\n      pop\n      pop\n      pop\n      jump\t// out\n        /* \"src/DLT.sol\":16949:17149  function _isApprovedOrOwner(... */\n    tag_113:\n        /* \"src/DLT.sol\":17063:17067  bool */\n      0x00\n        /* \"src/DLT.sol\":17097:17104  spender */\n      dup2\n        /* \"src/DLT.sol\":17087:17104  sender == spender */\n      0xffffffffffffffffffffffffffffffffffffffff\n      and\n        /* \"src/DLT.sol\":17087:17093  sender */\n      dup4\n        /* \"src/DLT.sol\":17087:17104  sender == spender */\n      0xffffffffffffffffffffffffffffffffffffffff\n      and\n      eq\n        /* \"src/DLT.sol\":17087:17141  sender == spender || isApprovedForAll(sender, spender) */\n      dup1\n      tag_152\n      jumpi\n      pop\n        /* \"src/DLT.sol\":17108:17141  isApprovedForAll(sender, spender) */\n      tag_153\n        /* \"src/DLT.sol\":17125:17131  sender */\n      dup4\n        /* \"src/DLT.sol\":17133:17140  spender */\n      dup4\n        /* \"src/DLT.sol\":17108:17124  isApprovedForAll */\n      tag_63\n        /* \"src/DLT.sol\":17108:17141  isApprovedForAll(sender, spender) */\n      jump\t// in\n    tag_153:\n        /* \"src/DLT.sol\":17087:17141  sender == spender || isApprovedForAll(sender, spender) */\n    tag_152:\n        /* \"src/DLT.sol\":17079:17142  return (sender == spender || isApprovedForAll(sender, spender)) */\n      swap1\n      pop\n        /* \"src/DLT.sol\":16949:17149  function _isApprovedOrOwner(... */\n      swap3\n      swap2\n      pop\n      pop\n      jump\t// out\n        /* \"src/DLT.sol\":8001:9551  function _safeBatchTransferFrom(... */\n    tag_118:\n        /* \"src/DLT.sol\":8284:8290  subIds */\n      dup3\n        /* \"src/DLT.sol\":8284:8297  subIds.length */\n      mload\n        /* \"src/DLT.sol\":8266:8273  mainIds */\n      dup5\n        /* \"src/DLT.sol\":8266:8280  mainIds.length */\n      mload\n        /* \"src/DLT.sol\":8266:8297  mainIds.length == subIds.length */\n      eq\n        /* \"src/DLT.sol\":8266:8333  mainIds.length == subIds.length && mainIds.length == amounts.length */\n      dup1\n      iszero\n      tag_155\n      jumpi\n      pop\n        /* \"src/DLT.sol\":8319:8326  amounts */\n      dup2\n        /* \"src/DLT.sol\":8319:8333  amounts.length */\n      mload\n        /* \"src/DLT.sol\":8301:8308  mainIds */\n      dup5\n        /* \"src/DLT.sol\":8301:8315  mainIds.length */\n      mload\n        /* \"src/DLT.sol\":8301:8333  mainIds.length == amounts.length */\n      eq\n        /* \"src/DLT.sol\":8266:8333  mainIds.length == subIds.length && mainIds.length == amounts.length */\n    tag_155:\n        /* \"src/DLT.sol\":8245:8407  require(... */\n      tag_156\n      jumpi\n      mload(0x40)\n      0x08c379a000000000000000000000000000000000000000000000000000000000\n      dup2\n      mstore\n      0x04\n      add\n      tag_157\n      swap1\n      tag_158\n      jump\t// in\n    tag_157:\n      mload(0x40)\n      dup1\n      swap2\n      sub\n      swap1\n      revert\n    tag_156:\n        /* \"src/DLT.sol\":8446:8447  0 */\n      0x00\n        /* \"src/DLT.sol\":8425:8448  recipient != address(0) */\n      0xffffffffffffffffffffffffffffffffffffffff\n      and\n        /* \"src/DLT.sol\":8425:8434  recipient */\n      dup6\n        /* \"src/DLT.sol\":8425:8448  recipient != address(0) */\n      0xffffffffffffffffffffffffffffffffffffffff\n      and\n      sub\n        /* \"src/DLT.sol\":8417:8486  require(recipient != address(0), \"DLT: transfer to the zero address\") */\n      tag_159\n      jumpi\n      mload(0x40)\n      0x08c379a000000000000000000000000000000000000000000000000000000000\n      dup2\n      mstore\n      0x04\n      add\n      tag_160\n      swap1\n      tag_161\n      jump\t// in\n    tag_160:\n      mload(0x40)\n      dup1\n      swap2\n      sub\n      swap1\n      revert\n    tag_159:\n        /* \"src/DLT.sol\":8497:8513  address operator */\n      0x00\n        /* \"src/DLT.sol\":8516:8528  _msgSender() */\n      tag_162\n        /* \"src/DLT.sol\":8516:8526  _msgSender */\n      tag_78\n        /* \"src/DLT.sol\":8516:8528  _msgSender() */\n      jump\t// in\n    tag_162:\n        /* \"src/DLT.sol\":8497:8528  address operator = _msgSender() */\n      swap1\n      pop\n        /* \"src/DLT.sol\":8544:8553  uint256 i */\n      0x00\n        /* \"src/DLT.sol\":8539:9093  for (uint256 i = 0; i < mainIds.length; ++i) {... */\n    tag_163:\n        /* \"src/DLT.sol\":8563:8570  mainIds */\n      dup6\n        /* \"src/DLT.sol\":8563:8577  mainIds.length */\n      mload\n        /* \"src/DLT.sol\":8559:8560  i */\n      dup2\n        /* \"src/DLT.sol\":8559:8577  i < mainIds.length */\n      lt\n        /* \"src/DLT.sol\":8539:9093  for (uint256 i = 0; i < mainIds.length; ++i) {... */\n      iszero\n      tag_164\n      jumpi\n        /* \"src/DLT.sol\":8598:8612  uint256 mainId */\n      0x00\n        /* \"src/DLT.sol\":8615:8622  mainIds */\n      dup7\n        /* \"src/DLT.sol\":8623:8624  i */\n      dup3\n        /* \"src/DLT.sol\":8615:8625  mainIds[i] */\n      dup2\n      mload\n      dup2\n      lt\n      tag_166\n      jumpi\n      tag_167\n      tag_99\n      jump\t// in\n    tag_167:\n    tag_166:\n      0x20\n      mul\n      0x20\n      add\n      add\n      mload\n        /* \"src/DLT.sol\":8598:8625  uint256 mainId = mainIds[i] */\n      swap1\n      pop\n        /* \"src/DLT.sol\":8639:8652  uint256 subId */\n      0x00\n        /* \"src/DLT.sol\":8655:8661  subIds */\n      dup7\n        /* \"src/DLT.sol\":8662:8663  i */\n      dup4\n        /* \"src/DLT.sol\":8655:8664  subIds[i] */\n      dup2\n      mload\n      dup2\n      lt\n      tag_168\n      jumpi\n      tag_169\n      tag_99\n      jump\t// in\n    tag_169:\n    tag_168:\n      0x20\n      mul\n      0x20\n      add\n      add\n      mload\n        /* \"src/DLT.sol\":8639:8664  uint256 subId = subIds[i] */\n      swap1\n      pop\n        /* \"src/DLT.sol\":8678:8692  uint256 amount */\n      0x00\n        /* \"src/DLT.sol\":8695:8702  amounts */\n      dup7\n        /* \"src/DLT.sol\":8703:8704  i */\n      dup5\n        /* \"src/DLT.sol\":8695:8705  amounts[i] */\n      dup2\n      mload\n      dup2\n      lt\n      tag_170\n      jumpi\n      tag_171\n      tag_99\n      jump\t// in\n    tag_171:\n    tag_170:\n      0x20\n      mul\n      0x20\n      add\n      add\n      mload\n        /* \"src/DLT.sol\":8678:8705  uint256 amount = amounts[i] */\n      swap1\n      pop\n        /* \"src/DLT.sol\":8719:8740  uint256 senderBalance */\n      0x00\n        /* \"src/DLT.sol\":8743:8752  _balances */\n      0x02\n        /* \"src/DLT.sol\":8743:8760  _balances[mainId] */\n      0x00\n        /* \"src/DLT.sol\":8753:8759  mainId */\n      dup6\n        /* \"src/DLT.sol\":8743:8760  _balances[mainId] */\n      dup2\n      mstore\n      0x20\n      add\n      swap1\n      dup2\n      mstore\n      0x20\n      add\n      0x00\n      keccak256\n        /* \"src/DLT.sol\":8743:8768  _balances[mainId][sender] */\n      0x00\n        /* \"src/DLT.sol\":8761:8767  sender */\n      dup14\n        /* \"src/DLT.sol\":8743:8768  _balances[mainId][sender] */\n      0xffffffffffffffffffffffffffffffffffffffff\n      and\n      0xffffffffffffffffffffffffffffffffffffffff\n      and\n      dup2\n      mstore\n      0x20\n      add\n      swap1\n      dup2\n      mstore\n      0x20\n      add\n      0x00\n      keccak256\n        /* \"src/DLT.sol\":8743:8775  _balances[mainId][sender][subId] */\n      0x00\n        /* \"src/DLT.sol\":8769:8774  subId */\n      dup5\n        /* \"src/DLT.sol\":8743:8775  _balances[mainId][sender][subId] */\n      dup2\n      mstore\n      0x20\n      add\n      swap1\n      dup2\n      mstore\n      0x20\n      add\n      0x00\n      keccak256\n      sload\n        /* \"src/DLT.sol\":8719:8775  uint256 senderBalance = _balances[mainId][sender][subId] */\n      swap1\n      pop\n        /* \"src/DLT.sol\":8832:8838  amount */\n      dup2\n        /* \"src/DLT.sol\":8815:8828  senderBalance */\n      dup2\n        /* \"src/DLT.sol\":8815:8838  senderBalance >= amount */\n      lt\n      iszero\n        /* \"src/DLT.sol\":8790:8910  require(... */\n      tag_172\n      jumpi\n      mload(0x40)\n      0x08c379a000000000000000000000000000000000000000000000000000000000\n      dup2\n      mstore\n      0x04\n      add\n      tag_173\n      swap1\n      tag_174\n      jump\t// in\n    tag_173:\n      mload(0x40)\n      dup1\n      swap2\n      sub\n      swap1\n      revert\n    tag_172:\n        /* \"src/DLT.sol\":9003:9009  amount */\n      dup2\n        /* \"src/DLT.sol\":8987:9000  senderBalance */\n      dup2\n        /* \"src/DLT.sol\":8987:9009  senderBalance - amount */\n      sub\n        /* \"src/DLT.sol\":8952:8961  _balances */\n      0x02\n        /* \"src/DLT.sol\":8952:8969  _balances[mainId] */\n      0x00\n        /* \"src/DLT.sol\":8962:8968  mainId */\n      dup7\n        /* \"src/DLT.sol\":8952:8969  _balances[mainId] */\n      dup2\n      mstore\n      0x20\n      add\n      swap1\n      dup2\n      mstore\n      0x20\n      add\n      0x00\n      keccak256\n        /* \"src/DLT.sol\":8952:8977  _balances[mainId][sender] */\n      0x00\n        /* \"src/DLT.sol\":8970:8976  sender */\n      dup15\n        /* \"src/DLT.sol\":8952:8977  _balances[mainId][sender] */\n      0xffffffffffffffffffffffffffffffffffffffff\n      and\n      0xffffffffffffffffffffffffffffffffffffffff\n      and\n      dup2\n      mstore\n      0x20\n      add\n      swap1\n      dup2\n      mstore\n      0x20\n      add\n      0x00\n      keccak256\n        /* \"src/DLT.sol\":8952:8984  _balances[mainId][sender][subId] */\n      0x00\n        /* \"src/DLT.sol\":8978:8983  subId */\n      dup6\n        /* \"src/DLT.sol\":8952:8984  _balances[mainId][sender][subId] */\n      dup2\n      mstore\n      0x20\n      add\n      swap1\n      dup2\n      mstore\n      0x20\n      add\n      0x00\n      keccak256\n        /* \"src/DLT.sol\":8952:9009  _balances[mainId][sender][subId] = senderBalance - amount */\n      dup2\n      swap1\n      sstore\n      pop\n        /* \"src/DLT.sol\":9076:9082  amount */\n      dup2\n        /* \"src/DLT.sol\":9037:9046  _balances */\n      0x02\n        /* \"src/DLT.sol\":9037:9054  _balances[mainId] */\n      0x00\n        /* \"src/DLT.sol\":9047:9053  mainId */\n      dup7\n        /* \"src/DLT.sol\":9037:9054  _balances[mainId] */\n      dup2\n      mstore\n      0x20\n      add\n      swap1\n      dup2\n      mstore\n      0x20\n      add\n      0x00\n      keccak256\n        /* \"src/DLT.sol\":9037:9065  _balances[mainId][recipient] */\n      0x00\n        /* \"src/DLT.sol\":9055:9064  recipient */\n      dup14\n        /* \"src/DLT.sol\":9037:9065  _balances[mainId][recipient] */\n      0xffffffffffffffffffffffffffffffffffffffff\n      and\n      0xffffffffffffffffffffffffffffffffffffffff\n      and\n      dup2\n      mstore\n      0x20\n      add\n      swap1\n      dup2\n      mstore\n      0x20\n      add\n      0x00\n      keccak256\n        /* \"src/DLT.sol\":9037:9072  _balances[mainId][recipient][subId] */\n      0x00\n        /* \"src/DLT.sol\":9066:9071  subId */\n      dup6\n        /* \"src/DLT.sol\":9037:9072  _balances[mainId][recipient][subId] */\n      dup2\n      mstore\n      0x20\n      add\n      swap1\n      dup2\n      mstore\n      0x20\n      add\n      0x00\n      keccak256\n      0x00\n        /* \"src/DLT.sol\":9037:9082  _balances[mainId][recipient][subId] += amount */\n      dup3\n      dup3\n      sload\n      tag_175\n      swap2\n      swap1\n      tag_176\n      jump\t// in\n    tag_175:\n      swap3\n      pop\n      pop\n      dup2\n      swap1\n      sstore\n      pop\n        /* \"src/DLT.sol\":8584:9093  {... */\n      pop\n      pop\n      pop\n      pop\n        /* \"src/DLT.sol\":8579:8582  ++i */\n      dup1\n      tag_177\n      swap1\n      tag_109\n      jump\t// in\n    tag_177:\n      swap1\n      pop\n        /* \"src/DLT.sol\":8539:9093  for (uint256 i = 0; i < mainIds.length; ++i) {... */\n      jump(tag_163)\n    tag_164:\n      pop\n        /* \"src/DLT.sol\":9177:9186  recipient */\n      dup6\n        /* \"src/DLT.sol\":9108:9258  TransferBatch(... */\n      0xffffffffffffffffffffffffffffffffffffffff\n      and\n        /* \"src/DLT.sol\":9157:9163  sender */\n      dup8\n        /* \"src/DLT.sol\":9108:9258  TransferBatch(... */\n      0xffffffffffffffffffffffffffffffffffffffff\n      and\n        /* \"src/DLT.sol\":9135:9143  operator */\n      dup3\n        /* \"src/DLT.sol\":9108:9258  TransferBatch(... */\n      0xffffffffffffffffffffffffffffffffffffffff\n      and\n      0xfb75bd3a9b4b3ae2b21dc1a8aad1d9ab156f8d577b05320c9c84bc98780a3752\n        /* \"src/DLT.sol\":9200:9207  mainIds */\n      dup9\n        /* \"src/DLT.sol\":9221:9227  subIds */\n      dup9\n        /* \"src/DLT.sol\":9241:9248  amounts */\n      dup9\n        /* \"src/DLT.sol\":9108:9258  TransferBatch(... */\n      mload(0x40)\n      tag_178\n      swap4\n      swap3\n      swap2\n      swap1\n      tag_179\n      jump\t// in\n    tag_178:\n      mload(0x40)\n      dup1\n      swap2\n      sub\n      swap1\n      log4\n        /* \"src/DLT.sol\":9289:9474  _checkOnDLTBatchReceived(... */\n      tag_180\n        /* \"src/DLT.sol\":9331:9337  sender */\n      dup8\n        /* \"src/DLT.sol\":9355:9364  recipient */\n      dup8\n        /* \"src/DLT.sol\":9382:9389  mainIds */\n      dup8\n        /* \"src/DLT.sol\":9407:9413  subIds */\n      dup8\n        /* \"src/DLT.sol\":9431:9438  amounts */\n      dup8\n        /* \"src/DLT.sol\":9456:9460  data */\n      dup8\n        /* \"src/DLT.sol\":9289:9313  _checkOnDLTBatchReceived */\n      tag_181\n        /* \"src/DLT.sol\":9289:9474  _checkOnDLTBatchReceived(... */\n      jump\t// in\n    tag_180:\n        /* \"src/DLT.sol\":9268:9544  require(... */\n      tag_182\n      jumpi\n      mload(0x40)\n      0x08c379a000000000000000000000000000000000000000000000000000000000\n      dup2\n      mstore\n      0x04\n      add\n      tag_183\n      swap1\n      tag_184\n      jump\t// in\n    tag_183:\n      mload(0x40)\n      dup1\n      swap2\n      sub\n      swap1\n      revert\n    tag_182:\n        /* \"src/DLT.sol\":8235:9551  {... */\n      pop\n        /* \"src/DLT.sol\":8001:9551  function _safeBatchTransferFrom(... */\n      pop\n      pop\n      pop\n      pop\n      pop\n      pop\n      jump\t// out\n        /* \"src/DLT.sol\":11479:11783  function _setApprovalForAll(... */\n    tag_123:\n        /* \"src/DLT.sol\":11629:11637  operator */\n      dup2\n        /* \"src/DLT.sol\":11620:11637  owner != operator */\n      0xffffffffffffffffffffffffffffffffffffffff\n      and\n        /* \"src/DLT.sol\":11620:11625  owner */\n      dup4\n        /* \"src/DLT.sol\":11620:11637  owner != operator */\n      0xffffffffffffffffffffffffffffffffffffffff\n      and\n      sub\n        /* \"src/DLT.sol\":11612:11664  require(owner != operator, \"DLT: approve to caller\") */\n      tag_186\n      jumpi\n      mload(0x40)\n      0x08c379a000000000000000000000000000000000000000000000000000000000\n      dup2\n      mstore\n      0x04\n      add\n      tag_187\n      swap1\n      tag_188\n      jump\t// in\n    tag_187:\n      mload(0x40)\n      dup1\n      swap2\n      sub\n      swap1\n      revert\n    tag_186:\n        /* \"src/DLT.sol\":11712:11720  approved */\n      dup1\n        /* \"src/DLT.sol\":11674:11692  _operatorApprovals */\n      0x03\n        /* \"src/DLT.sol\":11674:11699  _operatorApprovals[owner] */\n      0x00\n        /* \"src/DLT.sol\":11693:11698  owner */\n      dup6\n        /* \"src/DLT.sol\":11674:11699  _operatorApprovals[owner] */\n      0xffffffffffffffffffffffffffffffffffffffff\n      and\n      0xffffffffffffffffffffffffffffffffffffffff\n      and\n      dup2\n      mstore\n      0x20\n      add\n      swap1\n      dup2\n      mstore\n      0x20\n      add\n      0x00\n      keccak256\n        /* \"src/DLT.sol\":11674:11709  _operatorApprovals[owner][operator] */\n      0x00\n        /* \"src/DLT.sol\":11700:11708  operator */\n      dup5\n        /* \"src/DLT.sol\":11674:11709  _operatorApprovals[owner][operator] */\n      0xffffffffffffffffffffffffffffffffffffffff\n      and\n      0xffffffffffffffffffffffffffffffffffffffff\n      and\n      dup2\n      mstore\n      0x20\n      add\n      swap1\n      dup2\n      mstore\n      0x20\n      add\n      0x00\n      keccak256\n      0x00\n        /* \"src/DLT.sol\":11674:11720  _operatorApprovals[owner][operator] = approved */\n      0x0100\n      exp\n      dup2\n      sload\n      dup2\n      0xff\n      mul\n      not\n      and\n      swap1\n      dup4\n      iszero\n      iszero\n      mul\n      or\n      swap1\n      sstore\n      pop\n        /* \"src/DLT.sol\":11757:11765  operator */\n      dup2\n        /* \"src/DLT.sol\":11735:11776  ApprovalForAll(owner, operator, approved) */\n      0xffffffffffffffffffffffffffffffffffffffff\n      and\n        /* \"src/DLT.sol\":11750:11755  owner */\n      dup4\n        /* \"src/DLT.sol\":11735:11776  ApprovalForAll(owner, operator, approved) */\n      0xffffffffffffffffffffffffffffffffffffffff\n      and\n      0x17307eab39ab6107e8899845ad3d59bd9653f200f220920489ca2b5937696c31\n        /* \"src/DLT.sol\":11767:11775  approved */\n      dup4\n        /* \"src/DLT.sol\":11735:11776  ApprovalForAll(owner, operator, approved) */\n      mload(0x40)\n      tag_189\n      swap2\n      swap1\n      tag_19\n      jump\t// in\n    tag_189:\n      mload(0x40)\n      dup1\n      swap2\n      sub\n      swap1\n      log3\n        /* \"src/DLT.sol\":11479:11783  function _setApprovalForAll(... */\n      pop\n      pop\n      pop\n      jump\t// out\n        /* \"src/DLT.sol\":9972:10607  function _spendAllowance(... */\n    tag_130:\n        /* \"src/DLT.sol\":10149:10173  uint256 currentAllowance */\n      0x00\n        /* \"src/DLT.sol\":10176:10217  _allowance(owner, spender, mainId, subId) */\n      tag_191\n        /* \"src/DLT.sol\":10187:10192  owner */\n      dup7\n        /* \"src/DLT.sol\":10194:10201  spender */\n      dup7\n        /* \"src/DLT.sol\":10203:10209  mainId */\n      dup7\n        /* \"src/DLT.sol\":10211:10216  subId */\n      dup7\n        /* \"src/DLT.sol\":10176:10186  _allowance */\n      tag_70\n        /* \"src/DLT.sol\":10176:10217  _allowance(owner, spender, mainId, subId) */\n      jump\t// in\n    tag_191:\n        /* \"src/DLT.sol\":10149:10217  uint256 currentAllowance = _allowance(owner, spender, mainId, subId) */\n      swap1\n      pop\n        /* \"src/DLT.sol\":10251:10268  type(uint256).max */\n      0xffffffffffffffffffffffffffffffffffffffffffffffffffffffffffffffff\n        /* \"src/DLT.sol\":10231:10247  currentAllowance */\n      dup2\n        /* \"src/DLT.sol\":10231:10268  currentAllowance != type(uint256).max */\n      eq\n        /* \"src/DLT.sol\":10227:10601  if (currentAllowance != type(uint256).max) {... */\n      tag_192\n      jumpi\n        /* \"src/DLT.sol\":10312:10318  amount */\n      dup2\n        /* \"src/DLT.sol\":10292:10308  currentAllowance */\n      dup2\n        /* \"src/DLT.sol\":10292:10318  currentAllowance >= amount */\n      lt\n      iszero\n        /* \"src/DLT.sol\":10284:10350  require(currentAllowance >= amount, \"DLT: insufficient allowance\") */\n      tag_193\n      jumpi\n      mload(0x40)\n      0x08c379a000000000000000000000000000000000000000000000000000000000\n      dup2\n      mstore\n      0x04\n      add\n      tag_194\n      swap1\n      tag_195\n      jump\t// in\n    tag_194:\n      mload(0x40)\n      dup1\n      swap2\n      sub\n      swap1\n      revert\n    tag_193:\n        /* \"src/DLT.sol\":10392:10576  _approve(... */\n      tag_196\n        /* \"src/DLT.sol\":10422:10427  owner */\n      dup7\n        /* \"src/DLT.sol\":10449:10456  spender */\n      dup7\n        /* \"src/DLT.sol\":10478:10484  mainId */\n      dup7\n        /* \"src/DLT.sol\":10506:10511  subId */\n      dup7\n        /* \"src/DLT.sol\":10552:10558  amount */\n      dup7\n        /* \"src/DLT.sol\":10533:10549  currentAllowance */\n      dup7\n        /* \"src/DLT.sol\":10533:10558  currentAllowance - amount */\n      sub\n        /* \"src/DLT.sol\":10392:10400  _approve */\n      tag_83\n        /* \"src/DLT.sol\":10392:10576  _approve(... */\n      jump\t// in\n    tag_196:\n        /* \"src/DLT.sol\":10227:10601  if (currentAllowance != type(uint256).max) {... */\n    tag_192:\n        /* \"src/DLT.sol\":10139:10607  {... */\n      pop\n        /* \"src/DLT.sol\":9972:10607  function _spendAllowance(... */\n      pop\n      pop\n      pop\n      pop\n      pop\n      jump\t// out\n        /* \"src/DLT.sol\":6867:7298  function _safeTransfer(... */\n    tag_132:\n        /* \"src/DLT.sol\":7072:7123  _transfer(sender, recipient, mainId, subId, amount) */\n      tag_198\n        /* \"src/DLT.sol\":7082:7088  sender */\n      dup7\n        /* \"src/DLT.sol\":7090:7099  recipient */\n      dup7\n        /* \"src/DLT.sol\":7101:7107  mainId */\n      dup7\n        /* \"src/DLT.sol\":7109:7114  subId */\n      dup7\n        /* \"src/DLT.sol\":7116:7122  amount */\n      dup7\n        /* \"src/DLT.sol\":7072:7081  _transfer */\n      tag_140\n        /* \"src/DLT.sol\":7072:7123  _transfer(sender, recipient, mainId, subId, amount) */\n      jump\t// in\n    tag_198:\n        /* \"src/DLT.sol\":7154:7221  _checkOnDLTReceived(sender, recipient, mainId, subId, amount, data) */\n      tag_199\n        /* \"src/DLT.sol\":7174:7180  sender */\n      dup7\n        /* \"src/DLT.sol\":7182:7191  recipient */\n      dup7\n        /* \"src/DLT.sol\":7193:7199  mainId */\n      dup7\n        /* \"src/DLT.sol\":7201:7206  subId */\n      dup7\n        /* \"src/DLT.sol\":7208:7214  amount */\n      dup7\n        /* \"src/DLT.sol\":7216:7220  data */\n      dup7\n        /* \"src/DLT.sol\":7154:7173  _checkOnDLTReceived */\n      tag_200\n        /* \"src/DLT.sol\":7154:7221  _checkOnDLTReceived(sender, recipient, mainId, subId, amount, data) */\n      jump\t// in\n    tag_199:\n        /* \"src/DLT.sol\":7133:7291  require(... */\n      tag_201\n      jumpi\n      mload(0x40)\n      0x08c379a000000000000000000000000000000000000000000000000000000000\n      dup2\n      mstore\n      0x04\n      add\n      tag_202\n      swap1\n      tag_184\n      jump\t// in\n    tag_202:\n      mload(0x40)\n      dup1\n      swap2\n      sub\n      swap1\n      revert\n    tag_201:\n        /* \"src/DLT.sol\":6867:7298  function _safeTransfer(... */\n      pop\n      pop\n      pop\n      pop\n      pop\n      pop\n      jump\t// out\n        /* \"src/DLT.sol\":12257:13084  function _transfer(... */\n    tag_140:\n        /* \"src/DLT.sol\":12457:12458  0 */\n      0x00\n        /* \"src/DLT.sol\":12439:12459  sender != address(0) */\n      0xffffffffffffffffffffffffffffffffffffffff\n      and\n        /* \"src/DLT.sol\":12439:12445  sender */\n      dup6\n        /* \"src/DLT.sol\":12439:12459  sender != address(0) */\n      0xffffffffffffffffffffffffffffffffffffffff\n      and\n      sub\n        /* \"src/DLT.sol\":12431:12499  require(sender != address(0), \"DLT: transfer from the zero address\") */\n      tag_204\n      jumpi\n      mload(0x40)\n      0x08c379a000000000000000000000000000000000000000000000000000000000\n      dup2\n      mstore\n      0x04\n      add\n      tag_205\n      swap1\n      tag_206\n      jump\t// in\n    tag_205:\n      mload(0x40)\n      dup1\n      swap2\n      sub\n      swap1\n      revert\n    tag_204:\n        /* \"src/DLT.sol\":12538:12539  0 */\n      0x00\n        /* \"src/DLT.sol\":12517:12540  recipient != address(0) */\n      0xffffffffffffffffffffffffffffffffffffffff\n      and\n        /* \"src/DLT.sol\":12517:12526  recipient */\n      dup5\n        /* \"src/DLT.sol\":12517:12540  recipient != address(0) */\n      0xffffffffffffffffffffffffffffffffffffffff\n      and\n      sub\n        /* \"src/DLT.sol\":12509:12578  require(recipient != address(0), \"DLT: transfer to the zero address\") */\n      tag_207\n      jumpi\n      mload(0x40)\n      0x08c379a000000000000000000000000000000000000000000000000000000000\n      dup2\n      mstore\n      0x04\n      add\n      tag_208\n      swap1\n      tag_161\n      jump\t// in\n    tag_208:\n      mload(0x40)\n      dup1\n      swap2\n      sub\n      swap1\n      revert\n    tag_207:\n        /* \"src/DLT.sol\":12589:12655  _beforeTokenTransfer(sender, recipient, mainId, subId, amount, \"\") */\n      tag_209\n        /* \"src/DLT.sol\":12610:12616  sender */\n      dup6\n        /* \"src/DLT.sol\":12618:12627  recipient */\n      dup6\n        /* \"src/DLT.sol\":12629:12635  mainId */\n      dup6\n        /* \"src/DLT.sol\":12637:12642  subId */\n      dup6\n        /* \"src/DLT.sol\":12644:12650  amount */\n      dup6\n        /* \"src/DLT.sol\":12589:12655  _beforeTokenTransfer(sender, recipient, mainId, subId, amount, \"\") */\n      mload(0x40)\n      dup1\n      0x20\n      add\n      0x40\n      mstore\n      dup1\n      0x00\n      dup2\n      mstore\n      pop\n        /* \"src/DLT.sol\":12589:12609  _beforeTokenTransfer */\n      tag_210\n        /* \"src/DLT.sol\":12589:12655  _beforeTokenTransfer(sender, recipient, mainId, subId, amount, \"\") */\n      jump\t// in\n    tag_209:\n        /* \"src/DLT.sol\":12723:12729  amount */\n      dup1\n        /* \"src/DLT.sol\":12687:12696  _balances */\n      0x02\n        /* \"src/DLT.sol\":12687:12704  _balances[mainId] */\n      0x00\n        /* \"src/DLT.sol\":12697:12703  mainId */\n      dup6\n        /* \"src/DLT.sol\":12687:12704  _balances[mainId] */\n      dup2\n      mstore\n      0x20\n      add\n      swap1\n      dup2\n      mstore\n      0x20\n      add\n      0x00\n      keccak256\n        /* \"src/DLT.sol\":12687:12712  _balances[mainId][sender] */\n      0x00\n        /* \"src/DLT.sol\":12705:12711  sender */\n      dup8\n        /* \"src/DLT.sol\":12687:12712  _balances[mainId][sender] */\n      0xffffffffffffffffffffffffffffffffffffffff\n      and\n      0xffffffffffffffffffffffffffffffffffffffff\n      and\n      dup2\n      mstore\n      0x20\n      add\n      swap1\n      dup2\n      mstore\n      0x20\n      add\n      0x00\n      keccak256\n        /* \"src/DLT.sol\":12687:12719  _balances[mainId][sender][subId] */\n      0x00\n        /* \"src/DLT.sol\":12713:12718  subId */\n      dup5\n        /* \"src/DLT.sol\":12687:12719  _balances[mainId][sender][subId] */\n      dup2\n      mstore\n      0x20\n      add\n      swap1\n      dup2\n      mstore\n      0x20\n      add\n      0x00\n      keccak256\n      sload\n        /* \"src/DLT.sol\":12687:12729  _balances[mainId][sender][subId] >= amount */\n      lt\n      iszero\n        /* \"src/DLT.sol\":12666:12793  require(... */\n      tag_211\n      jumpi\n      mload(0x40)\n      0x08c379a000000000000000000000000000000000000000000000000000000000\n      dup2\n      mstore\n      0x04\n      add\n      tag_212\n      swap1\n      tag_174\n      jump\t// in\n    tag_212:\n      mload(0x40)\n      dup1\n      swap2\n      sub\n      swap1\n      revert\n    tag_211:\n        /* \"src/DLT.sol\":12863:12869  amount */\n      dup1\n        /* \"src/DLT.sol\":12827:12836  _balances */\n      0x02\n        /* \"src/DLT.sol\":12827:12844  _balances[mainId] */\n      0x00\n        /* \"src/DLT.sol\":12837:12843  mainId */\n      dup6\n        /* \"src/DLT.sol\":12827:12844  _balances[mainId] */\n      dup2\n      mstore\n      0x20\n      add\n      swap1\n      dup2\n      mstore\n      0x20\n      add\n      0x00\n      keccak256\n        /* \"src/DLT.sol\":12827:12852  _balances[mainId][sender] */\n      0x00\n        /* \"src/DLT.sol\":12845:12851  sender */\n      dup8\n        /* \"src/DLT.sol\":12827:12852  _balances[mainId][sender] */\n      0xffffffffffffffffffffffffffffffffffffffff\n      and\n      0xffffffffffffffffffffffffffffffffffffffff\n      and\n      dup2\n      mstore\n      0x20\n      add\n      swap1\n      dup2\n      mstore\n      0x20\n      add\n      0x00\n      keccak256\n        /* \"src/DLT.sol\":12827:12859  _balances[mainId][sender][subId] */\n      0x00\n        /* \"src/DLT.sol\":12853:12858  subId */\n      dup5\n        /* \"src/DLT.sol\":12827:12859  _balances[mainId][sender][subId] */\n      dup2\n      mstore\n      0x20\n      add\n      swap1\n      dup2\n      mstore\n      0x20\n      add\n      0x00\n      keccak256\n      0x00\n        /* \"src/DLT.sol\":12827:12869  _balances[mainId][sender][subId] -= amount */\n      dup3\n      dup3\n      sload\n      sub\n      swap3\n      pop\n      pop\n      dup2\n      swap1\n      sstore\n      pop\n        /* \"src/DLT.sol\":12929:12935  amount */\n      dup1\n        /* \"src/DLT.sol\":12890:12899  _balances */\n      0x02\n        /* \"src/DLT.sol\":12890:12907  _balances[mainId] */\n      0x00\n        /* \"src/DLT.sol\":12900:12906  mainId */\n      dup6\n        /* \"src/DLT.sol\":12890:12907  _balances[mainId] */\n      dup2\n      mstore\n      0x20\n      add\n      swap1\n      dup2\n      mstore\n      0x20\n      add\n      0x00\n      keccak256\n        /* \"src/DLT.sol\":12890:12918  _balances[mainId][recipient] */\n      0x00\n        /* \"src/DLT.sol\":12908:12917  recipient */\n      dup7\n        /* \"src/DLT.sol\":12890:12918  _balances[mainId][recipient] */\n      0xffffffffffffffffffffffffffffffffffffffff\n      and\n      0xffffffffffffffffffffffffffffffffffffffff\n      and\n      dup2\n      mstore\n      0x20\n      add\n      swap1\n      dup2\n      mstore\n      0x20\n      add\n      0x00\n      keccak256\n        /* \"src/DLT.sol\":12890:12925  _balances[mainId][recipient][subId] */\n      0x00\n        /* \"src/DLT.sol\":12919:12924  subId */\n      dup5\n        /* \"src/DLT.sol\":12890:12925  _balances[mainId][recipient][subId] */\n      dup2\n      mstore\n      0x20\n      add\n      swap1\n      dup2\n      mstore\n      0x20\n      add\n      0x00\n      keccak256\n      0x00\n        /* \"src/DLT.sol\":12890:12935  _balances[mainId][recipient][subId] += amount */\n      dup3\n      dup3\n      sload\n      tag_213\n      swap2\n      swap1\n      tag_176\n      jump\t// in\n    tag_213:\n      swap3\n      pop\n      pop\n      dup2\n      swap1\n      sstore\n      pop\n        /* \"src/DLT.sol\":12979:12985  mainId */\n      dup3\n        /* \"src/DLT.sol\":12968:12977  recipient */\n      dup5\n        /* \"src/DLT.sol\":12951:13001  Transfer(sender, recipient, mainId, subId, amount) */\n      0xffffffffffffffffffffffffffffffffffffffff\n      and\n        /* \"src/DLT.sol\":12960:12966  sender */\n      dup7\n        /* \"src/DLT.sol\":12951:13001  Transfer(sender, recipient, mainId, subId, amount) */\n      0xffffffffffffffffffffffffffffffffffffffff\n      and\n      0xc817d75deaa278e988c41cf549ef38fe195ab65e0e64cd67ba47f0d185690d58\n        /* \"src/DLT.sol\":12987:12992  subId */\n      dup6\n        /* \"src/DLT.sol\":12994:13000  amount */\n      dup6\n        /* \"src/DLT.sol\":12951:13001  Transfer(sender, recipient, mainId, subId, amount) */\n      mload(0x40)\n      tag_214\n      swap3\n      swap2\n      swap1\n      tag_215\n      jump\t// in\n    tag_214:\n      mload(0x40)\n      dup1\n      swap2\n      sub\n      swap1\n      log4\n        /* \"src/DLT.sol\":13012:13077  _afterTokenTransfer(sender, recipient, mainId, subId, amount, \"\") */\n      tag_216\n        /* \"src/DLT.sol\":13032:13038  sender */\n      dup6\n        /* \"src/DLT.sol\":13040:13049  recipient */\n      dup6\n        /* \"src/DLT.sol\":13051:13057  mainId */\n      dup6\n        /* \"src/DLT.sol\":13059:13064  subId */\n      dup6\n        /* \"src/DLT.sol\":13066:13072  amount */\n      dup6\n        /* \"src/DLT.sol\":13012:13077  _afterTokenTransfer(sender, recipient, mainId, subId, amount, \"\") */\n      mload(0x40)\n      dup1\n      0x20\n      add\n      0x40\n      mstore\n      dup1\n      0x00\n      dup2\n      mstore\n      pop\n        /* \"src/DLT.sol\":13012:13031  _afterTokenTransfer */\n      tag_217\n        /* \"src/DLT.sol\":13012:13077  _afterTokenTransfer(sender, recipient, mainId, subId, amount, \"\") */\n      jump\t// in\n    tag_216:\n        /* \"src/DLT.sol\":12257:13084  function _transfer(... */\n      pop\n      pop\n      pop\n      pop\n      pop\n      jump\t// out\n        /* \"src/DLT.sol\":18839:19951  function _checkOnDLTBatchReceived(... */\n    tag_181:\n        /* \"src/DLT.sol\":19075:19079  bool */\n      0x00\n        /* \"src/DLT.sol\":19119:19120  0 */\n      dup1\n        /* \"src/DLT.sol\":19095:19104  recipient */\n      dup7\n        /* \"src/DLT.sol\":19095:19116  recipient.code.length */\n      0xffffffffffffffffffffffffffffffffffffffff\n      and\n      extcodesize\n        /* \"src/DLT.sol\":19095:19120  recipient.code.length > 0 */\n      gt\n        /* \"src/DLT.sol\":19091:19945  if (recipient.code.length > 0) {... */\n      iszero\n      tag_219\n      jumpi\n        /* \"src/DLT.sol\":19169:19178  recipient */\n      dup6\n        /* \"src/DLT.sol\":19156:19198  IDLTReceiver(recipient).onDLTBatchReceived */\n      0xffffffffffffffffffffffffffffffffffffffff\n      and\n      0xc20f1e19\n        /* \"src/DLT.sol\":19220:19232  _msgSender() */\n      tag_220\n        /* \"src/DLT.sol\":19220:19230  _msgSender */\n      tag_78\n        /* \"src/DLT.sol\":19220:19232  _msgSender() */\n      jump\t// in\n    tag_220:\n        /* \"src/DLT.sol\":19254:19260  sender */\n      dup10\n        /* \"src/DLT.sol\":19282:19289  mainIds */\n      dup9\n        /* \"src/DLT.sol\":19311:19317  subIds */\n      dup9\n        /* \"src/DLT.sol\":19339:19346  amounts */\n      dup9\n        /* \"src/DLT.sol\":19368:19372  data */\n      dup9\n        /* \"src/DLT.sol\":19156:19390  IDLTReceiver(recipient).onDLTBatchReceived(... */\n      mload(0x40)\n      dup8\n      0xffffffff\n      and\n      0xe0\n      shl\n      dup2\n      mstore\n      0x04\n      add\n      tag_221\n      swap7\n      swap6\n      swap5\n      swap4\n      swap3\n      swap2\n      swap1\n      tag_222\n      jump\t// in\n    tag_221:\n      0x20\n      mload(0x40)\n      dup1\n      dup4\n      sub\n      dup2\n      0x00\n      dup8\n      gas\n      call\n      swap3\n      pop\n      pop\n      pop\n      dup1\n      iszero\n      tag_223\n      jumpi\n      pop\n      mload(0x40)\n      returndatasize\n      not(0x1f)\n      0x1f\n      dup3\n      add\n      and\n      dup3\n      add\n      dup1\n      0x40\n      mstore\n      pop\n      dup2\n      add\n      swap1\n      tag_224\n      swap2\n      swap1\n      tag_225\n      jump\t// in\n    tag_224:\n      0x01\n    tag_223:\n        /* \"src/DLT.sol\":19136:19893  try... */\n      tag_226\n      jumpi\n      returndatasize\n      dup1\n      0x00\n      dup2\n      eq\n      tag_231\n      jumpi\n      mload(0x40)\n      swap2\n      pop\n      and(add(returndatasize, 0x3f), not(0x1f))\n      dup3\n      add\n      0x40\n      mstore\n      returndatasize\n      dup3\n      mstore\n      returndatasize\n      0x00\n      0x20\n      dup5\n      add\n      returndatacopy\n      jump(tag_230)\n    tag_231:\n      0x60\n      swap2\n      pop\n    tag_230:\n      pop\n        /* \"src/DLT.sol\":19585:19586  0 */\n      0x00\n        /* \"src/DLT.sol\":19568:19574  reason */\n      dup2\n        /* \"src/DLT.sol\":19568:19581  reason.length */\n      mload\n        /* \"src/DLT.sol\":19568:19586  reason.length == 0 */\n      sub\n        /* \"src/DLT.sol\":19564:19879  if (reason.length == 0) {... */\n      tag_232\n      jumpi\n        /* \"src/DLT.sol\":19610:19664  revert(\"DLT: transfer to non DLTReceiver implementer\") */\n      mload(0x40)\n      0x08c379a000000000000000000000000000000000000000000000000000000000\n      dup2\n      mstore\n      0x04\n      add\n      tag_233\n      swap1\n      tag_184\n      jump\t// in\n    tag_233:\n      mload(0x40)\n      dup1\n      swap2\n      sub\n      swap1\n      revert\n        /* \"src/DLT.sol\":19564:19879  if (reason.length == 0) {... */\n    tag_232:\n        /* \"src/DLT.sol\":19831:19837  reason */\n      dup1\n        /* \"src/DLT.sol\":19825:19838  mload(reason) */\n      mload\n        /* \"src/DLT.sol\":19816:19822  reason */\n      dup2\n        /* \"src/DLT.sol\":19812:19814  32 */\n      0x20\n        /* \"src/DLT.sol\":19808:19823  add(32, reason) */\n      add\n        /* \"src/DLT.sol\":19801:19839  revert(add(32, reason), mload(reason)) */\n      revert\n        /* \"src/DLT.sol\":19136:19893  try... */\n    tag_226:\n        /* \"src/DLT.sol\":19462:19502  IDLTReceiver.onDLTBatchReceived.selector */\n      shl(0xe0, 0xc20f1e19)\n        /* \"src/DLT.sol\":19452:19502  retval == IDLTReceiver.onDLTBatchReceived.selector */\n      not(0xffffffffffffffffffffffffffffffffffffffffffffffffffffffff)\n      and\n        /* \"src/DLT.sol\":19452:19458  retval */\n      dup2\n        /* \"src/DLT.sol\":19452:19502  retval == IDLTReceiver.onDLTBatchReceived.selector */\n      not(0xffffffffffffffffffffffffffffffffffffffffffffffffffffffff)\n      and\n      eq\n        /* \"src/DLT.sol\":19445:19502  return retval == IDLTReceiver.onDLTBatchReceived.selector */\n      swap2\n      pop\n      pop\n      jump(tag_218)\n        /* \"src/DLT.sol\":19091:19945  if (recipient.code.length > 0) {... */\n    tag_219:\n        /* \"src/DLT.sol\":19930:19934  true */\n      0x01\n        /* \"src/DLT.sol\":19923:19934  return true */\n      swap1\n      pop\n        /* \"src/DLT.sol\":18839:19951  function _checkOnDLTBatchReceived(... */\n    tag_218:\n      swap7\n      swap6\n      pop\n      pop\n      pop\n      pop\n      pop\n      pop\n      jump\t// out\n        /* \"src/DLT.sol\":17769:18833  function _checkOnDLTReceived(... */\n    tag_200:\n        /* \"src/DLT.sol\":17970:17974  bool */\n      0x00\n        /* \"src/DLT.sol\":18014:18015  0 */\n      dup1\n        /* \"src/DLT.sol\":17990:17999  recipient */\n      dup7\n        /* \"src/DLT.sol\":17990:18011  recipient.code.length */\n      0xffffffffffffffffffffffffffffffffffffffff\n      and\n      extcodesize\n        /* \"src/DLT.sol\":17990:18015  recipient.code.length > 0 */\n      gt\n        /* \"src/DLT.sol\":17986:18827  if (recipient.code.length > 0) {... */\n      iszero\n      tag_238\n      jumpi\n        /* \"src/DLT.sol\":18064:18073  recipient */\n      dup6\n        /* \"src/DLT.sol\":18051:18088  IDLTReceiver(recipient).onDLTReceived */\n      0xffffffffffffffffffffffffffffffffffffffff\n      and\n      0x19a36752\n        /* \"src/DLT.sol\":18110:18122  _msgSender() */\n      tag_239\n        /* \"src/DLT.sol\":18110:18120  _msgSender */\n      tag_78\n        /* \"src/DLT.sol\":18110:18122  _msgSender() */\n      jump\t// in\n    tag_239:\n        /* \"src/DLT.sol\":18144:18150  sender */\n      dup10\n        /* \"src/DLT.sol\":18172:18178  mainId */\n      dup9\n        /* \"src/DLT.sol\":18200:18205  subId */\n      dup9\n        /* \"src/DLT.sol\":18227:18233  amount */\n      dup9\n        /* \"src/DLT.sol\":18255:18259  data */\n      dup9\n        /* \"src/DLT.sol\":18051:18277  IDLTReceiver(recipient).onDLTReceived(... */\n      mload(0x40)\n      dup8\n      0xffffffff\n      and\n      0xe0\n      shl\n      dup2\n      mstore\n      0x04\n      add\n      tag_240\n      swap7\n      swap6\n      swap5\n      swap4\n      swap3\n      swap2\n      swap1\n      tag_241\n      jump\t// in\n    tag_240:\n      0x20\n      mload(0x40)\n      dup1\n      dup4\n      sub\n      dup2\n      0x00\n      dup8\n      gas\n      call\n      swap3\n      pop\n      pop\n      pop\n      dup1\n      iszero\n      tag_242\n      jumpi\n      pop\n      mload(0x40)\n      returndatasize\n      not(0x1f)\n      0x1f\n      dup3\n      add\n      and\n      dup3\n      add\n      dup1\n      0x40\n      mstore\n      pop\n      dup2\n      add\n      swap1\n      tag_243\n      swap2\n      swap1\n      tag_225\n      jump\t// in\n    tag_243:\n      0x01\n    tag_242:\n        /* \"src/DLT.sol\":18031:18775  try... */\n      tag_244\n      jumpi\n      returndatasize\n      dup1\n      0x00\n      dup2\n      eq\n      tag_249\n      jumpi\n      mload(0x40)\n      swap2\n      pop\n      and(add(returndatasize, 0x3f), not(0x1f))\n      dup3\n      add\n      0x40\n      mstore\n      returndatasize\n      dup3\n      mstore\n      returndatasize\n      0x00\n      0x20\n      dup5\n      add\n      returndatacopy\n      jump(tag_248)\n    tag_249:\n      0x60\n      swap2\n      pop\n    tag_248:\n      pop\n        /* \"src/DLT.sol\":18467:18468  0 */\n      0x00\n        /* \"src/DLT.sol\":18450:18456  reason */\n      dup2\n        /* \"src/DLT.sol\":18450:18463  reason.length */\n      mload\n        /* \"src/DLT.sol\":18450:18468  reason.length == 0 */\n      sub\n        /* \"src/DLT.sol\":18446:18761  if (reason.length == 0) {... */\n      tag_250\n      jumpi\n        /* \"src/DLT.sol\":18492:18546  revert(\"DLT: transfer to non DLTReceiver implementer\") */\n      mload(0x40)\n      0x08c379a000000000000000000000000000000000000000000000000000000000\n      dup2\n      mstore\n      0x04\n      add\n      tag_251\n      swap1\n      tag_184\n      jump\t// in\n    tag_251:\n      mload(0x40)\n      dup1\n      swap2\n      sub\n      swap1\n      revert\n        /* \"src/DLT.sol\":18446:18761  if (reason.length == 0) {... */\n    tag_250:\n        /* \"src/DLT.sol\":18713:18719  reason */\n      dup1\n        /* \"src/DLT.sol\":18707:18720  mload(reason) */\n      mload\n        /* \"src/DLT.sol\":18698:18704  reason */\n      dup2\n        /* \"src/DLT.sol\":18694:18696  32 */\n      0x20\n        /* \"src/DLT.sol\":18690:18705  add(32, reason) */\n      add\n        /* \"src/DLT.sol\":18683:18721  revert(add(32, reason), mload(reason)) */\n      revert\n        /* \"src/DLT.sol\":18031:18775  try... */\n    tag_244:\n        /* \"src/DLT.sol\":18349:18384  IDLTReceiver.onDLTReceived.selector */\n      shl(0xe0, 0x19a36752)\n        /* \"src/DLT.sol\":18339:18384  retval == IDLTReceiver.onDLTReceived.selector */\n      not(0xffffffffffffffffffffffffffffffffffffffffffffffffffffffff)\n      and\n        /* \"src/DLT.sol\":18339:18345  retval */\n      dup2\n        /* \"src/DLT.sol\":18339:18384  retval == IDLTReceiver.onDLTReceived.selector */\n      not(0xffffffffffffffffffffffffffffffffffffffffffffffffffffffff)\n      and\n      eq\n        /* \"src/DLT.sol\":18332:18384  return retval == IDLTReceiver.onDLTReceived.selector */\n      swap2\n      pop\n      pop\n      jump(tag_237)\n        /* \"src/DLT.sol\":17986:18827  if (recipient.code.length > 0) {... */\n    tag_238:\n        /* \"src/DLT.sol\":18812:18816  true */\n      0x01\n        /* \"src/DLT.sol\":18805:18816  return true */\n      swap1\n      pop\n        /* \"src/DLT.sol\":17769:18833  function _checkOnDLTReceived(... */\n    tag_237:\n      swap7\n      swap6\n      pop\n      pop\n      pop\n      pop\n      pop\n      pop\n      jump\t// out\n        /* \"src/DLT.sol\":15670:15874  function _beforeTokenTransfer(... */\n    tag_210:\n      pop\n      pop\n      pop\n      pop\n      pop\n      pop\n      jump\t// out\n        /* \"src/DLT.sol\":16507:16710  function _afterTokenTransfer(... */\n    tag_217:\n      pop\n      pop\n      pop\n      pop\n      pop\n      pop\n      jump\t// out\n        /* \"#utility.yul\":7:82   */\n    tag_257:\n        /* \"#utility.yul\":40:46   */\n      0x00\n        /* \"#utility.yul\":73:75   */\n      0x40\n        /* \"#utility.yul\":67:76   */\n      mload\n        /* \"#utility.yul\":57:76   */\n      swap1\n      pop\n        /* \"#utility.yul\":7:82   */\n      swap1\n      jump\t// out\n        /* \"#utility.yul\":88:205   */\n    tag_258:\n        /* \"#utility.yul\":197:198   */\n      0x00\n        /* \"#utility.yul\":194:195   */\n      dup1\n        /* \"#utility.yul\":187:199   */\n      revert\n        /* \"#utility.yul\":211:328   */\n    tag_259:\n        /* \"#utility.yul\":320:321   */\n      0x00\n        /* \"#utility.yul\":317:318   */\n      dup1\n        /* \"#utility.yul\":310:322   */\n      revert\n        /* \"#utility.yul\":334:460   */\n    tag_260:\n        /* \"#utility.yul\":371:378   */\n      0x00\n        /* \"#utility.yul\":411:453   */\n      0xffffffffffffffffffffffffffffffffffffffff\n        /* \"#utility.yul\":404:409   */\n      dup3\n        /* \"#utility.yul\":400:454   */\n      and\n        /* \"#utility.yul\":389:454   */\n      swap1\n      pop\n        /* \"#utility.yul\":334:460   */\n      swap2\n      swap1\n      pop\n      jump\t// out\n        /* \"#utility.yul\":466:562   */\n    tag_261:\n        /* \"#utility.yul\":503:510   */\n      0x00\n        /* \"#utility.yul\":532:556   */\n      tag_333\n        /* \"#utility.yul\":550:555   */\n      dup3\n        /* \"#utility.yul\":532:556   */\n      tag_260\n      jump\t// in\n    tag_333:\n        /* \"#utility.yul\":521:556   */\n      swap1\n      pop\n        /* \"#utility.yul\":466:562   */\n      swap2\n      swap1\n      pop\n      jump\t// out\n        /* \"#utility.yul\":568:690   */\n    tag_262:\n        /* \"#utility.yul\":641:665   */\n      tag_335\n        /* \"#utility.yul\":659:664   */\n      dup2\n        /* \"#utility.yul\":641:665   */\n      tag_261\n      jump\t// in\n    tag_335:\n        /* \"#utility.yul\":634:639   */\n      dup2\n        /* \"#utility.yul\":631:666   */\n      eq\n        /* \"#utility.yul\":621:684   */\n      tag_336\n      jumpi\n        /* \"#utility.yul\":680:681   */\n      0x00\n        /* \"#utility.yul\":677:678   */\n      dup1\n        /* \"#utility.yul\":670:682   */\n      revert\n        /* \"#utility.yul\":621:684   */\n    tag_336:\n        /* \"#utility.yul\":568:690   */\n      pop\n      jump\t// out\n        /* \"#utility.yul\":696:835   */\n    tag_263:\n        /* \"#utility.yul\":742:747   */\n      0x00\n        /* \"#utility.yul\":780:786   */\n      dup2\n        /* \"#utility.yul\":767:787   */\n      calldataload\n        /* \"#utility.yul\":758:787   */\n      swap1\n      pop\n        /* \"#utility.yul\":796:829   */\n      tag_338\n        /* \"#utility.yul\":823:828   */\n      dup2\n        /* \"#utility.yul\":796:829   */\n      tag_262\n      jump\t// in\n    tag_338:\n        /* \"#utility.yul\":696:835   */\n      swap3\n      swap2\n      pop\n      pop\n      jump\t// out\n        /* \"#utility.yul\":841:918   */\n    tag_264:\n        /* \"#utility.yul\":878:885   */\n      0x00\n        /* \"#utility.yul\":907:912   */\n      dup2\n        /* \"#utility.yul\":896:912   */\n      swap1\n      pop\n        /* \"#utility.yul\":841:918   */\n      swap2\n      swap1\n      pop\n      jump\t// out\n        /* \"#utility.yul\":924:1046   */\n    tag_265:\n        /* \"#utility.yul\":997:1021   */\n      tag_341\n        /* \"#utility.yul\":1015:1020   */\n      dup2\n        /* \"#utility.yul\":997:1021   */\n      tag_264\n      jump\t// in\n    tag_341:\n        /* \"#utility.yul\":990:995   */\n      dup2\n        /* \"#utility.yul\":987:1022   */\n      eq\n        /* \"#utility.yul\":977:1040   */\n      tag_342\n      jumpi\n        /* \"#utility.yul\":1036:1037   */\n      0x00\n        /* \"#utility.yul\":1033:1034   */\n      dup1\n        /* \"#utility.yul\":1026:1038   */\n      revert\n        /* \"#utility.yul\":977:1040   */\n    tag_342:\n        /* \"#utility.yul\":924:1046   */\n      pop\n      jump\t// out\n        /* \"#utility.yul\":1052:1191   */\n    tag_266:\n        /* \"#utility.yul\":1098:1103   */\n      0x00\n        /* \"#utility.yul\":1136:1142   */\n      dup2\n        /* \"#utility.yul\":1123:1143   */\n      calldataload\n        /* \"#utility.yul\":1114:1143   */\n      swap1\n      pop\n        /* \"#utility.yul\":1152:1185   */\n      tag_344\n        /* \"#utility.yul\":1179:1184   */\n      dup2\n        /* \"#utility.yul\":1152:1185   */\n      tag_265\n      jump\t// in\n    tag_344:\n        /* \"#utility.yul\":1052:1191   */\n      swap3\n      swap2\n      pop\n      pop\n      jump\t// out\n        /* \"#utility.yul\":1197:2108   */\n    tag_16:\n        /* \"#utility.yul\":1292:1298   */\n      0x00\n        /* \"#utility.yul\":1300:1306   */\n      dup1\n        /* \"#utility.yul\":1308:1314   */\n      0x00\n        /* \"#utility.yul\":1316:1322   */\n      dup1\n        /* \"#utility.yul\":1324:1330   */\n      0x00\n        /* \"#utility.yul\":1373:1376   */\n      0xa0\n        /* \"#utility.yul\":1361:1370   */\n      dup7\n        /* \"#utility.yul\":1352:1359   */\n      dup9\n        /* \"#utility.yul\":1348:1371   */\n      sub\n        /* \"#utility.yul\":1344:1377   */\n      slt\n        /* \"#utility.yul\":1341:1461   */\n      iszero\n      tag_346\n      jumpi\n        /* \"#utility.yul\":1380:1459   */\n      tag_347\n      tag_258\n      jump\t// in\n    tag_347:\n        /* \"#utility.yul\":1341:1461   */\n    tag_346:\n        /* \"#utility.yul\":1500:1501   */\n      0x00\n        /* \"#utility.yul\":1525:1578   */\n      tag_348\n        /* \"#utility.yul\":1570:1577   */\n      dup9\n        /* \"#utility.yul\":1561:1567   */\n      dup3\n        /* \"#utility.yul\":1550:1559   */\n      dup10\n        /* \"#utility.yul\":1546:1568   */\n      add\n        /* \"#utility.yul\":1525:1578   */\n      tag_263\n      jump\t// in\n    tag_348:\n        /* \"#utility.yul\":1515:1578   */\n      swap6\n      pop\n        /* \"#utility.yul\":1471:1588   */\n      pop\n        /* \"#utility.yul\":1627:1629   */\n      0x20\n        /* \"#utility.yul\":1653:1706   */\n      tag_349\n        /* \"#utility.yul\":1698:1705   */\n      dup9\n        /* \"#utility.yul\":1689:1695   */\n      dup3\n        /* \"#utility.yul\":1678:1687   */\n      dup10\n        /* \"#utility.yul\":1674:1696   */\n      add\n        /* \"#utility.yul\":1653:1706   */\n      tag_263\n      jump\t// in\n    tag_349:\n        /* \"#utility.yul\":1643:1706   */\n      swap5\n      pop\n        /* \"#utility.yul\":1598:1716   */\n      pop\n        /* \"#utility.yul\":1755:1757   */\n      0x40\n        /* \"#utility.yul\":1781:1834   */\n      tag_350\n        /* \"#utility.yul\":1826:1833   */\n      dup9\n        /* \"#utility.yul\":1817:1823   */\n      dup3\n        /* \"#utility.yul\":1806:1815   */\n      dup10\n        /* \"#utility.yul\":1802:1824   */\n      add\n        /* \"#utility.yul\":1781:1834   */\n      tag_266\n      jump\t// in\n    tag_350:\n        /* \"#utility.yul\":1771:1834   */\n      swap4\n      pop\n        /* \"#utility.yul\":1726:1844   */\n      pop\n        /* \"#utility.yul\":1883:1885   */\n      0x60\n        /* \"#utility.yul\":1909:1962   */\n      tag_351\n        /* \"#utility.yul\":1954:1961   */\n      dup9\n        /* \"#utility.yul\":1945:1951   */\n      dup3\n        /* \"#utility.yul\":1934:1943   */\n      dup10\n        /* \"#utility.yul\":1930:1952   */\n      add\n        /* \"#utility.yul\":1909:1962   */\n      tag_266\n      jump\t// in\n    tag_351:\n        /* \"#utility.yul\":1899:1962   */\n      swap3\n      pop\n        /* \"#utility.yul\":1854:1972   */\n      pop\n        /* \"#utility.yul\":2011:2014   */\n      0x80\n        /* \"#utility.yul\":2038:2091   */\n      tag_352\n        /* \"#utility.yul\":2083:2090   */\n      dup9\n        /* \"#utility.yul\":2074:2080   */\n      dup3\n        /* \"#utility.yul\":2063:2072   */\n      dup10\n        /* \"#utility.yul\":2059:2081   */\n      add\n        /* \"#utility.yul\":2038:2091   */\n      tag_266\n      jump\t// in\n    tag_352:\n        /* \"#utility.yul\":2028:2091   */\n      swap2\n      pop\n        /* \"#utility.yul\":1982:2101   */\n      pop\n        /* \"#utility.yul\":1197:2108   */\n      swap3\n      swap6\n      pop\n      swap3\n      swap6\n      swap1\n      swap4\n      pop\n      jump\t// out\n        /* \"#utility.yul\":2114:2204   */\n    tag_267:\n        /* \"#utility.yul\":2148:2155   */\n      0x00\n        /* \"#utility.yul\":2191:2196   */\n      dup2\n        /* \"#utility.yul\":2184:2197   */\n      iszero\n        /* \"#utility.yul\":2177:2198   */\n      iszero\n        /* \"#utility.yul\":2166:2198   */\n      swap1\n      pop\n        /* \"#utility.yul\":2114:2204   */\n      swap2\n      swap1\n      pop\n      jump\t// out\n        /* \"#utility.yul\":2210:2319   */\n    tag_268:\n        /* \"#utility.yul\":2291:2312   */\n      tag_355\n        /* \"#utility.yul\":2306:2311   */\n      dup2\n        /* \"#utility.yul\":2291:2312   */\n      tag_267\n      jump\t// in\n    tag_355:\n        /* \"#utility.yul\":2286:2289   */\n      dup3\n        /* \"#utility.yul\":2279:2313   */\n      mstore\n        /* \"#utility.yul\":2210:2319   */\n      pop\n      pop\n      jump\t// out\n        /* \"#utility.yul\":2325:2535   */\n    tag_19:\n        /* \"#utility.yul\":2412:2416   */\n      0x00\n        /* \"#utility.yul\":2450:2452   */\n      0x20\n        /* \"#utility.yul\":2439:2448   */\n      dup3\n        /* \"#utility.yul\":2435:2453   */\n      add\n        /* \"#utility.yul\":2427:2453   */\n      swap1\n      pop\n        /* \"#utility.yul\":2463:2528   */\n      tag_357\n        /* \"#utility.yul\":2525:2526   */\n      0x00\n        /* \"#utility.yul\":2514:2523   */\n      dup4\n        /* \"#utility.yul\":2510:2527   */\n      add\n        /* \"#utility.yul\":2501:2507   */\n      dup5\n        /* \"#utility.yul\":2463:2528   */\n      tag_268\n      jump\t// in\n    tag_357:\n        /* \"#utility.yul\":2325:2535   */\n      swap3\n      swap2\n      pop\n      pop\n      jump\t// out\n        /* \"#utility.yul\":2541:3306   */\n    tag_22:\n        /* \"#utility.yul\":2627:2633   */\n      0x00\n        /* \"#utility.yul\":2635:2641   */\n      dup1\n        /* \"#utility.yul\":2643:2649   */\n      0x00\n        /* \"#utility.yul\":2651:2657   */\n      dup1\n        /* \"#utility.yul\":2700:2703   */\n      0x80\n        /* \"#utility.yul\":2688:2697   */\n      dup6\n        /* \"#utility.yul\":2679:2686   */\n      dup8\n        /* \"#utility.yul\":2675:2698   */\n      sub\n        /* \"#utility.yul\":2671:2704   */\n      slt\n        /* \"#utility.yul\":2668:2788   */\n      iszero\n      tag_359\n      jumpi\n        /* \"#utility.yul\":2707:2786   */\n      tag_360\n      tag_258\n      jump\t// in\n    tag_360:\n        /* \"#utility.yul\":2668:2788   */\n    tag_359:\n        /* \"#utility.yul\":2827:2828   */\n      0x00\n        /* \"#utility.yul\":2852:2905   */\n      tag_361\n        /* \"#utility.yul\":2897:2904   */\n      dup8\n        /* \"#utility.yul\":2888:2894   */\n      dup3\n        /* \"#utility.yul\":2877:2886   */\n      dup9\n        /* \"#utility.yul\":2873:2895   */\n      add\n        /* \"#utility.yul\":2852:2905   */\n      tag_263\n      jump\t// in\n    tag_361:\n        /* \"#utility.yul\":2842:2905   */\n      swap5\n      pop\n        /* \"#utility.yul\":2798:2915   */\n      pop\n        /* \"#utility.yul\":2954:2956   */\n      0x20\n        /* \"#utility.yul\":2980:3033   */\n      tag_362\n        /* \"#utility.yul\":3025:3032   */\n      dup8\n        /* \"#utility.yul\":3016:3022   */\n      dup3\n        /* \"#utility.yul\":3005:3014   */\n      dup9\n        /* \"#utility.yul\":3001:3023   */\n      add\n        /* \"#utility.yul\":2980:3033   */\n      tag_263\n      jump\t// in\n    tag_362:\n        /* \"#utility.yul\":2970:3033   */\n      swap4\n      pop\n        /* \"#utility.yul\":2925:3043   */\n      pop\n        /* \"#utility.yul\":3082:3084   */\n      0x40\n        /* \"#utility.yul\":3108:3161   */\n      tag_363\n        /* \"#utility.yul\":3153:3160   */\n      dup8\n        /* \"#utility.yul\":3144:3150   */\n      dup3\n        /* \"#utility.yul\":3133:3142   */\n      dup9\n        /* \"#utility.yul\":3129:3151   */\n      add\n        /* \"#utility.yul\":3108:3161   */\n      tag_266\n      jump\t// in\n    tag_363:\n        /* \"#utility.yul\":3098:3161   */\n      swap3\n      pop\n        /* \"#utility.yul\":3053:3171   */\n      pop\n        /* \"#utility.yul\":3210:3212   */\n      0x60\n        /* \"#utility.yul\":3236:3289   */\n      tag_364\n        /* \"#utility.yul\":3281:3288   */\n      dup8\n        /* \"#utility.yul\":3272:3278   */\n      dup3\n        /* \"#utility.yul\":3261:3270   */\n      dup9\n        /* \"#utility.yul\":3257:3279   */\n      add\n        /* \"#utility.yul\":3236:3289   */\n      tag_266\n      jump\t// in\n    tag_364:\n        /* \"#utility.yul\":3226:3289   */\n      swap2\n      pop\n        /* \"#utility.yul\":3181:3299   */\n      pop\n        /* \"#utility.yul\":2541:3306   */\n      swap3\n      swap6\n      swap2\n      swap5\n      pop\n      swap3\n      pop\n      jump\t// out\n        /* \"#utility.yul\":3312:3430   */\n    tag_269:\n        /* \"#utility.yul\":3399:3423   */\n      tag_366\n        /* \"#utility.yul\":3417:3422   */\n      dup2\n        /* \"#utility.yul\":3399:3423   */\n      tag_264\n      jump\t// in\n    tag_366:\n        /* \"#utility.yul\":3394:3397   */\n      dup3\n        /* \"#utility.yul\":3387:3424   */\n      mstore\n        /* \"#utility.yul\":3312:3430   */\n      pop\n      pop\n      jump\t// out\n        /* \"#utility.yul\":3436:3658   */\n    tag_25:\n        /* \"#utility.yul\":3529:3533   */\n      0x00\n        /* \"#utility.yul\":3567:3569   */\n      0x20\n        /* \"#utility.yul\":3556:3565   */\n      dup3\n        /* \"#utility.yul\":3552:3570   */\n      add\n        /* \"#utility.yul\":3544:3570   */\n      swap1\n      pop\n        /* \"#utility.yul\":3580:3651   */\n      tag_368\n        /* \"#utility.yul\":3648:3649   */\n      0x00\n        /* \"#utility.yul\":3637:3646   */\n      dup4\n        /* \"#utility.yul\":3633:3650   */\n      add\n        /* \"#utility.yul\":3624:3630   */\n      dup5\n        /* \"#utility.yul\":3580:3651   */\n      tag_269\n      jump\t// in\n    tag_368:\n        /* \"#utility.yul\":3436:3658   */\n      swap3\n      swap2\n      pop\n      pop\n      jump\t// out\n        /* \"#utility.yul\":3664:3781   */\n    tag_270:\n        /* \"#utility.yul\":3773:3774   */\n      0x00\n        /* \"#utility.yul\":3770:3771   */\n      dup1\n        /* \"#utility.yul\":3763:3775   */\n      revert\n        /* \"#utility.yul\":3787:3904   */\n    tag_271:\n        /* \"#utility.yul\":3896:3897   */\n      0x00\n        /* \"#utility.yul\":3893:3894   */\n      dup1\n        /* \"#utility.yul\":3886:3898   */\n      revert\n        /* \"#utility.yul\":3910:4012   */\n    tag_272:\n        /* \"#utility.yul\":3951:3957   */\n      0x00\n        /* \"#utility.yul\":4002:4004   */\n      0x1f\n        /* \"#utility.yul\":3998:4005   */\n      not\n        /* \"#utility.yul\":3993:3995   */\n      0x1f\n        /* \"#utility.yul\":3986:3991   */\n      dup4\n        /* \"#utility.yul\":3982:3996   */\n      add\n        /* \"#utility.yul\":3978:4006   */\n      and\n        /* \"#utility.yul\":3968:4006   */\n      swap1\n      pop\n        /* \"#utility.yul\":3910:4012   */\n      swap2\n      swap1\n      pop\n      jump\t// out\n        /* \"#utility.yul\":4018:4198   */\n    tag_91:\n        /* \"#utility.yul\":4066:4143   */\n      0x4e487b7100000000000000000000000000000000000000000000000000000000\n        /* \"#utility.yul\":4063:4064   */\n      0x00\n        /* \"#utility.yul\":4056:4144   */\n      mstore\n        /* \"#utility.yul\":4163:4167   */\n      0x41\n        /* \"#utility.yul\":4160:4161   */\n      0x04\n        /* \"#utility.yul\":4153:4168   */\n      mstore\n        /* \"#utility.yul\":4187:4191   */\n      0x24\n        /* \"#utility.yul\":4184:4185   */\n      0x00\n        /* \"#utility.yul\":4177:4192   */\n      revert\n        /* \"#utility.yul\":4204:4485   */\n    tag_273:\n        /* \"#utility.yul\":4287:4314   */\n      tag_374\n        /* \"#utility.yul\":4309:4313   */\n      dup3\n        /* \"#utility.yul\":4287:4314   */\n      tag_272\n      jump\t// in\n    tag_374:\n        /* \"#utility.yul\":4279:4285   */\n      dup2\n        /* \"#utility.yul\":4275:4315   */\n      add\n        /* \"#utility.yul\":4417:4423   */\n      dup2\n        /* \"#utility.yul\":4405:4415   */\n      dup2\n        /* \"#utility.yul\":4402:4424   */\n      lt\n        /* \"#utility.yul\":4381:4399   */\n      0xffffffffffffffff\n        /* \"#utility.yul\":4369:4379   */\n      dup3\n        /* \"#utility.yul\":4366:4400   */\n      gt\n        /* \"#utility.yul\":4363:4425   */\n      or\n        /* \"#utility.yul\":4360:4448   */\n      iszero\n      tag_375\n      jumpi\n        /* \"#utility.yul\":4428:4446   */\n      tag_376\n      tag_91\n      jump\t// in\n    tag_376:\n        /* \"#utility.yul\":4360:4448   */\n    tag_375:\n        /* \"#utility.yul\":4468:4478   */\n      dup1\n        /* \"#utility.yul\":4464:4466   */\n      0x40\n        /* \"#utility.yul\":4457:4479   */\n      mstore\n        /* \"#utility.yul\":4247:4485   */\n      pop\n        /* \"#utility.yul\":4204:4485   */\n      pop\n      pop\n      jump\t// out\n        /* \"#utility.yul\":4491:4620   */\n    tag_274:\n        /* \"#utility.yul\":4525:4531   */\n      0x00\n        /* \"#utility.yul\":4552:4572   */\n      tag_378\n      tag_257\n      jump\t// in\n    tag_378:\n        /* \"#utility.yul\":4542:4572   */\n      swap1\n      pop\n        /* \"#utility.yul\":4581:4614   */\n      tag_379\n        /* \"#utility.yul\":4609:4613   */\n      dup3\n        /* \"#utility.yul\":4601:4607   */\n      dup3\n        /* \"#utility.yul\":4581:4614   */\n      tag_273\n      jump\t// in\n    tag_379:\n        /* \"#utility.yul\":4491:4620   */\n      swap2\n      swap1\n      pop\n      jump\t// out\n        /* \"#utility.yul\":4626:4933   */\n    tag_275:\n        /* \"#utility.yul\":4687:4691   */\n      0x00\n        /* \"#utility.yul\":4777:4795   */\n      0xffffffffffffffff\n        /* \"#utility.yul\":4769:4775   */\n      dup3\n        /* \"#utility.yul\":4766:4796   */\n      gt\n        /* \"#utility.yul\":4763:4819   */\n      iszero\n      tag_381\n      jumpi\n        /* \"#utility.yul\":4799:4817   */\n      tag_382\n      tag_91\n      jump\t// in\n    tag_382:\n        /* \"#utility.yul\":4763:4819   */\n    tag_381:\n        /* \"#utility.yul\":4837:4866   */\n      tag_383\n        /* \"#utility.yul\":4859:4865   */\n      dup3\n        /* \"#utility.yul\":4837:4866   */\n      tag_272\n      jump\t// in\n    tag_383:\n        /* \"#utility.yul\":4829:4866   */\n      swap1\n      pop\n        /* \"#utility.yul\":4921:4925   */\n      0x20\n        /* \"#utility.yul\":4915:4919   */\n      dup2\n        /* \"#utility.yul\":4911:4926   */\n      add\n        /* \"#utility.yul\":4903:4926   */\n      swap1\n      pop\n        /* \"#utility.yul\":4626:4933   */\n      swap2\n      swap1\n      pop\n      jump\t// out\n        /* \"#utility.yul\":4939:5085   */\n    tag_276:\n        /* \"#utility.yul\":5036:5042   */\n      dup3\n        /* \"#utility.yul\":5031:5034   */\n      dup2\n        /* \"#utility.yul\":5026:5029   */\n      dup4\n        /* \"#utility.yul\":5013:5043   */\n      calldatacopy\n        /* \"#utility.yul\":5077:5078   */\n      0x00\n        /* \"#utility.yul\":5068:5074   */\n      dup4\n        /* \"#utility.yul\":5063:5066   */\n      dup4\n        /* \"#utility.yul\":5059:5075   */\n      add\n        /* \"#utility.yul\":5052:5079   */\n      mstore\n        /* \"#utility.yul\":4939:5085   */\n      pop\n      pop\n      pop\n      jump\t// out\n        /* \"#utility.yul\":5091:5514   */\n    tag_277:\n        /* \"#utility.yul\":5168:5173   */\n      0x00\n        /* \"#utility.yul\":5193:5258   */\n      tag_386\n        /* \"#utility.yul\":5209:5257   */\n      tag_387\n        /* \"#utility.yul\":5250:5256   */\n      dup5\n        /* \"#utility.yul\":5209:5257   */\n      tag_275\n      jump\t// in\n    tag_387:\n        /* \"#utility.yul\":5193:5258   */\n      tag_274\n      jump\t// in\n    tag_386:\n        /* \"#utility.yul\":5184:5258   */\n      swap1\n      pop\n        /* \"#utility.yul\":5281:5287   */\n      dup3\n        /* \"#utility.yul\":5274:5279   */\n      dup2\n        /* \"#utility.yul\":5267:5288   */\n      mstore\n        /* \"#utility.yul\":5319:5323   */\n      0x20\n        /* \"#utility.yul\":5312:5317   */\n      dup2\n        /* \"#utility.yul\":5308:5324   */\n      add\n        /* \"#utility.yul\":5357:5360   */\n      dup5\n        /* \"#utility.yul\":5348:5354   */\n      dup5\n        /* \"#utility.yul\":5343:5346   */\n      dup5\n        /* \"#utility.yul\":5339:5355   */\n      add\n        /* \"#utility.yul\":5336:5361   */\n      gt\n        /* \"#utility.yul\":5333:5445   */\n      iszero\n      tag_388\n      jumpi\n        /* \"#utility.yul\":5364:5443   */\n      tag_389\n      tag_271\n      jump\t// in\n    tag_389:\n        /* \"#utility.yul\":5333:5445   */\n    tag_388:\n        /* \"#utility.yul\":5454:5508   */\n      tag_390\n        /* \"#utility.yul\":5501:5507   */\n      dup5\n        /* \"#utility.yul\":5496:5499   */\n      dup3\n        /* \"#utility.yul\":5491:5494   */\n      dup6\n        /* \"#utility.yul\":5454:5508   */\n      tag_276\n      jump\t// in\n    tag_390:\n        /* \"#utility.yul\":5174:5514   */\n      pop\n        /* \"#utility.yul\":5091:5514   */\n      swap4\n      swap3\n      pop\n      pop\n      pop\n      jump\t// out\n        /* \"#utility.yul\":5533:5871   */\n    tag_278:\n        /* \"#utility.yul\":5588:5593   */\n      0x00\n        /* \"#utility.yul\":5637:5640   */\n      dup3\n        /* \"#utility.yul\":5630:5634   */\n      0x1f\n        /* \"#utility.yul\":5622:5628   */\n      dup4\n        /* \"#utility.yul\":5618:5635   */\n      add\n        /* \"#utility.yul\":5614:5641   */\n      slt\n        /* \"#utility.yul\":5604:5726   */\n      tag_392\n      jumpi\n        /* \"#utility.yul\":5645:5724   */\n      tag_393\n      tag_270\n      jump\t// in\n    tag_393:\n        /* \"#utility.yul\":5604:5726   */\n    tag_392:\n        /* \"#utility.yul\":5762:5768   */\n      dup2\n        /* \"#utility.yul\":5749:5769   */\n      calldataload\n        /* \"#utility.yul\":5787:5865   */\n      tag_394\n        /* \"#utility.yul\":5861:5864   */\n      dup5\n        /* \"#utility.yul\":5853:5859   */\n      dup3\n        /* \"#utility.yul\":5846:5850   */\n      0x20\n        /* \"#utility.yul\":5838:5844   */\n      dup7\n        /* \"#utility.yul\":5834:5851   */\n      add\n        /* \"#utility.yul\":5787:5865   */\n      tag_277\n      jump\t// in\n    tag_394:\n        /* \"#utility.yul\":5778:5865   */\n      swap2\n      pop\n        /* \"#utility.yul\":5594:5871   */\n      pop\n        /* \"#utility.yul\":5533:5871   */\n      swap3\n      swap2\n      pop\n      pop\n      jump\t// out\n        /* \"#utility.yul\":5877:7112   */\n    tag_32:\n        /* \"#utility.yul\":5990:5996   */\n      0x00\n        /* \"#utility.yul\":5998:6004   */\n      dup1\n        /* \"#utility.yul\":6006:6012   */\n      0x00\n        /* \"#utility.yul\":6014:6020   */\n      dup1\n        /* \"#utility.yul\":6022:6028   */\n      0x00\n        /* \"#utility.yul\":6030:6036   */\n      dup1\n        /* \"#utility.yul\":6079:6082   */\n      0xc0\n        /* \"#utility.yul\":6067:6076   */\n      dup8\n        /* \"#utility.yul\":6058:6065   */\n      dup10\n        /* \"#utility.yul\":6054:6077   */\n      sub\n        /* \"#utility.yul\":6050:6083   */\n      slt\n        /* \"#utility.yul\":6047:6167   */\n      iszero\n      tag_396\n      jumpi\n        /* \"#utility.yul\":6086:6165   */\n      tag_397\n      tag_258\n      jump\t// in\n    tag_397:\n        /* \"#utility.yul\":6047:6167   */\n    tag_396:\n        /* \"#utility.yul\":6206:6207   */\n      0x00\n        /* \"#utility.yul\":6231:6284   */\n      tag_398\n        /* \"#utility.yul\":6276:6283   */\n      dup10\n        /* \"#utility.yul\":6267:6273   */\n      dup3\n        /* \"#utility.yul\":6256:6265   */\n      dup11\n        /* \"#utility.yul\":6252:6274   */\n      add\n        /* \"#utility.yul\":6231:6284   */\n      tag_263\n      jump\t// in\n    tag_398:\n        /* \"#utility.yul\":6221:6284   */\n      swap7\n      pop\n        /* \"#utility.yul\":6177:6294   */\n      pop\n        /* \"#utility.yul\":6333:6335   */\n      0x20\n        /* \"#utility.yul\":6359:6412   */\n      tag_399\n        /* \"#utility.yul\":6404:6411   */\n      dup10\n        /* \"#utility.yul\":6395:6401   */\n      dup3\n        /* \"#utility.yul\":6384:6393   */\n      dup11\n        /* \"#utility.yul\":6380:6402   */\n      add\n        /* \"#utility.yul\":6359:6412   */\n      tag_263\n      jump\t// in\n    tag_399:\n        /* \"#utility.yul\":6349:6412   */\n      swap6\n      pop\n        /* \"#utility.yul\":6304:6422   */\n      pop\n        /* \"#utility.yul\":6461:6463   */\n      0x40\n        /* \"#utility.yul\":6487:6540   */\n      tag_400\n        /* \"#utility.yul\":6532:6539   */\n      dup10\n        /* \"#utility.yul\":6523:6529   */\n      dup3\n        /* \"#utility.yul\":6512:6521   */\n      dup11\n        /* \"#utility.yul\":6508:6530   */\n      add\n        /* \"#utility.yul\":6487:6540   */\n      tag_266\n      jump\t// in\n    tag_400:\n        /* \"#utility.yul\":6477:6540   */\n      swap5\n      pop\n        /* \"#utility.yul\":6432:6550   */\n      pop\n        /* \"#utility.yul\":6589:6591   */\n      0x60\n        /* \"#utility.yul\":6615:6668   */\n      tag_401\n        /* \"#utility.yul\":6660:6667   */\n      dup10\n        /* \"#utility.yul\":6651:6657   */\n      dup3\n        /* \"#utility.yul\":6640:6649   */\n      dup11\n        /* \"#utility.yul\":6636:6658   */\n      add\n        /* \"#utility.yul\":6615:6668   */\n      tag_266\n      jump\t// in\n    tag_401:\n        /* \"#utility.yul\":6605:6668   */\n      swap4\n      pop\n        /* \"#utility.yul\":6560:6678   */\n      pop\n        /* \"#utility.yul\":6717:6720   */\n      0x80\n        /* \"#utility.yul\":6744:6797   */\n      tag_402\n        /* \"#utility.yul\":6789:6796   */\n      dup10\n        /* \"#utility.yul\":6780:6786   */\n      dup3\n        /* \"#utility.yul\":6769:6778   */\n      dup11\n        /* \"#utility.yul\":6765:6787   */\n      add\n        /* \"#utility.yul\":6744:6797   */\n      tag_266\n      jump\t// in\n    tag_402:\n        /* \"#utility.yul\":6734:6797   */\n      swap3\n      pop\n        /* \"#utility.yul\":6688:6807   */\n      pop\n        /* \"#utility.yul\":6874:6877   */\n      0xa0\n        /* \"#utility.yul\":6863:6872   */\n      dup8\n        /* \"#utility.yul\":6859:6878   */\n      add\n        /* \"#utility.yul\":6846:6879   */\n      calldataload\n        /* \"#utility.yul\":6906:6924   */\n      0xffffffffffffffff\n        /* \"#utility.yul\":6898:6904   */\n      dup2\n        /* \"#utility.yul\":6895:6925   */\n      gt\n        /* \"#utility.yul\":6892:7009   */\n      iszero\n      tag_403\n      jumpi\n        /* \"#utility.yul\":6928:7007   */\n      tag_404\n      tag_259\n      jump\t// in\n    tag_404:\n        /* \"#utility.yul\":6892:7009   */\n    tag_403:\n        /* \"#utility.yul\":7033:7095   */\n      tag_405\n        /* \"#utility.yul\":7087:7094   */\n      dup10\n        /* \"#utility.yul\":7078:7084   */\n      dup3\n        /* \"#utility.yul\":7067:7076   */\n      dup11\n        /* \"#utility.yul\":7063:7085   */\n      add\n        /* \"#utility.yul\":7033:7095   */\n      tag_278\n      jump\t// in\n    tag_405:\n        /* \"#utility.yul\":7023:7095   */\n      swap2\n      pop\n        /* \"#utility.yul\":6817:7105   */\n      pop\n        /* \"#utility.yul\":5877:7112   */\n      swap3\n      swap6\n      pop\n      swap3\n      swap6\n      pop\n      swap3\n      swap6\n      jump\t// out\n        /* \"#utility.yul\":7118:7883   */\n    tag_37:\n        /* \"#utility.yul\":7204:7210   */\n      0x00\n        /* \"#utility.yul\":7212:7218   */\n      dup1\n        /* \"#utility.yul\":7220:7226   */\n      0x00\n        /* \"#utility.yul\":7228:7234   */\n      dup1\n        /* \"#utility.yul\":7277:7280   */\n      0x80\n        /* \"#utility.yul\":7265:7274   */\n      dup6\n        /* \"#utility.yul\":7256:7263   */\n      dup8\n        /* \"#utility.yul\":7252:7275   */\n      sub\n        /* \"#utility.yul\":7248:7281   */\n      slt\n        /* \"#utility.yul\":7245:7365   */\n      iszero\n      tag_407\n      jumpi\n        /* \"#utility.yul\":7284:7363   */\n      tag_408\n      tag_258\n      jump\t// in\n    tag_408:\n        /* \"#utility.yul\":7245:7365   */\n    tag_407:\n        /* \"#utility.yul\":7404:7405   */\n      0x00\n        /* \"#utility.yul\":7429:7482   */\n      tag_409\n        /* \"#utility.yul\":7474:7481   */\n      dup8\n        /* \"#utility.yul\":7465:7471   */\n      dup3\n        /* \"#utility.yul\":7454:7463   */\n      dup9\n        /* \"#utility.yul\":7450:7472   */\n      add\n        /* \"#utility.yul\":7429:7482   */\n      tag_263\n      jump\t// in\n    tag_409:\n        /* \"#utility.yul\":7419:7482   */\n      swap5\n      pop\n        /* \"#utility.yul\":7375:7492   */\n      pop\n        /* \"#utility.yul\":7531:7533   */\n      0x20\n        /* \"#utility.yul\":7557:7610   */\n      tag_410\n        /* \"#utility.yul\":7602:7609   */\n      dup8\n        /* \"#utility.yul\":7593:7599   */\n      dup3\n        /* \"#utility.yul\":7582:7591   */\n      dup9\n        /* \"#utility.yul\":7578:7600   */\n      add\n        /* \"#utility.yul\":7557:7610   */\n      tag_266\n      jump\t// in\n    tag_410:\n        /* \"#utility.yul\":7547:7610   */\n      swap4\n      pop\n        /* \"#utility.yul\":7502:7620   */\n      pop\n        /* \"#utility.yul\":7659:7661   */\n      0x40\n        /* \"#utility.yul\":7685:7738   */\n      tag_411\n        /* \"#utility.yul\":7730:7737   */\n      dup8\n        /* \"#utility.yul\":7721:7727   */\n      dup3\n        /* \"#utility.yul\":7710:7719   */\n      dup9\n        /* \"#utility.yul\":7706:7728   */\n      add\n        /* \"#utility.yul\":7685:7738   */\n      tag_266\n      jump\t// in\n    tag_411:\n        /* \"#utility.yul\":7675:7738   */\n      swap3\n      pop\n        /* \"#utility.yul\":7630:7748   */\n      pop\n        /* \"#utility.yul\":7787:7789   */\n      0x60\n        /* \"#utility.yul\":7813:7866   */\n      tag_412\n        /* \"#utility.yul\":7858:7865   */\n      dup8\n        /* \"#utility.yul\":7849:7855   */\n      dup3\n        /* \"#utility.yul\":7838:7847   */\n      dup9\n        /* \"#utility.yul\":7834:7856   */\n      add\n        /* \"#utility.yul\":7813:7866   */\n      tag_266\n      jump\t// in\n    tag_412:\n        /* \"#utility.yul\":7803:7866   */\n      swap2\n      pop\n        /* \"#utility.yul\":7758:7876   */\n      pop\n        /* \"#utility.yul\":7118:7883   */\n      swap3\n      swap6\n      swap2\n      swap5\n      pop\n      swap3\n      pop\n      jump\t// out\n        /* \"#utility.yul\":7889:8006   */\n    tag_279:\n        /* \"#utility.yul\":7998:7999   */\n      0x00\n        /* \"#utility.yul\":7995:7996   */\n      dup1\n        /* \"#utility.yul\":7988:8000   */\n      revert\n        /* \"#utility.yul\":8012:8129   */\n    tag_280:\n        /* \"#utility.yul\":8121:8122   */\n      0x00\n        /* \"#utility.yul\":8118:8119   */\n      dup1\n        /* \"#utility.yul\":8111:8123   */\n      revert\n        /* \"#utility.yul\":8152:8720   */\n    tag_281:\n        /* \"#utility.yul\":8225:8233   */\n      0x00\n        /* \"#utility.yul\":8235:8241   */\n      dup1\n        /* \"#utility.yul\":8285:8288   */\n      dup4\n        /* \"#utility.yul\":8278:8282   */\n      0x1f\n        /* \"#utility.yul\":8270:8276   */\n      dup5\n        /* \"#utility.yul\":8266:8283   */\n      add\n        /* \"#utility.yul\":8262:8289   */\n      slt\n        /* \"#utility.yul\":8252:8374   */\n      tag_416\n      jumpi\n        /* \"#utility.yul\":8293:8372   */\n      tag_417\n      tag_270\n      jump\t// in\n    tag_417:\n        /* \"#utility.yul\":8252:8374   */\n    tag_416:\n        /* \"#utility.yul\":8406:8412   */\n      dup3\n        /* \"#utility.yul\":8393:8413   */\n      calldataload\n        /* \"#utility.yul\":8383:8413   */\n      swap1\n      pop\n        /* \"#utility.yul\":8436:8454   */\n      0xffffffffffffffff\n        /* \"#utility.yul\":8428:8434   */\n      dup2\n        /* \"#utility.yul\":8425:8455   */\n      gt\n        /* \"#utility.yul\":8422:8539   */\n      iszero\n      tag_418\n      jumpi\n        /* \"#utility.yul\":8458:8537   */\n      tag_419\n      tag_279\n      jump\t// in\n    tag_419:\n        /* \"#utility.yul\":8422:8539   */\n    tag_418:\n        /* \"#utility.yul\":8572:8576   */\n      0x20\n        /* \"#utility.yul\":8564:8570   */\n      dup4\n        /* \"#utility.yul\":8560:8577   */\n      add\n        /* \"#utility.yul\":8548:8577   */\n      swap2\n      pop\n        /* \"#utility.yul\":8626:8629   */\n      dup4\n        /* \"#utility.yul\":8618:8622   */\n      0x20\n        /* \"#utility.yul\":8610:8616   */\n      dup3\n        /* \"#utility.yul\":8606:8623   */\n      mul\n        /* \"#utility.yul\":8596:8604   */\n      dup4\n        /* \"#utility.yul\":8592:8624   */\n      add\n        /* \"#utility.yul\":8589:8630   */\n      gt\n        /* \"#utility.yul\":8586:8714   */\n      iszero\n      tag_420\n      jumpi\n        /* \"#utility.yul\":8633:8712   */\n      tag_421\n      tag_280\n      jump\t// in\n    tag_421:\n        /* \"#utility.yul\":8586:8714   */\n    tag_420:\n        /* \"#utility.yul\":8152:8720   */\n      swap3\n      pop\n      swap3\n      swap1\n      pop\n      jump\t// out\n        /* \"#utility.yul\":8743:9311   */\n    tag_282:\n        /* \"#utility.yul\":8816:8824   */\n      0x00\n        /* \"#utility.yul\":8826:8832   */\n      dup1\n        /* \"#utility.yul\":8876:8879   */\n      dup4\n        /* \"#utility.yul\":8869:8873   */\n      0x1f\n        /* \"#utility.yul\":8861:8867   */\n      dup5\n        /* \"#utility.yul\":8857:8874   */\n      add\n        /* \"#utility.yul\":8853:8880   */\n      slt\n        /* \"#utility.yul\":8843:8965   */\n      tag_423\n      jumpi\n        /* \"#utility.yul\":8884:8963   */\n      tag_424\n      tag_270\n      jump\t// in\n    tag_424:\n        /* \"#utility.yul\":8843:8965   */\n    tag_423:\n        /* \"#utility.yul\":8997:9003   */\n      dup3\n        /* \"#utility.yul\":8984:9004   */\n      calldataload\n        /* \"#utility.yul\":8974:9004   */\n      swap1\n      pop\n        /* \"#utility.yul\":9027:9045   */\n      0xffffffffffffffff\n        /* \"#utility.yul\":9019:9025   */\n      dup2\n        /* \"#utility.yul\":9016:9046   */\n      gt\n        /* \"#utility.yul\":9013:9130   */\n      iszero\n      tag_425\n      jumpi\n        /* \"#utility.yul\":9049:9128   */\n      tag_426\n      tag_279\n      jump\t// in\n    tag_426:\n        /* \"#utility.yul\":9013:9130   */\n    tag_425:\n        /* \"#utility.yul\":9163:9167   */\n      0x20\n        /* \"#utility.yul\":9155:9161   */\n      dup4\n        /* \"#utility.yul\":9151:9168   */\n      add\n        /* \"#utility.yul\":9139:9168   */\n      swap2\n      pop\n        /* \"#utility.yul\":9217:9220   */\n      dup4\n        /* \"#utility.yul\":9209:9213   */\n      0x20\n        /* \"#utility.yul\":9201:9207   */\n      dup3\n        /* \"#utility.yul\":9197:9214   */\n      mul\n        /* \"#utility.yul\":9187:9195   */\n      dup4\n        /* \"#utility.yul\":9183:9215   */\n      add\n        /* \"#utility.yul\":9180:9221   */\n      gt\n        /* \"#utility.yul\":9177:9305   */\n      iszero\n      tag_427\n      jumpi\n        /* \"#utility.yul\":9224:9303   */\n      tag_428\n      tag_280\n      jump\t// in\n    tag_428:\n        /* \"#utility.yul\":9177:9305   */\n    tag_427:\n        /* \"#utility.yul\":8743:9311   */\n      swap3\n      pop\n      swap3\n      swap1\n      pop\n      jump\t// out\n        /* \"#utility.yul\":9317:10626   */\n    tag_42:\n        /* \"#utility.yul\":9475:9481   */\n      0x00\n        /* \"#utility.yul\":9483:9489   */\n      dup1\n        /* \"#utility.yul\":9491:9497   */\n      0x00\n        /* \"#utility.yul\":9499:9505   */\n      dup1\n        /* \"#utility.yul\":9507:9513   */\n      0x00\n        /* \"#utility.yul\":9515:9521   */\n      dup1\n        /* \"#utility.yul\":9564:9566   */\n      0x60\n        /* \"#utility.yul\":9552:9561   */\n      dup8\n        /* \"#utility.yul\":9543:9550   */\n      dup10\n        /* \"#utility.yul\":9539:9562   */\n      sub\n        /* \"#utility.yul\":9535:9567   */\n      slt\n        /* \"#utility.yul\":9532:9651   */\n      iszero\n      tag_430\n      jumpi\n        /* \"#utility.yul\":9570:9649   */\n      tag_431\n      tag_258\n      jump\t// in\n    tag_431:\n        /* \"#utility.yul\":9532:9651   */\n    tag_430:\n        /* \"#utility.yul\":9718:9719   */\n      0x00\n        /* \"#utility.yul\":9707:9716   */\n      dup8\n        /* \"#utility.yul\":9703:9720   */\n      add\n        /* \"#utility.yul\":9690:9721   */\n      calldataload\n        /* \"#utility.yul\":9748:9766   */\n      0xffffffffffffffff\n        /* \"#utility.yul\":9740:9746   */\n      dup2\n        /* \"#utility.yul\":9737:9767   */\n      gt\n        /* \"#utility.yul\":9734:9851   */\n      iszero\n      tag_432\n      jumpi\n        /* \"#utility.yul\":9770:9849   */\n      tag_433\n      tag_259\n      jump\t// in\n    tag_433:\n        /* \"#utility.yul\":9734:9851   */\n    tag_432:\n        /* \"#utility.yul\":9883:9963   */\n      tag_434\n        /* \"#utility.yul\":9955:9962   */\n      dup10\n        /* \"#utility.yul\":9946:9952   */\n      dup3\n        /* \"#utility.yul\":9935:9944   */\n      dup11\n        /* \"#utility.yul\":9931:9953   */\n      add\n        /* \"#utility.yul\":9883:9963   */\n      tag_281\n      jump\t// in\n    tag_434:\n        /* \"#utility.yul\":9865:9963   */\n      swap7\n      pop\n      swap7\n      pop\n        /* \"#utility.yul\":9661:9973   */\n      pop\n        /* \"#utility.yul\":10040:10042   */\n      0x20\n        /* \"#utility.yul\":10029:10038   */\n      dup8\n        /* \"#utility.yul\":10025:10043   */\n      add\n        /* \"#utility.yul\":10012:10044   */\n      calldataload\n        /* \"#utility.yul\":10071:10089   */\n      0xffffffffffffffff\n        /* \"#utility.yul\":10063:10069   */\n      dup2\n        /* \"#utility.yul\":10060:10090   */\n      gt\n        /* \"#utility.yul\":10057:10174   */\n      iszero\n      tag_435\n      jumpi\n        /* \"#utility.yul\":10093:10172   */\n      tag_436\n      tag_259\n      jump\t// in\n    tag_436:\n        /* \"#utility.yul\":10057:10174   */\n    tag_435:\n        /* \"#utility.yul\":10206:10286   */\n      tag_437\n        /* \"#utility.yul\":10278:10285   */\n      dup10\n        /* \"#utility.yul\":10269:10275   */\n      dup3\n        /* \"#utility.yul\":10258:10267   */\n      dup11\n        /* \"#utility.yul\":10254:10276   */\n      add\n        /* \"#utility.yul\":10206:10286   */\n      tag_282\n      jump\t// in\n    tag_437:\n        /* \"#utility.yul\":10188:10286   */\n      swap5\n      pop\n      swap5\n      pop\n        /* \"#utility.yul\":9983:10296   */\n      pop\n        /* \"#utility.yul\":10363:10365   */\n      0x40\n        /* \"#utility.yul\":10352:10361   */\n      dup8\n        /* \"#utility.yul\":10348:10366   */\n      add\n        /* \"#utility.yul\":10335:10367   */\n      calldataload\n        /* \"#utility.yul\":10394:10412   */\n      0xffffffffffffffff\n        /* \"#utility.yul\":10386:10392   */\n      dup2\n        /* \"#utility.yul\":10383:10413   */\n      gt\n        /* \"#utility.yul\":10380:10497   */\n      iszero\n      tag_438\n      jumpi\n        /* \"#utility.yul\":10416:10495   */\n      tag_439\n      tag_259\n      jump\t// in\n    tag_439:\n        /* \"#utility.yul\":10380:10497   */\n    tag_438:\n        /* \"#utility.yul\":10529:10609   */\n      tag_440\n        /* \"#utility.yul\":10601:10608   */\n      dup10\n        /* \"#utility.yul\":10592:10598   */\n      dup3\n        /* \"#utility.yul\":10581:10590   */\n      dup11\n        /* \"#utility.yul\":10577:10599   */\n      add\n        /* \"#utility.yul\":10529:10609   */\n      tag_282\n      jump\t// in\n    tag_440:\n        /* \"#utility.yul\":10511:10609   */\n      swap3\n      pop\n      swap3\n      pop\n        /* \"#utility.yul\":10306:10619   */\n      pop\n        /* \"#utility.yul\":9317:10626   */\n      swap3\n      swap6\n      pop\n      swap3\n      swap6\n      pop\n      swap3\n      swap6\n      jump\t// out\n        /* \"#utility.yul\":10632:10746   */\n    tag_283:\n        /* \"#utility.yul\":10699:10705   */\n      0x00\n        /* \"#utility.yul\":10733:10738   */\n      dup2\n        /* \"#utility.yul\":10727:10739   */\n      mload\n        /* \"#utility.yul\":10717:10739   */\n      swap1\n      pop\n        /* \"#utility.yul\":10632:10746   */\n      swap2\n      swap1\n      pop\n      jump\t// out\n        /* \"#utility.yul\":10752:10936   */\n    tag_284:\n        /* \"#utility.yul\":10851:10862   */\n      0x00\n        /* \"#utility.yul\":10885:10891   */\n      dup3\n        /* \"#utility.yul\":10880:10883   */\n      dup3\n        /* \"#utility.yul\":10873:10892   */\n      mstore\n        /* \"#utility.yul\":10925:10929   */\n      0x20\n        /* \"#utility.yul\":10920:10923   */\n      dup3\n        /* \"#utility.yul\":10916:10930   */\n      add\n        /* \"#utility.yul\":10901:10930   */\n      swap1\n      pop\n        /* \"#utility.yul\":10752:10936   */\n      swap3\n      swap2\n      pop\n      pop\n      jump\t// out\n        /* \"#utility.yul\":10942:11074   */\n    tag_285:\n        /* \"#utility.yul\":11009:11013   */\n      0x00\n        /* \"#utility.yul\":11032:11035   */\n      dup2\n        /* \"#utility.yul\":11024:11035   */\n      swap1\n      pop\n        /* \"#utility.yul\":11062:11066   */\n      0x20\n        /* \"#utility.yul\":11057:11060   */\n      dup3\n        /* \"#utility.yul\":11053:11067   */\n      add\n        /* \"#utility.yul\":11045:11067   */\n      swap1\n      pop\n        /* \"#utility.yul\":10942:11074   */\n      swap2\n      swap1\n      pop\n      jump\t// out\n        /* \"#utility.yul\":11080:11188   */\n    tag_286:\n        /* \"#utility.yul\":11157:11181   */\n      tag_445\n        /* \"#utility.yul\":11175:11180   */\n      dup2\n        /* \"#utility.yul\":11157:11181   */\n      tag_264\n      jump\t// in\n    tag_445:\n        /* \"#utility.yul\":11152:11155   */\n      dup3\n        /* \"#utility.yul\":11145:11182   */\n      mstore\n        /* \"#utility.yul\":11080:11188   */\n      pop\n      pop\n      jump\t// out\n        /* \"#utility.yul\":11194:11373   */\n    tag_287:\n        /* \"#utility.yul\":11263:11273   */\n      0x00\n        /* \"#utility.yul\":11284:11330   */\n      tag_447\n        /* \"#utility.yul\":11326:11329   */\n      dup4\n        /* \"#utility.yul\":11318:11324   */\n      dup4\n        /* \"#utility.yul\":11284:11330   */\n      tag_286\n      jump\t// in\n    tag_447:\n        /* \"#utility.yul\":11362:11366   */\n      0x20\n        /* \"#utility.yul\":11357:11360   */\n      dup4\n        /* \"#utility.yul\":11353:11367   */\n      add\n        /* \"#utility.yul\":11339:11367   */\n      swap1\n      pop\n        /* \"#utility.yul\":11194:11373   */\n      swap3\n      swap2\n      pop\n      pop\n      jump\t// out\n        /* \"#utility.yul\":11379:11492   */\n    tag_288:\n        /* \"#utility.yul\":11449:11453   */\n      0x00\n        /* \"#utility.yul\":11481:11485   */\n      0x20\n        /* \"#utility.yul\":11476:11479   */\n      dup3\n        /* \"#utility.yul\":11472:11486   */\n      add\n        /* \"#utility.yul\":11464:11486   */\n      swap1\n      pop\n        /* \"#utility.yul\":11379:11492   */\n      swap2\n      swap1\n      pop\n      jump\t// out\n        /* \"#utility.yul\":11528:12260   */\n    tag_289:\n        /* \"#utility.yul\":11647:11650   */\n      0x00\n        /* \"#utility.yul\":11676:11730   */\n      tag_450\n        /* \"#utility.yul\":11724:11729   */\n      dup3\n        /* \"#utility.yul\":11676:11730   */\n      tag_283\n      jump\t// in\n    tag_450:\n        /* \"#utility.yul\":11746:11832   */\n      tag_451\n        /* \"#utility.yul\":11825:11831   */\n      dup2\n        /* \"#utility.yul\":11820:11823   */\n      dup6\n        /* \"#utility.yul\":11746:11832   */\n      tag_284\n      jump\t// in\n    tag_451:\n        /* \"#utility.yul\":11739:11832   */\n      swap4\n      pop\n        /* \"#utility.yul\":11856:11912   */\n      tag_452\n        /* \"#utility.yul\":11906:11911   */\n      dup4\n        /* \"#utility.yul\":11856:11912   */\n      tag_285\n      jump\t// in\n    tag_452:\n        /* \"#utility.yul\":11935:11942   */\n      dup1\n        /* \"#utility.yul\":11966:11967   */\n      0x00\n        /* \"#utility.yul\":11951:12235   */\n    tag_453:\n        /* \"#utility.yul\":11976:11982   */\n      dup4\n        /* \"#utility.yul\":11973:11974   */\n      dup2\n        /* \"#utility.yul\":11970:11983   */\n      lt\n        /* \"#utility.yul\":11951:12235   */\n      iszero\n      tag_455\n      jumpi\n        /* \"#utility.yul\":12052:12058   */\n      dup2\n        /* \"#utility.yul\":12046:12059   */\n      mload\n        /* \"#utility.yul\":12079:12142   */\n      tag_456\n        /* \"#utility.yul\":12138:12141   */\n      dup9\n        /* \"#utility.yul\":12123:12136   */\n      dup3\n        /* \"#utility.yul\":12079:12142   */\n      tag_287\n      jump\t// in\n    tag_456:\n        /* \"#utility.yul\":12072:12142   */\n      swap8\n      pop\n        /* \"#utility.yul\":12165:12225   */\n      tag_457\n        /* \"#utility.yul\":12218:12224   */\n      dup4\n        /* \"#utility.yul\":12165:12225   */\n      tag_288\n      jump\t// in\n    tag_457:\n        /* \"#utility.yul\":12155:12225   */\n      swap3\n      pop\n        /* \"#utility.yul\":12011:12235   */\n      pop\n        /* \"#utility.yul\":11998:11999   */\n      0x01\n        /* \"#utility.yul\":11995:11996   */\n      dup2\n        /* \"#utility.yul\":11991:12000   */\n      add\n        /* \"#utility.yul\":11986:12000   */\n      swap1\n      pop\n        /* \"#utility.yul\":11951:12235   */\n      jump(tag_453)\n    tag_455:\n        /* \"#utility.yul\":11955:11969   */\n      pop\n        /* \"#utility.yul\":12251:12254   */\n      dup6\n        /* \"#utility.yul\":12244:12254   */\n      swap4\n      pop\n        /* \"#utility.yul\":11652:12260   */\n      pop\n      pop\n      pop\n        /* \"#utility.yul\":11528:12260   */\n      swap3\n      swap2\n      pop\n      pop\n      jump\t// out\n        /* \"#utility.yul\":12266:12639   */\n    tag_45:\n        /* \"#utility.yul\":12409:12413   */\n      0x00\n        /* \"#utility.yul\":12447:12449   */\n      0x20\n        /* \"#utility.yul\":12436:12445   */\n      dup3\n        /* \"#utility.yul\":12432:12450   */\n      add\n        /* \"#utility.yul\":12424:12450   */\n      swap1\n      pop\n        /* \"#utility.yul\":12496:12505   */\n      dup2\n        /* \"#utility.yul\":12490:12494   */\n      dup2\n        /* \"#utility.yul\":12486:12506   */\n      sub\n        /* \"#utility.yul\":12482:12483   */\n      0x00\n        /* \"#utility.yul\":12471:12480   */\n      dup4\n        /* \"#utility.yul\":12467:12484   */\n      add\n        /* \"#utility.yul\":12460:12507   */\n      mstore\n        /* \"#utility.yul\":12524:12632   */\n      tag_459\n        /* \"#utility.yul\":12627:12631   */\n      dup2\n        /* \"#utility.yul\":12618:12624   */\n      dup5\n        /* \"#utility.yul\":12524:12632   */\n      tag_289\n      jump\t// in\n    tag_459:\n        /* \"#utility.yul\":12516:12632   */\n      swap1\n      pop\n        /* \"#utility.yul\":12266:12639   */\n      swap3\n      swap2\n      pop\n      pop\n      jump\t// out\n        /* \"#utility.yul\":12658:13210   */\n    tag_290:\n        /* \"#utility.yul\":12715:12723   */\n      0x00\n        /* \"#utility.yul\":12725:12731   */\n      dup1\n        /* \"#utility.yul\":12775:12778   */\n      dup4\n        /* \"#utility.yul\":12768:12772   */\n      0x1f\n        /* \"#utility.yul\":12760:12766   */\n      dup5\n        /* \"#utility.yul\":12756:12773   */\n      add\n        /* \"#utility.yul\":12752:12779   */\n      slt\n        /* \"#utility.yul\":12742:12864   */\n      tag_461\n      jumpi\n        /* \"#utility.yul\":12783:12862   */\n      tag_462\n      tag_270\n      jump\t// in\n    tag_462:\n        /* \"#utility.yul\":12742:12864   */\n    tag_461:\n        /* \"#utility.yul\":12896:12902   */\n      dup3\n        /* \"#utility.yul\":12883:12903   */\n      calldataload\n        /* \"#utility.yul\":12873:12903   */\n      swap1\n      pop\n        /* \"#utility.yul\":12926:12944   */\n      0xffffffffffffffff\n        /* \"#utility.yul\":12918:12924   */\n      dup2\n        /* \"#utility.yul\":12915:12945   */\n      gt\n        /* \"#utility.yul\":12912:13029   */\n      iszero\n      tag_463\n      jumpi\n        /* \"#utility.yul\":12948:13027   */\n      tag_464\n      tag_279\n      jump\t// in\n    tag_464:\n        /* \"#utility.yul\":12912:13029   */\n    tag_463:\n        /* \"#utility.yul\":13062:13066   */\n      0x20\n        /* \"#utility.yul\":13054:13060   */\n      dup4\n        /* \"#utility.yul\":13050:13067   */\n      add\n        /* \"#utility.yul\":13038:13067   */\n      swap2\n      pop\n        /* \"#utility.yul\":13116:13119   */\n      dup4\n        /* \"#utility.yul\":13108:13112   */\n      0x01\n        /* \"#utility.yul\":13100:13106   */\n      dup3\n        /* \"#utility.yul\":13096:13113   */\n      mul\n        /* \"#utility.yul\":13086:13094   */\n      dup4\n        /* \"#utility.yul\":13082:13114   */\n      add\n        /* \"#utility.yul\":13079:13120   */\n      gt\n        /* \"#utility.yul\":13076:13204   */\n      iszero\n      tag_465\n      jumpi\n        /* \"#utility.yul\":13123:13202   */\n      tag_466\n      tag_280\n      jump\t// in\n    tag_466:\n        /* \"#utility.yul\":13076:13204   */\n    tag_465:\n        /* \"#utility.yul\":12658:13210   */\n      swap3\n      pop\n      swap3\n      swap1\n      pop\n      jump\t// out\n        /* \"#utility.yul\":13216:15161   */\n    tag_48:\n        /* \"#utility.yul\":13412:13418   */\n      0x00\n        /* \"#utility.yul\":13420:13426   */\n      dup1\n        /* \"#utility.yul\":13428:13434   */\n      0x00\n        /* \"#utility.yul\":13436:13442   */\n      dup1\n        /* \"#utility.yul\":13444:13450   */\n      0x00\n        /* \"#utility.yul\":13452:13458   */\n      dup1\n        /* \"#utility.yul\":13460:13466   */\n      0x00\n        /* \"#utility.yul\":13468:13474   */\n      dup1\n        /* \"#utility.yul\":13476:13482   */\n      0x00\n        /* \"#utility.yul\":13484:13490   */\n      dup1\n        /* \"#utility.yul\":13533:13536   */\n      0xc0\n        /* \"#utility.yul\":13521:13530   */\n      dup12\n        /* \"#utility.yul\":13512:13519   */\n      dup14\n        /* \"#utility.yul\":13508:13531   */\n      sub\n        /* \"#utility.yul\":13504:13537   */\n      slt\n        /* \"#utility.yul\":13501:13621   */\n      iszero\n      tag_468\n      jumpi\n        /* \"#utility.yul\":13540:13619   */\n      tag_469\n      tag_258\n      jump\t// in\n    tag_469:\n        /* \"#utility.yul\":13501:13621   */\n    tag_468:\n        /* \"#utility.yul\":13660:13661   */\n      0x00\n        /* \"#utility.yul\":13685:13738   */\n      tag_470\n        /* \"#utility.yul\":13730:13737   */\n      dup14\n        /* \"#utility.yul\":13721:13727   */\n      dup3\n        /* \"#utility.yul\":13710:13719   */\n      dup15\n        /* \"#utility.yul\":13706:13728   */\n      add\n        /* \"#utility.yul\":13685:13738   */\n      tag_263\n      jump\t// in\n    tag_470:\n        /* \"#utility.yul\":13675:13738   */\n      swap11\n      pop\n        /* \"#utility.yul\":13631:13748   */\n      pop\n        /* \"#utility.yul\":13787:13789   */\n      0x20\n        /* \"#utility.yul\":13813:13866   */\n      tag_471\n        /* \"#utility.yul\":13858:13865   */\n      dup14\n        /* \"#utility.yul\":13849:13855   */\n      dup3\n        /* \"#utility.yul\":13838:13847   */\n      dup15\n        /* \"#utility.yul\":13834:13856   */\n      add\n        /* \"#utility.yul\":13813:13866   */\n      tag_263\n      jump\t// in\n    tag_471:\n        /* \"#utility.yul\":13803:13866   */\n      swap10\n      pop\n        /* \"#utility.yul\":13758:13876   */\n      pop\n        /* \"#utility.yul\":13943:13945   */\n      0x40\n        /* \"#utility.yul\":13932:13941   */\n      dup12\n        /* \"#utility.yul\":13928:13946   */\n      add\n        /* \"#utility.yul\":13915:13947   */\n      calldataload\n        /* \"#utility.yul\":13974:13992   */\n      0xffffffffffffffff\n        /* \"#utility.yul\":13966:13972   */\n      dup2\n        /* \"#utility.yul\":13963:13993   */\n      gt\n        /* \"#utility.yul\":13960:14077   */\n      iszero\n      tag_472\n      jumpi\n        /* \"#utility.yul\":13996:14075   */\n      tag_473\n      tag_259\n      jump\t// in\n    tag_473:\n        /* \"#utility.yul\":13960:14077   */\n    tag_472:\n        /* \"#utility.yul\":14109:14189   */\n      tag_474\n        /* \"#utility.yul\":14181:14188   */\n      dup14\n        /* \"#utility.yul\":14172:14178   */\n      dup3\n        /* \"#utility.yul\":14161:14170   */\n      dup15\n        /* \"#utility.yul\":14157:14179   */\n      add\n        /* \"#utility.yul\":14109:14189   */\n      tag_282\n      jump\t// in\n    tag_474:\n        /* \"#utility.yul\":14091:14189   */\n      swap9\n      pop\n      swap9\n      pop\n        /* \"#utility.yul\":13886:14199   */\n      pop\n        /* \"#utility.yul\":14266:14268   */\n      0x60\n        /* \"#utility.yul\":14255:14264   */\n      dup12\n        /* \"#utility.yul\":14251:14269   */\n      add\n        /* \"#utility.yul\":14238:14270   */\n      calldataload\n        /* \"#utility.yul\":14297:14315   */\n      0xffffffffffffffff\n        /* \"#utility.yul\":14289:14295   */\n      dup2\n        /* \"#utility.yul\":14286:14316   */\n      gt\n        /* \"#utility.yul\":14283:14400   */\n      iszero\n      tag_475\n      jumpi\n        /* \"#utility.yul\":14319:14398   */\n      tag_476\n      tag_259\n      jump\t// in\n    tag_476:\n        /* \"#utility.yul\":14283:14400   */\n    tag_475:\n        /* \"#utility.yul\":14432:14512   */\n      tag_477\n        /* \"#utility.yul\":14504:14511   */\n      dup14\n        /* \"#utility.yul\":14495:14501   */\n      dup3\n        /* \"#utility.yul\":14484:14493   */\n      dup15\n        /* \"#utility.yul\":14480:14502   */\n      add\n        /* \"#utility.yul\":14432:14512   */\n      tag_282\n      jump\t// in\n    tag_477:\n        /* \"#utility.yul\":14414:14512   */\n      swap7\n      pop\n      swap7\n      pop\n        /* \"#utility.yul\":14209:14522   */\n      pop\n        /* \"#utility.yul\":14589:14592   */\n      0x80\n        /* \"#utility.yul\":14578:14587   */\n      dup12\n        /* \"#utility.yul\":14574:14593   */\n      add\n        /* \"#utility.yul\":14561:14594   */\n      calldataload\n        /* \"#utility.yul\":14621:14639   */\n      0xffffffffffffffff\n        /* \"#utility.yul\":14613:14619   */\n      dup2\n        /* \"#utility.yul\":14610:14640   */\n      gt\n        /* \"#utility.yul\":14607:14724   */\n      iszero\n      tag_478\n      jumpi\n        /* \"#utility.yul\":14643:14722   */\n      tag_479\n      tag_259\n      jump\t// in\n    tag_479:\n        /* \"#utility.yul\":14607:14724   */\n    tag_478:\n        /* \"#utility.yul\":14756:14836   */\n      tag_480\n        /* \"#utility.yul\":14828:14835   */\n      dup14\n        /* \"#utility.yul\":14819:14825   */\n      dup3\n        /* \"#utility.yul\":14808:14817   */\n      dup15\n        /* \"#utility.yul\":14804:14826   */\n      add\n        /* \"#utility.yul\":14756:14836   */\n      tag_282\n      jump\t// in\n    tag_480:\n        /* \"#utility.yul\":14738:14836   */\n      swap5\n      pop\n      swap5\n      pop\n        /* \"#utility.yul\":14532:14846   */\n      pop\n        /* \"#utility.yul\":14913:14916   */\n      0xa0\n        /* \"#utility.yul\":14902:14911   */\n      dup12\n        /* \"#utility.yul\":14898:14917   */\n      add\n        /* \"#utility.yul\":14885:14918   */\n      calldataload\n        /* \"#utility.yul\":14945:14963   */\n      0xffffffffffffffff\n        /* \"#utility.yul\":14937:14943   */\n      dup2\n        /* \"#utility.yul\":14934:14964   */\n      gt\n        /* \"#utility.yul\":14931:15048   */\n      iszero\n      tag_481\n      jumpi\n        /* \"#utility.yul\":14967:15046   */\n      tag_482\n      tag_259\n      jump\t// in\n    tag_482:\n        /* \"#utility.yul\":14931:15048   */\n    tag_481:\n        /* \"#utility.yul\":15080:15144   */\n      tag_483\n        /* \"#utility.yul\":15136:15143   */\n      dup14\n        /* \"#utility.yul\":15127:15133   */\n      dup3\n        /* \"#utility.yul\":15116:15125   */\n      dup15\n        /* \"#utility.yul\":15112:15134   */\n      add\n        /* \"#utility.yul\":15080:15144   */\n      tag_290\n      jump\t// in\n    tag_483:\n        /* \"#utility.yul\":15062:15144   */\n      swap3\n      pop\n      swap3\n      pop\n        /* \"#utility.yul\":14856:15154   */\n      pop\n        /* \"#utility.yul\":13216:15161   */\n      swap3\n      swap6\n      swap9\n      swap12\n      swap2\n      swap5\n      swap8\n      swap11\n      pop\n      swap3\n      swap6\n      swap9\n      pop\n      jump\t// out\n        /* \"#utility.yul\":15167:15786   */\n    tag_53:\n        /* \"#utility.yul\":15244:15250   */\n      0x00\n        /* \"#utility.yul\":15252:15258   */\n      dup1\n        /* \"#utility.yul\":15260:15266   */\n      0x00\n        /* \"#utility.yul\":15309:15311   */\n      0x60\n        /* \"#utility.yul\":15297:15306   */\n      dup5\n        /* \"#utility.yul\":15288:15295   */\n      dup7\n        /* \"#utility.yul\":15284:15307   */\n      sub\n        /* \"#utility.yul\":15280:15312   */\n      slt\n        /* \"#utility.yul\":15277:15396   */\n      iszero\n      tag_485\n      jumpi\n        /* \"#utility.yul\":15315:15394   */\n      tag_486\n      tag_258\n      jump\t// in\n    tag_486:\n        /* \"#utility.yul\":15277:15396   */\n    tag_485:\n        /* \"#utility.yul\":15435:15436   */\n      0x00\n        /* \"#utility.yul\":15460:15513   */\n      tag_487\n        /* \"#utility.yul\":15505:15512   */\n      dup7\n        /* \"#utility.yul\":15496:15502   */\n      dup3\n        /* \"#utility.yul\":15485:15494   */\n      dup8\n        /* \"#utility.yul\":15481:15503   */\n      add\n        /* \"#utility.yul\":15460:15513   */\n      tag_263\n      jump\t// in\n    tag_487:\n        /* \"#utility.yul\":15450:15513   */\n      swap4\n      pop\n        /* \"#utility.yul\":15406:15523   */\n      pop\n        /* \"#utility.yul\":15562:15564   */\n      0x20\n        /* \"#utility.yul\":15588:15641   */\n      tag_488\n        /* \"#utility.yul\":15633:15640   */\n      dup7\n        /* \"#utility.yul\":15624:15630   */\n      dup3\n        /* \"#utility.yul\":15613:15622   */\n      dup8\n        /* \"#utility.yul\":15609:15631   */\n      add\n        /* \"#utility.yul\":15588:15641   */\n      tag_266\n      jump\t// in\n    tag_488:\n        /* \"#utility.yul\":15578:15641   */\n      swap3\n      pop\n        /* \"#utility.yul\":15533:15651   */\n      pop\n        /* \"#utility.yul\":15690:15692   */\n      0x40\n        /* \"#utility.yul\":15716:15769   */\n      tag_489\n        /* \"#utility.yul\":15761:15768   */\n      dup7\n        /* \"#utility.yul\":15752:15758   */\n      dup3\n        /* \"#utility.yul\":15741:15750   */\n      dup8\n        /* \"#utility.yul\":15737:15759   */\n      add\n        /* \"#utility.yul\":15716:15769   */\n      tag_266\n      jump\t// in\n    tag_489:\n        /* \"#utility.yul\":15706:15769   */\n      swap2\n      pop\n        /* \"#utility.yul\":15661:15779   */\n      pop\n        /* \"#utility.yul\":15167:15786   */\n      swap3\n      pop\n      swap3\n      pop\n      swap3\n      jump\t// out\n        /* \"#utility.yul\":15792:15908   */\n    tag_291:\n        /* \"#utility.yul\":15862:15883   */\n      tag_491\n        /* \"#utility.yul\":15877:15882   */\n      dup2\n        /* \"#utility.yul\":15862:15883   */\n      tag_267\n      jump\t// in\n    tag_491:\n        /* \"#utility.yul\":15855:15860   */\n      dup2\n        /* \"#utility.yul\":15852:15884   */\n      eq\n        /* \"#utility.yul\":15842:15902   */\n      tag_492\n      jumpi\n        /* \"#utility.yul\":15898:15899   */\n      0x00\n        /* \"#utility.yul\":15895:15896   */\n      dup1\n        /* \"#utility.yul\":15888:15900   */\n      revert\n        /* \"#utility.yul\":15842:15902   */\n    tag_492:\n        /* \"#utility.yul\":15792:15908   */\n      pop\n      jump\t// out\n        /* \"#utility.yul\":15914:16047   */\n    tag_292:\n        /* \"#utility.yul\":15957:15962   */\n      0x00\n        /* \"#utility.yul\":15995:16001   */\n      dup2\n        /* \"#utility.yul\":15982:16002   */\n      calldataload\n        /* \"#utility.yul\":15973:16002   */\n      swap1\n      pop\n        /* \"#utility.yul\":16011:16041   */\n      tag_494\n        /* \"#utility.yul\":16035:16040   */\n      dup2\n        /* \"#utility.yul\":16011:16041   */\n      tag_291\n      jump\t// in\n    tag_494:\n        /* \"#utility.yul\":15914:16047   */\n      swap3\n      swap2\n      pop\n      pop\n      jump\t// out\n        /* \"#utility.yul\":16053:16521   */\n    tag_58:\n        /* \"#utility.yul\":16118:16124   */\n      0x00\n        /* \"#utility.yul\":16126:16132   */\n      dup1\n        /* \"#utility.yul\":16175:16177   */\n      0x40\n        /* \"#utility.yul\":16163:16172   */\n      dup4\n        /* \"#utility.yul\":16154:16161   */\n      dup6\n        /* \"#utility.yul\":16150:16173   */\n      sub\n        /* \"#utility.yul\":16146:16178   */\n      slt\n        /* \"#utility.yul\":16143:16262   */\n      iszero\n      tag_496\n      jumpi\n        /* \"#utility.yul\":16181:16260   */\n      tag_497\n      tag_258\n      jump\t// in\n    tag_497:\n        /* \"#utility.yul\":16143:16262   */\n    tag_496:\n        /* \"#utility.yul\":16301:16302   */\n      0x00\n        /* \"#utility.yul\":16326:16379   */\n      tag_498\n        /* \"#utility.yul\":16371:16378   */\n      dup6\n        /* \"#utility.yul\":16362:16368   */\n      dup3\n        /* \"#utility.yul\":16351:16360   */\n      dup7\n        /* \"#utility.yul\":16347:16369   */\n      add\n        /* \"#utility.yul\":16326:16379   */\n      tag_263\n      jump\t// in\n    tag_498:\n        /* \"#utility.yul\":16316:16379   */\n      swap3\n      pop\n        /* \"#utility.yul\":16272:16389   */\n      pop\n        /* \"#utility.yul\":16428:16430   */\n      0x20\n        /* \"#utility.yul\":16454:16504   */\n      tag_499\n        /* \"#utility.yul\":16496:16503   */\n      dup6\n        /* \"#utility.yul\":16487:16493   */\n      dup3\n        /* \"#utility.yul\":16476:16485   */\n      dup7\n        /* \"#utility.yul\":16472:16494   */\n      add\n        /* \"#utility.yul\":16454:16504   */\n      tag_292\n      jump\t// in\n    tag_499:\n        /* \"#utility.yul\":16444:16504   */\n      swap2\n      pop\n        /* \"#utility.yul\":16399:16514   */\n      pop\n        /* \"#utility.yul\":16053:16521   */\n      swap3\n      pop\n      swap3\n      swap1\n      pop\n      jump\t// out\n        /* \"#utility.yul\":16527:17001   */\n    tag_62:\n        /* \"#utility.yul\":16595:16601   */\n      0x00\n        /* \"#utility.yul\":16603:16609   */\n      dup1\n        /* \"#utility.yul\":16652:16654   */\n      0x40\n        /* \"#utility.yul\":16640:16649   */\n      dup4\n        /* \"#utility.yul\":16631:16638   */\n      dup6\n        /* \"#utility.yul\":16627:16650   */\n      sub\n        /* \"#utility.yul\":16623:16655   */\n      slt\n        /* \"#utility.yul\":16620:16739   */\n      iszero\n      tag_501\n      jumpi\n        /* \"#utility.yul\":16658:16737   */\n      tag_502\n      tag_258\n      jump\t// in\n    tag_502:\n        /* \"#utility.yul\":16620:16739   */\n    tag_501:\n        /* \"#utility.yul\":16778:16779   */\n      0x00\n        /* \"#utility.yul\":16803:16856   */\n      tag_503\n        /* \"#utility.yul\":16848:16855   */\n      dup6\n        /* \"#utility.yul\":16839:16845   */\n      dup3\n        /* \"#utility.yul\":16828:16837   */\n      dup7\n        /* \"#utility.yul\":16824:16846   */\n      add\n        /* \"#utility.yul\":16803:16856   */\n      tag_263\n      jump\t// in\n    tag_503:\n        /* \"#utility.yul\":16793:16856   */\n      swap3\n      pop\n        /* \"#utility.yul\":16749:16866   */\n      pop\n        /* \"#utility.yul\":16905:16907   */\n      0x20\n        /* \"#utility.yul\":16931:16984   */\n      tag_504\n        /* \"#utility.yul\":16976:16983   */\n      dup6\n        /* \"#utility.yul\":16967:16973   */\n      dup3\n        /* \"#utility.yul\":16956:16965   */\n      dup7\n        /* \"#utility.yul\":16952:16974   */\n      add\n        /* \"#utility.yul\":16931:16984   */\n      tag_263\n      jump\t// in\n    tag_504:\n        /* \"#utility.yul\":16921:16984   */\n      swap2\n      pop\n        /* \"#utility.yul\":16876:16994   */\n      pop\n        /* \"#utility.yul\":16527:17001   */\n      swap3\n      pop\n      swap3\n      swap1\n      pop\n      jump\t// out\n        /* \"#utility.yul\":17007:17176   */\n    tag_293:\n        /* \"#utility.yul\":17091:17102   */\n      0x00\n        /* \"#utility.yul\":17125:17131   */\n      dup3\n        /* \"#utility.yul\":17120:17123   */\n      dup3\n        /* \"#utility.yul\":17113:17132   */\n      mstore\n        /* \"#utility.yul\":17165:17169   */\n      0x20\n        /* \"#utility.yul\":17160:17163   */\n      dup3\n        /* \"#utility.yul\":17156:17170   */\n      add\n        /* \"#utility.yul\":17141:17170   */\n      swap1\n      pop\n        /* \"#utility.yul\":17007:17176   */\n      swap3\n      swap2\n      pop\n      pop\n      jump\t// out\n        /* \"#utility.yul\":17182:17362   */\n    tag_294:\n        /* \"#utility.yul\":17322:17354   */\n      0x444c543a20617070726f76616c20746f2063757272656e74206f776e65720000\n        /* \"#utility.yul\":17318:17319   */\n      0x00\n        /* \"#utility.yul\":17310:17316   */\n      dup3\n        /* \"#utility.yul\":17306:17320   */\n      add\n        /* \"#utility.yul\":17299:17355   */\n      mstore\n        /* \"#utility.yul\":17182:17362   */\n      pop\n      jump\t// out\n        /* \"#utility.yul\":17368:17734   */\n    tag_295:\n        /* \"#utility.yul\":17510:17513   */\n      0x00\n        /* \"#utility.yul\":17531:17598   */\n      tag_508\n        /* \"#utility.yul\":17595:17597   */\n      0x1e\n        /* \"#utility.yul\":17590:17593   */\n      dup4\n        /* \"#utility.yul\":17531:17598   */\n      tag_293\n      jump\t// in\n    tag_508:\n        /* \"#utility.yul\":17524:17598   */\n      swap2\n      pop\n        /* \"#utility.yul\":17607:17700   */\n      tag_509\n        /* \"#utility.yul\":17696:17699   */\n      dup3\n        /* \"#utility.yul\":17607:17700   */\n      tag_294\n      jump\t// in\n    tag_509:\n        /* \"#utility.yul\":17725:17727   */\n      0x20\n        /* \"#utility.yul\":17720:17723   */\n      dup3\n        /* \"#utility.yul\":17716:17728   */\n      add\n        /* \"#utility.yul\":17709:17728   */\n      swap1\n      pop\n        /* \"#utility.yul\":17368:17734   */\n      swap2\n      swap1\n      pop\n      jump\t// out\n        /* \"#utility.yul\":17740:18159   */\n    tag_81:\n        /* \"#utility.yul\":17906:17910   */\n      0x00\n        /* \"#utility.yul\":17944:17946   */\n      0x20\n        /* \"#utility.yul\":17933:17942   */\n      dup3\n        /* \"#utility.yul\":17929:17947   */\n      add\n        /* \"#utility.yul\":17921:17947   */\n      swap1\n      pop\n        /* \"#utility.yul\":17993:18002   */\n      dup2\n        /* \"#utility.yul\":17987:17991   */\n      dup2\n        /* \"#utility.yul\":17983:18003   */\n      sub\n        /* \"#utility.yul\":17979:17980   */\n      0x00\n        /* \"#utility.yul\":17968:17977   */\n      dup4\n        /* \"#utility.yul\":17964:17981   */\n      add\n        /* \"#utility.yul\":17957:18004   */\n      mstore\n        /* \"#utility.yul\":18021:18152   */\n      tag_511\n        /* \"#utility.yul\":18147:18151   */\n      dup2\n        /* \"#utility.yul\":18021:18152   */\n      tag_295\n      jump\t// in\n    tag_511:\n        /* \"#utility.yul\":18013:18152   */\n      swap1\n      pop\n        /* \"#utility.yul\":17740:18159   */\n      swap2\n      swap1\n      pop\n      jump\t// out\n        /* \"#utility.yul\":18165:18398   */\n    tag_296:\n        /* \"#utility.yul\":18305:18339   */\n      0x444c543a206163636f756e74732c206d61696e49647320616e6420696473206c\n        /* \"#utility.yul\":18301:18302   */\n      0x00\n        /* \"#utility.yul\":18293:18299   */\n      dup3\n        /* \"#utility.yul\":18289:18303   */\n      add\n        /* \"#utility.yul\":18282:18340   */\n      mstore\n        /* \"#utility.yul\":18374:18390   */\n      0x656e677468206d69736d61746368000000000000000000000000000000000000\n        /* \"#utility.yul\":18369:18371   */\n      0x20\n        /* \"#utility.yul\":18361:18367   */\n      dup3\n        /* \"#utility.yul\":18357:18372   */\n      add\n        /* \"#utility.yul\":18350:18391   */\n      mstore\n        /* \"#utility.yul\":18165:18398   */\n      pop\n      jump\t// out\n        /* \"#utility.yul\":18404:18770   */\n    tag_297:\n        /* \"#utility.yul\":18546:18549   */\n      0x00\n        /* \"#utility.yul\":18567:18634   */\n      tag_514\n        /* \"#utility.yul\":18631:18633   */\n      0x2e\n        /* \"#utility.yul\":18626:18629   */\n      dup4\n        /* \"#utility.yul\":18567:18634   */\n      tag_293\n      jump\t// in\n    tag_514:\n        /* \"#utility.yul\":18560:18634   */\n      swap2\n      pop\n        /* \"#utility.yul\":18643:18736   */\n      tag_515\n        /* \"#utility.yul\":18732:18735   */\n      dup3\n        /* \"#utility.yul\":18643:18736   */\n      tag_296\n      jump\t// in\n    tag_515:\n        /* \"#utility.yul\":18761:18763   */\n      0x40\n        /* \"#utility.yul\":18756:18759   */\n      dup3\n        /* \"#utility.yul\":18752:18764   */\n      add\n        /* \"#utility.yul\":18745:18764   */\n      swap1\n      pop\n        /* \"#utility.yul\":18404:18770   */\n      swap2\n      swap1\n      pop\n      jump\t// out\n        /* \"#utility.yul\":18776:19195   */\n    tag_88:\n        /* \"#utility.yul\":18942:18946   */\n      0x00\n        /* \"#utility.yul\":18980:18982   */\n      0x20\n        /* \"#utility.yul\":18969:18978   */\n      dup3\n        /* \"#utility.yul\":18965:18983   */\n      add\n        /* \"#utility.yul\":18957:18983   */\n      swap1\n      pop\n        /* \"#utility.yul\":19029:19038   */\n      dup2\n        /* \"#utility.yul\":19023:19027   */\n      dup2\n        /* \"#utility.yul\":19019:19039   */\n      sub\n        /* \"#utility.yul\":19015:19016   */\n      0x00\n        /* \"#utility.yul\":19004:19013   */\n      dup4\n        /* \"#utility.yul\":19000:19017   */\n      add\n        /* \"#utility.yul\":18993:19040   */\n      mstore\n        /* \"#utility.yul\":19057:19188   */\n      tag_517\n        /* \"#utility.yul\":19183:19187   */\n      dup2\n        /* \"#utility.yul\":19057:19188   */\n      tag_297\n      jump\t// in\n    tag_517:\n        /* \"#utility.yul\":19049:19188   */\n      swap1\n      pop\n        /* \"#utility.yul\":18776:19195   */\n      swap2\n      swap1\n      pop\n      jump\t// out\n        /* \"#utility.yul\":19201:19381   */\n    tag_99:\n        /* \"#utility.yul\":19249:19326   */\n      0x4e487b7100000000000000000000000000000000000000000000000000000000\n        /* \"#utility.yul\":19246:19247   */\n      0x00\n        /* \"#utility.yul\":19239:19327   */\n      mstore\n        /* \"#utility.yul\":19346:19350   */\n      0x32\n        /* \"#utility.yul\":19343:19344   */\n      0x04\n        /* \"#utility.yul\":19336:19351   */\n      mstore\n        /* \"#utility.yul\":19370:19374   */\n      0x24\n        /* \"#utility.yul\":19367:19368   */\n      0x00\n        /* \"#utility.yul\":19360:19375   */\n      revert\n        /* \"#utility.yul\":19387:19716   */\n    tag_101:\n        /* \"#utility.yul\":19446:19452   */\n      0x00\n        /* \"#utility.yul\":19495:19497   */\n      0x20\n        /* \"#utility.yul\":19483:19492   */\n      dup3\n        /* \"#utility.yul\":19474:19481   */\n      dup5\n        /* \"#utility.yul\":19470:19493   */\n      sub\n        /* \"#utility.yul\":19466:19498   */\n      slt\n        /* \"#utility.yul\":19463:19582   */\n      iszero\n      tag_520\n      jumpi\n        /* \"#utility.yul\":19501:19580   */\n      tag_521\n      tag_258\n      jump\t// in\n    tag_521:\n        /* \"#utility.yul\":19463:19582   */\n    tag_520:\n        /* \"#utility.yul\":19621:19622   */\n      0x00\n        /* \"#utility.yul\":19646:19699   */\n      tag_522\n        /* \"#utility.yul\":19691:19698   */\n      dup5\n        /* \"#utility.yul\":19682:19688   */\n      dup3\n        /* \"#utility.yul\":19671:19680   */\n      dup6\n        /* \"#utility.yul\":19667:19689   */\n      add\n        /* \"#utility.yul\":19646:19699   */\n      tag_263\n      jump\t// in\n    tag_522:\n        /* \"#utility.yul\":19636:19699   */\n      swap2\n      pop\n        /* \"#utility.yul\":19592:19709   */\n      pop\n        /* \"#utility.yul\":19387:19716   */\n      swap3\n      swap2\n      pop\n      pop\n      jump\t// out\n        /* \"#utility.yul\":19722:19902   */\n    tag_298:\n        /* \"#utility.yul\":19770:19847   */\n      0x4e487b7100000000000000000000000000000000000000000000000000000000\n        /* \"#utility.yul\":19767:19768   */\n      0x00\n        /* \"#utility.yul\":19760:19848   */\n      mstore\n        /* \"#utility.yul\":19867:19871   */\n      0x11\n        /* \"#utility.yul\":19864:19865   */\n      0x04\n        /* \"#utility.yul\":19857:19872   */\n      mstore\n        /* \"#utility.yul\":19891:19895   */\n      0x24\n        /* \"#utility.yul\":19888:19889   */\n      0x00\n        /* \"#utility.yul\":19881:19896   */\n      revert\n        /* \"#utility.yul\":19908:20141   */\n    tag_109:\n        /* \"#utility.yul\":19947:19950   */\n      0x00\n        /* \"#utility.yul\":19970:19994   */\n      tag_525\n        /* \"#utility.yul\":19988:19993   */\n      dup3\n        /* \"#utility.yul\":19970:19994   */\n      tag_264\n      jump\t// in\n    tag_525:\n        /* \"#utility.yul\":19961:19994   */\n      swap2\n      pop\n        /* \"#utility.yul\":20016:20082   */\n      0xffffffffffffffffffffffffffffffffffffffffffffffffffffffffffffffff\n        /* \"#utility.yul\":20009:20014   */\n      dup3\n        /* \"#utility.yul\":20006:20083   */\n      sub\n        /* \"#utility.yul\":20003:20106   */\n      tag_526\n      jumpi\n        /* \"#utility.yul\":20086:20104   */\n      tag_527\n      tag_298\n      jump\t// in\n    tag_527:\n        /* \"#utility.yul\":20003:20106   */\n    tag_526:\n        /* \"#utility.yul\":20133:20134   */\n      0x01\n        /* \"#utility.yul\":20126:20131   */\n      dup3\n        /* \"#utility.yul\":20122:20135   */\n      add\n        /* \"#utility.yul\":20115:20135   */\n      swap1\n      pop\n        /* \"#utility.yul\":19908:20141   */\n      swap2\n      swap1\n      pop\n      jump\t// out\n        /* \"#utility.yul\":20147:20384   */\n    tag_299:\n        /* \"#utility.yul\":20287:20321   */\n      0x444c543a2063616c6c6572206973206e6f7420746f6b656e206f776e6572206f\n        /* \"#utility.yul\":20283:20284   */\n      0x00\n        /* \"#utility.yul\":20275:20281   */\n      dup3\n        /* \"#utility.yul\":20271:20285   */\n      add\n        /* \"#utility.yul\":20264:20322   */\n      mstore\n        /* \"#utility.yul\":20356:20376   */\n      0x7220617070726f76656420666f7220616c6c0000000000000000000000000000\n        /* \"#utility.yul\":20351:20353   */\n      0x20\n        /* \"#utility.yul\":20343:20349   */\n      dup3\n        /* \"#utility.yul\":20339:20354   */\n      add\n        /* \"#utility.yul\":20332:20377   */\n      mstore\n        /* \"#utility.yul\":20147:20384   */\n      pop\n      jump\t// out\n        /* \"#utility.yul\":20390:20756   */\n    tag_300:\n        /* \"#utility.yul\":20532:20535   */\n      0x00\n        /* \"#utility.yul\":20553:20620   */\n      tag_530\n        /* \"#utility.yul\":20617:20619   */\n      0x32\n        /* \"#utility.yul\":20612:20615   */\n      dup4\n        /* \"#utility.yul\":20553:20620   */\n      tag_293\n      jump\t// in\n    tag_530:\n        /* \"#utility.yul\":20546:20620   */\n      swap2\n      pop\n        /* \"#utility.yul\":20629:20722   */\n      tag_531\n        /* \"#utility.yul\":20718:20721   */\n      dup3\n        /* \"#utility.yul\":20629:20722   */\n      tag_299\n      jump\t// in\n    tag_531:\n        /* \"#utility.yul\":20747:20749   */\n      0x40\n        /* \"#utility.yul\":20742:20745   */\n      dup3\n        /* \"#utility.yul\":20738:20750   */\n      add\n        /* \"#utility.yul\":20731:20750   */\n      swap1\n      pop\n        /* \"#utility.yul\":20390:20756   */\n      swap2\n      swap1\n      pop\n      jump\t// out\n        /* \"#utility.yul\":20762:21181   */\n    tag_116:\n        /* \"#utility.yul\":20928:20932   */\n      0x00\n        /* \"#utility.yul\":20966:20968   */\n      0x20\n        /* \"#utility.yul\":20955:20964   */\n      dup3\n        /* \"#utility.yul\":20951:20969   */\n      add\n        /* \"#utility.yul\":20943:20969   */\n      swap1\n      pop\n        /* \"#utility.yul\":21015:21024   */\n      dup2\n        /* \"#utility.yul\":21009:21013   */\n      dup2\n        /* \"#utility.yul\":21005:21025   */\n      sub\n        /* \"#utility.yul\":21001:21002   */\n      0x00\n        /* \"#utility.yul\":20990:20999   */\n      dup4\n        /* \"#utility.yul\":20986:21003   */\n      add\n        /* \"#utility.yul\":20979:21026   */\n      mstore\n        /* \"#utility.yul\":21043:21174   */\n      tag_533\n        /* \"#utility.yul\":21169:21173   */\n      dup2\n        /* \"#utility.yul\":21043:21174   */\n      tag_300\n      jump\t// in\n    tag_533:\n        /* \"#utility.yul\":21035:21174   */\n      swap1\n      pop\n        /* \"#utility.yul\":20762:21181   */\n      swap2\n      swap1\n      pop\n      jump\t// out\n        /* \"#utility.yul\":21187:21408   */\n    tag_301:\n        /* \"#utility.yul\":21327:21361   */\n      0x444c543a20617070726f76652066726f6d20746865207a65726f206164647265\n        /* \"#utility.yul\":21323:21324   */\n      0x00\n        /* \"#utility.yul\":21315:21321   */\n      dup3\n        /* \"#utility.yul\":21311:21325   */\n      add\n        /* \"#utility.yul\":21304:21362   */\n      mstore\n        /* \"#utility.yul\":21396:21400   */\n      0x7373000000000000000000000000000000000000000000000000000000000000\n        /* \"#utility.yul\":21391:21393   */\n      0x20\n        /* \"#utility.yul\":21383:21389   */\n      dup3\n        /* \"#utility.yul\":21379:21394   */\n      add\n        /* \"#utility.yul\":21372:21401   */\n      mstore\n        /* \"#utility.yul\":21187:21408   */\n      pop\n      jump\t// out\n        /* \"#utility.yul\":21414:21780   */\n    tag_302:\n        /* \"#utility.yul\":21556:21559   */\n      0x00\n        /* \"#utility.yul\":21577:21644   */\n      tag_536\n        /* \"#utility.yul\":21641:21643   */\n      0x22\n        /* \"#utility.yul\":21636:21639   */\n      dup4\n        /* \"#utility.yul\":21577:21644   */\n      tag_293\n      jump\t// in\n    tag_536:\n        /* \"#utility.yul\":21570:21644   */\n      swap2\n      pop\n        /* \"#utility.yul\":21653:21746   */\n      tag_537\n        /* \"#utility.yul\":21742:21745   */\n      dup3\n        /* \"#utility.yul\":21653:21746   */\n      tag_301\n      jump\t// in\n    tag_537:\n        /* \"#utility.yul\":21771:21773   */\n      0x40\n        /* \"#utility.yul\":21766:21769   */\n      dup3\n        /* \"#utility.yul\":21762:21774   */\n      add\n        /* \"#utility.yul\":21755:21774   */\n      swap1\n      pop\n        /* \"#utility.yul\":21414:21780   */\n      swap2\n      swap1\n      pop\n      jump\t// out\n        /* \"#utility.yul\":21786:22205   */\n    tag_145:\n        /* \"#utility.yul\":21952:21956   */\n      0x00\n        /* \"#utility.yul\":21990:21992   */\n      0x20\n        /* \"#utility.yul\":21979:21988   */\n      dup3\n        /* \"#utility.yul\":21975:21993   */\n      add\n        /* \"#utility.yul\":21967:21993   */\n      swap1\n      pop\n        /* \"#utility.yul\":22039:22048   */\n      dup2\n        /* \"#utility.yul\":22033:22037   */\n      dup2\n        /* \"#utility.yul\":22029:22049   */\n      sub\n        /* \"#utility.yul\":22025:22026   */\n      0x00\n        /* \"#utility.yul\":22014:22023   */\n      dup4\n        /* \"#utility.yul\":22010:22027   */\n      add\n        /* \"#utility.yul\":22003:22050   */\n      mstore\n        /* \"#utility.yul\":22067:22198   */\n      tag_539\n        /* \"#utility.yul\":22193:22197   */\n      dup2\n        /* \"#utility.yul\":22067:22198   */\n      tag_302\n      jump\t// in\n    tag_539:\n        /* \"#utility.yul\":22059:22198   */\n      swap1\n      pop\n        /* \"#utility.yul\":21786:22205   */\n      swap2\n      swap1\n      pop\n      jump\t// out\n        /* \"#utility.yul\":22211:22393   */\n    tag_303:\n        /* \"#utility.yul\":22351:22385   */\n      0x444c543a20617070726f766520746f20746865207a65726f2061646472657373\n        /* \"#utility.yul\":22347:22348   */\n      0x00\n        /* \"#utility.yul\":22339:22345   */\n      dup3\n        /* \"#utility.yul\":22335:22349   */\n      add\n        /* \"#utility.yul\":22328:22386   */\n      mstore\n        /* \"#utility.yul\":22211:22393   */\n      pop\n      jump\t// out\n        /* \"#utility.yul\":22399:22765   */\n    tag_304:\n        /* \"#utility.yul\":22541:22544   */\n      0x00\n        /* \"#utility.yul\":22562:22629   */\n      tag_542\n        /* \"#utility.yul\":22626:22628   */\n      0x20\n        /* \"#utility.yul\":22621:22624   */\n      dup4\n        /* \"#utility.yul\":22562:22629   */\n      tag_293\n      jump\t// in\n    tag_542:\n        /* \"#utility.yul\":22555:22629   */\n      swap2\n      pop\n        /* \"#utility.yul\":22638:22731   */\n      tag_543\n        /* \"#utility.yul\":22727:22730   */\n      dup3\n        /* \"#utility.yul\":22638:22731   */\n      tag_303\n      jump\t// in\n    tag_543:\n        /* \"#utility.yul\":22756:22758   */\n      0x20\n        /* \"#utility.yul\":22751:22754   */\n      dup3\n        /* \"#utility.yul\":22747:22759   */\n      add\n        /* \"#utility.yul\":22740:22759   */\n      swap1\n      pop\n        /* \"#utility.yul\":22399:22765   */\n      swap2\n      swap1\n      pop\n      jump\t// out\n        /* \"#utility.yul\":22771:23190   */\n    tag_148:\n        /* \"#utility.yul\":22937:22941   */\n      0x00\n        /* \"#utility.yul\":22975:22977   */\n      0x20\n        /* \"#utility.yul\":22964:22973   */\n      dup3\n        /* \"#utility.yul\":22960:22978   */\n      add\n        /* \"#utility.yul\":22952:22978   */\n      swap1\n      pop\n        /* \"#utility.yul\":23024:23033   */\n      dup2\n        /* \"#utility.yul\":23018:23022   */\n      dup2\n        /* \"#utility.yul\":23014:23034   */\n      sub\n        /* \"#utility.yul\":23010:23011   */\n      0x00\n        /* \"#utility.yul\":22999:23008   */\n      dup4\n        /* \"#utility.yul\":22995:23012   */\n      add\n        /* \"#utility.yul\":22988:23035   */\n      mstore\n        /* \"#utility.yul\":23052:23183   */\n      tag_545\n        /* \"#utility.yul\":23178:23182   */\n      dup2\n        /* \"#utility.yul\":23052:23183   */\n      tag_304\n      jump\t// in\n    tag_545:\n        /* \"#utility.yul\":23044:23183   */\n      swap1\n      pop\n        /* \"#utility.yul\":22771:23190   */\n      swap2\n      swap1\n      pop\n      jump\t// out\n        /* \"#utility.yul\":23196:23638   */\n    tag_150:\n        /* \"#utility.yul\":23345:23349   */\n      0x00\n        /* \"#utility.yul\":23383:23385   */\n      0x60\n        /* \"#utility.yul\":23372:23381   */\n      dup3\n        /* \"#utility.yul\":23368:23386   */\n      add\n        /* \"#utility.yul\":23360:23386   */\n      swap1\n      pop\n        /* \"#utility.yul\":23396:23467   */\n      tag_547\n        /* \"#utility.yul\":23464:23465   */\n      0x00\n        /* \"#utility.yul\":23453:23462   */\n      dup4\n        /* \"#utility.yul\":23449:23466   */\n      add\n        /* \"#utility.yul\":23440:23446   */\n      dup7\n        /* \"#utility.yul\":23396:23467   */\n      tag_269\n      jump\t// in\n    tag_547:\n        /* \"#utility.yul\":23477:23549   */\n      tag_548\n        /* \"#utility.yul\":23545:23547   */\n      0x20\n        /* \"#utility.yul\":23534:23543   */\n      dup4\n        /* \"#utility.yul\":23530:23548   */\n      add\n        /* \"#utility.yul\":23521:23527   */\n      dup6\n        /* \"#utility.yul\":23477:23549   */\n      tag_269\n      jump\t// in\n    tag_548:\n        /* \"#utility.yul\":23559:23631   */\n      tag_549\n        /* \"#utility.yul\":23627:23629   */\n      0x40\n        /* \"#utility.yul\":23616:23625   */\n      dup4\n        /* \"#utility.yul\":23612:23630   */\n      add\n        /* \"#utility.yul\":23603:23609   */\n      dup5\n        /* \"#utility.yul\":23559:23631   */\n      tag_269\n      jump\t// in\n    tag_549:\n        /* \"#utility.yul\":23196:23638   */\n      swap5\n      swap4\n      pop\n      pop\n      pop\n      pop\n      jump\t// out\n        /* \"#utility.yul\":23644:23879   */\n    tag_305:\n        /* \"#utility.yul\":23784:23818   */\n      0x444c543a206d61696e4964732c2073756249647320616e6420616d6f756e7473\n        /* \"#utility.yul\":23780:23781   */\n      0x00\n        /* \"#utility.yul\":23772:23778   */\n      dup3\n        /* \"#utility.yul\":23768:23782   */\n      add\n        /* \"#utility.yul\":23761:23819   */\n      mstore\n        /* \"#utility.yul\":23853:23871   */\n      0x206c656e677468206d69736d6174636800000000000000000000000000000000\n        /* \"#utility.yul\":23848:23850   */\n      0x20\n        /* \"#utility.yul\":23840:23846   */\n      dup3\n        /* \"#utility.yul\":23836:23851   */\n      add\n        /* \"#utility.yul\":23829:23872   */\n      mstore\n        /* \"#utility.yul\":23644:23879   */\n      pop\n      jump\t// out\n        /* \"#utility.yul\":23885:24251   */\n    tag_306:\n        /* \"#utility.yul\":24027:24030   */\n      0x00\n        /* \"#utility.yul\":24048:24115   */\n      tag_552\n        /* \"#utility.yul\":24112:24114   */\n      0x30\n        /* \"#utility.yul\":24107:24110   */\n      dup4\n        /* \"#utility.yul\":24048:24115   */\n      tag_293\n      jump\t// in\n    tag_552:\n        /* \"#utility.yul\":24041:24115   */\n      swap2\n      pop\n        /* \"#utility.yul\":24124:24217   */\n      tag_553\n        /* \"#utility.yul\":24213:24216   */\n      dup3\n        /* \"#utility.yul\":24124:24217   */\n      tag_305\n      jump\t// in\n    tag_553:\n        /* \"#utility.yul\":24242:24244   */\n      0x40\n        /* \"#utility.yul\":24237:24240   */\n      dup3\n        /* \"#utility.yul\":24233:24245   */\n      add\n        /* \"#utility.yul\":24226:24245   */\n      swap1\n      pop\n        /* \"#utility.yul\":23885:24251   */\n      swap2\n      swap1\n      pop\n      jump\t// out\n        /* \"#utility.yul\":24257:24676   */\n    tag_158:\n        /* \"#utility.yul\":24423:24427   */\n      0x00\n        /* \"#utility.yul\":24461:24463   */\n      0x20\n        /* \"#utility.yul\":24450:24459   */\n      dup3\n        /* \"#utility.yul\":24446:24464   */\n      add\n        /* \"#utility.yul\":24438:24464   */\n      swap1\n      pop\n        /* \"#utility.yul\":24510:24519   */\n      dup2\n        /* \"#utility.yul\":24504:24508   */\n      dup2\n        /* \"#utility.yul\":24500:24520   */\n      sub\n        /* \"#utility.yul\":24496:24497   */\n      0x00\n        /* \"#utility.yul\":24485:24494   */\n      dup4\n        /* \"#utility.yul\":24481:24498   */\n      add\n        /* \"#utility.yul\":24474:24521   */\n      mstore\n        /* \"#utility.yul\":24538:24669   */\n      tag_555\n        /* \"#utility.yul\":24664:24668   */\n      dup2\n        /* \"#utility.yul\":24538:24669   */\n      tag_306\n      jump\t// in\n    tag_555:\n        /* \"#utility.yul\":24530:24669   */\n      swap1\n      pop\n        /* \"#utility.yul\":24257:24676   */\n      swap2\n      swap1\n      pop\n      jump\t// out\n        /* \"#utility.yul\":24682:24902   */\n    tag_307:\n        /* \"#utility.yul\":24822:24856   */\n      0x444c543a207472616e7366657220746f20746865207a65726f20616464726573\n        /* \"#utility.yul\":24818:24819   */\n      0x00\n        /* \"#utility.yul\":24810:24816   */\n      dup3\n        /* \"#utility.yul\":24806:24820   */\n      add\n        /* \"#utility.yul\":24799:24857   */\n      mstore\n        /* \"#utility.yul\":24891:24894   */\n      0x7300000000000000000000000000000000000000000000000000000000000000\n        /* \"#utility.yul\":24886:24888   */\n      0x20\n        /* \"#utility.yul\":24878:24884   */\n      dup3\n        /* \"#utility.yul\":24874:24889   */\n      add\n        /* \"#utility.yul\":24867:24895   */\n      mstore\n        /* \"#utility.yul\":24682:24902   */\n      pop\n      jump\t// out\n        /* \"#utility.yul\":24908:25274   */\n    tag_308:\n        /* \"#utility.yul\":25050:25053   */\n      0x00\n        /* \"#utility.yul\":25071:25138   */\n      tag_558\n        /* \"#utility.yul\":25135:25137   */\n      0x21\n        /* \"#utility.yul\":25130:25133   */\n      dup4\n        /* \"#utility.yul\":25071:25138   */\n      tag_293\n      jump\t// in\n    tag_558:\n        /* \"#utility.yul\":25064:25138   */\n      swap2\n      pop\n        /* \"#utility.yul\":25147:25240   */\n      tag_559\n        /* \"#utility.yul\":25236:25239   */\n      dup3\n        /* \"#utility.yul\":25147:25240   */\n      tag_307\n      jump\t// in\n    tag_559:\n        /* \"#utility.yul\":25265:25267   */\n      0x40\n        /* \"#utility.yul\":25260:25263   */\n      dup3\n        /* \"#utility.yul\":25256:25268   */\n      add\n        /* \"#utility.yul\":25249:25268   */\n      swap1\n      pop\n        /* \"#utility.yul\":24908:25274   */\n      swap2\n      swap1\n      pop\n      jump\t// out\n        /* \"#utility.yul\":25280:25699   */\n    tag_161:\n        /* \"#utility.yul\":25446:25450   */\n      0x00\n        /* \"#utility.yul\":25484:25486   */\n      0x20\n        /* \"#utility.yul\":25473:25482   */\n      dup3\n        /* \"#utility.yul\":25469:25487   */\n      add\n        /* \"#utility.yul\":25461:25487   */\n      swap1\n      pop\n        /* \"#utility.yul\":25533:25542   */\n      dup2\n        /* \"#utility.yul\":25527:25531   */\n      dup2\n        /* \"#utility.yul\":25523:25543   */\n      sub\n        /* \"#utility.yul\":25519:25520   */\n      0x00\n        /* \"#utility.yul\":25508:25517   */\n      dup4\n        /* \"#utility.yul\":25504:25521   */\n      add\n        /* \"#utility.yul\":25497:25544   */\n      mstore\n        /* \"#utility.yul\":25561:25692   */\n      tag_561\n        /* \"#utility.yul\":25687:25691   */\n      dup2\n        /* \"#utility.yul\":25561:25692   */\n      tag_308\n      jump\t// in\n    tag_561:\n        /* \"#utility.yul\":25553:25692   */\n      swap1\n      pop\n        /* \"#utility.yul\":25280:25699   */\n      swap2\n      swap1\n      pop\n      jump\t// out\n        /* \"#utility.yul\":25705:25930   */\n    tag_309:\n        /* \"#utility.yul\":25845:25879   */\n      0x444c543a20696e73756666696369656e742062616c616e636520666f72207472\n        /* \"#utility.yul\":25841:25842   */\n      0x00\n        /* \"#utility.yul\":25833:25839   */\n      dup3\n        /* \"#utility.yul\":25829:25843   */\n      add\n        /* \"#utility.yul\":25822:25880   */\n      mstore\n        /* \"#utility.yul\":25914:25922   */\n      0x616e736665720000000000000000000000000000000000000000000000000000\n        /* \"#utility.yul\":25909:25911   */\n      0x20\n        /* \"#utility.yul\":25901:25907   */\n      dup3\n        /* \"#utility.yul\":25897:25912   */\n      add\n        /* \"#utility.yul\":25890:25923   */\n      mstore\n        /* \"#utility.yul\":25705:25930   */\n      pop\n      jump\t// out\n        /* \"#utility.yul\":25936:26302   */\n    tag_310:\n        /* \"#utility.yul\":26078:26081   */\n      0x00\n        /* \"#utility.yul\":26099:26166   */\n      tag_564\n        /* \"#utility.yul\":26163:26165   */\n      0x26\n        /* \"#utility.yul\":26158:26161   */\n      dup4\n        /* \"#utility.yul\":26099:26166   */\n      tag_293\n      jump\t// in\n    tag_564:\n        /* \"#utility.yul\":26092:26166   */\n      swap2\n      pop\n        /* \"#utility.yul\":26175:26268   */\n      tag_565\n        /* \"#utility.yul\":26264:26267   */\n      dup3\n        /* \"#utility.yul\":26175:26268   */\n      tag_309\n      jump\t// in\n    tag_565:\n        /* \"#utility.yul\":26293:26295   */\n      0x40\n        /* \"#utility.yul\":26288:26291   */\n      dup3\n        /* \"#utility.yul\":26284:26296   */\n      add\n        /* \"#utility.yul\":26277:26296   */\n      swap1\n      pop\n        /* \"#utility.yul\":25936:26302   */\n      swap2\n      swap1\n      pop\n      jump\t// out\n        /* \"#utility.yul\":26308:26727   */\n    tag_174:\n        /* \"#utility.yul\":26474:26478   */\n      0x00\n        /* \"#utility.yul\":26512:26514   */\n      0x20\n        /* \"#utility.yul\":26501:26510   */\n      dup3\n        /* \"#utility.yul\":26497:26515   */\n      add\n        /* \"#utility.yul\":26489:26515   */\n      swap1\n      pop\n        /* \"#utility.yul\":26561:26570   */\n      dup2\n        /* \"#utility.yul\":26555:26559   */\n      dup2\n        /* \"#utility.yul\":26551:26571   */\n      sub\n        /* \"#utility.yul\":26547:26548   */\n      0x00\n        /* \"#utility.yul\":26536:26545   */\n      dup4\n        /* \"#utility.yul\":26532:26549   */\n      add\n        /* \"#utility.yul\":26525:26572   */\n      mstore\n        /* \"#utility.yul\":26589:26720   */\n      tag_567\n        /* \"#utility.yul\":26715:26719   */\n      dup2\n        /* \"#utility.yul\":26589:26720   */\n      tag_310\n      jump\t// in\n    tag_567:\n        /* \"#utility.yul\":26581:26720   */\n      swap1\n      pop\n        /* \"#utility.yul\":26308:26727   */\n      swap2\n      swap1\n      pop\n      jump\t// out\n        /* \"#utility.yul\":26733:26924   */\n    tag_176:\n        /* \"#utility.yul\":26773:26776   */\n      0x00\n        /* \"#utility.yul\":26792:26812   */\n      tag_569\n        /* \"#utility.yul\":26810:26811   */\n      dup3\n        /* \"#utility.yul\":26792:26812   */\n      tag_264\n      jump\t// in\n    tag_569:\n        /* \"#utility.yul\":26787:26812   */\n      swap2\n      pop\n        /* \"#utility.yul\":26826:26846   */\n      tag_570\n        /* \"#utility.yul\":26844:26845   */\n      dup4\n        /* \"#utility.yul\":26826:26846   */\n      tag_264\n      jump\t// in\n    tag_570:\n        /* \"#utility.yul\":26821:26846   */\n      swap3\n      pop\n        /* \"#utility.yul\":26869:26870   */\n      dup3\n        /* \"#utility.yul\":26866:26867   */\n      dup3\n        /* \"#utility.yul\":26862:26871   */\n      add\n        /* \"#utility.yul\":26855:26871   */\n      swap1\n      pop\n        /* \"#utility.yul\":26890:26893   */\n      dup1\n        /* \"#utility.yul\":26887:26888   */\n      dup3\n        /* \"#utility.yul\":26884:26894   */\n      gt\n        /* \"#utility.yul\":26881:26917   */\n      iszero\n      tag_571\n      jumpi\n        /* \"#utility.yul\":26897:26915   */\n      tag_572\n      tag_298\n      jump\t// in\n    tag_572:\n        /* \"#utility.yul\":26881:26917   */\n    tag_571:\n        /* \"#utility.yul\":26733:26924   */\n      swap3\n      swap2\n      pop\n      pop\n      jump\t// out\n        /* \"#utility.yul\":26930:27825   */\n    tag_179:\n        /* \"#utility.yul\":27229:27233   */\n      0x00\n        /* \"#utility.yul\":27267:27269   */\n      0x60\n        /* \"#utility.yul\":27256:27265   */\n      dup3\n        /* \"#utility.yul\":27252:27270   */\n      add\n        /* \"#utility.yul\":27244:27270   */\n      swap1\n      pop\n        /* \"#utility.yul\":27316:27325   */\n      dup2\n        /* \"#utility.yul\":27310:27314   */\n      dup2\n        /* \"#utility.yul\":27306:27326   */\n      sub\n        /* \"#utility.yul\":27302:27303   */\n      0x00\n        /* \"#utility.yul\":27291:27300   */\n      dup4\n        /* \"#utility.yul\":27287:27304   */\n      add\n        /* \"#utility.yul\":27280:27327   */\n      mstore\n        /* \"#utility.yul\":27344:27452   */\n      tag_574\n        /* \"#utility.yul\":27447:27451   */\n      dup2\n        /* \"#utility.yul\":27438:27444   */\n      dup7\n        /* \"#utility.yul\":27344:27452   */\n      tag_289\n      jump\t// in\n    tag_574:\n        /* \"#utility.yul\":27336:27452   */\n      swap1\n      pop\n        /* \"#utility.yul\":27499:27508   */\n      dup2\n        /* \"#utility.yul\":27493:27497   */\n      dup2\n        /* \"#utility.yul\":27489:27509   */\n      sub\n        /* \"#utility.yul\":27484:27486   */\n      0x20\n        /* \"#utility.yul\":27473:27482   */\n      dup4\n        /* \"#utility.yul\":27469:27487   */\n      add\n        /* \"#utility.yul\":27462:27510   */\n      mstore\n        /* \"#utility.yul\":27527:27635   */\n      tag_575\n        /* \"#utility.yul\":27630:27634   */\n      dup2\n        /* \"#utility.yul\":27621:27627   */\n      dup6\n        /* \"#utility.yul\":27527:27635   */\n      tag_289\n      jump\t// in\n    tag_575:\n        /* \"#utility.yul\":27519:27635   */\n      swap1\n      pop\n        /* \"#utility.yul\":27682:27691   */\n      dup2\n        /* \"#utility.yul\":27676:27680   */\n      dup2\n        /* \"#utility.yul\":27672:27692   */\n      sub\n        /* \"#utility.yul\":27667:27669   */\n      0x40\n        /* \"#utility.yul\":27656:27665   */\n      dup4\n        /* \"#utility.yul\":27652:27670   */\n      add\n        /* \"#utility.yul\":27645:27693   */\n      mstore\n        /* \"#utility.yul\":27710:27818   */\n      tag_576\n        /* \"#utility.yul\":27813:27817   */\n      dup2\n        /* \"#utility.yul\":27804:27810   */\n      dup5\n        /* \"#utility.yul\":27710:27818   */\n      tag_289\n      jump\t// in\n    tag_576:\n        /* \"#utility.yul\":27702:27818   */\n      swap1\n      pop\n        /* \"#utility.yul\":26930:27825   */\n      swap5\n      swap4\n      pop\n      pop\n      pop\n      pop\n      jump\t// out\n        /* \"#utility.yul\":27831:28062   */\n    tag_311:\n        /* \"#utility.yul\":27971:28005   */\n      0x444c543a207472616e7366657220746f206e6f6e20444c545265636569766572\n        /* \"#utility.yul\":27967:27968   */\n      0x00\n        /* \"#utility.yul\":27959:27965   */\n      dup3\n        /* \"#utility.yul\":27955:27969   */\n      add\n        /* \"#utility.yul\":27948:28006   */\n      mstore\n        /* \"#utility.yul\":28040:28054   */\n      0x20696d706c656d656e7465720000000000000000000000000000000000000000\n        /* \"#utility.yul\":28035:28037   */\n      0x20\n        /* \"#utility.yul\":28027:28033   */\n      dup3\n        /* \"#utility.yul\":28023:28038   */\n      add\n        /* \"#utility.yul\":28016:28055   */\n      mstore\n        /* \"#utility.yul\":27831:28062   */\n      pop\n      jump\t// out\n        /* \"#utility.yul\":28068:28434   */\n    tag_312:\n        /* \"#utility.yul\":28210:28213   */\n      0x00\n        /* \"#utility.yul\":28231:28298   */\n      tag_579\n        /* \"#utility.yul\":28295:28297   */\n      0x2c\n        /* \"#utility.yul\":28290:28293   */\n      dup4\n        /* \"#utility.yul\":28231:28298   */\n      tag_293\n      jump\t// in\n    tag_579:\n        /* \"#utility.yul\":28224:28298   */\n      swap2\n      pop\n        /* \"#utility.yul\":28307:28400   */\n      tag_580\n        /* \"#utility.yul\":28396:28399   */\n      dup3\n        /* \"#utility.yul\":28307:28400   */\n      tag_311\n      jump\t// in\n    tag_580:\n        /* \"#utility.yul\":28425:28427   */\n      0x40\n        /* \"#utility.yul\":28420:28423   */\n      dup3\n        /* \"#utility.yul\":28416:28428   */\n      add\n        /* \"#utility.yul\":28409:28428   */\n      swap1\n      pop\n        /* \"#utility.yul\":28068:28434   */\n      swap2\n      swap1\n      pop\n      jump\t// out\n        /* \"#utility.yul\":28440:28859   */\n    tag_184:\n        /* \"#utility.yul\":28606:28610   */\n      0x00\n        /* \"#utility.yul\":28644:28646   */\n      0x20\n        /* \"#utility.yul\":28633:28642   */\n      dup3\n        /* \"#utility.yul\":28629:28647   */\n      add\n        /* \"#utility.yul\":28621:28647   */\n      swap1\n      pop\n        /* \"#utility.yul\":28693:28702   */\n      dup2\n        /* \"#utility.yul\":28687:28691   */\n      dup2\n        /* \"#utility.yul\":28683:28703   */\n      sub\n        /* \"#utility.yul\":28679:28680   */\n      0x00\n        /* \"#utility.yul\":28668:28677   */\n      dup4\n        /* \"#utility.yul\":28664:28681   */\n      add\n        /* \"#utility.yul\":28657:28704   */\n      mstore\n        /* \"#utility.yul\":28721:28852   */\n      tag_582\n        /* \"#utility.yul\":28847:28851   */\n      dup2\n        /* \"#utility.yul\":28721:28852   */\n      tag_312\n      jump\t// in\n    tag_582:\n        /* \"#utility.yul\":28713:28852   */\n      swap1\n      pop\n        /* \"#utility.yul\":28440:28859   */\n      swap2\n      swap1\n      pop\n      jump\t// out\n        /* \"#utility.yul\":28865:29037   */\n    tag_313:\n        /* \"#utility.yul\":29005:29029   */\n      0x444c543a20617070726f766520746f2063616c6c657200000000000000000000\n        /* \"#utility.yul\":29001:29002   */\n      0x00\n        /* \"#utility.yul\":28993:28999   */\n      dup3\n        /* \"#utility.yul\":28989:29003   */\n      add\n        /* \"#utility.yul\":28982:29030   */\n      mstore\n        /* \"#utility.yul\":28865:29037   */\n      pop\n      jump\t// out\n        /* \"#utility.yul\":29043:29409   */\n    tag_314:\n        /* \"#utility.yul\":29185:29188   */\n      0x00\n        /* \"#utility.yul\":29206:29273   */\n      tag_585\n        /* \"#utility.yul\":29270:29272   */\n      0x16\n        /* \"#utility.yul\":29265:29268   */\n      dup4\n        /* \"#utility.yul\":29206:29273   */\n      tag_293\n      jump\t// in\n    tag_585:\n        /* \"#utility.yul\":29199:29273   */\n      swap2\n      pop\n        /* \"#utility.yul\":29282:29375   */\n      tag_586\n        /* \"#utility.yul\":29371:29374   */\n      dup3\n        /* \"#utility.yul\":29282:29375   */\n      tag_313\n      jump\t// in\n    tag_586:\n        /* \"#utility.yul\":29400:29402   */\n      0x20\n        /* \"#utility.yul\":29395:29398   */\n      dup3\n        /* \"#utility.yul\":29391:29403   */\n      add\n        /* \"#utility.yul\":29384:29403   */\n      swap1\n      pop\n        /* \"#utility.yul\":29043:29409   */\n      swap2\n      swap1\n      pop\n      jump\t// out\n        /* \"#utility.yul\":29415:29834   */\n    tag_188:\n        /* \"#utility.yul\":29581:29585   */\n      0x00\n        /* \"#utility.yul\":29619:29621   */\n      0x20\n        /* \"#utility.yul\":29608:29617   */\n      dup3\n        /* \"#utility.yul\":29604:29622   */\n      add\n        /* \"#utility.yul\":29596:29622   */\n      swap1\n      pop\n        /* \"#utility.yul\":29668:29677   */\n      dup2\n        /* \"#utility.yul\":29662:29666   */\n      dup2\n        /* \"#utility.yul\":29658:29678   */\n      sub\n        /* \"#utility.yul\":29654:29655   */\n      0x00\n        /* \"#utility.yul\":29643:29652   */\n      dup4\n        /* \"#utility.yul\":29639:29656   */\n      add\n        /* \"#utility.yul\":29632:29679   */\n      mstore\n        /* \"#utility.yul\":29696:29827   */\n      tag_588\n        /* \"#utility.yul\":29822:29826   */\n      dup2\n        /* \"#utility.yul\":29696:29827   */\n      tag_314\n      jump\t// in\n    tag_588:\n        /* \"#utility.yul\":29688:29827   */\n      swap1\n      pop\n        /* \"#utility.yul\":29415:29834   */\n      swap2\n      swap1\n      pop\n      jump\t// out\n        /* \"#utility.yul\":29840:30017   */\n    tag_315:\n        /* \"#utility.yul\":29980:30009   */\n      0x444c543a20696e73756666696369656e7420616c6c6f77616e63650000000000\n        /* \"#utility.yul\":29976:29977   */\n      0x00\n        /* \"#utility.yul\":29968:29974   */\n      dup3\n        /* \"#utility.yul\":29964:29978   */\n      add\n        /* \"#utility.yul\":29957:30010   */\n      mstore\n        /* \"#utility.yul\":29840:30017   */\n      pop\n      jump\t// out\n        /* \"#utility.yul\":30023:30389   */\n    tag_316:\n        /* \"#utility.yul\":30165:30168   */\n      0x00\n        /* \"#utility.yul\":30186:30253   */\n      tag_591\n        /* \"#utility.yul\":30250:30252   */\n      0x1b\n        /* \"#utility.yul\":30245:30248   */\n      dup4\n        /* \"#utility.yul\":30186:30253   */\n      tag_293\n      jump\t// in\n    tag_591:\n        /* \"#utility.yul\":30179:30253   */\n      swap2\n      pop\n        /* \"#utility.yul\":30262:30355   */\n      tag_592\n        /* \"#utility.yul\":30351:30354   */\n      dup3\n        /* \"#utility.yul\":30262:30355   */\n      tag_315\n      jump\t// in\n    tag_592:\n        /* \"#utility.yul\":30380:30382   */\n      0x20\n        /* \"#utility.yul\":30375:30378   */\n      dup3\n        /* \"#utility.yul\":30371:30383   */\n      add\n        /* \"#utility.yul\":30364:30383   */\n      swap1\n      pop\n        /* \"#utility.yul\":30023:30389   */\n      swap2\n      swap1\n      pop\n      jump\t// out\n        /* \"#utility.yul\":30395:30814   */\n    tag_195:\n        /* \"#utility.yul\":30561:30565   */\n      0x00\n        /* \"#utility.yul\":30599:30601   */\n      0x20\n        /* \"#utility.yul\":30588:30597   */\n      dup3\n        /* \"#utility.yul\":30584:30602   */\n      add\n        /* \"#utility.yul\":30576:30602   */\n      swap1\n      pop\n        /* \"#utility.yul\":30648:30657   */\n      dup2\n        /* \"#utility.yul\":30642:30646   */\n      dup2\n        /* \"#utility.yul\":30638:30658   */\n      sub\n        /* \"#utility.yul\":30634:30635   */\n      0x00\n        /* \"#utility.yul\":30623:30632   */\n      dup4\n        /* \"#utility.yul\":30619:30636   */\n      add\n        /* \"#utility.yul\":30612:30659   */\n      mstore\n        /* \"#utility.yul\":30676:30807   */\n      tag_594\n        /* \"#utility.yul\":30802:30806   */\n      dup2\n        /* \"#utility.yul\":30676:30807   */\n      tag_316\n      jump\t// in\n    tag_594:\n        /* \"#utility.yul\":30668:30807   */\n      swap1\n      pop\n        /* \"#utility.yul\":30395:30814   */\n      swap2\n      swap1\n      pop\n      jump\t// out\n        /* \"#utility.yul\":30820:31042   */\n    tag_317:\n        /* \"#utility.yul\":30960:30994   */\n      0x444c543a207472616e736665722066726f6d20746865207a65726f2061646472\n        /* \"#utility.yul\":30956:30957   */\n      0x00\n        /* \"#utility.yul\":30948:30954   */\n      dup3\n        /* \"#utility.yul\":30944:30958   */\n      add\n        /* \"#utility.yul\":30937:30995   */\n      mstore\n        /* \"#utility.yul\":31029:31034   */\n      0x6573730000000000000000000000000000000000000000000000000000000000\n        /* \"#utility.yul\":31024:31026   */\n      0x20\n        /* \"#utility.yul\":31016:31022   */\n      dup3\n        /* \"#utility.yul\":31012:31027   */\n      add\n        /* \"#utility.yul\":31005:31035   */\n      mstore\n        /* \"#utility.yul\":30820:31042   */\n      pop\n      jump\t// out\n        /* \"#utility.yul\":31048:31414   */\n    tag_318:\n        /* \"#utility.yul\":31190:31193   */\n      0x00\n        /* \"#utility.yul\":31211:31278   */\n      tag_597\n        /* \"#utility.yul\":31275:31277   */\n      0x23\n        /* \"#utility.yul\":31270:31273   */\n      dup4\n        /* \"#utility.yul\":31211:31278   */\n      tag_293\n      jump\t// in\n    tag_597:\n        /* \"#utility.yul\":31204:31278   */\n      swap2\n      pop\n        /* \"#utility.yul\":31287:31380   */\n      tag_598\n        /* \"#utility.yul\":31376:31379   */\n      dup3\n        /* \"#utility.yul\":31287:31380   */\n      tag_317\n      jump\t// in\n    tag_598:\n        /* \"#utility.yul\":31405:31407   */\n      0x40\n        /* \"#utility.yul\":31400:31403   */\n      dup3\n        /* \"#utility.yul\":31396:31408   */\n      add\n        /* \"#utility.yul\":31389:31408   */\n      swap1\n      pop\n        /* \"#utility.yul\":31048:31414   */\n      swap2\n      swap1\n      pop\n      jump\t// out\n        /* \"#utility.yul\":31420:31839   */\n    tag_206:\n        /* \"#utility.yul\":31586:31590   */\n      0x00\n        /* \"#utility.yul\":31624:31626   */\n      0x20\n        /* \"#utility.yul\":31613:31622   */\n      dup3\n        /* \"#utility.yul\":31609:31627   */\n      add\n        /* \"#utility.yul\":31601:31627   */\n      swap1\n      pop\n        /* \"#utility.yul\":31673:31682   */\n      dup2\n        /* \"#utility.yul\":31667:31671   */\n      dup2\n        /* \"#utility.yul\":31663:31683   */\n      sub\n        /* \"#utility.yul\":31659:31660   */\n      0x00\n        /* \"#utility.yul\":31648:31657   */\n      dup4\n        /* \"#utility.yul\":31644:31661   */\n      add\n        /* \"#utility.yul\":31637:31684   */\n      mstore\n        /* \"#utility.yul\":31701:31832   */\n      tag_600\n        /* \"#utility.yul\":31827:31831   */\n      dup2\n        /* \"#utility.yul\":31701:31832   */\n      tag_318\n      jump\t// in\n    tag_600:\n        /* \"#utility.yul\":31693:31832   */\n      swap1\n      pop\n        /* \"#utility.yul\":31420:31839   */\n      swap2\n      swap1\n      pop\n      jump\t// out\n        /* \"#utility.yul\":31845:32177   */\n    tag_215:\n        /* \"#utility.yul\":31966:31970   */\n      0x00\n        /* \"#utility.yul\":32004:32006   */\n      0x40\n        /* \"#utility.yul\":31993:32002   */\n      dup3\n        /* \"#utility.yul\":31989:32007   */\n      add\n        /* \"#utility.yul\":31981:32007   */\n      swap1\n      pop\n        /* \"#utility.yul\":32017:32088   */\n      tag_602\n        /* \"#utility.yul\":32085:32086   */\n      0x00\n        /* \"#utility.yul\":32074:32083   */\n      dup4\n        /* \"#utility.yul\":32070:32087   */\n      add\n        /* \"#utility.yul\":32061:32067   */\n      dup6\n        /* \"#utility.yul\":32017:32088   */\n      tag_269\n      jump\t// in\n    tag_602:\n        /* \"#utility.yul\":32098:32170   */\n      tag_603\n        /* \"#utility.yul\":32166:32168   */\n      0x20\n        /* \"#utility.yul\":32155:32164   */\n      dup4\n        /* \"#utility.yul\":32151:32169   */\n      add\n        /* \"#utility.yul\":32142:32148   */\n      dup5\n        /* \"#utility.yul\":32098:32170   */\n      tag_269\n      jump\t// in\n    tag_603:\n        /* \"#utility.yul\":31845:32177   */\n      swap4\n      swap3\n      pop\n      pop\n      pop\n      jump\t// out\n        /* \"#utility.yul\":32183:32301   */\n    tag_319:\n        /* \"#utility.yul\":32270:32294   */\n      tag_605\n        /* \"#utility.yul\":32288:32293   */\n      dup2\n        /* \"#utility.yul\":32270:32294   */\n      tag_261\n      jump\t// in\n    tag_605:\n        /* \"#utility.yul\":32265:32268   */\n      dup3\n        /* \"#utility.yul\":32258:32295   */\n      mstore\n        /* \"#utility.yul\":32183:32301   */\n      pop\n      pop\n      jump\t// out\n        /* \"#utility.yul\":32307:32405   */\n    tag_320:\n        /* \"#utility.yul\":32358:32364   */\n      0x00\n        /* \"#utility.yul\":32392:32397   */\n      dup2\n        /* \"#utility.yul\":32386:32398   */\n      mload\n        /* \"#utility.yul\":32376:32398   */\n      swap1\n      pop\n        /* \"#utility.yul\":32307:32405   */\n      swap2\n      swap1\n      pop\n      jump\t// out\n        /* \"#utility.yul\":32411:32579   */\n    tag_321:\n        /* \"#utility.yul\":32494:32505   */\n      0x00\n        /* \"#utility.yul\":32528:32534   */\n      dup3\n        /* \"#utility.yul\":32523:32526   */\n      dup3\n        /* \"#utility.yul\":32516:32535   */\n      mstore\n        /* \"#utility.yul\":32568:32572   */\n      0x20\n        /* \"#utility.yul\":32563:32566   */\n      dup3\n        /* \"#utility.yul\":32559:32573   */\n      add\n        /* \"#utility.yul\":32544:32573   */\n      swap1\n      pop\n        /* \"#utility.yul\":32411:32579   */\n      swap3\n      swap2\n      pop\n      pop\n      jump\t// out\n        /* \"#utility.yul\":32585:32831   */\n    tag_322:\n        /* \"#utility.yul\":32666:32667   */\n      0x00\n        /* \"#utility.yul\":32676:32789   */\n    tag_609:\n        /* \"#utility.yul\":32690:32696   */\n      dup4\n        /* \"#utility.yul\":32687:32688   */\n      dup2\n        /* \"#utility.yul\":32684:32697   */\n      lt\n        /* \"#utility.yul\":32676:32789   */\n      iszero\n      tag_611\n      jumpi\n        /* \"#utility.yul\":32775:32776   */\n      dup1\n        /* \"#utility.yul\":32770:32773   */\n      dup3\n        /* \"#utility.yul\":32766:32777   */\n      add\n        /* \"#utility.yul\":32760:32778   */\n      mload\n        /* \"#utility.yul\":32756:32757   */\n      dup2\n        /* \"#utility.yul\":32751:32754   */\n      dup5\n        /* \"#utility.yul\":32747:32758   */\n      add\n        /* \"#utility.yul\":32740:32779   */\n      mstore\n        /* \"#utility.yul\":32712:32714   */\n      0x20\n        /* \"#utility.yul\":32709:32710   */\n      dup2\n        /* \"#utility.yul\":32705:32715   */\n      add\n        /* \"#utility.yul\":32700:32715   */\n      swap1\n      pop\n        /* \"#utility.yul\":32676:32789   */\n      jump(tag_609)\n    tag_611:\n        /* \"#utility.yul\":32823:32824   */\n      0x00\n        /* \"#utility.yul\":32814:32820   */\n      dup5\n        /* \"#utility.yul\":32809:32812   */\n      dup5\n        /* \"#utility.yul\":32805:32821   */\n      add\n        /* \"#utility.yul\":32798:32825   */\n      mstore\n        /* \"#utility.yul\":32647:32831   */\n      pop\n        /* \"#utility.yul\":32585:32831   */\n      pop\n      pop\n      pop\n      jump\t// out\n        /* \"#utility.yul\":32837:33210   */\n    tag_323:\n        /* \"#utility.yul\":32923:32926   */\n      0x00\n        /* \"#utility.yul\":32951:32989   */\n      tag_613\n        /* \"#utility.yul\":32983:32988   */\n      dup3\n        /* \"#utility.yul\":32951:32989   */\n      tag_320\n      jump\t// in\n    tag_613:\n        /* \"#utility.yul\":33005:33075   */\n      tag_614\n        /* \"#utility.yul\":33068:33074   */\n      dup2\n        /* \"#utility.yul\":33063:33066   */\n      dup6\n        /* \"#utility.yul\":33005:33075   */\n      tag_321\n      jump\t// in\n    tag_614:\n        /* \"#utility.yul\":32998:33075   */\n      swap4\n      pop\n        /* \"#utility.yul\":33084:33149   */\n      tag_615\n        /* \"#utility.yul\":33142:33148   */\n      dup2\n        /* \"#utility.yul\":33137:33140   */\n      dup6\n        /* \"#utility.yul\":33130:33134   */\n      0x20\n        /* \"#utility.yul\":33123:33128   */\n      dup7\n        /* \"#utility.yul\":33119:33135   */\n      add\n        /* \"#utility.yul\":33084:33149   */\n      tag_322\n      jump\t// in\n    tag_615:\n        /* \"#utility.yul\":33174:33203   */\n      tag_616\n        /* \"#utility.yul\":33196:33202   */\n      dup2\n        /* \"#utility.yul\":33174:33203   */\n      tag_272\n      jump\t// in\n    tag_616:\n        /* \"#utility.yul\":33169:33172   */\n      dup5\n        /* \"#utility.yul\":33165:33204   */\n      add\n        /* \"#utility.yul\":33158:33204   */\n      swap2\n      pop\n        /* \"#utility.yul\":32927:33210   */\n      pop\n        /* \"#utility.yul\":32837:33210   */\n      swap3\n      swap2\n      pop\n      pop\n      jump\t// out\n        /* \"#utility.yul\":33216:34531   */\n    tag_222:\n        /* \"#utility.yul\":33617:33621   */\n      0x00\n        /* \"#utility.yul\":33655:33658   */\n      0xc0\n        /* \"#utility.yul\":33644:33653   */\n      dup3\n        /* \"#utility.yul\":33640:33659   */\n      add\n        /* \"#utility.yul\":33632:33659   */\n      swap1\n      pop\n        /* \"#utility.yul\":33669:33740   */\n      tag_618\n        /* \"#utility.yul\":33737:33738   */\n      0x00\n        /* \"#utility.yul\":33726:33735   */\n      dup4\n        /* \"#utility.yul\":33722:33739   */\n      add\n        /* \"#utility.yul\":33713:33719   */\n      dup10\n        /* \"#utility.yul\":33669:33740   */\n      tag_319\n      jump\t// in\n    tag_618:\n        /* \"#utility.yul\":33750:33822   */\n      tag_619\n        /* \"#utility.yul\":33818:33820   */\n      0x20\n        /* \"#utility.yul\":33807:33816   */\n      dup4\n        /* \"#utility.yul\":33803:33821   */\n      add\n        /* \"#utility.yul\":33794:33800   */\n      dup9\n        /* \"#utility.yul\":33750:33822   */\n      tag_319\n      jump\t// in\n    tag_619:\n        /* \"#utility.yul\":33869:33878   */\n      dup2\n        /* \"#utility.yul\":33863:33867   */\n      dup2\n        /* \"#utility.yul\":33859:33879   */\n      sub\n        /* \"#utility.yul\":33854:33856   */\n      0x40\n        /* \"#utility.yul\":33843:33852   */\n      dup4\n        /* \"#utility.yul\":33839:33857   */\n      add\n        /* \"#utility.yul\":33832:33880   */\n      mstore\n        /* \"#utility.yul\":33897:34005   */\n      tag_620\n        /* \"#utility.yul\":34000:34004   */\n      dup2\n        /* \"#utility.yul\":33991:33997   */\n      dup8\n        /* \"#utility.yul\":33897:34005   */\n      tag_289\n      jump\t// in\n    tag_620:\n        /* \"#utility.yul\":33889:34005   */\n      swap1\n      pop\n        /* \"#utility.yul\":34052:34061   */\n      dup2\n        /* \"#utility.yul\":34046:34050   */\n      dup2\n        /* \"#utility.yul\":34042:34062   */\n      sub\n        /* \"#utility.yul\":34037:34039   */\n      0x60\n        /* \"#utility.yul\":34026:34035   */\n      dup4\n        /* \"#utility.yul\":34022:34040   */\n      add\n        /* \"#utility.yul\":34015:34063   */\n      mstore\n        /* \"#utility.yul\":34080:34188   */\n      tag_621\n        /* \"#utility.yul\":34183:34187   */\n      dup2\n        /* \"#utility.yul\":34174:34180   */\n      dup7\n        /* \"#utility.yul\":34080:34188   */\n      tag_289\n      jump\t// in\n    tag_621:\n        /* \"#utility.yul\":34072:34188   */\n      swap1\n      pop\n        /* \"#utility.yul\":34236:34245   */\n      dup2\n        /* \"#utility.yul\":34230:34234   */\n      dup2\n        /* \"#utility.yul\":34226:34246   */\n      sub\n        /* \"#utility.yul\":34220:34223   */\n      0x80\n        /* \"#utility.yul\":34209:34218   */\n      dup4\n        /* \"#utility.yul\":34205:34224   */\n      add\n        /* \"#utility.yul\":34198:34247   */\n      mstore\n        /* \"#utility.yul\":34264:34372   */\n      tag_622\n        /* \"#utility.yul\":34367:34371   */\n      dup2\n        /* \"#utility.yul\":34358:34364   */\n      dup6\n        /* \"#utility.yul\":34264:34372   */\n      tag_289\n      jump\t// in\n    tag_622:\n        /* \"#utility.yul\":34256:34372   */\n      swap1\n      pop\n        /* \"#utility.yul\":34420:34429   */\n      dup2\n        /* \"#utility.yul\":34414:34418   */\n      dup2\n        /* \"#utility.yul\":34410:34430   */\n      sub\n        /* \"#utility.yul\":34404:34407   */\n      0xa0\n        /* \"#utility.yul\":34393:34402   */\n      dup4\n        /* \"#utility.yul\":34389:34408   */\n      add\n        /* \"#utility.yul\":34382:34431   */\n      mstore\n        /* \"#utility.yul\":34448:34524   */\n      tag_623\n        /* \"#utility.yul\":34519:34523   */\n      dup2\n        /* \"#utility.yul\":34510:34516   */\n      dup5\n        /* \"#utility.yul\":34448:34524   */\n      tag_323\n      jump\t// in\n    tag_623:\n        /* \"#utility.yul\":34440:34524   */\n      swap1\n      pop\n        /* \"#utility.yul\":33216:34531   */\n      swap8\n      swap7\n      pop\n      pop\n      pop\n      pop\n      pop\n      pop\n      pop\n      jump\t// out\n        /* \"#utility.yul\":34537:34686   */\n    tag_324:\n        /* \"#utility.yul\":34573:34580   */\n      0x00\n        /* \"#utility.yul\":34613:34679   */\n      0xffffffff00000000000000000000000000000000000000000000000000000000\n        /* \"#utility.yul\":34606:34611   */\n      dup3\n        /* \"#utility.yul\":34602:34680   */\n      and\n        /* \"#utility.yul\":34591:34680   */\n      swap1\n      pop\n        /* \"#utility.yul\":34537:34686   */\n      swap2\n      swap1\n      pop\n      jump\t// out\n        /* \"#utility.yul\":34692:34812   */\n    tag_325:\n        /* \"#utility.yul\":34764:34787   */\n      tag_626\n        /* \"#utility.yul\":34781:34786   */\n      dup2\n        /* \"#utility.yul\":34764:34787   */\n      tag_324\n      jump\t// in\n    tag_626:\n        /* \"#utility.yul\":34757:34762   */\n      dup2\n        /* \"#utility.yul\":34754:34788   */\n      eq\n        /* \"#utility.yul\":34744:34806   */\n      tag_627\n      jumpi\n        /* \"#utility.yul\":34802:34803   */\n      0x00\n        /* \"#utility.yul\":34799:34800   */\n      dup1\n        /* \"#utility.yul\":34792:34804   */\n      revert\n        /* \"#utility.yul\":34744:34806   */\n    tag_627:\n        /* \"#utility.yul\":34692:34812   */\n      pop\n      jump\t// out\n        /* \"#utility.yul\":34818:34959   */\n    tag_326:\n        /* \"#utility.yul\":34874:34879   */\n      0x00\n        /* \"#utility.yul\":34905:34911   */\n      dup2\n        /* \"#utility.yul\":34899:34912   */\n      mload\n        /* \"#utility.yul\":34890:34912   */\n      swap1\n      pop\n        /* \"#utility.yul\":34921:34953   */\n      tag_629\n        /* \"#utility.yul\":34947:34952   */\n      dup2\n        /* \"#utility.yul\":34921:34953   */\n      tag_325\n      jump\t// in\n    tag_629:\n        /* \"#utility.yul\":34818:34959   */\n      swap3\n      swap2\n      pop\n      pop\n      jump\t// out\n        /* \"#utility.yul\":34965:35314   */\n    tag_225:\n        /* \"#utility.yul\":35034:35040   */\n      0x00\n        /* \"#utility.yul\":35083:35085   */\n      0x20\n        /* \"#utility.yul\":35071:35080   */\n      dup3\n        /* \"#utility.yul\":35062:35069   */\n      dup5\n        /* \"#utility.yul\":35058:35081   */\n      sub\n        /* \"#utility.yul\":35054:35086   */\n      slt\n        /* \"#utility.yul\":35051:35170   */\n      iszero\n      tag_631\n      jumpi\n        /* \"#utility.yul\":35089:35168   */\n      tag_632\n      tag_258\n      jump\t// in\n    tag_632:\n        /* \"#utility.yul\":35051:35170   */\n    tag_631:\n        /* \"#utility.yul\":35209:35210   */\n      0x00\n        /* \"#utility.yul\":35234:35297   */\n      tag_633\n        /* \"#utility.yul\":35289:35296   */\n      dup5\n        /* \"#utility.yul\":35280:35286   */\n      dup3\n        /* \"#utility.yul\":35269:35278   */\n      dup6\n        /* \"#utility.yul\":35265:35287   */\n      add\n        /* \"#utility.yul\":35234:35297   */\n      tag_326\n      jump\t// in\n    tag_633:\n        /* \"#utility.yul\":35224:35297   */\n      swap2\n      pop\n        /* \"#utility.yul\":35180:35307   */\n      pop\n        /* \"#utility.yul\":34965:35314   */\n      swap3\n      swap2\n      pop\n      pop\n      jump\t// out\n        /* \"#utility.yul\":35320:36182   */\n    tag_241:\n        /* \"#utility.yul\":35571:35575   */\n      0x00\n        /* \"#utility.yul\":35609:35612   */\n      0xc0\n        /* \"#utility.yul\":35598:35607   */\n      dup3\n        /* \"#utility.yul\":35594:35613   */\n      add\n        /* \"#utility.yul\":35586:35613   */\n      swap1\n      pop\n        /* \"#utility.yul\":35623:35694   */\n      tag_635\n        /* \"#utility.yul\":35691:35692   */\n      0x00\n        /* \"#utility.yul\":35680:35689   */\n      dup4\n        /* \"#utility.yul\":35676:35693   */\n      add\n        /* \"#utility.yul\":35667:35673   */\n      dup10\n        /* \"#utility.yul\":35623:35694   */\n      tag_319\n      jump\t// in\n    tag_635:\n        /* \"#utility.yul\":35704:35776   */\n      tag_636\n        /* \"#utility.yul\":35772:35774   */\n      0x20\n        /* \"#utility.yul\":35761:35770   */\n      dup4\n        /* \"#utility.yul\":35757:35775   */\n      add\n        /* \"#utility.yul\":35748:35754   */\n      dup9\n        /* \"#utility.yul\":35704:35776   */\n      tag_319\n      jump\t// in\n    tag_636:\n        /* \"#utility.yul\":35786:35858   */\n      tag_637\n        /* \"#utility.yul\":35854:35856   */\n      0x40\n        /* \"#utility.yul\":35843:35852   */\n      dup4\n        /* \"#utility.yul\":35839:35857   */\n      add\n        /* \"#utility.yul\":35830:35836   */\n      dup8\n        /* \"#utility.yul\":35786:35858   */\n      tag_269\n      jump\t// in\n    tag_637:\n        /* \"#utility.yul\":35868:35940   */\n      tag_638\n        /* \"#utility.yul\":35936:35938   */\n      0x60\n        /* \"#utility.yul\":35925:35934   */\n      dup4\n        /* \"#utility.yul\":35921:35939   */\n      add\n        /* \"#utility.yul\":35912:35918   */\n      dup7\n        /* \"#utility.yul\":35868:35940   */\n      tag_269\n      jump\t// in\n    tag_638:\n        /* \"#utility.yul\":35950:36023   */\n      tag_639\n        /* \"#utility.yul\":36018:36021   */\n      0x80\n        /* \"#utility.yul\":36007:36016   */\n      dup4\n        /* \"#utility.yul\":36003:36022   */\n      add\n        /* \"#utility.yul\":35994:36000   */\n      dup6\n        /* \"#utility.yul\":35950:36023   */\n      tag_269\n      jump\t// in\n    tag_639:\n        /* \"#utility.yul\":36071:36080   */\n      dup2\n        /* \"#utility.yul\":36065:36069   */\n      dup2\n        /* \"#utility.yul\":36061:36081   */\n      sub\n        /* \"#utility.yul\":36055:36058   */\n      0xa0\n        /* \"#utility.yul\":36044:36053   */\n      dup4\n        /* \"#utility.yul\":36040:36059   */\n      add\n        /* \"#utility.yul\":36033:36082   */\n      mstore\n        /* \"#utility.yul\":36099:36175   */\n      tag_640\n        /* \"#utility.yul\":36170:36174   */\n      dup2\n        /* \"#utility.yul\":36161:36167   */\n      dup5\n        /* \"#utility.yul\":36099:36175   */\n      tag_323\n      jump\t// in\n    tag_640:\n        /* \"#utility.yul\":36091:36175   */\n      swap1\n      pop\n        /* \"#utility.yul\":35320:36182   */\n      swap8\n      swap7\n      pop\n      pop\n      pop\n      pop\n      pop\n      pop\n      pop\n      jump\t// out\n\n    auxdata: 0xa2646970667358221220e0d55eb168452833a9975e61cfb0eb611e2a1043a5163dd0ff86c9ae751d11d264736f6c63430008140033\n}\n",
				"bytecode": {
					"linkReferences": {},
					"object": "608060405234801562000010575f80fd5b5060405162002ebd38038062002ebd8339818101604052810190620000369190620001e6565b815f9081620000469190620004a0565b508060019081620000589190620004a0565b50505062000584565b5f604051905090565b5f80fd5b5f80fd5b5f80fd5b5f80fd5b5f601f19601f8301169050919050565b7f4e487b71000000000000000000000000000000000000000000000000000000005f52604160045260245ffd5b620000c2826200007a565b810181811067ffffffffffffffff82111715620000e457620000e36200008a565b5b80604052505050565b5f620000f862000061565b9050620001068282620000b7565b919050565b5f67ffffffffffffffff8211156200012857620001276200008a565b5b62000133826200007a565b9050602081019050919050565b5f5b838110156200015f57808201518184015260208101905062000142565b5f8484015250505050565b5f620001806200017a846200010b565b620000ed565b9050828152602081018484840111156200019f576200019e62000076565b5b620001ac84828562000140565b509392505050565b5f82601f830112620001cb57620001ca62000072565b5b8151620001dd8482602086016200016a565b91505092915050565b5f8060408385031215620001ff57620001fe6200006a565b5b5f83015167ffffffffffffffff8111156200021f576200021e6200006e565b5b6200022d85828601620001b4565b925050602083015167ffffffffffffffff8111156200025157620002506200006e565b5b6200025f85828601620001b4565b9150509250929050565b5f81519050919050565b7f4e487b71000000000000000000000000000000000000000000000000000000005f52602260045260245ffd5b5f6002820490506001821680620002b857607f821691505b602082108103620002ce57620002cd62000273565b5b50919050565b5f819050815f5260205f209050919050565b5f6020601f8301049050919050565b5f82821b905092915050565b5f60088302620003327fffffffffffffffffffffffffffffffffffffffffffffffffffffffffffffffff82620002f5565b6200033e8683620002f5565b95508019841693508086168417925050509392505050565b5f819050919050565b5f819050919050565b5f62000388620003826200037c8462000356565b6200035f565b62000356565b9050919050565b5f819050919050565b620003a38362000368565b620003bb620003b2826200038f565b84845462000301565b825550505050565b5f90565b620003d1620003c3565b620003de81848462000398565b505050565b5b818110156200040557620003f95f82620003c7565b600181019050620003e4565b5050565b601f82111562000454576200041e81620002d4565b6200042984620002e6565b8101602085101562000439578190505b620004516200044885620002e6565b830182620003e3565b50505b505050565b5f82821c905092915050565b5f620004765f198460080262000459565b1980831691505092915050565b5f62000490838362000465565b9150826002028217905092915050565b620004ab8262000269565b67ffffffffffffffff811115620004c757620004c66200008a565b5b620004d38254620002a0565b620004e082828562000409565b5f60209050601f83116001811462000516575f841562000501578287015190505b6200050d858262000483565b8655506200057c565b601f1984166200052686620002d4565b5f5b828110156200054f5784890151825560018201915060208501945060208101905062000528565b868310156200056f57848901516200056b601f89168262000465565b8355505b6001600288020188555050505b505050505050565b61292b80620005925f395ff3fe608060405234801561000f575f80fd5b506004361061009c575f3560e01c806362b264171161006457806362b26417146101905780636b98fd1e146101c05780638536208d146101f0578063a22cb46514610220578063e985e9c51461023c5761009c565b806301b5e494146100a0578063443b63b9146100d05780634aed53c2146101005780634d47fddb146101305780634f4df44214610160575b5f80fd5b6100ba60048036038101906100b5919061173d565b61026c565b6040516100c791906117ce565b60405180910390f35b6100ea60048036038101906100e591906117e7565b610296565b6040516100f7919061185a565b60405180910390f35b61011a6004803603810190610115919061173d565b6102ad565b60405161012791906117ce565b60405180910390f35b61014a600480360381019061014591906119af565b6102c8565b60405161015791906117ce565b60405180910390f35b61017a60048036038101906101759190611a54565b6102e5565b60405161018791906117ce565b60405180910390f35b6101aa60048036038101906101a59190611b6a565b610379565b6040516101b79190611cd1565b60405180910390f35b6101da60048036038101906101d59190611d46565b6104d3565b6040516101e791906117ce565b60405180910390f35b61020a60048036038101906102059190611e50565b610648565b604051610217919061185a565b60405180910390f35b61023a60048036038101906102359190611eca565b6106ae565b005b61025660048036038101906102519190611f08565b6106c4565b60405161026391906117ce565b60405180910390f35b5f610289868686868660405180602001604052805f815250610752565b6001905095945050505050565b5f6102a385858585610790565b9050949350505050565b5f6102bb8686868686610832565b6001905095945050505050565b5f6102d7878787878787610752565b600190509695505050505050565b5f806102ef61086e565b90508073ffffffffffffffffffffffffffffffffffffffff168673ffffffffffffffffffffffffffffffffffffffff160361035f576040517f08c379a000000000000000000000000000000000000000000000000000000000815260040161035690611fa0565b60405180910390fd5b61036c8187878787610875565b6001915050949350505050565b6060848490508787905014801561039557508282905087879050145b6103d4576040517f08c379a00000000000000000000000000000000000000000000000000000000081526004016103cb9061202e565b60405180910390fd5b5f8787905067ffffffffffffffff8111156103f2576103f161188b565b5b6040519080825280602002602001820160405280156104205781602001602082028036833780820191505090505b5090505f5b888890508110156104c4576104948989838181106104465761044561204c565b5b905060200201602081019061045b9190612079565b88888481811061046e5761046d61204c565b5b905060200201358787858181106104885761048761204c565b5b90506020020135610648565b8282815181106104a7576104a661204c565b5b602002602001018181525050806104bd906120d1565b9050610425565b50809150509695505050505050565b5f806104dd61086e565b90506104e98c82610a5c565b610528576040517f08c379a000000000000000000000000000000000000000000000000000000000815260040161051f90612188565b60405180910390fd5b6106398c8c8c8c808060200260200160405190810160405280939291908181526020018383602002808284375f81840152601f19601f820116905080830192505050505050508b8b808060200260200160405190810160405280939291908181526020018383602002808284375f81840152601f19601f820116905080830192505050505050508a8a808060200260200160405190810160405280939291908181526020018383602002808284375f81840152601f19601f8201169050808301925050505050505089898080601f0160208091040260200160405190810160405280939291908181526020018383808284375f81840152601f19601f82011690508083019250505050505050610aa5565b509a9950505050505050505050565b5f60025f8481526020019081526020015f205f8573ffffffffffffffffffffffffffffffffffffffff1673ffffffffffffffffffffffffffffffffffffffff1681526020019081526020015f205f8381526020019081526020015f205490509392505050565b6106c06106b961086e565b8383610e35565b5050565b5f60035f8473ffffffffffffffffffffffffffffffffffffffff1673ffffffffffffffffffffffffffffffffffffffff1681526020019081526020015f205f8373ffffffffffffffffffffffffffffffffffffffff1673ffffffffffffffffffffffffffffffffffffffff1681526020019081526020015f205f9054906101000a900460ff16905092915050565b5f61075b61086e565b90506107678782610a5c565b610779576107788782878787610f9c565b5b61078787878787878761102d565b50505050505050565b5f60045f8673ffffffffffffffffffffffffffffffffffffffff1673ffffffffffffffffffffffffffffffffffffffff1681526020019081526020015f205f8573ffffffffffffffffffffffffffffffffffffffff1673ffffffffffffffffffffffffffffffffffffffff1681526020019081526020015f205f8481526020019081526020015f205f8381526020019081526020015f20549050949350505050565b5f61083b61086e565b90506108478682610a5c565b610859576108588682868686610f9c565b5b610866868686868661108f565b505050505050565b5f33905090565b5f73ffffffffffffffffffffffffffffffffffffffff168573ffffffffffffffffffffffffffffffffffffffff16036108e3576040517f08c379a00000000000000000000000000000000000000000000000000000000081526004016108da90612216565b60405180910390fd5b5f73ffffffffffffffffffffffffffffffffffffffff168473ffffffffffffffffffffffffffffffffffffffff1603610951576040517f08c379a00000000000000000000000000000000000000000000000000000000081526004016109489061227e565b60405180910390fd5b8060045f8773ffffffffffffffffffffffffffffffffffffffff1673ffffffffffffffffffffffffffffffffffffffff1681526020019081526020015f205f8673ffffffffffffffffffffffffffffffffffffffff1673ffffffffffffffffffffffffffffffffffffffff1681526020019081526020015f205f8581526020019081526020015f205f8481526020019081526020015f20819055508373ffffffffffffffffffffffffffffffffffffffff168573ffffffffffffffffffffffffffffffffffffffff167f3a9c85c6b31f7a9d7fe1478f53e1be42e85db97ca30d1789cfef9196dbc472c9858585604051610a4d9392919061229c565b60405180910390a35050505050565b5f8173ffffffffffffffffffffffffffffffffffffffff168373ffffffffffffffffffffffffffffffffffffffff161480610a9d5750610a9c83836106c4565b5b905092915050565b82518451148015610ab7575081518451145b610af6576040517f08c379a0000000000000000000000000000000000000000000000000000000008152600401610aed90612341565b60405180910390fd5b5f73ffffffffffffffffffffffffffffffffffffffff168573ffffffffffffffffffffffffffffffffffffffff1603610b64576040517f08c379a0000000000000000000000000000000000000000000000000000000008152600401610b5b906123cf565b60405180910390fd5b5f610b6d61086e565b90505f5b8551811015610d5e575f868281518110610b8e57610b8d61204c565b5b602002602001015190505f868381518110610bac57610bab61204c565b5b602002602001015190505f868481518110610bca57610bc961204c565b5b602002602001015190505f60025f8581526020019081526020015f205f8d73ffffffffffffffffffffffffffffffffffffffff1673ffffffffffffffffffffffffffffffffffffffff1681526020019081526020015f205f8481526020019081526020015f2054905081811015610c76576040517f08c379a0000000000000000000000000000000000000000000000000000000008152600401610c6d9061245d565b60405180910390fd5b81810360025f8681526020019081526020015f205f8e73ffffffffffffffffffffffffffffffffffffffff1673ffffffffffffffffffffffffffffffffffffffff1681526020019081526020015f205f8581526020019081526020015f20819055508160025f8681526020019081526020015f205f8d73ffffffffffffffffffffffffffffffffffffffff1673ffffffffffffffffffffffffffffffffffffffff1681526020019081526020015f205f8581526020019081526020015f205f828254610d42919061247b565b925050819055505050505080610d57906120d1565b9050610b71565b508573ffffffffffffffffffffffffffffffffffffffff168773ffffffffffffffffffffffffffffffffffffffff168273ffffffffffffffffffffffffffffffffffffffff167ffb75bd3a9b4b3ae2b21dc1a8aad1d9ab156f8d577b05320c9c84bc98780a3752888888604051610dd7939291906124ae565b60405180910390a4610ded878787878787611389565b610e2c576040517f08c379a0000000000000000000000000000000000000000000000000000000008152600401610e2390612568565b60405180910390fd5b50505050505050565b8173ffffffffffffffffffffffffffffffffffffffff168373ffffffffffffffffffffffffffffffffffffffff1603610ea3576040517f08c379a0000000000000000000000000000000000000000000000000000000008152600401610e9a906125d0565b60405180910390fd5b8060035f8573ffffffffffffffffffffffffffffffffffffffff1673ffffffffffffffffffffffffffffffffffffffff1681526020019081526020015f205f8473ffffffffffffffffffffffffffffffffffffffff1673ffffffffffffffffffffffffffffffffffffffff1681526020019081526020015f205f6101000a81548160ff0219169083151502179055508173ffffffffffffffffffffffffffffffffffffffff168373ffffffffffffffffffffffffffffffffffffffff167f17307eab39ab6107e8899845ad3d59bd9653f200f220920489ca2b5937696c3183604051610f8f91906117ce565b60405180910390a3505050565b5f610fa986868686610790565b90507fffffffffffffffffffffffffffffffffffffffffffffffffffffffffffffffff81146110255781811015611015576040517f08c379a000000000000000000000000000000000000000000000000000000000815260040161100c90612638565b60405180910390fd5b61102486868686868603610875565b5b505050505050565b61103a868686868661108f565b61104886868686868661150c565b611087576040517f08c379a000000000000000000000000000000000000000000000000000000000815260040161107e90612568565b60405180910390fd5b505050505050565b5f73ffffffffffffffffffffffffffffffffffffffff168573ffffffffffffffffffffffffffffffffffffffff16036110fd576040517f08c379a00000000000000000000000000000000000000000000000000000000081526004016110f4906126c6565b60405180910390fd5b5f73ffffffffffffffffffffffffffffffffffffffff168473ffffffffffffffffffffffffffffffffffffffff160361116b576040517f08c379a0000000000000000000000000000000000000000000000000000000008152600401611162906123cf565b60405180910390fd5b611187858585858560405180602001604052805f81525061168f565b8060025f8581526020019081526020015f205f8773ffffffffffffffffffffffffffffffffffffffff1673ffffffffffffffffffffffffffffffffffffffff1681526020019081526020015f205f8481526020019081526020015f20541015611225576040517f08c379a000000000000000000000000000000000000000000000000000000000815260040161121c9061245d565b60405180910390fd5b8060025f8581526020019081526020015f205f8773ffffffffffffffffffffffffffffffffffffffff1673ffffffffffffffffffffffffffffffffffffffff1681526020019081526020015f205f8481526020019081526020015f205f82825403925050819055508060025f8581526020019081526020015f205f8673ffffffffffffffffffffffffffffffffffffffff1673ffffffffffffffffffffffffffffffffffffffff1681526020019081526020015f205f8481526020019081526020015f205f8282546112f7919061247b565b92505081905550828473ffffffffffffffffffffffffffffffffffffffff168673ffffffffffffffffffffffffffffffffffffffff167fc817d75deaa278e988c41cf549ef38fe195ab65e0e64cd67ba47f0d185690d58858560405161135e9291906126e4565b60405180910390a4611382858585858560405180602001604052805f815250611697565b5050505050565b5f808673ffffffffffffffffffffffffffffffffffffffff163b11156114fd578573ffffffffffffffffffffffffffffffffffffffff1663c20f1e196113cd61086e565b89888888886040518763ffffffff1660e01b81526004016113f396959493929190612794565b6020604051808303815f875af192505050801561142e57506040513d601f19601f8201168201806040525081019061142b9190612864565b60015b6114ad573d805f811461145c576040519150601f19603f3d011682016040523d82523d5f602084013e611461565b606091505b505f8151036114a5576040517f08c379a000000000000000000000000000000000000000000000000000000000815260040161149c90612568565b60405180910390fd5b805181602001fd5b63c20f1e1960e01b7bffffffffffffffffffffffffffffffffffffffffffffffffffffffff1916817bffffffffffffffffffffffffffffffffffffffffffffffffffffffff191614915050611502565b600190505b9695505050505050565b5f808673ffffffffffffffffffffffffffffffffffffffff163b1115611680578573ffffffffffffffffffffffffffffffffffffffff166319a3675261155061086e565b89888888886040518763ffffffff1660e01b81526004016115769695949392919061288f565b6020604051808303815f875af19250505080156115b157506040513d601f19601f820116820180604052508101906115ae9190612864565b60015b611630573d805f81146115df576040519150601f19603f3d011682016040523d82523d5f602084013e6115e4565b606091505b505f815103611628576040517f08c379a000000000000000000000000000000000000000000000000000000000815260040161161f90612568565b60405180910390fd5b805181602001fd5b6319a3675260e01b7bffffffffffffffffffffffffffffffffffffffffffffffffffffffff1916817bffffffffffffffffffffffffffffffffffffffffffffffffffffffff191614915050611685565b600190505b9695505050505050565b505050505050565b505050505050565b5f604051905090565b5f80fd5b5f80fd5b5f73ffffffffffffffffffffffffffffffffffffffff82169050919050565b5f6116d9826116b0565b9050919050565b6116e9816116cf565b81146116f3575f80fd5b50565b5f81359050611704816116e0565b92915050565b5f819050919050565b61171c8161170a565b8114611726575f80fd5b50565b5f8135905061173781611713565b92915050565b5f805f805f60a08688031215611756576117556116a8565b5b5f611763888289016116f6565b9550506020611774888289016116f6565b945050604061178588828901611729565b935050606061179688828901611729565b92505060806117a788828901611729565b9150509295509295909350565b5f8115159050919050565b6117c8816117b4565b82525050565b5f6020820190506117e15f8301846117bf565b92915050565b5f805f80608085870312156117ff576117fe6116a8565b5b5f61180c878288016116f6565b945050602061181d878288016116f6565b935050604061182e87828801611729565b925050606061183f87828801611729565b91505092959194509250565b6118548161170a565b82525050565b5f60208201905061186d5f83018461184b565b92915050565b5f80fd5b5f80fd5b5f601f19601f8301169050919050565b7f4e487b71000000000000000000000000000000000000000000000000000000005f52604160045260245ffd5b6118c18261187b565b810181811067ffffffffffffffff821117156118e0576118df61188b565b5b80604052505050565b5f6118f261169f565b90506118fe82826118b8565b919050565b5f67ffffffffffffffff82111561191d5761191c61188b565b5b6119268261187b565b9050602081019050919050565b828183375f83830152505050565b5f61195361194e84611903565b6118e9565b90508281526020810184848401111561196f5761196e611877565b5b61197a848285611933565b509392505050565b5f82601f83011261199657611995611873565b5b81356119a6848260208601611941565b91505092915050565b5f805f805f8060c087890312156119c9576119c86116a8565b5b5f6119d689828a016116f6565b96505060206119e789828a016116f6565b95505060406119f889828a01611729565b9450506060611a0989828a01611729565b9350506080611a1a89828a01611729565b92505060a087013567ffffffffffffffff811115611a3b57611a3a6116ac565b5b611a4789828a01611982565b9150509295509295509295565b5f805f8060808587031215611a6c57611a6b6116a8565b5b5f611a79878288016116f6565b9450506020611a8a87828801611729565b9350506040611a9b87828801611729565b9250506060611aac87828801611729565b91505092959194509250565b5f80fd5b5f80fd5b5f8083601f840112611ad557611ad4611873565b5b8235905067ffffffffffffffff811115611af257611af1611ab8565b5b602083019150836020820283011115611b0e57611b0d611abc565b5b9250929050565b5f8083601f840112611b2a57611b29611873565b5b8235905067ffffffffffffffff811115611b4757611b46611ab8565b5b602083019150836020820283011115611b6357611b62611abc565b5b9250929050565b5f805f805f8060608789031215611b8457611b836116a8565b5b5f87013567ffffffffffffffff811115611ba157611ba06116ac565b5b611bad89828a01611ac0565b9650965050602087013567ffffffffffffffff811115611bd057611bcf6116ac565b5b611bdc89828a01611b15565b9450945050604087013567ffffffffffffffff811115611bff57611bfe6116ac565b5b611c0b89828a01611b15565b92509250509295509295509295565b5f81519050919050565b5f82825260208201905092915050565b5f819050602082019050919050565b611c4c8161170a565b82525050565b5f611c5d8383611c43565b60208301905092915050565b5f602082019050919050565b5f611c7f82611c1a565b611c898185611c24565b9350611c9483611c34565b805f5b83811015611cc4578151611cab8882611c52565b9750611cb683611c69565b925050600181019050611c97565b5085935050505092915050565b5f6020820190508181035f830152611ce98184611c75565b905092915050565b5f8083601f840112611d0657611d05611873565b5b8235905067ffffffffffffffff811115611d2357611d22611ab8565b5b602083019150836001820283011115611d3f57611d3e611abc565b5b9250929050565b5f805f805f805f805f8060c08b8d031215611d6457611d636116a8565b5b5f611d718d828e016116f6565b9a50506020611d828d828e016116f6565b99505060408b013567ffffffffffffffff811115611da357611da26116ac565b5b611daf8d828e01611b15565b985098505060608b013567ffffffffffffffff811115611dd257611dd16116ac565b5b611dde8d828e01611b15565b965096505060808b013567ffffffffffffffff811115611e0157611e006116ac565b5b611e0d8d828e01611b15565b945094505060a08b013567ffffffffffffffff811115611e3057611e2f6116ac565b5b611e3c8d828e01611cf1565b92509250509295989b9194979a5092959850565b5f805f60608486031215611e6757611e666116a8565b5b5f611e74868287016116f6565b9350506020611e8586828701611729565b9250506040611e9686828701611729565b9150509250925092565b611ea9816117b4565b8114611eb3575f80fd5b50565b5f81359050611ec481611ea0565b92915050565b5f8060408385031215611ee057611edf6116a8565b5b5f611eed858286016116f6565b9250506020611efe85828601611eb6565b9150509250929050565b5f8060408385031215611f1e57611f1d6116a8565b5b5f611f2b858286016116f6565b9250506020611f3c858286016116f6565b9150509250929050565b5f82825260208201905092915050565b7f444c543a20617070726f76616c20746f2063757272656e74206f776e657200005f82015250565b5f611f8a601e83611f46565b9150611f9582611f56565b602082019050919050565b5f6020820190508181035f830152611fb781611f7e565b9050919050565b7f444c543a206163636f756e74732c206d61696e49647320616e6420696473206c5f8201527f656e677468206d69736d61746368000000000000000000000000000000000000602082015250565b5f612018602e83611f46565b915061202382611fbe565b604082019050919050565b5f6020820190508181035f8301526120458161200c565b9050919050565b7f4e487b71000000000000000000000000000000000000000000000000000000005f52603260045260245ffd5b5f6020828403121561208e5761208d6116a8565b5b5f61209b848285016116f6565b91505092915050565b7f4e487b71000000000000000000000000000000000000000000000000000000005f52601160045260245ffd5b5f6120db8261170a565b91507fffffffffffffffffffffffffffffffffffffffffffffffffffffffffffffffff820361210d5761210c6120a4565b5b600182019050919050565b7f444c543a2063616c6c6572206973206e6f7420746f6b656e206f776e6572206f5f8201527f7220617070726f76656420666f7220616c6c0000000000000000000000000000602082015250565b5f612172603283611f46565b915061217d82612118565b604082019050919050565b5f6020820190508181035f83015261219f81612166565b9050919050565b7f444c543a20617070726f76652066726f6d20746865207a65726f2061646472655f8201527f7373000000000000000000000000000000000000000000000000000000000000602082015250565b5f612200602283611f46565b915061220b826121a6565b604082019050919050565b5f6020820190508181035f83015261222d816121f4565b9050919050565b7f444c543a20617070726f766520746f20746865207a65726f20616464726573735f82015250565b5f612268602083611f46565b915061227382612234565b602082019050919050565b5f6020820190508181035f8301526122958161225c565b9050919050565b5f6060820190506122af5f83018661184b565b6122bc602083018561184b565b6122c9604083018461184b565b949350505050565b7f444c543a206d61696e4964732c2073756249647320616e6420616d6f756e74735f8201527f206c656e677468206d69736d6174636800000000000000000000000000000000602082015250565b5f61232b603083611f46565b9150612336826122d1565b604082019050919050565b5f6020820190508181035f8301526123588161231f565b9050919050565b7f444c543a207472616e7366657220746f20746865207a65726f206164647265735f8201527f7300000000000000000000000000000000000000000000000000000000000000602082015250565b5f6123b9602183611f46565b91506123c48261235f565b604082019050919050565b5f6020820190508181035f8301526123e6816123ad565b9050919050565b7f444c543a20696e73756666696369656e742062616c616e636520666f722074725f8201527f616e736665720000000000000000000000000000000000000000000000000000602082015250565b5f612447602683611f46565b9150612452826123ed565b604082019050919050565b5f6020820190508181035f8301526124748161243b565b9050919050565b5f6124858261170a565b91506124908361170a565b92508282019050808211156124a8576124a76120a4565b5b92915050565b5f6060820190508181035f8301526124c68186611c75565b905081810360208301526124da8185611c75565b905081810360408301526124ee8184611c75565b9050949350505050565b7f444c543a207472616e7366657220746f206e6f6e20444c5452656365697665725f8201527f20696d706c656d656e7465720000000000000000000000000000000000000000602082015250565b5f612552602c83611f46565b915061255d826124f8565b604082019050919050565b5f6020820190508181035f83015261257f81612546565b9050919050565b7f444c543a20617070726f766520746f2063616c6c6572000000000000000000005f82015250565b5f6125ba601683611f46565b91506125c582612586565b602082019050919050565b5f6020820190508181035f8301526125e7816125ae565b9050919050565b7f444c543a20696e73756666696369656e7420616c6c6f77616e636500000000005f82015250565b5f612622601b83611f46565b915061262d826125ee565b602082019050919050565b5f6020820190508181035f83015261264f81612616565b9050919050565b7f444c543a207472616e736665722066726f6d20746865207a65726f20616464725f8201527f6573730000000000000000000000000000000000000000000000000000000000602082015250565b5f6126b0602383611f46565b91506126bb82612656565b604082019050919050565b5f6020820190508181035f8301526126dd816126a4565b9050919050565b5f6040820190506126f75f83018561184b565b612704602083018461184b565b9392505050565b612714816116cf565b82525050565b5f81519050919050565b5f82825260208201905092915050565b5f5b83811015612751578082015181840152602081019050612736565b5f8484015250505050565b5f6127668261271a565b6127708185612724565b9350612780818560208601612734565b6127898161187b565b840191505092915050565b5f60c0820190506127a75f83018961270b565b6127b4602083018861270b565b81810360408301526127c68187611c75565b905081810360608301526127da8186611c75565b905081810360808301526127ee8185611c75565b905081810360a0830152612802818461275c565b9050979650505050505050565b5f7fffffffff0000000000000000000000000000000000000000000000000000000082169050919050565b6128438161280f565b811461284d575f80fd5b50565b5f8151905061285e8161283a565b92915050565b5f60208284031215612879576128786116a8565b5b5f61288684828501612850565b91505092915050565b5f60c0820190506128a25f83018961270b565b6128af602083018861270b565b6128bc604083018761184b565b6128c9606083018661184b565b6128d6608083018561184b565b81810360a08301526128e8818461275c565b905097965050505050505056fea2646970667358221220e0d55eb168452833a9975e61cfb0eb611e2a1043a5163dd0ff86c9ae751d11d264736f6c63430008140033",
					"opcodes": "PUSH1 0x80 PUSH1 0x40 MSTORE CALLVALUE DUP1 ISZERO PUSH3 0x10 JUMPI PUSH0 DUP1 REVERT JUMPDEST POP PUSH1 0x40 MLOAD PUSH3 0x2EBD CODESIZE SUB DUP1 PUSH3 0x2EBD DUP4 CODECOPY DUP2 DUP2 ADD PUSH1 0x40 MSTORE DUP2 ADD SWAP1 PUSH3 0x36 SWAP2 SWAP1 PUSH3 0x1E6 JUMP JUMPDEST DUP2 PUSH0 SWAP1 DUP2 PUSH3 0x46 SWAP2 SWAP1 PUSH3 0x4A0 JUMP JUMPDEST POP DUP1 PUSH1 0x1 SWAP1 DUP2 PUSH3 0x58 SWAP2 SWAP1 PUSH3 0x4A0 JUMP JUMPDEST POP POP POP PUSH3 0x584 JUMP JUMPDEST PUSH0 PUSH1 0x40 MLOAD SWAP1 POP SWAP1 JUMP JUMPDEST PUSH0 DUP1 REVERT JUMPDEST PUSH0 DUP1 REVERT JUMPDEST PUSH0 DUP1 REVERT JUMPDEST PUSH0 DUP1 REVERT JUMPDEST PUSH0 PUSH1 0x1F NOT PUSH1 0x1F DUP4 ADD AND SWAP1 POP SWAP2 SWAP1 POP JUMP JUMPDEST PUSH32 0x4E487B7100000000000000000000000000000000000000000000000000000000 PUSH0 MSTORE PUSH1 0x41 PUSH1 0x4 MSTORE PUSH1 0x24 PUSH0 REVERT JUMPDEST PUSH3 0xC2 DUP3 PUSH3 0x7A JUMP JUMPDEST DUP2 ADD DUP2 DUP2 LT PUSH8 0xFFFFFFFFFFFFFFFF DUP3 GT OR ISZERO PUSH3 0xE4 JUMPI PUSH3 0xE3 PUSH3 0x8A JUMP JUMPDEST JUMPDEST DUP1 PUSH1 0x40 MSTORE POP POP POP JUMP JUMPDEST PUSH0 PUSH3 0xF8 PUSH3 0x61 JUMP JUMPDEST SWAP1 POP PUSH3 0x106 DUP3 DUP3 PUSH3 0xB7 JUMP JUMPDEST SWAP2 SWAP1 POP JUMP JUMPDEST PUSH0 PUSH8 0xFFFFFFFFFFFFFFFF DUP3 GT ISZERO PUSH3 0x128 JUMPI PUSH3 0x127 PUSH3 0x8A JUMP JUMPDEST JUMPDEST PUSH3 0x133 DUP3 PUSH3 0x7A JUMP JUMPDEST SWAP1 POP PUSH1 0x20 DUP2 ADD SWAP1 POP SWAP2 SWAP1 POP JUMP JUMPDEST PUSH0 JUMPDEST DUP4 DUP2 LT ISZERO PUSH3 0x15F JUMPI DUP1 DUP3 ADD MLOAD DUP2 DUP5 ADD MSTORE PUSH1 0x20 DUP2 ADD SWAP1 POP PUSH3 0x142 JUMP JUMPDEST PUSH0 DUP5 DUP5 ADD MSTORE POP POP POP POP JUMP JUMPDEST PUSH0 PUSH3 0x180 PUSH3 0x17A DUP5 PUSH3 0x10B JUMP JUMPDEST PUSH3 0xED JUMP JUMPDEST SWAP1 POP DUP3 DUP2 MSTORE PUSH1 0x20 DUP2 ADD DUP5 DUP5 DUP5 ADD GT ISZERO PUSH3 0x19F JUMPI PUSH3 0x19E PUSH3 0x76 JUMP JUMPDEST JUMPDEST PUSH3 0x1AC DUP5 DUP3 DUP6 PUSH3 0x140 JUMP JUMPDEST POP SWAP4 SWAP3 POP POP POP JUMP JUMPDEST PUSH0 DUP3 PUSH1 0x1F DUP4 ADD SLT PUSH3 0x1CB JUMPI PUSH3 0x1CA PUSH3 0x72 JUMP JUMPDEST JUMPDEST DUP2 MLOAD PUSH3 0x1DD DUP5 DUP3 PUSH1 0x20 DUP7 ADD PUSH3 0x16A JUMP JUMPDEST SWAP2 POP POP SWAP3 SWAP2 POP POP JUMP JUMPDEST PUSH0 DUP1 PUSH1 0x40 DUP4 DUP6 SUB SLT ISZERO PUSH3 0x1FF JUMPI PUSH3 0x1FE PUSH3 0x6A JUMP JUMPDEST JUMPDEST PUSH0 DUP4 ADD MLOAD PUSH8 0xFFFFFFFFFFFFFFFF DUP2 GT ISZERO PUSH3 0x21F JUMPI PUSH3 0x21E PUSH3 0x6E JUMP JUMPDEST JUMPDEST PUSH3 0x22D DUP6 DUP3 DUP7 ADD PUSH3 0x1B4 JUMP JUMPDEST SWAP3 POP POP PUSH1 0x20 DUP4 ADD MLOAD PUSH8 0xFFFFFFFFFFFFFFFF DUP2 GT ISZERO PUSH3 0x251 JUMPI PUSH3 0x250 PUSH3 0x6E JUMP JUMPDEST JUMPDEST PUSH3 0x25F DUP6 DUP3 DUP7 ADD PUSH3 0x1B4 JUMP JUMPDEST SWAP2 POP POP SWAP3 POP SWAP3 SWAP1 POP JUMP JUMPDEST PUSH0 DUP2 MLOAD SWAP1 POP SWAP2 SWAP1 POP JUMP JUMPDEST PUSH32 0x4E487B7100000000000000000000000000000000000000000000000000000000 PUSH0 MSTORE PUSH1 0x22 PUSH1 0x4 MSTORE PUSH1 0x24 PUSH0 REVERT JUMPDEST PUSH0 PUSH1 0x2 DUP3 DIV SWAP1 POP PUSH1 0x1 DUP3 AND DUP1 PUSH3 0x2B8 JUMPI PUSH1 0x7F DUP3 AND SWAP2 POP JUMPDEST PUSH1 0x20 DUP3 LT DUP2 SUB PUSH3 0x2CE JUMPI PUSH3 0x2CD PUSH3 0x273 JUMP JUMPDEST JUMPDEST POP SWAP2 SWAP1 POP JUMP JUMPDEST PUSH0 DUP2 SWAP1 POP DUP2 PUSH0 MSTORE PUSH1 0x20 PUSH0 KECCAK256 SWAP1 POP SWAP2 SWAP1 POP JUMP JUMPDEST PUSH0 PUSH1 0x20 PUSH1 0x1F DUP4 ADD DIV SWAP1 POP SWAP2 SWAP1 POP JUMP JUMPDEST PUSH0 DUP3 DUP3 SHL SWAP1 POP SWAP3 SWAP2 POP POP JUMP JUMPDEST PUSH0 PUSH1 0x8 DUP4 MUL PUSH3 0x332 PUSH32 0xFFFFFFFFFFFFFFFFFFFFFFFFFFFFFFFFFFFFFFFFFFFFFFFFFFFFFFFFFFFFFFFF DUP3 PUSH3 0x2F5 JUMP JUMPDEST PUSH3 0x33E DUP7 DUP4 PUSH3 0x2F5 JUMP JUMPDEST SWAP6 POP DUP1 NOT DUP5 AND SWAP4 POP DUP1 DUP7 AND DUP5 OR SWAP3 POP POP POP SWAP4 SWAP3 POP POP POP JUMP JUMPDEST PUSH0 DUP2 SWAP1 POP SWAP2 SWAP1 POP JUMP JUMPDEST PUSH0 DUP2 SWAP1 POP SWAP2 SWAP1 POP JUMP JUMPDEST PUSH0 PUSH3 0x388 PUSH3 0x382 PUSH3 0x37C DUP5 PUSH3 0x356 JUMP JUMPDEST PUSH3 0x35F JUMP JUMPDEST PUSH3 0x356 JUMP JUMPDEST SWAP1 POP SWAP2 SWAP1 POP JUMP JUMPDEST PUSH0 DUP2 SWAP1 POP SWAP2 SWAP1 POP JUMP JUMPDEST PUSH3 0x3A3 DUP4 PUSH3 0x368 JUMP JUMPDEST PUSH3 0x3BB PUSH3 0x3B2 DUP3 PUSH3 0x38F JUMP JUMPDEST DUP5 DUP5 SLOAD PUSH3 0x301 JUMP JUMPDEST DUP3 SSTORE POP POP POP POP JUMP JUMPDEST PUSH0 SWAP1 JUMP JUMPDEST PUSH3 0x3D1 PUSH3 0x3C3 JUMP JUMPDEST PUSH3 0x3DE DUP2 DUP5 DUP5 PUSH3 0x398 JUMP JUMPDEST POP POP POP JUMP JUMPDEST JUMPDEST DUP2 DUP2 LT ISZERO PUSH3 0x405 JUMPI PUSH3 0x3F9 PUSH0 DUP3 PUSH3 0x3C7 JUMP JUMPDEST PUSH1 0x1 DUP2 ADD SWAP1 POP PUSH3 0x3E4 JUMP JUMPDEST POP POP JUMP JUMPDEST PUSH1 0x1F DUP3 GT ISZERO PUSH3 0x454 JUMPI PUSH3 0x41E DUP2 PUSH3 0x2D4 JUMP JUMPDEST PUSH3 0x429 DUP5 PUSH3 0x2E6 JUMP JUMPDEST DUP2 ADD PUSH1 0x20 DUP6 LT ISZERO PUSH3 0x439 JUMPI DUP2 SWAP1 POP JUMPDEST PUSH3 0x451 PUSH3 0x448 DUP6 PUSH3 0x2E6 JUMP JUMPDEST DUP4 ADD DUP3 PUSH3 0x3E3 JUMP JUMPDEST POP POP JUMPDEST POP POP POP JUMP JUMPDEST PUSH0 DUP3 DUP3 SHR SWAP1 POP SWAP3 SWAP2 POP POP JUMP JUMPDEST PUSH0 PUSH3 0x476 PUSH0 NOT DUP5 PUSH1 0x8 MUL PUSH3 0x459 JUMP JUMPDEST NOT DUP1 DUP4 AND SWAP2 POP POP SWAP3 SWAP2 POP POP JUMP JUMPDEST PUSH0 PUSH3 0x490 DUP4 DUP4 PUSH3 0x465 JUMP JUMPDEST SWAP2 POP DUP3 PUSH1 0x2 MUL DUP3 OR SWAP1 POP SWAP3 SWAP2 POP POP JUMP JUMPDEST PUSH3 0x4AB DUP3 PUSH3 0x269 JUMP JUMPDEST PUSH8 0xFFFFFFFFFFFFFFFF DUP2 GT ISZERO PUSH3 0x4C7 JUMPI PUSH3 0x4C6 PUSH3 0x8A JUMP JUMPDEST JUMPDEST PUSH3 0x4D3 DUP3 SLOAD PUSH3 0x2A0 JUMP JUMPDEST PUSH3 0x4E0 DUP3 DUP3 DUP6 PUSH3 0x409 JUMP JUMPDEST PUSH0 PUSH1 0x20 SWAP1 POP PUSH1 0x1F DUP4 GT PUSH1 0x1 DUP2 EQ PUSH3 0x516 JUMPI PUSH0 DUP5 ISZERO PUSH3 0x501 JUMPI DUP3 DUP8 ADD MLOAD SWAP1 POP JUMPDEST PUSH3 0x50D DUP6 DUP3 PUSH3 0x483 JUMP JUMPDEST DUP7 SSTORE POP PUSH3 0x57C JUMP JUMPDEST PUSH1 0x1F NOT DUP5 AND PUSH3 0x526 DUP7 PUSH3 0x2D4 JUMP JUMPDEST PUSH0 JUMPDEST DUP3 DUP2 LT ISZERO PUSH3 0x54F JUMPI DUP5 DUP10 ADD MLOAD DUP3 SSTORE PUSH1 0x1 DUP3 ADD SWAP2 POP PUSH1 0x20 DUP6 ADD SWAP5 POP PUSH1 0x20 DUP2 ADD SWAP1 POP PUSH3 0x528 JUMP JUMPDEST DUP7 DUP4 LT ISZERO PUSH3 0x56F JUMPI DUP5 DUP10 ADD MLOAD PUSH3 0x56B PUSH1 0x1F DUP10 AND DUP3 PUSH3 0x465 JUMP JUMPDEST DUP4 SSTORE POP JUMPDEST PUSH1 0x1 PUSH1 0x2 DUP9 MUL ADD DUP9 SSTORE POP POP POP JUMPDEST POP POP POP POP POP POP JUMP JUMPDEST PUSH2 0x292B DUP1 PUSH3 0x592 PUSH0 CODECOPY PUSH0 RETURN INVALID PUSH1 0x80 PUSH1 0x40 MSTORE CALLVALUE DUP1 ISZERO PUSH2 0xF JUMPI PUSH0 DUP1 REVERT JUMPDEST POP PUSH1 0x4 CALLDATASIZE LT PUSH2 0x9C JUMPI PUSH0 CALLDATALOAD PUSH1 0xE0 SHR DUP1 PUSH4 0x62B26417 GT PUSH2 0x64 JUMPI DUP1 PUSH4 0x62B26417 EQ PUSH2 0x190 JUMPI DUP1 PUSH4 0x6B98FD1E EQ PUSH2 0x1C0 JUMPI DUP1 PUSH4 0x8536208D EQ PUSH2 0x1F0 JUMPI DUP1 PUSH4 0xA22CB465 EQ PUSH2 0x220 JUMPI DUP1 PUSH4 0xE985E9C5 EQ PUSH2 0x23C JUMPI PUSH2 0x9C JUMP JUMPDEST DUP1 PUSH4 0x1B5E494 EQ PUSH2 0xA0 JUMPI DUP1 PUSH4 0x443B63B9 EQ PUSH2 0xD0 JUMPI DUP1 PUSH4 0x4AED53C2 EQ PUSH2 0x100 JUMPI DUP1 PUSH4 0x4D47FDDB EQ PUSH2 0x130 JUMPI DUP1 PUSH4 0x4F4DF442 EQ PUSH2 0x160 JUMPI JUMPDEST PUSH0 DUP1 REVERT JUMPDEST PUSH2 0xBA PUSH1 0x4 DUP1 CALLDATASIZE SUB DUP2 ADD SWAP1 PUSH2 0xB5 SWAP2 SWAP1 PUSH2 0x173D JUMP JUMPDEST PUSH2 0x26C JUMP JUMPDEST PUSH1 0x40 MLOAD PUSH2 0xC7 SWAP2 SWAP1 PUSH2 0x17CE JUMP JUMPDEST PUSH1 0x40 MLOAD DUP1 SWAP2 SUB SWAP1 RETURN JUMPDEST PUSH2 0xEA PUSH1 0x4 DUP1 CALLDATASIZE SUB DUP2 ADD SWAP1 PUSH2 0xE5 SWAP2 SWAP1 PUSH2 0x17E7 JUMP JUMPDEST PUSH2 0x296 JUMP JUMPDEST PUSH1 0x40 MLOAD PUSH2 0xF7 SWAP2 SWAP1 PUSH2 0x185A JUMP JUMPDEST PUSH1 0x40 MLOAD DUP1 SWAP2 SUB SWAP1 RETURN JUMPDEST PUSH2 0x11A PUSH1 0x4 DUP1 CALLDATASIZE SUB DUP2 ADD SWAP1 PUSH2 0x115 SWAP2 SWAP1 PUSH2 0x173D JUMP JUMPDEST PUSH2 0x2AD JUMP JUMPDEST PUSH1 0x40 MLOAD PUSH2 0x127 SWAP2 SWAP1 PUSH2 0x17CE JUMP JUMPDEST PUSH1 0x40 MLOAD DUP1 SWAP2 SUB SWAP1 RETURN JUMPDEST PUSH2 0x14A PUSH1 0x4 DUP1 CALLDATASIZE SUB DUP2 ADD SWAP1 PUSH2 0x145 SWAP2 SWAP1 PUSH2 0x19AF JUMP JUMPDEST PUSH2 0x2C8 JUMP JUMPDEST PUSH1 0x40 MLOAD PUSH2 0x157 SWAP2 SWAP1 PUSH2 0x17CE JUMP JUMPDEST PUSH1 0x40 MLOAD DUP1 SWAP2 SUB SWAP1 RETURN JUMPDEST PUSH2 0x17A PUSH1 0x4 DUP1 CALLDATASIZE SUB DUP2 ADD SWAP1 PUSH2 0x175 SWAP2 SWAP1 PUSH2 0x1A54 JUMP JUMPDEST PUSH2 0x2E5 JUMP JUMPDEST PUSH1 0x40 MLOAD PUSH2 0x187 SWAP2 SWAP1 PUSH2 0x17CE JUMP JUMPDEST PUSH1 0x40 MLOAD DUP1 SWAP2 SUB SWAP1 RETURN JUMPDEST PUSH2 0x1AA PUSH1 0x4 DUP1 CALLDATASIZE SUB DUP2 ADD SWAP1 PUSH2 0x1A5 SWAP2 SWAP1 PUSH2 0x1B6A JUMP JUMPDEST PUSH2 0x379 JUMP JUMPDEST PUSH1 0x40 MLOAD PUSH2 0x1B7 SWAP2 SWAP1 PUSH2 0x1CD1 JUMP JUMPDEST PUSH1 0x40 MLOAD DUP1 SWAP2 SUB SWAP1 RETURN JUMPDEST PUSH2 0x1DA PUSH1 0x4 DUP1 CALLDATASIZE SUB DUP2 ADD SWAP1 PUSH2 0x1D5 SWAP2 SWAP1 PUSH2 0x1D46 JUMP JUMPDEST PUSH2 0x4D3 JUMP JUMPDEST PUSH1 0x40 MLOAD PUSH2 0x1E7 SWAP2 SWAP1 PUSH2 0x17CE JUMP JUMPDEST PUSH1 0x40 MLOAD DUP1 SWAP2 SUB SWAP1 RETURN JUMPDEST PUSH2 0x20A PUSH1 0x4 DUP1 CALLDATASIZE SUB DUP2 ADD SWAP1 PUSH2 0x205 SWAP2 SWAP1 PUSH2 0x1E50 JUMP JUMPDEST PUSH2 0x648 JUMP JUMPDEST PUSH1 0x40 MLOAD PUSH2 0x217 SWAP2 SWAP1 PUSH2 0x185A JUMP JUMPDEST PUSH1 0x40 MLOAD DUP1 SWAP2 SUB SWAP1 RETURN JUMPDEST PUSH2 0x23A PUSH1 0x4 DUP1 CALLDATASIZE SUB DUP2 ADD SWAP1 PUSH2 0x235 SWAP2 SWAP1 PUSH2 0x1ECA JUMP JUMPDEST PUSH2 0x6AE JUMP JUMPDEST STOP JUMPDEST PUSH2 0x256 PUSH1 0x4 DUP1 CALLDATASIZE SUB DUP2 ADD SWAP1 PUSH2 0x251 SWAP2 SWAP1 PUSH2 0x1F08 JUMP JUMPDEST PUSH2 0x6C4 JUMP JUMPDEST PUSH1 0x40 MLOAD PUSH2 0x263 SWAP2 SWAP1 PUSH2 0x17CE JUMP JUMPDEST PUSH1 0x40 MLOAD DUP1 SWAP2 SUB SWAP1 RETURN JUMPDEST PUSH0 PUSH2 0x289 DUP7 DUP7 DUP7 DUP7 DUP7 PUSH1 0x40 MLOAD DUP1 PUSH1 0x20 ADD PUSH1 0x40 MSTORE DUP1 PUSH0 DUP2 MSTORE POP PUSH2 0x752 JUMP JUMPDEST PUSH1 0x1 SWAP1 POP SWAP6 SWAP5 POP POP POP POP POP JUMP JUMPDEST PUSH0 PUSH2 0x2A3 DUP6 DUP6 DUP6 DUP6 PUSH2 0x790 JUMP JUMPDEST SWAP1 POP SWAP5 SWAP4 POP POP POP POP JUMP JUMPDEST PUSH0 PUSH2 0x2BB DUP7 DUP7 DUP7 DUP7 DUP7 PUSH2 0x832 JUMP JUMPDEST PUSH1 0x1 SWAP1 POP SWAP6 SWAP5 POP POP POP POP POP JUMP JUMPDEST PUSH0 PUSH2 0x2D7 DUP8 DUP8 DUP8 DUP8 DUP8 DUP8 PUSH2 0x752 JUMP JUMPDEST PUSH1 0x1 SWAP1 POP SWAP7 SWAP6 POP POP POP POP POP POP JUMP JUMPDEST PUSH0 DUP1 PUSH2 0x2EF PUSH2 0x86E JUMP JUMPDEST SWAP1 POP DUP1 PUSH20 0xFFFFFFFFFFFFFFFFFFFFFFFFFFFFFFFFFFFFFFFF AND DUP7 PUSH20 0xFFFFFFFFFFFFFFFFFFFFFFFFFFFFFFFFFFFFFFFF AND SUB PUSH2 0x35F JUMPI PUSH1 0x40 MLOAD PUSH32 0x8C379A000000000000000000000000000000000000000000000000000000000 DUP2 MSTORE PUSH1 0x4 ADD PUSH2 0x356 SWAP1 PUSH2 0x1FA0 JUMP JUMPDEST PUSH1 0x40 MLOAD DUP1 SWAP2 SUB SWAP1 REVERT JUMPDEST PUSH2 0x36C DUP2 DUP8 DUP8 DUP8 DUP8 PUSH2 0x875 JUMP JUMPDEST PUSH1 0x1 SWAP2 POP POP SWAP5 SWAP4 POP POP POP POP JUMP JUMPDEST PUSH1 0x60 DUP5 DUP5 SWAP1 POP DUP8 DUP8 SWAP1 POP EQ DUP1 ISZERO PUSH2 0x395 JUMPI POP DUP3 DUP3 SWAP1 POP DUP8 DUP8 SWAP1 POP EQ JUMPDEST PUSH2 0x3D4 JUMPI PUSH1 0x40 MLOAD PUSH32 0x8C379A000000000000000000000000000000000000000000000000000000000 DUP2 MSTORE PUSH1 0x4 ADD PUSH2 0x3CB SWAP1 PUSH2 0x202E JUMP JUMPDEST PUSH1 0x40 MLOAD DUP1 SWAP2 SUB SWAP1 REVERT JUMPDEST PUSH0 DUP8 DUP8 SWAP1 POP PUSH8 0xFFFFFFFFFFFFFFFF DUP2 GT ISZERO PUSH2 0x3F2 JUMPI PUSH2 0x3F1 PUSH2 0x188B JUMP JUMPDEST JUMPDEST PUSH1 0x40 MLOAD SWAP1 DUP1 DUP3 MSTORE DUP1 PUSH1 0x20 MUL PUSH1 0x20 ADD DUP3 ADD PUSH1 0x40 MSTORE DUP1 ISZERO PUSH2 0x420 JUMPI DUP2 PUSH1 0x20 ADD PUSH1 0x20 DUP3 MUL DUP1 CALLDATASIZE DUP4 CALLDATACOPY DUP1 DUP3 ADD SWAP2 POP POP SWAP1 POP JUMPDEST POP SWAP1 POP PUSH0 JUMPDEST DUP9 DUP9 SWAP1 POP DUP2 LT ISZERO PUSH2 0x4C4 JUMPI PUSH2 0x494 DUP10 DUP10 DUP4 DUP2 DUP2 LT PUSH2 0x446 JUMPI PUSH2 0x445 PUSH2 0x204C JUMP JUMPDEST JUMPDEST SWAP1 POP PUSH1 0x20 MUL ADD PUSH1 0x20 DUP2 ADD SWAP1 PUSH2 0x45B SWAP2 SWAP1 PUSH2 0x2079 JUMP JUMPDEST DUP9 DUP9 DUP5 DUP2 DUP2 LT PUSH2 0x46E JUMPI PUSH2 0x46D PUSH2 0x204C JUMP JUMPDEST JUMPDEST SWAP1 POP PUSH1 0x20 MUL ADD CALLDATALOAD DUP8 DUP8 DUP6 DUP2 DUP2 LT PUSH2 0x488 JUMPI PUSH2 0x487 PUSH2 0x204C JUMP JUMPDEST JUMPDEST SWAP1 POP PUSH1 0x20 MUL ADD CALLDATALOAD PUSH2 0x648 JUMP JUMPDEST DUP3 DUP3 DUP2 MLOAD DUP2 LT PUSH2 0x4A7 JUMPI PUSH2 0x4A6 PUSH2 0x204C JUMP JUMPDEST JUMPDEST PUSH1 0x20 MUL PUSH1 0x20 ADD ADD DUP2 DUP2 MSTORE POP POP DUP1 PUSH2 0x4BD SWAP1 PUSH2 0x20D1 JUMP JUMPDEST SWAP1 POP PUSH2 0x425 JUMP JUMPDEST POP DUP1 SWAP2 POP POP SWAP7 SWAP6 POP POP POP POP POP POP JUMP JUMPDEST PUSH0 DUP1 PUSH2 0x4DD PUSH2 0x86E JUMP JUMPDEST SWAP1 POP PUSH2 0x4E9 DUP13 DUP3 PUSH2 0xA5C JUMP JUMPDEST PUSH2 0x528 JUMPI PUSH1 0x40 MLOAD PUSH32 0x8C379A000000000000000000000000000000000000000000000000000000000 DUP2 MSTORE PUSH1 0x4 ADD PUSH2 0x51F SWAP1 PUSH2 0x2188 JUMP JUMPDEST PUSH1 0x40 MLOAD DUP1 SWAP2 SUB SWAP1 REVERT JUMPDEST PUSH2 0x639 DUP13 DUP13 DUP13 DUP13 DUP1 DUP1 PUSH1 0x20 MUL PUSH1 0x20 ADD PUSH1 0x40 MLOAD SWAP1 DUP2 ADD PUSH1 0x40 MSTORE DUP1 SWAP4 SWAP3 SWAP2 SWAP1 DUP2 DUP2 MSTORE PUSH1 0x20 ADD DUP4 DUP4 PUSH1 0x20 MUL DUP1 DUP3 DUP5 CALLDATACOPY PUSH0 DUP2 DUP5 ADD MSTORE PUSH1 0x1F NOT PUSH1 0x1F DUP3 ADD AND SWAP1 POP DUP1 DUP4 ADD SWAP3 POP POP POP POP POP POP POP DUP12 DUP12 DUP1 DUP1 PUSH1 0x20 MUL PUSH1 0x20 ADD PUSH1 0x40 MLOAD SWAP1 DUP2 ADD PUSH1 0x40 MSTORE DUP1 SWAP4 SWAP3 SWAP2 SWAP1 DUP2 DUP2 MSTORE PUSH1 0x20 ADD DUP4 DUP4 PUSH1 0x20 MUL DUP1 DUP3 DUP5 CALLDATACOPY PUSH0 DUP2 DUP5 ADD MSTORE PUSH1 0x1F NOT PUSH1 0x1F DUP3 ADD AND SWAP1 POP DUP1 DUP4 ADD SWAP3 POP POP POP POP POP POP POP DUP11 DUP11 DUP1 DUP1 PUSH1 0x20 MUL PUSH1 0x20 ADD PUSH1 0x40 MLOAD SWAP1 DUP2 ADD PUSH1 0x40 MSTORE DUP1 SWAP4 SWAP3 SWAP2 SWAP1 DUP2 DUP2 MSTORE PUSH1 0x20 ADD DUP4 DUP4 PUSH1 0x20 MUL DUP1 DUP3 DUP5 CALLDATACOPY PUSH0 DUP2 DUP5 ADD MSTORE PUSH1 0x1F NOT PUSH1 0x1F DUP3 ADD AND SWAP1 POP DUP1 DUP4 ADD SWAP3 POP POP POP POP POP POP POP DUP10 DUP10 DUP1 DUP1 PUSH1 0x1F ADD PUSH1 0x20 DUP1 SWAP2 DIV MUL PUSH1 0x20 ADD PUSH1 0x40 MLOAD SWAP1 DUP2 ADD PUSH1 0x40 MSTORE DUP1 SWAP4 SWAP3 SWAP2 SWAP1 DUP2 DUP2 MSTORE PUSH1 0x20 ADD DUP4 DUP4 DUP1 DUP3 DUP5 CALLDATACOPY PUSH0 DUP2 DUP5 ADD MSTORE PUSH1 0x1F NOT PUSH1 0x1F DUP3 ADD AND SWAP1 POP DUP1 DUP4 ADD SWAP3 POP POP POP POP POP POP POP PUSH2 0xAA5 JUMP JUMPDEST POP SWAP11 SWAP10 POP POP POP POP POP POP POP POP POP POP JUMP JUMPDEST PUSH0 PUSH1 0x2 PUSH0 DUP5 DUP2 MSTORE PUSH1 0x20 ADD SWAP1 DUP2 MSTORE PUSH1 0x20 ADD PUSH0 KECCAK256 PUSH0 DUP6 PUSH20 0xFFFFFFFFFFFFFFFFFFFFFFFFFFFFFFFFFFFFFFFF AND PUSH20 0xFFFFFFFFFFFFFFFFFFFFFFFFFFFFFFFFFFFFFFFF AND DUP2 MSTORE PUSH1 0x20 ADD SWAP1 DUP2 MSTORE PUSH1 0x20 ADD PUSH0 KECCAK256 PUSH0 DUP4 DUP2 MSTORE PUSH1 0x20 ADD SWAP1 DUP2 MSTORE PUSH1 0x20 ADD PUSH0 KECCAK256 SLOAD SWAP1 POP SWAP4 SWAP3 POP POP POP JUMP JUMPDEST PUSH2 0x6C0 PUSH2 0x6B9 PUSH2 0x86E JUMP JUMPDEST DUP4 DUP4 PUSH2 0xE35 JUMP JUMPDEST POP POP JUMP JUMPDEST PUSH0 PUSH1 0x3 PUSH0 DUP5 PUSH20 0xFFFFFFFFFFFFFFFFFFFFFFFFFFFFFFFFFFFFFFFF AND PUSH20 0xFFFFFFFFFFFFFFFFFFFFFFFFFFFFFFFFFFFFFFFF AND DUP2 MSTORE PUSH1 0x20 ADD SWAP1 DUP2 MSTORE PUSH1 0x20 ADD PUSH0 KECCAK256 PUSH0 DUP4 PUSH20 0xFFFFFFFFFFFFFFFFFFFFFFFFFFFFFFFFFFFFFFFF AND PUSH20 0xFFFFFFFFFFFFFFFFFFFFFFFFFFFFFFFFFFFFFFFF AND DUP2 MSTORE PUSH1 0x20 ADD SWAP1 DUP2 MSTORE PUSH1 0x20 ADD PUSH0 KECCAK256 PUSH0 SWAP1 SLOAD SWAP1 PUSH2 0x100 EXP SWAP1 DIV PUSH1 0xFF AND SWAP1 POP SWAP3 SWAP2 POP POP JUMP JUMPDEST PUSH0 PUSH2 0x75B PUSH2 0x86E JUMP JUMPDEST SWAP1 POP PUSH2 0x767 DUP8 DUP3 PUSH2 0xA5C JUMP JUMPDEST PUSH2 0x779 JUMPI PUSH2 0x778 DUP8 DUP3 DUP8 DUP8 DUP8 PUSH2 0xF9C JUMP JUMPDEST JUMPDEST PUSH2 0x787 DUP8 DUP8 DUP8 DUP8 DUP8 DUP8 PUSH2 0x102D JUMP JUMPDEST POP POP POP POP POP POP POP JUMP JUMPDEST PUSH0 PUSH1 0x4 PUSH0 DUP7 PUSH20 0xFFFFFFFFFFFFFFFFFFFFFFFFFFFFFFFFFFFFFFFF AND PUSH20 0xFFFFFFFFFFFFFFFFFFFFFFFFFFFFFFFFFFFFFFFF AND DUP2 MSTORE PUSH1 0x20 ADD SWAP1 DUP2 MSTORE PUSH1 0x20 ADD PUSH0 KECCAK256 PUSH0 DUP6 PUSH20 0xFFFFFFFFFFFFFFFFFFFFFFFFFFFFFFFFFFFFFFFF AND PUSH20 0xFFFFFFFFFFFFFFFFFFFFFFFFFFFFFFFFFFFFFFFF AND DUP2 MSTORE PUSH1 0x20 ADD SWAP1 DUP2 MSTORE PUSH1 0x20 ADD PUSH0 KECCAK256 PUSH0 DUP5 DUP2 MSTORE PUSH1 0x20 ADD SWAP1 DUP2 MSTORE PUSH1 0x20 ADD PUSH0 KECCAK256 PUSH0 DUP4 DUP2 MSTORE PUSH1 0x20 ADD SWAP1 DUP2 MSTORE PUSH1 0x20 ADD PUSH0 KECCAK256 SLOAD SWAP1 POP SWAP5 SWAP4 POP POP POP POP JUMP JUMPDEST PUSH0 PUSH2 0x83B PUSH2 0x86E JUMP JUMPDEST SWAP1 POP PUSH2 0x847 DUP7 DUP3 PUSH2 0xA5C JUMP JUMPDEST PUSH2 0x859 JUMPI PUSH2 0x858 DUP7 DUP3 DUP7 DUP7 DUP7 PUSH2 0xF9C JUMP JUMPDEST JUMPDEST PUSH2 0x866 DUP7 DUP7 DUP7 DUP7 DUP7 PUSH2 0x108F JUMP JUMPDEST POP POP POP POP POP POP JUMP JUMPDEST PUSH0 CALLER SWAP1 POP SWAP1 JUMP JUMPDEST PUSH0 PUSH20 0xFFFFFFFFFFFFFFFFFFFFFFFFFFFFFFFFFFFFFFFF AND DUP6 PUSH20 0xFFFFFFFFFFFFFFFFFFFFFFFFFFFFFFFFFFFFFFFF AND SUB PUSH2 0x8E3 JUMPI PUSH1 0x40 MLOAD PUSH32 0x8C379A000000000000000000000000000000000000000000000000000000000 DUP2 MSTORE PUSH1 0x4 ADD PUSH2 0x8DA SWAP1 PUSH2 0x2216 JUMP JUMPDEST PUSH1 0x40 MLOAD DUP1 SWAP2 SUB SWAP1 REVERT JUMPDEST PUSH0 PUSH20 0xFFFFFFFFFFFFFFFFFFFFFFFFFFFFFFFFFFFFFFFF AND DUP5 PUSH20 0xFFFFFFFFFFFFFFFFFFFFFFFFFFFFFFFFFFFFFFFF AND SUB PUSH2 0x951 JUMPI PUSH1 0x40 MLOAD PUSH32 0x8C379A000000000000000000000000000000000000000000000000000000000 DUP2 MSTORE PUSH1 0x4 ADD PUSH2 0x948 SWAP1 PUSH2 0x227E JUMP JUMPDEST PUSH1 0x40 MLOAD DUP1 SWAP2 SUB SWAP1 REVERT JUMPDEST DUP1 PUSH1 0x4 PUSH0 DUP8 PUSH20 0xFFFFFFFFFFFFFFFFFFFFFFFFFFFFFFFFFFFFFFFF AND PUSH20 0xFFFFFFFFFFFFFFFFFFFFFFFFFFFFFFFFFFFFFFFF AND DUP2 MSTORE PUSH1 0x20 ADD SWAP1 DUP2 MSTORE PUSH1 0x20 ADD PUSH0 KECCAK256 PUSH0 DUP7 PUSH20 0xFFFFFFFFFFFFFFFFFFFFFFFFFFFFFFFFFFFFFFFF AND PUSH20 0xFFFFFFFFFFFFFFFFFFFFFFFFFFFFFFFFFFFFFFFF AND DUP2 MSTORE PUSH1 0x20 ADD SWAP1 DUP2 MSTORE PUSH1 0x20 ADD PUSH0 KECCAK256 PUSH0 DUP6 DUP2 MSTORE PUSH1 0x20 ADD SWAP1 DUP2 MSTORE PUSH1 0x20 ADD PUSH0 KECCAK256 PUSH0 DUP5 DUP2 MSTORE PUSH1 0x20 ADD SWAP1 DUP2 MSTORE PUSH1 0x20 ADD PUSH0 KECCAK256 DUP2 SWAP1 SSTORE POP DUP4 PUSH20 0xFFFFFFFFFFFFFFFFFFFFFFFFFFFFFFFFFFFFFFFF AND DUP6 PUSH20 0xFFFFFFFFFFFFFFFFFFFFFFFFFFFFFFFFFFFFFFFF AND PUSH32 0x3A9C85C6B31F7A9D7FE1478F53E1BE42E85DB97CA30D1789CFEF9196DBC472C9 DUP6 DUP6 DUP6 PUSH1 0x40 MLOAD PUSH2 0xA4D SWAP4 SWAP3 SWAP2 SWAP1 PUSH2 0x229C JUMP JUMPDEST PUSH1 0x40 MLOAD DUP1 SWAP2 SUB SWAP1 LOG3 POP POP POP POP POP JUMP JUMPDEST PUSH0 DUP2 PUSH20 0xFFFFFFFFFFFFFFFFFFFFFFFFFFFFFFFFFFFFFFFF AND DUP4 PUSH20 0xFFFFFFFFFFFFFFFFFFFFFFFFFFFFFFFFFFFFFFFF AND EQ DUP1 PUSH2 0xA9D JUMPI POP PUSH2 0xA9C DUP4 DUP4 PUSH2 0x6C4 JUMP JUMPDEST JUMPDEST SWAP1 POP SWAP3 SWAP2 POP POP JUMP JUMPDEST DUP3 MLOAD DUP5 MLOAD EQ DUP1 ISZERO PUSH2 0xAB7 JUMPI POP DUP2 MLOAD DUP5 MLOAD EQ JUMPDEST PUSH2 0xAF6 JUMPI PUSH1 0x40 MLOAD PUSH32 0x8C379A000000000000000000000000000000000000000000000000000000000 DUP2 MSTORE PUSH1 0x4 ADD PUSH2 0xAED SWAP1 PUSH2 0x2341 JUMP JUMPDEST PUSH1 0x40 MLOAD DUP1 SWAP2 SUB SWAP1 REVERT JUMPDEST PUSH0 PUSH20 0xFFFFFFFFFFFFFFFFFFFFFFFFFFFFFFFFFFFFFFFF AND DUP6 PUSH20 0xFFFFFFFFFFFFFFFFFFFFFFFFFFFFFFFFFFFFFFFF AND SUB PUSH2 0xB64 JUMPI PUSH1 0x40 MLOAD PUSH32 0x8C379A000000000000000000000000000000000000000000000000000000000 DUP2 MSTORE PUSH1 0x4 ADD PUSH2 0xB5B SWAP1 PUSH2 0x23CF JUMP JUMPDEST PUSH1 0x40 MLOAD DUP1 SWAP2 SUB SWAP1 REVERT JUMPDEST PUSH0 PUSH2 0xB6D PUSH2 0x86E JUMP JUMPDEST SWAP1 POP PUSH0 JUMPDEST DUP6 MLOAD DUP2 LT ISZERO PUSH2 0xD5E JUMPI PUSH0 DUP7 DUP3 DUP2 MLOAD DUP2 LT PUSH2 0xB8E JUMPI PUSH2 0xB8D PUSH2 0x204C JUMP JUMPDEST JUMPDEST PUSH1 0x20 MUL PUSH1 0x20 ADD ADD MLOAD SWAP1 POP PUSH0 DUP7 DUP4 DUP2 MLOAD DUP2 LT PUSH2 0xBAC JUMPI PUSH2 0xBAB PUSH2 0x204C JUMP JUMPDEST JUMPDEST PUSH1 0x20 MUL PUSH1 0x20 ADD ADD MLOAD SWAP1 POP PUSH0 DUP7 DUP5 DUP2 MLOAD DUP2 LT PUSH2 0xBCA JUMPI PUSH2 0xBC9 PUSH2 0x204C JUMP JUMPDEST JUMPDEST PUSH1 0x20 MUL PUSH1 0x20 ADD ADD MLOAD SWAP1 POP PUSH0 PUSH1 0x2 PUSH0 DUP6 DUP2 MSTORE PUSH1 0x20 ADD SWAP1 DUP2 MSTORE PUSH1 0x20 ADD PUSH0 KECCAK256 PUSH0 DUP14 PUSH20 0xFFFFFFFFFFFFFFFFFFFFFFFFFFFFFFFFFFFFFFFF AND PUSH20 0xFFFFFFFFFFFFFFFFFFFFFFFFFFFFFFFFFFFFFFFF AND DUP2 MSTORE PUSH1 0x20 ADD SWAP1 DUP2 MSTORE PUSH1 0x20 ADD PUSH0 KECCAK256 PUSH0 DUP5 DUP2 MSTORE PUSH1 0x20 ADD SWAP1 DUP2 MSTORE PUSH1 0x20 ADD PUSH0 KECCAK256 SLOAD SWAP1 POP DUP2 DUP2 LT ISZERO PUSH2 0xC76 JUMPI PUSH1 0x40 MLOAD PUSH32 0x8C379A000000000000000000000000000000000000000000000000000000000 DUP2 MSTORE PUSH1 0x4 ADD PUSH2 0xC6D SWAP1 PUSH2 0x245D JUMP JUMPDEST PUSH1 0x40 MLOAD DUP1 SWAP2 SUB SWAP1 REVERT JUMPDEST DUP2 DUP2 SUB PUSH1 0x2 PUSH0 DUP7 DUP2 MSTORE PUSH1 0x20 ADD SWAP1 DUP2 MSTORE PUSH1 0x20 ADD PUSH0 KECCAK256 PUSH0 DUP15 PUSH20 0xFFFFFFFFFFFFFFFFFFFFFFFFFFFFFFFFFFFFFFFF AND PUSH20 0xFFFFFFFFFFFFFFFFFFFFFFFFFFFFFFFFFFFFFFFF AND DUP2 MSTORE PUSH1 0x20 ADD SWAP1 DUP2 MSTORE PUSH1 0x20 ADD PUSH0 KECCAK256 PUSH0 DUP6 DUP2 MSTORE PUSH1 0x20 ADD SWAP1 DUP2 MSTORE PUSH1 0x20 ADD PUSH0 KECCAK256 DUP2 SWAP1 SSTORE POP DUP2 PUSH1 0x2 PUSH0 DUP7 DUP2 MSTORE PUSH1 0x20 ADD SWAP1 DUP2 MSTORE PUSH1 0x20 ADD PUSH0 KECCAK256 PUSH0 DUP14 PUSH20 0xFFFFFFFFFFFFFFFFFFFFFFFFFFFFFFFFFFFFFFFF AND PUSH20 0xFFFFFFFFFFFFFFFFFFFFFFFFFFFFFFFFFFFFFFFF AND DUP2 MSTORE PUSH1 0x20 ADD SWAP1 DUP2 MSTORE PUSH1 0x20 ADD PUSH0 KECCAK256 PUSH0 DUP6 DUP2 MSTORE PUSH1 0x20 ADD SWAP1 DUP2 MSTORE PUSH1 0x20 ADD PUSH0 KECCAK256 PUSH0 DUP3 DUP3 SLOAD PUSH2 0xD42 SWAP2 SWAP1 PUSH2 0x247B JUMP JUMPDEST SWAP3 POP POP DUP2 SWAP1 SSTORE POP POP POP POP POP DUP1 PUSH2 0xD57 SWAP1 PUSH2 0x20D1 JUMP JUMPDEST SWAP1 POP PUSH2 0xB71 JUMP JUMPDEST POP DUP6 PUSH20 0xFFFFFFFFFFFFFFFFFFFFFFFFFFFFFFFFFFFFFFFF AND DUP8 PUSH20 0xFFFFFFFFFFFFFFFFFFFFFFFFFFFFFFFFFFFFFFFF AND DUP3 PUSH20 0xFFFFFFFFFFFFFFFFFFFFFFFFFFFFFFFFFFFFFFFF AND PUSH32 0xFB75BD3A9B4B3AE2B21DC1A8AAD1D9AB156F8D577B05320C9C84BC98780A3752 DUP9 DUP9 DUP9 PUSH1 0x40 MLOAD PUSH2 0xDD7 SWAP4 SWAP3 SWAP2 SWAP1 PUSH2 0x24AE JUMP JUMPDEST PUSH1 0x40 MLOAD DUP1 SWAP2 SUB SWAP1 LOG4 PUSH2 0xDED DUP8 DUP8 DUP8 DUP8 DUP8 DUP8 PUSH2 0x1389 JUMP JUMPDEST PUSH2 0xE2C JUMPI PUSH1 0x40 MLOAD PUSH32 0x8C379A000000000000000000000000000000000000000000000000000000000 DUP2 MSTORE PUSH1 0x4 ADD PUSH2 0xE23 SWAP1 PUSH2 0x2568 JUMP JUMPDEST PUSH1 0x40 MLOAD DUP1 SWAP2 SUB SWAP1 REVERT JUMPDEST POP POP POP POP POP POP POP JUMP JUMPDEST DUP2 PUSH20 0xFFFFFFFFFFFFFFFFFFFFFFFFFFFFFFFFFFFFFFFF AND DUP4 PUSH20 0xFFFFFFFFFFFFFFFFFFFFFFFFFFFFFFFFFFFFFFFF AND SUB PUSH2 0xEA3 JUMPI PUSH1 0x40 MLOAD PUSH32 0x8C379A000000000000000000000000000000000000000000000000000000000 DUP2 MSTORE PUSH1 0x4 ADD PUSH2 0xE9A SWAP1 PUSH2 0x25D0 JUMP JUMPDEST PUSH1 0x40 MLOAD DUP1 SWAP2 SUB SWAP1 REVERT JUMPDEST DUP1 PUSH1 0x3 PUSH0 DUP6 PUSH20 0xFFFFFFFFFFFFFFFFFFFFFFFFFFFFFFFFFFFFFFFF AND PUSH20 0xFFFFFFFFFFFFFFFFFFFFFFFFFFFFFFFFFFFFFFFF AND DUP2 MSTORE PUSH1 0x20 ADD SWAP1 DUP2 MSTORE PUSH1 0x20 ADD PUSH0 KECCAK256 PUSH0 DUP5 PUSH20 0xFFFFFFFFFFFFFFFFFFFFFFFFFFFFFFFFFFFFFFFF AND PUSH20 0xFFFFFFFFFFFFFFFFFFFFFFFFFFFFFFFFFFFFFFFF AND DUP2 MSTORE PUSH1 0x20 ADD SWAP1 DUP2 MSTORE PUSH1 0x20 ADD PUSH0 KECCAK256 PUSH0 PUSH2 0x100 EXP DUP2 SLOAD DUP2 PUSH1 0xFF MUL NOT AND SWAP1 DUP4 ISZERO ISZERO MUL OR SWAP1 SSTORE POP DUP2 PUSH20 0xFFFFFFFFFFFFFFFFFFFFFFFFFFFFFFFFFFFFFFFF AND DUP4 PUSH20 0xFFFFFFFFFFFFFFFFFFFFFFFFFFFFFFFFFFFFFFFF AND PUSH32 0x17307EAB39AB6107E8899845AD3D59BD9653F200F220920489CA2B5937696C31 DUP4 PUSH1 0x40 MLOAD PUSH2 0xF8F SWAP2 SWAP1 PUSH2 0x17CE JUMP JUMPDEST PUSH1 0x40 MLOAD DUP1 SWAP2 SUB SWAP1 LOG3 POP POP POP JUMP JUMPDEST PUSH0 PUSH2 0xFA9 DUP7 DUP7 DUP7 DUP7 PUSH2 0x790 JUMP JUMPDEST SWAP1 POP PUSH32 0xFFFFFFFFFFFFFFFFFFFFFFFFFFFFFFFFFFFFFFFFFFFFFFFFFFFFFFFFFFFFFFFF DUP2 EQ PUSH2 0x1025 JUMPI DUP2 DUP2 LT ISZERO PUSH2 0x1015 JUMPI PUSH1 0x40 MLOAD PUSH32 0x8C379A000000000000000000000000000000000000000000000000000000000 DUP2 MSTORE PUSH1 0x4 ADD PUSH2 0x100C SWAP1 PUSH2 0x2638 JUMP JUMPDEST PUSH1 0x40 MLOAD DUP1 SWAP2 SUB SWAP1 REVERT JUMPDEST PUSH2 0x1024 DUP7 DUP7 DUP7 DUP7 DUP7 DUP7 SUB PUSH2 0x875 JUMP JUMPDEST JUMPDEST POP POP POP POP POP POP JUMP JUMPDEST PUSH2 0x103A DUP7 DUP7 DUP7 DUP7 DUP7 PUSH2 0x108F JUMP JUMPDEST PUSH2 0x1048 DUP7 DUP7 DUP7 DUP7 DUP7 DUP7 PUSH2 0x150C JUMP JUMPDEST PUSH2 0x1087 JUMPI PUSH1 0x40 MLOAD PUSH32 0x8C379A000000000000000000000000000000000000000000000000000000000 DUP2 MSTORE PUSH1 0x4 ADD PUSH2 0x107E SWAP1 PUSH2 0x2568 JUMP JUMPDEST PUSH1 0x40 MLOAD DUP1 SWAP2 SUB SWAP1 REVERT JUMPDEST POP POP POP POP POP POP JUMP JUMPDEST PUSH0 PUSH20 0xFFFFFFFFFFFFFFFFFFFFFFFFFFFFFFFFFFFFFFFF AND DUP6 PUSH20 0xFFFFFFFFFFFFFFFFFFFFFFFFFFFFFFFFFFFFFFFF AND SUB PUSH2 0x10FD JUMPI PUSH1 0x40 MLOAD PUSH32 0x8C379A000000000000000000000000000000000000000000000000000000000 DUP2 MSTORE PUSH1 0x4 ADD PUSH2 0x10F4 SWAP1 PUSH2 0x26C6 JUMP JUMPDEST PUSH1 0x40 MLOAD DUP1 SWAP2 SUB SWAP1 REVERT JUMPDEST PUSH0 PUSH20 0xFFFFFFFFFFFFFFFFFFFFFFFFFFFFFFFFFFFFFFFF AND DUP5 PUSH20 0xFFFFFFFFFFFFFFFFFFFFFFFFFFFFFFFFFFFFFFFF AND SUB PUSH2 0x116B JUMPI PUSH1 0x40 MLOAD PUSH32 0x8C379A000000000000000000000000000000000000000000000000000000000 DUP2 MSTORE PUSH1 0x4 ADD PUSH2 0x1162 SWAP1 PUSH2 0x23CF JUMP JUMPDEST PUSH1 0x40 MLOAD DUP1 SWAP2 SUB SWAP1 REVERT JUMPDEST PUSH2 0x1187 DUP6 DUP6 DUP6 DUP6 DUP6 PUSH1 0x40 MLOAD DUP1 PUSH1 0x20 ADD PUSH1 0x40 MSTORE DUP1 PUSH0 DUP2 MSTORE POP PUSH2 0x168F JUMP JUMPDEST DUP1 PUSH1 0x2 PUSH0 DUP6 DUP2 MSTORE PUSH1 0x20 ADD SWAP1 DUP2 MSTORE PUSH1 0x20 ADD PUSH0 KECCAK256 PUSH0 DUP8 PUSH20 0xFFFFFFFFFFFFFFFFFFFFFFFFFFFFFFFFFFFFFFFF AND PUSH20 0xFFFFFFFFFFFFFFFFFFFFFFFFFFFFFFFFFFFFFFFF AND DUP2 MSTORE PUSH1 0x20 ADD SWAP1 DUP2 MSTORE PUSH1 0x20 ADD PUSH0 KECCAK256 PUSH0 DUP5 DUP2 MSTORE PUSH1 0x20 ADD SWAP1 DUP2 MSTORE PUSH1 0x20 ADD PUSH0 KECCAK256 SLOAD LT ISZERO PUSH2 0x1225 JUMPI PUSH1 0x40 MLOAD PUSH32 0x8C379A000000000000000000000000000000000000000000000000000000000 DUP2 MSTORE PUSH1 0x4 ADD PUSH2 0x121C SWAP1 PUSH2 0x245D JUMP JUMPDEST PUSH1 0x40 MLOAD DUP1 SWAP2 SUB SWAP1 REVERT JUMPDEST DUP1 PUSH1 0x2 PUSH0 DUP6 DUP2 MSTORE PUSH1 0x20 ADD SWAP1 DUP2 MSTORE PUSH1 0x20 ADD PUSH0 KECCAK256 PUSH0 DUP8 PUSH20 0xFFFFFFFFFFFFFFFFFFFFFFFFFFFFFFFFFFFFFFFF AND PUSH20 0xFFFFFFFFFFFFFFFFFFFFFFFFFFFFFFFFFFFFFFFF AND DUP2 MSTORE PUSH1 0x20 ADD SWAP1 DUP2 MSTORE PUSH1 0x20 ADD PUSH0 KECCAK256 PUSH0 DUP5 DUP2 MSTORE PUSH1 0x20 ADD SWAP1 DUP2 MSTORE PUSH1 0x20 ADD PUSH0 KECCAK256 PUSH0 DUP3 DUP3 SLOAD SUB SWAP3 POP POP DUP2 SWAP1 SSTORE POP DUP1 PUSH1 0x2 PUSH0 DUP6 DUP2 MSTORE PUSH1 0x20 ADD SWAP1 DUP2 MSTORE PUSH1 0x20 ADD PUSH0 KECCAK256 PUSH0 DUP7 PUSH20 0xFFFFFFFFFFFFFFFFFFFFFFFFFFFFFFFFFFFFFFFF AND PUSH20 0xFFFFFFFFFFFFFFFFFFFFFFFFFFFFFFFFFFFFFFFF AND DUP2 MSTORE PUSH1 0x20 ADD SWAP1 DUP2 MSTORE PUSH1 0x20 ADD PUSH0 KECCAK256 PUSH0 DUP5 DUP2 MSTORE PUSH1 0x20 ADD SWAP1 DUP2 MSTORE PUSH1 0x20 ADD PUSH0 KECCAK256 PUSH0 DUP3 DUP3 SLOAD PUSH2 0x12F7 SWAP2 SWAP1 PUSH2 0x247B JUMP JUMPDEST SWAP3 POP POP DUP2 SWAP1 SSTORE POP DUP3 DUP5 PUSH20 0xFFFFFFFFFFFFFFFFFFFFFFFFFFFFFFFFFFFFFFFF AND DUP7 PUSH20 0xFFFFFFFFFFFFFFFFFFFFFFFFFFFFFFFFFFFFFFFF AND PUSH32 0xC817D75DEAA278E988C41CF549EF38FE195AB65E0E64CD67BA47F0D185690D58 DUP6 DUP6 PUSH1 0x40 MLOAD PUSH2 0x135E SWAP3 SWAP2 SWAP1 PUSH2 0x26E4 JUMP JUMPDEST PUSH1 0x40 MLOAD DUP1 SWAP2 SUB SWAP1 LOG4 PUSH2 0x1382 DUP6 DUP6 DUP6 DUP6 DUP6 PUSH1 0x40 MLOAD DUP1 PUSH1 0x20 ADD PUSH1 0x40 MSTORE DUP1 PUSH0 DUP2 MSTORE POP PUSH2 0x1697 JUMP JUMPDEST POP POP POP POP POP JUMP JUMPDEST PUSH0 DUP1 DUP7 PUSH20 0xFFFFFFFFFFFFFFFFFFFFFFFFFFFFFFFFFFFFFFFF AND EXTCODESIZE GT ISZERO PUSH2 0x14FD JUMPI DUP6 PUSH20 0xFFFFFFFFFFFFFFFFFFFFFFFFFFFFFFFFFFFFFFFF AND PUSH4 0xC20F1E19 PUSH2 0x13CD PUSH2 0x86E JUMP JUMPDEST DUP10 DUP9 DUP9 DUP9 DUP9 PUSH1 0x40 MLOAD DUP8 PUSH4 0xFFFFFFFF AND PUSH1 0xE0 SHL DUP2 MSTORE PUSH1 0x4 ADD PUSH2 0x13F3 SWAP7 SWAP6 SWAP5 SWAP4 SWAP3 SWAP2 SWAP1 PUSH2 0x2794 JUMP JUMPDEST PUSH1 0x20 PUSH1 0x40 MLOAD DUP1 DUP4 SUB DUP2 PUSH0 DUP8 GAS CALL SWAP3 POP POP POP DUP1 ISZERO PUSH2 0x142E JUMPI POP PUSH1 0x40 MLOAD RETURNDATASIZE PUSH1 0x1F NOT PUSH1 0x1F DUP3 ADD AND DUP3 ADD DUP1 PUSH1 0x40 MSTORE POP DUP2 ADD SWAP1 PUSH2 0x142B SWAP2 SWAP1 PUSH2 0x2864 JUMP JUMPDEST PUSH1 0x1 JUMPDEST PUSH2 0x14AD JUMPI RETURNDATASIZE DUP1 PUSH0 DUP2 EQ PUSH2 0x145C JUMPI PUSH1 0x40 MLOAD SWAP2 POP PUSH1 0x1F NOT PUSH1 0x3F RETURNDATASIZE ADD AND DUP3 ADD PUSH1 0x40 MSTORE RETURNDATASIZE DUP3 MSTORE RETURNDATASIZE PUSH0 PUSH1 0x20 DUP5 ADD RETURNDATACOPY PUSH2 0x1461 JUMP JUMPDEST PUSH1 0x60 SWAP2 POP JUMPDEST POP PUSH0 DUP2 MLOAD SUB PUSH2 0x14A5 JUMPI PUSH1 0x40 MLOAD PUSH32 0x8C379A000000000000000000000000000000000000000000000000000000000 DUP2 MSTORE PUSH1 0x4 ADD PUSH2 0x149C SWAP1 PUSH2 0x2568 JUMP JUMPDEST PUSH1 0x40 MLOAD DUP1 SWAP2 SUB SWAP1 REVERT JUMPDEST DUP1 MLOAD DUP2 PUSH1 0x20 ADD REVERT JUMPDEST PUSH4 0xC20F1E19 PUSH1 0xE0 SHL PUSH28 0xFFFFFFFFFFFFFFFFFFFFFFFFFFFFFFFFFFFFFFFFFFFFFFFFFFFFFFFF NOT AND DUP2 PUSH28 0xFFFFFFFFFFFFFFFFFFFFFFFFFFFFFFFFFFFFFFFFFFFFFFFFFFFFFFFF NOT AND EQ SWAP2 POP POP PUSH2 0x1502 JUMP JUMPDEST PUSH1 0x1 SWAP1 POP JUMPDEST SWAP7 SWAP6 POP POP POP POP POP POP JUMP JUMPDEST PUSH0 DUP1 DUP7 PUSH20 0xFFFFFFFFFFFFFFFFFFFFFFFFFFFFFFFFFFFFFFFF AND EXTCODESIZE GT ISZERO PUSH2 0x1680 JUMPI DUP6 PUSH20 0xFFFFFFFFFFFFFFFFFFFFFFFFFFFFFFFFFFFFFFFF AND PUSH4 0x19A36752 PUSH2 0x1550 PUSH2 0x86E JUMP JUMPDEST DUP10 DUP9 DUP9 DUP9 DUP9 PUSH1 0x40 MLOAD DUP8 PUSH4 0xFFFFFFFF AND PUSH1 0xE0 SHL DUP2 MSTORE PUSH1 0x4 ADD PUSH2 0x1576 SWAP7 SWAP6 SWAP5 SWAP4 SWAP3 SWAP2 SWAP1 PUSH2 0x288F JUMP JUMPDEST PUSH1 0x20 PUSH1 0x40 MLOAD DUP1 DUP4 SUB DUP2 PUSH0 DUP8 GAS CALL SWAP3 POP POP POP DUP1 ISZERO PUSH2 0x15B1 JUMPI POP PUSH1 0x40 MLOAD RETURNDATASIZE PUSH1 0x1F NOT PUSH1 0x1F DUP3 ADD AND DUP3 ADD DUP1 PUSH1 0x40 MSTORE POP DUP2 ADD SWAP1 PUSH2 0x15AE SWAP2 SWAP1 PUSH2 0x2864 JUMP JUMPDEST PUSH1 0x1 JUMPDEST PUSH2 0x1630 JUMPI RETURNDATASIZE DUP1 PUSH0 DUP2 EQ PUSH2 0x15DF JUMPI PUSH1 0x40 MLOAD SWAP2 POP PUSH1 0x1F NOT PUSH1 0x3F RETURNDATASIZE ADD AND DUP3 ADD PUSH1 0x40 MSTORE RETURNDATASIZE DUP3 MSTORE RETURNDATASIZE PUSH0 PUSH1 0x20 DUP5 ADD RETURNDATACOPY PUSH2 0x15E4 JUMP JUMPDEST PUSH1 0x60 SWAP2 POP JUMPDEST POP PUSH0 DUP2 MLOAD SUB PUSH2 0x1628 JUMPI PUSH1 0x40 MLOAD PUSH32 0x8C379A000000000000000000000000000000000000000000000000000000000 DUP2 MSTORE PUSH1 0x4 ADD PUSH2 0x161F SWAP1 PUSH2 0x2568 JUMP JUMPDEST PUSH1 0x40 MLOAD DUP1 SWAP2 SUB SWAP1 REVERT JUMPDEST DUP1 MLOAD DUP2 PUSH1 0x20 ADD REVERT JUMPDEST PUSH4 0x19A36752 PUSH1 0xE0 SHL PUSH28 0xFFFFFFFFFFFFFFFFFFFFFFFFFFFFFFFFFFFFFFFFFFFFFFFFFFFFFFFF NOT AND DUP2 PUSH28 0xFFFFFFFFFFFFFFFFFFFFFFFFFFFFFFFFFFFFFFFFFFFFFFFFFFFFFFFF NOT AND EQ SWAP2 POP POP PUSH2 0x1685 JUMP JUMPDEST PUSH1 0x1 SWAP1 POP JUMPDEST SWAP7 SWAP6 POP POP POP POP POP POP JUMP JUMPDEST POP POP POP POP POP POP JUMP JUMPDEST POP POP POP POP POP POP JUMP JUMPDEST PUSH0 PUSH1 0x40 MLOAD SWAP1 POP SWAP1 JUMP JUMPDEST PUSH0 DUP1 REVERT JUMPDEST PUSH0 DUP1 REVERT JUMPDEST PUSH0 PUSH20 0xFFFFFFFFFFFFFFFFFFFFFFFFFFFFFFFFFFFFFFFF DUP3 AND SWAP1 POP SWAP2 SWAP1 POP JUMP JUMPDEST PUSH0 PUSH2 0x16D9 DUP3 PUSH2 0x16B0 JUMP JUMPDEST SWAP1 POP SWAP2 SWAP1 POP JUMP JUMPDEST PUSH2 0x16E9 DUP2 PUSH2 0x16CF JUMP JUMPDEST DUP2 EQ PUSH2 0x16F3 JUMPI PUSH0 DUP1 REVERT JUMPDEST POP JUMP JUMPDEST PUSH0 DUP2 CALLDATALOAD SWAP1 POP PUSH2 0x1704 DUP2 PUSH2 0x16E0 JUMP JUMPDEST SWAP3 SWAP2 POP POP JUMP JUMPDEST PUSH0 DUP2 SWAP1 POP SWAP2 SWAP1 POP JUMP JUMPDEST PUSH2 0x171C DUP2 PUSH2 0x170A JUMP JUMPDEST DUP2 EQ PUSH2 0x1726 JUMPI PUSH0 DUP1 REVERT JUMPDEST POP JUMP JUMPDEST PUSH0 DUP2 CALLDATALOAD SWAP1 POP PUSH2 0x1737 DUP2 PUSH2 0x1713 JUMP JUMPDEST SWAP3 SWAP2 POP POP JUMP JUMPDEST PUSH0 DUP1 PUSH0 DUP1 PUSH0 PUSH1 0xA0 DUP7 DUP9 SUB SLT ISZERO PUSH2 0x1756 JUMPI PUSH2 0x1755 PUSH2 0x16A8 JUMP JUMPDEST JUMPDEST PUSH0 PUSH2 0x1763 DUP9 DUP3 DUP10 ADD PUSH2 0x16F6 JUMP JUMPDEST SWAP6 POP POP PUSH1 0x20 PUSH2 0x1774 DUP9 DUP3 DUP10 ADD PUSH2 0x16F6 JUMP JUMPDEST SWAP5 POP POP PUSH1 0x40 PUSH2 0x1785 DUP9 DUP3 DUP10 ADD PUSH2 0x1729 JUMP JUMPDEST SWAP4 POP POP PUSH1 0x60 PUSH2 0x1796 DUP9 DUP3 DUP10 ADD PUSH2 0x1729 JUMP JUMPDEST SWAP3 POP POP PUSH1 0x80 PUSH2 0x17A7 DUP9 DUP3 DUP10 ADD PUSH2 0x1729 JUMP JUMPDEST SWAP2 POP POP SWAP3 SWAP6 POP SWAP3 SWAP6 SWAP1 SWAP4 POP JUMP JUMPDEST PUSH0 DUP2 ISZERO ISZERO SWAP1 POP SWAP2 SWAP1 POP JUMP JUMPDEST PUSH2 0x17C8 DUP2 PUSH2 0x17B4 JUMP JUMPDEST DUP3 MSTORE POP POP JUMP JUMPDEST PUSH0 PUSH1 0x20 DUP3 ADD SWAP1 POP PUSH2 0x17E1 PUSH0 DUP4 ADD DUP5 PUSH2 0x17BF JUMP JUMPDEST SWAP3 SWAP2 POP POP JUMP JUMPDEST PUSH0 DUP1 PUSH0 DUP1 PUSH1 0x80 DUP6 DUP8 SUB SLT ISZERO PUSH2 0x17FF JUMPI PUSH2 0x17FE PUSH2 0x16A8 JUMP JUMPDEST JUMPDEST PUSH0 PUSH2 0x180C DUP8 DUP3 DUP9 ADD PUSH2 0x16F6 JUMP JUMPDEST SWAP5 POP POP PUSH1 0x20 PUSH2 0x181D DUP8 DUP3 DUP9 ADD PUSH2 0x16F6 JUMP JUMPDEST SWAP4 POP POP PUSH1 0x40 PUSH2 0x182E DUP8 DUP3 DUP9 ADD PUSH2 0x1729 JUMP JUMPDEST SWAP3 POP POP PUSH1 0x60 PUSH2 0x183F DUP8 DUP3 DUP9 ADD PUSH2 0x1729 JUMP JUMPDEST SWAP2 POP POP SWAP3 SWAP6 SWAP2 SWAP5 POP SWAP3 POP JUMP JUMPDEST PUSH2 0x1854 DUP2 PUSH2 0x170A JUMP JUMPDEST DUP3 MSTORE POP POP JUMP JUMPDEST PUSH0 PUSH1 0x20 DUP3 ADD SWAP1 POP PUSH2 0x186D PUSH0 DUP4 ADD DUP5 PUSH2 0x184B JUMP JUMPDEST SWAP3 SWAP2 POP POP JUMP JUMPDEST PUSH0 DUP1 REVERT JUMPDEST PUSH0 DUP1 REVERT JUMPDEST PUSH0 PUSH1 0x1F NOT PUSH1 0x1F DUP4 ADD AND SWAP1 POP SWAP2 SWAP1 POP JUMP JUMPDEST PUSH32 0x4E487B7100000000000000000000000000000000000000000000000000000000 PUSH0 MSTORE PUSH1 0x41 PUSH1 0x4 MSTORE PUSH1 0x24 PUSH0 REVERT JUMPDEST PUSH2 0x18C1 DUP3 PUSH2 0x187B JUMP JUMPDEST DUP2 ADD DUP2 DUP2 LT PUSH8 0xFFFFFFFFFFFFFFFF DUP3 GT OR ISZERO PUSH2 0x18E0 JUMPI PUSH2 0x18DF PUSH2 0x188B JUMP JUMPDEST JUMPDEST DUP1 PUSH1 0x40 MSTORE POP POP POP JUMP JUMPDEST PUSH0 PUSH2 0x18F2 PUSH2 0x169F JUMP JUMPDEST SWAP1 POP PUSH2 0x18FE DUP3 DUP3 PUSH2 0x18B8 JUMP JUMPDEST SWAP2 SWAP1 POP JUMP JUMPDEST PUSH0 PUSH8 0xFFFFFFFFFFFFFFFF DUP3 GT ISZERO PUSH2 0x191D JUMPI PUSH2 0x191C PUSH2 0x188B JUMP JUMPDEST JUMPDEST PUSH2 0x1926 DUP3 PUSH2 0x187B JUMP JUMPDEST SWAP1 POP PUSH1 0x20 DUP2 ADD SWAP1 POP SWAP2 SWAP1 POP JUMP JUMPDEST DUP3 DUP2 DUP4 CALLDATACOPY PUSH0 DUP4 DUP4 ADD MSTORE POP POP POP JUMP JUMPDEST PUSH0 PUSH2 0x1953 PUSH2 0x194E DUP5 PUSH2 0x1903 JUMP JUMPDEST PUSH2 0x18E9 JUMP JUMPDEST SWAP1 POP DUP3 DUP2 MSTORE PUSH1 0x20 DUP2 ADD DUP5 DUP5 DUP5 ADD GT ISZERO PUSH2 0x196F JUMPI PUSH2 0x196E PUSH2 0x1877 JUMP JUMPDEST JUMPDEST PUSH2 0x197A DUP5 DUP3 DUP6 PUSH2 0x1933 JUMP JUMPDEST POP SWAP4 SWAP3 POP POP POP JUMP JUMPDEST PUSH0 DUP3 PUSH1 0x1F DUP4 ADD SLT PUSH2 0x1996 JUMPI PUSH2 0x1995 PUSH2 0x1873 JUMP JUMPDEST JUMPDEST DUP2 CALLDATALOAD PUSH2 0x19A6 DUP5 DUP3 PUSH1 0x20 DUP7 ADD PUSH2 0x1941 JUMP JUMPDEST SWAP2 POP POP SWAP3 SWAP2 POP POP JUMP JUMPDEST PUSH0 DUP1 PUSH0 DUP1 PUSH0 DUP1 PUSH1 0xC0 DUP8 DUP10 SUB SLT ISZERO PUSH2 0x19C9 JUMPI PUSH2 0x19C8 PUSH2 0x16A8 JUMP JUMPDEST JUMPDEST PUSH0 PUSH2 0x19D6 DUP10 DUP3 DUP11 ADD PUSH2 0x16F6 JUMP JUMPDEST SWAP7 POP POP PUSH1 0x20 PUSH2 0x19E7 DUP10 DUP3 DUP11 ADD PUSH2 0x16F6 JUMP JUMPDEST SWAP6 POP POP PUSH1 0x40 PUSH2 0x19F8 DUP10 DUP3 DUP11 ADD PUSH2 0x1729 JUMP JUMPDEST SWAP5 POP POP PUSH1 0x60 PUSH2 0x1A09 DUP10 DUP3 DUP11 ADD PUSH2 0x1729 JUMP JUMPDEST SWAP4 POP POP PUSH1 0x80 PUSH2 0x1A1A DUP10 DUP3 DUP11 ADD PUSH2 0x1729 JUMP JUMPDEST SWAP3 POP POP PUSH1 0xA0 DUP8 ADD CALLDATALOAD PUSH8 0xFFFFFFFFFFFFFFFF DUP2 GT ISZERO PUSH2 0x1A3B JUMPI PUSH2 0x1A3A PUSH2 0x16AC JUMP JUMPDEST JUMPDEST PUSH2 0x1A47 DUP10 DUP3 DUP11 ADD PUSH2 0x1982 JUMP JUMPDEST SWAP2 POP POP SWAP3 SWAP6 POP SWAP3 SWAP6 POP SWAP3 SWAP6 JUMP JUMPDEST PUSH0 DUP1 PUSH0 DUP1 PUSH1 0x80 DUP6 DUP8 SUB SLT ISZERO PUSH2 0x1A6C JUMPI PUSH2 0x1A6B PUSH2 0x16A8 JUMP JUMPDEST JUMPDEST PUSH0 PUSH2 0x1A79 DUP8 DUP3 DUP9 ADD PUSH2 0x16F6 JUMP JUMPDEST SWAP5 POP POP PUSH1 0x20 PUSH2 0x1A8A DUP8 DUP3 DUP9 ADD PUSH2 0x1729 JUMP JUMPDEST SWAP4 POP POP PUSH1 0x40 PUSH2 0x1A9B DUP8 DUP3 DUP9 ADD PUSH2 0x1729 JUMP JUMPDEST SWAP3 POP POP PUSH1 0x60 PUSH2 0x1AAC DUP8 DUP3 DUP9 ADD PUSH2 0x1729 JUMP JUMPDEST SWAP2 POP POP SWAP3 SWAP6 SWAP2 SWAP5 POP SWAP3 POP JUMP JUMPDEST PUSH0 DUP1 REVERT JUMPDEST PUSH0 DUP1 REVERT JUMPDEST PUSH0 DUP1 DUP4 PUSH1 0x1F DUP5 ADD SLT PUSH2 0x1AD5 JUMPI PUSH2 0x1AD4 PUSH2 0x1873 JUMP JUMPDEST JUMPDEST DUP3 CALLDATALOAD SWAP1 POP PUSH8 0xFFFFFFFFFFFFFFFF DUP2 GT ISZERO PUSH2 0x1AF2 JUMPI PUSH2 0x1AF1 PUSH2 0x1AB8 JUMP JUMPDEST JUMPDEST PUSH1 0x20 DUP4 ADD SWAP2 POP DUP4 PUSH1 0x20 DUP3 MUL DUP4 ADD GT ISZERO PUSH2 0x1B0E JUMPI PUSH2 0x1B0D PUSH2 0x1ABC JUMP JUMPDEST JUMPDEST SWAP3 POP SWAP3 SWAP1 POP JUMP JUMPDEST PUSH0 DUP1 DUP4 PUSH1 0x1F DUP5 ADD SLT PUSH2 0x1B2A JUMPI PUSH2 0x1B29 PUSH2 0x1873 JUMP JUMPDEST JUMPDEST DUP3 CALLDATALOAD SWAP1 POP PUSH8 0xFFFFFFFFFFFFFFFF DUP2 GT ISZERO PUSH2 0x1B47 JUMPI PUSH2 0x1B46 PUSH2 0x1AB8 JUMP JUMPDEST JUMPDEST PUSH1 0x20 DUP4 ADD SWAP2 POP DUP4 PUSH1 0x20 DUP3 MUL DUP4 ADD GT ISZERO PUSH2 0x1B63 JUMPI PUSH2 0x1B62 PUSH2 0x1ABC JUMP JUMPDEST JUMPDEST SWAP3 POP SWAP3 SWAP1 POP JUMP JUMPDEST PUSH0 DUP1 PUSH0 DUP1 PUSH0 DUP1 PUSH1 0x60 DUP8 DUP10 SUB SLT ISZERO PUSH2 0x1B84 JUMPI PUSH2 0x1B83 PUSH2 0x16A8 JUMP JUMPDEST JUMPDEST PUSH0 DUP8 ADD CALLDATALOAD PUSH8 0xFFFFFFFFFFFFFFFF DUP2 GT ISZERO PUSH2 0x1BA1 JUMPI PUSH2 0x1BA0 PUSH2 0x16AC JUMP JUMPDEST JUMPDEST PUSH2 0x1BAD DUP10 DUP3 DUP11 ADD PUSH2 0x1AC0 JUMP JUMPDEST SWAP7 POP SWAP7 POP POP PUSH1 0x20 DUP8 ADD CALLDATALOAD PUSH8 0xFFFFFFFFFFFFFFFF DUP2 GT ISZERO PUSH2 0x1BD0 JUMPI PUSH2 0x1BCF PUSH2 0x16AC JUMP JUMPDEST JUMPDEST PUSH2 0x1BDC DUP10 DUP3 DUP11 ADD PUSH2 0x1B15 JUMP JUMPDEST SWAP5 POP SWAP5 POP POP PUSH1 0x40 DUP8 ADD CALLDATALOAD PUSH8 0xFFFFFFFFFFFFFFFF DUP2 GT ISZERO PUSH2 0x1BFF JUMPI PUSH2 0x1BFE PUSH2 0x16AC JUMP JUMPDEST JUMPDEST PUSH2 0x1C0B DUP10 DUP3 DUP11 ADD PUSH2 0x1B15 JUMP JUMPDEST SWAP3 POP SWAP3 POP POP SWAP3 SWAP6 POP SWAP3 SWAP6 POP SWAP3 SWAP6 JUMP JUMPDEST PUSH0 DUP2 MLOAD SWAP1 POP SWAP2 SWAP1 POP JUMP JUMPDEST PUSH0 DUP3 DUP3 MSTORE PUSH1 0x20 DUP3 ADD SWAP1 POP SWAP3 SWAP2 POP POP JUMP JUMPDEST PUSH0 DUP2 SWAP1 POP PUSH1 0x20 DUP3 ADD SWAP1 POP SWAP2 SWAP1 POP JUMP JUMPDEST PUSH2 0x1C4C DUP2 PUSH2 0x170A JUMP JUMPDEST DUP3 MSTORE POP POP JUMP JUMPDEST PUSH0 PUSH2 0x1C5D DUP4 DUP4 PUSH2 0x1C43 JUMP JUMPDEST PUSH1 0x20 DUP4 ADD SWAP1 POP SWAP3 SWAP2 POP POP JUMP JUMPDEST PUSH0 PUSH1 0x20 DUP3 ADD SWAP1 POP SWAP2 SWAP1 POP JUMP JUMPDEST PUSH0 PUSH2 0x1C7F DUP3 PUSH2 0x1C1A JUMP JUMPDEST PUSH2 0x1C89 DUP2 DUP6 PUSH2 0x1C24 JUMP JUMPDEST SWAP4 POP PUSH2 0x1C94 DUP4 PUSH2 0x1C34 JUMP JUMPDEST DUP1 PUSH0 JUMPDEST DUP4 DUP2 LT ISZERO PUSH2 0x1CC4 JUMPI DUP2 MLOAD PUSH2 0x1CAB DUP9 DUP3 PUSH2 0x1C52 JUMP JUMPDEST SWAP8 POP PUSH2 0x1CB6 DUP4 PUSH2 0x1C69 JUMP JUMPDEST SWAP3 POP POP PUSH1 0x1 DUP2 ADD SWAP1 POP PUSH2 0x1C97 JUMP JUMPDEST POP DUP6 SWAP4 POP POP POP POP SWAP3 SWAP2 POP POP JUMP JUMPDEST PUSH0 PUSH1 0x20 DUP3 ADD SWAP1 POP DUP2 DUP2 SUB PUSH0 DUP4 ADD MSTORE PUSH2 0x1CE9 DUP2 DUP5 PUSH2 0x1C75 JUMP JUMPDEST SWAP1 POP SWAP3 SWAP2 POP POP JUMP JUMPDEST PUSH0 DUP1 DUP4 PUSH1 0x1F DUP5 ADD SLT PUSH2 0x1D06 JUMPI PUSH2 0x1D05 PUSH2 0x1873 JUMP JUMPDEST JUMPDEST DUP3 CALLDATALOAD SWAP1 POP PUSH8 0xFFFFFFFFFFFFFFFF DUP2 GT ISZERO PUSH2 0x1D23 JUMPI PUSH2 0x1D22 PUSH2 0x1AB8 JUMP JUMPDEST JUMPDEST PUSH1 0x20 DUP4 ADD SWAP2 POP DUP4 PUSH1 0x1 DUP3 MUL DUP4 ADD GT ISZERO PUSH2 0x1D3F JUMPI PUSH2 0x1D3E PUSH2 0x1ABC JUMP JUMPDEST JUMPDEST SWAP3 POP SWAP3 SWAP1 POP JUMP JUMPDEST PUSH0 DUP1 PUSH0 DUP1 PUSH0 DUP1 PUSH0 DUP1 PUSH0 DUP1 PUSH1 0xC0 DUP12 DUP14 SUB SLT ISZERO PUSH2 0x1D64 JUMPI PUSH2 0x1D63 PUSH2 0x16A8 JUMP JUMPDEST JUMPDEST PUSH0 PUSH2 0x1D71 DUP14 DUP3 DUP15 ADD PUSH2 0x16F6 JUMP JUMPDEST SWAP11 POP POP PUSH1 0x20 PUSH2 0x1D82 DUP14 DUP3 DUP15 ADD PUSH2 0x16F6 JUMP JUMPDEST SWAP10 POP POP PUSH1 0x40 DUP12 ADD CALLDATALOAD PUSH8 0xFFFFFFFFFFFFFFFF DUP2 GT ISZERO PUSH2 0x1DA3 JUMPI PUSH2 0x1DA2 PUSH2 0x16AC JUMP JUMPDEST JUMPDEST PUSH2 0x1DAF DUP14 DUP3 DUP15 ADD PUSH2 0x1B15 JUMP JUMPDEST SWAP9 POP SWAP9 POP POP PUSH1 0x60 DUP12 ADD CALLDATALOAD PUSH8 0xFFFFFFFFFFFFFFFF DUP2 GT ISZERO PUSH2 0x1DD2 JUMPI PUSH2 0x1DD1 PUSH2 0x16AC JUMP JUMPDEST JUMPDEST PUSH2 0x1DDE DUP14 DUP3 DUP15 ADD PUSH2 0x1B15 JUMP JUMPDEST SWAP7 POP SWAP7 POP POP PUSH1 0x80 DUP12 ADD CALLDATALOAD PUSH8 0xFFFFFFFFFFFFFFFF DUP2 GT ISZERO PUSH2 0x1E01 JUMPI PUSH2 0x1E00 PUSH2 0x16AC JUMP JUMPDEST JUMPDEST PUSH2 0x1E0D DUP14 DUP3 DUP15 ADD PUSH2 0x1B15 JUMP JUMPDEST SWAP5 POP SWAP5 POP POP PUSH1 0xA0 DUP12 ADD CALLDATALOAD PUSH8 0xFFFFFFFFFFFFFFFF DUP2 GT ISZERO PUSH2 0x1E30 JUMPI PUSH2 0x1E2F PUSH2 0x16AC JUMP JUMPDEST JUMPDEST PUSH2 0x1E3C DUP14 DUP3 DUP15 ADD PUSH2 0x1CF1 JUMP JUMPDEST SWAP3 POP SWAP3 POP POP SWAP3 SWAP6 SWAP9 SWAP12 SWAP2 SWAP5 SWAP8 SWAP11 POP SWAP3 SWAP6 SWAP9 POP JUMP JUMPDEST PUSH0 DUP1 PUSH0 PUSH1 0x60 DUP5 DUP7 SUB SLT ISZERO PUSH2 0x1E67 JUMPI PUSH2 0x1E66 PUSH2 0x16A8 JUMP JUMPDEST JUMPDEST PUSH0 PUSH2 0x1E74 DUP7 DUP3 DUP8 ADD PUSH2 0x16F6 JUMP JUMPDEST SWAP4 POP POP PUSH1 0x20 PUSH2 0x1E85 DUP7 DUP3 DUP8 ADD PUSH2 0x1729 JUMP JUMPDEST SWAP3 POP POP PUSH1 0x40 PUSH2 0x1E96 DUP7 DUP3 DUP8 ADD PUSH2 0x1729 JUMP JUMPDEST SWAP2 POP POP SWAP3 POP SWAP3 POP SWAP3 JUMP JUMPDEST PUSH2 0x1EA9 DUP2 PUSH2 0x17B4 JUMP JUMPDEST DUP2 EQ PUSH2 0x1EB3 JUMPI PUSH0 DUP1 REVERT JUMPDEST POP JUMP JUMPDEST PUSH0 DUP2 CALLDATALOAD SWAP1 POP PUSH2 0x1EC4 DUP2 PUSH2 0x1EA0 JUMP JUMPDEST SWAP3 SWAP2 POP POP JUMP JUMPDEST PUSH0 DUP1 PUSH1 0x40 DUP4 DUP6 SUB SLT ISZERO PUSH2 0x1EE0 JUMPI PUSH2 0x1EDF PUSH2 0x16A8 JUMP JUMPDEST JUMPDEST PUSH0 PUSH2 0x1EED DUP6 DUP3 DUP7 ADD PUSH2 0x16F6 JUMP JUMPDEST SWAP3 POP POP PUSH1 0x20 PUSH2 0x1EFE DUP6 DUP3 DUP7 ADD PUSH2 0x1EB6 JUMP JUMPDEST SWAP2 POP POP SWAP3 POP SWAP3 SWAP1 POP JUMP JUMPDEST PUSH0 DUP1 PUSH1 0x40 DUP4 DUP6 SUB SLT ISZERO PUSH2 0x1F1E JUMPI PUSH2 0x1F1D PUSH2 0x16A8 JUMP JUMPDEST JUMPDEST PUSH0 PUSH2 0x1F2B DUP6 DUP3 DUP7 ADD PUSH2 0x16F6 JUMP JUMPDEST SWAP3 POP POP PUSH1 0x20 PUSH2 0x1F3C DUP6 DUP3 DUP7 ADD PUSH2 0x16F6 JUMP JUMPDEST SWAP2 POP POP SWAP3 POP SWAP3 SWAP1 POP JUMP JUMPDEST PUSH0 DUP3 DUP3 MSTORE PUSH1 0x20 DUP3 ADD SWAP1 POP SWAP3 SWAP2 POP POP JUMP JUMPDEST PUSH32 0x444C543A20617070726F76616C20746F2063757272656E74206F776E65720000 PUSH0 DUP3 ADD MSTORE POP JUMP JUMPDEST PUSH0 PUSH2 0x1F8A PUSH1 0x1E DUP4 PUSH2 0x1F46 JUMP JUMPDEST SWAP2 POP PUSH2 0x1F95 DUP3 PUSH2 0x1F56 JUMP JUMPDEST PUSH1 0x20 DUP3 ADD SWAP1 POP SWAP2 SWAP1 POP JUMP JUMPDEST PUSH0 PUSH1 0x20 DUP3 ADD SWAP1 POP DUP2 DUP2 SUB PUSH0 DUP4 ADD MSTORE PUSH2 0x1FB7 DUP2 PUSH2 0x1F7E JUMP JUMPDEST SWAP1 POP SWAP2 SWAP1 POP JUMP JUMPDEST PUSH32 0x444C543A206163636F756E74732C206D61696E49647320616E6420696473206C PUSH0 DUP3 ADD MSTORE PUSH32 0x656E677468206D69736D61746368000000000000000000000000000000000000 PUSH1 0x20 DUP3 ADD MSTORE POP JUMP JUMPDEST PUSH0 PUSH2 0x2018 PUSH1 0x2E DUP4 PUSH2 0x1F46 JUMP JUMPDEST SWAP2 POP PUSH2 0x2023 DUP3 PUSH2 0x1FBE JUMP JUMPDEST PUSH1 0x40 DUP3 ADD SWAP1 POP SWAP2 SWAP1 POP JUMP JUMPDEST PUSH0 PUSH1 0x20 DUP3 ADD SWAP1 POP DUP2 DUP2 SUB PUSH0 DUP4 ADD MSTORE PUSH2 0x2045 DUP2 PUSH2 0x200C JUMP JUMPDEST SWAP1 POP SWAP2 SWAP1 POP JUMP JUMPDEST PUSH32 0x4E487B7100000000000000000000000000000000000000000000000000000000 PUSH0 MSTORE PUSH1 0x32 PUSH1 0x4 MSTORE PUSH1 0x24 PUSH0 REVERT JUMPDEST PUSH0 PUSH1 0x20 DUP3 DUP5 SUB SLT ISZERO PUSH2 0x208E JUMPI PUSH2 0x208D PUSH2 0x16A8 JUMP JUMPDEST JUMPDEST PUSH0 PUSH2 0x209B DUP5 DUP3 DUP6 ADD PUSH2 0x16F6 JUMP JUMPDEST SWAP2 POP POP SWAP3 SWAP2 POP POP JUMP JUMPDEST PUSH32 0x4E487B7100000000000000000000000000000000000000000000000000000000 PUSH0 MSTORE PUSH1 0x11 PUSH1 0x4 MSTORE PUSH1 0x24 PUSH0 REVERT JUMPDEST PUSH0 PUSH2 0x20DB DUP3 PUSH2 0x170A JUMP JUMPDEST SWAP2 POP PUSH32 0xFFFFFFFFFFFFFFFFFFFFFFFFFFFFFFFFFFFFFFFFFFFFFFFFFFFFFFFFFFFFFFFF DUP3 SUB PUSH2 0x210D JUMPI PUSH2 0x210C PUSH2 0x20A4 JUMP JUMPDEST JUMPDEST PUSH1 0x1 DUP3 ADD SWAP1 POP SWAP2 SWAP1 POP JUMP JUMPDEST PUSH32 0x444C543A2063616C6C6572206973206E6F7420746F6B656E206F776E6572206F PUSH0 DUP3 ADD MSTORE PUSH32 0x7220617070726F76656420666F7220616C6C0000000000000000000000000000 PUSH1 0x20 DUP3 ADD MSTORE POP JUMP JUMPDEST PUSH0 PUSH2 0x2172 PUSH1 0x32 DUP4 PUSH2 0x1F46 JUMP JUMPDEST SWAP2 POP PUSH2 0x217D DUP3 PUSH2 0x2118 JUMP JUMPDEST PUSH1 0x40 DUP3 ADD SWAP1 POP SWAP2 SWAP1 POP JUMP JUMPDEST PUSH0 PUSH1 0x20 DUP3 ADD SWAP1 POP DUP2 DUP2 SUB PUSH0 DUP4 ADD MSTORE PUSH2 0x219F DUP2 PUSH2 0x2166 JUMP JUMPDEST SWAP1 POP SWAP2 SWAP1 POP JUMP JUMPDEST PUSH32 0x444C543A20617070726F76652066726F6D20746865207A65726F206164647265 PUSH0 DUP3 ADD MSTORE PUSH32 0x7373000000000000000000000000000000000000000000000000000000000000 PUSH1 0x20 DUP3 ADD MSTORE POP JUMP JUMPDEST PUSH0 PUSH2 0x2200 PUSH1 0x22 DUP4 PUSH2 0x1F46 JUMP JUMPDEST SWAP2 POP PUSH2 0x220B DUP3 PUSH2 0x21A6 JUMP JUMPDEST PUSH1 0x40 DUP3 ADD SWAP1 POP SWAP2 SWAP1 POP JUMP JUMPDEST PUSH0 PUSH1 0x20 DUP3 ADD SWAP1 POP DUP2 DUP2 SUB PUSH0 DUP4 ADD MSTORE PUSH2 0x222D DUP2 PUSH2 0x21F4 JUMP JUMPDEST SWAP1 POP SWAP2 SWAP1 POP JUMP JUMPDEST PUSH32 0x444C543A20617070726F766520746F20746865207A65726F2061646472657373 PUSH0 DUP3 ADD MSTORE POP JUMP JUMPDEST PUSH0 PUSH2 0x2268 PUSH1 0x20 DUP4 PUSH2 0x1F46 JUMP JUMPDEST SWAP2 POP PUSH2 0x2273 DUP3 PUSH2 0x2234 JUMP JUMPDEST PUSH1 0x20 DUP3 ADD SWAP1 POP SWAP2 SWAP1 POP JUMP JUMPDEST PUSH0 PUSH1 0x20 DUP3 ADD SWAP1 POP DUP2 DUP2 SUB PUSH0 DUP4 ADD MSTORE PUSH2 0x2295 DUP2 PUSH2 0x225C JUMP JUMPDEST SWAP1 POP SWAP2 SWAP1 POP JUMP JUMPDEST PUSH0 PUSH1 0x60 DUP3 ADD SWAP1 POP PUSH2 0x22AF PUSH0 DUP4 ADD DUP7 PUSH2 0x184B JUMP JUMPDEST PUSH2 0x22BC PUSH1 0x20 DUP4 ADD DUP6 PUSH2 0x184B JUMP JUMPDEST PUSH2 0x22C9 PUSH1 0x40 DUP4 ADD DUP5 PUSH2 0x184B JUMP JUMPDEST SWAP5 SWAP4 POP POP POP POP JUMP JUMPDEST PUSH32 0x444C543A206D61696E4964732C2073756249647320616E6420616D6F756E7473 PUSH0 DUP3 ADD MSTORE PUSH32 0x206C656E677468206D69736D6174636800000000000000000000000000000000 PUSH1 0x20 DUP3 ADD MSTORE POP JUMP JUMPDEST PUSH0 PUSH2 0x232B PUSH1 0x30 DUP4 PUSH2 0x1F46 JUMP JUMPDEST SWAP2 POP PUSH2 0x2336 DUP3 PUSH2 0x22D1 JUMP JUMPDEST PUSH1 0x40 DUP3 ADD SWAP1 POP SWAP2 SWAP1 POP JUMP JUMPDEST PUSH0 PUSH1 0x20 DUP3 ADD SWAP1 POP DUP2 DUP2 SUB PUSH0 DUP4 ADD MSTORE PUSH2 0x2358 DUP2 PUSH2 0x231F JUMP JUMPDEST SWAP1 POP SWAP2 SWAP1 POP JUMP JUMPDEST PUSH32 0x444C543A207472616E7366657220746F20746865207A65726F20616464726573 PUSH0 DUP3 ADD MSTORE PUSH32 0x7300000000000000000000000000000000000000000000000000000000000000 PUSH1 0x20 DUP3 ADD MSTORE POP JUMP JUMPDEST PUSH0 PUSH2 0x23B9 PUSH1 0x21 DUP4 PUSH2 0x1F46 JUMP JUMPDEST SWAP2 POP PUSH2 0x23C4 DUP3 PUSH2 0x235F JUMP JUMPDEST PUSH1 0x40 DUP3 ADD SWAP1 POP SWAP2 SWAP1 POP JUMP JUMPDEST PUSH0 PUSH1 0x20 DUP3 ADD SWAP1 POP DUP2 DUP2 SUB PUSH0 DUP4 ADD MSTORE PUSH2 0x23E6 DUP2 PUSH2 0x23AD JUMP JUMPDEST SWAP1 POP SWAP2 SWAP1 POP JUMP JUMPDEST PUSH32 0x444C543A20696E73756666696369656E742062616C616E636520666F72207472 PUSH0 DUP3 ADD MSTORE PUSH32 0x616E736665720000000000000000000000000000000000000000000000000000 PUSH1 0x20 DUP3 ADD MSTORE POP JUMP JUMPDEST PUSH0 PUSH2 0x2447 PUSH1 0x26 DUP4 PUSH2 0x1F46 JUMP JUMPDEST SWAP2 POP PUSH2 0x2452 DUP3 PUSH2 0x23ED JUMP JUMPDEST PUSH1 0x40 DUP3 ADD SWAP1 POP SWAP2 SWAP1 POP JUMP JUMPDEST PUSH0 PUSH1 0x20 DUP3 ADD SWAP1 POP DUP2 DUP2 SUB PUSH0 DUP4 ADD MSTORE PUSH2 0x2474 DUP2 PUSH2 0x243B JUMP JUMPDEST SWAP1 POP SWAP2 SWAP1 POP JUMP JUMPDEST PUSH0 PUSH2 0x2485 DUP3 PUSH2 0x170A JUMP JUMPDEST SWAP2 POP PUSH2 0x2490 DUP4 PUSH2 0x170A JUMP JUMPDEST SWAP3 POP DUP3 DUP3 ADD SWAP1 POP DUP1 DUP3 GT ISZERO PUSH2 0x24A8 JUMPI PUSH2 0x24A7 PUSH2 0x20A4 JUMP JUMPDEST JUMPDEST SWAP3 SWAP2 POP POP JUMP JUMPDEST PUSH0 PUSH1 0x60 DUP3 ADD SWAP1 POP DUP2 DUP2 SUB PUSH0 DUP4 ADD MSTORE PUSH2 0x24C6 DUP2 DUP7 PUSH2 0x1C75 JUMP JUMPDEST SWAP1 POP DUP2 DUP2 SUB PUSH1 0x20 DUP4 ADD MSTORE PUSH2 0x24DA DUP2 DUP6 PUSH2 0x1C75 JUMP JUMPDEST SWAP1 POP DUP2 DUP2 SUB PUSH1 0x40 DUP4 ADD MSTORE PUSH2 0x24EE DUP2 DUP5 PUSH2 0x1C75 JUMP JUMPDEST SWAP1 POP SWAP5 SWAP4 POP POP POP POP JUMP JUMPDEST PUSH32 0x444C543A207472616E7366657220746F206E6F6E20444C545265636569766572 PUSH0 DUP3 ADD MSTORE PUSH32 0x20696D706C656D656E7465720000000000000000000000000000000000000000 PUSH1 0x20 DUP3 ADD MSTORE POP JUMP JUMPDEST PUSH0 PUSH2 0x2552 PUSH1 0x2C DUP4 PUSH2 0x1F46 JUMP JUMPDEST SWAP2 POP PUSH2 0x255D DUP3 PUSH2 0x24F8 JUMP JUMPDEST PUSH1 0x40 DUP3 ADD SWAP1 POP SWAP2 SWAP1 POP JUMP JUMPDEST PUSH0 PUSH1 0x20 DUP3 ADD SWAP1 POP DUP2 DUP2 SUB PUSH0 DUP4 ADD MSTORE PUSH2 0x257F DUP2 PUSH2 0x2546 JUMP JUMPDEST SWAP1 POP SWAP2 SWAP1 POP JUMP JUMPDEST PUSH32 0x444C543A20617070726F766520746F2063616C6C657200000000000000000000 PUSH0 DUP3 ADD MSTORE POP JUMP JUMPDEST PUSH0 PUSH2 0x25BA PUSH1 0x16 DUP4 PUSH2 0x1F46 JUMP JUMPDEST SWAP2 POP PUSH2 0x25C5 DUP3 PUSH2 0x2586 JUMP JUMPDEST PUSH1 0x20 DUP3 ADD SWAP1 POP SWAP2 SWAP1 POP JUMP JUMPDEST PUSH0 PUSH1 0x20 DUP3 ADD SWAP1 POP DUP2 DUP2 SUB PUSH0 DUP4 ADD MSTORE PUSH2 0x25E7 DUP2 PUSH2 0x25AE JUMP JUMPDEST SWAP1 POP SWAP2 SWAP1 POP JUMP JUMPDEST PUSH32 0x444C543A20696E73756666696369656E7420616C6C6F77616E63650000000000 PUSH0 DUP3 ADD MSTORE POP JUMP JUMPDEST PUSH0 PUSH2 0x2622 PUSH1 0x1B DUP4 PUSH2 0x1F46 JUMP JUMPDEST SWAP2 POP PUSH2 0x262D DUP3 PUSH2 0x25EE JUMP JUMPDEST PUSH1 0x20 DUP3 ADD SWAP1 POP SWAP2 SWAP1 POP JUMP JUMPDEST PUSH0 PUSH1 0x20 DUP3 ADD SWAP1 POP DUP2 DUP2 SUB PUSH0 DUP4 ADD MSTORE PUSH2 0x264F DUP2 PUSH2 0x2616 JUMP JUMPDEST SWAP1 POP SWAP2 SWAP1 POP JUMP JUMPDEST PUSH32 0x444C543A207472616E736665722066726F6D20746865207A65726F2061646472 PUSH0 DUP3 ADD MSTORE PUSH32 0x6573730000000000000000000000000000000000000000000000000000000000 PUSH1 0x20 DUP3 ADD MSTORE POP JUMP JUMPDEST PUSH0 PUSH2 0x26B0 PUSH1 0x23 DUP4 PUSH2 0x1F46 JUMP JUMPDEST SWAP2 POP PUSH2 0x26BB DUP3 PUSH2 0x2656 JUMP JUMPDEST PUSH1 0x40 DUP3 ADD SWAP1 POP SWAP2 SWAP1 POP JUMP JUMPDEST PUSH0 PUSH1 0x20 DUP3 ADD SWAP1 POP DUP2 DUP2 SUB PUSH0 DUP4 ADD MSTORE PUSH2 0x26DD DUP2 PUSH2 0x26A4 JUMP JUMPDEST SWAP1 POP SWAP2 SWAP1 POP JUMP JUMPDEST PUSH0 PUSH1 0x40 DUP3 ADD SWAP1 POP PUSH2 0x26F7 PUSH0 DUP4 ADD DUP6 PUSH2 0x184B JUMP JUMPDEST PUSH2 0x2704 PUSH1 0x20 DUP4 ADD DUP5 PUSH2 0x184B JUMP JUMPDEST SWAP4 SWAP3 POP POP POP JUMP JUMPDEST PUSH2 0x2714 DUP2 PUSH2 0x16CF JUMP JUMPDEST DUP3 MSTORE POP POP JUMP JUMPDEST PUSH0 DUP2 MLOAD SWAP1 POP SWAP2 SWAP1 POP JUMP JUMPDEST PUSH0 DUP3 DUP3 MSTORE PUSH1 0x20 DUP3 ADD SWAP1 POP SWAP3 SWAP2 POP POP JUMP JUMPDEST PUSH0 JUMPDEST DUP4 DUP2 LT ISZERO PUSH2 0x2751 JUMPI DUP1 DUP3 ADD MLOAD DUP2 DUP5 ADD MSTORE PUSH1 0x20 DUP2 ADD SWAP1 POP PUSH2 0x2736 JUMP JUMPDEST PUSH0 DUP5 DUP5 ADD MSTORE POP POP POP POP JUMP JUMPDEST PUSH0 PUSH2 0x2766 DUP3 PUSH2 0x271A JUMP JUMPDEST PUSH2 0x2770 DUP2 DUP6 PUSH2 0x2724 JUMP JUMPDEST SWAP4 POP PUSH2 0x2780 DUP2 DUP6 PUSH1 0x20 DUP7 ADD PUSH2 0x2734 JUMP JUMPDEST PUSH2 0x2789 DUP2 PUSH2 0x187B JUMP JUMPDEST DUP5 ADD SWAP2 POP POP SWAP3 SWAP2 POP POP JUMP JUMPDEST PUSH0 PUSH1 0xC0 DUP3 ADD SWAP1 POP PUSH2 0x27A7 PUSH0 DUP4 ADD DUP10 PUSH2 0x270B JUMP JUMPDEST PUSH2 0x27B4 PUSH1 0x20 DUP4 ADD DUP9 PUSH2 0x270B JUMP JUMPDEST DUP2 DUP2 SUB PUSH1 0x40 DUP4 ADD MSTORE PUSH2 0x27C6 DUP2 DUP8 PUSH2 0x1C75 JUMP JUMPDEST SWAP1 POP DUP2 DUP2 SUB PUSH1 0x60 DUP4 ADD MSTORE PUSH2 0x27DA DUP2 DUP7 PUSH2 0x1C75 JUMP JUMPDEST SWAP1 POP DUP2 DUP2 SUB PUSH1 0x80 DUP4 ADD MSTORE PUSH2 0x27EE DUP2 DUP6 PUSH2 0x1C75 JUMP JUMPDEST SWAP1 POP DUP2 DUP2 SUB PUSH1 0xA0 DUP4 ADD MSTORE PUSH2 0x2802 DUP2 DUP5 PUSH2 0x275C JUMP JUMPDEST SWAP1 POP SWAP8 SWAP7 POP POP POP POP POP POP POP JUMP JUMPDEST PUSH0 PUSH32 0xFFFFFFFF00000000000000000000000000000000000000000000000000000000 DUP3 AND SWAP1 POP SWAP2 SWAP1 POP JUMP JUMPDEST PUSH2 0x2843 DUP2 PUSH2 0x280F JUMP JUMPDEST DUP2 EQ PUSH2 0x284D JUMPI PUSH0 DUP1 REVERT JUMPDEST POP JUMP JUMPDEST PUSH0 DUP2 MLOAD SWAP1 POP PUSH2 0x285E DUP2 PUSH2 0x283A JUMP JUMPDEST SWAP3 SWAP2 POP POP JUMP JUMPDEST PUSH0 PUSH1 0x20 DUP3 DUP5 SUB SLT ISZERO PUSH2 0x2879 JUMPI PUSH2 0x2878 PUSH2 0x16A8 JUMP JUMPDEST JUMPDEST PUSH0 PUSH2 0x2886 DUP5 DUP3 DUP6 ADD PUSH2 0x2850 JUMP JUMPDEST SWAP2 POP POP SWAP3 SWAP2 POP POP JUMP JUMPDEST PUSH0 PUSH1 0xC0 DUP3 ADD SWAP1 POP PUSH2 0x28A2 PUSH0 DUP4 ADD DUP10 PUSH2 0x270B JUMP JUMPDEST PUSH2 0x28AF PUSH1 0x20 DUP4 ADD DUP9 PUSH2 0x270B JUMP JUMPDEST PUSH2 0x28BC PUSH1 0x40 DUP4 ADD DUP8 PUSH2 0x184B JUMP JUMPDEST PUSH2 0x28C9 PUSH1 0x60 DUP4 ADD DUP7 PUSH2 0x184B JUMP JUMPDEST PUSH2 0x28D6 PUSH1 0x80 DUP4 ADD DUP6 PUSH2 0x184B JUMP JUMPDEST DUP2 DUP2 SUB PUSH1 0xA0 DUP4 ADD MSTORE PUSH2 0x28E8 DUP2 DUP5 PUSH2 0x275C JUMP JUMPDEST SWAP1 POP SWAP8 SWAP7 POP POP POP POP POP POP POP JUMP INVALID LOG2 PUSH5 0x6970667358 0x22 SLT KECCAK256 0xE0 0xD5 0x5E 0xB1 PUSH9 0x452833A9975E61CFB0 0xEB PUSH2 0x1E2A LT NUMBER 0xA5 AND RETURNDATASIZE 0xD0 SELFDESTRUCT DUP7 0xC9 0xAE PUSH22 0x1D11D264736F6C634300081400330000000000000000 "
				},
				"gasEstimates": {
					"creation": {
						"codeDepositCost": "2107800",
						"executionCost": "infinite",
						"totalCost": "infinite"
					},
					"external": {
						"allowance(address,address,uint256,uint256)": "infinite",
						"approve(address,uint256,uint256,uint256)": "infinite",
						"balanceOfBatch(address[],uint256[],uint256[])": "infinite",
						"isApprovedForAll(address,address)": "infinite",
						"safeBatchTransferFrom(address,address,uint256[],uint256[],uint256[],bytes)": "infinite",
						"safeTransferFrom(address,address,uint256,uint256,uint256)": "infinite",
						"safeTransferFrom(address,address,uint256,uint256,uint256,bytes)": "infinite",
						"setApprovalForAll(address,bool)": "infinite",
						"subBalanceOf(address,uint256,uint256)": "infinite",
						"transferFrom(address,address,uint256,uint256,uint256)": "infinite"
					},
					"internal": {
						"_afterTokenTransfer(address,address,uint256,uint256,uint256,bytes memory)": "21",
						"_allowance(address,address,uint256,uint256)": "2467",
						"_approve(address,address,uint256,uint256,uint256)": "infinite",
						"_beforeTokenTransfer(address,address,uint256,uint256,uint256,bytes memory)": "21",
						"_burn(address,uint256,uint256,uint256)": "infinite",
						"_checkOnDLTBatchReceived(address,address,uint256[] memory,uint256[] memory,uint256[] memory,bytes memory)": "infinite",
						"_checkOnDLTReceived(address,address,uint256,uint256,uint256,bytes memory)": "infinite",
						"_isApprovedOrOwner(address,address)": "2433",
						"_mint(address,uint256,uint256,uint256)": "infinite",
						"_safeBatchTransferFrom(address,address,uint256[] memory,uint256[] memory,uint256[] memory,bytes memory)": "infinite",
						"_safeMint(address,uint256,uint256,uint256)": "infinite",
						"_safeMint(address,uint256,uint256,uint256,bytes memory)": "infinite",
						"_safeTransfer(address,address,uint256,uint256,uint256,bytes memory)": "infinite",
						"_safeTransferFrom(address,address,uint256,uint256,uint256,bytes memory)": "infinite",
						"_setApprovalForAll(address,address,bool)": "infinite",
						"_spendAllowance(address,address,uint256,uint256,uint256)": "infinite",
						"_transfer(address,address,uint256,uint256,uint256)": "infinite",
						"_transferFrom(address,address,uint256,uint256,uint256)": "infinite"
					}
				},
				"methodIdentifiers": {
					"allowance(address,address,uint256,uint256)": "443b63b9",
					"approve(address,uint256,uint256,uint256)": "4f4df442",
					"balanceOfBatch(address[],uint256[],uint256[])": "62b26417",
					"isApprovedForAll(address,address)": "e985e9c5",
					"safeBatchTransferFrom(address,address,uint256[],uint256[],uint256[],bytes)": "6b98fd1e",
					"safeTransferFrom(address,address,uint256,uint256,uint256)": "01b5e494",
					"safeTransferFrom(address,address,uint256,uint256,uint256,bytes)": "4d47fddb",
					"setApprovalForAll(address,bool)": "a22cb465",
					"subBalanceOf(address,uint256,uint256)": "8536208d",
					"transferFrom(address,address,uint256,uint256,uint256)": "4aed53c2"
				}
			},
			"storageLayout": {
				"storage": [
					{
						"astId": 43,
						"contract": "src/DLT.sol:DLT",
						"label": "_name",
						"offset": 0,
						"slot": "0",
						"type": "t_string_storage"
					},
					{
						"astId": 45,
						"contract": "src/DLT.sol:DLT",
						"label": "_symbol",
						"offset": 0,
						"slot": "1",
						"type": "t_string_storage"
					},
					{
						"astId": 53,
						"contract": "src/DLT.sol:DLT",
						"label": "_balances",
						"offset": 0,
						"slot": "2",
						"type": "t_mapping(t_uint256,t_mapping(t_address,t_mapping(t_uint256,t_uint256)))"
					},
					{
						"astId": 59,
						"contract": "src/DLT.sol:DLT",
						"label": "_operatorApprovals",
						"offset": 0,
						"slot": "3",
						"type": "t_mapping(t_address,t_mapping(t_address,t_bool))"
					},
					{
						"astId": 69,
						"contract": "src/DLT.sol:DLT",
						"label": "_allowances",
						"offset": 0,
						"slot": "4",
						"type": "t_mapping(t_address,t_mapping(t_address,t_mapping(t_uint256,t_mapping(t_uint256,t_uint256))))"
					}
				],
				"types": {
					"t_address": {
						"encoding": "inplace",
						"label": "address",
						"numberOfBytes": "20"
					},
					"t_bool": {
						"encoding": "inplace",
						"label": "bool",
						"numberOfBytes": "1"
					},
					"t_mapping(t_address,t_bool)": {
						"encoding": "mapping",
						"key": "t_address",
						"label": "mapping(address => bool)",
						"numberOfBytes": "32",
						"value": "t_bool"
					},
					"t_mapping(t_address,t_mapping(t_address,t_bool))": {
						"encoding": "mapping",
						"key": "t_address",
						"label": "mapping(address => mapping(address => bool))",
						"numberOfBytes": "32",
						"value": "t_mapping(t_address,t_bool)"
					},
					"t_mapping(t_address,t_mapping(t_address,t_mapping(t_uint256,t_mapping(t_uint256,t_uint256))))": {
						"encoding": "mapping",
						"key": "t_address",
						"label": "mapping(address => mapping(address => mapping(uint256 => mapping(uint256 => uint256))))",
						"numberOfBytes": "32",
						"value": "t_mapping(t_address,t_mapping(t_uint256,t_mapping(t_uint256,t_uint256)))"
					},
					"t_mapping(t_address,t_mapping(t_uint256,t_mapping(t_uint256,t_uint256)))": {
						"encoding": "mapping",
						"key": "t_address",
						"label": "mapping(address => mapping(uint256 => mapping(uint256 => uint256)))",
						"numberOfBytes": "32",
						"value": "t_mapping(t_uint256,t_mapping(t_uint256,t_uint256))"
					},
					"t_mapping(t_address,t_mapping(t_uint256,t_uint256))": {
						"encoding": "mapping",
						"key": "t_address",
						"label": "mapping(address => mapping(uint256 => uint256))",
						"numberOfBytes": "32",
						"value": "t_mapping(t_uint256,t_uint256)"
					},
					"t_mapping(t_uint256,t_mapping(t_address,t_mapping(t_uint256,t_uint256)))": {
						"encoding": "mapping",
						"key": "t_uint256",
						"label": "mapping(uint256 => mapping(address => mapping(uint256 => uint256)))",
						"numberOfBytes": "32",
						"value": "t_mapping(t_address,t_mapping(t_uint256,t_uint256))"
					},
					"t_mapping(t_uint256,t_mapping(t_uint256,t_uint256))": {
						"encoding": "mapping",
						"key": "t_uint256",
						"label": "mapping(uint256 => mapping(uint256 => uint256))",
						"numberOfBytes": "32",
						"value": "t_mapping(t_uint256,t_uint256)"
					},
					"t_mapping(t_uint256,t_uint256)": {
						"encoding": "mapping",
						"key": "t_uint256",
						"label": "mapping(uint256 => uint256)",
						"numberOfBytes": "32",
						"value": "t_uint256"
					},
					"t_string_storage": {
						"encoding": "bytes",
						"label": "string",
						"numberOfBytes": "32"
					},
					"t_uint256": {
						"encoding": "inplace",
						"label": "uint256",
						"numberOfBytes": "32"
					}
				}
			},
			"userdoc": {
				"events": {
					"TransferBatch(address,address,address,uint256[],uint256[],uint256[])": {
						"notice": "The `spender` argument of an account/contract that is approved to make the transfer (SHOULD be msg.sender). The `sender` argument of the holder whose balance is decreased. The `recipient` argument of the recipient whose balance is increased. The `mainIds` argument MUST be the list of mainIds being transferred. The `subIds` argument MUST be the list of subIds being transferred. The `amounts` argument MUST be the list of number of tokens When minting/creating tokens, the `sender` argument MUST be set to `0x0`. When burning/destroying tokens, the `recipient` argument MUST be set to `0x0`.                "
					}
				},
				"kind": "user",
				"methods": {},
				"version": 1
			}
		}
	}
}