{
	"data": {
		"bytecode": {
			"linkReferences": {},
			"object": "60e0604052600160105534801562000015575f80fd5b5060405162005d1838038062005d1883398181016040528101906200003b9190620006a0565b33805f8b8a8d8d815f908162000052919062000a04565b50806001908162000064919062000a04565b505050818051906020012060808181525050808051906020012060a08181525050604051602001620000969062000cc6565b6040516020818303038152906040528051906020012060805160a0514630604051602001620000ca95949392919062000d50565b6040516020818303038152906040528051906020012060c0818152505050505f73ffffffffffffffffffffffffffffffffffffffff168273ffffffffffffffffffffffffffffffffffffffff16036200015a576040517f08c379a0000000000000000000000000000000000000000000000000000000008152600401620001519062000e09565b60405180910390fd5b8160125f6101000a81548173ffffffffffffffffffffffffffffffffffffffff021916908373ffffffffffffffffffffffffffffffffffffffff1602179055505f73ffffffffffffffffffffffffffffffffffffffff168173ffffffffffffffffffffffffffffffffffffffff1614620001e057620001df81620002d860201b60201c565b5b5050508560155f6101000a81548173ffffffffffffffffffffffffffffffffffffffff021916908373ffffffffffffffffffffffffffffffffffffffff160217905550846014819055503360165f6101000a81548173ffffffffffffffffffffffffffffffffffffffff021916908373ffffffffffffffffffffffffffffffffffffffff1602179055506200027b816200040760201b60201c565b8360175f6101000a81548173ffffffffffffffffffffffffffffffffffffffff021916908373ffffffffffffffffffffffffffffffffffffffff160217905550826018819055508160198190555050505050505050505062000e97565b3373ffffffffffffffffffffffffffffffffffffffff168173ffffffffffffffffffffffffffffffffffffffff160362000349576040517f08c379a0000000000000000000000000000000000000000000000000000000008152600401620003409062000e77565b60405180910390fd5b8060135f6101000a81548173ffffffffffffffffffffffffffffffffffffffff021916908373ffffffffffffffffffffffffffffffffffffffff1602179055508073ffffffffffffffffffffffffffffffffffffffff1660125f9054906101000a900473ffffffffffffffffffffffffffffffffffffffff1673ffffffffffffffffffffffffffffffffffffffff167fed8889f560326eb138920d842192f0eb3dd22b4f139c87a2c57538e05bae127860405160405180910390a350565b80600e5f6101000a81548173ffffffffffffffffffffffffffffffffffffffff021916908373ffffffffffffffffffffffffffffffffffffffff16021790555050565b5f604051905090565b5f80fd5b5f80fd5b5f80fd5b5f80fd5b5f601f19601f8301169050919050565b7f4e487b71000000000000000000000000000000000000000000000000000000005f52604160045260245ffd5b620004ab8262000463565b810181811067ffffffffffffffff82111715620004cd57620004cc62000473565b5b80604052505050565b5f620004e16200044a565b9050620004ef8282620004a0565b919050565b5f67ffffffffffffffff82111562000511576200051062000473565b5b6200051c8262000463565b9050602081019050919050565b5f5b83811015620005485780820151818401526020810190506200052b565b5f8484015250505050565b5f620005696200056384620004f4565b620004d6565b9050828152602081018484840111156200058857620005876200045f565b5b6200059584828562000529565b509392505050565b5f82601f830112620005b457620005b36200045b565b5b8151620005c684826020860162000553565b91505092915050565b5f73ffffffffffffffffffffffffffffffffffffffff82169050919050565b5f620005fa82620005cf565b9050919050565b6200060c81620005ee565b811462000617575f80fd5b50565b5f815190506200062a8162000601565b92915050565b5f819050919050565b620006448162000630565b81146200064f575f80fd5b50565b5f81519050620006628162000639565b92915050565b5f819050919050565b6200067c8162000668565b811462000687575f80fd5b50565b5f815190506200069a8162000671565b92915050565b5f805f805f805f805f6101208a8c031215620006c157620006c062000453565b5b5f8a015167ffffffffffffffff811115620006e157620006e062000457565b5b620006ef8c828d016200059d565b99505060208a015167ffffffffffffffff81111562000713576200071262000457565b5b620007218c828d016200059d565b98505060408a015167ffffffffffffffff81111562000745576200074462000457565b5b620007538c828d016200059d565b9750506060620007668c828d016200061a565b9650506080620007798c828d0162000652565b95505060a06200078c8c828d016200061a565b94505060c06200079f8c828d016200068a565b93505060e0620007b28c828d0162000652565b925050610100620007c68c828d016200061a565b9150509295985092959850929598565b5f81519050919050565b7f4e487b71000000000000000000000000000000000000000000000000000000005f52602260045260245ffd5b5f60028204905060018216806200082557607f821691505b6020821081036200083b576200083a620007e0565b5b50919050565b5f819050815f5260205f209050919050565b5f6020601f8301049050919050565b5f82821b905092915050565b5f600883026200089f7fffffffffffffffffffffffffffffffffffffffffffffffffffffffffffffffff8262000862565b620008ab868362000862565b95508019841693508086168417925050509392505050565b5f819050919050565b5f620008ec620008e6620008e08462000630565b620008c3565b62000630565b9050919050565b5f819050919050565b6200090783620008cc565b6200091f6200091682620008f3565b8484546200086e565b825550505050565b5f90565b6200093562000927565b62000942818484620008fc565b505050565b5b8181101562000969576200095d5f826200092b565b60018101905062000948565b5050565b601f821115620009b857620009828162000841565b6200098d8462000853565b810160208510156200099d578190505b620009b5620009ac8562000853565b83018262000947565b50505b505050565b5f82821c905092915050565b5f620009da5f1984600802620009bd565b1980831691505092915050565b5f620009f48383620009c9565b9150826002028217905092915050565b62000a0f82620007d6565b67ffffffffffffffff81111562000a2b5762000a2a62000473565b5b62000a3782546200080d565b62000a448282856200096d565b5f60209050601f83116001811462000a7a575f841562000a65578287015190505b62000a718582620009e7565b86555062000ae0565b601f19841662000a8a8662000841565b5f5b8281101562000ab35784890151825560018201915060208501945060208101905062000a8c565b8683101562000ad3578489015162000acf601f891682620009c9565b8355505b6001600288020188555050505b505050505050565b5f81905092915050565b7f454950373132446f6d61696e28000000000000000000000000000000000000005f82015250565b5f62000b28600d8362000ae8565b915062000b358262000af2565b600d82019050919050565b7f737472696e67206e616d652c00000000000000000000000000000000000000005f82015250565b5f62000b76600c8362000ae8565b915062000b838262000b40565b600c82019050919050565b7f737472696e672076657273696f6e2c00000000000000000000000000000000005f82015250565b5f62000bc4600f8362000ae8565b915062000bd18262000b8e565b600f82019050919050565b7f75696e7432353620636861696e49642c000000000000000000000000000000005f82015250565b5f62000c1260108362000ae8565b915062000c1f8262000bdc565b601082019050919050565b7f6164647265737320766572696679696e67436f6e7472616374000000000000005f82015250565b5f62000c6060198362000ae8565b915062000c6d8262000c2a565b601982019050919050565b7f29000000000000000000000000000000000000000000000000000000000000005f82015250565b5f62000cae60018362000ae8565b915062000cbb8262000c78565b600182019050919050565b5f62000cd28262000b1a565b915062000cdf8262000b68565b915062000cec8262000bb6565b915062000cf98262000c04565b915062000d068262000c52565b915062000d138262000ca0565b9150819050919050565b62000d288162000668565b82525050565b62000d398162000630565b82525050565b62000d4a81620005ee565b82525050565b5f60a08201905062000d655f83018862000d1d565b62000d74602083018762000d1d565b62000d83604083018662000d1d565b62000d92606083018562000d2e565b62000da1608083018462000d3f565b9695505050505050565b5f82825260208201905092915050565b7f43616e6e6f7420736574206f776e657220746f207a65726f00000000000000005f82015250565b5f62000df160188362000dab565b915062000dfe8262000dbb565b602082019050919050565b5f6020820190508181035f83015262000e228162000de3565b9050919050565b7f43616e6e6f74207472616e7366657220746f2073656c660000000000000000005f82015250565b5f62000e5f60178362000dab565b915062000e6c8262000e29565b602082019050919050565b5f6020820190508181035f83015262000e908162000e51565b9050919050565b60805160a05160c051614e5c62000ebc5f395f6113fa01525f50505f5050614e5c5ff3fe608060405234801561000f575f80fd5b50600436106101e3575f3560e01c80637ecebe001161010d578063abf2be4f116100a0578063e985e9c51161006f578063e985e9c5146105eb578063f2fde38b1461061b578063f851a44014610637578063fd68990a14610655576101e3565b8063abf2be4f1461053f578063b190c5b81461056f578063d2b01e801461059f578063de7bf0a2146105cf576101e3565b80639ff90db9116100dc5780639ff90db9146104cf578063a22cb465146104eb578063a647e8ec14610507578063a7063d9914610523576101e3565b80637ecebe00146104215780638536208d146104515780638da5cb5b1461048157806390386d711461049f576101e3565b80634aed53c21161018557806362b264171161015457806362b264171461039957806365fd95ba146103c95780636b98fd1e146103e757806379ba509714610417576101e3565b80634aed53c2146102ed5780634d47fddb1461031d5780634f4df4421461034d578063597645a81461037d576101e3565b8063141b883e116101c1578063141b883e1461026557806323ae174a146102815780633644e5151461029f578063443b63b9146102bd576101e3565b806301b5e494146101e757806310e5e5791461021757806311eac85514610247575b5f80fd5b61020160048036038101906101fc9190612f87565b610671565b60405161020e9190613018565b60405180910390f35b610231600480360381019061022c9190613031565b61069b565b60405161023e919061306b565b60405180910390f35b61024f6106b5565b60405161025c91906130df565b60405180910390f35b61027f600480360381019061027a9190613031565b6106da565b005b610289610773565b604051610296919061306b565b60405180910390f35b6102a7610779565b6040516102b49190613110565b60405180910390f35b6102d760048036038101906102d29190613129565b610787565b6040516102e4919061306b565b60405180910390f35b61030760048036038101906103029190612f87565b61079e565b6040516103149190613018565b60405180910390f35b610337600480360381019061033291906132c9565b6107b9565b6040516103449190613018565b60405180910390f35b6103676004803603810190610362919061336e565b6107d6565b6040516103749190613018565b60405180910390f35b61039760048036038101906103929190612f87565b61086a565b005b6103b360048036038101906103ae9190613484565b61087e565b6040516103c091906135eb565b60405180910390f35b6103d16109d8565b6040516103de919061306b565b60405180910390f35b61040160048036038101906103fc9190613660565b6109e1565b60405161040e9190613018565b60405180910390f35b61041f610b56565b005b61043b6004803603810190610436919061376a565b610ce7565b604051610448919061306b565b60405180910390f35b61046b60048036038101906104669190613795565b610d2d565b604051610478919061306b565b60405180910390f35b610489610d93565b60405161049691906137f4565b60405180910390f35b6104b960048036038101906104b4919061380d565b610dbb565b6040516104c6919061306b565b60405180910390f35b6104e960048036038101906104e491906138ab565b610de5565b005b61050560048036038101906105009190613999565b610f23565b005b610521600480360381019061051c919061336e565b610f39565b005b61053d60048036038101906105389190612f87565b61103a565b005b61055960048036038101906105549190613031565b61104e565b60405161056691906135eb565b60405180910390f35b610589600480360381019061058491906139d7565b6110b5565b604051610596919061306b565b60405180910390f35b6105b960048036038101906105b49190613031565b611182565b6040516105c6919061306b565b60405180910390f35b6105e960048036038101906105e4919061336e565b61119c565b005b61060560048036038101906106009190613a15565b6111ae565b6040516106129190613018565b60405180910390f35b6106356004803603810190610630919061376a565b61123c565b005b61063f611250565b60405161064c91906137f4565b60405180910390f35b61066f600480360381019061066a9190613a53565b611275565b005b5f61068e868686868660405180602001604052805f8152506113b9565b6001905095945050505050565b5f60075f8381526020019081526020015f20549050919050565b60155f9054906101000a900473ffffffffffffffffffffffffffffffffffffffff1681565b60165f9054906101000a900473ffffffffffffffffffffffffffffffffffffffff1673ffffffffffffffffffffffffffffffffffffffff163373ffffffffffffffffffffffffffffffffffffffff1614610769576040517f08c379a000000000000000000000000000000000000000000000000000000000815260040161076090613aeb565b60405180910390fd5b8060148190555050565b60145481565b5f6107826113f7565b905090565b5f6107948585858561141e565b9050949350505050565b5f6107ac86868686866114c0565b6001905095945050505050565b5f6107c88787878787876113b9565b600190509695505050505050565b5f806107e06114fc565b90508073ffffffffffffffffffffffffffffffffffffffff168673ffffffffffffffffffffffffffffffffffffffff1603610850576040517f08c379a000000000000000000000000000000000000000000000000000000000815260040161084790613b53565b60405180910390fd5b61085d8187878787611503565b6001915050949350505050565b61087785858585856116ea565b5050505050565b6060848490508787905014801561089a57508282905087879050145b6108d9576040517f08c379a00000000000000000000000000000000000000000000000000000000081526004016108d090613be1565b60405180910390fd5b5f8787905067ffffffffffffffff8111156108f7576108f66131a5565b5b6040519080825280602002602001820160405280156109255781602001602082028036833780820191505090505b5090505f5b888890508110156109c95761099989898381811061094b5761094a613bff565b5b9050602002016020810190610960919061376a565b88888481811061097357610972613bff565b5b9050602002013587878581811061098d5761098c613bff565b5b90506020020135610d2d565b8282815181106109ac576109ab613bff565b5b602002602001018181525050806109c290613c59565b905061092a565b50809150509695505050505050565b5f600554905090565b5f806109eb6114fc565b90506109f78c826119e4565b610a36576040517f08c379a0000000000000000000000000000000000000000000000000000000008152600401610a2d90613d10565b60405180910390fd5b610b478c8c8c8c808060200260200160405190810160405280939291908181526020018383602002808284375f81840152601f19601f820116905080830192505050505050508b8b808060200260200160405190810160405280939291908181526020018383602002808284375f81840152601f19601f820116905080830192505050505050508a8a808060200260200160405190810160405280939291908181526020018383602002808284375f81840152601f19601f8201169050808301925050505050505089898080601f0160208091040260200160405190810160405280939291908181526020018383808284375f81840152601f19601f82011690508083019250505050505050611a2d565b509a9950505050505050505050565b60135f9054906101000a900473ffffffffffffffffffffffffffffffffffffffff1673ffffffffffffffffffffffffffffffffffffffff163373ffffffffffffffffffffffffffffffffffffffff1614610be5576040517f08c379a0000000000000000000000000000000000000000000000000000000008152600401610bdc90613d78565b60405180910390fd5b5f60125f9054906101000a900473ffffffffffffffffffffffffffffffffffffffff1690503360125f6101000a81548173ffffffffffffffffffffffffffffffffffffffff021916908373ffffffffffffffffffffffffffffffffffffffff1602179055505f60135f6101000a81548173ffffffffffffffffffffffffffffffffffffffff021916908373ffffffffffffffffffffffffffffffffffffffff1602179055503373ffffffffffffffffffffffffffffffffffffffff168173ffffffffffffffffffffffffffffffffffffffff167f8be0079c531659141344cd1fd0a4f28419497f9722a3daafe3b4186f6b6457e060405160405180910390a350565b5f600b5f8373ffffffffffffffffffffffffffffffffffffffff1673ffffffffffffffffffffffffffffffffffffffff1681526020019081526020015f20549050919050565b5f60025f8481526020019081526020015f205f8573ffffffffffffffffffffffffffffffffffffffff1673ffffffffffffffffffffffffffffffffffffffff1681526020019081526020015f205f8381526020019081526020015f205490509392505050565b5f60125f9054906101000a900473ffffffffffffffffffffffffffffffffffffffff16905090565b5f60085f8481526020019081526020015f205f8381526020019081526020015f2054905092915050565b83421115610e1f576040517fdf4cc36d00000000000000000000000000000000000000000000000000000000815260040160405180910390fd5b5f610e298a611dbd565b90505f604051602001610e3b9061403a565b604051602081830303815290604052805190602001208b8b8b8b8b878c604051602001610e6f9897969594939291906140a6565b6040516020818303038152906040528051906020012090505f610e9182611e55565b90505f610ea082888888611e6e565b90508c73ffffffffffffffffffffffffffffffffffffffff168173ffffffffffffffffffffffffffffffffffffffff1614610f07576040517f8baa579f00000000000000000000000000000000000000000000000000000000815260040160405180910390fd5b610f148d8d8d8d8d611503565b50505050505050505050505050565b610f35610f2e6114fc565b8383611f96565b5050565b5f81601454610f489190614122565b905060155f9054906101000a900473ffffffffffffffffffffffffffffffffffffffff1673ffffffffffffffffffffffffffffffffffffffff166323b872dd3330846040518463ffffffff1660e01b8152600401610fa893929190614163565b6020604051808303815f875af1158015610fc4573d5f803e3d5ffd5b505050506040513d601f19601f82011682018060405250810190610fe891906141ac565b611027576040517f08c379a000000000000000000000000000000000000000000000000000000000815260040161101e90614221565b60405180910390fd5b611033858585856120fd565b5050505050565b6110478585858585611503565b5050505050565b606060095f8381526020019081526020015f208054806020026020016040519081016040528092919081815260200182805480156110a957602002820191905f5260205f20905b815481526020019060010190808311611095575b50505050509050919050565b5f805f90505b60095f8481526020019081526020015f208054905081101561117b575f60095f8581526020019081526020015f2082815481106110fb576110fa613bff565b5b905f5260205f200154905060025f8581526020019081526020015f205f8673ffffffffffffffffffffffffffffffffffffffff1673ffffffffffffffffffffffffffffffffffffffff1681526020019081526020015f205f8281526020019081526020015f20548361116d919061423f565b9250816001019150506110bb565b5092915050565b5f60065f8381526020019081526020015f20549050919050565b6111a88484848461211e565b50505050565b5f60035f8473ffffffffffffffffffffffffffffffffffffffff1673ffffffffffffffffffffffffffffffffffffffff1681526020019081526020015f205f8373ffffffffffffffffffffffffffffffffffffffff1673ffffffffffffffffffffffffffffffffffffffff1681526020019081526020015f205f9054906101000a900460ff16905092915050565b611244612130565b61124d816121c1565b50565b60165f9054906101000a900473ffffffffffffffffffffffffffffffffffffffff1681565b8160115f8281526020019081526020015f205f9054906101000a900473ffffffffffffffffffffffffffffffffffffffff1673ffffffffffffffffffffffffffffffffffffffff163373ffffffffffffffffffffffffffffffffffffffff1614611314576040517f08c379a000000000000000000000000000000000000000000000000000000000815260040161130b906142e2565b60405180910390fd5b60115f8281526020019081526020015f205f6101000a81549073ffffffffffffffffffffffffffffffffffffffff0219169055807f7cc135e0cebb02c3480ae5d74d377283180a2601f8f644edf7987b009316c63a60405160405180910390a2816113b4576040517f08c379a00000000000000000000000000000000000000000000000000000000081526004016113ab9061434a565b60405180910390fd5b505050565b5f6113c26114fc565b90506113ce87826119e4565b6113e0576113df87828787876122ed565b5b6113ee87878787878761237e565b50505050505050565b5f7f0000000000000000000000000000000000000000000000000000000000000000905090565b5f60045f8673ffffffffffffffffffffffffffffffffffffffff1673ffffffffffffffffffffffffffffffffffffffff1681526020019081526020015f205f8573ffffffffffffffffffffffffffffffffffffffff1673ffffffffffffffffffffffffffffffffffffffff1681526020019081526020015f205f8481526020019081526020015f205f8381526020019081526020015f20549050949350505050565b5f6114c96114fc565b90506114d586826119e4565b6114e7576114e686828686866122ed565b5b6114f486868686866116ea565b505050505050565b5f33905090565b5f73ffffffffffffffffffffffffffffffffffffffff168573ffffffffffffffffffffffffffffffffffffffff1603611571576040517f08c379a0000000000000000000000000000000000000000000000000000000008152600401611568906143d8565b60405180910390fd5b5f73ffffffffffffffffffffffffffffffffffffffff168473ffffffffffffffffffffffffffffffffffffffff16036115df576040517f08c379a00000000000000000000000000000000000000000000000000000000081526004016115d690614440565b60405180910390fd5b8060045f8773ffffffffffffffffffffffffffffffffffffffff1673ffffffffffffffffffffffffffffffffffffffff1681526020019081526020015f205f8673ffffffffffffffffffffffffffffffffffffffff1673ffffffffffffffffffffffffffffffffffffffff1681526020019081526020015f205f8581526020019081526020015f205f8481526020019081526020015f20819055508373ffffffffffffffffffffffffffffffffffffffff168573ffffffffffffffffffffffffffffffffffffffff167f3a9c85c6b31f7a9d7fe1478f53e1be42e85db97ca30d1789cfef9196dbc472c98585856040516116db9392919061445e565b60405180910390a35050505050565b5f73ffffffffffffffffffffffffffffffffffffffff168573ffffffffffffffffffffffffffffffffffffffff1603611758576040517f08c379a000000000000000000000000000000000000000000000000000000000815260040161174f90614503565b60405180910390fd5b5f73ffffffffffffffffffffffffffffffffffffffff168473ffffffffffffffffffffffffffffffffffffffff16036117c6576040517f08c379a00000000000000000000000000000000000000000000000000000000081526004016117bd90614591565b60405180910390fd5b6117e2858585858560405180602001604052805f8152506123e0565b8060025f8581526020019081526020015f205f8773ffffffffffffffffffffffffffffffffffffffff1673ffffffffffffffffffffffffffffffffffffffff1681526020019081526020015f205f8481526020019081526020015f20541015611880576040517f08c379a00000000000000000000000000000000000000000000000000000000081526004016118779061461f565b60405180910390fd5b8060025f8581526020019081526020015f205f8773ffffffffffffffffffffffffffffffffffffffff1673ffffffffffffffffffffffffffffffffffffffff1681526020019081526020015f205f8481526020019081526020015f205f82825403925050819055508060025f8581526020019081526020015f205f8673ffffffffffffffffffffffffffffffffffffffff1673ffffffffffffffffffffffffffffffffffffffff1681526020019081526020015f205f8481526020019081526020015f205f828254611952919061423f565b92505081905550828473ffffffffffffffffffffffffffffffffffffffff168673ffffffffffffffffffffffffffffffffffffffff167fc817d75deaa278e988c41cf549ef38fe195ab65e0e64cd67ba47f0d185690d5885856040516119b992919061463d565b60405180910390a46119dd858585858560405180602001604052805f8152506123e8565b5050505050565b5f8173ffffffffffffffffffffffffffffffffffffffff168373ffffffffffffffffffffffffffffffffffffffff161480611a255750611a2483836111ae565b5b905092915050565b82518451148015611a3f575081518451145b611a7e576040517f08c379a0000000000000000000000000000000000000000000000000000000008152600401611a75906146d4565b60405180910390fd5b5f73ffffffffffffffffffffffffffffffffffffffff168573ffffffffffffffffffffffffffffffffffffffff1603611aec576040517f08c379a0000000000000000000000000000000000000000000000000000000008152600401611ae390614591565b60405180910390fd5b5f611af56114fc565b90505f5b8551811015611ce6575f868281518110611b1657611b15613bff565b5b602002602001015190505f868381518110611b3457611b33613bff565b5b602002602001015190505f868481518110611b5257611b51613bff565b5b602002602001015190505f60025f8581526020019081526020015f205f8d73ffffffffffffffffffffffffffffffffffffffff1673ffffffffffffffffffffffffffffffffffffffff1681526020019081526020015f205f8481526020019081526020015f2054905081811015611bfe576040517f08c379a0000000000000000000000000000000000000000000000000000000008152600401611bf59061461f565b60405180910390fd5b81810360025f8681526020019081526020015f205f8e73ffffffffffffffffffffffffffffffffffffffff1673ffffffffffffffffffffffffffffffffffffffff1681526020019081526020015f205f8581526020019081526020015f20819055508160025f8681526020019081526020015f205f8d73ffffffffffffffffffffffffffffffffffffffff1673ffffffffffffffffffffffffffffffffffffffff1681526020019081526020015f205f8581526020019081526020015f205f828254611cca919061423f565b925050819055505050505080611cdf90613c59565b9050611af9565b508573ffffffffffffffffffffffffffffffffffffffff168773ffffffffffffffffffffffffffffffffffffffff168273ffffffffffffffffffffffffffffffffffffffff167ffb75bd3a9b4b3ae2b21dc1a8aad1d9ab156f8d577b05320c9c84bc98780a3752888888604051611d5f939291906146f2565b60405180910390a4611d758787878787876123f0565b611db4576040517f08c379a0000000000000000000000000000000000000000000000000000000008152600401611dab906147ac565b60405180910390fd5b50505050505050565b5f600b5f8373ffffffffffffffffffffffffffffffffffffffff1673ffffffffffffffffffffffffffffffffffffffff1681526020019081526020015f20549050600b5f8373ffffffffffffffffffffffffffffffffffffffff1673ffffffffffffffffffffffffffffffffffffffff1681526020019081526020015f205f815480929190611e4b90613c59565b9190505550919050565b5f611e67611e616113f7565b83612573565b9050919050565b5f7f7fffffffffffffffffffffffffffffff5d576e7357a4501ddfe92f46681b20a0825f1c1115611ed657816040517f5682f3bf000000000000000000000000000000000000000000000000000000008152600401611ecd9190613110565b60405180910390fd5b5f6001868686866040515f8152602001604052604051611ef994939291906147d9565b6020604051602081039080840390855afa158015611f19573d5f803e3d5ffd5b5050506020604051035190505f73ffffffffffffffffffffffffffffffffffffffff168173ffffffffffffffffffffffffffffffffffffffff1603611f8a576040517f815e1d6400000000000000000000000000000000000000000000000000000000815260040160405180910390fd5b80915050949350505050565b8173ffffffffffffffffffffffffffffffffffffffff168373ffffffffffffffffffffffffffffffffffffffff1603612004576040517f08c379a0000000000000000000000000000000000000000000000000000000008152600401611ffb90614866565b60405180910390fd5b8060035f8573ffffffffffffffffffffffffffffffffffffffff1673ffffffffffffffffffffffffffffffffffffffff1681526020019081526020015f205f8473ffffffffffffffffffffffffffffffffffffffff1673ffffffffffffffffffffffffffffffffffffffff1681526020019081526020015f205f6101000a81548160ff0219169083151502179055508173ffffffffffffffffffffffffffffffffffffffff168373ffffffffffffffffffffffffffffffffffffffff167f17307eab39ab6107e8899845ad3d59bd9653f200f220920489ca2b5937696c31836040516120f09190613018565b60405180910390a3505050565b6121188484848460405180602001604052805f8152506125b3565b50505050565b61212a84848484612613565b50505050565b60125f9054906101000a900473ffffffffffffffffffffffffffffffffffffffff1673ffffffffffffffffffffffffffffffffffffffff163373ffffffffffffffffffffffffffffffffffffffff16146121bf576040517f08c379a00000000000000000000000000000000000000000000000000000000081526004016121b6906148ce565b60405180910390fd5b565b3373ffffffffffffffffffffffffffffffffffffffff168173ffffffffffffffffffffffffffffffffffffffff160361222f576040517f08c379a000000000000000000000000000000000000000000000000000000000815260040161222690614936565b60405180910390fd5b8060135f6101000a81548173ffffffffffffffffffffffffffffffffffffffff021916908373ffffffffffffffffffffffffffffffffffffffff1602179055508073ffffffffffffffffffffffffffffffffffffffff1660125f9054906101000a900473ffffffffffffffffffffffffffffffffffffffff1673ffffffffffffffffffffffffffffffffffffffff167fed8889f560326eb138920d842192f0eb3dd22b4f139c87a2c57538e05bae127860405160405180910390a350565b5f6122fa8686868661141e565b90507fffffffffffffffffffffffffffffffffffffffffffffffffffffffffffffffff81146123765781811015612366576040517f08c379a000000000000000000000000000000000000000000000000000000000815260040161235d9061499e565b60405180910390fd5b61237586868686868603611503565b5b505050505050565b61238b86868686866116ea565b6123998686868686866127e0565b6123d8576040517f08c379a00000000000000000000000000000000000000000000000000000000081526004016123cf906147ac565b60405180910390fd5b505050505050565b505050505050565b505050505050565b5f808673ffffffffffffffffffffffffffffffffffffffff163b1115612564578573ffffffffffffffffffffffffffffffffffffffff1663c20f1e196124346114fc565b89888888886040518763ffffffff1660e01b815260040161245a96959493929190614a36565b6020604051808303815f875af192505050801561249557506040513d601f19601f820116820180604052508101906124929190614b06565b60015b612514573d805f81146124c3576040519150601f19603f3d011682016040523d82523d5f602084013e6124c8565b606091505b505f81510361250c576040517f08c379a0000000000000000000000000000000000000000000000000000000008152600401612503906147ac565b60405180910390fd5b805181602001fd5b63c20f1e1960e01b7bffffffffffffffffffffffffffffffffffffffffffffffffffffffff1916817bffffffffffffffffffffffffffffffffffffffffffffffffffffffff191614915050612569565b600190505b9695505050505050565b5f6040517f190100000000000000000000000000000000000000000000000000000000000081528360028201528260228201526042812091505092915050565b6125bf85858585612963565b6125cd5f86868686866127e0565b61260c576040517f08c379a0000000000000000000000000000000000000000000000000000000008152600401612603906147ac565b60405180910390fd5b5050505050565b61261f84848484612975565b8060075f8581526020019081526020015f205f82825403925050819055508060085f8581526020019081526020015f205f8481526020019081526020015f205f82825403925050819055505f60085f8581526020019081526020015f205f8481526020019081526020015f2054036127ac5760065f8481526020019081526020015f205f81546126ae90614b31565b919050819055505f60095f8581526020019081526020015f2090505f600a5f8681526020019081526020015f205f8581526020019081526020015f205490505f82600184805490506127009190614b58565b8154811061271157612710613bff565b5b905f5260205f2001549050808383815481106127305761272f613bff565b5b905f5260205f20018190555081600a5f8881526020019081526020015f205f8381526020019081526020015f2081905550600a5f8781526020019081526020015f205f8681526020019081526020015f205f90558280548061279557612794614b8b565b5b600190038181905f5260205f20015f905590555050505b5f60075f8581526020019081526020015f2054036127da5760055f81546127d290614b31565b919050819055505b50505050565b5f808673ffffffffffffffffffffffffffffffffffffffff163b1115612954578573ffffffffffffffffffffffffffffffffffffffff166319a367526128246114fc565b89888888886040518763ffffffff1660e01b815260040161284a96959493929190614bb8565b6020604051808303815f875af192505050801561288557506040513d601f19601f820116820180604052508101906128829190614b06565b60015b612904573d805f81146128b3576040519150601f19603f3d011682016040523d82523d5f602084013e6128b8565b606091505b505f8151036128fc576040517f08c379a00000000000000000000000000000000000000000000000000000000081526004016128f3906147ac565b60405180910390fd5b805181602001fd5b6319a3675260e01b7bffffffffffffffffffffffffffffffffffffffffffffffffffffffff1916817bffffffffffffffffffffffffffffffffffffffffffffffffffffffff191614915050612959565b600190505b9695505050505050565b61296f84848484612bd6565b50505050565b5f73ffffffffffffffffffffffffffffffffffffffff168473ffffffffffffffffffffffffffffffffffffffff16036129e3576040517f08c379a00000000000000000000000000000000000000000000000000000000081526004016129da90614c68565b60405180910390fd5b5f8103612a25576040517f08c379a0000000000000000000000000000000000000000000000000000000008152600401612a1c90614cd0565b60405180910390fd5b5f60025f8581526020019081526020015f205f8673ffffffffffffffffffffffffffffffffffffffff1673ffffffffffffffffffffffffffffffffffffffff1681526020019081526020015f205f8481526020019081526020015f2054905081811015612ac7576040517f08c379a0000000000000000000000000000000000000000000000000000000008152600401612abe90614d38565b60405180910390fd5b612ae3855f86868660405180602001604052805f8152506123e0565b8160025f8681526020019081526020015f205f8773ffffffffffffffffffffffffffffffffffffffff1673ffffffffffffffffffffffffffffffffffffffff1681526020019081526020015f205f8581526020019081526020015f205f8282540392505081905550835f73ffffffffffffffffffffffffffffffffffffffff168673ffffffffffffffffffffffffffffffffffffffff167fc817d75deaa278e988c41cf549ef38fe195ab65e0e64cd67ba47f0d185690d588686604051612bab92919061463d565b60405180910390a4612bcf855f86868660405180602001604052805f8152506123e8565b5050505050565b5f60075f8581526020019081526020015f205403612c045760055f8154612bfc90613c59565b919050819055505b5f60085f8581526020019081526020015f205f8481526020019081526020015f205403612cb35760065f8481526020019081526020015f205f8154612c4890613c59565b919050819055505f60095f8581526020019081526020015f2090508080549050600a5f8681526020019081526020015f205f8581526020019081526020015f20819055508083908060018154018082558091505060019003905f5260205f20015f9091909190915055505b8060075f8581526020019081526020015f205f828254612cd3919061423f565b925050819055508060085f8581526020019081526020015f205f8481526020019081526020015f205f828254612d09919061423f565b92505081905550612d1c84848484612d22565b50505050565b5f73ffffffffffffffffffffffffffffffffffffffff168473ffffffffffffffffffffffffffffffffffffffff1603612d90576040517f08c379a0000000000000000000000000000000000000000000000000000000008152600401612d8790614da0565b60405180910390fd5b5f8103612dd2576040517f08c379a0000000000000000000000000000000000000000000000000000000008152600401612dc990614e08565b60405180910390fd5b612dee5f8585858560405180602001604052805f8152506123e0565b8060025f8581526020019081526020015f205f8673ffffffffffffffffffffffffffffffffffffffff1673ffffffffffffffffffffffffffffffffffffffff1681526020019081526020015f205f8481526020019081526020015f205f828254612e58919061423f565b92505081905550828473ffffffffffffffffffffffffffffffffffffffff165f73ffffffffffffffffffffffffffffffffffffffff167fc817d75deaa278e988c41cf549ef38fe195ab65e0e64cd67ba47f0d185690d588585604051612ebf92919061463d565b60405180910390a4612ee35f8585858560405180602001604052805f8152506123e8565b50505050565b5f604051905090565b5f80fd5b5f80fd5b5f73ffffffffffffffffffffffffffffffffffffffff82169050919050565b5f612f2382612efa565b9050919050565b612f3381612f19565b8114612f3d575f80fd5b50565b5f81359050612f4e81612f2a565b92915050565b5f819050919050565b612f6681612f54565b8114612f70575f80fd5b50565b5f81359050612f8181612f5d565b92915050565b5f805f805f60a08688031215612fa057612f9f612ef2565b5b5f612fad88828901612f40565b9550506020612fbe88828901612f40565b9450506040612fcf88828901612f73565b9350506060612fe088828901612f73565b9250506080612ff188828901612f73565b9150509295509295909350565b5f8115159050919050565b61301281612ffe565b82525050565b5f60208201905061302b5f830184613009565b92915050565b5f6020828403121561304657613045612ef2565b5b5f61305384828501612f73565b91505092915050565b61306581612f54565b82525050565b5f60208201905061307e5f83018461305c565b92915050565b5f819050919050565b5f6130a76130a261309d84612efa565b613084565b612efa565b9050919050565b5f6130b88261308d565b9050919050565b5f6130c9826130ae565b9050919050565b6130d9816130bf565b82525050565b5f6020820190506130f25f8301846130d0565b92915050565b5f819050919050565b61310a816130f8565b82525050565b5f6020820190506131235f830184613101565b92915050565b5f805f806080858703121561314157613140612ef2565b5b5f61314e87828801612f40565b945050602061315f87828801612f40565b935050604061317087828801612f73565b925050606061318187828801612f73565b91505092959194509250565b5f80fd5b5f80fd5b5f601f19601f8301169050919050565b7f4e487b71000000000000000000000000000000000000000000000000000000005f52604160045260245ffd5b6131db82613195565b810181811067ffffffffffffffff821117156131fa576131f96131a5565b5b80604052505050565b5f61320c612ee9565b905061321882826131d2565b919050565b5f67ffffffffffffffff821115613237576132366131a5565b5b61324082613195565b9050602081019050919050565b828183375f83830152505050565b5f61326d6132688461321d565b613203565b90508281526020810184848401111561328957613288613191565b5b61329484828561324d565b509392505050565b5f82601f8301126132b0576132af61318d565b5b81356132c084826020860161325b565b91505092915050565b5f805f805f8060c087890312156132e3576132e2612ef2565b5b5f6132f089828a01612f40565b965050602061330189828a01612f40565b955050604061331289828a01612f73565b945050606061332389828a01612f73565b935050608061333489828a01612f73565b92505060a087013567ffffffffffffffff81111561335557613354612ef6565b5b61336189828a0161329c565b9150509295509295509295565b5f805f806080858703121561338657613385612ef2565b5b5f61339387828801612f40565b94505060206133a487828801612f73565b93505060406133b587828801612f73565b92505060606133c687828801612f73565b91505092959194509250565b5f80fd5b5f80fd5b5f8083601f8401126133ef576133ee61318d565b5b8235905067ffffffffffffffff81111561340c5761340b6133d2565b5b602083019150836020820283011115613428576134276133d6565b5b9250929050565b5f8083601f8401126134445761344361318d565b5b8235905067ffffffffffffffff811115613461576134606133d2565b5b60208301915083602082028301111561347d5761347c6133d6565b5b9250929050565b5f805f805f806060878903121561349e5761349d612ef2565b5b5f87013567ffffffffffffffff8111156134bb576134ba612ef6565b5b6134c789828a016133da565b9650965050602087013567ffffffffffffffff8111156134ea576134e9612ef6565b5b6134f689828a0161342f565b9450945050604087013567ffffffffffffffff81111561351957613518612ef6565b5b61352589828a0161342f565b92509250509295509295509295565b5f81519050919050565b5f82825260208201905092915050565b5f819050602082019050919050565b61356681612f54565b82525050565b5f613577838361355d565b60208301905092915050565b5f602082019050919050565b5f61359982613534565b6135a3818561353e565b93506135ae8361354e565b805f5b838110156135de5781516135c5888261356c565b97506135d083613583565b9250506001810190506135b1565b5085935050505092915050565b5f6020820190508181035f830152613603818461358f565b905092915050565b5f8083601f8401126136205761361f61318d565b5b8235905067ffffffffffffffff81111561363d5761363c6133d2565b5b602083019150836001820283011115613659576136586133d6565b5b9250929050565b5f805f805f805f805f8060c08b8d03121561367e5761367d612ef2565b5b5f61368b8d828e01612f40565b9a5050602061369c8d828e01612f40565b99505060408b013567ffffffffffffffff8111156136bd576136bc612ef6565b5b6136c98d828e0161342f565b985098505060608b013567ffffffffffffffff8111156136ec576136eb612ef6565b5b6136f88d828e0161342f565b965096505060808b013567ffffffffffffffff81111561371b5761371a612ef6565b5b6137278d828e0161342f565b945094505060a08b013567ffffffffffffffff81111561374a57613749612ef6565b5b6137568d828e0161360b565b92509250509295989b9194979a5092959850565b5f6020828403121561377f5761377e612ef2565b5b5f61378c84828501612f40565b91505092915050565b5f805f606084860312156137ac576137ab612ef2565b5b5f6137b986828701612f40565b93505060206137ca86828701612f73565b92505060406137db86828701612f73565b9150509250925092565b6137ee81612f19565b82525050565b5f6020820190506138075f8301846137e5565b92915050565b5f806040838503121561382357613822612ef2565b5b5f61383085828601612f73565b925050602061384185828601612f73565b9150509250929050565b5f60ff82169050919050565b6138608161384b565b811461386a575f80fd5b50565b5f8135905061387b81613857565b92915050565b61388a816130f8565b8114613894575f80fd5b50565b5f813590506138a581613881565b92915050565b5f805f805f805f805f6101208a8c0312156138c9576138c8612ef2565b5b5f6138d68c828d01612f40565b99505060206138e78c828d01612f40565b98505060406138f88c828d01612f73565b97505060606139098c828d01612f73565b965050608061391a8c828d01612f73565b95505060a061392b8c828d01612f73565b94505060c061393c8c828d0161386d565b93505060e061394d8c828d01613897565b92505061010061395f8c828d01613897565b9150509295985092959850929598565b61397881612ffe565b8114613982575f80fd5b50565b5f813590506139938161396f565b92915050565b5f80604083850312156139af576139ae612ef2565b5b5f6139bc85828601612f40565b92505060206139cd85828601613985565b9150509250929050565b5f80604083850312156139ed576139ec612ef2565b5b5f6139fa85828601612f40565b9250506020613a0b85828601612f73565b9150509250929050565b5f8060408385031215613a2b57613a2a612ef2565b5b5f613a3885828601612f40565b9250506020613a4985828601612f40565b9150509250929050565b5f8060408385031215613a6957613a68612ef2565b5b5f613a7685828601613897565b9250506020613a8785828601613985565b9150509250929050565b5f82825260208201905092915050565b7f4f6e6c792061646d696e2063616e2073657420746865207072696365000000005f82015250565b5f613ad5601c83613a91565b9150613ae082613aa1565b602082019050919050565b5f6020820190508181035f830152613b0281613ac9565b9050919050565b7f444c543a20617070726f76616c20746f2063757272656e74206f776e657200005f82015250565b5f613b3d601e83613a91565b9150613b4882613b09565b602082019050919050565b5f6020820190508181035f830152613b6a81613b31565b9050919050565b7f444c543a206163636f756e74732c206d61696e49647320616e6420696473206c5f8201527f656e677468206d69736d61746368000000000000000000000000000000000000602082015250565b5f613bcb602e83613a91565b9150613bd682613b71565b604082019050919050565b5f6020820190508181035f830152613bf881613bbf565b9050919050565b7f4e487b71000000000000000000000000000000000000000000000000000000005f52603260045260245ffd5b7f4e487b71000000000000000000000000000000000000000000000000000000005f52601160045260245ffd5b5f613c6382612f54565b91507fffffffffffffffffffffffffffffffffffffffffffffffffffffffffffffffff8203613c9557613c94613c2c565b5b600182019050919050565b7f444c543a2063616c6c6572206973206e6f7420746f6b656e206f776e6572206f5f8201527f7220617070726f76656420666f7220616c6c0000000000000000000000000000602082015250565b5f613cfa603283613a91565b9150613d0582613ca0565b604082019050919050565b5f6020820190508181035f830152613d2781613cee565b9050919050565b7f4d7573742062652070726f706f736564206f776e6572000000000000000000005f82015250565b5f613d62601683613a91565b9150613d6d82613d2e565b602082019050919050565b5f6020820190508181035f830152613d8f81613d56565b9050919050565b5f81905092915050565b7f5065726d697428000000000000000000000000000000000000000000000000005f82015250565b5f613dd4600783613d96565b9150613ddf82613da0565b600782019050919050565b7f61646472657373206f776e65722c0000000000000000000000000000000000005f82015250565b5f613e1e600e83613d96565b9150613e2982613dea565b600e82019050919050565b7f61646472657373207370656e6465722c000000000000000000000000000000005f82015250565b5f613e68601083613d96565b9150613e7382613e34565b601082019050919050565b7f75696e74323536206d61696e49642c00000000000000000000000000000000005f82015250565b5f613eb2600f83613d96565b9150613ebd82613e7e565b600f82019050919050565b7f75696e743235362073756249642c0000000000000000000000000000000000005f82015250565b5f613efc600e83613d96565b9150613f0782613ec8565b600e82019050919050565b7f75696e7432353620616d6f756e742c00000000000000000000000000000000005f82015250565b5f613f46600f83613d96565b9150613f5182613f12565b600f82019050919050565b7f75696e74323536206e6f6e63652c0000000000000000000000000000000000005f82015250565b5f613f90600e83613d96565b9150613f9b82613f5c565b600e82019050919050565b7f75696e7432353620646561646c696e65000000000000000000000000000000005f82015250565b5f613fda601083613d96565b9150613fe582613fa6565b601082019050919050565b7f29000000000000000000000000000000000000000000000000000000000000005f82015250565b5f614024600183613d96565b915061402f82613ff0565b600182019050919050565b5f61404482613dc8565b915061404f82613e12565b915061405a82613e5c565b915061406582613ea6565b915061407082613ef0565b915061407b82613f3a565b915061408682613f84565b915061409182613fce565b915061409c82614018565b9150819050919050565b5f610100820190506140ba5f83018b613101565b6140c7602083018a6137e5565b6140d460408301896137e5565b6140e1606083018861305c565b6140ee608083018761305c565b6140fb60a083018661305c565b61410860c083018561305c565b61411560e083018461305c565b9998505050505050505050565b5f61412c82612f54565b915061413783612f54565b925082820261414581612f54565b9150828204841483151761415c5761415b613c2c565b5b5092915050565b5f6060820190506141765f8301866137e5565b61418360208301856137e5565b614190604083018461305c565b949350505050565b5f815190506141a68161396f565b92915050565b5f602082840312156141c1576141c0612ef2565b5b5f6141ce84828501614198565b91505092915050565b7f55534443207472616e73666572206661696c65640000000000000000000000005f82015250565b5f61420b601483613a91565b9150614216826141d7565b602082019050919050565b5f6020820190508181035f830152614238816141ff565b9050919050565b5f61424982612f54565b915061425483612f54565b925082820190508082111561426c5761426b613c2c565b5b92915050565b7f536f75726365206d75737420626520746865206f7261636c65206f66207468655f8201527f2072657175657374000000000000000000000000000000000000000000000000602082015250565b5f6142cc602883613a91565b91506142d782614272565b604082019050919050565b5f6020820190508181035f8301526142f9816142c0565b9050919050565b7f566572696669636174696f6e206661696c6564000000000000000000000000005f82015250565b5f614334601383613a91565b915061433f82614300565b602082019050919050565b5f6020820190508181035f83015261436181614328565b9050919050565b7f444c543a20617070726f76652066726f6d20746865207a65726f2061646472655f8201527f7373000000000000000000000000000000000000000000000000000000000000602082015250565b5f6143c2602283613a91565b91506143cd82614368565b604082019050919050565b5f6020820190508181035f8301526143ef816143b6565b9050919050565b7f444c543a20617070726f766520746f20746865207a65726f20616464726573735f82015250565b5f61442a602083613a91565b9150614435826143f6565b602082019050919050565b5f6020820190508181035f8301526144578161441e565b9050919050565b5f6060820190506144715f83018661305c565b61447e602083018561305c565b61448b604083018461305c565b949350505050565b7f444c543a207472616e736665722066726f6d20746865207a65726f20616464725f8201527f6573730000000000000000000000000000000000000000000000000000000000602082015250565b5f6144ed602383613a91565b91506144f882614493565b604082019050919050565b5f6020820190508181035f83015261451a816144e1565b9050919050565b7f444c543a207472616e7366657220746f20746865207a65726f206164647265735f8201527f7300000000000000000000000000000000000000000000000000000000000000602082015250565b5f61457b602183613a91565b915061458682614521565b604082019050919050565b5f6020820190508181035f8301526145a88161456f565b9050919050565b7f444c543a20696e73756666696369656e742062616c616e636520666f722074725f8201527f616e736665720000000000000000000000000000000000000000000000000000602082015250565b5f614609602683613a91565b9150614614826145af565b604082019050919050565b5f6020820190508181035f830152614636816145fd565b9050919050565b5f6040820190506146505f83018561305c565b61465d602083018461305c565b9392505050565b7f444c543a206d61696e4964732c2073756249647320616e6420616d6f756e74735f8201527f206c656e677468206d69736d6174636800000000000000000000000000000000602082015250565b5f6146be603083613a91565b91506146c982614664565b604082019050919050565b5f6020820190508181035f8301526146eb816146b2565b9050919050565b5f6060820190508181035f83015261470a818661358f565b9050818103602083015261471e818561358f565b90508181036040830152614732818461358f565b9050949350505050565b7f444c543a207472616e7366657220746f206e6f6e20444c5452656365697665725f8201527f20696d706c656d656e7465720000000000000000000000000000000000000000602082015250565b5f614796602c83613a91565b91506147a18261473c565b604082019050919050565b5f6020820190508181035f8301526147c38161478a565b9050919050565b6147d38161384b565b82525050565b5f6080820190506147ec5f830187613101565b6147f960208301866147ca565b6148066040830185613101565b6148136060830184613101565b95945050505050565b7f444c543a20617070726f766520746f2063616c6c6572000000000000000000005f82015250565b5f614850601683613a91565b915061485b8261481c565b602082019050919050565b5f6020820190508181035f83015261487d81614844565b9050919050565b7f4f6e6c792063616c6c61626c65206279206f776e6572000000000000000000005f82015250565b5f6148b8601683613a91565b91506148c382614884565b602082019050919050565b5f6020820190508181035f8301526148e5816148ac565b9050919050565b7f43616e6e6f74207472616e7366657220746f2073656c660000000000000000005f82015250565b5f614920601783613a91565b915061492b826148ec565b602082019050919050565b5f6020820190508181035f83015261494d81614914565b9050919050565b7f444c543a20696e73756666696369656e7420616c6c6f77616e636500000000005f82015250565b5f614988601b83613a91565b915061499382614954565b602082019050919050565b5f6020820190508181035f8301526149b58161497c565b9050919050565b5f81519050919050565b5f82825260208201905092915050565b5f5b838110156149f35780820151818401526020810190506149d8565b5f8484015250505050565b5f614a08826149bc565b614a1281856149c6565b9350614a228185602086016149d6565b614a2b81613195565b840191505092915050565b5f60c082019050614a495f8301896137e5565b614a5660208301886137e5565b8181036040830152614a68818761358f565b90508181036060830152614a7c818661358f565b90508181036080830152614a90818561358f565b905081810360a0830152614aa481846149fe565b9050979650505050505050565b5f7fffffffff0000000000000000000000000000000000000000000000000000000082169050919050565b614ae581614ab1565b8114614aef575f80fd5b50565b5f81519050614b0081614adc565b92915050565b5f60208284031215614b1b57614b1a612ef2565b5b5f614b2884828501614af2565b91505092915050565b5f614b3b82612f54565b91505f8203614b4d57614b4c613c2c565b5b600182039050919050565b5f614b6282612f54565b9150614b6d83612f54565b9250828203905081811115614b8557614b84613c2c565b5b92915050565b7f4e487b71000000000000000000000000000000000000000000000000000000005f52603160045260245ffd5b5f60c082019050614bcb5f8301896137e5565b614bd860208301886137e5565b614be5604083018761305c565b614bf2606083018661305c565b614bff608083018561305c565b81810360a0830152614c1181846149fe565b9050979650505050505050565b7f444c543a206275726e2066726f6d20746865207a65726f2061646472657373005f82015250565b5f614c52601f83613a91565b9150614c5d82614c1e565b602082019050919050565b5f6020820190508181035f830152614c7f81614c46565b9050919050565b7f444c543a206275726e207a65726f20616d6f756e7400000000000000000000005f82015250565b5f614cba601583613a91565b9150614cc582614c86565b602082019050919050565b5f6020820190508181035f830152614ce781614cae565b9050919050565b7f444c543a20696e73756666696369656e742062616c616e6365000000000000005f82015250565b5f614d22601983613a91565b9150614d2d82614cee565b602082019050919050565b5f6020820190508181035f830152614d4f81614d16565b9050919050565b7f444c543a206d696e7420746f20746865207a65726f20616464726573730000005f82015250565b5f614d8a601d83613a91565b9150614d9582614d56565b602082019050919050565b5f6020820190508181035f830152614db781614d7e565b9050919050565b7f444c543a206d696e74207a65726f20616d6f756e7400000000000000000000005f82015250565b5f614df2601583613a91565b9150614dfd82614dbe565b602082019050919050565b5f6020820190508181035f830152614e1f81614de6565b905091905056fea2646970667358221220782f2f156d29d8e11443899412735a6ec6991aa7a1c212f650bd5d9c62047f0764736f6c63430008140033",
			"opcodes": "PUSH1 0xE0 PUSH1 0x40 MSTORE PUSH1 0x1 PUSH1 0x10 SSTORE CALLVALUE DUP1 ISZERO PUSH3 0x15 JUMPI PUSH0 DUP1 REVERT JUMPDEST POP PUSH1 0x40 MLOAD PUSH3 0x5D18 CODESIZE SUB DUP1 PUSH3 0x5D18 DUP4 CODECOPY DUP2 DUP2 ADD PUSH1 0x40 MSTORE DUP2 ADD SWAP1 PUSH3 0x3B SWAP2 SWAP1 PUSH3 0x6A0 JUMP JUMPDEST CALLER DUP1 PUSH0 DUP12 DUP11 DUP14 DUP14 DUP2 PUSH0 SWAP1 DUP2 PUSH3 0x52 SWAP2 SWAP1 PUSH3 0xA04 JUMP JUMPDEST POP DUP1 PUSH1 0x1 SWAP1 DUP2 PUSH3 0x64 SWAP2 SWAP1 PUSH3 0xA04 JUMP JUMPDEST POP POP POP DUP2 DUP1 MLOAD SWAP1 PUSH1 0x20 ADD KECCAK256 PUSH1 0x80 DUP2 DUP2 MSTORE POP POP DUP1 DUP1 MLOAD SWAP1 PUSH1 0x20 ADD KECCAK256 PUSH1 0xA0 DUP2 DUP2 MSTORE POP POP PUSH1 0x40 MLOAD PUSH1 0x20 ADD PUSH3 0x96 SWAP1 PUSH3 0xCC6 JUMP JUMPDEST PUSH1 0x40 MLOAD PUSH1 0x20 DUP2 DUP4 SUB SUB DUP2 MSTORE SWAP1 PUSH1 0x40 MSTORE DUP1 MLOAD SWAP1 PUSH1 0x20 ADD KECCAK256 PUSH1 0x80 MLOAD PUSH1 0xA0 MLOAD CHAINID ADDRESS PUSH1 0x40 MLOAD PUSH1 0x20 ADD PUSH3 0xCA SWAP6 SWAP5 SWAP4 SWAP3 SWAP2 SWAP1 PUSH3 0xD50 JUMP JUMPDEST PUSH1 0x40 MLOAD PUSH1 0x20 DUP2 DUP4 SUB SUB DUP2 MSTORE SWAP1 PUSH1 0x40 MSTORE DUP1 MLOAD SWAP1 PUSH1 0x20 ADD KECCAK256 PUSH1 0xC0 DUP2 DUP2 MSTORE POP POP POP POP PUSH0 PUSH20 0xFFFFFFFFFFFFFFFFFFFFFFFFFFFFFFFFFFFFFFFF AND DUP3 PUSH20 0xFFFFFFFFFFFFFFFFFFFFFFFFFFFFFFFFFFFFFFFF AND SUB PUSH3 0x15A JUMPI PUSH1 0x40 MLOAD PUSH32 0x8C379A000000000000000000000000000000000000000000000000000000000 DUP2 MSTORE PUSH1 0x4 ADD PUSH3 0x151 SWAP1 PUSH3 0xE09 JUMP JUMPDEST PUSH1 0x40 MLOAD DUP1 SWAP2 SUB SWAP1 REVERT JUMPDEST DUP2 PUSH1 0x12 PUSH0 PUSH2 0x100 EXP DUP2 SLOAD DUP2 PUSH20 0xFFFFFFFFFFFFFFFFFFFFFFFFFFFFFFFFFFFFFFFF MUL NOT AND SWAP1 DUP4 PUSH20 0xFFFFFFFFFFFFFFFFFFFFFFFFFFFFFFFFFFFFFFFF AND MUL OR SWAP1 SSTORE POP PUSH0 PUSH20 0xFFFFFFFFFFFFFFFFFFFFFFFFFFFFFFFFFFFFFFFF AND DUP2 PUSH20 0xFFFFFFFFFFFFFFFFFFFFFFFFFFFFFFFFFFFFFFFF AND EQ PUSH3 0x1E0 JUMPI PUSH3 0x1DF DUP2 PUSH3 0x2D8 PUSH1 0x20 SHL PUSH1 0x20 SHR JUMP JUMPDEST JUMPDEST POP POP POP DUP6 PUSH1 0x15 PUSH0 PUSH2 0x100 EXP DUP2 SLOAD DUP2 PUSH20 0xFFFFFFFFFFFFFFFFFFFFFFFFFFFFFFFFFFFFFFFF MUL NOT AND SWAP1 DUP4 PUSH20 0xFFFFFFFFFFFFFFFFFFFFFFFFFFFFFFFFFFFFFFFF AND MUL OR SWAP1 SSTORE POP DUP5 PUSH1 0x14 DUP2 SWAP1 SSTORE POP CALLER PUSH1 0x16 PUSH0 PUSH2 0x100 EXP DUP2 SLOAD DUP2 PUSH20 0xFFFFFFFFFFFFFFFFFFFFFFFFFFFFFFFFFFFFFFFF MUL NOT AND SWAP1 DUP4 PUSH20 0xFFFFFFFFFFFFFFFFFFFFFFFFFFFFFFFFFFFFFFFF AND MUL OR SWAP1 SSTORE POP PUSH3 0x27B DUP2 PUSH3 0x407 PUSH1 0x20 SHL PUSH1 0x20 SHR JUMP JUMPDEST DUP4 PUSH1 0x17 PUSH0 PUSH2 0x100 EXP DUP2 SLOAD DUP2 PUSH20 0xFFFFFFFFFFFFFFFFFFFFFFFFFFFFFFFFFFFFFFFF MUL NOT AND SWAP1 DUP4 PUSH20 0xFFFFFFFFFFFFFFFFFFFFFFFFFFFFFFFFFFFFFFFF AND MUL OR SWAP1 SSTORE POP DUP3 PUSH1 0x18 DUP2 SWAP1 SSTORE POP DUP2 PUSH1 0x19 DUP2 SWAP1 SSTORE POP POP POP POP POP POP POP POP POP POP PUSH3 0xE97 JUMP JUMPDEST CALLER PUSH20 0xFFFFFFFFFFFFFFFFFFFFFFFFFFFFFFFFFFFFFFFF AND DUP2 PUSH20 0xFFFFFFFFFFFFFFFFFFFFFFFFFFFFFFFFFFFFFFFF AND SUB PUSH3 0x349 JUMPI PUSH1 0x40 MLOAD PUSH32 0x8C379A000000000000000000000000000000000000000000000000000000000 DUP2 MSTORE PUSH1 0x4 ADD PUSH3 0x340 SWAP1 PUSH3 0xE77 JUMP JUMPDEST PUSH1 0x40 MLOAD DUP1 SWAP2 SUB SWAP1 REVERT JUMPDEST DUP1 PUSH1 0x13 PUSH0 PUSH2 0x100 EXP DUP2 SLOAD DUP2 PUSH20 0xFFFFFFFFFFFFFFFFFFFFFFFFFFFFFFFFFFFFFFFF MUL NOT AND SWAP1 DUP4 PUSH20 0xFFFFFFFFFFFFFFFFFFFFFFFFFFFFFFFFFFFFFFFF AND MUL OR SWAP1 SSTORE POP DUP1 PUSH20 0xFFFFFFFFFFFFFFFFFFFFFFFFFFFFFFFFFFFFFFFF AND PUSH1 0x12 PUSH0 SWAP1 SLOAD SWAP1 PUSH2 0x100 EXP SWAP1 DIV PUSH20 0xFFFFFFFFFFFFFFFFFFFFFFFFFFFFFFFFFFFFFFFF AND PUSH20 0xFFFFFFFFFFFFFFFFFFFFFFFFFFFFFFFFFFFFFFFF AND PUSH32 0xED8889F560326EB138920D842192F0EB3DD22B4F139C87A2C57538E05BAE1278 PUSH1 0x40 MLOAD PUSH1 0x40 MLOAD DUP1 SWAP2 SUB SWAP1 LOG3 POP JUMP JUMPDEST DUP1 PUSH1 0xE PUSH0 PUSH2 0x100 EXP DUP2 SLOAD DUP2 PUSH20 0xFFFFFFFFFFFFFFFFFFFFFFFFFFFFFFFFFFFFFFFF MUL NOT AND SWAP1 DUP4 PUSH20 0xFFFFFFFFFFFFFFFFFFFFFFFFFFFFFFFFFFFFFFFF AND MUL OR SWAP1 SSTORE POP POP JUMP JUMPDEST PUSH0 PUSH1 0x40 MLOAD SWAP1 POP SWAP1 JUMP JUMPDEST PUSH0 DUP1 REVERT JUMPDEST PUSH0 DUP1 REVERT JUMPDEST PUSH0 DUP1 REVERT JUMPDEST PUSH0 DUP1 REVERT JUMPDEST PUSH0 PUSH1 0x1F NOT PUSH1 0x1F DUP4 ADD AND SWAP1 POP SWAP2 SWAP1 POP JUMP JUMPDEST PUSH32 0x4E487B7100000000000000000000000000000000000000000000000000000000 PUSH0 MSTORE PUSH1 0x41 PUSH1 0x4 MSTORE PUSH1 0x24 PUSH0 REVERT JUMPDEST PUSH3 0x4AB DUP3 PUSH3 0x463 JUMP JUMPDEST DUP2 ADD DUP2 DUP2 LT PUSH8 0xFFFFFFFFFFFFFFFF DUP3 GT OR ISZERO PUSH3 0x4CD JUMPI PUSH3 0x4CC PUSH3 0x473 JUMP JUMPDEST JUMPDEST DUP1 PUSH1 0x40 MSTORE POP POP POP JUMP JUMPDEST PUSH0 PUSH3 0x4E1 PUSH3 0x44A JUMP JUMPDEST SWAP1 POP PUSH3 0x4EF DUP3 DUP3 PUSH3 0x4A0 JUMP JUMPDEST SWAP2 SWAP1 POP JUMP JUMPDEST PUSH0 PUSH8 0xFFFFFFFFFFFFFFFF DUP3 GT ISZERO PUSH3 0x511 JUMPI PUSH3 0x510 PUSH3 0x473 JUMP JUMPDEST JUMPDEST PUSH3 0x51C DUP3 PUSH3 0x463 JUMP JUMPDEST SWAP1 POP PUSH1 0x20 DUP2 ADD SWAP1 POP SWAP2 SWAP1 POP JUMP JUMPDEST PUSH0 JUMPDEST DUP4 DUP2 LT ISZERO PUSH3 0x548 JUMPI DUP1 DUP3 ADD MLOAD DUP2 DUP5 ADD MSTORE PUSH1 0x20 DUP2 ADD SWAP1 POP PUSH3 0x52B JUMP JUMPDEST PUSH0 DUP5 DUP5 ADD MSTORE POP POP POP POP JUMP JUMPDEST PUSH0 PUSH3 0x569 PUSH3 0x563 DUP5 PUSH3 0x4F4 JUMP JUMPDEST PUSH3 0x4D6 JUMP JUMPDEST SWAP1 POP DUP3 DUP2 MSTORE PUSH1 0x20 DUP2 ADD DUP5 DUP5 DUP5 ADD GT ISZERO PUSH3 0x588 JUMPI PUSH3 0x587 PUSH3 0x45F JUMP JUMPDEST JUMPDEST PUSH3 0x595 DUP5 DUP3 DUP6 PUSH3 0x529 JUMP JUMPDEST POP SWAP4 SWAP3 POP POP POP JUMP JUMPDEST PUSH0 DUP3 PUSH1 0x1F DUP4 ADD SLT PUSH3 0x5B4 JUMPI PUSH3 0x5B3 PUSH3 0x45B JUMP JUMPDEST JUMPDEST DUP2 MLOAD PUSH3 0x5C6 DUP5 DUP3 PUSH1 0x20 DUP7 ADD PUSH3 0x553 JUMP JUMPDEST SWAP2 POP POP SWAP3 SWAP2 POP POP JUMP JUMPDEST PUSH0 PUSH20 0xFFFFFFFFFFFFFFFFFFFFFFFFFFFFFFFFFFFFFFFF DUP3 AND SWAP1 POP SWAP2 SWAP1 POP JUMP JUMPDEST PUSH0 PUSH3 0x5FA DUP3 PUSH3 0x5CF JUMP JUMPDEST SWAP1 POP SWAP2 SWAP1 POP JUMP JUMPDEST PUSH3 0x60C DUP2 PUSH3 0x5EE JUMP JUMPDEST DUP2 EQ PUSH3 0x617 JUMPI PUSH0 DUP1 REVERT JUMPDEST POP JUMP JUMPDEST PUSH0 DUP2 MLOAD SWAP1 POP PUSH3 0x62A DUP2 PUSH3 0x601 JUMP JUMPDEST SWAP3 SWAP2 POP POP JUMP JUMPDEST PUSH0 DUP2 SWAP1 POP SWAP2 SWAP1 POP JUMP JUMPDEST PUSH3 0x644 DUP2 PUSH3 0x630 JUMP JUMPDEST DUP2 EQ PUSH3 0x64F JUMPI PUSH0 DUP1 REVERT JUMPDEST POP JUMP JUMPDEST PUSH0 DUP2 MLOAD SWAP1 POP PUSH3 0x662 DUP2 PUSH3 0x639 JUMP JUMPDEST SWAP3 SWAP2 POP POP JUMP JUMPDEST PUSH0 DUP2 SWAP1 POP SWAP2 SWAP1 POP JUMP JUMPDEST PUSH3 0x67C DUP2 PUSH3 0x668 JUMP JUMPDEST DUP2 EQ PUSH3 0x687 JUMPI PUSH0 DUP1 REVERT JUMPDEST POP JUMP JUMPDEST PUSH0 DUP2 MLOAD SWAP1 POP PUSH3 0x69A DUP2 PUSH3 0x671 JUMP JUMPDEST SWAP3 SWAP2 POP POP JUMP JUMPDEST PUSH0 DUP1 PUSH0 DUP1 PUSH0 DUP1 PUSH0 DUP1 PUSH0 PUSH2 0x120 DUP11 DUP13 SUB SLT ISZERO PUSH3 0x6C1 JUMPI PUSH3 0x6C0 PUSH3 0x453 JUMP JUMPDEST JUMPDEST PUSH0 DUP11 ADD MLOAD PUSH8 0xFFFFFFFFFFFFFFFF DUP2 GT ISZERO PUSH3 0x6E1 JUMPI PUSH3 0x6E0 PUSH3 0x457 JUMP JUMPDEST JUMPDEST PUSH3 0x6EF DUP13 DUP3 DUP14 ADD PUSH3 0x59D JUMP JUMPDEST SWAP10 POP POP PUSH1 0x20 DUP11 ADD MLOAD PUSH8 0xFFFFFFFFFFFFFFFF DUP2 GT ISZERO PUSH3 0x713 JUMPI PUSH3 0x712 PUSH3 0x457 JUMP JUMPDEST JUMPDEST PUSH3 0x721 DUP13 DUP3 DUP14 ADD PUSH3 0x59D JUMP JUMPDEST SWAP9 POP POP PUSH1 0x40 DUP11 ADD MLOAD PUSH8 0xFFFFFFFFFFFFFFFF DUP2 GT ISZERO PUSH3 0x745 JUMPI PUSH3 0x744 PUSH3 0x457 JUMP JUMPDEST JUMPDEST PUSH3 0x753 DUP13 DUP3 DUP14 ADD PUSH3 0x59D JUMP JUMPDEST SWAP8 POP POP PUSH1 0x60 PUSH3 0x766 DUP13 DUP3 DUP14 ADD PUSH3 0x61A JUMP JUMPDEST SWAP7 POP POP PUSH1 0x80 PUSH3 0x779 DUP13 DUP3 DUP14 ADD PUSH3 0x652 JUMP JUMPDEST SWAP6 POP POP PUSH1 0xA0 PUSH3 0x78C DUP13 DUP3 DUP14 ADD PUSH3 0x61A JUMP JUMPDEST SWAP5 POP POP PUSH1 0xC0 PUSH3 0x79F DUP13 DUP3 DUP14 ADD PUSH3 0x68A JUMP JUMPDEST SWAP4 POP POP PUSH1 0xE0 PUSH3 0x7B2 DUP13 DUP3 DUP14 ADD PUSH3 0x652 JUMP JUMPDEST SWAP3 POP POP PUSH2 0x100 PUSH3 0x7C6 DUP13 DUP3 DUP14 ADD PUSH3 0x61A JUMP JUMPDEST SWAP2 POP POP SWAP3 SWAP6 SWAP9 POP SWAP3 SWAP6 SWAP9 POP SWAP3 SWAP6 SWAP9 JUMP JUMPDEST PUSH0 DUP2 MLOAD SWAP1 POP SWAP2 SWAP1 POP JUMP JUMPDEST PUSH32 0x4E487B7100000000000000000000000000000000000000000000000000000000 PUSH0 MSTORE PUSH1 0x22 PUSH1 0x4 MSTORE PUSH1 0x24 PUSH0 REVERT JUMPDEST PUSH0 PUSH1 0x2 DUP3 DIV SWAP1 POP PUSH1 0x1 DUP3 AND DUP1 PUSH3 0x825 JUMPI PUSH1 0x7F DUP3 AND SWAP2 POP JUMPDEST PUSH1 0x20 DUP3 LT DUP2 SUB PUSH3 0x83B JUMPI PUSH3 0x83A PUSH3 0x7E0 JUMP JUMPDEST JUMPDEST POP SWAP2 SWAP1 POP JUMP JUMPDEST PUSH0 DUP2 SWAP1 POP DUP2 PUSH0 MSTORE PUSH1 0x20 PUSH0 KECCAK256 SWAP1 POP SWAP2 SWAP1 POP JUMP JUMPDEST PUSH0 PUSH1 0x20 PUSH1 0x1F DUP4 ADD DIV SWAP1 POP SWAP2 SWAP1 POP JUMP JUMPDEST PUSH0 DUP3 DUP3 SHL SWAP1 POP SWAP3 SWAP2 POP POP JUMP JUMPDEST PUSH0 PUSH1 0x8 DUP4 MUL PUSH3 0x89F PUSH32 0xFFFFFFFFFFFFFFFFFFFFFFFFFFFFFFFFFFFFFFFFFFFFFFFFFFFFFFFFFFFFFFFF DUP3 PUSH3 0x862 JUMP JUMPDEST PUSH3 0x8AB DUP7 DUP4 PUSH3 0x862 JUMP JUMPDEST SWAP6 POP DUP1 NOT DUP5 AND SWAP4 POP DUP1 DUP7 AND DUP5 OR SWAP3 POP POP POP SWAP4 SWAP3 POP POP POP JUMP JUMPDEST PUSH0 DUP2 SWAP1 POP SWAP2 SWAP1 POP JUMP JUMPDEST PUSH0 PUSH3 0x8EC PUSH3 0x8E6 PUSH3 0x8E0 DUP5 PUSH3 0x630 JUMP JUMPDEST PUSH3 0x8C3 JUMP JUMPDEST PUSH3 0x630 JUMP JUMPDEST SWAP1 POP SWAP2 SWAP1 POP JUMP JUMPDEST PUSH0 DUP2 SWAP1 POP SWAP2 SWAP1 POP JUMP JUMPDEST PUSH3 0x907 DUP4 PUSH3 0x8CC JUMP JUMPDEST PUSH3 0x91F PUSH3 0x916 DUP3 PUSH3 0x8F3 JUMP JUMPDEST DUP5 DUP5 SLOAD PUSH3 0x86E JUMP JUMPDEST DUP3 SSTORE POP POP POP POP JUMP JUMPDEST PUSH0 SWAP1 JUMP JUMPDEST PUSH3 0x935 PUSH3 0x927 JUMP JUMPDEST PUSH3 0x942 DUP2 DUP5 DUP5 PUSH3 0x8FC JUMP JUMPDEST POP POP POP JUMP JUMPDEST JUMPDEST DUP2 DUP2 LT ISZERO PUSH3 0x969 JUMPI PUSH3 0x95D PUSH0 DUP3 PUSH3 0x92B JUMP JUMPDEST PUSH1 0x1 DUP2 ADD SWAP1 POP PUSH3 0x948 JUMP JUMPDEST POP POP JUMP JUMPDEST PUSH1 0x1F DUP3 GT ISZERO PUSH3 0x9B8 JUMPI PUSH3 0x982 DUP2 PUSH3 0x841 JUMP JUMPDEST PUSH3 0x98D DUP5 PUSH3 0x853 JUMP JUMPDEST DUP2 ADD PUSH1 0x20 DUP6 LT ISZERO PUSH3 0x99D JUMPI DUP2 SWAP1 POP JUMPDEST PUSH3 0x9B5 PUSH3 0x9AC DUP6 PUSH3 0x853 JUMP JUMPDEST DUP4 ADD DUP3 PUSH3 0x947 JUMP JUMPDEST POP POP JUMPDEST POP POP POP JUMP JUMPDEST PUSH0 DUP3 DUP3 SHR SWAP1 POP SWAP3 SWAP2 POP POP JUMP JUMPDEST PUSH0 PUSH3 0x9DA PUSH0 NOT DUP5 PUSH1 0x8 MUL PUSH3 0x9BD JUMP JUMPDEST NOT DUP1 DUP4 AND SWAP2 POP POP SWAP3 SWAP2 POP POP JUMP JUMPDEST PUSH0 PUSH3 0x9F4 DUP4 DUP4 PUSH3 0x9C9 JUMP JUMPDEST SWAP2 POP DUP3 PUSH1 0x2 MUL DUP3 OR SWAP1 POP SWAP3 SWAP2 POP POP JUMP JUMPDEST PUSH3 0xA0F DUP3 PUSH3 0x7D6 JUMP JUMPDEST PUSH8 0xFFFFFFFFFFFFFFFF DUP2 GT ISZERO PUSH3 0xA2B JUMPI PUSH3 0xA2A PUSH3 0x473 JUMP JUMPDEST JUMPDEST PUSH3 0xA37 DUP3 SLOAD PUSH3 0x80D JUMP JUMPDEST PUSH3 0xA44 DUP3 DUP3 DUP6 PUSH3 0x96D JUMP JUMPDEST PUSH0 PUSH1 0x20 SWAP1 POP PUSH1 0x1F DUP4 GT PUSH1 0x1 DUP2 EQ PUSH3 0xA7A JUMPI PUSH0 DUP5 ISZERO PUSH3 0xA65 JUMPI DUP3 DUP8 ADD MLOAD SWAP1 POP JUMPDEST PUSH3 0xA71 DUP6 DUP3 PUSH3 0x9E7 JUMP JUMPDEST DUP7 SSTORE POP PUSH3 0xAE0 JUMP JUMPDEST PUSH1 0x1F NOT DUP5 AND PUSH3 0xA8A DUP7 PUSH3 0x841 JUMP JUMPDEST PUSH0 JUMPDEST DUP3 DUP2 LT ISZERO PUSH3 0xAB3 JUMPI DUP5 DUP10 ADD MLOAD DUP3 SSTORE PUSH1 0x1 DUP3 ADD SWAP2 POP PUSH1 0x20 DUP6 ADD SWAP5 POP PUSH1 0x20 DUP2 ADD SWAP1 POP PUSH3 0xA8C JUMP JUMPDEST DUP7 DUP4 LT ISZERO PUSH3 0xAD3 JUMPI DUP5 DUP10 ADD MLOAD PUSH3 0xACF PUSH1 0x1F DUP10 AND DUP3 PUSH3 0x9C9 JUMP JUMPDEST DUP4 SSTORE POP JUMPDEST PUSH1 0x1 PUSH1 0x2 DUP9 MUL ADD DUP9 SSTORE POP POP POP JUMPDEST POP POP POP POP POP POP JUMP JUMPDEST PUSH0 DUP2 SWAP1 POP SWAP3 SWAP2 POP POP JUMP JUMPDEST PUSH32 0x454950373132446F6D61696E2800000000000000000000000000000000000000 PUSH0 DUP3 ADD MSTORE POP JUMP JUMPDEST PUSH0 PUSH3 0xB28 PUSH1 0xD DUP4 PUSH3 0xAE8 JUMP JUMPDEST SWAP2 POP PUSH3 0xB35 DUP3 PUSH3 0xAF2 JUMP JUMPDEST PUSH1 0xD DUP3 ADD SWAP1 POP SWAP2 SWAP1 POP JUMP JUMPDEST PUSH32 0x737472696E67206E616D652C0000000000000000000000000000000000000000 PUSH0 DUP3 ADD MSTORE POP JUMP JUMPDEST PUSH0 PUSH3 0xB76 PUSH1 0xC DUP4 PUSH3 0xAE8 JUMP JUMPDEST SWAP2 POP PUSH3 0xB83 DUP3 PUSH3 0xB40 JUMP JUMPDEST PUSH1 0xC DUP3 ADD SWAP1 POP SWAP2 SWAP1 POP JUMP JUMPDEST PUSH32 0x737472696E672076657273696F6E2C0000000000000000000000000000000000 PUSH0 DUP3 ADD MSTORE POP JUMP JUMPDEST PUSH0 PUSH3 0xBC4 PUSH1 0xF DUP4 PUSH3 0xAE8 JUMP JUMPDEST SWAP2 POP PUSH3 0xBD1 DUP3 PUSH3 0xB8E JUMP JUMPDEST PUSH1 0xF DUP3 ADD SWAP1 POP SWAP2 SWAP1 POP JUMP JUMPDEST PUSH32 0x75696E7432353620636861696E49642C00000000000000000000000000000000 PUSH0 DUP3 ADD MSTORE POP JUMP JUMPDEST PUSH0 PUSH3 0xC12 PUSH1 0x10 DUP4 PUSH3 0xAE8 JUMP JUMPDEST SWAP2 POP PUSH3 0xC1F DUP3 PUSH3 0xBDC JUMP JUMPDEST PUSH1 0x10 DUP3 ADD SWAP1 POP SWAP2 SWAP1 POP JUMP JUMPDEST PUSH32 0x6164647265737320766572696679696E67436F6E747261637400000000000000 PUSH0 DUP3 ADD MSTORE POP JUMP JUMPDEST PUSH0 PUSH3 0xC60 PUSH1 0x19 DUP4 PUSH3 0xAE8 JUMP JUMPDEST SWAP2 POP PUSH3 0xC6D DUP3 PUSH3 0xC2A JUMP JUMPDEST PUSH1 0x19 DUP3 ADD SWAP1 POP SWAP2 SWAP1 POP JUMP JUMPDEST PUSH32 0x2900000000000000000000000000000000000000000000000000000000000000 PUSH0 DUP3 ADD MSTORE POP JUMP JUMPDEST PUSH0 PUSH3 0xCAE PUSH1 0x1 DUP4 PUSH3 0xAE8 JUMP JUMPDEST SWAP2 POP PUSH3 0xCBB DUP3 PUSH3 0xC78 JUMP JUMPDEST PUSH1 0x1 DUP3 ADD SWAP1 POP SWAP2 SWAP1 POP JUMP JUMPDEST PUSH0 PUSH3 0xCD2 DUP3 PUSH3 0xB1A JUMP JUMPDEST SWAP2 POP PUSH3 0xCDF DUP3 PUSH3 0xB68 JUMP JUMPDEST SWAP2 POP PUSH3 0xCEC DUP3 PUSH3 0xBB6 JUMP JUMPDEST SWAP2 POP PUSH3 0xCF9 DUP3 PUSH3 0xC04 JUMP JUMPDEST SWAP2 POP PUSH3 0xD06 DUP3 PUSH3 0xC52 JUMP JUMPDEST SWAP2 POP PUSH3 0xD13 DUP3 PUSH3 0xCA0 JUMP JUMPDEST SWAP2 POP DUP2 SWAP1 POP SWAP2 SWAP1 POP JUMP JUMPDEST PUSH3 0xD28 DUP2 PUSH3 0x668 JUMP JUMPDEST DUP3 MSTORE POP POP JUMP JUMPDEST PUSH3 0xD39 DUP2 PUSH3 0x630 JUMP JUMPDEST DUP3 MSTORE POP POP JUMP JUMPDEST PUSH3 0xD4A DUP2 PUSH3 0x5EE JUMP JUMPDEST DUP3 MSTORE POP POP JUMP JUMPDEST PUSH0 PUSH1 0xA0 DUP3 ADD SWAP1 POP PUSH3 0xD65 PUSH0 DUP4 ADD DUP9 PUSH3 0xD1D JUMP JUMPDEST PUSH3 0xD74 PUSH1 0x20 DUP4 ADD DUP8 PUSH3 0xD1D JUMP JUMPDEST PUSH3 0xD83 PUSH1 0x40 DUP4 ADD DUP7 PUSH3 0xD1D JUMP JUMPDEST PUSH3 0xD92 PUSH1 0x60 DUP4 ADD DUP6 PUSH3 0xD2E JUMP JUMPDEST PUSH3 0xDA1 PUSH1 0x80 DUP4 ADD DUP5 PUSH3 0xD3F JUMP JUMPDEST SWAP7 SWAP6 POP POP POP POP POP POP JUMP JUMPDEST PUSH0 DUP3 DUP3 MSTORE PUSH1 0x20 DUP3 ADD SWAP1 POP SWAP3 SWAP2 POP POP JUMP JUMPDEST PUSH32 0x43616E6E6F7420736574206F776E657220746F207A65726F0000000000000000 PUSH0 DUP3 ADD MSTORE POP JUMP JUMPDEST PUSH0 PUSH3 0xDF1 PUSH1 0x18 DUP4 PUSH3 0xDAB JUMP JUMPDEST SWAP2 POP PUSH3 0xDFE DUP3 PUSH3 0xDBB JUMP JUMPDEST PUSH1 0x20 DUP3 ADD SWAP1 POP SWAP2 SWAP1 POP JUMP JUMPDEST PUSH0 PUSH1 0x20 DUP3 ADD SWAP1 POP DUP2 DUP2 SUB PUSH0 DUP4 ADD MSTORE PUSH3 0xE22 DUP2 PUSH3 0xDE3 JUMP JUMPDEST SWAP1 POP SWAP2 SWAP1 POP JUMP JUMPDEST PUSH32 0x43616E6E6F74207472616E7366657220746F2073656C66000000000000000000 PUSH0 DUP3 ADD MSTORE POP JUMP JUMPDEST PUSH0 PUSH3 0xE5F PUSH1 0x17 DUP4 PUSH3 0xDAB JUMP JUMPDEST SWAP2 POP PUSH3 0xE6C DUP3 PUSH3 0xE29 JUMP JUMPDEST PUSH1 0x20 DUP3 ADD SWAP1 POP SWAP2 SWAP1 POP JUMP JUMPDEST PUSH0 PUSH1 0x20 DUP3 ADD SWAP1 POP DUP2 DUP2 SUB PUSH0 DUP4 ADD MSTORE PUSH3 0xE90 DUP2 PUSH3 0xE51 JUMP JUMPDEST SWAP1 POP SWAP2 SWAP1 POP JUMP JUMPDEST PUSH1 0x80 MLOAD PUSH1 0xA0 MLOAD PUSH1 0xC0 MLOAD PUSH2 0x4E5C PUSH3 0xEBC PUSH0 CODECOPY PUSH0 PUSH2 0x13FA ADD MSTORE PUSH0 POP POP PUSH0 POP POP PUSH2 0x4E5C PUSH0 RETURN INVALID PUSH1 0x80 PUSH1 0x40 MSTORE CALLVALUE DUP1 ISZERO PUSH2 0xF JUMPI PUSH0 DUP1 REVERT JUMPDEST POP PUSH1 0x4 CALLDATASIZE LT PUSH2 0x1E3 JUMPI PUSH0 CALLDATALOAD PUSH1 0xE0 SHR DUP1 PUSH4 0x7ECEBE00 GT PUSH2 0x10D JUMPI DUP1 PUSH4 0xABF2BE4F GT PUSH2 0xA0 JUMPI DUP1 PUSH4 0xE985E9C5 GT PUSH2 0x6F JUMPI DUP1 PUSH4 0xE985E9C5 EQ PUSH2 0x5EB JUMPI DUP1 PUSH4 0xF2FDE38B EQ PUSH2 0x61B JUMPI DUP1 PUSH4 0xF851A440 EQ PUSH2 0x637 JUMPI DUP1 PUSH4 0xFD68990A EQ PUSH2 0x655 JUMPI PUSH2 0x1E3 JUMP JUMPDEST DUP1 PUSH4 0xABF2BE4F EQ PUSH2 0x53F JUMPI DUP1 PUSH4 0xB190C5B8 EQ PUSH2 0x56F JUMPI DUP1 PUSH4 0xD2B01E80 EQ PUSH2 0x59F JUMPI DUP1 PUSH4 0xDE7BF0A2 EQ PUSH2 0x5CF JUMPI PUSH2 0x1E3 JUMP JUMPDEST DUP1 PUSH4 0x9FF90DB9 GT PUSH2 0xDC JUMPI DUP1 PUSH4 0x9FF90DB9 EQ PUSH2 0x4CF JUMPI DUP1 PUSH4 0xA22CB465 EQ PUSH2 0x4EB JUMPI DUP1 PUSH4 0xA647E8EC EQ PUSH2 0x507 JUMPI DUP1 PUSH4 0xA7063D99 EQ PUSH2 0x523 JUMPI PUSH2 0x1E3 JUMP JUMPDEST DUP1 PUSH4 0x7ECEBE00 EQ PUSH2 0x421 JUMPI DUP1 PUSH4 0x8536208D EQ PUSH2 0x451 JUMPI DUP1 PUSH4 0x8DA5CB5B EQ PUSH2 0x481 JUMPI DUP1 PUSH4 0x90386D71 EQ PUSH2 0x49F JUMPI PUSH2 0x1E3 JUMP JUMPDEST DUP1 PUSH4 0x4AED53C2 GT PUSH2 0x185 JUMPI DUP1 PUSH4 0x62B26417 GT PUSH2 0x154 JUMPI DUP1 PUSH4 0x62B26417 EQ PUSH2 0x399 JUMPI DUP1 PUSH4 0x65FD95BA EQ PUSH2 0x3C9 JUMPI DUP1 PUSH4 0x6B98FD1E EQ PUSH2 0x3E7 JUMPI DUP1 PUSH4 0x79BA5097 EQ PUSH2 0x417 JUMPI PUSH2 0x1E3 JUMP JUMPDEST DUP1 PUSH4 0x4AED53C2 EQ PUSH2 0x2ED JUMPI DUP1 PUSH4 0x4D47FDDB EQ PUSH2 0x31D JUMPI DUP1 PUSH4 0x4F4DF442 EQ PUSH2 0x34D JUMPI DUP1 PUSH4 0x597645A8 EQ PUSH2 0x37D JUMPI PUSH2 0x1E3 JUMP JUMPDEST DUP1 PUSH4 0x141B883E GT PUSH2 0x1C1 JUMPI DUP1 PUSH4 0x141B883E EQ PUSH2 0x265 JUMPI DUP1 PUSH4 0x23AE174A EQ PUSH2 0x281 JUMPI DUP1 PUSH4 0x3644E515 EQ PUSH2 0x29F JUMPI DUP1 PUSH4 0x443B63B9 EQ PUSH2 0x2BD JUMPI PUSH2 0x1E3 JUMP JUMPDEST DUP1 PUSH4 0x1B5E494 EQ PUSH2 0x1E7 JUMPI DUP1 PUSH4 0x10E5E579 EQ PUSH2 0x217 JUMPI DUP1 PUSH4 0x11EAC855 EQ PUSH2 0x247 JUMPI JUMPDEST PUSH0 DUP1 REVERT JUMPDEST PUSH2 0x201 PUSH1 0x4 DUP1 CALLDATASIZE SUB DUP2 ADD SWAP1 PUSH2 0x1FC SWAP2 SWAP1 PUSH2 0x2F87 JUMP JUMPDEST PUSH2 0x671 JUMP JUMPDEST PUSH1 0x40 MLOAD PUSH2 0x20E SWAP2 SWAP1 PUSH2 0x3018 JUMP JUMPDEST PUSH1 0x40 MLOAD DUP1 SWAP2 SUB SWAP1 RETURN JUMPDEST PUSH2 0x231 PUSH1 0x4 DUP1 CALLDATASIZE SUB DUP2 ADD SWAP1 PUSH2 0x22C SWAP2 SWAP1 PUSH2 0x3031 JUMP JUMPDEST PUSH2 0x69B JUMP JUMPDEST PUSH1 0x40 MLOAD PUSH2 0x23E SWAP2 SWAP1 PUSH2 0x306B JUMP JUMPDEST PUSH1 0x40 MLOAD DUP1 SWAP2 SUB SWAP1 RETURN JUMPDEST PUSH2 0x24F PUSH2 0x6B5 JUMP JUMPDEST PUSH1 0x40 MLOAD PUSH2 0x25C SWAP2 SWAP1 PUSH2 0x30DF JUMP JUMPDEST PUSH1 0x40 MLOAD DUP1 SWAP2 SUB SWAP1 RETURN JUMPDEST PUSH2 0x27F PUSH1 0x4 DUP1 CALLDATASIZE SUB DUP2 ADD SWAP1 PUSH2 0x27A SWAP2 SWAP1 PUSH2 0x3031 JUMP JUMPDEST PUSH2 0x6DA JUMP JUMPDEST STOP JUMPDEST PUSH2 0x289 PUSH2 0x773 JUMP JUMPDEST PUSH1 0x40 MLOAD PUSH2 0x296 SWAP2 SWAP1 PUSH2 0x306B JUMP JUMPDEST PUSH1 0x40 MLOAD DUP1 SWAP2 SUB SWAP1 RETURN JUMPDEST PUSH2 0x2A7 PUSH2 0x779 JUMP JUMPDEST PUSH1 0x40 MLOAD PUSH2 0x2B4 SWAP2 SWAP1 PUSH2 0x3110 JUMP JUMPDEST PUSH1 0x40 MLOAD DUP1 SWAP2 SUB SWAP1 RETURN JUMPDEST PUSH2 0x2D7 PUSH1 0x4 DUP1 CALLDATASIZE SUB DUP2 ADD SWAP1 PUSH2 0x2D2 SWAP2 SWAP1 PUSH2 0x3129 JUMP JUMPDEST PUSH2 0x787 JUMP JUMPDEST PUSH1 0x40 MLOAD PUSH2 0x2E4 SWAP2 SWAP1 PUSH2 0x306B JUMP JUMPDEST PUSH1 0x40 MLOAD DUP1 SWAP2 SUB SWAP1 RETURN JUMPDEST PUSH2 0x307 PUSH1 0x4 DUP1 CALLDATASIZE SUB DUP2 ADD SWAP1 PUSH2 0x302 SWAP2 SWAP1 PUSH2 0x2F87 JUMP JUMPDEST PUSH2 0x79E JUMP JUMPDEST PUSH1 0x40 MLOAD PUSH2 0x314 SWAP2 SWAP1 PUSH2 0x3018 JUMP JUMPDEST PUSH1 0x40 MLOAD DUP1 SWAP2 SUB SWAP1 RETURN JUMPDEST PUSH2 0x337 PUSH1 0x4 DUP1 CALLDATASIZE SUB DUP2 ADD SWAP1 PUSH2 0x332 SWAP2 SWAP1 PUSH2 0x32C9 JUMP JUMPDEST PUSH2 0x7B9 JUMP JUMPDEST PUSH1 0x40 MLOAD PUSH2 0x344 SWAP2 SWAP1 PUSH2 0x3018 JUMP JUMPDEST PUSH1 0x40 MLOAD DUP1 SWAP2 SUB SWAP1 RETURN JUMPDEST PUSH2 0x367 PUSH1 0x4 DUP1 CALLDATASIZE SUB DUP2 ADD SWAP1 PUSH2 0x362 SWAP2 SWAP1 PUSH2 0x336E JUMP JUMPDEST PUSH2 0x7D6 JUMP JUMPDEST PUSH1 0x40 MLOAD PUSH2 0x374 SWAP2 SWAP1 PUSH2 0x3018 JUMP JUMPDEST PUSH1 0x40 MLOAD DUP1 SWAP2 SUB SWAP1 RETURN JUMPDEST PUSH2 0x397 PUSH1 0x4 DUP1 CALLDATASIZE SUB DUP2 ADD SWAP1 PUSH2 0x392 SWAP2 SWAP1 PUSH2 0x2F87 JUMP JUMPDEST PUSH2 0x86A JUMP JUMPDEST STOP JUMPDEST PUSH2 0x3B3 PUSH1 0x4 DUP1 CALLDATASIZE SUB DUP2 ADD SWAP1 PUSH2 0x3AE SWAP2 SWAP1 PUSH2 0x3484 JUMP JUMPDEST PUSH2 0x87E JUMP JUMPDEST PUSH1 0x40 MLOAD PUSH2 0x3C0 SWAP2 SWAP1 PUSH2 0x35EB JUMP JUMPDEST PUSH1 0x40 MLOAD DUP1 SWAP2 SUB SWAP1 RETURN JUMPDEST PUSH2 0x3D1 PUSH2 0x9D8 JUMP JUMPDEST PUSH1 0x40 MLOAD PUSH2 0x3DE SWAP2 SWAP1 PUSH2 0x306B JUMP JUMPDEST PUSH1 0x40 MLOAD DUP1 SWAP2 SUB SWAP1 RETURN JUMPDEST PUSH2 0x401 PUSH1 0x4 DUP1 CALLDATASIZE SUB DUP2 ADD SWAP1 PUSH2 0x3FC SWAP2 SWAP1 PUSH2 0x3660 JUMP JUMPDEST PUSH2 0x9E1 JUMP JUMPDEST PUSH1 0x40 MLOAD PUSH2 0x40E SWAP2 SWAP1 PUSH2 0x3018 JUMP JUMPDEST PUSH1 0x40 MLOAD DUP1 SWAP2 SUB SWAP1 RETURN JUMPDEST PUSH2 0x41F PUSH2 0xB56 JUMP JUMPDEST STOP JUMPDEST PUSH2 0x43B PUSH1 0x4 DUP1 CALLDATASIZE SUB DUP2 ADD SWAP1 PUSH2 0x436 SWAP2 SWAP1 PUSH2 0x376A JUMP JUMPDEST PUSH2 0xCE7 JUMP JUMPDEST PUSH1 0x40 MLOAD PUSH2 0x448 SWAP2 SWAP1 PUSH2 0x306B JUMP JUMPDEST PUSH1 0x40 MLOAD DUP1 SWAP2 SUB SWAP1 RETURN JUMPDEST PUSH2 0x46B PUSH1 0x4 DUP1 CALLDATASIZE SUB DUP2 ADD SWAP1 PUSH2 0x466 SWAP2 SWAP1 PUSH2 0x3795 JUMP JUMPDEST PUSH2 0xD2D JUMP JUMPDEST PUSH1 0x40 MLOAD PUSH2 0x478 SWAP2 SWAP1 PUSH2 0x306B JUMP JUMPDEST PUSH1 0x40 MLOAD DUP1 SWAP2 SUB SWAP1 RETURN JUMPDEST PUSH2 0x489 PUSH2 0xD93 JUMP JUMPDEST PUSH1 0x40 MLOAD PUSH2 0x496 SWAP2 SWAP1 PUSH2 0x37F4 JUMP JUMPDEST PUSH1 0x40 MLOAD DUP1 SWAP2 SUB SWAP1 RETURN JUMPDEST PUSH2 0x4B9 PUSH1 0x4 DUP1 CALLDATASIZE SUB DUP2 ADD SWAP1 PUSH2 0x4B4 SWAP2 SWAP1 PUSH2 0x380D JUMP JUMPDEST PUSH2 0xDBB JUMP JUMPDEST PUSH1 0x40 MLOAD PUSH2 0x4C6 SWAP2 SWAP1 PUSH2 0x306B JUMP JUMPDEST PUSH1 0x40 MLOAD DUP1 SWAP2 SUB SWAP1 RETURN JUMPDEST PUSH2 0x4E9 PUSH1 0x4 DUP1 CALLDATASIZE SUB DUP2 ADD SWAP1 PUSH2 0x4E4 SWAP2 SWAP1 PUSH2 0x38AB JUMP JUMPDEST PUSH2 0xDE5 JUMP JUMPDEST STOP JUMPDEST PUSH2 0x505 PUSH1 0x4 DUP1 CALLDATASIZE SUB DUP2 ADD SWAP1 PUSH2 0x500 SWAP2 SWAP1 PUSH2 0x3999 JUMP JUMPDEST PUSH2 0xF23 JUMP JUMPDEST STOP JUMPDEST PUSH2 0x521 PUSH1 0x4 DUP1 CALLDATASIZE SUB DUP2 ADD SWAP1 PUSH2 0x51C SWAP2 SWAP1 PUSH2 0x336E JUMP JUMPDEST PUSH2 0xF39 JUMP JUMPDEST STOP JUMPDEST PUSH2 0x53D PUSH1 0x4 DUP1 CALLDATASIZE SUB DUP2 ADD SWAP1 PUSH2 0x538 SWAP2 SWAP1 PUSH2 0x2F87 JUMP JUMPDEST PUSH2 0x103A JUMP JUMPDEST STOP JUMPDEST PUSH2 0x559 PUSH1 0x4 DUP1 CALLDATASIZE SUB DUP2 ADD SWAP1 PUSH2 0x554 SWAP2 SWAP1 PUSH2 0x3031 JUMP JUMPDEST PUSH2 0x104E JUMP JUMPDEST PUSH1 0x40 MLOAD PUSH2 0x566 SWAP2 SWAP1 PUSH2 0x35EB JUMP JUMPDEST PUSH1 0x40 MLOAD DUP1 SWAP2 SUB SWAP1 RETURN JUMPDEST PUSH2 0x589 PUSH1 0x4 DUP1 CALLDATASIZE SUB DUP2 ADD SWAP1 PUSH2 0x584 SWAP2 SWAP1 PUSH2 0x39D7 JUMP JUMPDEST PUSH2 0x10B5 JUMP JUMPDEST PUSH1 0x40 MLOAD PUSH2 0x596 SWAP2 SWAP1 PUSH2 0x306B JUMP JUMPDEST PUSH1 0x40 MLOAD DUP1 SWAP2 SUB SWAP1 RETURN JUMPDEST PUSH2 0x5B9 PUSH1 0x4 DUP1 CALLDATASIZE SUB DUP2 ADD SWAP1 PUSH2 0x5B4 SWAP2 SWAP1 PUSH2 0x3031 JUMP JUMPDEST PUSH2 0x1182 JUMP JUMPDEST PUSH1 0x40 MLOAD PUSH2 0x5C6 SWAP2 SWAP1 PUSH2 0x306B JUMP JUMPDEST PUSH1 0x40 MLOAD DUP1 SWAP2 SUB SWAP1 RETURN JUMPDEST PUSH2 0x5E9 PUSH1 0x4 DUP1 CALLDATASIZE SUB DUP2 ADD SWAP1 PUSH2 0x5E4 SWAP2 SWAP1 PUSH2 0x336E JUMP JUMPDEST PUSH2 0x119C JUMP JUMPDEST STOP JUMPDEST PUSH2 0x605 PUSH1 0x4 DUP1 CALLDATASIZE SUB DUP2 ADD SWAP1 PUSH2 0x600 SWAP2 SWAP1 PUSH2 0x3A15 JUMP JUMPDEST PUSH2 0x11AE JUMP JUMPDEST PUSH1 0x40 MLOAD PUSH2 0x612 SWAP2 SWAP1 PUSH2 0x3018 JUMP JUMPDEST PUSH1 0x40 MLOAD DUP1 SWAP2 SUB SWAP1 RETURN JUMPDEST PUSH2 0x635 PUSH1 0x4 DUP1 CALLDATASIZE SUB DUP2 ADD SWAP1 PUSH2 0x630 SWAP2 SWAP1 PUSH2 0x376A JUMP JUMPDEST PUSH2 0x123C JUMP JUMPDEST STOP JUMPDEST PUSH2 0x63F PUSH2 0x1250 JUMP JUMPDEST PUSH1 0x40 MLOAD PUSH2 0x64C SWAP2 SWAP1 PUSH2 0x37F4 JUMP JUMPDEST PUSH1 0x40 MLOAD DUP1 SWAP2 SUB SWAP1 RETURN JUMPDEST PUSH2 0x66F PUSH1 0x4 DUP1 CALLDATASIZE SUB DUP2 ADD SWAP1 PUSH2 0x66A SWAP2 SWAP1 PUSH2 0x3A53 JUMP JUMPDEST PUSH2 0x1275 JUMP JUMPDEST STOP JUMPDEST PUSH0 PUSH2 0x68E DUP7 DUP7 DUP7 DUP7 DUP7 PUSH1 0x40 MLOAD DUP1 PUSH1 0x20 ADD PUSH1 0x40 MSTORE DUP1 PUSH0 DUP2 MSTORE POP PUSH2 0x13B9 JUMP JUMPDEST PUSH1 0x1 SWAP1 POP SWAP6 SWAP5 POP POP POP POP POP JUMP JUMPDEST PUSH0 PUSH1 0x7 PUSH0 DUP4 DUP2 MSTORE PUSH1 0x20 ADD SWAP1 DUP2 MSTORE PUSH1 0x20 ADD PUSH0 KECCAK256 SLOAD SWAP1 POP SWAP2 SWAP1 POP JUMP JUMPDEST PUSH1 0x15 PUSH0 SWAP1 SLOAD SWAP1 PUSH2 0x100 EXP SWAP1 DIV PUSH20 0xFFFFFFFFFFFFFFFFFFFFFFFFFFFFFFFFFFFFFFFF AND DUP2 JUMP JUMPDEST PUSH1 0x16 PUSH0 SWAP1 SLOAD SWAP1 PUSH2 0x100 EXP SWAP1 DIV PUSH20 0xFFFFFFFFFFFFFFFFFFFFFFFFFFFFFFFFFFFFFFFF AND PUSH20 0xFFFFFFFFFFFFFFFFFFFFFFFFFFFFFFFFFFFFFFFF AND CALLER PUSH20 0xFFFFFFFFFFFFFFFFFFFFFFFFFFFFFFFFFFFFFFFF AND EQ PUSH2 0x769 JUMPI PUSH1 0x40 MLOAD PUSH32 0x8C379A000000000000000000000000000000000000000000000000000000000 DUP2 MSTORE PUSH1 0x4 ADD PUSH2 0x760 SWAP1 PUSH2 0x3AEB JUMP JUMPDEST PUSH1 0x40 MLOAD DUP1 SWAP2 SUB SWAP1 REVERT JUMPDEST DUP1 PUSH1 0x14 DUP2 SWAP1 SSTORE POP POP JUMP JUMPDEST PUSH1 0x14 SLOAD DUP2 JUMP JUMPDEST PUSH0 PUSH2 0x782 PUSH2 0x13F7 JUMP JUMPDEST SWAP1 POP SWAP1 JUMP JUMPDEST PUSH0 PUSH2 0x794 DUP6 DUP6 DUP6 DUP6 PUSH2 0x141E JUMP JUMPDEST SWAP1 POP SWAP5 SWAP4 POP POP POP POP JUMP JUMPDEST PUSH0 PUSH2 0x7AC DUP7 DUP7 DUP7 DUP7 DUP7 PUSH2 0x14C0 JUMP JUMPDEST PUSH1 0x1 SWAP1 POP SWAP6 SWAP5 POP POP POP POP POP JUMP JUMPDEST PUSH0 PUSH2 0x7C8 DUP8 DUP8 DUP8 DUP8 DUP8 DUP8 PUSH2 0x13B9 JUMP JUMPDEST PUSH1 0x1 SWAP1 POP SWAP7 SWAP6 POP POP POP POP POP POP JUMP JUMPDEST PUSH0 DUP1 PUSH2 0x7E0 PUSH2 0x14FC JUMP JUMPDEST SWAP1 POP DUP1 PUSH20 0xFFFFFFFFFFFFFFFFFFFFFFFFFFFFFFFFFFFFFFFF AND DUP7 PUSH20 0xFFFFFFFFFFFFFFFFFFFFFFFFFFFFFFFFFFFFFFFF AND SUB PUSH2 0x850 JUMPI PUSH1 0x40 MLOAD PUSH32 0x8C379A000000000000000000000000000000000000000000000000000000000 DUP2 MSTORE PUSH1 0x4 ADD PUSH2 0x847 SWAP1 PUSH2 0x3B53 JUMP JUMPDEST PUSH1 0x40 MLOAD DUP1 SWAP2 SUB SWAP1 REVERT JUMPDEST PUSH2 0x85D DUP2 DUP8 DUP8 DUP8 DUP8 PUSH2 0x1503 JUMP JUMPDEST PUSH1 0x1 SWAP2 POP POP SWAP5 SWAP4 POP POP POP POP JUMP JUMPDEST PUSH2 0x877 DUP6 DUP6 DUP6 DUP6 DUP6 PUSH2 0x16EA JUMP JUMPDEST POP POP POP POP POP JUMP JUMPDEST PUSH1 0x60 DUP5 DUP5 SWAP1 POP DUP8 DUP8 SWAP1 POP EQ DUP1 ISZERO PUSH2 0x89A JUMPI POP DUP3 DUP3 SWAP1 POP DUP8 DUP8 SWAP1 POP EQ JUMPDEST PUSH2 0x8D9 JUMPI PUSH1 0x40 MLOAD PUSH32 0x8C379A000000000000000000000000000000000000000000000000000000000 DUP2 MSTORE PUSH1 0x4 ADD PUSH2 0x8D0 SWAP1 PUSH2 0x3BE1 JUMP JUMPDEST PUSH1 0x40 MLOAD DUP1 SWAP2 SUB SWAP1 REVERT JUMPDEST PUSH0 DUP8 DUP8 SWAP1 POP PUSH8 0xFFFFFFFFFFFFFFFF DUP2 GT ISZERO PUSH2 0x8F7 JUMPI PUSH2 0x8F6 PUSH2 0x31A5 JUMP JUMPDEST JUMPDEST PUSH1 0x40 MLOAD SWAP1 DUP1 DUP3 MSTORE DUP1 PUSH1 0x20 MUL PUSH1 0x20 ADD DUP3 ADD PUSH1 0x40 MSTORE DUP1 ISZERO PUSH2 0x925 JUMPI DUP2 PUSH1 0x20 ADD PUSH1 0x20 DUP3 MUL DUP1 CALLDATASIZE DUP4 CALLDATACOPY DUP1 DUP3 ADD SWAP2 POP POP SWAP1 POP JUMPDEST POP SWAP1 POP PUSH0 JUMPDEST DUP9 DUP9 SWAP1 POP DUP2 LT ISZERO PUSH2 0x9C9 JUMPI PUSH2 0x999 DUP10 DUP10 DUP4 DUP2 DUP2 LT PUSH2 0x94B JUMPI PUSH2 0x94A PUSH2 0x3BFF JUMP JUMPDEST JUMPDEST SWAP1 POP PUSH1 0x20 MUL ADD PUSH1 0x20 DUP2 ADD SWAP1 PUSH2 0x960 SWAP2 SWAP1 PUSH2 0x376A JUMP JUMPDEST DUP9 DUP9 DUP5 DUP2 DUP2 LT PUSH2 0x973 JUMPI PUSH2 0x972 PUSH2 0x3BFF JUMP JUMPDEST JUMPDEST SWAP1 POP PUSH1 0x20 MUL ADD CALLDATALOAD DUP8 DUP8 DUP6 DUP2 DUP2 LT PUSH2 0x98D JUMPI PUSH2 0x98C PUSH2 0x3BFF JUMP JUMPDEST JUMPDEST SWAP1 POP PUSH1 0x20 MUL ADD CALLDATALOAD PUSH2 0xD2D JUMP JUMPDEST DUP3 DUP3 DUP2 MLOAD DUP2 LT PUSH2 0x9AC JUMPI PUSH2 0x9AB PUSH2 0x3BFF JUMP JUMPDEST JUMPDEST PUSH1 0x20 MUL PUSH1 0x20 ADD ADD DUP2 DUP2 MSTORE POP POP DUP1 PUSH2 0x9C2 SWAP1 PUSH2 0x3C59 JUMP JUMPDEST SWAP1 POP PUSH2 0x92A JUMP JUMPDEST POP DUP1 SWAP2 POP POP SWAP7 SWAP6 POP POP POP POP POP POP JUMP JUMPDEST PUSH0 PUSH1 0x5 SLOAD SWAP1 POP SWAP1 JUMP JUMPDEST PUSH0 DUP1 PUSH2 0x9EB PUSH2 0x14FC JUMP JUMPDEST SWAP1 POP PUSH2 0x9F7 DUP13 DUP3 PUSH2 0x19E4 JUMP JUMPDEST PUSH2 0xA36 JUMPI PUSH1 0x40 MLOAD PUSH32 0x8C379A000000000000000000000000000000000000000000000000000000000 DUP2 MSTORE PUSH1 0x4 ADD PUSH2 0xA2D SWAP1 PUSH2 0x3D10 JUMP JUMPDEST PUSH1 0x40 MLOAD DUP1 SWAP2 SUB SWAP1 REVERT JUMPDEST PUSH2 0xB47 DUP13 DUP13 DUP13 DUP13 DUP1 DUP1 PUSH1 0x20 MUL PUSH1 0x20 ADD PUSH1 0x40 MLOAD SWAP1 DUP2 ADD PUSH1 0x40 MSTORE DUP1 SWAP4 SWAP3 SWAP2 SWAP1 DUP2 DUP2 MSTORE PUSH1 0x20 ADD DUP4 DUP4 PUSH1 0x20 MUL DUP1 DUP3 DUP5 CALLDATACOPY PUSH0 DUP2 DUP5 ADD MSTORE PUSH1 0x1F NOT PUSH1 0x1F DUP3 ADD AND SWAP1 POP DUP1 DUP4 ADD SWAP3 POP POP POP POP POP POP POP DUP12 DUP12 DUP1 DUP1 PUSH1 0x20 MUL PUSH1 0x20 ADD PUSH1 0x40 MLOAD SWAP1 DUP2 ADD PUSH1 0x40 MSTORE DUP1 SWAP4 SWAP3 SWAP2 SWAP1 DUP2 DUP2 MSTORE PUSH1 0x20 ADD DUP4 DUP4 PUSH1 0x20 MUL DUP1 DUP3 DUP5 CALLDATACOPY PUSH0 DUP2 DUP5 ADD MSTORE PUSH1 0x1F NOT PUSH1 0x1F DUP3 ADD AND SWAP1 POP DUP1 DUP4 ADD SWAP3 POP POP POP POP POP POP POP DUP11 DUP11 DUP1 DUP1 PUSH1 0x20 MUL PUSH1 0x20 ADD PUSH1 0x40 MLOAD SWAP1 DUP2 ADD PUSH1 0x40 MSTORE DUP1 SWAP4 SWAP3 SWAP2 SWAP1 DUP2 DUP2 MSTORE PUSH1 0x20 ADD DUP4 DUP4 PUSH1 0x20 MUL DUP1 DUP3 DUP5 CALLDATACOPY PUSH0 DUP2 DUP5 ADD MSTORE PUSH1 0x1F NOT PUSH1 0x1F DUP3 ADD AND SWAP1 POP DUP1 DUP4 ADD SWAP3 POP POP POP POP POP POP POP DUP10 DUP10 DUP1 DUP1 PUSH1 0x1F ADD PUSH1 0x20 DUP1 SWAP2 DIV MUL PUSH1 0x20 ADD PUSH1 0x40 MLOAD SWAP1 DUP2 ADD PUSH1 0x40 MSTORE DUP1 SWAP4 SWAP3 SWAP2 SWAP1 DUP2 DUP2 MSTORE PUSH1 0x20 ADD DUP4 DUP4 DUP1 DUP3 DUP5 CALLDATACOPY PUSH0 DUP2 DUP5 ADD MSTORE PUSH1 0x1F NOT PUSH1 0x1F DUP3 ADD AND SWAP1 POP DUP1 DUP4 ADD SWAP3 POP POP POP POP POP POP POP PUSH2 0x1A2D JUMP JUMPDEST POP SWAP11 SWAP10 POP POP POP POP POP POP POP POP POP POP JUMP JUMPDEST PUSH1 0x13 PUSH0 SWAP1 SLOAD SWAP1 PUSH2 0x100 EXP SWAP1 DIV PUSH20 0xFFFFFFFFFFFFFFFFFFFFFFFFFFFFFFFFFFFFFFFF AND PUSH20 0xFFFFFFFFFFFFFFFFFFFFFFFFFFFFFFFFFFFFFFFF AND CALLER PUSH20 0xFFFFFFFFFFFFFFFFFFFFFFFFFFFFFFFFFFFFFFFF AND EQ PUSH2 0xBE5 JUMPI PUSH1 0x40 MLOAD PUSH32 0x8C379A000000000000000000000000000000000000000000000000000000000 DUP2 MSTORE PUSH1 0x4 ADD PUSH2 0xBDC SWAP1 PUSH2 0x3D78 JUMP JUMPDEST PUSH1 0x40 MLOAD DUP1 SWAP2 SUB SWAP1 REVERT JUMPDEST PUSH0 PUSH1 0x12 PUSH0 SWAP1 SLOAD SWAP1 PUSH2 0x100 EXP SWAP1 DIV PUSH20 0xFFFFFFFFFFFFFFFFFFFFFFFFFFFFFFFFFFFFFFFF AND SWAP1 POP CALLER PUSH1 0x12 PUSH0 PUSH2 0x100 EXP DUP2 SLOAD DUP2 PUSH20 0xFFFFFFFFFFFFFFFFFFFFFFFFFFFFFFFFFFFFFFFF MUL NOT AND SWAP1 DUP4 PUSH20 0xFFFFFFFFFFFFFFFFFFFFFFFFFFFFFFFFFFFFFFFF AND MUL OR SWAP1 SSTORE POP PUSH0 PUSH1 0x13 PUSH0 PUSH2 0x100 EXP DUP2 SLOAD DUP2 PUSH20 0xFFFFFFFFFFFFFFFFFFFFFFFFFFFFFFFFFFFFFFFF MUL NOT AND SWAP1 DUP4 PUSH20 0xFFFFFFFFFFFFFFFFFFFFFFFFFFFFFFFFFFFFFFFF AND MUL OR SWAP1 SSTORE POP CALLER PUSH20 0xFFFFFFFFFFFFFFFFFFFFFFFFFFFFFFFFFFFFFFFF AND DUP2 PUSH20 0xFFFFFFFFFFFFFFFFFFFFFFFFFFFFFFFFFFFFFFFF AND PUSH32 0x8BE0079C531659141344CD1FD0A4F28419497F9722A3DAAFE3B4186F6B6457E0 PUSH1 0x40 MLOAD PUSH1 0x40 MLOAD DUP1 SWAP2 SUB SWAP1 LOG3 POP JUMP JUMPDEST PUSH0 PUSH1 0xB PUSH0 DUP4 PUSH20 0xFFFFFFFFFFFFFFFFFFFFFFFFFFFFFFFFFFFFFFFF AND PUSH20 0xFFFFFFFFFFFFFFFFFFFFFFFFFFFFFFFFFFFFFFFF AND DUP2 MSTORE PUSH1 0x20 ADD SWAP1 DUP2 MSTORE PUSH1 0x20 ADD PUSH0 KECCAK256 SLOAD SWAP1 POP SWAP2 SWAP1 POP JUMP JUMPDEST PUSH0 PUSH1 0x2 PUSH0 DUP5 DUP2 MSTORE PUSH1 0x20 ADD SWAP1 DUP2 MSTORE PUSH1 0x20 ADD PUSH0 KECCAK256 PUSH0 DUP6 PUSH20 0xFFFFFFFFFFFFFFFFFFFFFFFFFFFFFFFFFFFFFFFF AND PUSH20 0xFFFFFFFFFFFFFFFFFFFFFFFFFFFFFFFFFFFFFFFF AND DUP2 MSTORE PUSH1 0x20 ADD SWAP1 DUP2 MSTORE PUSH1 0x20 ADD PUSH0 KECCAK256 PUSH0 DUP4 DUP2 MSTORE PUSH1 0x20 ADD SWAP1 DUP2 MSTORE PUSH1 0x20 ADD PUSH0 KECCAK256 SLOAD SWAP1 POP SWAP4 SWAP3 POP POP POP JUMP JUMPDEST PUSH0 PUSH1 0x12 PUSH0 SWAP1 SLOAD SWAP1 PUSH2 0x100 EXP SWAP1 DIV PUSH20 0xFFFFFFFFFFFFFFFFFFFFFFFFFFFFFFFFFFFFFFFF AND SWAP1 POP SWAP1 JUMP JUMPDEST PUSH0 PUSH1 0x8 PUSH0 DUP5 DUP2 MSTORE PUSH1 0x20 ADD SWAP1 DUP2 MSTORE PUSH1 0x20 ADD PUSH0 KECCAK256 PUSH0 DUP4 DUP2 MSTORE PUSH1 0x20 ADD SWAP1 DUP2 MSTORE PUSH1 0x20 ADD PUSH0 KECCAK256 SLOAD SWAP1 POP SWAP3 SWAP2 POP POP JUMP JUMPDEST DUP4 TIMESTAMP GT ISZERO PUSH2 0xE1F JUMPI PUSH1 0x40 MLOAD PUSH32 0xDF4CC36D00000000000000000000000000000000000000000000000000000000 DUP2 MSTORE PUSH1 0x4 ADD PUSH1 0x40 MLOAD DUP1 SWAP2 SUB SWAP1 REVERT JUMPDEST PUSH0 PUSH2 0xE29 DUP11 PUSH2 0x1DBD JUMP JUMPDEST SWAP1 POP PUSH0 PUSH1 0x40 MLOAD PUSH1 0x20 ADD PUSH2 0xE3B SWAP1 PUSH2 0x403A JUMP JUMPDEST PUSH1 0x40 MLOAD PUSH1 0x20 DUP2 DUP4 SUB SUB DUP2 MSTORE SWAP1 PUSH1 0x40 MSTORE DUP1 MLOAD SWAP1 PUSH1 0x20 ADD KECCAK256 DUP12 DUP12 DUP12 DUP12 DUP12 DUP8 DUP13 PUSH1 0x40 MLOAD PUSH1 0x20 ADD PUSH2 0xE6F SWAP9 SWAP8 SWAP7 SWAP6 SWAP5 SWAP4 SWAP3 SWAP2 SWAP1 PUSH2 0x40A6 JUMP JUMPDEST PUSH1 0x40 MLOAD PUSH1 0x20 DUP2 DUP4 SUB SUB DUP2 MSTORE SWAP1 PUSH1 0x40 MSTORE DUP1 MLOAD SWAP1 PUSH1 0x20 ADD KECCAK256 SWAP1 POP PUSH0 PUSH2 0xE91 DUP3 PUSH2 0x1E55 JUMP JUMPDEST SWAP1 POP PUSH0 PUSH2 0xEA0 DUP3 DUP9 DUP9 DUP9 PUSH2 0x1E6E JUMP JUMPDEST SWAP1 POP DUP13 PUSH20 0xFFFFFFFFFFFFFFFFFFFFFFFFFFFFFFFFFFFFFFFF AND DUP2 PUSH20 0xFFFFFFFFFFFFFFFFFFFFFFFFFFFFFFFFFFFFFFFF AND EQ PUSH2 0xF07 JUMPI PUSH1 0x40 MLOAD PUSH32 0x8BAA579F00000000000000000000000000000000000000000000000000000000 DUP2 MSTORE PUSH1 0x4 ADD PUSH1 0x40 MLOAD DUP1 SWAP2 SUB SWAP1 REVERT JUMPDEST PUSH2 0xF14 DUP14 DUP14 DUP14 DUP14 DUP14 PUSH2 0x1503 JUMP JUMPDEST POP POP POP POP POP POP POP POP POP POP POP POP POP JUMP JUMPDEST PUSH2 0xF35 PUSH2 0xF2E PUSH2 0x14FC JUMP JUMPDEST DUP4 DUP4 PUSH2 0x1F96 JUMP JUMPDEST POP POP JUMP JUMPDEST PUSH0 DUP2 PUSH1 0x14 SLOAD PUSH2 0xF48 SWAP2 SWAP1 PUSH2 0x4122 JUMP JUMPDEST SWAP1 POP PUSH1 0x15 PUSH0 SWAP1 SLOAD SWAP1 PUSH2 0x100 EXP SWAP1 DIV PUSH20 0xFFFFFFFFFFFFFFFFFFFFFFFFFFFFFFFFFFFFFFFF AND PUSH20 0xFFFFFFFFFFFFFFFFFFFFFFFFFFFFFFFFFFFFFFFF AND PUSH4 0x23B872DD CALLER ADDRESS DUP5 PUSH1 0x40 MLOAD DUP5 PUSH4 0xFFFFFFFF AND PUSH1 0xE0 SHL DUP2 MSTORE PUSH1 0x4 ADD PUSH2 0xFA8 SWAP4 SWAP3 SWAP2 SWAP1 PUSH2 0x4163 JUMP JUMPDEST PUSH1 0x20 PUSH1 0x40 MLOAD DUP1 DUP4 SUB DUP2 PUSH0 DUP8 GAS CALL ISZERO DUP1 ISZERO PUSH2 0xFC4 JUMPI RETURNDATASIZE PUSH0 DUP1 RETURNDATACOPY RETURNDATASIZE PUSH0 REVERT JUMPDEST POP POP POP POP PUSH1 0x40 MLOAD RETURNDATASIZE PUSH1 0x1F NOT PUSH1 0x1F DUP3 ADD AND DUP3 ADD DUP1 PUSH1 0x40 MSTORE POP DUP2 ADD SWAP1 PUSH2 0xFE8 SWAP2 SWAP1 PUSH2 0x41AC JUMP JUMPDEST PUSH2 0x1027 JUMPI PUSH1 0x40 MLOAD PUSH32 0x8C379A000000000000000000000000000000000000000000000000000000000 DUP2 MSTORE PUSH1 0x4 ADD PUSH2 0x101E SWAP1 PUSH2 0x4221 JUMP JUMPDEST PUSH1 0x40 MLOAD DUP1 SWAP2 SUB SWAP1 REVERT JUMPDEST PUSH2 0x1033 DUP6 DUP6 DUP6 DUP6 PUSH2 0x20FD JUMP JUMPDEST POP POP POP POP POP JUMP JUMPDEST PUSH2 0x1047 DUP6 DUP6 DUP6 DUP6 DUP6 PUSH2 0x1503 JUMP JUMPDEST POP POP POP POP POP JUMP JUMPDEST PUSH1 0x60 PUSH1 0x9 PUSH0 DUP4 DUP2 MSTORE PUSH1 0x20 ADD SWAP1 DUP2 MSTORE PUSH1 0x20 ADD PUSH0 KECCAK256 DUP1 SLOAD DUP1 PUSH1 0x20 MUL PUSH1 0x20 ADD PUSH1 0x40 MLOAD SWAP1 DUP2 ADD PUSH1 0x40 MSTORE DUP1 SWAP3 SWAP2 SWAP1 DUP2 DUP2 MSTORE PUSH1 0x20 ADD DUP3 DUP1 SLOAD DUP1 ISZERO PUSH2 0x10A9 JUMPI PUSH1 0x20 MUL DUP3 ADD SWAP2 SWAP1 PUSH0 MSTORE PUSH1 0x20 PUSH0 KECCAK256 SWAP1 JUMPDEST DUP2 SLOAD DUP2 MSTORE PUSH1 0x20 ADD SWAP1 PUSH1 0x1 ADD SWAP1 DUP1 DUP4 GT PUSH2 0x1095 JUMPI JUMPDEST POP POP POP POP POP SWAP1 POP SWAP2 SWAP1 POP JUMP JUMPDEST PUSH0 DUP1 PUSH0 SWAP1 POP JUMPDEST PUSH1 0x9 PUSH0 DUP5 DUP2 MSTORE PUSH1 0x20 ADD SWAP1 DUP2 MSTORE PUSH1 0x20 ADD PUSH0 KECCAK256 DUP1 SLOAD SWAP1 POP DUP2 LT ISZERO PUSH2 0x117B JUMPI PUSH0 PUSH1 0x9 PUSH0 DUP6 DUP2 MSTORE PUSH1 0x20 ADD SWAP1 DUP2 MSTORE PUSH1 0x20 ADD PUSH0 KECCAK256 DUP3 DUP2 SLOAD DUP2 LT PUSH2 0x10FB JUMPI PUSH2 0x10FA PUSH2 0x3BFF JUMP JUMPDEST JUMPDEST SWAP1 PUSH0 MSTORE PUSH1 0x20 PUSH0 KECCAK256 ADD SLOAD SWAP1 POP PUSH1 0x2 PUSH0 DUP6 DUP2 MSTORE PUSH1 0x20 ADD SWAP1 DUP2 MSTORE PUSH1 0x20 ADD PUSH0 KECCAK256 PUSH0 DUP7 PUSH20 0xFFFFFFFFFFFFFFFFFFFFFFFFFFFFFFFFFFFFFFFF AND PUSH20 0xFFFFFFFFFFFFFFFFFFFFFFFFFFFFFFFFFFFFFFFF AND DUP2 MSTORE PUSH1 0x20 ADD SWAP1 DUP2 MSTORE PUSH1 0x20 ADD PUSH0 KECCAK256 PUSH0 DUP3 DUP2 MSTORE PUSH1 0x20 ADD SWAP1 DUP2 MSTORE PUSH1 0x20 ADD PUSH0 KECCAK256 SLOAD DUP4 PUSH2 0x116D SWAP2 SWAP1 PUSH2 0x423F JUMP JUMPDEST SWAP3 POP DUP2 PUSH1 0x1 ADD SWAP2 POP POP PUSH2 0x10BB JUMP JUMPDEST POP SWAP3 SWAP2 POP POP JUMP JUMPDEST PUSH0 PUSH1 0x6 PUSH0 DUP4 DUP2 MSTORE PUSH1 0x20 ADD SWAP1 DUP2 MSTORE PUSH1 0x20 ADD PUSH0 KECCAK256 SLOAD SWAP1 POP SWAP2 SWAP1 POP JUMP JUMPDEST PUSH2 0x11A8 DUP5 DUP5 DUP5 DUP5 PUSH2 0x211E JUMP JUMPDEST POP POP POP POP JUMP JUMPDEST PUSH0 PUSH1 0x3 PUSH0 DUP5 PUSH20 0xFFFFFFFFFFFFFFFFFFFFFFFFFFFFFFFFFFFFFFFF AND PUSH20 0xFFFFFFFFFFFFFFFFFFFFFFFFFFFFFFFFFFFFFFFF AND DUP2 MSTORE PUSH1 0x20 ADD SWAP1 DUP2 MSTORE PUSH1 0x20 ADD PUSH0 KECCAK256 PUSH0 DUP4 PUSH20 0xFFFFFFFFFFFFFFFFFFFFFFFFFFFFFFFFFFFFFFFF AND PUSH20 0xFFFFFFFFFFFFFFFFFFFFFFFFFFFFFFFFFFFFFFFF AND DUP2 MSTORE PUSH1 0x20 ADD SWAP1 DUP2 MSTORE PUSH1 0x20 ADD PUSH0 KECCAK256 PUSH0 SWAP1 SLOAD SWAP1 PUSH2 0x100 EXP SWAP1 DIV PUSH1 0xFF AND SWAP1 POP SWAP3 SWAP2 POP POP JUMP JUMPDEST PUSH2 0x1244 PUSH2 0x2130 JUMP JUMPDEST PUSH2 0x124D DUP2 PUSH2 0x21C1 JUMP JUMPDEST POP JUMP JUMPDEST PUSH1 0x16 PUSH0 SWAP1 SLOAD SWAP1 PUSH2 0x100 EXP SWAP1 DIV PUSH20 0xFFFFFFFFFFFFFFFFFFFFFFFFFFFFFFFFFFFFFFFF AND DUP2 JUMP JUMPDEST DUP2 PUSH1 0x11 PUSH0 DUP3 DUP2 MSTORE PUSH1 0x20 ADD SWAP1 DUP2 MSTORE PUSH1 0x20 ADD PUSH0 KECCAK256 PUSH0 SWAP1 SLOAD SWAP1 PUSH2 0x100 EXP SWAP1 DIV PUSH20 0xFFFFFFFFFFFFFFFFFFFFFFFFFFFFFFFFFFFFFFFF AND PUSH20 0xFFFFFFFFFFFFFFFFFFFFFFFFFFFFFFFFFFFFFFFF AND CALLER PUSH20 0xFFFFFFFFFFFFFFFFFFFFFFFFFFFFFFFFFFFFFFFF AND EQ PUSH2 0x1314 JUMPI PUSH1 0x40 MLOAD PUSH32 0x8C379A000000000000000000000000000000000000000000000000000000000 DUP2 MSTORE PUSH1 0x4 ADD PUSH2 0x130B SWAP1 PUSH2 0x42E2 JUMP JUMPDEST PUSH1 0x40 MLOAD DUP1 SWAP2 SUB SWAP1 REVERT JUMPDEST PUSH1 0x11 PUSH0 DUP3 DUP2 MSTORE PUSH1 0x20 ADD SWAP1 DUP2 MSTORE PUSH1 0x20 ADD PUSH0 KECCAK256 PUSH0 PUSH2 0x100 EXP DUP2 SLOAD SWAP1 PUSH20 0xFFFFFFFFFFFFFFFFFFFFFFFFFFFFFFFFFFFFFFFF MUL NOT AND SWAP1 SSTORE DUP1 PUSH32 0x7CC135E0CEBB02C3480AE5D74D377283180A2601F8F644EDF7987B009316C63A PUSH1 0x40 MLOAD PUSH1 0x40 MLOAD DUP1 SWAP2 SUB SWAP1 LOG2 DUP2 PUSH2 0x13B4 JUMPI PUSH1 0x40 MLOAD PUSH32 0x8C379A000000000000000000000000000000000000000000000000000000000 DUP2 MSTORE PUSH1 0x4 ADD PUSH2 0x13AB SWAP1 PUSH2 0x434A JUMP JUMPDEST PUSH1 0x40 MLOAD DUP1 SWAP2 SUB SWAP1 REVERT JUMPDEST POP POP POP JUMP JUMPDEST PUSH0 PUSH2 0x13C2 PUSH2 0x14FC JUMP JUMPDEST SWAP1 POP PUSH2 0x13CE DUP8 DUP3 PUSH2 0x19E4 JUMP JUMPDEST PUSH2 0x13E0 JUMPI PUSH2 0x13DF DUP8 DUP3 DUP8 DUP8 DUP8 PUSH2 0x22ED JUMP JUMPDEST JUMPDEST PUSH2 0x13EE DUP8 DUP8 DUP8 DUP8 DUP8 DUP8 PUSH2 0x237E JUMP JUMPDEST POP POP POP POP POP POP POP JUMP JUMPDEST PUSH0 PUSH32 0x0 SWAP1 POP SWAP1 JUMP JUMPDEST PUSH0 PUSH1 0x4 PUSH0 DUP7 PUSH20 0xFFFFFFFFFFFFFFFFFFFFFFFFFFFFFFFFFFFFFFFF AND PUSH20 0xFFFFFFFFFFFFFFFFFFFFFFFFFFFFFFFFFFFFFFFF AND DUP2 MSTORE PUSH1 0x20 ADD SWAP1 DUP2 MSTORE PUSH1 0x20 ADD PUSH0 KECCAK256 PUSH0 DUP6 PUSH20 0xFFFFFFFFFFFFFFFFFFFFFFFFFFFFFFFFFFFFFFFF AND PUSH20 0xFFFFFFFFFFFFFFFFFFFFFFFFFFFFFFFFFFFFFFFF AND DUP2 MSTORE PUSH1 0x20 ADD SWAP1 DUP2 MSTORE PUSH1 0x20 ADD PUSH0 KECCAK256 PUSH0 DUP5 DUP2 MSTORE PUSH1 0x20 ADD SWAP1 DUP2 MSTORE PUSH1 0x20 ADD PUSH0 KECCAK256 PUSH0 DUP4 DUP2 MSTORE PUSH1 0x20 ADD SWAP1 DUP2 MSTORE PUSH1 0x20 ADD PUSH0 KECCAK256 SLOAD SWAP1 POP SWAP5 SWAP4 POP POP POP POP JUMP JUMPDEST PUSH0 PUSH2 0x14C9 PUSH2 0x14FC JUMP JUMPDEST SWAP1 POP PUSH2 0x14D5 DUP7 DUP3 PUSH2 0x19E4 JUMP JUMPDEST PUSH2 0x14E7 JUMPI PUSH2 0x14E6 DUP7 DUP3 DUP7 DUP7 DUP7 PUSH2 0x22ED JUMP JUMPDEST JUMPDEST PUSH2 0x14F4 DUP7 DUP7 DUP7 DUP7 DUP7 PUSH2 0x16EA JUMP JUMPDEST POP POP POP POP POP POP JUMP JUMPDEST PUSH0 CALLER SWAP1 POP SWAP1 JUMP JUMPDEST PUSH0 PUSH20 0xFFFFFFFFFFFFFFFFFFFFFFFFFFFFFFFFFFFFFFFF AND DUP6 PUSH20 0xFFFFFFFFFFFFFFFFFFFFFFFFFFFFFFFFFFFFFFFF AND SUB PUSH2 0x1571 JUMPI PUSH1 0x40 MLOAD PUSH32 0x8C379A000000000000000000000000000000000000000000000000000000000 DUP2 MSTORE PUSH1 0x4 ADD PUSH2 0x1568 SWAP1 PUSH2 0x43D8 JUMP JUMPDEST PUSH1 0x40 MLOAD DUP1 SWAP2 SUB SWAP1 REVERT JUMPDEST PUSH0 PUSH20 0xFFFFFFFFFFFFFFFFFFFFFFFFFFFFFFFFFFFFFFFF AND DUP5 PUSH20 0xFFFFFFFFFFFFFFFFFFFFFFFFFFFFFFFFFFFFFFFF AND SUB PUSH2 0x15DF JUMPI PUSH1 0x40 MLOAD PUSH32 0x8C379A000000000000000000000000000000000000000000000000000000000 DUP2 MSTORE PUSH1 0x4 ADD PUSH2 0x15D6 SWAP1 PUSH2 0x4440 JUMP JUMPDEST PUSH1 0x40 MLOAD DUP1 SWAP2 SUB SWAP1 REVERT JUMPDEST DUP1 PUSH1 0x4 PUSH0 DUP8 PUSH20 0xFFFFFFFFFFFFFFFFFFFFFFFFFFFFFFFFFFFFFFFF AND PUSH20 0xFFFFFFFFFFFFFFFFFFFFFFFFFFFFFFFFFFFFFFFF AND DUP2 MSTORE PUSH1 0x20 ADD SWAP1 DUP2 MSTORE PUSH1 0x20 ADD PUSH0 KECCAK256 PUSH0 DUP7 PUSH20 0xFFFFFFFFFFFFFFFFFFFFFFFFFFFFFFFFFFFFFFFF AND PUSH20 0xFFFFFFFFFFFFFFFFFFFFFFFFFFFFFFFFFFFFFFFF AND DUP2 MSTORE PUSH1 0x20 ADD SWAP1 DUP2 MSTORE PUSH1 0x20 ADD PUSH0 KECCAK256 PUSH0 DUP6 DUP2 MSTORE PUSH1 0x20 ADD SWAP1 DUP2 MSTORE PUSH1 0x20 ADD PUSH0 KECCAK256 PUSH0 DUP5 DUP2 MSTORE PUSH1 0x20 ADD SWAP1 DUP2 MSTORE PUSH1 0x20 ADD PUSH0 KECCAK256 DUP2 SWAP1 SSTORE POP DUP4 PUSH20 0xFFFFFFFFFFFFFFFFFFFFFFFFFFFFFFFFFFFFFFFF AND DUP6 PUSH20 0xFFFFFFFFFFFFFFFFFFFFFFFFFFFFFFFFFFFFFFFF AND PUSH32 0x3A9C85C6B31F7A9D7FE1478F53E1BE42E85DB97CA30D1789CFEF9196DBC472C9 DUP6 DUP6 DUP6 PUSH1 0x40 MLOAD PUSH2 0x16DB SWAP4 SWAP3 SWAP2 SWAP1 PUSH2 0x445E JUMP JUMPDEST PUSH1 0x40 MLOAD DUP1 SWAP2 SUB SWAP1 LOG3 POP POP POP POP POP JUMP JUMPDEST PUSH0 PUSH20 0xFFFFFFFFFFFFFFFFFFFFFFFFFFFFFFFFFFFFFFFF AND DUP6 PUSH20 0xFFFFFFFFFFFFFFFFFFFFFFFFFFFFFFFFFFFFFFFF AND SUB PUSH2 0x1758 JUMPI PUSH1 0x40 MLOAD PUSH32 0x8C379A000000000000000000000000000000000000000000000000000000000 DUP2 MSTORE PUSH1 0x4 ADD PUSH2 0x174F SWAP1 PUSH2 0x4503 JUMP JUMPDEST PUSH1 0x40 MLOAD DUP1 SWAP2 SUB SWAP1 REVERT JUMPDEST PUSH0 PUSH20 0xFFFFFFFFFFFFFFFFFFFFFFFFFFFFFFFFFFFFFFFF AND DUP5 PUSH20 0xFFFFFFFFFFFFFFFFFFFFFFFFFFFFFFFFFFFFFFFF AND SUB PUSH2 0x17C6 JUMPI PUSH1 0x40 MLOAD PUSH32 0x8C379A000000000000000000000000000000000000000000000000000000000 DUP2 MSTORE PUSH1 0x4 ADD PUSH2 0x17BD SWAP1 PUSH2 0x4591 JUMP JUMPDEST PUSH1 0x40 MLOAD DUP1 SWAP2 SUB SWAP1 REVERT JUMPDEST PUSH2 0x17E2 DUP6 DUP6 DUP6 DUP6 DUP6 PUSH1 0x40 MLOAD DUP1 PUSH1 0x20 ADD PUSH1 0x40 MSTORE DUP1 PUSH0 DUP2 MSTORE POP PUSH2 0x23E0 JUMP JUMPDEST DUP1 PUSH1 0x2 PUSH0 DUP6 DUP2 MSTORE PUSH1 0x20 ADD SWAP1 DUP2 MSTORE PUSH1 0x20 ADD PUSH0 KECCAK256 PUSH0 DUP8 PUSH20 0xFFFFFFFFFFFFFFFFFFFFFFFFFFFFFFFFFFFFFFFF AND PUSH20 0xFFFFFFFFFFFFFFFFFFFFFFFFFFFFFFFFFFFFFFFF AND DUP2 MSTORE PUSH1 0x20 ADD SWAP1 DUP2 MSTORE PUSH1 0x20 ADD PUSH0 KECCAK256 PUSH0 DUP5 DUP2 MSTORE PUSH1 0x20 ADD SWAP1 DUP2 MSTORE PUSH1 0x20 ADD PUSH0 KECCAK256 SLOAD LT ISZERO PUSH2 0x1880 JUMPI PUSH1 0x40 MLOAD PUSH32 0x8C379A000000000000000000000000000000000000000000000000000000000 DUP2 MSTORE PUSH1 0x4 ADD PUSH2 0x1877 SWAP1 PUSH2 0x461F JUMP JUMPDEST PUSH1 0x40 MLOAD DUP1 SWAP2 SUB SWAP1 REVERT JUMPDEST DUP1 PUSH1 0x2 PUSH0 DUP6 DUP2 MSTORE PUSH1 0x20 ADD SWAP1 DUP2 MSTORE PUSH1 0x20 ADD PUSH0 KECCAK256 PUSH0 DUP8 PUSH20 0xFFFFFFFFFFFFFFFFFFFFFFFFFFFFFFFFFFFFFFFF AND PUSH20 0xFFFFFFFFFFFFFFFFFFFFFFFFFFFFFFFFFFFFFFFF AND DUP2 MSTORE PUSH1 0x20 ADD SWAP1 DUP2 MSTORE PUSH1 0x20 ADD PUSH0 KECCAK256 PUSH0 DUP5 DUP2 MSTORE PUSH1 0x20 ADD SWAP1 DUP2 MSTORE PUSH1 0x20 ADD PUSH0 KECCAK256 PUSH0 DUP3 DUP3 SLOAD SUB SWAP3 POP POP DUP2 SWAP1 SSTORE POP DUP1 PUSH1 0x2 PUSH0 DUP6 DUP2 MSTORE PUSH1 0x20 ADD SWAP1 DUP2 MSTORE PUSH1 0x20 ADD PUSH0 KECCAK256 PUSH0 DUP7 PUSH20 0xFFFFFFFFFFFFFFFFFFFFFFFFFFFFFFFFFFFFFFFF AND PUSH20 0xFFFFFFFFFFFFFFFFFFFFFFFFFFFFFFFFFFFFFFFF AND DUP2 MSTORE PUSH1 0x20 ADD SWAP1 DUP2 MSTORE PUSH1 0x20 ADD PUSH0 KECCAK256 PUSH0 DUP5 DUP2 MSTORE PUSH1 0x20 ADD SWAP1 DUP2 MSTORE PUSH1 0x20 ADD PUSH0 KECCAK256 PUSH0 DUP3 DUP3 SLOAD PUSH2 0x1952 SWAP2 SWAP1 PUSH2 0x423F JUMP JUMPDEST SWAP3 POP POP DUP2 SWAP1 SSTORE POP DUP3 DUP5 PUSH20 0xFFFFFFFFFFFFFFFFFFFFFFFFFFFFFFFFFFFFFFFF AND DUP7 PUSH20 0xFFFFFFFFFFFFFFFFFFFFFFFFFFFFFFFFFFFFFFFF AND PUSH32 0xC817D75DEAA278E988C41CF549EF38FE195AB65E0E64CD67BA47F0D185690D58 DUP6 DUP6 PUSH1 0x40 MLOAD PUSH2 0x19B9 SWAP3 SWAP2 SWAP1 PUSH2 0x463D JUMP JUMPDEST PUSH1 0x40 MLOAD DUP1 SWAP2 SUB SWAP1 LOG4 PUSH2 0x19DD DUP6 DUP6 DUP6 DUP6 DUP6 PUSH1 0x40 MLOAD DUP1 PUSH1 0x20 ADD PUSH1 0x40 MSTORE DUP1 PUSH0 DUP2 MSTORE POP PUSH2 0x23E8 JUMP JUMPDEST POP POP POP POP POP JUMP JUMPDEST PUSH0 DUP2 PUSH20 0xFFFFFFFFFFFFFFFFFFFFFFFFFFFFFFFFFFFFFFFF AND DUP4 PUSH20 0xFFFFFFFFFFFFFFFFFFFFFFFFFFFFFFFFFFFFFFFF AND EQ DUP1 PUSH2 0x1A25 JUMPI POP PUSH2 0x1A24 DUP4 DUP4 PUSH2 0x11AE JUMP JUMPDEST JUMPDEST SWAP1 POP SWAP3 SWAP2 POP POP JUMP JUMPDEST DUP3 MLOAD DUP5 MLOAD EQ DUP1 ISZERO PUSH2 0x1A3F JUMPI POP DUP2 MLOAD DUP5 MLOAD EQ JUMPDEST PUSH2 0x1A7E JUMPI PUSH1 0x40 MLOAD PUSH32 0x8C379A000000000000000000000000000000000000000000000000000000000 DUP2 MSTORE PUSH1 0x4 ADD PUSH2 0x1A75 SWAP1 PUSH2 0x46D4 JUMP JUMPDEST PUSH1 0x40 MLOAD DUP1 SWAP2 SUB SWAP1 REVERT JUMPDEST PUSH0 PUSH20 0xFFFFFFFFFFFFFFFFFFFFFFFFFFFFFFFFFFFFFFFF AND DUP6 PUSH20 0xFFFFFFFFFFFFFFFFFFFFFFFFFFFFFFFFFFFFFFFF AND SUB PUSH2 0x1AEC JUMPI PUSH1 0x40 MLOAD PUSH32 0x8C379A000000000000000000000000000000000000000000000000000000000 DUP2 MSTORE PUSH1 0x4 ADD PUSH2 0x1AE3 SWAP1 PUSH2 0x4591 JUMP JUMPDEST PUSH1 0x40 MLOAD DUP1 SWAP2 SUB SWAP1 REVERT JUMPDEST PUSH0 PUSH2 0x1AF5 PUSH2 0x14FC JUMP JUMPDEST SWAP1 POP PUSH0 JUMPDEST DUP6 MLOAD DUP2 LT ISZERO PUSH2 0x1CE6 JUMPI PUSH0 DUP7 DUP3 DUP2 MLOAD DUP2 LT PUSH2 0x1B16 JUMPI PUSH2 0x1B15 PUSH2 0x3BFF JUMP JUMPDEST JUMPDEST PUSH1 0x20 MUL PUSH1 0x20 ADD ADD MLOAD SWAP1 POP PUSH0 DUP7 DUP4 DUP2 MLOAD DUP2 LT PUSH2 0x1B34 JUMPI PUSH2 0x1B33 PUSH2 0x3BFF JUMP JUMPDEST JUMPDEST PUSH1 0x20 MUL PUSH1 0x20 ADD ADD MLOAD SWAP1 POP PUSH0 DUP7 DUP5 DUP2 MLOAD DUP2 LT PUSH2 0x1B52 JUMPI PUSH2 0x1B51 PUSH2 0x3BFF JUMP JUMPDEST JUMPDEST PUSH1 0x20 MUL PUSH1 0x20 ADD ADD MLOAD SWAP1 POP PUSH0 PUSH1 0x2 PUSH0 DUP6 DUP2 MSTORE PUSH1 0x20 ADD SWAP1 DUP2 MSTORE PUSH1 0x20 ADD PUSH0 KECCAK256 PUSH0 DUP14 PUSH20 0xFFFFFFFFFFFFFFFFFFFFFFFFFFFFFFFFFFFFFFFF AND PUSH20 0xFFFFFFFFFFFFFFFFFFFFFFFFFFFFFFFFFFFFFFFF AND DUP2 MSTORE PUSH1 0x20 ADD SWAP1 DUP2 MSTORE PUSH1 0x20 ADD PUSH0 KECCAK256 PUSH0 DUP5 DUP2 MSTORE PUSH1 0x20 ADD SWAP1 DUP2 MSTORE PUSH1 0x20 ADD PUSH0 KECCAK256 SLOAD SWAP1 POP DUP2 DUP2 LT ISZERO PUSH2 0x1BFE JUMPI PUSH1 0x40 MLOAD PUSH32 0x8C379A000000000000000000000000000000000000000000000000000000000 DUP2 MSTORE PUSH1 0x4 ADD PUSH2 0x1BF5 SWAP1 PUSH2 0x461F JUMP JUMPDEST PUSH1 0x40 MLOAD DUP1 SWAP2 SUB SWAP1 REVERT JUMPDEST DUP2 DUP2 SUB PUSH1 0x2 PUSH0 DUP7 DUP2 MSTORE PUSH1 0x20 ADD SWAP1 DUP2 MSTORE PUSH1 0x20 ADD PUSH0 KECCAK256 PUSH0 DUP15 PUSH20 0xFFFFFFFFFFFFFFFFFFFFFFFFFFFFFFFFFFFFFFFF AND PUSH20 0xFFFFFFFFFFFFFFFFFFFFFFFFFFFFFFFFFFFFFFFF AND DUP2 MSTORE PUSH1 0x20 ADD SWAP1 DUP2 MSTORE PUSH1 0x20 ADD PUSH0 KECCAK256 PUSH0 DUP6 DUP2 MSTORE PUSH1 0x20 ADD SWAP1 DUP2 MSTORE PUSH1 0x20 ADD PUSH0 KECCAK256 DUP2 SWAP1 SSTORE POP DUP2 PUSH1 0x2 PUSH0 DUP7 DUP2 MSTORE PUSH1 0x20 ADD SWAP1 DUP2 MSTORE PUSH1 0x20 ADD PUSH0 KECCAK256 PUSH0 DUP14 PUSH20 0xFFFFFFFFFFFFFFFFFFFFFFFFFFFFFFFFFFFFFFFF AND PUSH20 0xFFFFFFFFFFFFFFFFFFFFFFFFFFFFFFFFFFFFFFFF AND DUP2 MSTORE PUSH1 0x20 ADD SWAP1 DUP2 MSTORE PUSH1 0x20 ADD PUSH0 KECCAK256 PUSH0 DUP6 DUP2 MSTORE PUSH1 0x20 ADD SWAP1 DUP2 MSTORE PUSH1 0x20 ADD PUSH0 KECCAK256 PUSH0 DUP3 DUP3 SLOAD PUSH2 0x1CCA SWAP2 SWAP1 PUSH2 0x423F JUMP JUMPDEST SWAP3 POP POP DUP2 SWAP1 SSTORE POP POP POP POP POP DUP1 PUSH2 0x1CDF SWAP1 PUSH2 0x3C59 JUMP JUMPDEST SWAP1 POP PUSH2 0x1AF9 JUMP JUMPDEST POP DUP6 PUSH20 0xFFFFFFFFFFFFFFFFFFFFFFFFFFFFFFFFFFFFFFFF AND DUP8 PUSH20 0xFFFFFFFFFFFFFFFFFFFFFFFFFFFFFFFFFFFFFFFF AND DUP3 PUSH20 0xFFFFFFFFFFFFFFFFFFFFFFFFFFFFFFFFFFFFFFFF AND PUSH32 0xFB75BD3A9B4B3AE2B21DC1A8AAD1D9AB156F8D577B05320C9C84BC98780A3752 DUP9 DUP9 DUP9 PUSH1 0x40 MLOAD PUSH2 0x1D5F SWAP4 SWAP3 SWAP2 SWAP1 PUSH2 0x46F2 JUMP JUMPDEST PUSH1 0x40 MLOAD DUP1 SWAP2 SUB SWAP1 LOG4 PUSH2 0x1D75 DUP8 DUP8 DUP8 DUP8 DUP8 DUP8 PUSH2 0x23F0 JUMP JUMPDEST PUSH2 0x1DB4 JUMPI PUSH1 0x40 MLOAD PUSH32 0x8C379A000000000000000000000000000000000000000000000000000000000 DUP2 MSTORE PUSH1 0x4 ADD PUSH2 0x1DAB SWAP1 PUSH2 0x47AC JUMP JUMPDEST PUSH1 0x40 MLOAD DUP1 SWAP2 SUB SWAP1 REVERT JUMPDEST POP POP POP POP POP POP POP JUMP JUMPDEST PUSH0 PUSH1 0xB PUSH0 DUP4 PUSH20 0xFFFFFFFFFFFFFFFFFFFFFFFFFFFFFFFFFFFFFFFF AND PUSH20 0xFFFFFFFFFFFFFFFFFFFFFFFFFFFFFFFFFFFFFFFF AND DUP2 MSTORE PUSH1 0x20 ADD SWAP1 DUP2 MSTORE PUSH1 0x20 ADD PUSH0 KECCAK256 SLOAD SWAP1 POP PUSH1 0xB PUSH0 DUP4 PUSH20 0xFFFFFFFFFFFFFFFFFFFFFFFFFFFFFFFFFFFFFFFF AND PUSH20 0xFFFFFFFFFFFFFFFFFFFFFFFFFFFFFFFFFFFFFFFF AND DUP2 MSTORE PUSH1 0x20 ADD SWAP1 DUP2 MSTORE PUSH1 0x20 ADD PUSH0 KECCAK256 PUSH0 DUP2 SLOAD DUP1 SWAP3 SWAP2 SWAP1 PUSH2 0x1E4B SWAP1 PUSH2 0x3C59 JUMP JUMPDEST SWAP2 SWAP1 POP SSTORE POP SWAP2 SWAP1 POP JUMP JUMPDEST PUSH0 PUSH2 0x1E67 PUSH2 0x1E61 PUSH2 0x13F7 JUMP JUMPDEST DUP4 PUSH2 0x2573 JUMP JUMPDEST SWAP1 POP SWAP2 SWAP1 POP JUMP JUMPDEST PUSH0 PUSH32 0x7FFFFFFFFFFFFFFFFFFFFFFFFFFFFFFF5D576E7357A4501DDFE92F46681B20A0 DUP3 PUSH0 SHR GT ISZERO PUSH2 0x1ED6 JUMPI DUP2 PUSH1 0x40 MLOAD PUSH32 0x5682F3BF00000000000000000000000000000000000000000000000000000000 DUP2 MSTORE PUSH1 0x4 ADD PUSH2 0x1ECD SWAP2 SWAP1 PUSH2 0x3110 JUMP JUMPDEST PUSH1 0x40 MLOAD DUP1 SWAP2 SUB SWAP1 REVERT JUMPDEST PUSH0 PUSH1 0x1 DUP7 DUP7 DUP7 DUP7 PUSH1 0x40 MLOAD PUSH0 DUP2 MSTORE PUSH1 0x20 ADD PUSH1 0x40 MSTORE PUSH1 0x40 MLOAD PUSH2 0x1EF9 SWAP5 SWAP4 SWAP3 SWAP2 SWAP1 PUSH2 0x47D9 JUMP JUMPDEST PUSH1 0x20 PUSH1 0x40 MLOAD PUSH1 0x20 DUP2 SUB SWAP1 DUP1 DUP5 SUB SWAP1 DUP6 GAS STATICCALL ISZERO DUP1 ISZERO PUSH2 0x1F19 JUMPI RETURNDATASIZE PUSH0 DUP1 RETURNDATACOPY RETURNDATASIZE PUSH0 REVERT JUMPDEST POP POP POP PUSH1 0x20 PUSH1 0x40 MLOAD SUB MLOAD SWAP1 POP PUSH0 PUSH20 0xFFFFFFFFFFFFFFFFFFFFFFFFFFFFFFFFFFFFFFFF AND DUP2 PUSH20 0xFFFFFFFFFFFFFFFFFFFFFFFFFFFFFFFFFFFFFFFF AND SUB PUSH2 0x1F8A JUMPI PUSH1 0x40 MLOAD PUSH32 0x815E1D6400000000000000000000000000000000000000000000000000000000 DUP2 MSTORE PUSH1 0x4 ADD PUSH1 0x40 MLOAD DUP1 SWAP2 SUB SWAP1 REVERT JUMPDEST DUP1 SWAP2 POP POP SWAP5 SWAP4 POP POP POP POP JUMP JUMPDEST DUP2 PUSH20 0xFFFFFFFFFFFFFFFFFFFFFFFFFFFFFFFFFFFFFFFF AND DUP4 PUSH20 0xFFFFFFFFFFFFFFFFFFFFFFFFFFFFFFFFFFFFFFFF AND SUB PUSH2 0x2004 JUMPI PUSH1 0x40 MLOAD PUSH32 0x8C379A000000000000000000000000000000000000000000000000000000000 DUP2 MSTORE PUSH1 0x4 ADD PUSH2 0x1FFB SWAP1 PUSH2 0x4866 JUMP JUMPDEST PUSH1 0x40 MLOAD DUP1 SWAP2 SUB SWAP1 REVERT JUMPDEST DUP1 PUSH1 0x3 PUSH0 DUP6 PUSH20 0xFFFFFFFFFFFFFFFFFFFFFFFFFFFFFFFFFFFFFFFF AND PUSH20 0xFFFFFFFFFFFFFFFFFFFFFFFFFFFFFFFFFFFFFFFF AND DUP2 MSTORE PUSH1 0x20 ADD SWAP1 DUP2 MSTORE PUSH1 0x20 ADD PUSH0 KECCAK256 PUSH0 DUP5 PUSH20 0xFFFFFFFFFFFFFFFFFFFFFFFFFFFFFFFFFFFFFFFF AND PUSH20 0xFFFFFFFFFFFFFFFFFFFFFFFFFFFFFFFFFFFFFFFF AND DUP2 MSTORE PUSH1 0x20 ADD SWAP1 DUP2 MSTORE PUSH1 0x20 ADD PUSH0 KECCAK256 PUSH0 PUSH2 0x100 EXP DUP2 SLOAD DUP2 PUSH1 0xFF MUL NOT AND SWAP1 DUP4 ISZERO ISZERO MUL OR SWAP1 SSTORE POP DUP2 PUSH20 0xFFFFFFFFFFFFFFFFFFFFFFFFFFFFFFFFFFFFFFFF AND DUP4 PUSH20 0xFFFFFFFFFFFFFFFFFFFFFFFFFFFFFFFFFFFFFFFF AND PUSH32 0x17307EAB39AB6107E8899845AD3D59BD9653F200F220920489CA2B5937696C31 DUP4 PUSH1 0x40 MLOAD PUSH2 0x20F0 SWAP2 SWAP1 PUSH2 0x3018 JUMP JUMPDEST PUSH1 0x40 MLOAD DUP1 SWAP2 SUB SWAP1 LOG3 POP POP POP JUMP JUMPDEST PUSH2 0x2118 DUP5 DUP5 DUP5 DUP5 PUSH1 0x40 MLOAD DUP1 PUSH1 0x20 ADD PUSH1 0x40 MSTORE DUP1 PUSH0 DUP2 MSTORE POP PUSH2 0x25B3 JUMP JUMPDEST POP POP POP POP JUMP JUMPDEST PUSH2 0x212A DUP5 DUP5 DUP5 DUP5 PUSH2 0x2613 JUMP JUMPDEST POP POP POP POP JUMP JUMPDEST PUSH1 0x12 PUSH0 SWAP1 SLOAD SWAP1 PUSH2 0x100 EXP SWAP1 DIV PUSH20 0xFFFFFFFFFFFFFFFFFFFFFFFFFFFFFFFFFFFFFFFF AND PUSH20 0xFFFFFFFFFFFFFFFFFFFFFFFFFFFFFFFFFFFFFFFF AND CALLER PUSH20 0xFFFFFFFFFFFFFFFFFFFFFFFFFFFFFFFFFFFFFFFF AND EQ PUSH2 0x21BF JUMPI PUSH1 0x40 MLOAD PUSH32 0x8C379A000000000000000000000000000000000000000000000000000000000 DUP2 MSTORE PUSH1 0x4 ADD PUSH2 0x21B6 SWAP1 PUSH2 0x48CE JUMP JUMPDEST PUSH1 0x40 MLOAD DUP1 SWAP2 SUB SWAP1 REVERT JUMPDEST JUMP JUMPDEST CALLER PUSH20 0xFFFFFFFFFFFFFFFFFFFFFFFFFFFFFFFFFFFFFFFF AND DUP2 PUSH20 0xFFFFFFFFFFFFFFFFFFFFFFFFFFFFFFFFFFFFFFFF AND SUB PUSH2 0x222F JUMPI PUSH1 0x40 MLOAD PUSH32 0x8C379A000000000000000000000000000000000000000000000000000000000 DUP2 MSTORE PUSH1 0x4 ADD PUSH2 0x2226 SWAP1 PUSH2 0x4936 JUMP JUMPDEST PUSH1 0x40 MLOAD DUP1 SWAP2 SUB SWAP1 REVERT JUMPDEST DUP1 PUSH1 0x13 PUSH0 PUSH2 0x100 EXP DUP2 SLOAD DUP2 PUSH20 0xFFFFFFFFFFFFFFFFFFFFFFFFFFFFFFFFFFFFFFFF MUL NOT AND SWAP1 DUP4 PUSH20 0xFFFFFFFFFFFFFFFFFFFFFFFFFFFFFFFFFFFFFFFF AND MUL OR SWAP1 SSTORE POP DUP1 PUSH20 0xFFFFFFFFFFFFFFFFFFFFFFFFFFFFFFFFFFFFFFFF AND PUSH1 0x12 PUSH0 SWAP1 SLOAD SWAP1 PUSH2 0x100 EXP SWAP1 DIV PUSH20 0xFFFFFFFFFFFFFFFFFFFFFFFFFFFFFFFFFFFFFFFF AND PUSH20 0xFFFFFFFFFFFFFFFFFFFFFFFFFFFFFFFFFFFFFFFF AND PUSH32 0xED8889F560326EB138920D842192F0EB3DD22B4F139C87A2C57538E05BAE1278 PUSH1 0x40 MLOAD PUSH1 0x40 MLOAD DUP1 SWAP2 SUB SWAP1 LOG3 POP JUMP JUMPDEST PUSH0 PUSH2 0x22FA DUP7 DUP7 DUP7 DUP7 PUSH2 0x141E JUMP JUMPDEST SWAP1 POP PUSH32 0xFFFFFFFFFFFFFFFFFFFFFFFFFFFFFFFFFFFFFFFFFFFFFFFFFFFFFFFFFFFFFFFF DUP2 EQ PUSH2 0x2376 JUMPI DUP2 DUP2 LT ISZERO PUSH2 0x2366 JUMPI PUSH1 0x40 MLOAD PUSH32 0x8C379A000000000000000000000000000000000000000000000000000000000 DUP2 MSTORE PUSH1 0x4 ADD PUSH2 0x235D SWAP1 PUSH2 0x499E JUMP JUMPDEST PUSH1 0x40 MLOAD DUP1 SWAP2 SUB SWAP1 REVERT JUMPDEST PUSH2 0x2375 DUP7 DUP7 DUP7 DUP7 DUP7 DUP7 SUB PUSH2 0x1503 JUMP JUMPDEST JUMPDEST POP POP POP POP POP POP JUMP JUMPDEST PUSH2 0x238B DUP7 DUP7 DUP7 DUP7 DUP7 PUSH2 0x16EA JUMP JUMPDEST PUSH2 0x2399 DUP7 DUP7 DUP7 DUP7 DUP7 DUP7 PUSH2 0x27E0 JUMP JUMPDEST PUSH2 0x23D8 JUMPI PUSH1 0x40 MLOAD PUSH32 0x8C379A000000000000000000000000000000000000000000000000000000000 DUP2 MSTORE PUSH1 0x4 ADD PUSH2 0x23CF SWAP1 PUSH2 0x47AC JUMP JUMPDEST PUSH1 0x40 MLOAD DUP1 SWAP2 SUB SWAP1 REVERT JUMPDEST POP POP POP POP POP POP JUMP JUMPDEST POP POP POP POP POP POP JUMP JUMPDEST POP POP POP POP POP POP JUMP JUMPDEST PUSH0 DUP1 DUP7 PUSH20 0xFFFFFFFFFFFFFFFFFFFFFFFFFFFFFFFFFFFFFFFF AND EXTCODESIZE GT ISZERO PUSH2 0x2564 JUMPI DUP6 PUSH20 0xFFFFFFFFFFFFFFFFFFFFFFFFFFFFFFFFFFFFFFFF AND PUSH4 0xC20F1E19 PUSH2 0x2434 PUSH2 0x14FC JUMP JUMPDEST DUP10 DUP9 DUP9 DUP9 DUP9 PUSH1 0x40 MLOAD DUP8 PUSH4 0xFFFFFFFF AND PUSH1 0xE0 SHL DUP2 MSTORE PUSH1 0x4 ADD PUSH2 0x245A SWAP7 SWAP6 SWAP5 SWAP4 SWAP3 SWAP2 SWAP1 PUSH2 0x4A36 JUMP JUMPDEST PUSH1 0x20 PUSH1 0x40 MLOAD DUP1 DUP4 SUB DUP2 PUSH0 DUP8 GAS CALL SWAP3 POP POP POP DUP1 ISZERO PUSH2 0x2495 JUMPI POP PUSH1 0x40 MLOAD RETURNDATASIZE PUSH1 0x1F NOT PUSH1 0x1F DUP3 ADD AND DUP3 ADD DUP1 PUSH1 0x40 MSTORE POP DUP2 ADD SWAP1 PUSH2 0x2492 SWAP2 SWAP1 PUSH2 0x4B06 JUMP JUMPDEST PUSH1 0x1 JUMPDEST PUSH2 0x2514 JUMPI RETURNDATASIZE DUP1 PUSH0 DUP2 EQ PUSH2 0x24C3 JUMPI PUSH1 0x40 MLOAD SWAP2 POP PUSH1 0x1F NOT PUSH1 0x3F RETURNDATASIZE ADD AND DUP3 ADD PUSH1 0x40 MSTORE RETURNDATASIZE DUP3 MSTORE RETURNDATASIZE PUSH0 PUSH1 0x20 DUP5 ADD RETURNDATACOPY PUSH2 0x24C8 JUMP JUMPDEST PUSH1 0x60 SWAP2 POP JUMPDEST POP PUSH0 DUP2 MLOAD SUB PUSH2 0x250C JUMPI PUSH1 0x40 MLOAD PUSH32 0x8C379A000000000000000000000000000000000000000000000000000000000 DUP2 MSTORE PUSH1 0x4 ADD PUSH2 0x2503 SWAP1 PUSH2 0x47AC JUMP JUMPDEST PUSH1 0x40 MLOAD DUP1 SWAP2 SUB SWAP1 REVERT JUMPDEST DUP1 MLOAD DUP2 PUSH1 0x20 ADD REVERT JUMPDEST PUSH4 0xC20F1E19 PUSH1 0xE0 SHL PUSH28 0xFFFFFFFFFFFFFFFFFFFFFFFFFFFFFFFFFFFFFFFFFFFFFFFFFFFFFFFF NOT AND DUP2 PUSH28 0xFFFFFFFFFFFFFFFFFFFFFFFFFFFFFFFFFFFFFFFFFFFFFFFFFFFFFFFF NOT AND EQ SWAP2 POP POP PUSH2 0x2569 JUMP JUMPDEST PUSH1 0x1 SWAP1 POP JUMPDEST SWAP7 SWAP6 POP POP POP POP POP POP JUMP JUMPDEST PUSH0 PUSH1 0x40 MLOAD PUSH32 0x1901000000000000000000000000000000000000000000000000000000000000 DUP2 MSTORE DUP4 PUSH1 0x2 DUP3 ADD MSTORE DUP3 PUSH1 0x22 DUP3 ADD MSTORE PUSH1 0x42 DUP2 KECCAK256 SWAP2 POP POP SWAP3 SWAP2 POP POP JUMP JUMPDEST PUSH2 0x25BF DUP6 DUP6 DUP6 DUP6 PUSH2 0x2963 JUMP JUMPDEST PUSH2 0x25CD PUSH0 DUP7 DUP7 DUP7 DUP7 DUP7 PUSH2 0x27E0 JUMP JUMPDEST PUSH2 0x260C JUMPI PUSH1 0x40 MLOAD PUSH32 0x8C379A000000000000000000000000000000000000000000000000000000000 DUP2 MSTORE PUSH1 0x4 ADD PUSH2 0x2603 SWAP1 PUSH2 0x47AC JUMP JUMPDEST PUSH1 0x40 MLOAD DUP1 SWAP2 SUB SWAP1 REVERT JUMPDEST POP POP POP POP POP JUMP JUMPDEST PUSH2 0x261F DUP5 DUP5 DUP5 DUP5 PUSH2 0x2975 JUMP JUMPDEST DUP1 PUSH1 0x7 PUSH0 DUP6 DUP2 MSTORE PUSH1 0x20 ADD SWAP1 DUP2 MSTORE PUSH1 0x20 ADD PUSH0 KECCAK256 PUSH0 DUP3 DUP3 SLOAD SUB SWAP3 POP POP DUP2 SWAP1 SSTORE POP DUP1 PUSH1 0x8 PUSH0 DUP6 DUP2 MSTORE PUSH1 0x20 ADD SWAP1 DUP2 MSTORE PUSH1 0x20 ADD PUSH0 KECCAK256 PUSH0 DUP5 DUP2 MSTORE PUSH1 0x20 ADD SWAP1 DUP2 MSTORE PUSH1 0x20 ADD PUSH0 KECCAK256 PUSH0 DUP3 DUP3 SLOAD SUB SWAP3 POP POP DUP2 SWAP1 SSTORE POP PUSH0 PUSH1 0x8 PUSH0 DUP6 DUP2 MSTORE PUSH1 0x20 ADD SWAP1 DUP2 MSTORE PUSH1 0x20 ADD PUSH0 KECCAK256 PUSH0 DUP5 DUP2 MSTORE PUSH1 0x20 ADD SWAP1 DUP2 MSTORE PUSH1 0x20 ADD PUSH0 KECCAK256 SLOAD SUB PUSH2 0x27AC JUMPI PUSH1 0x6 PUSH0 DUP5 DUP2 MSTORE PUSH1 0x20 ADD SWAP1 DUP2 MSTORE PUSH1 0x20 ADD PUSH0 KECCAK256 PUSH0 DUP2 SLOAD PUSH2 0x26AE SWAP1 PUSH2 0x4B31 JUMP JUMPDEST SWAP2 SWAP1 POP DUP2 SWAP1 SSTORE POP PUSH0 PUSH1 0x9 PUSH0 DUP6 DUP2 MSTORE PUSH1 0x20 ADD SWAP1 DUP2 MSTORE PUSH1 0x20 ADD PUSH0 KECCAK256 SWAP1 POP PUSH0 PUSH1 0xA PUSH0 DUP7 DUP2 MSTORE PUSH1 0x20 ADD SWAP1 DUP2 MSTORE PUSH1 0x20 ADD PUSH0 KECCAK256 PUSH0 DUP6 DUP2 MSTORE PUSH1 0x20 ADD SWAP1 DUP2 MSTORE PUSH1 0x20 ADD PUSH0 KECCAK256 SLOAD SWAP1 POP PUSH0 DUP3 PUSH1 0x1 DUP5 DUP1 SLOAD SWAP1 POP PUSH2 0x2700 SWAP2 SWAP1 PUSH2 0x4B58 JUMP JUMPDEST DUP2 SLOAD DUP2 LT PUSH2 0x2711 JUMPI PUSH2 0x2710 PUSH2 0x3BFF JUMP JUMPDEST JUMPDEST SWAP1 PUSH0 MSTORE PUSH1 0x20 PUSH0 KECCAK256 ADD SLOAD SWAP1 POP DUP1 DUP4 DUP4 DUP2 SLOAD DUP2 LT PUSH2 0x2730 JUMPI PUSH2 0x272F PUSH2 0x3BFF JUMP JUMPDEST JUMPDEST SWAP1 PUSH0 MSTORE PUSH1 0x20 PUSH0 KECCAK256 ADD DUP2 SWAP1 SSTORE POP DUP2 PUSH1 0xA PUSH0 DUP9 DUP2 MSTORE PUSH1 0x20 ADD SWAP1 DUP2 MSTORE PUSH1 0x20 ADD PUSH0 KECCAK256 PUSH0 DUP4 DUP2 MSTORE PUSH1 0x20 ADD SWAP1 DUP2 MSTORE PUSH1 0x20 ADD PUSH0 KECCAK256 DUP2 SWAP1 SSTORE POP PUSH1 0xA PUSH0 DUP8 DUP2 MSTORE PUSH1 0x20 ADD SWAP1 DUP2 MSTORE PUSH1 0x20 ADD PUSH0 KECCAK256 PUSH0 DUP7 DUP2 MSTORE PUSH1 0x20 ADD SWAP1 DUP2 MSTORE PUSH1 0x20 ADD PUSH0 KECCAK256 PUSH0 SWAP1 SSTORE DUP3 DUP1 SLOAD DUP1 PUSH2 0x2795 JUMPI PUSH2 0x2794 PUSH2 0x4B8B JUMP JUMPDEST JUMPDEST PUSH1 0x1 SWAP1 SUB DUP2 DUP2 SWAP1 PUSH0 MSTORE PUSH1 0x20 PUSH0 KECCAK256 ADD PUSH0 SWAP1 SSTORE SWAP1 SSTORE POP POP POP JUMPDEST PUSH0 PUSH1 0x7 PUSH0 DUP6 DUP2 MSTORE PUSH1 0x20 ADD SWAP1 DUP2 MSTORE PUSH1 0x20 ADD PUSH0 KECCAK256 SLOAD SUB PUSH2 0x27DA JUMPI PUSH1 0x5 PUSH0 DUP2 SLOAD PUSH2 0x27D2 SWAP1 PUSH2 0x4B31 JUMP JUMPDEST SWAP2 SWAP1 POP DUP2 SWAP1 SSTORE POP JUMPDEST POP POP POP POP JUMP JUMPDEST PUSH0 DUP1 DUP7 PUSH20 0xFFFFFFFFFFFFFFFFFFFFFFFFFFFFFFFFFFFFFFFF AND EXTCODESIZE GT ISZERO PUSH2 0x2954 JUMPI DUP6 PUSH20 0xFFFFFFFFFFFFFFFFFFFFFFFFFFFFFFFFFFFFFFFF AND PUSH4 0x19A36752 PUSH2 0x2824 PUSH2 0x14FC JUMP JUMPDEST DUP10 DUP9 DUP9 DUP9 DUP9 PUSH1 0x40 MLOAD DUP8 PUSH4 0xFFFFFFFF AND PUSH1 0xE0 SHL DUP2 MSTORE PUSH1 0x4 ADD PUSH2 0x284A SWAP7 SWAP6 SWAP5 SWAP4 SWAP3 SWAP2 SWAP1 PUSH2 0x4BB8 JUMP JUMPDEST PUSH1 0x20 PUSH1 0x40 MLOAD DUP1 DUP4 SUB DUP2 PUSH0 DUP8 GAS CALL SWAP3 POP POP POP DUP1 ISZERO PUSH2 0x2885 JUMPI POP PUSH1 0x40 MLOAD RETURNDATASIZE PUSH1 0x1F NOT PUSH1 0x1F DUP3 ADD AND DUP3 ADD DUP1 PUSH1 0x40 MSTORE POP DUP2 ADD SWAP1 PUSH2 0x2882 SWAP2 SWAP1 PUSH2 0x4B06 JUMP JUMPDEST PUSH1 0x1 JUMPDEST PUSH2 0x2904 JUMPI RETURNDATASIZE DUP1 PUSH0 DUP2 EQ PUSH2 0x28B3 JUMPI PUSH1 0x40 MLOAD SWAP2 POP PUSH1 0x1F NOT PUSH1 0x3F RETURNDATASIZE ADD AND DUP3 ADD PUSH1 0x40 MSTORE RETURNDATASIZE DUP3 MSTORE RETURNDATASIZE PUSH0 PUSH1 0x20 DUP5 ADD RETURNDATACOPY PUSH2 0x28B8 JUMP JUMPDEST PUSH1 0x60 SWAP2 POP JUMPDEST POP PUSH0 DUP2 MLOAD SUB PUSH2 0x28FC JUMPI PUSH1 0x40 MLOAD PUSH32 0x8C379A000000000000000000000000000000000000000000000000000000000 DUP2 MSTORE PUSH1 0x4 ADD PUSH2 0x28F3 SWAP1 PUSH2 0x47AC JUMP JUMPDEST PUSH1 0x40 MLOAD DUP1 SWAP2 SUB SWAP1 REVERT JUMPDEST DUP1 MLOAD DUP2 PUSH1 0x20 ADD REVERT JUMPDEST PUSH4 0x19A36752 PUSH1 0xE0 SHL PUSH28 0xFFFFFFFFFFFFFFFFFFFFFFFFFFFFFFFFFFFFFFFFFFFFFFFFFFFFFFFF NOT AND DUP2 PUSH28 0xFFFFFFFFFFFFFFFFFFFFFFFFFFFFFFFFFFFFFFFFFFFFFFFFFFFFFFFF NOT AND EQ SWAP2 POP POP PUSH2 0x2959 JUMP JUMPDEST PUSH1 0x1 SWAP1 POP JUMPDEST SWAP7 SWAP6 POP POP POP POP POP POP JUMP JUMPDEST PUSH2 0x296F DUP5 DUP5 DUP5 DUP5 PUSH2 0x2BD6 JUMP JUMPDEST POP POP POP POP JUMP JUMPDEST PUSH0 PUSH20 0xFFFFFFFFFFFFFFFFFFFFFFFFFFFFFFFFFFFFFFFF AND DUP5 PUSH20 0xFFFFFFFFFFFFFFFFFFFFFFFFFFFFFFFFFFFFFFFF AND SUB PUSH2 0x29E3 JUMPI PUSH1 0x40 MLOAD PUSH32 0x8C379A000000000000000000000000000000000000000000000000000000000 DUP2 MSTORE PUSH1 0x4 ADD PUSH2 0x29DA SWAP1 PUSH2 0x4C68 JUMP JUMPDEST PUSH1 0x40 MLOAD DUP1 SWAP2 SUB SWAP1 REVERT JUMPDEST PUSH0 DUP2 SUB PUSH2 0x2A25 JUMPI PUSH1 0x40 MLOAD PUSH32 0x8C379A000000000000000000000000000000000000000000000000000000000 DUP2 MSTORE PUSH1 0x4 ADD PUSH2 0x2A1C SWAP1 PUSH2 0x4CD0 JUMP JUMPDEST PUSH1 0x40 MLOAD DUP1 SWAP2 SUB SWAP1 REVERT JUMPDEST PUSH0 PUSH1 0x2 PUSH0 DUP6 DUP2 MSTORE PUSH1 0x20 ADD SWAP1 DUP2 MSTORE PUSH1 0x20 ADD PUSH0 KECCAK256 PUSH0 DUP7 PUSH20 0xFFFFFFFFFFFFFFFFFFFFFFFFFFFFFFFFFFFFFFFF AND PUSH20 0xFFFFFFFFFFFFFFFFFFFFFFFFFFFFFFFFFFFFFFFF AND DUP2 MSTORE PUSH1 0x20 ADD SWAP1 DUP2 MSTORE PUSH1 0x20 ADD PUSH0 KECCAK256 PUSH0 DUP5 DUP2 MSTORE PUSH1 0x20 ADD SWAP1 DUP2 MSTORE PUSH1 0x20 ADD PUSH0 KECCAK256 SLOAD SWAP1 POP DUP2 DUP2 LT ISZERO PUSH2 0x2AC7 JUMPI PUSH1 0x40 MLOAD PUSH32 0x8C379A000000000000000000000000000000000000000000000000000000000 DUP2 MSTORE PUSH1 0x4 ADD PUSH2 0x2ABE SWAP1 PUSH2 0x4D38 JUMP JUMPDEST PUSH1 0x40 MLOAD DUP1 SWAP2 SUB SWAP1 REVERT JUMPDEST PUSH2 0x2AE3 DUP6 PUSH0 DUP7 DUP7 DUP7 PUSH1 0x40 MLOAD DUP1 PUSH1 0x20 ADD PUSH1 0x40 MSTORE DUP1 PUSH0 DUP2 MSTORE POP PUSH2 0x23E0 JUMP JUMPDEST DUP2 PUSH1 0x2 PUSH0 DUP7 DUP2 MSTORE PUSH1 0x20 ADD SWAP1 DUP2 MSTORE PUSH1 0x20 ADD PUSH0 KECCAK256 PUSH0 DUP8 PUSH20 0xFFFFFFFFFFFFFFFFFFFFFFFFFFFFFFFFFFFFFFFF AND PUSH20 0xFFFFFFFFFFFFFFFFFFFFFFFFFFFFFFFFFFFFFFFF AND DUP2 MSTORE PUSH1 0x20 ADD SWAP1 DUP2 MSTORE PUSH1 0x20 ADD PUSH0 KECCAK256 PUSH0 DUP6 DUP2 MSTORE PUSH1 0x20 ADD SWAP1 DUP2 MSTORE PUSH1 0x20 ADD PUSH0 KECCAK256 PUSH0 DUP3 DUP3 SLOAD SUB SWAP3 POP POP DUP2 SWAP1 SSTORE POP DUP4 PUSH0 PUSH20 0xFFFFFFFFFFFFFFFFFFFFFFFFFFFFFFFFFFFFFFFF AND DUP7 PUSH20 0xFFFFFFFFFFFFFFFFFFFFFFFFFFFFFFFFFFFFFFFF AND PUSH32 0xC817D75DEAA278E988C41CF549EF38FE195AB65E0E64CD67BA47F0D185690D58 DUP7 DUP7 PUSH1 0x40 MLOAD PUSH2 0x2BAB SWAP3 SWAP2 SWAP1 PUSH2 0x463D JUMP JUMPDEST PUSH1 0x40 MLOAD DUP1 SWAP2 SUB SWAP1 LOG4 PUSH2 0x2BCF DUP6 PUSH0 DUP7 DUP7 DUP7 PUSH1 0x40 MLOAD DUP1 PUSH1 0x20 ADD PUSH1 0x40 MSTORE DUP1 PUSH0 DUP2 MSTORE POP PUSH2 0x23E8 JUMP JUMPDEST POP POP POP POP POP JUMP JUMPDEST PUSH0 PUSH1 0x7 PUSH0 DUP6 DUP2 MSTORE PUSH1 0x20 ADD SWAP1 DUP2 MSTORE PUSH1 0x20 ADD PUSH0 KECCAK256 SLOAD SUB PUSH2 0x2C04 JUMPI PUSH1 0x5 PUSH0 DUP2 SLOAD PUSH2 0x2BFC SWAP1 PUSH2 0x3C59 JUMP JUMPDEST SWAP2 SWAP1 POP DUP2 SWAP1 SSTORE POP JUMPDEST PUSH0 PUSH1 0x8 PUSH0 DUP6 DUP2 MSTORE PUSH1 0x20 ADD SWAP1 DUP2 MSTORE PUSH1 0x20 ADD PUSH0 KECCAK256 PUSH0 DUP5 DUP2 MSTORE PUSH1 0x20 ADD SWAP1 DUP2 MSTORE PUSH1 0x20 ADD PUSH0 KECCAK256 SLOAD SUB PUSH2 0x2CB3 JUMPI PUSH1 0x6 PUSH0 DUP5 DUP2 MSTORE PUSH1 0x20 ADD SWAP1 DUP2 MSTORE PUSH1 0x20 ADD PUSH0 KECCAK256 PUSH0 DUP2 SLOAD PUSH2 0x2C48 SWAP1 PUSH2 0x3C59 JUMP JUMPDEST SWAP2 SWAP1 POP DUP2 SWAP1 SSTORE POP PUSH0 PUSH1 0x9 PUSH0 DUP6 DUP2 MSTORE PUSH1 0x20 ADD SWAP1 DUP2 MSTORE PUSH1 0x20 ADD PUSH0 KECCAK256 SWAP1 POP DUP1 DUP1 SLOAD SWAP1 POP PUSH1 0xA PUSH0 DUP7 DUP2 MSTORE PUSH1 0x20 ADD SWAP1 DUP2 MSTORE PUSH1 0x20 ADD PUSH0 KECCAK256 PUSH0 DUP6 DUP2 MSTORE PUSH1 0x20 ADD SWAP1 DUP2 MSTORE PUSH1 0x20 ADD PUSH0 KECCAK256 DUP2 SWAP1 SSTORE POP DUP1 DUP4 SWAP1 DUP1 PUSH1 0x1 DUP2 SLOAD ADD DUP1 DUP3 SSTORE DUP1 SWAP2 POP POP PUSH1 0x1 SWAP1 SUB SWAP1 PUSH0 MSTORE PUSH1 0x20 PUSH0 KECCAK256 ADD PUSH0 SWAP1 SWAP2 SWAP1 SWAP2 SWAP1 SWAP2 POP SSTORE POP JUMPDEST DUP1 PUSH1 0x7 PUSH0 DUP6 DUP2 MSTORE PUSH1 0x20 ADD SWAP1 DUP2 MSTORE PUSH1 0x20 ADD PUSH0 KECCAK256 PUSH0 DUP3 DUP3 SLOAD PUSH2 0x2CD3 SWAP2 SWAP1 PUSH2 0x423F JUMP JUMPDEST SWAP3 POP POP DUP2 SWAP1 SSTORE POP DUP1 PUSH1 0x8 PUSH0 DUP6 DUP2 MSTORE PUSH1 0x20 ADD SWAP1 DUP2 MSTORE PUSH1 0x20 ADD PUSH0 KECCAK256 PUSH0 DUP5 DUP2 MSTORE PUSH1 0x20 ADD SWAP1 DUP2 MSTORE PUSH1 0x20 ADD PUSH0 KECCAK256 PUSH0 DUP3 DUP3 SLOAD PUSH2 0x2D09 SWAP2 SWAP1 PUSH2 0x423F JUMP JUMPDEST SWAP3 POP POP DUP2 SWAP1 SSTORE POP PUSH2 0x2D1C DUP5 DUP5 DUP5 DUP5 PUSH2 0x2D22 JUMP JUMPDEST POP POP POP POP JUMP JUMPDEST PUSH0 PUSH20 0xFFFFFFFFFFFFFFFFFFFFFFFFFFFFFFFFFFFFFFFF AND DUP5 PUSH20 0xFFFFFFFFFFFFFFFFFFFFFFFFFFFFFFFFFFFFFFFF AND SUB PUSH2 0x2D90 JUMPI PUSH1 0x40 MLOAD PUSH32 0x8C379A000000000000000000000000000000000000000000000000000000000 DUP2 MSTORE PUSH1 0x4 ADD PUSH2 0x2D87 SWAP1 PUSH2 0x4DA0 JUMP JUMPDEST PUSH1 0x40 MLOAD DUP1 SWAP2 SUB SWAP1 REVERT JUMPDEST PUSH0 DUP2 SUB PUSH2 0x2DD2 JUMPI PUSH1 0x40 MLOAD PUSH32 0x8C379A000000000000000000000000000000000000000000000000000000000 DUP2 MSTORE PUSH1 0x4 ADD PUSH2 0x2DC9 SWAP1 PUSH2 0x4E08 JUMP JUMPDEST PUSH1 0x40 MLOAD DUP1 SWAP2 SUB SWAP1 REVERT JUMPDEST PUSH2 0x2DEE PUSH0 DUP6 DUP6 DUP6 DUP6 PUSH1 0x40 MLOAD DUP1 PUSH1 0x20 ADD PUSH1 0x40 MSTORE DUP1 PUSH0 DUP2 MSTORE POP PUSH2 0x23E0 JUMP JUMPDEST DUP1 PUSH1 0x2 PUSH0 DUP6 DUP2 MSTORE PUSH1 0x20 ADD SWAP1 DUP2 MSTORE PUSH1 0x20 ADD PUSH0 KECCAK256 PUSH0 DUP7 PUSH20 0xFFFFFFFFFFFFFFFFFFFFFFFFFFFFFFFFFFFFFFFF AND PUSH20 0xFFFFFFFFFFFFFFFFFFFFFFFFFFFFFFFFFFFFFFFF AND DUP2 MSTORE PUSH1 0x20 ADD SWAP1 DUP2 MSTORE PUSH1 0x20 ADD PUSH0 KECCAK256 PUSH0 DUP5 DUP2 MSTORE PUSH1 0x20 ADD SWAP1 DUP2 MSTORE PUSH1 0x20 ADD PUSH0 KECCAK256 PUSH0 DUP3 DUP3 SLOAD PUSH2 0x2E58 SWAP2 SWAP1 PUSH2 0x423F JUMP JUMPDEST SWAP3 POP POP DUP2 SWAP1 SSTORE POP DUP3 DUP5 PUSH20 0xFFFFFFFFFFFFFFFFFFFFFFFFFFFFFFFFFFFFFFFF AND PUSH0 PUSH20 0xFFFFFFFFFFFFFFFFFFFFFFFFFFFFFFFFFFFFFFFF AND PUSH32 0xC817D75DEAA278E988C41CF549EF38FE195AB65E0E64CD67BA47F0D185690D58 DUP6 DUP6 PUSH1 0x40 MLOAD PUSH2 0x2EBF SWAP3 SWAP2 SWAP1 PUSH2 0x463D JUMP JUMPDEST PUSH1 0x40 MLOAD DUP1 SWAP2 SUB SWAP1 LOG4 PUSH2 0x2EE3 PUSH0 DUP6 DUP6 DUP6 DUP6 PUSH1 0x40 MLOAD DUP1 PUSH1 0x20 ADD PUSH1 0x40 MSTORE DUP1 PUSH0 DUP2 MSTORE POP PUSH2 0x23E8 JUMP JUMPDEST POP POP POP POP JUMP JUMPDEST PUSH0 PUSH1 0x40 MLOAD SWAP1 POP SWAP1 JUMP JUMPDEST PUSH0 DUP1 REVERT JUMPDEST PUSH0 DUP1 REVERT JUMPDEST PUSH0 PUSH20 0xFFFFFFFFFFFFFFFFFFFFFFFFFFFFFFFFFFFFFFFF DUP3 AND SWAP1 POP SWAP2 SWAP1 POP JUMP JUMPDEST PUSH0 PUSH2 0x2F23 DUP3 PUSH2 0x2EFA JUMP JUMPDEST SWAP1 POP SWAP2 SWAP1 POP JUMP JUMPDEST PUSH2 0x2F33 DUP2 PUSH2 0x2F19 JUMP JUMPDEST DUP2 EQ PUSH2 0x2F3D JUMPI PUSH0 DUP1 REVERT JUMPDEST POP JUMP JUMPDEST PUSH0 DUP2 CALLDATALOAD SWAP1 POP PUSH2 0x2F4E DUP2 PUSH2 0x2F2A JUMP JUMPDEST SWAP3 SWAP2 POP POP JUMP JUMPDEST PUSH0 DUP2 SWAP1 POP SWAP2 SWAP1 POP JUMP JUMPDEST PUSH2 0x2F66 DUP2 PUSH2 0x2F54 JUMP JUMPDEST DUP2 EQ PUSH2 0x2F70 JUMPI PUSH0 DUP1 REVERT JUMPDEST POP JUMP JUMPDEST PUSH0 DUP2 CALLDATALOAD SWAP1 POP PUSH2 0x2F81 DUP2 PUSH2 0x2F5D JUMP JUMPDEST SWAP3 SWAP2 POP POP JUMP JUMPDEST PUSH0 DUP1 PUSH0 DUP1 PUSH0 PUSH1 0xA0 DUP7 DUP9 SUB SLT ISZERO PUSH2 0x2FA0 JUMPI PUSH2 0x2F9F PUSH2 0x2EF2 JUMP JUMPDEST JUMPDEST PUSH0 PUSH2 0x2FAD DUP9 DUP3 DUP10 ADD PUSH2 0x2F40 JUMP JUMPDEST SWAP6 POP POP PUSH1 0x20 PUSH2 0x2FBE DUP9 DUP3 DUP10 ADD PUSH2 0x2F40 JUMP JUMPDEST SWAP5 POP POP PUSH1 0x40 PUSH2 0x2FCF DUP9 DUP3 DUP10 ADD PUSH2 0x2F73 JUMP JUMPDEST SWAP4 POP POP PUSH1 0x60 PUSH2 0x2FE0 DUP9 DUP3 DUP10 ADD PUSH2 0x2F73 JUMP JUMPDEST SWAP3 POP POP PUSH1 0x80 PUSH2 0x2FF1 DUP9 DUP3 DUP10 ADD PUSH2 0x2F73 JUMP JUMPDEST SWAP2 POP POP SWAP3 SWAP6 POP SWAP3 SWAP6 SWAP1 SWAP4 POP JUMP JUMPDEST PUSH0 DUP2 ISZERO ISZERO SWAP1 POP SWAP2 SWAP1 POP JUMP JUMPDEST PUSH2 0x3012 DUP2 PUSH2 0x2FFE JUMP JUMPDEST DUP3 MSTORE POP POP JUMP JUMPDEST PUSH0 PUSH1 0x20 DUP3 ADD SWAP1 POP PUSH2 0x302B PUSH0 DUP4 ADD DUP5 PUSH2 0x3009 JUMP JUMPDEST SWAP3 SWAP2 POP POP JUMP JUMPDEST PUSH0 PUSH1 0x20 DUP3 DUP5 SUB SLT ISZERO PUSH2 0x3046 JUMPI PUSH2 0x3045 PUSH2 0x2EF2 JUMP JUMPDEST JUMPDEST PUSH0 PUSH2 0x3053 DUP5 DUP3 DUP6 ADD PUSH2 0x2F73 JUMP JUMPDEST SWAP2 POP POP SWAP3 SWAP2 POP POP JUMP JUMPDEST PUSH2 0x3065 DUP2 PUSH2 0x2F54 JUMP JUMPDEST DUP3 MSTORE POP POP JUMP JUMPDEST PUSH0 PUSH1 0x20 DUP3 ADD SWAP1 POP PUSH2 0x307E PUSH0 DUP4 ADD DUP5 PUSH2 0x305C JUMP JUMPDEST SWAP3 SWAP2 POP POP JUMP JUMPDEST PUSH0 DUP2 SWAP1 POP SWAP2 SWAP1 POP JUMP JUMPDEST PUSH0 PUSH2 0x30A7 PUSH2 0x30A2 PUSH2 0x309D DUP5 PUSH2 0x2EFA JUMP JUMPDEST PUSH2 0x3084 JUMP JUMPDEST PUSH2 0x2EFA JUMP JUMPDEST SWAP1 POP SWAP2 SWAP1 POP JUMP JUMPDEST PUSH0 PUSH2 0x30B8 DUP3 PUSH2 0x308D JUMP JUMPDEST SWAP1 POP SWAP2 SWAP1 POP JUMP JUMPDEST PUSH0 PUSH2 0x30C9 DUP3 PUSH2 0x30AE JUMP JUMPDEST SWAP1 POP SWAP2 SWAP1 POP JUMP JUMPDEST PUSH2 0x30D9 DUP2 PUSH2 0x30BF JUMP JUMPDEST DUP3 MSTORE POP POP JUMP JUMPDEST PUSH0 PUSH1 0x20 DUP3 ADD SWAP1 POP PUSH2 0x30F2 PUSH0 DUP4 ADD DUP5 PUSH2 0x30D0 JUMP JUMPDEST SWAP3 SWAP2 POP POP JUMP JUMPDEST PUSH0 DUP2 SWAP1 POP SWAP2 SWAP1 POP JUMP JUMPDEST PUSH2 0x310A DUP2 PUSH2 0x30F8 JUMP JUMPDEST DUP3 MSTORE POP POP JUMP JUMPDEST PUSH0 PUSH1 0x20 DUP3 ADD SWAP1 POP PUSH2 0x3123 PUSH0 DUP4 ADD DUP5 PUSH2 0x3101 JUMP JUMPDEST SWAP3 SWAP2 POP POP JUMP JUMPDEST PUSH0 DUP1 PUSH0 DUP1 PUSH1 0x80 DUP6 DUP8 SUB SLT ISZERO PUSH2 0x3141 JUMPI PUSH2 0x3140 PUSH2 0x2EF2 JUMP JUMPDEST JUMPDEST PUSH0 PUSH2 0x314E DUP8 DUP3 DUP9 ADD PUSH2 0x2F40 JUMP JUMPDEST SWAP5 POP POP PUSH1 0x20 PUSH2 0x315F DUP8 DUP3 DUP9 ADD PUSH2 0x2F40 JUMP JUMPDEST SWAP4 POP POP PUSH1 0x40 PUSH2 0x3170 DUP8 DUP3 DUP9 ADD PUSH2 0x2F73 JUMP JUMPDEST SWAP3 POP POP PUSH1 0x60 PUSH2 0x3181 DUP8 DUP3 DUP9 ADD PUSH2 0x2F73 JUMP JUMPDEST SWAP2 POP POP SWAP3 SWAP6 SWAP2 SWAP5 POP SWAP3 POP JUMP JUMPDEST PUSH0 DUP1 REVERT JUMPDEST PUSH0 DUP1 REVERT JUMPDEST PUSH0 PUSH1 0x1F NOT PUSH1 0x1F DUP4 ADD AND SWAP1 POP SWAP2 SWAP1 POP JUMP JUMPDEST PUSH32 0x4E487B7100000000000000000000000000000000000000000000000000000000 PUSH0 MSTORE PUSH1 0x41 PUSH1 0x4 MSTORE PUSH1 0x24 PUSH0 REVERT JUMPDEST PUSH2 0x31DB DUP3 PUSH2 0x3195 JUMP JUMPDEST DUP2 ADD DUP2 DUP2 LT PUSH8 0xFFFFFFFFFFFFFFFF DUP3 GT OR ISZERO PUSH2 0x31FA JUMPI PUSH2 0x31F9 PUSH2 0x31A5 JUMP JUMPDEST JUMPDEST DUP1 PUSH1 0x40 MSTORE POP POP POP JUMP JUMPDEST PUSH0 PUSH2 0x320C PUSH2 0x2EE9 JUMP JUMPDEST SWAP1 POP PUSH2 0x3218 DUP3 DUP3 PUSH2 0x31D2 JUMP JUMPDEST SWAP2 SWAP1 POP JUMP JUMPDEST PUSH0 PUSH8 0xFFFFFFFFFFFFFFFF DUP3 GT ISZERO PUSH2 0x3237 JUMPI PUSH2 0x3236 PUSH2 0x31A5 JUMP JUMPDEST JUMPDEST PUSH2 0x3240 DUP3 PUSH2 0x3195 JUMP JUMPDEST SWAP1 POP PUSH1 0x20 DUP2 ADD SWAP1 POP SWAP2 SWAP1 POP JUMP JUMPDEST DUP3 DUP2 DUP4 CALLDATACOPY PUSH0 DUP4 DUP4 ADD MSTORE POP POP POP JUMP JUMPDEST PUSH0 PUSH2 0x326D PUSH2 0x3268 DUP5 PUSH2 0x321D JUMP JUMPDEST PUSH2 0x3203 JUMP JUMPDEST SWAP1 POP DUP3 DUP2 MSTORE PUSH1 0x20 DUP2 ADD DUP5 DUP5 DUP5 ADD GT ISZERO PUSH2 0x3289 JUMPI PUSH2 0x3288 PUSH2 0x3191 JUMP JUMPDEST JUMPDEST PUSH2 0x3294 DUP5 DUP3 DUP6 PUSH2 0x324D JUMP JUMPDEST POP SWAP4 SWAP3 POP POP POP JUMP JUMPDEST PUSH0 DUP3 PUSH1 0x1F DUP4 ADD SLT PUSH2 0x32B0 JUMPI PUSH2 0x32AF PUSH2 0x318D JUMP JUMPDEST JUMPDEST DUP2 CALLDATALOAD PUSH2 0x32C0 DUP5 DUP3 PUSH1 0x20 DUP7 ADD PUSH2 0x325B JUMP JUMPDEST SWAP2 POP POP SWAP3 SWAP2 POP POP JUMP JUMPDEST PUSH0 DUP1 PUSH0 DUP1 PUSH0 DUP1 PUSH1 0xC0 DUP8 DUP10 SUB SLT ISZERO PUSH2 0x32E3 JUMPI PUSH2 0x32E2 PUSH2 0x2EF2 JUMP JUMPDEST JUMPDEST PUSH0 PUSH2 0x32F0 DUP10 DUP3 DUP11 ADD PUSH2 0x2F40 JUMP JUMPDEST SWAP7 POP POP PUSH1 0x20 PUSH2 0x3301 DUP10 DUP3 DUP11 ADD PUSH2 0x2F40 JUMP JUMPDEST SWAP6 POP POP PUSH1 0x40 PUSH2 0x3312 DUP10 DUP3 DUP11 ADD PUSH2 0x2F73 JUMP JUMPDEST SWAP5 POP POP PUSH1 0x60 PUSH2 0x3323 DUP10 DUP3 DUP11 ADD PUSH2 0x2F73 JUMP JUMPDEST SWAP4 POP POP PUSH1 0x80 PUSH2 0x3334 DUP10 DUP3 DUP11 ADD PUSH2 0x2F73 JUMP JUMPDEST SWAP3 POP POP PUSH1 0xA0 DUP8 ADD CALLDATALOAD PUSH8 0xFFFFFFFFFFFFFFFF DUP2 GT ISZERO PUSH2 0x3355 JUMPI PUSH2 0x3354 PUSH2 0x2EF6 JUMP JUMPDEST JUMPDEST PUSH2 0x3361 DUP10 DUP3 DUP11 ADD PUSH2 0x329C JUMP JUMPDEST SWAP2 POP POP SWAP3 SWAP6 POP SWAP3 SWAP6 POP SWAP3 SWAP6 JUMP JUMPDEST PUSH0 DUP1 PUSH0 DUP1 PUSH1 0x80 DUP6 DUP8 SUB SLT ISZERO PUSH2 0x3386 JUMPI PUSH2 0x3385 PUSH2 0x2EF2 JUMP JUMPDEST JUMPDEST PUSH0 PUSH2 0x3393 DUP8 DUP3 DUP9 ADD PUSH2 0x2F40 JUMP JUMPDEST SWAP5 POP POP PUSH1 0x20 PUSH2 0x33A4 DUP8 DUP3 DUP9 ADD PUSH2 0x2F73 JUMP JUMPDEST SWAP4 POP POP PUSH1 0x40 PUSH2 0x33B5 DUP8 DUP3 DUP9 ADD PUSH2 0x2F73 JUMP JUMPDEST SWAP3 POP POP PUSH1 0x60 PUSH2 0x33C6 DUP8 DUP3 DUP9 ADD PUSH2 0x2F73 JUMP JUMPDEST SWAP2 POP POP SWAP3 SWAP6 SWAP2 SWAP5 POP SWAP3 POP JUMP JUMPDEST PUSH0 DUP1 REVERT JUMPDEST PUSH0 DUP1 REVERT JUMPDEST PUSH0 DUP1 DUP4 PUSH1 0x1F DUP5 ADD SLT PUSH2 0x33EF JUMPI PUSH2 0x33EE PUSH2 0x318D JUMP JUMPDEST JUMPDEST DUP3 CALLDATALOAD SWAP1 POP PUSH8 0xFFFFFFFFFFFFFFFF DUP2 GT ISZERO PUSH2 0x340C JUMPI PUSH2 0x340B PUSH2 0x33D2 JUMP JUMPDEST JUMPDEST PUSH1 0x20 DUP4 ADD SWAP2 POP DUP4 PUSH1 0x20 DUP3 MUL DUP4 ADD GT ISZERO PUSH2 0x3428 JUMPI PUSH2 0x3427 PUSH2 0x33D6 JUMP JUMPDEST JUMPDEST SWAP3 POP SWAP3 SWAP1 POP JUMP JUMPDEST PUSH0 DUP1 DUP4 PUSH1 0x1F DUP5 ADD SLT PUSH2 0x3444 JUMPI PUSH2 0x3443 PUSH2 0x318D JUMP JUMPDEST JUMPDEST DUP3 CALLDATALOAD SWAP1 POP PUSH8 0xFFFFFFFFFFFFFFFF DUP2 GT ISZERO PUSH2 0x3461 JUMPI PUSH2 0x3460 PUSH2 0x33D2 JUMP JUMPDEST JUMPDEST PUSH1 0x20 DUP4 ADD SWAP2 POP DUP4 PUSH1 0x20 DUP3 MUL DUP4 ADD GT ISZERO PUSH2 0x347D JUMPI PUSH2 0x347C PUSH2 0x33D6 JUMP JUMPDEST JUMPDEST SWAP3 POP SWAP3 SWAP1 POP JUMP JUMPDEST PUSH0 DUP1 PUSH0 DUP1 PUSH0 DUP1 PUSH1 0x60 DUP8 DUP10 SUB SLT ISZERO PUSH2 0x349E JUMPI PUSH2 0x349D PUSH2 0x2EF2 JUMP JUMPDEST JUMPDEST PUSH0 DUP8 ADD CALLDATALOAD PUSH8 0xFFFFFFFFFFFFFFFF DUP2 GT ISZERO PUSH2 0x34BB JUMPI PUSH2 0x34BA PUSH2 0x2EF6 JUMP JUMPDEST JUMPDEST PUSH2 0x34C7 DUP10 DUP3 DUP11 ADD PUSH2 0x33DA JUMP JUMPDEST SWAP7 POP SWAP7 POP POP PUSH1 0x20 DUP8 ADD CALLDATALOAD PUSH8 0xFFFFFFFFFFFFFFFF DUP2 GT ISZERO PUSH2 0x34EA JUMPI PUSH2 0x34E9 PUSH2 0x2EF6 JUMP JUMPDEST JUMPDEST PUSH2 0x34F6 DUP10 DUP3 DUP11 ADD PUSH2 0x342F JUMP JUMPDEST SWAP5 POP SWAP5 POP POP PUSH1 0x40 DUP8 ADD CALLDATALOAD PUSH8 0xFFFFFFFFFFFFFFFF DUP2 GT ISZERO PUSH2 0x3519 JUMPI PUSH2 0x3518 PUSH2 0x2EF6 JUMP JUMPDEST JUMPDEST PUSH2 0x3525 DUP10 DUP3 DUP11 ADD PUSH2 0x342F JUMP JUMPDEST SWAP3 POP SWAP3 POP POP SWAP3 SWAP6 POP SWAP3 SWAP6 POP SWAP3 SWAP6 JUMP JUMPDEST PUSH0 DUP2 MLOAD SWAP1 POP SWAP2 SWAP1 POP JUMP JUMPDEST PUSH0 DUP3 DUP3 MSTORE PUSH1 0x20 DUP3 ADD SWAP1 POP SWAP3 SWAP2 POP POP JUMP JUMPDEST PUSH0 DUP2 SWAP1 POP PUSH1 0x20 DUP3 ADD SWAP1 POP SWAP2 SWAP1 POP JUMP JUMPDEST PUSH2 0x3566 DUP2 PUSH2 0x2F54 JUMP JUMPDEST DUP3 MSTORE POP POP JUMP JUMPDEST PUSH0 PUSH2 0x3577 DUP4 DUP4 PUSH2 0x355D JUMP JUMPDEST PUSH1 0x20 DUP4 ADD SWAP1 POP SWAP3 SWAP2 POP POP JUMP JUMPDEST PUSH0 PUSH1 0x20 DUP3 ADD SWAP1 POP SWAP2 SWAP1 POP JUMP JUMPDEST PUSH0 PUSH2 0x3599 DUP3 PUSH2 0x3534 JUMP JUMPDEST PUSH2 0x35A3 DUP2 DUP6 PUSH2 0x353E JUMP JUMPDEST SWAP4 POP PUSH2 0x35AE DUP4 PUSH2 0x354E JUMP JUMPDEST DUP1 PUSH0 JUMPDEST DUP4 DUP2 LT ISZERO PUSH2 0x35DE JUMPI DUP2 MLOAD PUSH2 0x35C5 DUP9 DUP3 PUSH2 0x356C JUMP JUMPDEST SWAP8 POP PUSH2 0x35D0 DUP4 PUSH2 0x3583 JUMP JUMPDEST SWAP3 POP POP PUSH1 0x1 DUP2 ADD SWAP1 POP PUSH2 0x35B1 JUMP JUMPDEST POP DUP6 SWAP4 POP POP POP POP SWAP3 SWAP2 POP POP JUMP JUMPDEST PUSH0 PUSH1 0x20 DUP3 ADD SWAP1 POP DUP2 DUP2 SUB PUSH0 DUP4 ADD MSTORE PUSH2 0x3603 DUP2 DUP5 PUSH2 0x358F JUMP JUMPDEST SWAP1 POP SWAP3 SWAP2 POP POP JUMP JUMPDEST PUSH0 DUP1 DUP4 PUSH1 0x1F DUP5 ADD SLT PUSH2 0x3620 JUMPI PUSH2 0x361F PUSH2 0x318D JUMP JUMPDEST JUMPDEST DUP3 CALLDATALOAD SWAP1 POP PUSH8 0xFFFFFFFFFFFFFFFF DUP2 GT ISZERO PUSH2 0x363D JUMPI PUSH2 0x363C PUSH2 0x33D2 JUMP JUMPDEST JUMPDEST PUSH1 0x20 DUP4 ADD SWAP2 POP DUP4 PUSH1 0x1 DUP3 MUL DUP4 ADD GT ISZERO PUSH2 0x3659 JUMPI PUSH2 0x3658 PUSH2 0x33D6 JUMP JUMPDEST JUMPDEST SWAP3 POP SWAP3 SWAP1 POP JUMP JUMPDEST PUSH0 DUP1 PUSH0 DUP1 PUSH0 DUP1 PUSH0 DUP1 PUSH0 DUP1 PUSH1 0xC0 DUP12 DUP14 SUB SLT ISZERO PUSH2 0x367E JUMPI PUSH2 0x367D PUSH2 0x2EF2 JUMP JUMPDEST JUMPDEST PUSH0 PUSH2 0x368B DUP14 DUP3 DUP15 ADD PUSH2 0x2F40 JUMP JUMPDEST SWAP11 POP POP PUSH1 0x20 PUSH2 0x369C DUP14 DUP3 DUP15 ADD PUSH2 0x2F40 JUMP JUMPDEST SWAP10 POP POP PUSH1 0x40 DUP12 ADD CALLDATALOAD PUSH8 0xFFFFFFFFFFFFFFFF DUP2 GT ISZERO PUSH2 0x36BD JUMPI PUSH2 0x36BC PUSH2 0x2EF6 JUMP JUMPDEST JUMPDEST PUSH2 0x36C9 DUP14 DUP3 DUP15 ADD PUSH2 0x342F JUMP JUMPDEST SWAP9 POP SWAP9 POP POP PUSH1 0x60 DUP12 ADD CALLDATALOAD PUSH8 0xFFFFFFFFFFFFFFFF DUP2 GT ISZERO PUSH2 0x36EC JUMPI PUSH2 0x36EB PUSH2 0x2EF6 JUMP JUMPDEST JUMPDEST PUSH2 0x36F8 DUP14 DUP3 DUP15 ADD PUSH2 0x342F JUMP JUMPDEST SWAP7 POP SWAP7 POP POP PUSH1 0x80 DUP12 ADD CALLDATALOAD PUSH8 0xFFFFFFFFFFFFFFFF DUP2 GT ISZERO PUSH2 0x371B JUMPI PUSH2 0x371A PUSH2 0x2EF6 JUMP JUMPDEST JUMPDEST PUSH2 0x3727 DUP14 DUP3 DUP15 ADD PUSH2 0x342F JUMP JUMPDEST SWAP5 POP SWAP5 POP POP PUSH1 0xA0 DUP12 ADD CALLDATALOAD PUSH8 0xFFFFFFFFFFFFFFFF DUP2 GT ISZERO PUSH2 0x374A JUMPI PUSH2 0x3749 PUSH2 0x2EF6 JUMP JUMPDEST JUMPDEST PUSH2 0x3756 DUP14 DUP3 DUP15 ADD PUSH2 0x360B JUMP JUMPDEST SWAP3 POP SWAP3 POP POP SWAP3 SWAP6 SWAP9 SWAP12 SWAP2 SWAP5 SWAP8 SWAP11 POP SWAP3 SWAP6 SWAP9 POP JUMP JUMPDEST PUSH0 PUSH1 0x20 DUP3 DUP5 SUB SLT ISZERO PUSH2 0x377F JUMPI PUSH2 0x377E PUSH2 0x2EF2 JUMP JUMPDEST JUMPDEST PUSH0 PUSH2 0x378C DUP5 DUP3 DUP6 ADD PUSH2 0x2F40 JUMP JUMPDEST SWAP2 POP POP SWAP3 SWAP2 POP POP JUMP JUMPDEST PUSH0 DUP1 PUSH0 PUSH1 0x60 DUP5 DUP7 SUB SLT ISZERO PUSH2 0x37AC JUMPI PUSH2 0x37AB PUSH2 0x2EF2 JUMP JUMPDEST JUMPDEST PUSH0 PUSH2 0x37B9 DUP7 DUP3 DUP8 ADD PUSH2 0x2F40 JUMP JUMPDEST SWAP4 POP POP PUSH1 0x20 PUSH2 0x37CA DUP7 DUP3 DUP8 ADD PUSH2 0x2F73 JUMP JUMPDEST SWAP3 POP POP PUSH1 0x40 PUSH2 0x37DB DUP7 DUP3 DUP8 ADD PUSH2 0x2F73 JUMP JUMPDEST SWAP2 POP POP SWAP3 POP SWAP3 POP SWAP3 JUMP JUMPDEST PUSH2 0x37EE DUP2 PUSH2 0x2F19 JUMP JUMPDEST DUP3 MSTORE POP POP JUMP JUMPDEST PUSH0 PUSH1 0x20 DUP3 ADD SWAP1 POP PUSH2 0x3807 PUSH0 DUP4 ADD DUP5 PUSH2 0x37E5 JUMP JUMPDEST SWAP3 SWAP2 POP POP JUMP JUMPDEST PUSH0 DUP1 PUSH1 0x40 DUP4 DUP6 SUB SLT ISZERO PUSH2 0x3823 JUMPI PUSH2 0x3822 PUSH2 0x2EF2 JUMP JUMPDEST JUMPDEST PUSH0 PUSH2 0x3830 DUP6 DUP3 DUP7 ADD PUSH2 0x2F73 JUMP JUMPDEST SWAP3 POP POP PUSH1 0x20 PUSH2 0x3841 DUP6 DUP3 DUP7 ADD PUSH2 0x2F73 JUMP JUMPDEST SWAP2 POP POP SWAP3 POP SWAP3 SWAP1 POP JUMP JUMPDEST PUSH0 PUSH1 0xFF DUP3 AND SWAP1 POP SWAP2 SWAP1 POP JUMP JUMPDEST PUSH2 0x3860 DUP2 PUSH2 0x384B JUMP JUMPDEST DUP2 EQ PUSH2 0x386A JUMPI PUSH0 DUP1 REVERT JUMPDEST POP JUMP JUMPDEST PUSH0 DUP2 CALLDATALOAD SWAP1 POP PUSH2 0x387B DUP2 PUSH2 0x3857 JUMP JUMPDEST SWAP3 SWAP2 POP POP JUMP JUMPDEST PUSH2 0x388A DUP2 PUSH2 0x30F8 JUMP JUMPDEST DUP2 EQ PUSH2 0x3894 JUMPI PUSH0 DUP1 REVERT JUMPDEST POP JUMP JUMPDEST PUSH0 DUP2 CALLDATALOAD SWAP1 POP PUSH2 0x38A5 DUP2 PUSH2 0x3881 JUMP JUMPDEST SWAP3 SWAP2 POP POP JUMP JUMPDEST PUSH0 DUP1 PUSH0 DUP1 PUSH0 DUP1 PUSH0 DUP1 PUSH0 PUSH2 0x120 DUP11 DUP13 SUB SLT ISZERO PUSH2 0x38C9 JUMPI PUSH2 0x38C8 PUSH2 0x2EF2 JUMP JUMPDEST JUMPDEST PUSH0 PUSH2 0x38D6 DUP13 DUP3 DUP14 ADD PUSH2 0x2F40 JUMP JUMPDEST SWAP10 POP POP PUSH1 0x20 PUSH2 0x38E7 DUP13 DUP3 DUP14 ADD PUSH2 0x2F40 JUMP JUMPDEST SWAP9 POP POP PUSH1 0x40 PUSH2 0x38F8 DUP13 DUP3 DUP14 ADD PUSH2 0x2F73 JUMP JUMPDEST SWAP8 POP POP PUSH1 0x60 PUSH2 0x3909 DUP13 DUP3 DUP14 ADD PUSH2 0x2F73 JUMP JUMPDEST SWAP7 POP POP PUSH1 0x80 PUSH2 0x391A DUP13 DUP3 DUP14 ADD PUSH2 0x2F73 JUMP JUMPDEST SWAP6 POP POP PUSH1 0xA0 PUSH2 0x392B DUP13 DUP3 DUP14 ADD PUSH2 0x2F73 JUMP JUMPDEST SWAP5 POP POP PUSH1 0xC0 PUSH2 0x393C DUP13 DUP3 DUP14 ADD PUSH2 0x386D JUMP JUMPDEST SWAP4 POP POP PUSH1 0xE0 PUSH2 0x394D DUP13 DUP3 DUP14 ADD PUSH2 0x3897 JUMP JUMPDEST SWAP3 POP POP PUSH2 0x100 PUSH2 0x395F DUP13 DUP3 DUP14 ADD PUSH2 0x3897 JUMP JUMPDEST SWAP2 POP POP SWAP3 SWAP6 SWAP9 POP SWAP3 SWAP6 SWAP9 POP SWAP3 SWAP6 SWAP9 JUMP JUMPDEST PUSH2 0x3978 DUP2 PUSH2 0x2FFE JUMP JUMPDEST DUP2 EQ PUSH2 0x3982 JUMPI PUSH0 DUP1 REVERT JUMPDEST POP JUMP JUMPDEST PUSH0 DUP2 CALLDATALOAD SWAP1 POP PUSH2 0x3993 DUP2 PUSH2 0x396F JUMP JUMPDEST SWAP3 SWAP2 POP POP JUMP JUMPDEST PUSH0 DUP1 PUSH1 0x40 DUP4 DUP6 SUB SLT ISZERO PUSH2 0x39AF JUMPI PUSH2 0x39AE PUSH2 0x2EF2 JUMP JUMPDEST JUMPDEST PUSH0 PUSH2 0x39BC DUP6 DUP3 DUP7 ADD PUSH2 0x2F40 JUMP JUMPDEST SWAP3 POP POP PUSH1 0x20 PUSH2 0x39CD DUP6 DUP3 DUP7 ADD PUSH2 0x3985 JUMP JUMPDEST SWAP2 POP POP SWAP3 POP SWAP3 SWAP1 POP JUMP JUMPDEST PUSH0 DUP1 PUSH1 0x40 DUP4 DUP6 SUB SLT ISZERO PUSH2 0x39ED JUMPI PUSH2 0x39EC PUSH2 0x2EF2 JUMP JUMPDEST JUMPDEST PUSH0 PUSH2 0x39FA DUP6 DUP3 DUP7 ADD PUSH2 0x2F40 JUMP JUMPDEST SWAP3 POP POP PUSH1 0x20 PUSH2 0x3A0B DUP6 DUP3 DUP7 ADD PUSH2 0x2F73 JUMP JUMPDEST SWAP2 POP POP SWAP3 POP SWAP3 SWAP1 POP JUMP JUMPDEST PUSH0 DUP1 PUSH1 0x40 DUP4 DUP6 SUB SLT ISZERO PUSH2 0x3A2B JUMPI PUSH2 0x3A2A PUSH2 0x2EF2 JUMP JUMPDEST JUMPDEST PUSH0 PUSH2 0x3A38 DUP6 DUP3 DUP7 ADD PUSH2 0x2F40 JUMP JUMPDEST SWAP3 POP POP PUSH1 0x20 PUSH2 0x3A49 DUP6 DUP3 DUP7 ADD PUSH2 0x2F40 JUMP JUMPDEST SWAP2 POP POP SWAP3 POP SWAP3 SWAP1 POP JUMP JUMPDEST PUSH0 DUP1 PUSH1 0x40 DUP4 DUP6 SUB SLT ISZERO PUSH2 0x3A69 JUMPI PUSH2 0x3A68 PUSH2 0x2EF2 JUMP JUMPDEST JUMPDEST PUSH0 PUSH2 0x3A76 DUP6 DUP3 DUP7 ADD PUSH2 0x3897 JUMP JUMPDEST SWAP3 POP POP PUSH1 0x20 PUSH2 0x3A87 DUP6 DUP3 DUP7 ADD PUSH2 0x3985 JUMP JUMPDEST SWAP2 POP POP SWAP3 POP SWAP3 SWAP1 POP JUMP JUMPDEST PUSH0 DUP3 DUP3 MSTORE PUSH1 0x20 DUP3 ADD SWAP1 POP SWAP3 SWAP2 POP POP JUMP JUMPDEST PUSH32 0x4F6E6C792061646D696E2063616E207365742074686520707269636500000000 PUSH0 DUP3 ADD MSTORE POP JUMP JUMPDEST PUSH0 PUSH2 0x3AD5 PUSH1 0x1C DUP4 PUSH2 0x3A91 JUMP JUMPDEST SWAP2 POP PUSH2 0x3AE0 DUP3 PUSH2 0x3AA1 JUMP JUMPDEST PUSH1 0x20 DUP3 ADD SWAP1 POP SWAP2 SWAP1 POP JUMP JUMPDEST PUSH0 PUSH1 0x20 DUP3 ADD SWAP1 POP DUP2 DUP2 SUB PUSH0 DUP4 ADD MSTORE PUSH2 0x3B02 DUP2 PUSH2 0x3AC9 JUMP JUMPDEST SWAP1 POP SWAP2 SWAP1 POP JUMP JUMPDEST PUSH32 0x444C543A20617070726F76616C20746F2063757272656E74206F776E65720000 PUSH0 DUP3 ADD MSTORE POP JUMP JUMPDEST PUSH0 PUSH2 0x3B3D PUSH1 0x1E DUP4 PUSH2 0x3A91 JUMP JUMPDEST SWAP2 POP PUSH2 0x3B48 DUP3 PUSH2 0x3B09 JUMP JUMPDEST PUSH1 0x20 DUP3 ADD SWAP1 POP SWAP2 SWAP1 POP JUMP JUMPDEST PUSH0 PUSH1 0x20 DUP3 ADD SWAP1 POP DUP2 DUP2 SUB PUSH0 DUP4 ADD MSTORE PUSH2 0x3B6A DUP2 PUSH2 0x3B31 JUMP JUMPDEST SWAP1 POP SWAP2 SWAP1 POP JUMP JUMPDEST PUSH32 0x444C543A206163636F756E74732C206D61696E49647320616E6420696473206C PUSH0 DUP3 ADD MSTORE PUSH32 0x656E677468206D69736D61746368000000000000000000000000000000000000 PUSH1 0x20 DUP3 ADD MSTORE POP JUMP JUMPDEST PUSH0 PUSH2 0x3BCB PUSH1 0x2E DUP4 PUSH2 0x3A91 JUMP JUMPDEST SWAP2 POP PUSH2 0x3BD6 DUP3 PUSH2 0x3B71 JUMP JUMPDEST PUSH1 0x40 DUP3 ADD SWAP1 POP SWAP2 SWAP1 POP JUMP JUMPDEST PUSH0 PUSH1 0x20 DUP3 ADD SWAP1 POP DUP2 DUP2 SUB PUSH0 DUP4 ADD MSTORE PUSH2 0x3BF8 DUP2 PUSH2 0x3BBF JUMP JUMPDEST SWAP1 POP SWAP2 SWAP1 POP JUMP JUMPDEST PUSH32 0x4E487B7100000000000000000000000000000000000000000000000000000000 PUSH0 MSTORE PUSH1 0x32 PUSH1 0x4 MSTORE PUSH1 0x24 PUSH0 REVERT JUMPDEST PUSH32 0x4E487B7100000000000000000000000000000000000000000000000000000000 PUSH0 MSTORE PUSH1 0x11 PUSH1 0x4 MSTORE PUSH1 0x24 PUSH0 REVERT JUMPDEST PUSH0 PUSH2 0x3C63 DUP3 PUSH2 0x2F54 JUMP JUMPDEST SWAP2 POP PUSH32 0xFFFFFFFFFFFFFFFFFFFFFFFFFFFFFFFFFFFFFFFFFFFFFFFFFFFFFFFFFFFFFFFF DUP3 SUB PUSH2 0x3C95 JUMPI PUSH2 0x3C94 PUSH2 0x3C2C JUMP JUMPDEST JUMPDEST PUSH1 0x1 DUP3 ADD SWAP1 POP SWAP2 SWAP1 POP JUMP JUMPDEST PUSH32 0x444C543A2063616C6C6572206973206E6F7420746F6B656E206F776E6572206F PUSH0 DUP3 ADD MSTORE PUSH32 0x7220617070726F76656420666F7220616C6C0000000000000000000000000000 PUSH1 0x20 DUP3 ADD MSTORE POP JUMP JUMPDEST PUSH0 PUSH2 0x3CFA PUSH1 0x32 DUP4 PUSH2 0x3A91 JUMP JUMPDEST SWAP2 POP PUSH2 0x3D05 DUP3 PUSH2 0x3CA0 JUMP JUMPDEST PUSH1 0x40 DUP3 ADD SWAP1 POP SWAP2 SWAP1 POP JUMP JUMPDEST PUSH0 PUSH1 0x20 DUP3 ADD SWAP1 POP DUP2 DUP2 SUB PUSH0 DUP4 ADD MSTORE PUSH2 0x3D27 DUP2 PUSH2 0x3CEE JUMP JUMPDEST SWAP1 POP SWAP2 SWAP1 POP JUMP JUMPDEST PUSH32 0x4D7573742062652070726F706F736564206F776E657200000000000000000000 PUSH0 DUP3 ADD MSTORE POP JUMP JUMPDEST PUSH0 PUSH2 0x3D62 PUSH1 0x16 DUP4 PUSH2 0x3A91 JUMP JUMPDEST SWAP2 POP PUSH2 0x3D6D DUP3 PUSH2 0x3D2E JUMP JUMPDEST PUSH1 0x20 DUP3 ADD SWAP1 POP SWAP2 SWAP1 POP JUMP JUMPDEST PUSH0 PUSH1 0x20 DUP3 ADD SWAP1 POP DUP2 DUP2 SUB PUSH0 DUP4 ADD MSTORE PUSH2 0x3D8F DUP2 PUSH2 0x3D56 JUMP JUMPDEST SWAP1 POP SWAP2 SWAP1 POP JUMP JUMPDEST PUSH0 DUP2 SWAP1 POP SWAP3 SWAP2 POP POP JUMP JUMPDEST PUSH32 0x5065726D69742800000000000000000000000000000000000000000000000000 PUSH0 DUP3 ADD MSTORE POP JUMP JUMPDEST PUSH0 PUSH2 0x3DD4 PUSH1 0x7 DUP4 PUSH2 0x3D96 JUMP JUMPDEST SWAP2 POP PUSH2 0x3DDF DUP3 PUSH2 0x3DA0 JUMP JUMPDEST PUSH1 0x7 DUP3 ADD SWAP1 POP SWAP2 SWAP1 POP JUMP JUMPDEST PUSH32 0x61646472657373206F776E65722C000000000000000000000000000000000000 PUSH0 DUP3 ADD MSTORE POP JUMP JUMPDEST PUSH0 PUSH2 0x3E1E PUSH1 0xE DUP4 PUSH2 0x3D96 JUMP JUMPDEST SWAP2 POP PUSH2 0x3E29 DUP3 PUSH2 0x3DEA JUMP JUMPDEST PUSH1 0xE DUP3 ADD SWAP1 POP SWAP2 SWAP1 POP JUMP JUMPDEST PUSH32 0x61646472657373207370656E6465722C00000000000000000000000000000000 PUSH0 DUP3 ADD MSTORE POP JUMP JUMPDEST PUSH0 PUSH2 0x3E68 PUSH1 0x10 DUP4 PUSH2 0x3D96 JUMP JUMPDEST SWAP2 POP PUSH2 0x3E73 DUP3 PUSH2 0x3E34 JUMP JUMPDEST PUSH1 0x10 DUP3 ADD SWAP1 POP SWAP2 SWAP1 POP JUMP JUMPDEST PUSH32 0x75696E74323536206D61696E49642C0000000000000000000000000000000000 PUSH0 DUP3 ADD MSTORE POP JUMP JUMPDEST PUSH0 PUSH2 0x3EB2 PUSH1 0xF DUP4 PUSH2 0x3D96 JUMP JUMPDEST SWAP2 POP PUSH2 0x3EBD DUP3 PUSH2 0x3E7E JUMP JUMPDEST PUSH1 0xF DUP3 ADD SWAP1 POP SWAP2 SWAP1 POP JUMP JUMPDEST PUSH32 0x75696E743235362073756249642C000000000000000000000000000000000000 PUSH0 DUP3 ADD MSTORE POP JUMP JUMPDEST PUSH0 PUSH2 0x3EFC PUSH1 0xE DUP4 PUSH2 0x3D96 JUMP JUMPDEST SWAP2 POP PUSH2 0x3F07 DUP3 PUSH2 0x3EC8 JUMP JUMPDEST PUSH1 0xE DUP3 ADD SWAP1 POP SWAP2 SWAP1 POP JUMP JUMPDEST PUSH32 0x75696E7432353620616D6F756E742C0000000000000000000000000000000000 PUSH0 DUP3 ADD MSTORE POP JUMP JUMPDEST PUSH0 PUSH2 0x3F46 PUSH1 0xF DUP4 PUSH2 0x3D96 JUMP JUMPDEST SWAP2 POP PUSH2 0x3F51 DUP3 PUSH2 0x3F12 JUMP JUMPDEST PUSH1 0xF DUP3 ADD SWAP1 POP SWAP2 SWAP1 POP JUMP JUMPDEST PUSH32 0x75696E74323536206E6F6E63652C000000000000000000000000000000000000 PUSH0 DUP3 ADD MSTORE POP JUMP JUMPDEST PUSH0 PUSH2 0x3F90 PUSH1 0xE DUP4 PUSH2 0x3D96 JUMP JUMPDEST SWAP2 POP PUSH2 0x3F9B DUP3 PUSH2 0x3F5C JUMP JUMPDEST PUSH1 0xE DUP3 ADD SWAP1 POP SWAP2 SWAP1 POP JUMP JUMPDEST PUSH32 0x75696E7432353620646561646C696E6500000000000000000000000000000000 PUSH0 DUP3 ADD MSTORE POP JUMP JUMPDEST PUSH0 PUSH2 0x3FDA PUSH1 0x10 DUP4 PUSH2 0x3D96 JUMP JUMPDEST SWAP2 POP PUSH2 0x3FE5 DUP3 PUSH2 0x3FA6 JUMP JUMPDEST PUSH1 0x10 DUP3 ADD SWAP1 POP SWAP2 SWAP1 POP JUMP JUMPDEST PUSH32 0x2900000000000000000000000000000000000000000000000000000000000000 PUSH0 DUP3 ADD MSTORE POP JUMP JUMPDEST PUSH0 PUSH2 0x4024 PUSH1 0x1 DUP4 PUSH2 0x3D96 JUMP JUMPDEST SWAP2 POP PUSH2 0x402F DUP3 PUSH2 0x3FF0 JUMP JUMPDEST PUSH1 0x1 DUP3 ADD SWAP1 POP SWAP2 SWAP1 POP JUMP JUMPDEST PUSH0 PUSH2 0x4044 DUP3 PUSH2 0x3DC8 JUMP JUMPDEST SWAP2 POP PUSH2 0x404F DUP3 PUSH2 0x3E12 JUMP JUMPDEST SWAP2 POP PUSH2 0x405A DUP3 PUSH2 0x3E5C JUMP JUMPDEST SWAP2 POP PUSH2 0x4065 DUP3 PUSH2 0x3EA6 JUMP JUMPDEST SWAP2 POP PUSH2 0x4070 DUP3 PUSH2 0x3EF0 JUMP JUMPDEST SWAP2 POP PUSH2 0x407B DUP3 PUSH2 0x3F3A JUMP JUMPDEST SWAP2 POP PUSH2 0x4086 DUP3 PUSH2 0x3F84 JUMP JUMPDEST SWAP2 POP PUSH2 0x4091 DUP3 PUSH2 0x3FCE JUMP JUMPDEST SWAP2 POP PUSH2 0x409C DUP3 PUSH2 0x4018 JUMP JUMPDEST SWAP2 POP DUP2 SWAP1 POP SWAP2 SWAP1 POP JUMP JUMPDEST PUSH0 PUSH2 0x100 DUP3 ADD SWAP1 POP PUSH2 0x40BA PUSH0 DUP4 ADD DUP12 PUSH2 0x3101 JUMP JUMPDEST PUSH2 0x40C7 PUSH1 0x20 DUP4 ADD DUP11 PUSH2 0x37E5 JUMP JUMPDEST PUSH2 0x40D4 PUSH1 0x40 DUP4 ADD DUP10 PUSH2 0x37E5 JUMP JUMPDEST PUSH2 0x40E1 PUSH1 0x60 DUP4 ADD DUP9 PUSH2 0x305C JUMP JUMPDEST PUSH2 0x40EE PUSH1 0x80 DUP4 ADD DUP8 PUSH2 0x305C JUMP JUMPDEST PUSH2 0x40FB PUSH1 0xA0 DUP4 ADD DUP7 PUSH2 0x305C JUMP JUMPDEST PUSH2 0x4108 PUSH1 0xC0 DUP4 ADD DUP6 PUSH2 0x305C JUMP JUMPDEST PUSH2 0x4115 PUSH1 0xE0 DUP4 ADD DUP5 PUSH2 0x305C JUMP JUMPDEST SWAP10 SWAP9 POP POP POP POP POP POP POP POP POP JUMP JUMPDEST PUSH0 PUSH2 0x412C DUP3 PUSH2 0x2F54 JUMP JUMPDEST SWAP2 POP PUSH2 0x4137 DUP4 PUSH2 0x2F54 JUMP JUMPDEST SWAP3 POP DUP3 DUP3 MUL PUSH2 0x4145 DUP2 PUSH2 0x2F54 JUMP JUMPDEST SWAP2 POP DUP3 DUP3 DIV DUP5 EQ DUP4 ISZERO OR PUSH2 0x415C JUMPI PUSH2 0x415B PUSH2 0x3C2C JUMP JUMPDEST JUMPDEST POP SWAP3 SWAP2 POP POP JUMP JUMPDEST PUSH0 PUSH1 0x60 DUP3 ADD SWAP1 POP PUSH2 0x4176 PUSH0 DUP4 ADD DUP7 PUSH2 0x37E5 JUMP JUMPDEST PUSH2 0x4183 PUSH1 0x20 DUP4 ADD DUP6 PUSH2 0x37E5 JUMP JUMPDEST PUSH2 0x4190 PUSH1 0x40 DUP4 ADD DUP5 PUSH2 0x305C JUMP JUMPDEST SWAP5 SWAP4 POP POP POP POP JUMP JUMPDEST PUSH0 DUP2 MLOAD SWAP1 POP PUSH2 0x41A6 DUP2 PUSH2 0x396F JUMP JUMPDEST SWAP3 SWAP2 POP POP JUMP JUMPDEST PUSH0 PUSH1 0x20 DUP3 DUP5 SUB SLT ISZERO PUSH2 0x41C1 JUMPI PUSH2 0x41C0 PUSH2 0x2EF2 JUMP JUMPDEST JUMPDEST PUSH0 PUSH2 0x41CE DUP5 DUP3 DUP6 ADD PUSH2 0x4198 JUMP JUMPDEST SWAP2 POP POP SWAP3 SWAP2 POP POP JUMP JUMPDEST PUSH32 0x55534443207472616E73666572206661696C6564000000000000000000000000 PUSH0 DUP3 ADD MSTORE POP JUMP JUMPDEST PUSH0 PUSH2 0x420B PUSH1 0x14 DUP4 PUSH2 0x3A91 JUMP JUMPDEST SWAP2 POP PUSH2 0x4216 DUP3 PUSH2 0x41D7 JUMP JUMPDEST PUSH1 0x20 DUP3 ADD SWAP1 POP SWAP2 SWAP1 POP JUMP JUMPDEST PUSH0 PUSH1 0x20 DUP3 ADD SWAP1 POP DUP2 DUP2 SUB PUSH0 DUP4 ADD MSTORE PUSH2 0x4238 DUP2 PUSH2 0x41FF JUMP JUMPDEST SWAP1 POP SWAP2 SWAP1 POP JUMP JUMPDEST PUSH0 PUSH2 0x4249 DUP3 PUSH2 0x2F54 JUMP JUMPDEST SWAP2 POP PUSH2 0x4254 DUP4 PUSH2 0x2F54 JUMP JUMPDEST SWAP3 POP DUP3 DUP3 ADD SWAP1 POP DUP1 DUP3 GT ISZERO PUSH2 0x426C JUMPI PUSH2 0x426B PUSH2 0x3C2C JUMP JUMPDEST JUMPDEST SWAP3 SWAP2 POP POP JUMP JUMPDEST PUSH32 0x536F75726365206D75737420626520746865206F7261636C65206F6620746865 PUSH0 DUP3 ADD MSTORE PUSH32 0x2072657175657374000000000000000000000000000000000000000000000000 PUSH1 0x20 DUP3 ADD MSTORE POP JUMP JUMPDEST PUSH0 PUSH2 0x42CC PUSH1 0x28 DUP4 PUSH2 0x3A91 JUMP JUMPDEST SWAP2 POP PUSH2 0x42D7 DUP3 PUSH2 0x4272 JUMP JUMPDEST PUSH1 0x40 DUP3 ADD SWAP1 POP SWAP2 SWAP1 POP JUMP JUMPDEST PUSH0 PUSH1 0x20 DUP3 ADD SWAP1 POP DUP2 DUP2 SUB PUSH0 DUP4 ADD MSTORE PUSH2 0x42F9 DUP2 PUSH2 0x42C0 JUMP JUMPDEST SWAP1 POP SWAP2 SWAP1 POP JUMP JUMPDEST PUSH32 0x566572696669636174696F6E206661696C656400000000000000000000000000 PUSH0 DUP3 ADD MSTORE POP JUMP JUMPDEST PUSH0 PUSH2 0x4334 PUSH1 0x13 DUP4 PUSH2 0x3A91 JUMP JUMPDEST SWAP2 POP PUSH2 0x433F DUP3 PUSH2 0x4300 JUMP JUMPDEST PUSH1 0x20 DUP3 ADD SWAP1 POP SWAP2 SWAP1 POP JUMP JUMPDEST PUSH0 PUSH1 0x20 DUP3 ADD SWAP1 POP DUP2 DUP2 SUB PUSH0 DUP4 ADD MSTORE PUSH2 0x4361 DUP2 PUSH2 0x4328 JUMP JUMPDEST SWAP1 POP SWAP2 SWAP1 POP JUMP JUMPDEST PUSH32 0x444C543A20617070726F76652066726F6D20746865207A65726F206164647265 PUSH0 DUP3 ADD MSTORE PUSH32 0x7373000000000000000000000000000000000000000000000000000000000000 PUSH1 0x20 DUP3 ADD MSTORE POP JUMP JUMPDEST PUSH0 PUSH2 0x43C2 PUSH1 0x22 DUP4 PUSH2 0x3A91 JUMP JUMPDEST SWAP2 POP PUSH2 0x43CD DUP3 PUSH2 0x4368 JUMP JUMPDEST PUSH1 0x40 DUP3 ADD SWAP1 POP SWAP2 SWAP1 POP JUMP JUMPDEST PUSH0 PUSH1 0x20 DUP3 ADD SWAP1 POP DUP2 DUP2 SUB PUSH0 DUP4 ADD MSTORE PUSH2 0x43EF DUP2 PUSH2 0x43B6 JUMP JUMPDEST SWAP1 POP SWAP2 SWAP1 POP JUMP JUMPDEST PUSH32 0x444C543A20617070726F766520746F20746865207A65726F2061646472657373 PUSH0 DUP3 ADD MSTORE POP JUMP JUMPDEST PUSH0 PUSH2 0x442A PUSH1 0x20 DUP4 PUSH2 0x3A91 JUMP JUMPDEST SWAP2 POP PUSH2 0x4435 DUP3 PUSH2 0x43F6 JUMP JUMPDEST PUSH1 0x20 DUP3 ADD SWAP1 POP SWAP2 SWAP1 POP JUMP JUMPDEST PUSH0 PUSH1 0x20 DUP3 ADD SWAP1 POP DUP2 DUP2 SUB PUSH0 DUP4 ADD MSTORE PUSH2 0x4457 DUP2 PUSH2 0x441E JUMP JUMPDEST SWAP1 POP SWAP2 SWAP1 POP JUMP JUMPDEST PUSH0 PUSH1 0x60 DUP3 ADD SWAP1 POP PUSH2 0x4471 PUSH0 DUP4 ADD DUP7 PUSH2 0x305C JUMP JUMPDEST PUSH2 0x447E PUSH1 0x20 DUP4 ADD DUP6 PUSH2 0x305C JUMP JUMPDEST PUSH2 0x448B PUSH1 0x40 DUP4 ADD DUP5 PUSH2 0x305C JUMP JUMPDEST SWAP5 SWAP4 POP POP POP POP JUMP JUMPDEST PUSH32 0x444C543A207472616E736665722066726F6D20746865207A65726F2061646472 PUSH0 DUP3 ADD MSTORE PUSH32 0x6573730000000000000000000000000000000000000000000000000000000000 PUSH1 0x20 DUP3 ADD MSTORE POP JUMP JUMPDEST PUSH0 PUSH2 0x44ED PUSH1 0x23 DUP4 PUSH2 0x3A91 JUMP JUMPDEST SWAP2 POP PUSH2 0x44F8 DUP3 PUSH2 0x4493 JUMP JUMPDEST PUSH1 0x40 DUP3 ADD SWAP1 POP SWAP2 SWAP1 POP JUMP JUMPDEST PUSH0 PUSH1 0x20 DUP3 ADD SWAP1 POP DUP2 DUP2 SUB PUSH0 DUP4 ADD MSTORE PUSH2 0x451A DUP2 PUSH2 0x44E1 JUMP JUMPDEST SWAP1 POP SWAP2 SWAP1 POP JUMP JUMPDEST PUSH32 0x444C543A207472616E7366657220746F20746865207A65726F20616464726573 PUSH0 DUP3 ADD MSTORE PUSH32 0x7300000000000000000000000000000000000000000000000000000000000000 PUSH1 0x20 DUP3 ADD MSTORE POP JUMP JUMPDEST PUSH0 PUSH2 0x457B PUSH1 0x21 DUP4 PUSH2 0x3A91 JUMP JUMPDEST SWAP2 POP PUSH2 0x4586 DUP3 PUSH2 0x4521 JUMP JUMPDEST PUSH1 0x40 DUP3 ADD SWAP1 POP SWAP2 SWAP1 POP JUMP JUMPDEST PUSH0 PUSH1 0x20 DUP3 ADD SWAP1 POP DUP2 DUP2 SUB PUSH0 DUP4 ADD MSTORE PUSH2 0x45A8 DUP2 PUSH2 0x456F JUMP JUMPDEST SWAP1 POP SWAP2 SWAP1 POP JUMP JUMPDEST PUSH32 0x444C543A20696E73756666696369656E742062616C616E636520666F72207472 PUSH0 DUP3 ADD MSTORE PUSH32 0x616E736665720000000000000000000000000000000000000000000000000000 PUSH1 0x20 DUP3 ADD MSTORE POP JUMP JUMPDEST PUSH0 PUSH2 0x4609 PUSH1 0x26 DUP4 PUSH2 0x3A91 JUMP JUMPDEST SWAP2 POP PUSH2 0x4614 DUP3 PUSH2 0x45AF JUMP JUMPDEST PUSH1 0x40 DUP3 ADD SWAP1 POP SWAP2 SWAP1 POP JUMP JUMPDEST PUSH0 PUSH1 0x20 DUP3 ADD SWAP1 POP DUP2 DUP2 SUB PUSH0 DUP4 ADD MSTORE PUSH2 0x4636 DUP2 PUSH2 0x45FD JUMP JUMPDEST SWAP1 POP SWAP2 SWAP1 POP JUMP JUMPDEST PUSH0 PUSH1 0x40 DUP3 ADD SWAP1 POP PUSH2 0x4650 PUSH0 DUP4 ADD DUP6 PUSH2 0x305C JUMP JUMPDEST PUSH2 0x465D PUSH1 0x20 DUP4 ADD DUP5 PUSH2 0x305C JUMP JUMPDEST SWAP4 SWAP3 POP POP POP JUMP JUMPDEST PUSH32 0x444C543A206D61696E4964732C2073756249647320616E6420616D6F756E7473 PUSH0 DUP3 ADD MSTORE PUSH32 0x206C656E677468206D69736D6174636800000000000000000000000000000000 PUSH1 0x20 DUP3 ADD MSTORE POP JUMP JUMPDEST PUSH0 PUSH2 0x46BE PUSH1 0x30 DUP4 PUSH2 0x3A91 JUMP JUMPDEST SWAP2 POP PUSH2 0x46C9 DUP3 PUSH2 0x4664 JUMP JUMPDEST PUSH1 0x40 DUP3 ADD SWAP1 POP SWAP2 SWAP1 POP JUMP JUMPDEST PUSH0 PUSH1 0x20 DUP3 ADD SWAP1 POP DUP2 DUP2 SUB PUSH0 DUP4 ADD MSTORE PUSH2 0x46EB DUP2 PUSH2 0x46B2 JUMP JUMPDEST SWAP1 POP SWAP2 SWAP1 POP JUMP JUMPDEST PUSH0 PUSH1 0x60 DUP3 ADD SWAP1 POP DUP2 DUP2 SUB PUSH0 DUP4 ADD MSTORE PUSH2 0x470A DUP2 DUP7 PUSH2 0x358F JUMP JUMPDEST SWAP1 POP DUP2 DUP2 SUB PUSH1 0x20 DUP4 ADD MSTORE PUSH2 0x471E DUP2 DUP6 PUSH2 0x358F JUMP JUMPDEST SWAP1 POP DUP2 DUP2 SUB PUSH1 0x40 DUP4 ADD MSTORE PUSH2 0x4732 DUP2 DUP5 PUSH2 0x358F JUMP JUMPDEST SWAP1 POP SWAP5 SWAP4 POP POP POP POP JUMP JUMPDEST PUSH32 0x444C543A207472616E7366657220746F206E6F6E20444C545265636569766572 PUSH0 DUP3 ADD MSTORE PUSH32 0x20696D706C656D656E7465720000000000000000000000000000000000000000 PUSH1 0x20 DUP3 ADD MSTORE POP JUMP JUMPDEST PUSH0 PUSH2 0x4796 PUSH1 0x2C DUP4 PUSH2 0x3A91 JUMP JUMPDEST SWAP2 POP PUSH2 0x47A1 DUP3 PUSH2 0x473C JUMP JUMPDEST PUSH1 0x40 DUP3 ADD SWAP1 POP SWAP2 SWAP1 POP JUMP JUMPDEST PUSH0 PUSH1 0x20 DUP3 ADD SWAP1 POP DUP2 DUP2 SUB PUSH0 DUP4 ADD MSTORE PUSH2 0x47C3 DUP2 PUSH2 0x478A JUMP JUMPDEST SWAP1 POP SWAP2 SWAP1 POP JUMP JUMPDEST PUSH2 0x47D3 DUP2 PUSH2 0x384B JUMP JUMPDEST DUP3 MSTORE POP POP JUMP JUMPDEST PUSH0 PUSH1 0x80 DUP3 ADD SWAP1 POP PUSH2 0x47EC PUSH0 DUP4 ADD DUP8 PUSH2 0x3101 JUMP JUMPDEST PUSH2 0x47F9 PUSH1 0x20 DUP4 ADD DUP7 PUSH2 0x47CA JUMP JUMPDEST PUSH2 0x4806 PUSH1 0x40 DUP4 ADD DUP6 PUSH2 0x3101 JUMP JUMPDEST PUSH2 0x4813 PUSH1 0x60 DUP4 ADD DUP5 PUSH2 0x3101 JUMP JUMPDEST SWAP6 SWAP5 POP POP POP POP POP JUMP JUMPDEST PUSH32 0x444C543A20617070726F766520746F2063616C6C657200000000000000000000 PUSH0 DUP3 ADD MSTORE POP JUMP JUMPDEST PUSH0 PUSH2 0x4850 PUSH1 0x16 DUP4 PUSH2 0x3A91 JUMP JUMPDEST SWAP2 POP PUSH2 0x485B DUP3 PUSH2 0x481C JUMP JUMPDEST PUSH1 0x20 DUP3 ADD SWAP1 POP SWAP2 SWAP1 POP JUMP JUMPDEST PUSH0 PUSH1 0x20 DUP3 ADD SWAP1 POP DUP2 DUP2 SUB PUSH0 DUP4 ADD MSTORE PUSH2 0x487D DUP2 PUSH2 0x4844 JUMP JUMPDEST SWAP1 POP SWAP2 SWAP1 POP JUMP JUMPDEST PUSH32 0x4F6E6C792063616C6C61626C65206279206F776E657200000000000000000000 PUSH0 DUP3 ADD MSTORE POP JUMP JUMPDEST PUSH0 PUSH2 0x48B8 PUSH1 0x16 DUP4 PUSH2 0x3A91 JUMP JUMPDEST SWAP2 POP PUSH2 0x48C3 DUP3 PUSH2 0x4884 JUMP JUMPDEST PUSH1 0x20 DUP3 ADD SWAP1 POP SWAP2 SWAP1 POP JUMP JUMPDEST PUSH0 PUSH1 0x20 DUP3 ADD SWAP1 POP DUP2 DUP2 SUB PUSH0 DUP4 ADD MSTORE PUSH2 0x48E5 DUP2 PUSH2 0x48AC JUMP JUMPDEST SWAP1 POP SWAP2 SWAP1 POP JUMP JUMPDEST PUSH32 0x43616E6E6F74207472616E7366657220746F2073656C66000000000000000000 PUSH0 DUP3 ADD MSTORE POP JUMP JUMPDEST PUSH0 PUSH2 0x4920 PUSH1 0x17 DUP4 PUSH2 0x3A91 JUMP JUMPDEST SWAP2 POP PUSH2 0x492B DUP3 PUSH2 0x48EC JUMP JUMPDEST PUSH1 0x20 DUP3 ADD SWAP1 POP SWAP2 SWAP1 POP JUMP JUMPDEST PUSH0 PUSH1 0x20 DUP3 ADD SWAP1 POP DUP2 DUP2 SUB PUSH0 DUP4 ADD MSTORE PUSH2 0x494D DUP2 PUSH2 0x4914 JUMP JUMPDEST SWAP1 POP SWAP2 SWAP1 POP JUMP JUMPDEST PUSH32 0x444C543A20696E73756666696369656E7420616C6C6F77616E63650000000000 PUSH0 DUP3 ADD MSTORE POP JUMP JUMPDEST PUSH0 PUSH2 0x4988 PUSH1 0x1B DUP4 PUSH2 0x3A91 JUMP JUMPDEST SWAP2 POP PUSH2 0x4993 DUP3 PUSH2 0x4954 JUMP JUMPDEST PUSH1 0x20 DUP3 ADD SWAP1 POP SWAP2 SWAP1 POP JUMP JUMPDEST PUSH0 PUSH1 0x20 DUP3 ADD SWAP1 POP DUP2 DUP2 SUB PUSH0 DUP4 ADD MSTORE PUSH2 0x49B5 DUP2 PUSH2 0x497C JUMP JUMPDEST SWAP1 POP SWAP2 SWAP1 POP JUMP JUMPDEST PUSH0 DUP2 MLOAD SWAP1 POP SWAP2 SWAP1 POP JUMP JUMPDEST PUSH0 DUP3 DUP3 MSTORE PUSH1 0x20 DUP3 ADD SWAP1 POP SWAP3 SWAP2 POP POP JUMP JUMPDEST PUSH0 JUMPDEST DUP4 DUP2 LT ISZERO PUSH2 0x49F3 JUMPI DUP1 DUP3 ADD MLOAD DUP2 DUP5 ADD MSTORE PUSH1 0x20 DUP2 ADD SWAP1 POP PUSH2 0x49D8 JUMP JUMPDEST PUSH0 DUP5 DUP5 ADD MSTORE POP POP POP POP JUMP JUMPDEST PUSH0 PUSH2 0x4A08 DUP3 PUSH2 0x49BC JUMP JUMPDEST PUSH2 0x4A12 DUP2 DUP6 PUSH2 0x49C6 JUMP JUMPDEST SWAP4 POP PUSH2 0x4A22 DUP2 DUP6 PUSH1 0x20 DUP7 ADD PUSH2 0x49D6 JUMP JUMPDEST PUSH2 0x4A2B DUP2 PUSH2 0x3195 JUMP JUMPDEST DUP5 ADD SWAP2 POP POP SWAP3 SWAP2 POP POP JUMP JUMPDEST PUSH0 PUSH1 0xC0 DUP3 ADD SWAP1 POP PUSH2 0x4A49 PUSH0 DUP4 ADD DUP10 PUSH2 0x37E5 JUMP JUMPDEST PUSH2 0x4A56 PUSH1 0x20 DUP4 ADD DUP9 PUSH2 0x37E5 JUMP JUMPDEST DUP2 DUP2 SUB PUSH1 0x40 DUP4 ADD MSTORE PUSH2 0x4A68 DUP2 DUP8 PUSH2 0x358F JUMP JUMPDEST SWAP1 POP DUP2 DUP2 SUB PUSH1 0x60 DUP4 ADD MSTORE PUSH2 0x4A7C DUP2 DUP7 PUSH2 0x358F JUMP JUMPDEST SWAP1 POP DUP2 DUP2 SUB PUSH1 0x80 DUP4 ADD MSTORE PUSH2 0x4A90 DUP2 DUP6 PUSH2 0x358F JUMP JUMPDEST SWAP1 POP DUP2 DUP2 SUB PUSH1 0xA0 DUP4 ADD MSTORE PUSH2 0x4AA4 DUP2 DUP5 PUSH2 0x49FE JUMP JUMPDEST SWAP1 POP SWAP8 SWAP7 POP POP POP POP POP POP POP JUMP JUMPDEST PUSH0 PUSH32 0xFFFFFFFF00000000000000000000000000000000000000000000000000000000 DUP3 AND SWAP1 POP SWAP2 SWAP1 POP JUMP JUMPDEST PUSH2 0x4AE5 DUP2 PUSH2 0x4AB1 JUMP JUMPDEST DUP2 EQ PUSH2 0x4AEF JUMPI PUSH0 DUP1 REVERT JUMPDEST POP JUMP JUMPDEST PUSH0 DUP2 MLOAD SWAP1 POP PUSH2 0x4B00 DUP2 PUSH2 0x4ADC JUMP JUMPDEST SWAP3 SWAP2 POP POP JUMP JUMPDEST PUSH0 PUSH1 0x20 DUP3 DUP5 SUB SLT ISZERO PUSH2 0x4B1B JUMPI PUSH2 0x4B1A PUSH2 0x2EF2 JUMP JUMPDEST JUMPDEST PUSH0 PUSH2 0x4B28 DUP5 DUP3 DUP6 ADD PUSH2 0x4AF2 JUMP JUMPDEST SWAP2 POP POP SWAP3 SWAP2 POP POP JUMP JUMPDEST PUSH0 PUSH2 0x4B3B DUP3 PUSH2 0x2F54 JUMP JUMPDEST SWAP2 POP PUSH0 DUP3 SUB PUSH2 0x4B4D JUMPI PUSH2 0x4B4C PUSH2 0x3C2C JUMP JUMPDEST JUMPDEST PUSH1 0x1 DUP3 SUB SWAP1 POP SWAP2 SWAP1 POP JUMP JUMPDEST PUSH0 PUSH2 0x4B62 DUP3 PUSH2 0x2F54 JUMP JUMPDEST SWAP2 POP PUSH2 0x4B6D DUP4 PUSH2 0x2F54 JUMP JUMPDEST SWAP3 POP DUP3 DUP3 SUB SWAP1 POP DUP2 DUP2 GT ISZERO PUSH2 0x4B85 JUMPI PUSH2 0x4B84 PUSH2 0x3C2C JUMP JUMPDEST JUMPDEST SWAP3 SWAP2 POP POP JUMP JUMPDEST PUSH32 0x4E487B7100000000000000000000000000000000000000000000000000000000 PUSH0 MSTORE PUSH1 0x31 PUSH1 0x4 MSTORE PUSH1 0x24 PUSH0 REVERT JUMPDEST PUSH0 PUSH1 0xC0 DUP3 ADD SWAP1 POP PUSH2 0x4BCB PUSH0 DUP4 ADD DUP10 PUSH2 0x37E5 JUMP JUMPDEST PUSH2 0x4BD8 PUSH1 0x20 DUP4 ADD DUP9 PUSH2 0x37E5 JUMP JUMPDEST PUSH2 0x4BE5 PUSH1 0x40 DUP4 ADD DUP8 PUSH2 0x305C JUMP JUMPDEST PUSH2 0x4BF2 PUSH1 0x60 DUP4 ADD DUP7 PUSH2 0x305C JUMP JUMPDEST PUSH2 0x4BFF PUSH1 0x80 DUP4 ADD DUP6 PUSH2 0x305C JUMP JUMPDEST DUP2 DUP2 SUB PUSH1 0xA0 DUP4 ADD MSTORE PUSH2 0x4C11 DUP2 DUP5 PUSH2 0x49FE JUMP JUMPDEST SWAP1 POP SWAP8 SWAP7 POP POP POP POP POP POP POP JUMP JUMPDEST PUSH32 0x444C543A206275726E2066726F6D20746865207A65726F206164647265737300 PUSH0 DUP3 ADD MSTORE POP JUMP JUMPDEST PUSH0 PUSH2 0x4C52 PUSH1 0x1F DUP4 PUSH2 0x3A91 JUMP JUMPDEST SWAP2 POP PUSH2 0x4C5D DUP3 PUSH2 0x4C1E JUMP JUMPDEST PUSH1 0x20 DUP3 ADD SWAP1 POP SWAP2 SWAP1 POP JUMP JUMPDEST PUSH0 PUSH1 0x20 DUP3 ADD SWAP1 POP DUP2 DUP2 SUB PUSH0 DUP4 ADD MSTORE PUSH2 0x4C7F DUP2 PUSH2 0x4C46 JUMP JUMPDEST SWAP1 POP SWAP2 SWAP1 POP JUMP JUMPDEST PUSH32 0x444C543A206275726E207A65726F20616D6F756E740000000000000000000000 PUSH0 DUP3 ADD MSTORE POP JUMP JUMPDEST PUSH0 PUSH2 0x4CBA PUSH1 0x15 DUP4 PUSH2 0x3A91 JUMP JUMPDEST SWAP2 POP PUSH2 0x4CC5 DUP3 PUSH2 0x4C86 JUMP JUMPDEST PUSH1 0x20 DUP3 ADD SWAP1 POP SWAP2 SWAP1 POP JUMP JUMPDEST PUSH0 PUSH1 0x20 DUP3 ADD SWAP1 POP DUP2 DUP2 SUB PUSH0 DUP4 ADD MSTORE PUSH2 0x4CE7 DUP2 PUSH2 0x4CAE JUMP JUMPDEST SWAP1 POP SWAP2 SWAP1 POP JUMP JUMPDEST PUSH32 0x444C543A20696E73756666696369656E742062616C616E636500000000000000 PUSH0 DUP3 ADD MSTORE POP JUMP JUMPDEST PUSH0 PUSH2 0x4D22 PUSH1 0x19 DUP4 PUSH2 0x3A91 JUMP JUMPDEST SWAP2 POP PUSH2 0x4D2D DUP3 PUSH2 0x4CEE JUMP JUMPDEST PUSH1 0x20 DUP3 ADD SWAP1 POP SWAP2 SWAP1 POP JUMP JUMPDEST PUSH0 PUSH1 0x20 DUP3 ADD SWAP1 POP DUP2 DUP2 SUB PUSH0 DUP4 ADD MSTORE PUSH2 0x4D4F DUP2 PUSH2 0x4D16 JUMP JUMPDEST SWAP1 POP SWAP2 SWAP1 POP JUMP JUMPDEST PUSH32 0x444C543A206D696E7420746F20746865207A65726F2061646472657373000000 PUSH0 DUP3 ADD MSTORE POP JUMP JUMPDEST PUSH0 PUSH2 0x4D8A PUSH1 0x1D DUP4 PUSH2 0x3A91 JUMP JUMPDEST SWAP2 POP PUSH2 0x4D95 DUP3 PUSH2 0x4D56 JUMP JUMPDEST PUSH1 0x20 DUP3 ADD SWAP1 POP SWAP2 SWAP1 POP JUMP JUMPDEST PUSH0 PUSH1 0x20 DUP3 ADD SWAP1 POP DUP2 DUP2 SUB PUSH0 DUP4 ADD MSTORE PUSH2 0x4DB7 DUP2 PUSH2 0x4D7E JUMP JUMPDEST SWAP1 POP SWAP2 SWAP1 POP JUMP JUMPDEST PUSH32 0x444C543A206D696E74207A65726F20616D6F756E740000000000000000000000 PUSH0 DUP3 ADD MSTORE POP JUMP JUMPDEST PUSH0 PUSH2 0x4DF2 PUSH1 0x15 DUP4 PUSH2 0x3A91 JUMP JUMPDEST SWAP2 POP PUSH2 0x4DFD DUP3 PUSH2 0x4DBE JUMP JUMPDEST PUSH1 0x20 DUP3 ADD SWAP1 POP SWAP2 SWAP1 POP JUMP JUMPDEST PUSH0 PUSH1 0x20 DUP3 ADD SWAP1 POP DUP2 DUP2 SUB PUSH0 DUP4 ADD MSTORE PUSH2 0x4E1F DUP2 PUSH2 0x4DE6 JUMP JUMPDEST SWAP1 POP SWAP2 SWAP1 POP JUMP INVALID LOG2 PUSH5 0x6970667358 0x22 SLT KECCAK256 PUSH25 0x2F2F156D29D8E11443899412735A6EC6991AA7A1C212F650BD 0x5D SWAP13 PUSH3 0x47F07 PUSH5 0x736F6C6343 STOP ADDMOD EQ STOP CALLER "
		},
		"gasEstimates": {
			"creation": {
				"codeDepositCost": "4012000",
				"executionCost": "infinite",
				"totalCost": "infinite"
			},
			"external": {
				"DOMAIN_SEPARATOR()": "infinite",
				"acceptOwnership()": "54644",
				"admin()": "2596",
				"allow(address,address,uint256,uint256,uint256)": "infinite",
				"allowance(address,address,uint256,uint256)": "infinite",
				"approve(address,uint256,uint256,uint256)": "infinite",
				"balanceOfBatch(address[],uint256[],uint256[])": "infinite",
				"burn(address,uint256,uint256,uint256)": "infinite",
				"fulfill(bytes32,bool)": "28705",
				"getSubIds(uint256)": "infinite",
				"isApprovedForAll(address,address)": "infinite",
				"mint(address,uint256,uint256,uint256)": "infinite",
				"mintPriceInUSDC()": "2493",
				"nonces(address)": "2875",
				"owner()": "2605",
				"permit(address,address,uint256,uint256,uint256,uint256,uint8,bytes32,bytes32)": "infinite",
				"safeBatchTransferFrom(address,address,uint256[],uint256[],uint256[],bytes)": "infinite",
				"safeTransferFrom(address,address,uint256,uint256,uint256)": "infinite",
				"safeTransferFrom(address,address,uint256,uint256,uint256,bytes)": "infinite",
				"setApprovalForAll(address,bool)": "infinite",
				"setMintPriceInUSDC(uint256)": "24730",
				"subBalanceOf(address,uint256,uint256)": "infinite",
				"subIdBalanceOf(address,uint256)": "infinite",
				"totalMainIds()": "2499",
				"totalMainSupply(uint256)": "infinite",
				"totalSubIds(uint256)": "infinite",
				"totalSubSupply(uint256,uint256)": "infinite",
				"transfer(address,address,uint256,uint256,uint256)": "infinite",
				"transferFrom(address,address,uint256,uint256,uint256)": "infinite",
				"transferOwnership(address)": "30717",
				"usdcToken()": "infinite"
			},
			"internal": {
				"_burn(address,uint256,uint256,uint256)": "infinite",
				"_mint(address,uint256,uint256,uint256)": "infinite",
				"char(bytes1)": "infinite",
				"toAsciiString(address)": "infinite",
				"uint2str(uint256)": "infinite"
			}
		},
		"methodIdentifiers": {
			"DOMAIN_SEPARATOR()": "3644e515",
			"acceptOwnership()": "79ba5097",
			"admin()": "f851a440",
			"allow(address,address,uint256,uint256,uint256)": "a7063d99",
			"allowance(address,address,uint256,uint256)": "443b63b9",
			"approve(address,uint256,uint256,uint256)": "4f4df442",
			"balanceOfBatch(address[],uint256[],uint256[])": "62b26417",
			"burn(address,uint256,uint256,uint256)": "de7bf0a2",
			"fulfill(bytes32,bool)": "fd68990a",
			"getSubIds(uint256)": "abf2be4f",
			"isApprovedForAll(address,address)": "e985e9c5",
			"mint(address,uint256,uint256,uint256)": "a647e8ec",
			"mintPriceInUSDC()": "23ae174a",
			"nonces(address)": "7ecebe00",
			"owner()": "8da5cb5b",
			"permit(address,address,uint256,uint256,uint256,uint256,uint8,bytes32,bytes32)": "9ff90db9",
			"safeBatchTransferFrom(address,address,uint256[],uint256[],uint256[],bytes)": "6b98fd1e",
			"safeTransferFrom(address,address,uint256,uint256,uint256)": "01b5e494",
			"safeTransferFrom(address,address,uint256,uint256,uint256,bytes)": "4d47fddb",
			"setApprovalForAll(address,bool)": "a22cb465",
			"setMintPriceInUSDC(uint256)": "141b883e",
			"subBalanceOf(address,uint256,uint256)": "8536208d",
			"subIdBalanceOf(address,uint256)": "b190c5b8",
			"totalMainIds()": "65fd95ba",
			"totalMainSupply(uint256)": "10e5e579",
			"totalSubIds(uint256)": "d2b01e80",
			"totalSubSupply(uint256,uint256)": "90386d71",
			"transfer(address,address,uint256,uint256,uint256)": "597645a8",
			"transferFrom(address,address,uint256,uint256,uint256)": "4aed53c2",
			"transferOwnership(address)": "f2fde38b",
			"usdcToken()": "11eac855"
		}
	},
	"abi": [
		{
			"inputs": [
				{
					"internalType": "string",
					"name": "name",
					"type": "string"
				},
				{
					"internalType": "string",
					"name": "symbol",
					"type": "string"
				},
				{
					"internalType": "string",
					"name": "version",
					"type": "string"
				},
				{
					"internalType": "address",
					"name": "_usdcTokenAddress",
					"type": "address"
				},
				{
					"internalType": "uint256",
					"name": "_mintPriceInUSDC",
					"type": "uint256"
				},
				{
					"internalType": "address",
					"name": "_oracle",
					"type": "address"
				},
				{
					"internalType": "bytes32",
					"name": "_jobId",
					"type": "bytes32"
				},
				{
					"internalType": "uint256",
					"name": "_fee",
					"type": "uint256"
				},
				{
					"internalType": "address",
					"name": "_link",
					"type": "address"
				}
			],
			"stateMutability": "nonpayable",
			"type": "constructor"
		},
		{
			"inputs": [],
			"name": "ExpiredSignature",
			"type": "error"
		},
		{
			"inputs": [],
			"name": "InvalidSignature",
			"type": "error"
		},
		{
			"inputs": [
				{
					"internalType": "bytes32",
					"name": "s",
					"type": "bytes32"
				}
			],
			"name": "InvalidSignatureS",
			"type": "error"
		},
		{
			"inputs": [],
			"name": "InvalidSigner",
			"type": "error"
		},
		{
			"anonymous": false,
			"inputs": [
				{
					"indexed": true,
					"internalType": "address",
					"name": "owner",
					"type": "address"
				},
				{
					"indexed": true,
					"internalType": "address",
					"name": "spender",
					"type": "address"
				},
				{
					"indexed": false,
					"internalType": "uint256",
					"name": "mainId",
					"type": "uint256"
				},
				{
					"indexed": false,
					"internalType": "uint256",
					"name": "subId",
					"type": "uint256"
				},
				{
					"indexed": false,
					"internalType": "uint256",
					"name": "amount",
					"type": "uint256"
				}
			],
			"name": "Approval",
			"type": "event"
		},
		{
			"anonymous": false,
			"inputs": [
				{
					"indexed": true,
					"internalType": "address",
					"name": "spender",
					"type": "address"
				},
				{
					"indexed": true,
					"internalType": "address",
					"name": "operator",
					"type": "address"
				},
				{
					"indexed": false,
					"internalType": "bool",
					"name": "approved",
					"type": "bool"
				}
			],
			"name": "ApprovalForAll",
			"type": "event"
		},
		{
			"anonymous": false,
			"inputs": [
				{
					"indexed": true,
					"internalType": "bytes32",
					"name": "id",
					"type": "bytes32"
				}
			],
			"name": "ChainlinkCancelled",
			"type": "event"
		},
		{
			"anonymous": false,
			"inputs": [
				{
					"indexed": true,
					"internalType": "bytes32",
					"name": "id",
					"type": "bytes32"
				}
			],
			"name": "ChainlinkFulfilled",
			"type": "event"
		},
		{
			"anonymous": false,
			"inputs": [
				{
					"indexed": true,
					"internalType": "bytes32",
					"name": "id",
					"type": "bytes32"
				}
			],
			"name": "ChainlinkRequested",
			"type": "event"
		},
		{
			"anonymous": false,
			"inputs": [
				{
					"indexed": true,
					"internalType": "address",
					"name": "from",
					"type": "address"
				},
				{
					"indexed": true,
					"internalType": "address",
					"name": "to",
					"type": "address"
				}
			],
			"name": "OwnershipTransferRequested",
			"type": "event"
		},
		{
			"anonymous": false,
			"inputs": [
				{
					"indexed": true,
					"internalType": "address",
					"name": "from",
					"type": "address"
				},
				{
					"indexed": true,
					"internalType": "address",
					"name": "to",
					"type": "address"
				}
			],
			"name": "OwnershipTransferred",
			"type": "event"
		},
		{
			"anonymous": false,
			"inputs": [
				{
					"indexed": true,
					"internalType": "address",
					"name": "sender",
					"type": "address"
				},
				{
					"indexed": true,
					"internalType": "address",
					"name": "recipient",
					"type": "address"
				},
				{
					"indexed": true,
					"internalType": "uint256",
					"name": "mainId",
					"type": "uint256"
				},
				{
					"indexed": false,
					"internalType": "uint256",
					"name": "subId",
					"type": "uint256"
				},
				{
					"indexed": false,
					"internalType": "uint256",
					"name": "amount",
					"type": "uint256"
				}
			],
			"name": "Transfer",
			"type": "event"
		},
		{
			"anonymous": false,
			"inputs": [
				{
					"indexed": true,
					"internalType": "address",
					"name": "spender",
					"type": "address"
				},
				{
					"indexed": true,
					"internalType": "address",
					"name": "sender",
					"type": "address"
				},
				{
					"indexed": true,
					"internalType": "address",
					"name": "recipient",
					"type": "address"
				},
				{
					"indexed": false,
					"internalType": "uint256[]",
					"name": "mainIds",
					"type": "uint256[]"
				},
				{
					"indexed": false,
					"internalType": "uint256[]",
					"name": "subIds",
					"type": "uint256[]"
				},
				{
					"indexed": false,
					"internalType": "uint256[]",
					"name": "amounts",
					"type": "uint256[]"
				}
			],
			"name": "TransferBatch",
			"type": "event"
		},
		{
			"anonymous": false,
			"inputs": [
				{
					"indexed": false,
					"internalType": "string",
					"name": "oldValue",
					"type": "string"
				},
				{
					"indexed": false,
					"internalType": "string",
					"name": "newValue",
					"type": "string"
				},
				{
					"indexed": true,
					"internalType": "uint256",
					"name": "mainId",
					"type": "uint256"
				}
			],
			"name": "URI",
			"type": "event"
		},
		{
			"inputs": [],
			"name": "DOMAIN_SEPARATOR",
			"outputs": [
				{
					"internalType": "bytes32",
					"name": "",
					"type": "bytes32"
				}
			],
			"stateMutability": "view",
			"type": "function"
		},
		{
			"inputs": [],
			"name": "acceptOwnership",
			"outputs": [],
			"stateMutability": "nonpayable",
			"type": "function"
		},
		{
			"inputs": [],
			"name": "admin",
			"outputs": [
				{
					"internalType": "address",
					"name": "",
					"type": "address"
				}
			],
			"stateMutability": "view",
			"type": "function"
		},
		{
			"inputs": [
				{
					"internalType": "address",
					"name": "sender",
					"type": "address"
				},
				{
					"internalType": "address",
					"name": "recipient",
					"type": "address"
				},
				{
					"internalType": "uint256",
					"name": "mainId",
					"type": "uint256"
				},
				{
					"internalType": "uint256",
					"name": "subId",
					"type": "uint256"
				},
				{
					"internalType": "uint256",
					"name": "amount",
					"type": "uint256"
				}
			],
			"name": "allow",
			"outputs": [],
			"stateMutability": "nonpayable",
			"type": "function"
		},
		{
			"inputs": [
				{
					"internalType": "address",
					"name": "owner",
					"type": "address"
				},
				{
					"internalType": "address",
					"name": "spender",
					"type": "address"
				},
				{
					"internalType": "uint256",
					"name": "mainId",
					"type": "uint256"
				},
				{
					"internalType": "uint256",
					"name": "subId",
					"type": "uint256"
				}
			],
			"name": "allowance",
			"outputs": [
				{
					"internalType": "uint256",
					"name": "",
					"type": "uint256"
				}
			],
			"stateMutability": "view",
			"type": "function"
		},
		{
			"inputs": [
				{
					"internalType": "address",
					"name": "spender",
					"type": "address"
				},
				{
					"internalType": "uint256",
					"name": "mainId",
					"type": "uint256"
				},
				{
					"internalType": "uint256",
					"name": "subId",
					"type": "uint256"
				},
				{
					"internalType": "uint256",
					"name": "amount",
					"type": "uint256"
				}
			],
			"name": "approve",
			"outputs": [
				{
					"internalType": "bool",
					"name": "",
					"type": "bool"
				}
			],
			"stateMutability": "nonpayable",
			"type": "function"
		},
		{
			"inputs": [
				{
					"internalType": "address[]",
					"name": "accounts",
					"type": "address[]"
				},
				{
					"internalType": "uint256[]",
					"name": "mainIds",
					"type": "uint256[]"
				},
				{
					"internalType": "uint256[]",
					"name": "subIds",
					"type": "uint256[]"
				}
			],
			"name": "balanceOfBatch",
			"outputs": [
				{
					"internalType": "uint256[]",
					"name": "",
					"type": "uint256[]"
				}
			],
			"stateMutability": "view",
			"type": "function"
		},
		{
			"inputs": [
				{
					"internalType": "address",
					"name": "account",
					"type": "address"
				},
				{
					"internalType": "uint256",
					"name": "mainId",
					"type": "uint256"
				},
				{
					"internalType": "uint256",
					"name": "subId",
					"type": "uint256"
				},
				{
					"internalType": "uint256",
					"name": "amount",
					"type": "uint256"
				}
			],
			"name": "burn",
			"outputs": [],
			"stateMutability": "nonpayable",
			"type": "function"
		},
		{
			"inputs": [
				{
					"internalType": "bytes32",
					"name": "_requestId",
					"type": "bytes32"
				},
				{
					"internalType": "bool",
					"name": "_verified",
					"type": "bool"
				}
			],
			"name": "fulfill",
			"outputs": [],
			"stateMutability": "nonpayable",
			"type": "function"
		},
		{
			"inputs": [
				{
					"internalType": "uint256",
					"name": "mainId",
					"type": "uint256"
				}
			],
			"name": "getSubIds",
			"outputs": [
				{
					"internalType": "uint256[]",
					"name": "",
					"type": "uint256[]"
				}
			],
			"stateMutability": "view",
			"type": "function"
		},
		{
			"inputs": [
				{
					"internalType": "address",
					"name": "owner",
					"type": "address"
				},
				{
					"internalType": "address",
					"name": "operator",
					"type": "address"
				}
			],
			"name": "isApprovedForAll",
			"outputs": [
				{
					"internalType": "bool",
					"name": "",
					"type": "bool"
				}
			],
			"stateMutability": "view",
			"type": "function"
		},
		{
			"inputs": [
				{
					"internalType": "address",
					"name": "account",
					"type": "address"
				},
				{
					"internalType": "uint256",
					"name": "mainId",
					"type": "uint256"
				},
				{
					"internalType": "uint256",
					"name": "subId",
					"type": "uint256"
				},
				{
					"internalType": "uint256",
					"name": "amount",
					"type": "uint256"
				}
			],
			"name": "mint",
			"outputs": [],
			"stateMutability": "nonpayable",
			"type": "function"
		},
		{
			"inputs": [],
			"name": "mintPriceInUSDC",
			"outputs": [
				{
					"internalType": "uint256",
					"name": "",
					"type": "uint256"
				}
			],
			"stateMutability": "view",
			"type": "function"
		},
		{
			"inputs": [
				{
					"internalType": "address",
					"name": "owner",
					"type": "address"
				}
			],
			"name": "nonces",
			"outputs": [
				{
					"internalType": "uint256",
					"name": "",
					"type": "uint256"
				}
			],
			"stateMutability": "view",
			"type": "function"
		},
		{
			"inputs": [],
			"name": "owner",
			"outputs": [
				{
					"internalType": "address",
					"name": "",
					"type": "address"
				}
			],
			"stateMutability": "view",
			"type": "function"
		},
		{
			"inputs": [
				{
					"internalType": "address",
					"name": "owner",
					"type": "address"
				},
				{
					"internalType": "address",
					"name": "spender",
					"type": "address"
				},
				{
					"internalType": "uint256",
					"name": "mainId",
					"type": "uint256"
				},
				{
					"internalType": "uint256",
					"name": "subId",
					"type": "uint256"
				},
				{
					"internalType": "uint256",
					"name": "amount",
					"type": "uint256"
				},
				{
					"internalType": "uint256",
					"name": "deadline",
					"type": "uint256"
				},
				{
					"internalType": "uint8",
					"name": "v",
					"type": "uint8"
				},
				{
					"internalType": "bytes32",
					"name": "r",
					"type": "bytes32"
				},
				{
					"internalType": "bytes32",
					"name": "s",
					"type": "bytes32"
				}
			],
			"name": "permit",
			"outputs": [],
			"stateMutability": "nonpayable",
			"type": "function"
		},
		{
			"inputs": [
				{
					"internalType": "address",
					"name": "sender",
					"type": "address"
				},
				{
					"internalType": "address",
					"name": "recipient",
					"type": "address"
				},
				{
					"internalType": "uint256[]",
					"name": "mainIds",
					"type": "uint256[]"
				},
				{
					"internalType": "uint256[]",
					"name": "subIds",
					"type": "uint256[]"
				},
				{
					"internalType": "uint256[]",
					"name": "amounts",
					"type": "uint256[]"
				},
				{
					"internalType": "bytes",
					"name": "data",
					"type": "bytes"
				}
			],
			"name": "safeBatchTransferFrom",
			"outputs": [
				{
					"internalType": "bool",
					"name": "",
					"type": "bool"
				}
			],
			"stateMutability": "nonpayable",
			"type": "function"
		},
		{
			"inputs": [
				{
					"internalType": "address",
					"name": "sender",
					"type": "address"
				},
				{
					"internalType": "address",
					"name": "recipient",
					"type": "address"
				},
				{
					"internalType": "uint256",
					"name": "mainId",
					"type": "uint256"
				},
				{
					"internalType": "uint256",
					"name": "subId",
					"type": "uint256"
				},
				{
					"internalType": "uint256",
					"name": "amount",
					"type": "uint256"
				}
			],
			"name": "safeTransferFrom",
			"outputs": [
				{
					"internalType": "bool",
					"name": "",
					"type": "bool"
				}
			],
			"stateMutability": "nonpayable",
			"type": "function"
		},
		{
			"inputs": [
				{
					"internalType": "address",
					"name": "sender",
					"type": "address"
				},
				{
					"internalType": "address",
					"name": "recipient",
					"type": "address"
				},
				{
					"internalType": "uint256",
					"name": "mainId",
					"type": "uint256"
				},
				{
					"internalType": "uint256",
					"name": "subId",
					"type": "uint256"
				},
				{
					"internalType": "uint256",
					"name": "amount",
					"type": "uint256"
				},
				{
					"internalType": "bytes",
					"name": "dataextensions",
					"type": "bytes"
				}
			],
			"name": "safeTransferFrom",
			"outputs": [
				{
					"internalType": "bool",
					"name": "",
					"type": "bool"
				}
			],
			"stateMutability": "nonpayable",
			"type": "function"
		},
		{
			"inputs": [
				{
					"internalType": "address",
					"name": "operator",
					"type": "address"
				},
				{
					"internalType": "bool",
					"name": "approved",
					"type": "bool"
				}
			],
			"name": "setApprovalForAll",
			"outputs": [],
			"stateMutability": "nonpayable",
			"type": "function"
		},
		{
			"inputs": [
				{
					"internalType": "uint256",
					"name": "_mintPriceInUSDC",
					"type": "uint256"
				}
			],
			"name": "setMintPriceInUSDC",
			"outputs": [],
			"stateMutability": "nonpayable",
			"type": "function"
		},
		{
			"inputs": [
				{
					"internalType": "address",
					"name": "account",
					"type": "address"
				},
				{
					"internalType": "uint256",
					"name": "mainId",
					"type": "uint256"
				},
				{
					"internalType": "uint256",
					"name": "subId",
					"type": "uint256"
				}
			],
			"name": "subBalanceOf",
			"outputs": [
				{
					"internalType": "uint256",
					"name": "",
					"type": "uint256"
				}
			],
			"stateMutability": "view",
			"type": "function"
		},
		{
			"inputs": [
				{
					"internalType": "address",
					"name": "owner",
					"type": "address"
				},
				{
					"internalType": "uint256",
					"name": "mainId",
					"type": "uint256"
				}
			],
			"name": "subIdBalanceOf",
			"outputs": [
				{
					"internalType": "uint256",
					"name": "totalBalance",
					"type": "uint256"
				}
			],
			"stateMutability": "view",
			"type": "function"
		},
		{
			"inputs": [],
			"name": "totalMainIds",
			"outputs": [
				{
					"internalType": "uint256",
					"name": "",
					"type": "uint256"
				}
			],
			"stateMutability": "view",
			"type": "function"
		},
		{
			"inputs": [
				{
					"internalType": "uint256",
					"name": "mainId",
					"type": "uint256"
				}
			],
			"name": "totalMainSupply",
			"outputs": [
				{
					"internalType": "uint256",
					"name": "",
					"type": "uint256"
				}
			],
			"stateMutability": "view",
			"type": "function"
		},
		{
			"inputs": [
				{
					"internalType": "uint256",
					"name": "mainId",
					"type": "uint256"
				}
			],
			"name": "totalSubIds",
			"outputs": [
				{
					"internalType": "uint256",
					"name": "",
					"type": "uint256"
				}
			],
			"stateMutability": "view",
			"type": "function"
		},
		{
			"inputs": [
				{
					"internalType": "uint256",
					"name": "mainId",
					"type": "uint256"
				},
				{
					"internalType": "uint256",
					"name": "subId",
					"type": "uint256"
				}
			],
			"name": "totalSubSupply",
			"outputs": [
				{
					"internalType": "uint256",
					"name": "",
					"type": "uint256"
				}
			],
			"stateMutability": "view",
			"type": "function"
		},
		{
			"inputs": [
				{
					"internalType": "address",
					"name": "sender",
					"type": "address"
				},
				{
					"internalType": "address",
					"name": "recipient",
					"type": "address"
				},
				{
					"internalType": "uint256",
					"name": "mainId",
					"type": "uint256"
				},
				{
					"internalType": "uint256",
					"name": "subId",
					"type": "uint256"
				},
				{
					"internalType": "uint256",
					"name": "amount",
					"type": "uint256"
				}
			],
			"name": "transfer",
			"outputs": [],
			"stateMutability": "nonpayable",
			"type": "function"
		},
		{
			"inputs": [
				{
					"internalType": "address",
					"name": "sender",
					"type": "address"
				},
				{
					"internalType": "address",
					"name": "recipient",
					"type": "address"
				},
				{
					"internalType": "uint256",
					"name": "mainId",
					"type": "uint256"
				},
				{
					"internalType": "uint256",
					"name": "subId",
					"type": "uint256"
				},
				{
					"internalType": "uint256",
					"name": "amount",
					"type": "uint256"
				}
			],
			"name": "transferFrom",
			"outputs": [
				{
					"internalType": "bool",
					"name": "",
					"type": "bool"
				}
			],
			"stateMutability": "nonpayable",
			"type": "function"
		},
		{
			"inputs": [
				{
					"internalType": "address",
					"name": "to",
					"type": "address"
				}
			],
			"name": "transferOwnership",
			"outputs": [],
			"stateMutability": "nonpayable",
			"type": "function"
		},
		{
			"inputs": [],
			"name": "usdcToken",
			"outputs": [
				{
					"internalType": "contract IERC20",
					"name": "",
					"type": "address"
				}
			],
			"stateMutability": "view",
			"type": "function"
		}
	]
}