{
	"data": {
		"bytecode": {
			"linkReferences": {},
			"object": "60806040523480156200001157600080fd5b50604051620035c4380380620035c4833981810160405281019062000037919062000237565b816000908162000048919062000507565b5080600190816200005a919062000507565b5033600260006101000a81548173ffffffffffffffffffffffffffffffffffffffff021916908373ffffffffffffffffffffffffffffffffffffffff1602179055505050620005ee565b6000604051905090565b600080fd5b600080fd5b600080fd5b600080fd5b6000601f19601f8301169050919050565b7f4e487b7100000000000000000000000000000000000000000000000000000000600052604160045260246000fd5b6200010d82620000c2565b810181811067ffffffffffffffff821117156200012f576200012e620000d3565b5b80604052505050565b600062000144620000a4565b905062000152828262000102565b919050565b600067ffffffffffffffff821115620001755762000174620000d3565b5b6200018082620000c2565b9050602081019050919050565b60005b83811015620001ad57808201518184015260208101905062000190565b60008484015250505050565b6000620001d0620001ca8462000157565b62000138565b905082815260208101848484011115620001ef57620001ee620000bd565b5b620001fc8482856200018d565b509392505050565b600082601f8301126200021c576200021b620000b8565b5b81516200022e848260208601620001b9565b91505092915050565b60008060408385031215620002515762000250620000ae565b5b600083015167ffffffffffffffff811115620002725762000271620000b3565b5b620002808582860162000204565b925050602083015167ffffffffffffffff811115620002a457620002a3620000b3565b5b620002b28582860162000204565b9150509250929050565b600081519050919050565b7f4e487b7100000000000000000000000000000000000000000000000000000000600052602260045260246000fd5b600060028204905060018216806200030f57607f821691505b602082108103620003255762000324620002c7565b5b50919050565b60008190508160005260206000209050919050565b60006020601f8301049050919050565b600082821b905092915050565b6000600883026200038f7fffffffffffffffffffffffffffffffffffffffffffffffffffffffffffffffff8262000350565b6200039b868362000350565b95508019841693508086168417925050509392505050565b6000819050919050565b6000819050919050565b6000620003e8620003e2620003dc84620003b3565b620003bd565b620003b3565b9050919050565b6000819050919050565b6200040483620003c7565b6200041c6200041382620003ef565b8484546200035d565b825550505050565b600090565b6200043362000424565b62000440818484620003f9565b505050565b5b8181101562000468576200045c60008262000429565b60018101905062000446565b5050565b601f821115620004b75762000481816200032b565b6200048c8462000340565b810160208510156200049c578190505b620004b4620004ab8562000340565b83018262000445565b50505b505050565b600082821c905092915050565b6000620004dc60001984600802620004bc565b1980831691505092915050565b6000620004f78383620004c9565b9150826002028217905092915050565b6200051282620002bc565b67ffffffffffffffff8111156200052e576200052d620000d3565b5b6200053a8254620002f6565b620005478282856200046c565b600060209050601f8311600181146200057f57600084156200056a578287015190505b620005768582620004e9565b865550620005e6565b601f1984166200058f866200032b565b60005b82811015620005b95784890151825560018201915060208501945060208101905062000592565b86831015620005d95784890151620005d5601f891682620004c9565b8355505b6001600288020188555050505b505050505050565b612fc680620005fe6000396000f3fe608060405234801561001057600080fd5b50600436106100b45760003560e01c806362b264171161007157806362b26417146101c55780636b98fd1e146101f55780636bd2e006146102255780638536208d146102555780638da5cb5b14610285578063e985e9c5146102a3576100b4565b806301b5e494146100b957806311fb3e60146100e9578063443b63b9146101055780634aed53c2146101355780634d47fddb146101655780634f4df44214610195575b600080fd5b6100d360048036038101906100ce91906119fa565b6102d3565b6040516100e09190611a90565b60405180910390f35b61010360048036038101906100fe9190611ad7565b6102ff565b005b61011f600480360381019061011a9190611b17565b61030e565b60405161012c9190611b8d565b60405180910390f35b61014f600480360381019061014a91906119fa565b610326565b60405161015c9190611a90565b60405180910390f35b61017f600480360381019061017a9190611cee565b610342565b60405161018c9190611a90565b60405180910390f35b6101af60048036038101906101aa9190611d97565b610360565b6040516101bc9190611a90565b60405180910390f35b6101df60048036038101906101da9190611eb4565b610411565b6040516101ec9190612026565b60405180910390f35b61020f600480360381019061020a919061209e565b61056f565b60405161021c9190611a90565b60405180910390f35b61023f600480360381019061023a9190612204565b6106e2565b60405161024c9190611a90565b60405180910390f35b61026f600480360381019061026a919061229e565b610869565b60405161027c9190611b8d565b60405180910390f35b61028d6108d6565b60405161029a9190612300565b60405180910390f35b6102bd60048036038101906102b8919061231b565b6108fc565b6040516102ca9190611a90565b60405180910390f35b60006102f2868686868660405180602001604052806000815250610990565b6001905095945050505050565b61030a3383836109c8565b5050565b600061031c85858585610b34565b9050949350505050565b60006103358686868686610bdf565b6001905095945050505050565b6000610352878787878787610990565b600190509695505050505050565b60003373ffffffffffffffffffffffffffffffffffffffff16600260009054906101000a900473ffffffffffffffffffffffffffffffffffffffff1673ffffffffffffffffffffffffffffffffffffffff16146103f2576040517f08c379a00000000000000000000000000000000000000000000000000000000081526004016103e9906123b8565b60405180910390fd5b60003390506104048187878787610c15565b6001915050949350505050565b6060848490508787905014801561042d57508282905087879050145b61046c576040517f08c379a00000000000000000000000000000000000000000000000000000000081526004016104639061244a565b60405180910390fd5b60008787905067ffffffffffffffff81111561048b5761048a611bc3565b5b6040519080825280602002602001820160405280156104b95781602001602082028036833780820191505090505b50905060005b888890508110156105605761052e8989838181106104e0576104df61246a565b5b90506020020160208101906104f59190612499565b8888848181106105085761050761246a565b5b905060200201358787858181106105225761052161246a565b5b90506020020135610869565b8282815181106105415761054061246a565b5b6020026020010181815250508080610558906124f5565b9150506104bf565b50809150509695505050505050565b60008033905061057f8c82610e06565b6105be576040517f08c379a00000000000000000000000000000000000000000000000000000000081526004016105b5906125af565b60405180910390fd5b6106d3818c8c8c80806020026020016040519081016040528093929190818152602001838360200280828437600081840152601f19601f820116905080830192505050505050508b8b80806020026020016040519081016040528093929190818152602001838360200280828437600081840152601f19601f820116905080830192505050505050508a8a80806020026020016040519081016040528093929190818152602001838360200280828437600081840152601f19601f8201169050808301925050505050505089898080601f016020809104026020016040519081016040528093929190818152602001838380828437600081840152601f19601f82011690508083019250505050505050610e50565b509a9950505050505050505050565b60003373ffffffffffffffffffffffffffffffffffffffff16600260009054906101000a900473ffffffffffffffffffffffffffffffffffffffff1673ffffffffffffffffffffffffffffffffffffffff1614610774576040517f08c379a000000000000000000000000000000000000000000000000000000000815260040161076b90612641565b60405180910390fd5b600073ffffffffffffffffffffffffffffffffffffffff168773ffffffffffffffffffffffffffffffffffffffff16036107e3576040517f08c379a00000000000000000000000000000000000000000000000000000000081526004016107da906126ad565b60405180910390fd5b836003600088815260200190815260200160002060008973ffffffffffffffffffffffffffffffffffffffff1673ffffffffffffffffffffffffffffffffffffffff1681526020019081526020016000206000878152602001908152602001600020600082825461085491906126cd565b92505081905550600190509695505050505050565b60006003600084815260200190815260200160002060008573ffffffffffffffffffffffffffffffffffffffff1673ffffffffffffffffffffffffffffffffffffffff16815260200190815260200160002060008381526020019081526020016000205490509392505050565b600260009054906101000a900473ffffffffffffffffffffffffffffffffffffffff1681565b6000600560008473ffffffffffffffffffffffffffffffffffffffff1673ffffffffffffffffffffffffffffffffffffffff16815260200190815260200160002060008373ffffffffffffffffffffffffffffffffffffffff1673ffffffffffffffffffffffffffffffffffffffff16815260200190815260200160002060009054906101000a900460ff16905092915050565b600033905061099f8782610e06565b6109b1576109b087828787876111f5565b5b6109bf8787878787876112cb565b50505050505050565b8173ffffffffffffffffffffffffffffffffffffffff168373ffffffffffffffffffffffffffffffffffffffff1603610a36576040517f08c379a0000000000000000000000000000000000000000000000000000000008152600401610a2d9061274d565b60405180910390fd5b80600560008573ffffffffffffffffffffffffffffffffffffffff1673ffffffffffffffffffffffffffffffffffffffff16815260200190815260200160002060008473ffffffffffffffffffffffffffffffffffffffff1673ffffffffffffffffffffffffffffffffffffffff16815260200190815260200160002060006101000a81548160ff0219169083151502179055508173ffffffffffffffffffffffffffffffffffffffff168373ffffffffffffffffffffffffffffffffffffffff167f17307eab39ab6107e8899845ad3d59bd9653f200f220920489ca2b5937696c3183604051610b279190611a90565b60405180910390a3505050565b6000600660008673ffffffffffffffffffffffffffffffffffffffff1673ffffffffffffffffffffffffffffffffffffffff16815260200190815260200160002060008573ffffffffffffffffffffffffffffffffffffffff1673ffffffffffffffffffffffffffffffffffffffff16815260200190815260200160002060008481526020019081526020016000206000838152602001908152602001600020549050949350505050565b6000339050610bee8682610e06565b610c0057610bff86828686866111f5565b5b610c0d868686868661132e565b505050505050565b600073ffffffffffffffffffffffffffffffffffffffff168573ffffffffffffffffffffffffffffffffffffffff1603610c84576040517f08c379a0000000000000000000000000000000000000000000000000000000008152600401610c7b906127df565b60405180910390fd5b600073ffffffffffffffffffffffffffffffffffffffff168473ffffffffffffffffffffffffffffffffffffffff1603610cf3576040517f08c379a0000000000000000000000000000000000000000000000000000000008152600401610cea906127df565b60405180910390fd5b80600660008773ffffffffffffffffffffffffffffffffffffffff1673ffffffffffffffffffffffffffffffffffffffff16815260200190815260200160002060008673ffffffffffffffffffffffffffffffffffffffff1673ffffffffffffffffffffffffffffffffffffffff16815260200190815260200160002060008581526020019081526020016000206000848152602001908152602001600020819055508373ffffffffffffffffffffffffffffffffffffffff168573ffffffffffffffffffffffffffffffffffffffff167f3a9c85c6b31f7a9d7fe1478f53e1be42e85db97ca30d1789cfef9196dbc472c9858585604051610df7939291906127ff565b60405180910390a35050505050565b60008173ffffffffffffffffffffffffffffffffffffffff168373ffffffffffffffffffffffffffffffffffffffff161480610e485750610e4783836108fc565b5b905092915050565b82518451148015610e62575081518451145b610ea1576040517f08c379a0000000000000000000000000000000000000000000000000000000008152600401610e98906128a8565b60405180910390fd5b600073ffffffffffffffffffffffffffffffffffffffff168573ffffffffffffffffffffffffffffffffffffffff1603610f10576040517f08c379a0000000000000000000000000000000000000000000000000000000008152600401610f079061293a565b60405180910390fd5b600033905060005b855181101561111e576000868281518110610f3657610f3561246a565b5b602002602001015190506000868381518110610f5557610f5461246a565b5b602002602001015190506000868481518110610f7457610f7361246a565b5b6020026020010151905060006003600085815260200190815260200160002060008d73ffffffffffffffffffffffffffffffffffffffff1673ffffffffffffffffffffffffffffffffffffffff168152602001908152602001600020600084815260200190815260200160002054905081811015611027576040517f08c379a000000000000000000000000000000000000000000000000000000000815260040161101e906129cc565b60405180910390fd5b8181036003600086815260200190815260200160002060008e73ffffffffffffffffffffffffffffffffffffffff1673ffffffffffffffffffffffffffffffffffffffff168152602001908152602001600020600085815260200190815260200160002081905550816003600086815260200190815260200160002060008e73ffffffffffffffffffffffffffffffffffffffff1673ffffffffffffffffffffffffffffffffffffffff1681526020019081526020016000206000858152602001908152602001600020600082825461110091906126cd565b92505081905550505050508080611116906124f5565b915050610f18565b508573ffffffffffffffffffffffffffffffffffffffff168773ffffffffffffffffffffffffffffffffffffffff168273ffffffffffffffffffffffffffffffffffffffff167ffb75bd3a9b4b3ae2b21dc1a8aad1d9ab156f8d577b05320c9c84bc98780a3752888888604051611197939291906129ec565b60405180910390a46111ad878787878787611640565b6111ec576040517f08c379a00000000000000000000000000000000000000000000000000000000081526004016111e390612aaa565b60405180910390fd5b50505050505050565b6000611225600260009054906101000a900473ffffffffffffffffffffffffffffffffffffffff16868686610b34565b90507fffffffffffffffffffffffffffffffffffffffffffffffffffffffffffffffff81146112c35781811015611291576040517f08c379a000000000000000000000000000000000000000000000000000000000815260040161128890612b16565b60405180910390fd5b6112c2600260009054906101000a900473ffffffffffffffffffffffffffffffffffffffff16868686868603610c15565b5b505050505050565b6112d8868686868661132e565b6112e7600086868686866117c1565b611326576040517f08c379a000000000000000000000000000000000000000000000000000000000815260040161131d90612ba8565b60405180910390fd5b505050505050565b600073ffffffffffffffffffffffffffffffffffffffff168573ffffffffffffffffffffffffffffffffffffffff160361139d576040517f08c379a000000000000000000000000000000000000000000000000000000000815260040161139490612c3a565b60405180910390fd5b600073ffffffffffffffffffffffffffffffffffffffff168473ffffffffffffffffffffffffffffffffffffffff160361140c576040517f08c379a000000000000000000000000000000000000000000000000000000000815260040161140390612ccc565b60405180910390fd5b611429858585858560405180602001604052806000815250611942565b806003600085815260200190815260200160002060008773ffffffffffffffffffffffffffffffffffffffff1673ffffffffffffffffffffffffffffffffffffffff16815260200190815260200160002060008481526020019081526020016000205410156114cd576040517f08c379a00000000000000000000000000000000000000000000000000000000081526004016114c490612d5e565b60405180910390fd5b806003600085815260200190815260200160002060008773ffffffffffffffffffffffffffffffffffffffff1673ffffffffffffffffffffffffffffffffffffffff168152602001908152602001600020600084815260200190815260200160002060008282540392505081905550806003600085815260200190815260200160002060008673ffffffffffffffffffffffffffffffffffffffff1673ffffffffffffffffffffffffffffffffffffffff168152602001908152602001600020600084815260200190815260200160002060008282546115ad91906126cd565b92505081905550828473ffffffffffffffffffffffffffffffffffffffff168673ffffffffffffffffffffffffffffffffffffffff167fc817d75deaa278e988c41cf549ef38fe195ab65e0e64cd67ba47f0d185690d588585604051611614929190612d7e565b60405180910390a461163985858585856040518060200160405280600081525061194a565b5050505050565b6000808673ffffffffffffffffffffffffffffffffffffffff163b11156117b2578573ffffffffffffffffffffffffffffffffffffffff1663c20f1e193389888888886040518763ffffffff1660e01b81526004016116a496959493929190612e26565b6020604051808303816000875af19250505080156116e057506040513d601f19601f820116820180604052508101906116dd9190612efb565b60015b611762573d8060008114611710576040519150601f19603f3d011682016040523d82523d6000602084013e611715565b606091505b50600081510361175a576040517f08c379a000000000000000000000000000000000000000000000000000000000815260040161175190612aaa565b60405180910390fd5b805181602001fd5b63c20f1e1960e01b7bffffffffffffffffffffffffffffffffffffffffffffffffffffffff1916817bffffffffffffffffffffffffffffffffffffffffffffffffffffffff1916149150506117b7565b600190505b9695505050505050565b6000808673ffffffffffffffffffffffffffffffffffffffff163b1115611933578573ffffffffffffffffffffffffffffffffffffffff166319a367523389888888886040518763ffffffff1660e01b815260040161182596959493929190612f28565b6020604051808303816000875af192505050801561186157506040513d601f19601f8201168201806040525081019061185e9190612efb565b60015b6118e3573d8060008114611891576040519150601f19603f3d011682016040523d82523d6000602084013e611896565b606091505b5060008151036118db576040517f08c379a00000000000000000000000000000000000000000000000000000000081526004016118d290612ba8565b60405180910390fd5b805181602001fd5b6319a3675260e01b7bffffffffffffffffffffffffffffffffffffffffffffffffffffffff1916817bffffffffffffffffffffffffffffffffffffffffffffffffffffffff191614915050611938565b600190505b9695505050505050565b505050505050565b505050505050565b6000604051905090565b600080fd5b600080fd5b600073ffffffffffffffffffffffffffffffffffffffff82169050919050565b600061199182611966565b9050919050565b6119a181611986565b81146119ac57600080fd5b50565b6000813590506119be81611998565b92915050565b6000819050919050565b6119d7816119c4565b81146119e257600080fd5b50565b6000813590506119f4816119ce565b92915050565b600080600080600060a08688031215611a1657611a1561195c565b5b6000611a24888289016119af565b9550506020611a35888289016119af565b9450506040611a46888289016119e5565b9350506060611a57888289016119e5565b9250506080611a68888289016119e5565b9150509295509295909350565b60008115159050919050565b611a8a81611a75565b82525050565b6000602082019050611aa56000830184611a81565b92915050565b611ab481611a75565b8114611abf57600080fd5b50565b600081359050611ad181611aab565b92915050565b60008060408385031215611aee57611aed61195c565b5b6000611afc858286016119af565b9250506020611b0d85828601611ac2565b9150509250929050565b60008060008060808587031215611b3157611b3061195c565b5b6000611b3f878288016119af565b9450506020611b50878288016119af565b9350506040611b61878288016119e5565b9250506060611b72878288016119e5565b91505092959194509250565b611b87816119c4565b82525050565b6000602082019050611ba26000830184611b7e565b92915050565b600080fd5b600080fd5b6000601f19601f8301169050919050565b7f4e487b7100000000000000000000000000000000000000000000000000000000600052604160045260246000fd5b611bfb82611bb2565b810181811067ffffffffffffffff82111715611c1a57611c19611bc3565b5b80604052505050565b6000611c2d611952565b9050611c398282611bf2565b919050565b600067ffffffffffffffff821115611c5957611c58611bc3565b5b611c6282611bb2565b9050602081019050919050565b82818337600083830152505050565b6000611c91611c8c84611c3e565b611c23565b905082815260208101848484011115611cad57611cac611bad565b5b611cb8848285611c6f565b509392505050565b600082601f830112611cd557611cd4611ba8565b5b8135611ce5848260208601611c7e565b91505092915050565b60008060008060008060c08789031215611d0b57611d0a61195c565b5b6000611d1989828a016119af565b9650506020611d2a89828a016119af565b9550506040611d3b89828a016119e5565b9450506060611d4c89828a016119e5565b9350506080611d5d89828a016119e5565b92505060a087013567ffffffffffffffff811115611d7e57611d7d611961565b5b611d8a89828a01611cc0565b9150509295509295509295565b60008060008060808587031215611db157611db061195c565b5b6000611dbf878288016119af565b9450506020611dd0878288016119e5565b9350506040611de1878288016119e5565b9250506060611df2878288016119e5565b91505092959194509250565b600080fd5b600080fd5b60008083601f840112611e1e57611e1d611ba8565b5b8235905067ffffffffffffffff811115611e3b57611e3a611dfe565b5b602083019150836020820283011115611e5757611e56611e03565b5b9250929050565b60008083601f840112611e7457611e73611ba8565b5b8235905067ffffffffffffffff811115611e9157611e90611dfe565b5b602083019150836020820283011115611ead57611eac611e03565b5b9250929050565b60008060008060008060608789031215611ed157611ed061195c565b5b600087013567ffffffffffffffff811115611eef57611eee611961565b5b611efb89828a01611e08565b9650965050602087013567ffffffffffffffff811115611f1e57611f1d611961565b5b611f2a89828a01611e5e565b9450945050604087013567ffffffffffffffff811115611f4d57611f4c611961565b5b611f5989828a01611e5e565b92509250509295509295509295565b600081519050919050565b600082825260208201905092915050565b6000819050602082019050919050565b611f9d816119c4565b82525050565b6000611faf8383611f94565b60208301905092915050565b6000602082019050919050565b6000611fd382611f68565b611fdd8185611f73565b9350611fe883611f84565b8060005b838110156120195781516120008882611fa3565b975061200b83611fbb565b925050600181019050611fec565b5085935050505092915050565b600060208201905081810360008301526120408184611fc8565b905092915050565b60008083601f84011261205e5761205d611ba8565b5b8235905067ffffffffffffffff81111561207b5761207a611dfe565b5b60208301915083600182028301111561209757612096611e03565b5b9250929050565b60008060008060008060008060008060c08b8d0312156120c1576120c061195c565b5b60006120cf8d828e016119af565b9a505060206120e08d828e016119af565b99505060408b013567ffffffffffffffff81111561210157612100611961565b5b61210d8d828e01611e5e565b985098505060608b013567ffffffffffffffff8111156121305761212f611961565b5b61213c8d828e01611e5e565b965096505060808b013567ffffffffffffffff81111561215f5761215e611961565b5b61216b8d828e01611e5e565b945094505060a08b013567ffffffffffffffff81111561218e5761218d611961565b5b61219a8d828e01612048565b92509250509295989b9194979a5092959850565b60008083601f8401126121c4576121c3611ba8565b5b8235905067ffffffffffffffff8111156121e1576121e0611dfe565b5b6020830191508360018202830111156121fd576121fc611e03565b5b9250929050565b60008060008060008060a087890312156122215761222061195c565b5b600061222f89828a016119af565b965050602061224089828a016119e5565b955050604061225189828a016119e5565b945050606061226289828a016119e5565b935050608087013567ffffffffffffffff81111561228357612282611961565b5b61228f89828a016121ae565b92509250509295509295509295565b6000806000606084860312156122b7576122b661195c565b5b60006122c5868287016119af565b93505060206122d6868287016119e5565b92505060406122e7868287016119e5565b9150509250925092565b6122fa81611986565b82525050565b600060208201905061231560008301846122f1565b92915050565b600080604083850312156123325761233161195c565b5b6000612340858286016119af565b9250506020612351858286016119af565b9150509250929050565b600082825260208201905092915050565b7f43616c6c6572206973206e6f7420746865204f776e65722e0000000000000000600082015250565b60006123a260188361235b565b91506123ad8261236c565b602082019050919050565b600060208201905081810360008301526123d181612395565b9050919050565b7f444c54203a206163636f756e74732c206d61696e49647320616e64206964732060008201527f6c656e677468206d69736d617463680000000000000000000000000000000000602082015250565b6000612434602f8361235b565b915061243f826123d8565b604082019050919050565b6000602082019050818103600083015261246381612427565b9050919050565b7f4e487b7100000000000000000000000000000000000000000000000000000000600052603260045260246000fd5b6000602082840312156124af576124ae61195c565b5b60006124bd848285016119af565b91505092915050565b7f4e487b7100000000000000000000000000000000000000000000000000000000600052601160045260246000fd5b6000612500826119c4565b91507fffffffffffffffffffffffffffffffffffffffffffffffffffffffffffffffff8203612532576125316124c6565b5b600182019050919050565b7f444c543a2063616c6c6572206973206e6f74206f776e6572206f72206170707260008201527f6f76656420666f7220616c6c0000000000000000000000000000000000000000602082015250565b6000612599602c8361235b565b91506125a48261253d565b604082019050919050565b600060208201905081810360008301526125c88161258c565b9050919050565b7f444c54203a206f6e6c794f776e65722063616e206d696e74206e657720746f6b60008201527f656e732e00000000000000000000000000000000000000000000000000000000602082015250565b600061262b60248361235b565b9150612636826125cf565b604082019050919050565b6000602082019050818103600083015261265a8161261e565b9050919050565b7f444c54203a206d696e7420746f20746865207a65726f20616464726573730000600082015250565b6000612697601e8361235b565b91506126a282612661565b602082019050919050565b600060208201905081810360008301526126c68161268a565b9050919050565b60006126d8826119c4565b91506126e3836119c4565b92508282019050808211156126fb576126fa6124c6565b5b92915050565b7f444c54203a20617070726f766520746f2063616c6c6572000000000000000000600082015250565b600061273760178361235b565b915061274282612701565b602082019050919050565b600060208201905081810360008301526127668161272a565b9050919050565b7f444c54203a20617070726f76652066726f6d20746865207a65726f206164647260008201527f6573730000000000000000000000000000000000000000000000000000000000602082015250565b60006127c960238361235b565b91506127d48261276d565b604082019050919050565b600060208201905081810360008301526127f8816127bc565b9050919050565b60006060820190506128146000830186611b7e565b6128216020830185611b7e565b61282e6040830184611b7e565b949350505050565b7f444c54203a206d61696e4964732c2073756249647320616e6420616d6f756e7460008201527f73206c656e677468206d69736d61746368656400000000000000000000000000602082015250565b600061289260338361235b565b915061289d82612836565b604082019050919050565b600060208201905081810360008301526128c181612885565b9050919050565b7f444c543a207472616e7366657220746f20746865207a65726f2061646472657360008201527f7300000000000000000000000000000000000000000000000000000000000000602082015250565b600061292460218361235b565b915061292f826128c8565b604082019050919050565b6000602082019050818103600083015261295381612917565b9050919050565b7f444c54203a20696e73756666696369656e742062616c616e6365206f6620747260008201527f616e736665720000000000000000000000000000000000000000000000000000602082015250565b60006129b660268361235b565b91506129c18261295a565b604082019050919050565b600060208201905081810360008301526129e5816129a9565b9050919050565b60006060820190508181036000830152612a068186611fc8565b90508181036020830152612a1a8185611fc8565b90508181036040830152612a2e8184611fc8565b9050949350505050565b7f444c543a207472616e7366657220746f206e6f6e20444c54526563656976657260008201527f20696d706c656d656e7465720000000000000000000000000000000000000000602082015250565b6000612a94602c8361235b565b9150612a9f82612a38565b604082019050919050565b60006020820190508181036000830152612ac381612a87565b9050919050565b7f444c54203a20696e73756666696369656e7420616c6c6f77616e636500000000600082015250565b6000612b00601c8361235b565b9150612b0b82612aca565b602082019050919050565b60006020820190508181036000830152612b2f81612af3565b9050919050565b7f444c54203a207472616e7366657220746f206e6f6e20444c545265636569766560008201527f7220696d706c656d656e74657200000000000000000000000000000000000000602082015250565b6000612b92602d8361235b565b9150612b9d82612b36565b604082019050919050565b60006020820190508181036000830152612bc181612b85565b9050919050565b7f444c54203a207472616e736665722066726f6d20746865207a65726f2061646460008201527f7265737300000000000000000000000000000000000000000000000000000000602082015250565b6000612c2460248361235b565b9150612c2f82612bc8565b604082019050919050565b60006020820190508181036000830152612c5381612c17565b9050919050565b7f444c54203a207472616e7366657220746f20746865207a65726f20616464726560008201527f7373000000000000000000000000000000000000000000000000000000000000602082015250565b6000612cb660228361235b565b9150612cc182612c5a565b604082019050919050565b60006020820190508181036000830152612ce581612ca9565b9050919050565b7f444c54203a20696e73756666696369656e742062616c616e636520666f72207460008201527f72616e7366657200000000000000000000000000000000000000000000000000602082015250565b6000612d4860278361235b565b9150612d5382612cec565b604082019050919050565b60006020820190508181036000830152612d7781612d3b565b9050919050565b6000604082019050612d936000830185611b7e565b612da06020830184611b7e565b9392505050565b600081519050919050565b600082825260208201905092915050565b60005b83811015612de1578082015181840152602081019050612dc6565b60008484015250505050565b6000612df882612da7565b612e028185612db2565b9350612e12818560208601612dc3565b612e1b81611bb2565b840191505092915050565b600060c082019050612e3b60008301896122f1565b612e4860208301886122f1565b8181036040830152612e5a8187611fc8565b90508181036060830152612e6e8186611fc8565b90508181036080830152612e828185611fc8565b905081810360a0830152612e968184612ded565b9050979650505050505050565b60007fffffffff0000000000000000000000000000000000000000000000000000000082169050919050565b612ed881612ea3565b8114612ee357600080fd5b50565b600081519050612ef581612ecf565b92915050565b600060208284031215612f1157612f1061195c565b5b6000612f1f84828501612ee6565b91505092915050565b600060c082019050612f3d60008301896122f1565b612f4a60208301886122f1565b612f576040830187611b7e565b612f646060830186611b7e565b612f716080830185611b7e565b81810360a0830152612f838184612ded565b905097965050505050505056fea2646970667358221220ac13ba851d443ecfec9c79d7f57e96b14955c502859e379c8d602c9b391df44964736f6c63430008130033",
			"opcodes": "PUSH1 0x80 PUSH1 0x40 MSTORE CALLVALUE DUP1 ISZERO PUSH3 0x11 JUMPI PUSH1 0x0 DUP1 REVERT JUMPDEST POP PUSH1 0x40 MLOAD PUSH3 0x35C4 CODESIZE SUB DUP1 PUSH3 0x35C4 DUP4 CODECOPY DUP2 DUP2 ADD PUSH1 0x40 MSTORE DUP2 ADD SWAP1 PUSH3 0x37 SWAP2 SWAP1 PUSH3 0x237 JUMP JUMPDEST DUP2 PUSH1 0x0 SWAP1 DUP2 PUSH3 0x48 SWAP2 SWAP1 PUSH3 0x507 JUMP JUMPDEST POP DUP1 PUSH1 0x1 SWAP1 DUP2 PUSH3 0x5A SWAP2 SWAP1 PUSH3 0x507 JUMP JUMPDEST POP CALLER PUSH1 0x2 PUSH1 0x0 PUSH2 0x100 EXP DUP2 SLOAD DUP2 PUSH20 0xFFFFFFFFFFFFFFFFFFFFFFFFFFFFFFFFFFFFFFFF MUL NOT AND SWAP1 DUP4 PUSH20 0xFFFFFFFFFFFFFFFFFFFFFFFFFFFFFFFFFFFFFFFF AND MUL OR SWAP1 SSTORE POP POP POP PUSH3 0x5EE JUMP JUMPDEST PUSH1 0x0 PUSH1 0x40 MLOAD SWAP1 POP SWAP1 JUMP JUMPDEST PUSH1 0x0 DUP1 REVERT JUMPDEST PUSH1 0x0 DUP1 REVERT JUMPDEST PUSH1 0x0 DUP1 REVERT JUMPDEST PUSH1 0x0 DUP1 REVERT JUMPDEST PUSH1 0x0 PUSH1 0x1F NOT PUSH1 0x1F DUP4 ADD AND SWAP1 POP SWAP2 SWAP1 POP JUMP JUMPDEST PUSH32 0x4E487B7100000000000000000000000000000000000000000000000000000000 PUSH1 0x0 MSTORE PUSH1 0x41 PUSH1 0x4 MSTORE PUSH1 0x24 PUSH1 0x0 REVERT JUMPDEST PUSH3 0x10D DUP3 PUSH3 0xC2 JUMP JUMPDEST DUP2 ADD DUP2 DUP2 LT PUSH8 0xFFFFFFFFFFFFFFFF DUP3 GT OR ISZERO PUSH3 0x12F JUMPI PUSH3 0x12E PUSH3 0xD3 JUMP JUMPDEST JUMPDEST DUP1 PUSH1 0x40 MSTORE POP POP POP JUMP JUMPDEST PUSH1 0x0 PUSH3 0x144 PUSH3 0xA4 JUMP JUMPDEST SWAP1 POP PUSH3 0x152 DUP3 DUP3 PUSH3 0x102 JUMP JUMPDEST SWAP2 SWAP1 POP JUMP JUMPDEST PUSH1 0x0 PUSH8 0xFFFFFFFFFFFFFFFF DUP3 GT ISZERO PUSH3 0x175 JUMPI PUSH3 0x174 PUSH3 0xD3 JUMP JUMPDEST JUMPDEST PUSH3 0x180 DUP3 PUSH3 0xC2 JUMP JUMPDEST SWAP1 POP PUSH1 0x20 DUP2 ADD SWAP1 POP SWAP2 SWAP1 POP JUMP JUMPDEST PUSH1 0x0 JUMPDEST DUP4 DUP2 LT ISZERO PUSH3 0x1AD JUMPI DUP1 DUP3 ADD MLOAD DUP2 DUP5 ADD MSTORE PUSH1 0x20 DUP2 ADD SWAP1 POP PUSH3 0x190 JUMP JUMPDEST PUSH1 0x0 DUP5 DUP5 ADD MSTORE POP POP POP POP JUMP JUMPDEST PUSH1 0x0 PUSH3 0x1D0 PUSH3 0x1CA DUP5 PUSH3 0x157 JUMP JUMPDEST PUSH3 0x138 JUMP JUMPDEST SWAP1 POP DUP3 DUP2 MSTORE PUSH1 0x20 DUP2 ADD DUP5 DUP5 DUP5 ADD GT ISZERO PUSH3 0x1EF JUMPI PUSH3 0x1EE PUSH3 0xBD JUMP JUMPDEST JUMPDEST PUSH3 0x1FC DUP5 DUP3 DUP6 PUSH3 0x18D JUMP JUMPDEST POP SWAP4 SWAP3 POP POP POP JUMP JUMPDEST PUSH1 0x0 DUP3 PUSH1 0x1F DUP4 ADD SLT PUSH3 0x21C JUMPI PUSH3 0x21B PUSH3 0xB8 JUMP JUMPDEST JUMPDEST DUP2 MLOAD PUSH3 0x22E DUP5 DUP3 PUSH1 0x20 DUP7 ADD PUSH3 0x1B9 JUMP JUMPDEST SWAP2 POP POP SWAP3 SWAP2 POP POP JUMP JUMPDEST PUSH1 0x0 DUP1 PUSH1 0x40 DUP4 DUP6 SUB SLT ISZERO PUSH3 0x251 JUMPI PUSH3 0x250 PUSH3 0xAE JUMP JUMPDEST JUMPDEST PUSH1 0x0 DUP4 ADD MLOAD PUSH8 0xFFFFFFFFFFFFFFFF DUP2 GT ISZERO PUSH3 0x272 JUMPI PUSH3 0x271 PUSH3 0xB3 JUMP JUMPDEST JUMPDEST PUSH3 0x280 DUP6 DUP3 DUP7 ADD PUSH3 0x204 JUMP JUMPDEST SWAP3 POP POP PUSH1 0x20 DUP4 ADD MLOAD PUSH8 0xFFFFFFFFFFFFFFFF DUP2 GT ISZERO PUSH3 0x2A4 JUMPI PUSH3 0x2A3 PUSH3 0xB3 JUMP JUMPDEST JUMPDEST PUSH3 0x2B2 DUP6 DUP3 DUP7 ADD PUSH3 0x204 JUMP JUMPDEST SWAP2 POP POP SWAP3 POP SWAP3 SWAP1 POP JUMP JUMPDEST PUSH1 0x0 DUP2 MLOAD SWAP1 POP SWAP2 SWAP1 POP JUMP JUMPDEST PUSH32 0x4E487B7100000000000000000000000000000000000000000000000000000000 PUSH1 0x0 MSTORE PUSH1 0x22 PUSH1 0x4 MSTORE PUSH1 0x24 PUSH1 0x0 REVERT JUMPDEST PUSH1 0x0 PUSH1 0x2 DUP3 DIV SWAP1 POP PUSH1 0x1 DUP3 AND DUP1 PUSH3 0x30F JUMPI PUSH1 0x7F DUP3 AND SWAP2 POP JUMPDEST PUSH1 0x20 DUP3 LT DUP2 SUB PUSH3 0x325 JUMPI PUSH3 0x324 PUSH3 0x2C7 JUMP JUMPDEST JUMPDEST POP SWAP2 SWAP1 POP JUMP JUMPDEST PUSH1 0x0 DUP2 SWAP1 POP DUP2 PUSH1 0x0 MSTORE PUSH1 0x20 PUSH1 0x0 KECCAK256 SWAP1 POP SWAP2 SWAP1 POP JUMP JUMPDEST PUSH1 0x0 PUSH1 0x20 PUSH1 0x1F DUP4 ADD DIV SWAP1 POP SWAP2 SWAP1 POP JUMP JUMPDEST PUSH1 0x0 DUP3 DUP3 SHL SWAP1 POP SWAP3 SWAP2 POP POP JUMP JUMPDEST PUSH1 0x0 PUSH1 0x8 DUP4 MUL PUSH3 0x38F PUSH32 0xFFFFFFFFFFFFFFFFFFFFFFFFFFFFFFFFFFFFFFFFFFFFFFFFFFFFFFFFFFFFFFFF DUP3 PUSH3 0x350 JUMP JUMPDEST PUSH3 0x39B DUP7 DUP4 PUSH3 0x350 JUMP JUMPDEST SWAP6 POP DUP1 NOT DUP5 AND SWAP4 POP DUP1 DUP7 AND DUP5 OR SWAP3 POP POP POP SWAP4 SWAP3 POP POP POP JUMP JUMPDEST PUSH1 0x0 DUP2 SWAP1 POP SWAP2 SWAP1 POP JUMP JUMPDEST PUSH1 0x0 DUP2 SWAP1 POP SWAP2 SWAP1 POP JUMP JUMPDEST PUSH1 0x0 PUSH3 0x3E8 PUSH3 0x3E2 PUSH3 0x3DC DUP5 PUSH3 0x3B3 JUMP JUMPDEST PUSH3 0x3BD JUMP JUMPDEST PUSH3 0x3B3 JUMP JUMPDEST SWAP1 POP SWAP2 SWAP1 POP JUMP JUMPDEST PUSH1 0x0 DUP2 SWAP1 POP SWAP2 SWAP1 POP JUMP JUMPDEST PUSH3 0x404 DUP4 PUSH3 0x3C7 JUMP JUMPDEST PUSH3 0x41C PUSH3 0x413 DUP3 PUSH3 0x3EF JUMP JUMPDEST DUP5 DUP5 SLOAD PUSH3 0x35D JUMP JUMPDEST DUP3 SSTORE POP POP POP POP JUMP JUMPDEST PUSH1 0x0 SWAP1 JUMP JUMPDEST PUSH3 0x433 PUSH3 0x424 JUMP JUMPDEST PUSH3 0x440 DUP2 DUP5 DUP5 PUSH3 0x3F9 JUMP JUMPDEST POP POP POP JUMP JUMPDEST JUMPDEST DUP2 DUP2 LT ISZERO PUSH3 0x468 JUMPI PUSH3 0x45C PUSH1 0x0 DUP3 PUSH3 0x429 JUMP JUMPDEST PUSH1 0x1 DUP2 ADD SWAP1 POP PUSH3 0x446 JUMP JUMPDEST POP POP JUMP JUMPDEST PUSH1 0x1F DUP3 GT ISZERO PUSH3 0x4B7 JUMPI PUSH3 0x481 DUP2 PUSH3 0x32B JUMP JUMPDEST PUSH3 0x48C DUP5 PUSH3 0x340 JUMP JUMPDEST DUP2 ADD PUSH1 0x20 DUP6 LT ISZERO PUSH3 0x49C JUMPI DUP2 SWAP1 POP JUMPDEST PUSH3 0x4B4 PUSH3 0x4AB DUP6 PUSH3 0x340 JUMP JUMPDEST DUP4 ADD DUP3 PUSH3 0x445 JUMP JUMPDEST POP POP JUMPDEST POP POP POP JUMP JUMPDEST PUSH1 0x0 DUP3 DUP3 SHR SWAP1 POP SWAP3 SWAP2 POP POP JUMP JUMPDEST PUSH1 0x0 PUSH3 0x4DC PUSH1 0x0 NOT DUP5 PUSH1 0x8 MUL PUSH3 0x4BC JUMP JUMPDEST NOT DUP1 DUP4 AND SWAP2 POP POP SWAP3 SWAP2 POP POP JUMP JUMPDEST PUSH1 0x0 PUSH3 0x4F7 DUP4 DUP4 PUSH3 0x4C9 JUMP JUMPDEST SWAP2 POP DUP3 PUSH1 0x2 MUL DUP3 OR SWAP1 POP SWAP3 SWAP2 POP POP JUMP JUMPDEST PUSH3 0x512 DUP3 PUSH3 0x2BC JUMP JUMPDEST PUSH8 0xFFFFFFFFFFFFFFFF DUP2 GT ISZERO PUSH3 0x52E JUMPI PUSH3 0x52D PUSH3 0xD3 JUMP JUMPDEST JUMPDEST PUSH3 0x53A DUP3 SLOAD PUSH3 0x2F6 JUMP JUMPDEST PUSH3 0x547 DUP3 DUP3 DUP6 PUSH3 0x46C JUMP JUMPDEST PUSH1 0x0 PUSH1 0x20 SWAP1 POP PUSH1 0x1F DUP4 GT PUSH1 0x1 DUP2 EQ PUSH3 0x57F JUMPI PUSH1 0x0 DUP5 ISZERO PUSH3 0x56A JUMPI DUP3 DUP8 ADD MLOAD SWAP1 POP JUMPDEST PUSH3 0x576 DUP6 DUP3 PUSH3 0x4E9 JUMP JUMPDEST DUP7 SSTORE POP PUSH3 0x5E6 JUMP JUMPDEST PUSH1 0x1F NOT DUP5 AND PUSH3 0x58F DUP7 PUSH3 0x32B JUMP JUMPDEST PUSH1 0x0 JUMPDEST DUP3 DUP2 LT ISZERO PUSH3 0x5B9 JUMPI DUP5 DUP10 ADD MLOAD DUP3 SSTORE PUSH1 0x1 DUP3 ADD SWAP2 POP PUSH1 0x20 DUP6 ADD SWAP5 POP PUSH1 0x20 DUP2 ADD SWAP1 POP PUSH3 0x592 JUMP JUMPDEST DUP7 DUP4 LT ISZERO PUSH3 0x5D9 JUMPI DUP5 DUP10 ADD MLOAD PUSH3 0x5D5 PUSH1 0x1F DUP10 AND DUP3 PUSH3 0x4C9 JUMP JUMPDEST DUP4 SSTORE POP JUMPDEST PUSH1 0x1 PUSH1 0x2 DUP9 MUL ADD DUP9 SSTORE POP POP POP JUMPDEST POP POP POP POP POP POP JUMP JUMPDEST PUSH2 0x2FC6 DUP1 PUSH3 0x5FE PUSH1 0x0 CODECOPY PUSH1 0x0 RETURN INVALID PUSH1 0x80 PUSH1 0x40 MSTORE CALLVALUE DUP1 ISZERO PUSH2 0x10 JUMPI PUSH1 0x0 DUP1 REVERT JUMPDEST POP PUSH1 0x4 CALLDATASIZE LT PUSH2 0xB4 JUMPI PUSH1 0x0 CALLDATALOAD PUSH1 0xE0 SHR DUP1 PUSH4 0x62B26417 GT PUSH2 0x71 JUMPI DUP1 PUSH4 0x62B26417 EQ PUSH2 0x1C5 JUMPI DUP1 PUSH4 0x6B98FD1E EQ PUSH2 0x1F5 JUMPI DUP1 PUSH4 0x6BD2E006 EQ PUSH2 0x225 JUMPI DUP1 PUSH4 0x8536208D EQ PUSH2 0x255 JUMPI DUP1 PUSH4 0x8DA5CB5B EQ PUSH2 0x285 JUMPI DUP1 PUSH4 0xE985E9C5 EQ PUSH2 0x2A3 JUMPI PUSH2 0xB4 JUMP JUMPDEST DUP1 PUSH4 0x1B5E494 EQ PUSH2 0xB9 JUMPI DUP1 PUSH4 0x11FB3E60 EQ PUSH2 0xE9 JUMPI DUP1 PUSH4 0x443B63B9 EQ PUSH2 0x105 JUMPI DUP1 PUSH4 0x4AED53C2 EQ PUSH2 0x135 JUMPI DUP1 PUSH4 0x4D47FDDB EQ PUSH2 0x165 JUMPI DUP1 PUSH4 0x4F4DF442 EQ PUSH2 0x195 JUMPI JUMPDEST PUSH1 0x0 DUP1 REVERT JUMPDEST PUSH2 0xD3 PUSH1 0x4 DUP1 CALLDATASIZE SUB DUP2 ADD SWAP1 PUSH2 0xCE SWAP2 SWAP1 PUSH2 0x19FA JUMP JUMPDEST PUSH2 0x2D3 JUMP JUMPDEST PUSH1 0x40 MLOAD PUSH2 0xE0 SWAP2 SWAP1 PUSH2 0x1A90 JUMP JUMPDEST PUSH1 0x40 MLOAD DUP1 SWAP2 SUB SWAP1 RETURN JUMPDEST PUSH2 0x103 PUSH1 0x4 DUP1 CALLDATASIZE SUB DUP2 ADD SWAP1 PUSH2 0xFE SWAP2 SWAP1 PUSH2 0x1AD7 JUMP JUMPDEST PUSH2 0x2FF JUMP JUMPDEST STOP JUMPDEST PUSH2 0x11F PUSH1 0x4 DUP1 CALLDATASIZE SUB DUP2 ADD SWAP1 PUSH2 0x11A SWAP2 SWAP1 PUSH2 0x1B17 JUMP JUMPDEST PUSH2 0x30E JUMP JUMPDEST PUSH1 0x40 MLOAD PUSH2 0x12C SWAP2 SWAP1 PUSH2 0x1B8D JUMP JUMPDEST PUSH1 0x40 MLOAD DUP1 SWAP2 SUB SWAP1 RETURN JUMPDEST PUSH2 0x14F PUSH1 0x4 DUP1 CALLDATASIZE SUB DUP2 ADD SWAP1 PUSH2 0x14A SWAP2 SWAP1 PUSH2 0x19FA JUMP JUMPDEST PUSH2 0x326 JUMP JUMPDEST PUSH1 0x40 MLOAD PUSH2 0x15C SWAP2 SWAP1 PUSH2 0x1A90 JUMP JUMPDEST PUSH1 0x40 MLOAD DUP1 SWAP2 SUB SWAP1 RETURN JUMPDEST PUSH2 0x17F PUSH1 0x4 DUP1 CALLDATASIZE SUB DUP2 ADD SWAP1 PUSH2 0x17A SWAP2 SWAP1 PUSH2 0x1CEE JUMP JUMPDEST PUSH2 0x342 JUMP JUMPDEST PUSH1 0x40 MLOAD PUSH2 0x18C SWAP2 SWAP1 PUSH2 0x1A90 JUMP JUMPDEST PUSH1 0x40 MLOAD DUP1 SWAP2 SUB SWAP1 RETURN JUMPDEST PUSH2 0x1AF PUSH1 0x4 DUP1 CALLDATASIZE SUB DUP2 ADD SWAP1 PUSH2 0x1AA SWAP2 SWAP1 PUSH2 0x1D97 JUMP JUMPDEST PUSH2 0x360 JUMP JUMPDEST PUSH1 0x40 MLOAD PUSH2 0x1BC SWAP2 SWAP1 PUSH2 0x1A90 JUMP JUMPDEST PUSH1 0x40 MLOAD DUP1 SWAP2 SUB SWAP1 RETURN JUMPDEST PUSH2 0x1DF PUSH1 0x4 DUP1 CALLDATASIZE SUB DUP2 ADD SWAP1 PUSH2 0x1DA SWAP2 SWAP1 PUSH2 0x1EB4 JUMP JUMPDEST PUSH2 0x411 JUMP JUMPDEST PUSH1 0x40 MLOAD PUSH2 0x1EC SWAP2 SWAP1 PUSH2 0x2026 JUMP JUMPDEST PUSH1 0x40 MLOAD DUP1 SWAP2 SUB SWAP1 RETURN JUMPDEST PUSH2 0x20F PUSH1 0x4 DUP1 CALLDATASIZE SUB DUP2 ADD SWAP1 PUSH2 0x20A SWAP2 SWAP1 PUSH2 0x209E JUMP JUMPDEST PUSH2 0x56F JUMP JUMPDEST PUSH1 0x40 MLOAD PUSH2 0x21C SWAP2 SWAP1 PUSH2 0x1A90 JUMP JUMPDEST PUSH1 0x40 MLOAD DUP1 SWAP2 SUB SWAP1 RETURN JUMPDEST PUSH2 0x23F PUSH1 0x4 DUP1 CALLDATASIZE SUB DUP2 ADD SWAP1 PUSH2 0x23A SWAP2 SWAP1 PUSH2 0x2204 JUMP JUMPDEST PUSH2 0x6E2 JUMP JUMPDEST PUSH1 0x40 MLOAD PUSH2 0x24C SWAP2 SWAP1 PUSH2 0x1A90 JUMP JUMPDEST PUSH1 0x40 MLOAD DUP1 SWAP2 SUB SWAP1 RETURN JUMPDEST PUSH2 0x26F PUSH1 0x4 DUP1 CALLDATASIZE SUB DUP2 ADD SWAP1 PUSH2 0x26A SWAP2 SWAP1 PUSH2 0x229E JUMP JUMPDEST PUSH2 0x869 JUMP JUMPDEST PUSH1 0x40 MLOAD PUSH2 0x27C SWAP2 SWAP1 PUSH2 0x1B8D JUMP JUMPDEST PUSH1 0x40 MLOAD DUP1 SWAP2 SUB SWAP1 RETURN JUMPDEST PUSH2 0x28D PUSH2 0x8D6 JUMP JUMPDEST PUSH1 0x40 MLOAD PUSH2 0x29A SWAP2 SWAP1 PUSH2 0x2300 JUMP JUMPDEST PUSH1 0x40 MLOAD DUP1 SWAP2 SUB SWAP1 RETURN JUMPDEST PUSH2 0x2BD PUSH1 0x4 DUP1 CALLDATASIZE SUB DUP2 ADD SWAP1 PUSH2 0x2B8 SWAP2 SWAP1 PUSH2 0x231B JUMP JUMPDEST PUSH2 0x8FC JUMP JUMPDEST PUSH1 0x40 MLOAD PUSH2 0x2CA SWAP2 SWAP1 PUSH2 0x1A90 JUMP JUMPDEST PUSH1 0x40 MLOAD DUP1 SWAP2 SUB SWAP1 RETURN JUMPDEST PUSH1 0x0 PUSH2 0x2F2 DUP7 DUP7 DUP7 DUP7 DUP7 PUSH1 0x40 MLOAD DUP1 PUSH1 0x20 ADD PUSH1 0x40 MSTORE DUP1 PUSH1 0x0 DUP2 MSTORE POP PUSH2 0x990 JUMP JUMPDEST PUSH1 0x1 SWAP1 POP SWAP6 SWAP5 POP POP POP POP POP JUMP JUMPDEST PUSH2 0x30A CALLER DUP4 DUP4 PUSH2 0x9C8 JUMP JUMPDEST POP POP JUMP JUMPDEST PUSH1 0x0 PUSH2 0x31C DUP6 DUP6 DUP6 DUP6 PUSH2 0xB34 JUMP JUMPDEST SWAP1 POP SWAP5 SWAP4 POP POP POP POP JUMP JUMPDEST PUSH1 0x0 PUSH2 0x335 DUP7 DUP7 DUP7 DUP7 DUP7 PUSH2 0xBDF JUMP JUMPDEST PUSH1 0x1 SWAP1 POP SWAP6 SWAP5 POP POP POP POP POP JUMP JUMPDEST PUSH1 0x0 PUSH2 0x352 DUP8 DUP8 DUP8 DUP8 DUP8 DUP8 PUSH2 0x990 JUMP JUMPDEST PUSH1 0x1 SWAP1 POP SWAP7 SWAP6 POP POP POP POP POP POP JUMP JUMPDEST PUSH1 0x0 CALLER PUSH20 0xFFFFFFFFFFFFFFFFFFFFFFFFFFFFFFFFFFFFFFFF AND PUSH1 0x2 PUSH1 0x0 SWAP1 SLOAD SWAP1 PUSH2 0x100 EXP SWAP1 DIV PUSH20 0xFFFFFFFFFFFFFFFFFFFFFFFFFFFFFFFFFFFFFFFF AND PUSH20 0xFFFFFFFFFFFFFFFFFFFFFFFFFFFFFFFFFFFFFFFF AND EQ PUSH2 0x3F2 JUMPI PUSH1 0x40 MLOAD PUSH32 0x8C379A000000000000000000000000000000000000000000000000000000000 DUP2 MSTORE PUSH1 0x4 ADD PUSH2 0x3E9 SWAP1 PUSH2 0x23B8 JUMP JUMPDEST PUSH1 0x40 MLOAD DUP1 SWAP2 SUB SWAP1 REVERT JUMPDEST PUSH1 0x0 CALLER SWAP1 POP PUSH2 0x404 DUP2 DUP8 DUP8 DUP8 DUP8 PUSH2 0xC15 JUMP JUMPDEST PUSH1 0x1 SWAP2 POP POP SWAP5 SWAP4 POP POP POP POP JUMP JUMPDEST PUSH1 0x60 DUP5 DUP5 SWAP1 POP DUP8 DUP8 SWAP1 POP EQ DUP1 ISZERO PUSH2 0x42D JUMPI POP DUP3 DUP3 SWAP1 POP DUP8 DUP8 SWAP1 POP EQ JUMPDEST PUSH2 0x46C JUMPI PUSH1 0x40 MLOAD PUSH32 0x8C379A000000000000000000000000000000000000000000000000000000000 DUP2 MSTORE PUSH1 0x4 ADD PUSH2 0x463 SWAP1 PUSH2 0x244A JUMP JUMPDEST PUSH1 0x40 MLOAD DUP1 SWAP2 SUB SWAP1 REVERT JUMPDEST PUSH1 0x0 DUP8 DUP8 SWAP1 POP PUSH8 0xFFFFFFFFFFFFFFFF DUP2 GT ISZERO PUSH2 0x48B JUMPI PUSH2 0x48A PUSH2 0x1BC3 JUMP JUMPDEST JUMPDEST PUSH1 0x40 MLOAD SWAP1 DUP1 DUP3 MSTORE DUP1 PUSH1 0x20 MUL PUSH1 0x20 ADD DUP3 ADD PUSH1 0x40 MSTORE DUP1 ISZERO PUSH2 0x4B9 JUMPI DUP2 PUSH1 0x20 ADD PUSH1 0x20 DUP3 MUL DUP1 CALLDATASIZE DUP4 CALLDATACOPY DUP1 DUP3 ADD SWAP2 POP POP SWAP1 POP JUMPDEST POP SWAP1 POP PUSH1 0x0 JUMPDEST DUP9 DUP9 SWAP1 POP DUP2 LT ISZERO PUSH2 0x560 JUMPI PUSH2 0x52E DUP10 DUP10 DUP4 DUP2 DUP2 LT PUSH2 0x4E0 JUMPI PUSH2 0x4DF PUSH2 0x246A JUMP JUMPDEST JUMPDEST SWAP1 POP PUSH1 0x20 MUL ADD PUSH1 0x20 DUP2 ADD SWAP1 PUSH2 0x4F5 SWAP2 SWAP1 PUSH2 0x2499 JUMP JUMPDEST DUP9 DUP9 DUP5 DUP2 DUP2 LT PUSH2 0x508 JUMPI PUSH2 0x507 PUSH2 0x246A JUMP JUMPDEST JUMPDEST SWAP1 POP PUSH1 0x20 MUL ADD CALLDATALOAD DUP8 DUP8 DUP6 DUP2 DUP2 LT PUSH2 0x522 JUMPI PUSH2 0x521 PUSH2 0x246A JUMP JUMPDEST JUMPDEST SWAP1 POP PUSH1 0x20 MUL ADD CALLDATALOAD PUSH2 0x869 JUMP JUMPDEST DUP3 DUP3 DUP2 MLOAD DUP2 LT PUSH2 0x541 JUMPI PUSH2 0x540 PUSH2 0x246A JUMP JUMPDEST JUMPDEST PUSH1 0x20 MUL PUSH1 0x20 ADD ADD DUP2 DUP2 MSTORE POP POP DUP1 DUP1 PUSH2 0x558 SWAP1 PUSH2 0x24F5 JUMP JUMPDEST SWAP2 POP POP PUSH2 0x4BF JUMP JUMPDEST POP DUP1 SWAP2 POP POP SWAP7 SWAP6 POP POP POP POP POP POP JUMP JUMPDEST PUSH1 0x0 DUP1 CALLER SWAP1 POP PUSH2 0x57F DUP13 DUP3 PUSH2 0xE06 JUMP JUMPDEST PUSH2 0x5BE JUMPI PUSH1 0x40 MLOAD PUSH32 0x8C379A000000000000000000000000000000000000000000000000000000000 DUP2 MSTORE PUSH1 0x4 ADD PUSH2 0x5B5 SWAP1 PUSH2 0x25AF JUMP JUMPDEST PUSH1 0x40 MLOAD DUP1 SWAP2 SUB SWAP1 REVERT JUMPDEST PUSH2 0x6D3 DUP2 DUP13 DUP13 DUP13 DUP1 DUP1 PUSH1 0x20 MUL PUSH1 0x20 ADD PUSH1 0x40 MLOAD SWAP1 DUP2 ADD PUSH1 0x40 MSTORE DUP1 SWAP4 SWAP3 SWAP2 SWAP1 DUP2 DUP2 MSTORE PUSH1 0x20 ADD DUP4 DUP4 PUSH1 0x20 MUL DUP1 DUP3 DUP5 CALLDATACOPY PUSH1 0x0 DUP2 DUP5 ADD MSTORE PUSH1 0x1F NOT PUSH1 0x1F DUP3 ADD AND SWAP1 POP DUP1 DUP4 ADD SWAP3 POP POP POP POP POP POP POP DUP12 DUP12 DUP1 DUP1 PUSH1 0x20 MUL PUSH1 0x20 ADD PUSH1 0x40 MLOAD SWAP1 DUP2 ADD PUSH1 0x40 MSTORE DUP1 SWAP4 SWAP3 SWAP2 SWAP1 DUP2 DUP2 MSTORE PUSH1 0x20 ADD DUP4 DUP4 PUSH1 0x20 MUL DUP1 DUP3 DUP5 CALLDATACOPY PUSH1 0x0 DUP2 DUP5 ADD MSTORE PUSH1 0x1F NOT PUSH1 0x1F DUP3 ADD AND SWAP1 POP DUP1 DUP4 ADD SWAP3 POP POP POP POP POP POP POP DUP11 DUP11 DUP1 DUP1 PUSH1 0x20 MUL PUSH1 0x20 ADD PUSH1 0x40 MLOAD SWAP1 DUP2 ADD PUSH1 0x40 MSTORE DUP1 SWAP4 SWAP3 SWAP2 SWAP1 DUP2 DUP2 MSTORE PUSH1 0x20 ADD DUP4 DUP4 PUSH1 0x20 MUL DUP1 DUP3 DUP5 CALLDATACOPY PUSH1 0x0 DUP2 DUP5 ADD MSTORE PUSH1 0x1F NOT PUSH1 0x1F DUP3 ADD AND SWAP1 POP DUP1 DUP4 ADD SWAP3 POP POP POP POP POP POP POP DUP10 DUP10 DUP1 DUP1 PUSH1 0x1F ADD PUSH1 0x20 DUP1 SWAP2 DIV MUL PUSH1 0x20 ADD PUSH1 0x40 MLOAD SWAP1 DUP2 ADD PUSH1 0x40 MSTORE DUP1 SWAP4 SWAP3 SWAP2 SWAP1 DUP2 DUP2 MSTORE PUSH1 0x20 ADD DUP4 DUP4 DUP1 DUP3 DUP5 CALLDATACOPY PUSH1 0x0 DUP2 DUP5 ADD MSTORE PUSH1 0x1F NOT PUSH1 0x1F DUP3 ADD AND SWAP1 POP DUP1 DUP4 ADD SWAP3 POP POP POP POP POP POP POP PUSH2 0xE50 JUMP JUMPDEST POP SWAP11 SWAP10 POP POP POP POP POP POP POP POP POP POP JUMP JUMPDEST PUSH1 0x0 CALLER PUSH20 0xFFFFFFFFFFFFFFFFFFFFFFFFFFFFFFFFFFFFFFFF AND PUSH1 0x2 PUSH1 0x0 SWAP1 SLOAD SWAP1 PUSH2 0x100 EXP SWAP1 DIV PUSH20 0xFFFFFFFFFFFFFFFFFFFFFFFFFFFFFFFFFFFFFFFF AND PUSH20 0xFFFFFFFFFFFFFFFFFFFFFFFFFFFFFFFFFFFFFFFF AND EQ PUSH2 0x774 JUMPI PUSH1 0x40 MLOAD PUSH32 0x8C379A000000000000000000000000000000000000000000000000000000000 DUP2 MSTORE PUSH1 0x4 ADD PUSH2 0x76B SWAP1 PUSH2 0x2641 JUMP JUMPDEST PUSH1 0x40 MLOAD DUP1 SWAP2 SUB SWAP1 REVERT JUMPDEST PUSH1 0x0 PUSH20 0xFFFFFFFFFFFFFFFFFFFFFFFFFFFFFFFFFFFFFFFF AND DUP8 PUSH20 0xFFFFFFFFFFFFFFFFFFFFFFFFFFFFFFFFFFFFFFFF AND SUB PUSH2 0x7E3 JUMPI PUSH1 0x40 MLOAD PUSH32 0x8C379A000000000000000000000000000000000000000000000000000000000 DUP2 MSTORE PUSH1 0x4 ADD PUSH2 0x7DA SWAP1 PUSH2 0x26AD JUMP JUMPDEST PUSH1 0x40 MLOAD DUP1 SWAP2 SUB SWAP1 REVERT JUMPDEST DUP4 PUSH1 0x3 PUSH1 0x0 DUP9 DUP2 MSTORE PUSH1 0x20 ADD SWAP1 DUP2 MSTORE PUSH1 0x20 ADD PUSH1 0x0 KECCAK256 PUSH1 0x0 DUP10 PUSH20 0xFFFFFFFFFFFFFFFFFFFFFFFFFFFFFFFFFFFFFFFF AND PUSH20 0xFFFFFFFFFFFFFFFFFFFFFFFFFFFFFFFFFFFFFFFF AND DUP2 MSTORE PUSH1 0x20 ADD SWAP1 DUP2 MSTORE PUSH1 0x20 ADD PUSH1 0x0 KECCAK256 PUSH1 0x0 DUP8 DUP2 MSTORE PUSH1 0x20 ADD SWAP1 DUP2 MSTORE PUSH1 0x20 ADD PUSH1 0x0 KECCAK256 PUSH1 0x0 DUP3 DUP3 SLOAD PUSH2 0x854 SWAP2 SWAP1 PUSH2 0x26CD JUMP JUMPDEST SWAP3 POP POP DUP2 SWAP1 SSTORE POP PUSH1 0x1 SWAP1 POP SWAP7 SWAP6 POP POP POP POP POP POP JUMP JUMPDEST PUSH1 0x0 PUSH1 0x3 PUSH1 0x0 DUP5 DUP2 MSTORE PUSH1 0x20 ADD SWAP1 DUP2 MSTORE PUSH1 0x20 ADD PUSH1 0x0 KECCAK256 PUSH1 0x0 DUP6 PUSH20 0xFFFFFFFFFFFFFFFFFFFFFFFFFFFFFFFFFFFFFFFF AND PUSH20 0xFFFFFFFFFFFFFFFFFFFFFFFFFFFFFFFFFFFFFFFF AND DUP2 MSTORE PUSH1 0x20 ADD SWAP1 DUP2 MSTORE PUSH1 0x20 ADD PUSH1 0x0 KECCAK256 PUSH1 0x0 DUP4 DUP2 MSTORE PUSH1 0x20 ADD SWAP1 DUP2 MSTORE PUSH1 0x20 ADD PUSH1 0x0 KECCAK256 SLOAD SWAP1 POP SWAP4 SWAP3 POP POP POP JUMP JUMPDEST PUSH1 0x2 PUSH1 0x0 SWAP1 SLOAD SWAP1 PUSH2 0x100 EXP SWAP1 DIV PUSH20 0xFFFFFFFFFFFFFFFFFFFFFFFFFFFFFFFFFFFFFFFF AND DUP2 JUMP JUMPDEST PUSH1 0x0 PUSH1 0x5 PUSH1 0x0 DUP5 PUSH20 0xFFFFFFFFFFFFFFFFFFFFFFFFFFFFFFFFFFFFFFFF AND PUSH20 0xFFFFFFFFFFFFFFFFFFFFFFFFFFFFFFFFFFFFFFFF AND DUP2 MSTORE PUSH1 0x20 ADD SWAP1 DUP2 MSTORE PUSH1 0x20 ADD PUSH1 0x0 KECCAK256 PUSH1 0x0 DUP4 PUSH20 0xFFFFFFFFFFFFFFFFFFFFFFFFFFFFFFFFFFFFFFFF AND PUSH20 0xFFFFFFFFFFFFFFFFFFFFFFFFFFFFFFFFFFFFFFFF AND DUP2 MSTORE PUSH1 0x20 ADD SWAP1 DUP2 MSTORE PUSH1 0x20 ADD PUSH1 0x0 KECCAK256 PUSH1 0x0 SWAP1 SLOAD SWAP1 PUSH2 0x100 EXP SWAP1 DIV PUSH1 0xFF AND SWAP1 POP SWAP3 SWAP2 POP POP JUMP JUMPDEST PUSH1 0x0 CALLER SWAP1 POP PUSH2 0x99F DUP8 DUP3 PUSH2 0xE06 JUMP JUMPDEST PUSH2 0x9B1 JUMPI PUSH2 0x9B0 DUP8 DUP3 DUP8 DUP8 DUP8 PUSH2 0x11F5 JUMP JUMPDEST JUMPDEST PUSH2 0x9BF DUP8 DUP8 DUP8 DUP8 DUP8 DUP8 PUSH2 0x12CB JUMP JUMPDEST POP POP POP POP POP POP POP JUMP JUMPDEST DUP2 PUSH20 0xFFFFFFFFFFFFFFFFFFFFFFFFFFFFFFFFFFFFFFFF AND DUP4 PUSH20 0xFFFFFFFFFFFFFFFFFFFFFFFFFFFFFFFFFFFFFFFF AND SUB PUSH2 0xA36 JUMPI PUSH1 0x40 MLOAD PUSH32 0x8C379A000000000000000000000000000000000000000000000000000000000 DUP2 MSTORE PUSH1 0x4 ADD PUSH2 0xA2D SWAP1 PUSH2 0x274D JUMP JUMPDEST PUSH1 0x40 MLOAD DUP1 SWAP2 SUB SWAP1 REVERT JUMPDEST DUP1 PUSH1 0x5 PUSH1 0x0 DUP6 PUSH20 0xFFFFFFFFFFFFFFFFFFFFFFFFFFFFFFFFFFFFFFFF AND PUSH20 0xFFFFFFFFFFFFFFFFFFFFFFFFFFFFFFFFFFFFFFFF AND DUP2 MSTORE PUSH1 0x20 ADD SWAP1 DUP2 MSTORE PUSH1 0x20 ADD PUSH1 0x0 KECCAK256 PUSH1 0x0 DUP5 PUSH20 0xFFFFFFFFFFFFFFFFFFFFFFFFFFFFFFFFFFFFFFFF AND PUSH20 0xFFFFFFFFFFFFFFFFFFFFFFFFFFFFFFFFFFFFFFFF AND DUP2 MSTORE PUSH1 0x20 ADD SWAP1 DUP2 MSTORE PUSH1 0x20 ADD PUSH1 0x0 KECCAK256 PUSH1 0x0 PUSH2 0x100 EXP DUP2 SLOAD DUP2 PUSH1 0xFF MUL NOT AND SWAP1 DUP4 ISZERO ISZERO MUL OR SWAP1 SSTORE POP DUP2 PUSH20 0xFFFFFFFFFFFFFFFFFFFFFFFFFFFFFFFFFFFFFFFF AND DUP4 PUSH20 0xFFFFFFFFFFFFFFFFFFFFFFFFFFFFFFFFFFFFFFFF AND PUSH32 0x17307EAB39AB6107E8899845AD3D59BD9653F200F220920489CA2B5937696C31 DUP4 PUSH1 0x40 MLOAD PUSH2 0xB27 SWAP2 SWAP1 PUSH2 0x1A90 JUMP JUMPDEST PUSH1 0x40 MLOAD DUP1 SWAP2 SUB SWAP1 LOG3 POP POP POP JUMP JUMPDEST PUSH1 0x0 PUSH1 0x6 PUSH1 0x0 DUP7 PUSH20 0xFFFFFFFFFFFFFFFFFFFFFFFFFFFFFFFFFFFFFFFF AND PUSH20 0xFFFFFFFFFFFFFFFFFFFFFFFFFFFFFFFFFFFFFFFF AND DUP2 MSTORE PUSH1 0x20 ADD SWAP1 DUP2 MSTORE PUSH1 0x20 ADD PUSH1 0x0 KECCAK256 PUSH1 0x0 DUP6 PUSH20 0xFFFFFFFFFFFFFFFFFFFFFFFFFFFFFFFFFFFFFFFF AND PUSH20 0xFFFFFFFFFFFFFFFFFFFFFFFFFFFFFFFFFFFFFFFF AND DUP2 MSTORE PUSH1 0x20 ADD SWAP1 DUP2 MSTORE PUSH1 0x20 ADD PUSH1 0x0 KECCAK256 PUSH1 0x0 DUP5 DUP2 MSTORE PUSH1 0x20 ADD SWAP1 DUP2 MSTORE PUSH1 0x20 ADD PUSH1 0x0 KECCAK256 PUSH1 0x0 DUP4 DUP2 MSTORE PUSH1 0x20 ADD SWAP1 DUP2 MSTORE PUSH1 0x20 ADD PUSH1 0x0 KECCAK256 SLOAD SWAP1 POP SWAP5 SWAP4 POP POP POP POP JUMP JUMPDEST PUSH1 0x0 CALLER SWAP1 POP PUSH2 0xBEE DUP7 DUP3 PUSH2 0xE06 JUMP JUMPDEST PUSH2 0xC00 JUMPI PUSH2 0xBFF DUP7 DUP3 DUP7 DUP7 DUP7 PUSH2 0x11F5 JUMP JUMPDEST JUMPDEST PUSH2 0xC0D DUP7 DUP7 DUP7 DUP7 DUP7 PUSH2 0x132E JUMP JUMPDEST POP POP POP POP POP POP JUMP JUMPDEST PUSH1 0x0 PUSH20 0xFFFFFFFFFFFFFFFFFFFFFFFFFFFFFFFFFFFFFFFF AND DUP6 PUSH20 0xFFFFFFFFFFFFFFFFFFFFFFFFFFFFFFFFFFFFFFFF AND SUB PUSH2 0xC84 JUMPI PUSH1 0x40 MLOAD PUSH32 0x8C379A000000000000000000000000000000000000000000000000000000000 DUP2 MSTORE PUSH1 0x4 ADD PUSH2 0xC7B SWAP1 PUSH2 0x27DF JUMP JUMPDEST PUSH1 0x40 MLOAD DUP1 SWAP2 SUB SWAP1 REVERT JUMPDEST PUSH1 0x0 PUSH20 0xFFFFFFFFFFFFFFFFFFFFFFFFFFFFFFFFFFFFFFFF AND DUP5 PUSH20 0xFFFFFFFFFFFFFFFFFFFFFFFFFFFFFFFFFFFFFFFF AND SUB PUSH2 0xCF3 JUMPI PUSH1 0x40 MLOAD PUSH32 0x8C379A000000000000000000000000000000000000000000000000000000000 DUP2 MSTORE PUSH1 0x4 ADD PUSH2 0xCEA SWAP1 PUSH2 0x27DF JUMP JUMPDEST PUSH1 0x40 MLOAD DUP1 SWAP2 SUB SWAP1 REVERT JUMPDEST DUP1 PUSH1 0x6 PUSH1 0x0 DUP8 PUSH20 0xFFFFFFFFFFFFFFFFFFFFFFFFFFFFFFFFFFFFFFFF AND PUSH20 0xFFFFFFFFFFFFFFFFFFFFFFFFFFFFFFFFFFFFFFFF AND DUP2 MSTORE PUSH1 0x20 ADD SWAP1 DUP2 MSTORE PUSH1 0x20 ADD PUSH1 0x0 KECCAK256 PUSH1 0x0 DUP7 PUSH20 0xFFFFFFFFFFFFFFFFFFFFFFFFFFFFFFFFFFFFFFFF AND PUSH20 0xFFFFFFFFFFFFFFFFFFFFFFFFFFFFFFFFFFFFFFFF AND DUP2 MSTORE PUSH1 0x20 ADD SWAP1 DUP2 MSTORE PUSH1 0x20 ADD PUSH1 0x0 KECCAK256 PUSH1 0x0 DUP6 DUP2 MSTORE PUSH1 0x20 ADD SWAP1 DUP2 MSTORE PUSH1 0x20 ADD PUSH1 0x0 KECCAK256 PUSH1 0x0 DUP5 DUP2 MSTORE PUSH1 0x20 ADD SWAP1 DUP2 MSTORE PUSH1 0x20 ADD PUSH1 0x0 KECCAK256 DUP2 SWAP1 SSTORE POP DUP4 PUSH20 0xFFFFFFFFFFFFFFFFFFFFFFFFFFFFFFFFFFFFFFFF AND DUP6 PUSH20 0xFFFFFFFFFFFFFFFFFFFFFFFFFFFFFFFFFFFFFFFF AND PUSH32 0x3A9C85C6B31F7A9D7FE1478F53E1BE42E85DB97CA30D1789CFEF9196DBC472C9 DUP6 DUP6 DUP6 PUSH1 0x40 MLOAD PUSH2 0xDF7 SWAP4 SWAP3 SWAP2 SWAP1 PUSH2 0x27FF JUMP JUMPDEST PUSH1 0x40 MLOAD DUP1 SWAP2 SUB SWAP1 LOG3 POP POP POP POP POP JUMP JUMPDEST PUSH1 0x0 DUP2 PUSH20 0xFFFFFFFFFFFFFFFFFFFFFFFFFFFFFFFFFFFFFFFF AND DUP4 PUSH20 0xFFFFFFFFFFFFFFFFFFFFFFFFFFFFFFFFFFFFFFFF AND EQ DUP1 PUSH2 0xE48 JUMPI POP PUSH2 0xE47 DUP4 DUP4 PUSH2 0x8FC JUMP JUMPDEST JUMPDEST SWAP1 POP SWAP3 SWAP2 POP POP JUMP JUMPDEST DUP3 MLOAD DUP5 MLOAD EQ DUP1 ISZERO PUSH2 0xE62 JUMPI POP DUP2 MLOAD DUP5 MLOAD EQ JUMPDEST PUSH2 0xEA1 JUMPI PUSH1 0x40 MLOAD PUSH32 0x8C379A000000000000000000000000000000000000000000000000000000000 DUP2 MSTORE PUSH1 0x4 ADD PUSH2 0xE98 SWAP1 PUSH2 0x28A8 JUMP JUMPDEST PUSH1 0x40 MLOAD DUP1 SWAP2 SUB SWAP1 REVERT JUMPDEST PUSH1 0x0 PUSH20 0xFFFFFFFFFFFFFFFFFFFFFFFFFFFFFFFFFFFFFFFF AND DUP6 PUSH20 0xFFFFFFFFFFFFFFFFFFFFFFFFFFFFFFFFFFFFFFFF AND SUB PUSH2 0xF10 JUMPI PUSH1 0x40 MLOAD PUSH32 0x8C379A000000000000000000000000000000000000000000000000000000000 DUP2 MSTORE PUSH1 0x4 ADD PUSH2 0xF07 SWAP1 PUSH2 0x293A JUMP JUMPDEST PUSH1 0x40 MLOAD DUP1 SWAP2 SUB SWAP1 REVERT JUMPDEST PUSH1 0x0 CALLER SWAP1 POP PUSH1 0x0 JUMPDEST DUP6 MLOAD DUP2 LT ISZERO PUSH2 0x111E JUMPI PUSH1 0x0 DUP7 DUP3 DUP2 MLOAD DUP2 LT PUSH2 0xF36 JUMPI PUSH2 0xF35 PUSH2 0x246A JUMP JUMPDEST JUMPDEST PUSH1 0x20 MUL PUSH1 0x20 ADD ADD MLOAD SWAP1 POP PUSH1 0x0 DUP7 DUP4 DUP2 MLOAD DUP2 LT PUSH2 0xF55 JUMPI PUSH2 0xF54 PUSH2 0x246A JUMP JUMPDEST JUMPDEST PUSH1 0x20 MUL PUSH1 0x20 ADD ADD MLOAD SWAP1 POP PUSH1 0x0 DUP7 DUP5 DUP2 MLOAD DUP2 LT PUSH2 0xF74 JUMPI PUSH2 0xF73 PUSH2 0x246A JUMP JUMPDEST JUMPDEST PUSH1 0x20 MUL PUSH1 0x20 ADD ADD MLOAD SWAP1 POP PUSH1 0x0 PUSH1 0x3 PUSH1 0x0 DUP6 DUP2 MSTORE PUSH1 0x20 ADD SWAP1 DUP2 MSTORE PUSH1 0x20 ADD PUSH1 0x0 KECCAK256 PUSH1 0x0 DUP14 PUSH20 0xFFFFFFFFFFFFFFFFFFFFFFFFFFFFFFFFFFFFFFFF AND PUSH20 0xFFFFFFFFFFFFFFFFFFFFFFFFFFFFFFFFFFFFFFFF AND DUP2 MSTORE PUSH1 0x20 ADD SWAP1 DUP2 MSTORE PUSH1 0x20 ADD PUSH1 0x0 KECCAK256 PUSH1 0x0 DUP5 DUP2 MSTORE PUSH1 0x20 ADD SWAP1 DUP2 MSTORE PUSH1 0x20 ADD PUSH1 0x0 KECCAK256 SLOAD SWAP1 POP DUP2 DUP2 LT ISZERO PUSH2 0x1027 JUMPI PUSH1 0x40 MLOAD PUSH32 0x8C379A000000000000000000000000000000000000000000000000000000000 DUP2 MSTORE PUSH1 0x4 ADD PUSH2 0x101E SWAP1 PUSH2 0x29CC JUMP JUMPDEST PUSH1 0x40 MLOAD DUP1 SWAP2 SUB SWAP1 REVERT JUMPDEST DUP2 DUP2 SUB PUSH1 0x3 PUSH1 0x0 DUP7 DUP2 MSTORE PUSH1 0x20 ADD SWAP1 DUP2 MSTORE PUSH1 0x20 ADD PUSH1 0x0 KECCAK256 PUSH1 0x0 DUP15 PUSH20 0xFFFFFFFFFFFFFFFFFFFFFFFFFFFFFFFFFFFFFFFF AND PUSH20 0xFFFFFFFFFFFFFFFFFFFFFFFFFFFFFFFFFFFFFFFF AND DUP2 MSTORE PUSH1 0x20 ADD SWAP1 DUP2 MSTORE PUSH1 0x20 ADD PUSH1 0x0 KECCAK256 PUSH1 0x0 DUP6 DUP2 MSTORE PUSH1 0x20 ADD SWAP1 DUP2 MSTORE PUSH1 0x20 ADD PUSH1 0x0 KECCAK256 DUP2 SWAP1 SSTORE POP DUP2 PUSH1 0x3 PUSH1 0x0 DUP7 DUP2 MSTORE PUSH1 0x20 ADD SWAP1 DUP2 MSTORE PUSH1 0x20 ADD PUSH1 0x0 KECCAK256 PUSH1 0x0 DUP15 PUSH20 0xFFFFFFFFFFFFFFFFFFFFFFFFFFFFFFFFFFFFFFFF AND PUSH20 0xFFFFFFFFFFFFFFFFFFFFFFFFFFFFFFFFFFFFFFFF AND DUP2 MSTORE PUSH1 0x20 ADD SWAP1 DUP2 MSTORE PUSH1 0x20 ADD PUSH1 0x0 KECCAK256 PUSH1 0x0 DUP6 DUP2 MSTORE PUSH1 0x20 ADD SWAP1 DUP2 MSTORE PUSH1 0x20 ADD PUSH1 0x0 KECCAK256 PUSH1 0x0 DUP3 DUP3 SLOAD PUSH2 0x1100 SWAP2 SWAP1 PUSH2 0x26CD JUMP JUMPDEST SWAP3 POP POP DUP2 SWAP1 SSTORE POP POP POP POP POP DUP1 DUP1 PUSH2 0x1116 SWAP1 PUSH2 0x24F5 JUMP JUMPDEST SWAP2 POP POP PUSH2 0xF18 JUMP JUMPDEST POP DUP6 PUSH20 0xFFFFFFFFFFFFFFFFFFFFFFFFFFFFFFFFFFFFFFFF AND DUP8 PUSH20 0xFFFFFFFFFFFFFFFFFFFFFFFFFFFFFFFFFFFFFFFF AND DUP3 PUSH20 0xFFFFFFFFFFFFFFFFFFFFFFFFFFFFFFFFFFFFFFFF AND PUSH32 0xFB75BD3A9B4B3AE2B21DC1A8AAD1D9AB156F8D577B05320C9C84BC98780A3752 DUP9 DUP9 DUP9 PUSH1 0x40 MLOAD PUSH2 0x1197 SWAP4 SWAP3 SWAP2 SWAP1 PUSH2 0x29EC JUMP JUMPDEST PUSH1 0x40 MLOAD DUP1 SWAP2 SUB SWAP1 LOG4 PUSH2 0x11AD DUP8 DUP8 DUP8 DUP8 DUP8 DUP8 PUSH2 0x1640 JUMP JUMPDEST PUSH2 0x11EC JUMPI PUSH1 0x40 MLOAD PUSH32 0x8C379A000000000000000000000000000000000000000000000000000000000 DUP2 MSTORE PUSH1 0x4 ADD PUSH2 0x11E3 SWAP1 PUSH2 0x2AAA JUMP JUMPDEST PUSH1 0x40 MLOAD DUP1 SWAP2 SUB SWAP1 REVERT JUMPDEST POP POP POP POP POP POP POP JUMP JUMPDEST PUSH1 0x0 PUSH2 0x1225 PUSH1 0x2 PUSH1 0x0 SWAP1 SLOAD SWAP1 PUSH2 0x100 EXP SWAP1 DIV PUSH20 0xFFFFFFFFFFFFFFFFFFFFFFFFFFFFFFFFFFFFFFFF AND DUP7 DUP7 DUP7 PUSH2 0xB34 JUMP JUMPDEST SWAP1 POP PUSH32 0xFFFFFFFFFFFFFFFFFFFFFFFFFFFFFFFFFFFFFFFFFFFFFFFFFFFFFFFFFFFFFFFF DUP2 EQ PUSH2 0x12C3 JUMPI DUP2 DUP2 LT ISZERO PUSH2 0x1291 JUMPI PUSH1 0x40 MLOAD PUSH32 0x8C379A000000000000000000000000000000000000000000000000000000000 DUP2 MSTORE PUSH1 0x4 ADD PUSH2 0x1288 SWAP1 PUSH2 0x2B16 JUMP JUMPDEST PUSH1 0x40 MLOAD DUP1 SWAP2 SUB SWAP1 REVERT JUMPDEST PUSH2 0x12C2 PUSH1 0x2 PUSH1 0x0 SWAP1 SLOAD SWAP1 PUSH2 0x100 EXP SWAP1 DIV PUSH20 0xFFFFFFFFFFFFFFFFFFFFFFFFFFFFFFFFFFFFFFFF AND DUP7 DUP7 DUP7 DUP7 DUP7 SUB PUSH2 0xC15 JUMP JUMPDEST JUMPDEST POP POP POP POP POP POP JUMP JUMPDEST PUSH2 0x12D8 DUP7 DUP7 DUP7 DUP7 DUP7 PUSH2 0x132E JUMP JUMPDEST PUSH2 0x12E7 PUSH1 0x0 DUP7 DUP7 DUP7 DUP7 DUP7 PUSH2 0x17C1 JUMP JUMPDEST PUSH2 0x1326 JUMPI PUSH1 0x40 MLOAD PUSH32 0x8C379A000000000000000000000000000000000000000000000000000000000 DUP2 MSTORE PUSH1 0x4 ADD PUSH2 0x131D SWAP1 PUSH2 0x2BA8 JUMP JUMPDEST PUSH1 0x40 MLOAD DUP1 SWAP2 SUB SWAP1 REVERT JUMPDEST POP POP POP POP POP POP JUMP JUMPDEST PUSH1 0x0 PUSH20 0xFFFFFFFFFFFFFFFFFFFFFFFFFFFFFFFFFFFFFFFF AND DUP6 PUSH20 0xFFFFFFFFFFFFFFFFFFFFFFFFFFFFFFFFFFFFFFFF AND SUB PUSH2 0x139D JUMPI PUSH1 0x40 MLOAD PUSH32 0x8C379A000000000000000000000000000000000000000000000000000000000 DUP2 MSTORE PUSH1 0x4 ADD PUSH2 0x1394 SWAP1 PUSH2 0x2C3A JUMP JUMPDEST PUSH1 0x40 MLOAD DUP1 SWAP2 SUB SWAP1 REVERT JUMPDEST PUSH1 0x0 PUSH20 0xFFFFFFFFFFFFFFFFFFFFFFFFFFFFFFFFFFFFFFFF AND DUP5 PUSH20 0xFFFFFFFFFFFFFFFFFFFFFFFFFFFFFFFFFFFFFFFF AND SUB PUSH2 0x140C JUMPI PUSH1 0x40 MLOAD PUSH32 0x8C379A000000000000000000000000000000000000000000000000000000000 DUP2 MSTORE PUSH1 0x4 ADD PUSH2 0x1403 SWAP1 PUSH2 0x2CCC JUMP JUMPDEST PUSH1 0x40 MLOAD DUP1 SWAP2 SUB SWAP1 REVERT JUMPDEST PUSH2 0x1429 DUP6 DUP6 DUP6 DUP6 DUP6 PUSH1 0x40 MLOAD DUP1 PUSH1 0x20 ADD PUSH1 0x40 MSTORE DUP1 PUSH1 0x0 DUP2 MSTORE POP PUSH2 0x1942 JUMP JUMPDEST DUP1 PUSH1 0x3 PUSH1 0x0 DUP6 DUP2 MSTORE PUSH1 0x20 ADD SWAP1 DUP2 MSTORE PUSH1 0x20 ADD PUSH1 0x0 KECCAK256 PUSH1 0x0 DUP8 PUSH20 0xFFFFFFFFFFFFFFFFFFFFFFFFFFFFFFFFFFFFFFFF AND PUSH20 0xFFFFFFFFFFFFFFFFFFFFFFFFFFFFFFFFFFFFFFFF AND DUP2 MSTORE PUSH1 0x20 ADD SWAP1 DUP2 MSTORE PUSH1 0x20 ADD PUSH1 0x0 KECCAK256 PUSH1 0x0 DUP5 DUP2 MSTORE PUSH1 0x20 ADD SWAP1 DUP2 MSTORE PUSH1 0x20 ADD PUSH1 0x0 KECCAK256 SLOAD LT ISZERO PUSH2 0x14CD JUMPI PUSH1 0x40 MLOAD PUSH32 0x8C379A000000000000000000000000000000000000000000000000000000000 DUP2 MSTORE PUSH1 0x4 ADD PUSH2 0x14C4 SWAP1 PUSH2 0x2D5E JUMP JUMPDEST PUSH1 0x40 MLOAD DUP1 SWAP2 SUB SWAP1 REVERT JUMPDEST DUP1 PUSH1 0x3 PUSH1 0x0 DUP6 DUP2 MSTORE PUSH1 0x20 ADD SWAP1 DUP2 MSTORE PUSH1 0x20 ADD PUSH1 0x0 KECCAK256 PUSH1 0x0 DUP8 PUSH20 0xFFFFFFFFFFFFFFFFFFFFFFFFFFFFFFFFFFFFFFFF AND PUSH20 0xFFFFFFFFFFFFFFFFFFFFFFFFFFFFFFFFFFFFFFFF AND DUP2 MSTORE PUSH1 0x20 ADD SWAP1 DUP2 MSTORE PUSH1 0x20 ADD PUSH1 0x0 KECCAK256 PUSH1 0x0 DUP5 DUP2 MSTORE PUSH1 0x20 ADD SWAP1 DUP2 MSTORE PUSH1 0x20 ADD PUSH1 0x0 KECCAK256 PUSH1 0x0 DUP3 DUP3 SLOAD SUB SWAP3 POP POP DUP2 SWAP1 SSTORE POP DUP1 PUSH1 0x3 PUSH1 0x0 DUP6 DUP2 MSTORE PUSH1 0x20 ADD SWAP1 DUP2 MSTORE PUSH1 0x20 ADD PUSH1 0x0 KECCAK256 PUSH1 0x0 DUP7 PUSH20 0xFFFFFFFFFFFFFFFFFFFFFFFFFFFFFFFFFFFFFFFF AND PUSH20 0xFFFFFFFFFFFFFFFFFFFFFFFFFFFFFFFFFFFFFFFF AND DUP2 MSTORE PUSH1 0x20 ADD SWAP1 DUP2 MSTORE PUSH1 0x20 ADD PUSH1 0x0 KECCAK256 PUSH1 0x0 DUP5 DUP2 MSTORE PUSH1 0x20 ADD SWAP1 DUP2 MSTORE PUSH1 0x20 ADD PUSH1 0x0 KECCAK256 PUSH1 0x0 DUP3 DUP3 SLOAD PUSH2 0x15AD SWAP2 SWAP1 PUSH2 0x26CD JUMP JUMPDEST SWAP3 POP POP DUP2 SWAP1 SSTORE POP DUP3 DUP5 PUSH20 0xFFFFFFFFFFFFFFFFFFFFFFFFFFFFFFFFFFFFFFFF AND DUP7 PUSH20 0xFFFFFFFFFFFFFFFFFFFFFFFFFFFFFFFFFFFFFFFF AND PUSH32 0xC817D75DEAA278E988C41CF549EF38FE195AB65E0E64CD67BA47F0D185690D58 DUP6 DUP6 PUSH1 0x40 MLOAD PUSH2 0x1614 SWAP3 SWAP2 SWAP1 PUSH2 0x2D7E JUMP JUMPDEST PUSH1 0x40 MLOAD DUP1 SWAP2 SUB SWAP1 LOG4 PUSH2 0x1639 DUP6 DUP6 DUP6 DUP6 DUP6 PUSH1 0x40 MLOAD DUP1 PUSH1 0x20 ADD PUSH1 0x40 MSTORE DUP1 PUSH1 0x0 DUP2 MSTORE POP PUSH2 0x194A JUMP JUMPDEST POP POP POP POP POP JUMP JUMPDEST PUSH1 0x0 DUP1 DUP7 PUSH20 0xFFFFFFFFFFFFFFFFFFFFFFFFFFFFFFFFFFFFFFFF AND EXTCODESIZE GT ISZERO PUSH2 0x17B2 JUMPI DUP6 PUSH20 0xFFFFFFFFFFFFFFFFFFFFFFFFFFFFFFFFFFFFFFFF AND PUSH4 0xC20F1E19 CALLER DUP10 DUP9 DUP9 DUP9 DUP9 PUSH1 0x40 MLOAD DUP8 PUSH4 0xFFFFFFFF AND PUSH1 0xE0 SHL DUP2 MSTORE PUSH1 0x4 ADD PUSH2 0x16A4 SWAP7 SWAP6 SWAP5 SWAP4 SWAP3 SWAP2 SWAP1 PUSH2 0x2E26 JUMP JUMPDEST PUSH1 0x20 PUSH1 0x40 MLOAD DUP1 DUP4 SUB DUP2 PUSH1 0x0 DUP8 GAS CALL SWAP3 POP POP POP DUP1 ISZERO PUSH2 0x16E0 JUMPI POP PUSH1 0x40 MLOAD RETURNDATASIZE PUSH1 0x1F NOT PUSH1 0x1F DUP3 ADD AND DUP3 ADD DUP1 PUSH1 0x40 MSTORE POP DUP2 ADD SWAP1 PUSH2 0x16DD SWAP2 SWAP1 PUSH2 0x2EFB JUMP JUMPDEST PUSH1 0x1 JUMPDEST PUSH2 0x1762 JUMPI RETURNDATASIZE DUP1 PUSH1 0x0 DUP2 EQ PUSH2 0x1710 JUMPI PUSH1 0x40 MLOAD SWAP2 POP PUSH1 0x1F NOT PUSH1 0x3F RETURNDATASIZE ADD AND DUP3 ADD PUSH1 0x40 MSTORE RETURNDATASIZE DUP3 MSTORE RETURNDATASIZE PUSH1 0x0 PUSH1 0x20 DUP5 ADD RETURNDATACOPY PUSH2 0x1715 JUMP JUMPDEST PUSH1 0x60 SWAP2 POP JUMPDEST POP PUSH1 0x0 DUP2 MLOAD SUB PUSH2 0x175A JUMPI PUSH1 0x40 MLOAD PUSH32 0x8C379A000000000000000000000000000000000000000000000000000000000 DUP2 MSTORE PUSH1 0x4 ADD PUSH2 0x1751 SWAP1 PUSH2 0x2AAA JUMP JUMPDEST PUSH1 0x40 MLOAD DUP1 SWAP2 SUB SWAP1 REVERT JUMPDEST DUP1 MLOAD DUP2 PUSH1 0x20 ADD REVERT JUMPDEST PUSH4 0xC20F1E19 PUSH1 0xE0 SHL PUSH28 0xFFFFFFFFFFFFFFFFFFFFFFFFFFFFFFFFFFFFFFFFFFFFFFFFFFFFFFFF NOT AND DUP2 PUSH28 0xFFFFFFFFFFFFFFFFFFFFFFFFFFFFFFFFFFFFFFFFFFFFFFFFFFFFFFFF NOT AND EQ SWAP2 POP POP PUSH2 0x17B7 JUMP JUMPDEST PUSH1 0x1 SWAP1 POP JUMPDEST SWAP7 SWAP6 POP POP POP POP POP POP JUMP JUMPDEST PUSH1 0x0 DUP1 DUP7 PUSH20 0xFFFFFFFFFFFFFFFFFFFFFFFFFFFFFFFFFFFFFFFF AND EXTCODESIZE GT ISZERO PUSH2 0x1933 JUMPI DUP6 PUSH20 0xFFFFFFFFFFFFFFFFFFFFFFFFFFFFFFFFFFFFFFFF AND PUSH4 0x19A36752 CALLER DUP10 DUP9 DUP9 DUP9 DUP9 PUSH1 0x40 MLOAD DUP8 PUSH4 0xFFFFFFFF AND PUSH1 0xE0 SHL DUP2 MSTORE PUSH1 0x4 ADD PUSH2 0x1825 SWAP7 SWAP6 SWAP5 SWAP4 SWAP3 SWAP2 SWAP1 PUSH2 0x2F28 JUMP JUMPDEST PUSH1 0x20 PUSH1 0x40 MLOAD DUP1 DUP4 SUB DUP2 PUSH1 0x0 DUP8 GAS CALL SWAP3 POP POP POP DUP1 ISZERO PUSH2 0x1861 JUMPI POP PUSH1 0x40 MLOAD RETURNDATASIZE PUSH1 0x1F NOT PUSH1 0x1F DUP3 ADD AND DUP3 ADD DUP1 PUSH1 0x40 MSTORE POP DUP2 ADD SWAP1 PUSH2 0x185E SWAP2 SWAP1 PUSH2 0x2EFB JUMP JUMPDEST PUSH1 0x1 JUMPDEST PUSH2 0x18E3 JUMPI RETURNDATASIZE DUP1 PUSH1 0x0 DUP2 EQ PUSH2 0x1891 JUMPI PUSH1 0x40 MLOAD SWAP2 POP PUSH1 0x1F NOT PUSH1 0x3F RETURNDATASIZE ADD AND DUP3 ADD PUSH1 0x40 MSTORE RETURNDATASIZE DUP3 MSTORE RETURNDATASIZE PUSH1 0x0 PUSH1 0x20 DUP5 ADD RETURNDATACOPY PUSH2 0x1896 JUMP JUMPDEST PUSH1 0x60 SWAP2 POP JUMPDEST POP PUSH1 0x0 DUP2 MLOAD SUB PUSH2 0x18DB JUMPI PUSH1 0x40 MLOAD PUSH32 0x8C379A000000000000000000000000000000000000000000000000000000000 DUP2 MSTORE PUSH1 0x4 ADD PUSH2 0x18D2 SWAP1 PUSH2 0x2BA8 JUMP JUMPDEST PUSH1 0x40 MLOAD DUP1 SWAP2 SUB SWAP1 REVERT JUMPDEST DUP1 MLOAD DUP2 PUSH1 0x20 ADD REVERT JUMPDEST PUSH4 0x19A36752 PUSH1 0xE0 SHL PUSH28 0xFFFFFFFFFFFFFFFFFFFFFFFFFFFFFFFFFFFFFFFFFFFFFFFFFFFFFFFF NOT AND DUP2 PUSH28 0xFFFFFFFFFFFFFFFFFFFFFFFFFFFFFFFFFFFFFFFFFFFFFFFFFFFFFFFF NOT AND EQ SWAP2 POP POP PUSH2 0x1938 JUMP JUMPDEST PUSH1 0x1 SWAP1 POP JUMPDEST SWAP7 SWAP6 POP POP POP POP POP POP JUMP JUMPDEST POP POP POP POP POP POP JUMP JUMPDEST POP POP POP POP POP POP JUMP JUMPDEST PUSH1 0x0 PUSH1 0x40 MLOAD SWAP1 POP SWAP1 JUMP JUMPDEST PUSH1 0x0 DUP1 REVERT JUMPDEST PUSH1 0x0 DUP1 REVERT JUMPDEST PUSH1 0x0 PUSH20 0xFFFFFFFFFFFFFFFFFFFFFFFFFFFFFFFFFFFFFFFF DUP3 AND SWAP1 POP SWAP2 SWAP1 POP JUMP JUMPDEST PUSH1 0x0 PUSH2 0x1991 DUP3 PUSH2 0x1966 JUMP JUMPDEST SWAP1 POP SWAP2 SWAP1 POP JUMP JUMPDEST PUSH2 0x19A1 DUP2 PUSH2 0x1986 JUMP JUMPDEST DUP2 EQ PUSH2 0x19AC JUMPI PUSH1 0x0 DUP1 REVERT JUMPDEST POP JUMP JUMPDEST PUSH1 0x0 DUP2 CALLDATALOAD SWAP1 POP PUSH2 0x19BE DUP2 PUSH2 0x1998 JUMP JUMPDEST SWAP3 SWAP2 POP POP JUMP JUMPDEST PUSH1 0x0 DUP2 SWAP1 POP SWAP2 SWAP1 POP JUMP JUMPDEST PUSH2 0x19D7 DUP2 PUSH2 0x19C4 JUMP JUMPDEST DUP2 EQ PUSH2 0x19E2 JUMPI PUSH1 0x0 DUP1 REVERT JUMPDEST POP JUMP JUMPDEST PUSH1 0x0 DUP2 CALLDATALOAD SWAP1 POP PUSH2 0x19F4 DUP2 PUSH2 0x19CE JUMP JUMPDEST SWAP3 SWAP2 POP POP JUMP JUMPDEST PUSH1 0x0 DUP1 PUSH1 0x0 DUP1 PUSH1 0x0 PUSH1 0xA0 DUP7 DUP9 SUB SLT ISZERO PUSH2 0x1A16 JUMPI PUSH2 0x1A15 PUSH2 0x195C JUMP JUMPDEST JUMPDEST PUSH1 0x0 PUSH2 0x1A24 DUP9 DUP3 DUP10 ADD PUSH2 0x19AF JUMP JUMPDEST SWAP6 POP POP PUSH1 0x20 PUSH2 0x1A35 DUP9 DUP3 DUP10 ADD PUSH2 0x19AF JUMP JUMPDEST SWAP5 POP POP PUSH1 0x40 PUSH2 0x1A46 DUP9 DUP3 DUP10 ADD PUSH2 0x19E5 JUMP JUMPDEST SWAP4 POP POP PUSH1 0x60 PUSH2 0x1A57 DUP9 DUP3 DUP10 ADD PUSH2 0x19E5 JUMP JUMPDEST SWAP3 POP POP PUSH1 0x80 PUSH2 0x1A68 DUP9 DUP3 DUP10 ADD PUSH2 0x19E5 JUMP JUMPDEST SWAP2 POP POP SWAP3 SWAP6 POP SWAP3 SWAP6 SWAP1 SWAP4 POP JUMP JUMPDEST PUSH1 0x0 DUP2 ISZERO ISZERO SWAP1 POP SWAP2 SWAP1 POP JUMP JUMPDEST PUSH2 0x1A8A DUP2 PUSH2 0x1A75 JUMP JUMPDEST DUP3 MSTORE POP POP JUMP JUMPDEST PUSH1 0x0 PUSH1 0x20 DUP3 ADD SWAP1 POP PUSH2 0x1AA5 PUSH1 0x0 DUP4 ADD DUP5 PUSH2 0x1A81 JUMP JUMPDEST SWAP3 SWAP2 POP POP JUMP JUMPDEST PUSH2 0x1AB4 DUP2 PUSH2 0x1A75 JUMP JUMPDEST DUP2 EQ PUSH2 0x1ABF JUMPI PUSH1 0x0 DUP1 REVERT JUMPDEST POP JUMP JUMPDEST PUSH1 0x0 DUP2 CALLDATALOAD SWAP1 POP PUSH2 0x1AD1 DUP2 PUSH2 0x1AAB JUMP JUMPDEST SWAP3 SWAP2 POP POP JUMP JUMPDEST PUSH1 0x0 DUP1 PUSH1 0x40 DUP4 DUP6 SUB SLT ISZERO PUSH2 0x1AEE JUMPI PUSH2 0x1AED PUSH2 0x195C JUMP JUMPDEST JUMPDEST PUSH1 0x0 PUSH2 0x1AFC DUP6 DUP3 DUP7 ADD PUSH2 0x19AF JUMP JUMPDEST SWAP3 POP POP PUSH1 0x20 PUSH2 0x1B0D DUP6 DUP3 DUP7 ADD PUSH2 0x1AC2 JUMP JUMPDEST SWAP2 POP POP SWAP3 POP SWAP3 SWAP1 POP JUMP JUMPDEST PUSH1 0x0 DUP1 PUSH1 0x0 DUP1 PUSH1 0x80 DUP6 DUP8 SUB SLT ISZERO PUSH2 0x1B31 JUMPI PUSH2 0x1B30 PUSH2 0x195C JUMP JUMPDEST JUMPDEST PUSH1 0x0 PUSH2 0x1B3F DUP8 DUP3 DUP9 ADD PUSH2 0x19AF JUMP JUMPDEST SWAP5 POP POP PUSH1 0x20 PUSH2 0x1B50 DUP8 DUP3 DUP9 ADD PUSH2 0x19AF JUMP JUMPDEST SWAP4 POP POP PUSH1 0x40 PUSH2 0x1B61 DUP8 DUP3 DUP9 ADD PUSH2 0x19E5 JUMP JUMPDEST SWAP3 POP POP PUSH1 0x60 PUSH2 0x1B72 DUP8 DUP3 DUP9 ADD PUSH2 0x19E5 JUMP JUMPDEST SWAP2 POP POP SWAP3 SWAP6 SWAP2 SWAP5 POP SWAP3 POP JUMP JUMPDEST PUSH2 0x1B87 DUP2 PUSH2 0x19C4 JUMP JUMPDEST DUP3 MSTORE POP POP JUMP JUMPDEST PUSH1 0x0 PUSH1 0x20 DUP3 ADD SWAP1 POP PUSH2 0x1BA2 PUSH1 0x0 DUP4 ADD DUP5 PUSH2 0x1B7E JUMP JUMPDEST SWAP3 SWAP2 POP POP JUMP JUMPDEST PUSH1 0x0 DUP1 REVERT JUMPDEST PUSH1 0x0 DUP1 REVERT JUMPDEST PUSH1 0x0 PUSH1 0x1F NOT PUSH1 0x1F DUP4 ADD AND SWAP1 POP SWAP2 SWAP1 POP JUMP JUMPDEST PUSH32 0x4E487B7100000000000000000000000000000000000000000000000000000000 PUSH1 0x0 MSTORE PUSH1 0x41 PUSH1 0x4 MSTORE PUSH1 0x24 PUSH1 0x0 REVERT JUMPDEST PUSH2 0x1BFB DUP3 PUSH2 0x1BB2 JUMP JUMPDEST DUP2 ADD DUP2 DUP2 LT PUSH8 0xFFFFFFFFFFFFFFFF DUP3 GT OR ISZERO PUSH2 0x1C1A JUMPI PUSH2 0x1C19 PUSH2 0x1BC3 JUMP JUMPDEST JUMPDEST DUP1 PUSH1 0x40 MSTORE POP POP POP JUMP JUMPDEST PUSH1 0x0 PUSH2 0x1C2D PUSH2 0x1952 JUMP JUMPDEST SWAP1 POP PUSH2 0x1C39 DUP3 DUP3 PUSH2 0x1BF2 JUMP JUMPDEST SWAP2 SWAP1 POP JUMP JUMPDEST PUSH1 0x0 PUSH8 0xFFFFFFFFFFFFFFFF DUP3 GT ISZERO PUSH2 0x1C59 JUMPI PUSH2 0x1C58 PUSH2 0x1BC3 JUMP JUMPDEST JUMPDEST PUSH2 0x1C62 DUP3 PUSH2 0x1BB2 JUMP JUMPDEST SWAP1 POP PUSH1 0x20 DUP2 ADD SWAP1 POP SWAP2 SWAP1 POP JUMP JUMPDEST DUP3 DUP2 DUP4 CALLDATACOPY PUSH1 0x0 DUP4 DUP4 ADD MSTORE POP POP POP JUMP JUMPDEST PUSH1 0x0 PUSH2 0x1C91 PUSH2 0x1C8C DUP5 PUSH2 0x1C3E JUMP JUMPDEST PUSH2 0x1C23 JUMP JUMPDEST SWAP1 POP DUP3 DUP2 MSTORE PUSH1 0x20 DUP2 ADD DUP5 DUP5 DUP5 ADD GT ISZERO PUSH2 0x1CAD JUMPI PUSH2 0x1CAC PUSH2 0x1BAD JUMP JUMPDEST JUMPDEST PUSH2 0x1CB8 DUP5 DUP3 DUP6 PUSH2 0x1C6F JUMP JUMPDEST POP SWAP4 SWAP3 POP POP POP JUMP JUMPDEST PUSH1 0x0 DUP3 PUSH1 0x1F DUP4 ADD SLT PUSH2 0x1CD5 JUMPI PUSH2 0x1CD4 PUSH2 0x1BA8 JUMP JUMPDEST JUMPDEST DUP2 CALLDATALOAD PUSH2 0x1CE5 DUP5 DUP3 PUSH1 0x20 DUP7 ADD PUSH2 0x1C7E JUMP JUMPDEST SWAP2 POP POP SWAP3 SWAP2 POP POP JUMP JUMPDEST PUSH1 0x0 DUP1 PUSH1 0x0 DUP1 PUSH1 0x0 DUP1 PUSH1 0xC0 DUP8 DUP10 SUB SLT ISZERO PUSH2 0x1D0B JUMPI PUSH2 0x1D0A PUSH2 0x195C JUMP JUMPDEST JUMPDEST PUSH1 0x0 PUSH2 0x1D19 DUP10 DUP3 DUP11 ADD PUSH2 0x19AF JUMP JUMPDEST SWAP7 POP POP PUSH1 0x20 PUSH2 0x1D2A DUP10 DUP3 DUP11 ADD PUSH2 0x19AF JUMP JUMPDEST SWAP6 POP POP PUSH1 0x40 PUSH2 0x1D3B DUP10 DUP3 DUP11 ADD PUSH2 0x19E5 JUMP JUMPDEST SWAP5 POP POP PUSH1 0x60 PUSH2 0x1D4C DUP10 DUP3 DUP11 ADD PUSH2 0x19E5 JUMP JUMPDEST SWAP4 POP POP PUSH1 0x80 PUSH2 0x1D5D DUP10 DUP3 DUP11 ADD PUSH2 0x19E5 JUMP JUMPDEST SWAP3 POP POP PUSH1 0xA0 DUP8 ADD CALLDATALOAD PUSH8 0xFFFFFFFFFFFFFFFF DUP2 GT ISZERO PUSH2 0x1D7E JUMPI PUSH2 0x1D7D PUSH2 0x1961 JUMP JUMPDEST JUMPDEST PUSH2 0x1D8A DUP10 DUP3 DUP11 ADD PUSH2 0x1CC0 JUMP JUMPDEST SWAP2 POP POP SWAP3 SWAP6 POP SWAP3 SWAP6 POP SWAP3 SWAP6 JUMP JUMPDEST PUSH1 0x0 DUP1 PUSH1 0x0 DUP1 PUSH1 0x80 DUP6 DUP8 SUB SLT ISZERO PUSH2 0x1DB1 JUMPI PUSH2 0x1DB0 PUSH2 0x195C JUMP JUMPDEST JUMPDEST PUSH1 0x0 PUSH2 0x1DBF DUP8 DUP3 DUP9 ADD PUSH2 0x19AF JUMP JUMPDEST SWAP5 POP POP PUSH1 0x20 PUSH2 0x1DD0 DUP8 DUP3 DUP9 ADD PUSH2 0x19E5 JUMP JUMPDEST SWAP4 POP POP PUSH1 0x40 PUSH2 0x1DE1 DUP8 DUP3 DUP9 ADD PUSH2 0x19E5 JUMP JUMPDEST SWAP3 POP POP PUSH1 0x60 PUSH2 0x1DF2 DUP8 DUP3 DUP9 ADD PUSH2 0x19E5 JUMP JUMPDEST SWAP2 POP POP SWAP3 SWAP6 SWAP2 SWAP5 POP SWAP3 POP JUMP JUMPDEST PUSH1 0x0 DUP1 REVERT JUMPDEST PUSH1 0x0 DUP1 REVERT JUMPDEST PUSH1 0x0 DUP1 DUP4 PUSH1 0x1F DUP5 ADD SLT PUSH2 0x1E1E JUMPI PUSH2 0x1E1D PUSH2 0x1BA8 JUMP JUMPDEST JUMPDEST DUP3 CALLDATALOAD SWAP1 POP PUSH8 0xFFFFFFFFFFFFFFFF DUP2 GT ISZERO PUSH2 0x1E3B JUMPI PUSH2 0x1E3A PUSH2 0x1DFE JUMP JUMPDEST JUMPDEST PUSH1 0x20 DUP4 ADD SWAP2 POP DUP4 PUSH1 0x20 DUP3 MUL DUP4 ADD GT ISZERO PUSH2 0x1E57 JUMPI PUSH2 0x1E56 PUSH2 0x1E03 JUMP JUMPDEST JUMPDEST SWAP3 POP SWAP3 SWAP1 POP JUMP JUMPDEST PUSH1 0x0 DUP1 DUP4 PUSH1 0x1F DUP5 ADD SLT PUSH2 0x1E74 JUMPI PUSH2 0x1E73 PUSH2 0x1BA8 JUMP JUMPDEST JUMPDEST DUP3 CALLDATALOAD SWAP1 POP PUSH8 0xFFFFFFFFFFFFFFFF DUP2 GT ISZERO PUSH2 0x1E91 JUMPI PUSH2 0x1E90 PUSH2 0x1DFE JUMP JUMPDEST JUMPDEST PUSH1 0x20 DUP4 ADD SWAP2 POP DUP4 PUSH1 0x20 DUP3 MUL DUP4 ADD GT ISZERO PUSH2 0x1EAD JUMPI PUSH2 0x1EAC PUSH2 0x1E03 JUMP JUMPDEST JUMPDEST SWAP3 POP SWAP3 SWAP1 POP JUMP JUMPDEST PUSH1 0x0 DUP1 PUSH1 0x0 DUP1 PUSH1 0x0 DUP1 PUSH1 0x60 DUP8 DUP10 SUB SLT ISZERO PUSH2 0x1ED1 JUMPI PUSH2 0x1ED0 PUSH2 0x195C JUMP JUMPDEST JUMPDEST PUSH1 0x0 DUP8 ADD CALLDATALOAD PUSH8 0xFFFFFFFFFFFFFFFF DUP2 GT ISZERO PUSH2 0x1EEF JUMPI PUSH2 0x1EEE PUSH2 0x1961 JUMP JUMPDEST JUMPDEST PUSH2 0x1EFB DUP10 DUP3 DUP11 ADD PUSH2 0x1E08 JUMP JUMPDEST SWAP7 POP SWAP7 POP POP PUSH1 0x20 DUP8 ADD CALLDATALOAD PUSH8 0xFFFFFFFFFFFFFFFF DUP2 GT ISZERO PUSH2 0x1F1E JUMPI PUSH2 0x1F1D PUSH2 0x1961 JUMP JUMPDEST JUMPDEST PUSH2 0x1F2A DUP10 DUP3 DUP11 ADD PUSH2 0x1E5E JUMP JUMPDEST SWAP5 POP SWAP5 POP POP PUSH1 0x40 DUP8 ADD CALLDATALOAD PUSH8 0xFFFFFFFFFFFFFFFF DUP2 GT ISZERO PUSH2 0x1F4D JUMPI PUSH2 0x1F4C PUSH2 0x1961 JUMP JUMPDEST JUMPDEST PUSH2 0x1F59 DUP10 DUP3 DUP11 ADD PUSH2 0x1E5E JUMP JUMPDEST SWAP3 POP SWAP3 POP POP SWAP3 SWAP6 POP SWAP3 SWAP6 POP SWAP3 SWAP6 JUMP JUMPDEST PUSH1 0x0 DUP2 MLOAD SWAP1 POP SWAP2 SWAP1 POP JUMP JUMPDEST PUSH1 0x0 DUP3 DUP3 MSTORE PUSH1 0x20 DUP3 ADD SWAP1 POP SWAP3 SWAP2 POP POP JUMP JUMPDEST PUSH1 0x0 DUP2 SWAP1 POP PUSH1 0x20 DUP3 ADD SWAP1 POP SWAP2 SWAP1 POP JUMP JUMPDEST PUSH2 0x1F9D DUP2 PUSH2 0x19C4 JUMP JUMPDEST DUP3 MSTORE POP POP JUMP JUMPDEST PUSH1 0x0 PUSH2 0x1FAF DUP4 DUP4 PUSH2 0x1F94 JUMP JUMPDEST PUSH1 0x20 DUP4 ADD SWAP1 POP SWAP3 SWAP2 POP POP JUMP JUMPDEST PUSH1 0x0 PUSH1 0x20 DUP3 ADD SWAP1 POP SWAP2 SWAP1 POP JUMP JUMPDEST PUSH1 0x0 PUSH2 0x1FD3 DUP3 PUSH2 0x1F68 JUMP JUMPDEST PUSH2 0x1FDD DUP2 DUP6 PUSH2 0x1F73 JUMP JUMPDEST SWAP4 POP PUSH2 0x1FE8 DUP4 PUSH2 0x1F84 JUMP JUMPDEST DUP1 PUSH1 0x0 JUMPDEST DUP4 DUP2 LT ISZERO PUSH2 0x2019 JUMPI DUP2 MLOAD PUSH2 0x2000 DUP9 DUP3 PUSH2 0x1FA3 JUMP JUMPDEST SWAP8 POP PUSH2 0x200B DUP4 PUSH2 0x1FBB JUMP JUMPDEST SWAP3 POP POP PUSH1 0x1 DUP2 ADD SWAP1 POP PUSH2 0x1FEC JUMP JUMPDEST POP DUP6 SWAP4 POP POP POP POP SWAP3 SWAP2 POP POP JUMP JUMPDEST PUSH1 0x0 PUSH1 0x20 DUP3 ADD SWAP1 POP DUP2 DUP2 SUB PUSH1 0x0 DUP4 ADD MSTORE PUSH2 0x2040 DUP2 DUP5 PUSH2 0x1FC8 JUMP JUMPDEST SWAP1 POP SWAP3 SWAP2 POP POP JUMP JUMPDEST PUSH1 0x0 DUP1 DUP4 PUSH1 0x1F DUP5 ADD SLT PUSH2 0x205E JUMPI PUSH2 0x205D PUSH2 0x1BA8 JUMP JUMPDEST JUMPDEST DUP3 CALLDATALOAD SWAP1 POP PUSH8 0xFFFFFFFFFFFFFFFF DUP2 GT ISZERO PUSH2 0x207B JUMPI PUSH2 0x207A PUSH2 0x1DFE JUMP JUMPDEST JUMPDEST PUSH1 0x20 DUP4 ADD SWAP2 POP DUP4 PUSH1 0x1 DUP3 MUL DUP4 ADD GT ISZERO PUSH2 0x2097 JUMPI PUSH2 0x2096 PUSH2 0x1E03 JUMP JUMPDEST JUMPDEST SWAP3 POP SWAP3 SWAP1 POP JUMP JUMPDEST PUSH1 0x0 DUP1 PUSH1 0x0 DUP1 PUSH1 0x0 DUP1 PUSH1 0x0 DUP1 PUSH1 0x0 DUP1 PUSH1 0xC0 DUP12 DUP14 SUB SLT ISZERO PUSH2 0x20C1 JUMPI PUSH2 0x20C0 PUSH2 0x195C JUMP JUMPDEST JUMPDEST PUSH1 0x0 PUSH2 0x20CF DUP14 DUP3 DUP15 ADD PUSH2 0x19AF JUMP JUMPDEST SWAP11 POP POP PUSH1 0x20 PUSH2 0x20E0 DUP14 DUP3 DUP15 ADD PUSH2 0x19AF JUMP JUMPDEST SWAP10 POP POP PUSH1 0x40 DUP12 ADD CALLDATALOAD PUSH8 0xFFFFFFFFFFFFFFFF DUP2 GT ISZERO PUSH2 0x2101 JUMPI PUSH2 0x2100 PUSH2 0x1961 JUMP JUMPDEST JUMPDEST PUSH2 0x210D DUP14 DUP3 DUP15 ADD PUSH2 0x1E5E JUMP JUMPDEST SWAP9 POP SWAP9 POP POP PUSH1 0x60 DUP12 ADD CALLDATALOAD PUSH8 0xFFFFFFFFFFFFFFFF DUP2 GT ISZERO PUSH2 0x2130 JUMPI PUSH2 0x212F PUSH2 0x1961 JUMP JUMPDEST JUMPDEST PUSH2 0x213C DUP14 DUP3 DUP15 ADD PUSH2 0x1E5E JUMP JUMPDEST SWAP7 POP SWAP7 POP POP PUSH1 0x80 DUP12 ADD CALLDATALOAD PUSH8 0xFFFFFFFFFFFFFFFF DUP2 GT ISZERO PUSH2 0x215F JUMPI PUSH2 0x215E PUSH2 0x1961 JUMP JUMPDEST JUMPDEST PUSH2 0x216B DUP14 DUP3 DUP15 ADD PUSH2 0x1E5E JUMP JUMPDEST SWAP5 POP SWAP5 POP POP PUSH1 0xA0 DUP12 ADD CALLDATALOAD PUSH8 0xFFFFFFFFFFFFFFFF DUP2 GT ISZERO PUSH2 0x218E JUMPI PUSH2 0x218D PUSH2 0x1961 JUMP JUMPDEST JUMPDEST PUSH2 0x219A DUP14 DUP3 DUP15 ADD PUSH2 0x2048 JUMP JUMPDEST SWAP3 POP SWAP3 POP POP SWAP3 SWAP6 SWAP9 SWAP12 SWAP2 SWAP5 SWAP8 SWAP11 POP SWAP3 SWAP6 SWAP9 POP JUMP JUMPDEST PUSH1 0x0 DUP1 DUP4 PUSH1 0x1F DUP5 ADD SLT PUSH2 0x21C4 JUMPI PUSH2 0x21C3 PUSH2 0x1BA8 JUMP JUMPDEST JUMPDEST DUP3 CALLDATALOAD SWAP1 POP PUSH8 0xFFFFFFFFFFFFFFFF DUP2 GT ISZERO PUSH2 0x21E1 JUMPI PUSH2 0x21E0 PUSH2 0x1DFE JUMP JUMPDEST JUMPDEST PUSH1 0x20 DUP4 ADD SWAP2 POP DUP4 PUSH1 0x1 DUP3 MUL DUP4 ADD GT ISZERO PUSH2 0x21FD JUMPI PUSH2 0x21FC PUSH2 0x1E03 JUMP JUMPDEST JUMPDEST SWAP3 POP SWAP3 SWAP1 POP JUMP JUMPDEST PUSH1 0x0 DUP1 PUSH1 0x0 DUP1 PUSH1 0x0 DUP1 PUSH1 0xA0 DUP8 DUP10 SUB SLT ISZERO PUSH2 0x2221 JUMPI PUSH2 0x2220 PUSH2 0x195C JUMP JUMPDEST JUMPDEST PUSH1 0x0 PUSH2 0x222F DUP10 DUP3 DUP11 ADD PUSH2 0x19AF JUMP JUMPDEST SWAP7 POP POP PUSH1 0x20 PUSH2 0x2240 DUP10 DUP3 DUP11 ADD PUSH2 0x19E5 JUMP JUMPDEST SWAP6 POP POP PUSH1 0x40 PUSH2 0x2251 DUP10 DUP3 DUP11 ADD PUSH2 0x19E5 JUMP JUMPDEST SWAP5 POP POP PUSH1 0x60 PUSH2 0x2262 DUP10 DUP3 DUP11 ADD PUSH2 0x19E5 JUMP JUMPDEST SWAP4 POP POP PUSH1 0x80 DUP8 ADD CALLDATALOAD PUSH8 0xFFFFFFFFFFFFFFFF DUP2 GT ISZERO PUSH2 0x2283 JUMPI PUSH2 0x2282 PUSH2 0x1961 JUMP JUMPDEST JUMPDEST PUSH2 0x228F DUP10 DUP3 DUP11 ADD PUSH2 0x21AE JUMP JUMPDEST SWAP3 POP SWAP3 POP POP SWAP3 SWAP6 POP SWAP3 SWAP6 POP SWAP3 SWAP6 JUMP JUMPDEST PUSH1 0x0 DUP1 PUSH1 0x0 PUSH1 0x60 DUP5 DUP7 SUB SLT ISZERO PUSH2 0x22B7 JUMPI PUSH2 0x22B6 PUSH2 0x195C JUMP JUMPDEST JUMPDEST PUSH1 0x0 PUSH2 0x22C5 DUP7 DUP3 DUP8 ADD PUSH2 0x19AF JUMP JUMPDEST SWAP4 POP POP PUSH1 0x20 PUSH2 0x22D6 DUP7 DUP3 DUP8 ADD PUSH2 0x19E5 JUMP JUMPDEST SWAP3 POP POP PUSH1 0x40 PUSH2 0x22E7 DUP7 DUP3 DUP8 ADD PUSH2 0x19E5 JUMP JUMPDEST SWAP2 POP POP SWAP3 POP SWAP3 POP SWAP3 JUMP JUMPDEST PUSH2 0x22FA DUP2 PUSH2 0x1986 JUMP JUMPDEST DUP3 MSTORE POP POP JUMP JUMPDEST PUSH1 0x0 PUSH1 0x20 DUP3 ADD SWAP1 POP PUSH2 0x2315 PUSH1 0x0 DUP4 ADD DUP5 PUSH2 0x22F1 JUMP JUMPDEST SWAP3 SWAP2 POP POP JUMP JUMPDEST PUSH1 0x0 DUP1 PUSH1 0x40 DUP4 DUP6 SUB SLT ISZERO PUSH2 0x2332 JUMPI PUSH2 0x2331 PUSH2 0x195C JUMP JUMPDEST JUMPDEST PUSH1 0x0 PUSH2 0x2340 DUP6 DUP3 DUP7 ADD PUSH2 0x19AF JUMP JUMPDEST SWAP3 POP POP PUSH1 0x20 PUSH2 0x2351 DUP6 DUP3 DUP7 ADD PUSH2 0x19AF JUMP JUMPDEST SWAP2 POP POP SWAP3 POP SWAP3 SWAP1 POP JUMP JUMPDEST PUSH1 0x0 DUP3 DUP3 MSTORE PUSH1 0x20 DUP3 ADD SWAP1 POP SWAP3 SWAP2 POP POP JUMP JUMPDEST PUSH32 0x43616C6C6572206973206E6F7420746865204F776E65722E0000000000000000 PUSH1 0x0 DUP3 ADD MSTORE POP JUMP JUMPDEST PUSH1 0x0 PUSH2 0x23A2 PUSH1 0x18 DUP4 PUSH2 0x235B JUMP JUMPDEST SWAP2 POP PUSH2 0x23AD DUP3 PUSH2 0x236C JUMP JUMPDEST PUSH1 0x20 DUP3 ADD SWAP1 POP SWAP2 SWAP1 POP JUMP JUMPDEST PUSH1 0x0 PUSH1 0x20 DUP3 ADD SWAP1 POP DUP2 DUP2 SUB PUSH1 0x0 DUP4 ADD MSTORE PUSH2 0x23D1 DUP2 PUSH2 0x2395 JUMP JUMPDEST SWAP1 POP SWAP2 SWAP1 POP JUMP JUMPDEST PUSH32 0x444C54203A206163636F756E74732C206D61696E49647320616E642069647320 PUSH1 0x0 DUP3 ADD MSTORE PUSH32 0x6C656E677468206D69736D617463680000000000000000000000000000000000 PUSH1 0x20 DUP3 ADD MSTORE POP JUMP JUMPDEST PUSH1 0x0 PUSH2 0x2434 PUSH1 0x2F DUP4 PUSH2 0x235B JUMP JUMPDEST SWAP2 POP PUSH2 0x243F DUP3 PUSH2 0x23D8 JUMP JUMPDEST PUSH1 0x40 DUP3 ADD SWAP1 POP SWAP2 SWAP1 POP JUMP JUMPDEST PUSH1 0x0 PUSH1 0x20 DUP3 ADD SWAP1 POP DUP2 DUP2 SUB PUSH1 0x0 DUP4 ADD MSTORE PUSH2 0x2463 DUP2 PUSH2 0x2427 JUMP JUMPDEST SWAP1 POP SWAP2 SWAP1 POP JUMP JUMPDEST PUSH32 0x4E487B7100000000000000000000000000000000000000000000000000000000 PUSH1 0x0 MSTORE PUSH1 0x32 PUSH1 0x4 MSTORE PUSH1 0x24 PUSH1 0x0 REVERT JUMPDEST PUSH1 0x0 PUSH1 0x20 DUP3 DUP5 SUB SLT ISZERO PUSH2 0x24AF JUMPI PUSH2 0x24AE PUSH2 0x195C JUMP JUMPDEST JUMPDEST PUSH1 0x0 PUSH2 0x24BD DUP5 DUP3 DUP6 ADD PUSH2 0x19AF JUMP JUMPDEST SWAP2 POP POP SWAP3 SWAP2 POP POP JUMP JUMPDEST PUSH32 0x4E487B7100000000000000000000000000000000000000000000000000000000 PUSH1 0x0 MSTORE PUSH1 0x11 PUSH1 0x4 MSTORE PUSH1 0x24 PUSH1 0x0 REVERT JUMPDEST PUSH1 0x0 PUSH2 0x2500 DUP3 PUSH2 0x19C4 JUMP JUMPDEST SWAP2 POP PUSH32 0xFFFFFFFFFFFFFFFFFFFFFFFFFFFFFFFFFFFFFFFFFFFFFFFFFFFFFFFFFFFFFFFF DUP3 SUB PUSH2 0x2532 JUMPI PUSH2 0x2531 PUSH2 0x24C6 JUMP JUMPDEST JUMPDEST PUSH1 0x1 DUP3 ADD SWAP1 POP SWAP2 SWAP1 POP JUMP JUMPDEST PUSH32 0x444C543A2063616C6C6572206973206E6F74206F776E6572206F722061707072 PUSH1 0x0 DUP3 ADD MSTORE PUSH32 0x6F76656420666F7220616C6C0000000000000000000000000000000000000000 PUSH1 0x20 DUP3 ADD MSTORE POP JUMP JUMPDEST PUSH1 0x0 PUSH2 0x2599 PUSH1 0x2C DUP4 PUSH2 0x235B JUMP JUMPDEST SWAP2 POP PUSH2 0x25A4 DUP3 PUSH2 0x253D JUMP JUMPDEST PUSH1 0x40 DUP3 ADD SWAP1 POP SWAP2 SWAP1 POP JUMP JUMPDEST PUSH1 0x0 PUSH1 0x20 DUP3 ADD SWAP1 POP DUP2 DUP2 SUB PUSH1 0x0 DUP4 ADD MSTORE PUSH2 0x25C8 DUP2 PUSH2 0x258C JUMP JUMPDEST SWAP1 POP SWAP2 SWAP1 POP JUMP JUMPDEST PUSH32 0x444C54203A206F6E6C794F776E65722063616E206D696E74206E657720746F6B PUSH1 0x0 DUP3 ADD MSTORE PUSH32 0x656E732E00000000000000000000000000000000000000000000000000000000 PUSH1 0x20 DUP3 ADD MSTORE POP JUMP JUMPDEST PUSH1 0x0 PUSH2 0x262B PUSH1 0x24 DUP4 PUSH2 0x235B JUMP JUMPDEST SWAP2 POP PUSH2 0x2636 DUP3 PUSH2 0x25CF JUMP JUMPDEST PUSH1 0x40 DUP3 ADD SWAP1 POP SWAP2 SWAP1 POP JUMP JUMPDEST PUSH1 0x0 PUSH1 0x20 DUP3 ADD SWAP1 POP DUP2 DUP2 SUB PUSH1 0x0 DUP4 ADD MSTORE PUSH2 0x265A DUP2 PUSH2 0x261E JUMP JUMPDEST SWAP1 POP SWAP2 SWAP1 POP JUMP JUMPDEST PUSH32 0x444C54203A206D696E7420746F20746865207A65726F20616464726573730000 PUSH1 0x0 DUP3 ADD MSTORE POP JUMP JUMPDEST PUSH1 0x0 PUSH2 0x2697 PUSH1 0x1E DUP4 PUSH2 0x235B JUMP JUMPDEST SWAP2 POP PUSH2 0x26A2 DUP3 PUSH2 0x2661 JUMP JUMPDEST PUSH1 0x20 DUP3 ADD SWAP1 POP SWAP2 SWAP1 POP JUMP JUMPDEST PUSH1 0x0 PUSH1 0x20 DUP3 ADD SWAP1 POP DUP2 DUP2 SUB PUSH1 0x0 DUP4 ADD MSTORE PUSH2 0x26C6 DUP2 PUSH2 0x268A JUMP JUMPDEST SWAP1 POP SWAP2 SWAP1 POP JUMP JUMPDEST PUSH1 0x0 PUSH2 0x26D8 DUP3 PUSH2 0x19C4 JUMP JUMPDEST SWAP2 POP PUSH2 0x26E3 DUP4 PUSH2 0x19C4 JUMP JUMPDEST SWAP3 POP DUP3 DUP3 ADD SWAP1 POP DUP1 DUP3 GT ISZERO PUSH2 0x26FB JUMPI PUSH2 0x26FA PUSH2 0x24C6 JUMP JUMPDEST JUMPDEST SWAP3 SWAP2 POP POP JUMP JUMPDEST PUSH32 0x444C54203A20617070726F766520746F2063616C6C6572000000000000000000 PUSH1 0x0 DUP3 ADD MSTORE POP JUMP JUMPDEST PUSH1 0x0 PUSH2 0x2737 PUSH1 0x17 DUP4 PUSH2 0x235B JUMP JUMPDEST SWAP2 POP PUSH2 0x2742 DUP3 PUSH2 0x2701 JUMP JUMPDEST PUSH1 0x20 DUP3 ADD SWAP1 POP SWAP2 SWAP1 POP JUMP JUMPDEST PUSH1 0x0 PUSH1 0x20 DUP3 ADD SWAP1 POP DUP2 DUP2 SUB PUSH1 0x0 DUP4 ADD MSTORE PUSH2 0x2766 DUP2 PUSH2 0x272A JUMP JUMPDEST SWAP1 POP SWAP2 SWAP1 POP JUMP JUMPDEST PUSH32 0x444C54203A20617070726F76652066726F6D20746865207A65726F2061646472 PUSH1 0x0 DUP3 ADD MSTORE PUSH32 0x6573730000000000000000000000000000000000000000000000000000000000 PUSH1 0x20 DUP3 ADD MSTORE POP JUMP JUMPDEST PUSH1 0x0 PUSH2 0x27C9 PUSH1 0x23 DUP4 PUSH2 0x235B JUMP JUMPDEST SWAP2 POP PUSH2 0x27D4 DUP3 PUSH2 0x276D JUMP JUMPDEST PUSH1 0x40 DUP3 ADD SWAP1 POP SWAP2 SWAP1 POP JUMP JUMPDEST PUSH1 0x0 PUSH1 0x20 DUP3 ADD SWAP1 POP DUP2 DUP2 SUB PUSH1 0x0 DUP4 ADD MSTORE PUSH2 0x27F8 DUP2 PUSH2 0x27BC JUMP JUMPDEST SWAP1 POP SWAP2 SWAP1 POP JUMP JUMPDEST PUSH1 0x0 PUSH1 0x60 DUP3 ADD SWAP1 POP PUSH2 0x2814 PUSH1 0x0 DUP4 ADD DUP7 PUSH2 0x1B7E JUMP JUMPDEST PUSH2 0x2821 PUSH1 0x20 DUP4 ADD DUP6 PUSH2 0x1B7E JUMP JUMPDEST PUSH2 0x282E PUSH1 0x40 DUP4 ADD DUP5 PUSH2 0x1B7E JUMP JUMPDEST SWAP5 SWAP4 POP POP POP POP JUMP JUMPDEST PUSH32 0x444C54203A206D61696E4964732C2073756249647320616E6420616D6F756E74 PUSH1 0x0 DUP3 ADD MSTORE PUSH32 0x73206C656E677468206D69736D61746368656400000000000000000000000000 PUSH1 0x20 DUP3 ADD MSTORE POP JUMP JUMPDEST PUSH1 0x0 PUSH2 0x2892 PUSH1 0x33 DUP4 PUSH2 0x235B JUMP JUMPDEST SWAP2 POP PUSH2 0x289D DUP3 PUSH2 0x2836 JUMP JUMPDEST PUSH1 0x40 DUP3 ADD SWAP1 POP SWAP2 SWAP1 POP JUMP JUMPDEST PUSH1 0x0 PUSH1 0x20 DUP3 ADD SWAP1 POP DUP2 DUP2 SUB PUSH1 0x0 DUP4 ADD MSTORE PUSH2 0x28C1 DUP2 PUSH2 0x2885 JUMP JUMPDEST SWAP1 POP SWAP2 SWAP1 POP JUMP JUMPDEST PUSH32 0x444C543A207472616E7366657220746F20746865207A65726F20616464726573 PUSH1 0x0 DUP3 ADD MSTORE PUSH32 0x7300000000000000000000000000000000000000000000000000000000000000 PUSH1 0x20 DUP3 ADD MSTORE POP JUMP JUMPDEST PUSH1 0x0 PUSH2 0x2924 PUSH1 0x21 DUP4 PUSH2 0x235B JUMP JUMPDEST SWAP2 POP PUSH2 0x292F DUP3 PUSH2 0x28C8 JUMP JUMPDEST PUSH1 0x40 DUP3 ADD SWAP1 POP SWAP2 SWAP1 POP JUMP JUMPDEST PUSH1 0x0 PUSH1 0x20 DUP3 ADD SWAP1 POP DUP2 DUP2 SUB PUSH1 0x0 DUP4 ADD MSTORE PUSH2 0x2953 DUP2 PUSH2 0x2917 JUMP JUMPDEST SWAP1 POP SWAP2 SWAP1 POP JUMP JUMPDEST PUSH32 0x444C54203A20696E73756666696369656E742062616C616E6365206F66207472 PUSH1 0x0 DUP3 ADD MSTORE PUSH32 0x616E736665720000000000000000000000000000000000000000000000000000 PUSH1 0x20 DUP3 ADD MSTORE POP JUMP JUMPDEST PUSH1 0x0 PUSH2 0x29B6 PUSH1 0x26 DUP4 PUSH2 0x235B JUMP JUMPDEST SWAP2 POP PUSH2 0x29C1 DUP3 PUSH2 0x295A JUMP JUMPDEST PUSH1 0x40 DUP3 ADD SWAP1 POP SWAP2 SWAP1 POP JUMP JUMPDEST PUSH1 0x0 PUSH1 0x20 DUP3 ADD SWAP1 POP DUP2 DUP2 SUB PUSH1 0x0 DUP4 ADD MSTORE PUSH2 0x29E5 DUP2 PUSH2 0x29A9 JUMP JUMPDEST SWAP1 POP SWAP2 SWAP1 POP JUMP JUMPDEST PUSH1 0x0 PUSH1 0x60 DUP3 ADD SWAP1 POP DUP2 DUP2 SUB PUSH1 0x0 DUP4 ADD MSTORE PUSH2 0x2A06 DUP2 DUP7 PUSH2 0x1FC8 JUMP JUMPDEST SWAP1 POP DUP2 DUP2 SUB PUSH1 0x20 DUP4 ADD MSTORE PUSH2 0x2A1A DUP2 DUP6 PUSH2 0x1FC8 JUMP JUMPDEST SWAP1 POP DUP2 DUP2 SUB PUSH1 0x40 DUP4 ADD MSTORE PUSH2 0x2A2E DUP2 DUP5 PUSH2 0x1FC8 JUMP JUMPDEST SWAP1 POP SWAP5 SWAP4 POP POP POP POP JUMP JUMPDEST PUSH32 0x444C543A207472616E7366657220746F206E6F6E20444C545265636569766572 PUSH1 0x0 DUP3 ADD MSTORE PUSH32 0x20696D706C656D656E7465720000000000000000000000000000000000000000 PUSH1 0x20 DUP3 ADD MSTORE POP JUMP JUMPDEST PUSH1 0x0 PUSH2 0x2A94 PUSH1 0x2C DUP4 PUSH2 0x235B JUMP JUMPDEST SWAP2 POP PUSH2 0x2A9F DUP3 PUSH2 0x2A38 JUMP JUMPDEST PUSH1 0x40 DUP3 ADD SWAP1 POP SWAP2 SWAP1 POP JUMP JUMPDEST PUSH1 0x0 PUSH1 0x20 DUP3 ADD SWAP1 POP DUP2 DUP2 SUB PUSH1 0x0 DUP4 ADD MSTORE PUSH2 0x2AC3 DUP2 PUSH2 0x2A87 JUMP JUMPDEST SWAP1 POP SWAP2 SWAP1 POP JUMP JUMPDEST PUSH32 0x444C54203A20696E73756666696369656E7420616C6C6F77616E636500000000 PUSH1 0x0 DUP3 ADD MSTORE POP JUMP JUMPDEST PUSH1 0x0 PUSH2 0x2B00 PUSH1 0x1C DUP4 PUSH2 0x235B JUMP JUMPDEST SWAP2 POP PUSH2 0x2B0B DUP3 PUSH2 0x2ACA JUMP JUMPDEST PUSH1 0x20 DUP3 ADD SWAP1 POP SWAP2 SWAP1 POP JUMP JUMPDEST PUSH1 0x0 PUSH1 0x20 DUP3 ADD SWAP1 POP DUP2 DUP2 SUB PUSH1 0x0 DUP4 ADD MSTORE PUSH2 0x2B2F DUP2 PUSH2 0x2AF3 JUMP JUMPDEST SWAP1 POP SWAP2 SWAP1 POP JUMP JUMPDEST PUSH32 0x444C54203A207472616E7366657220746F206E6F6E20444C5452656365697665 PUSH1 0x0 DUP3 ADD MSTORE PUSH32 0x7220696D706C656D656E74657200000000000000000000000000000000000000 PUSH1 0x20 DUP3 ADD MSTORE POP JUMP JUMPDEST PUSH1 0x0 PUSH2 0x2B92 PUSH1 0x2D DUP4 PUSH2 0x235B JUMP JUMPDEST SWAP2 POP PUSH2 0x2B9D DUP3 PUSH2 0x2B36 JUMP JUMPDEST PUSH1 0x40 DUP3 ADD SWAP1 POP SWAP2 SWAP1 POP JUMP JUMPDEST PUSH1 0x0 PUSH1 0x20 DUP3 ADD SWAP1 POP DUP2 DUP2 SUB PUSH1 0x0 DUP4 ADD MSTORE PUSH2 0x2BC1 DUP2 PUSH2 0x2B85 JUMP JUMPDEST SWAP1 POP SWAP2 SWAP1 POP JUMP JUMPDEST PUSH32 0x444C54203A207472616E736665722066726F6D20746865207A65726F20616464 PUSH1 0x0 DUP3 ADD MSTORE PUSH32 0x7265737300000000000000000000000000000000000000000000000000000000 PUSH1 0x20 DUP3 ADD MSTORE POP JUMP JUMPDEST PUSH1 0x0 PUSH2 0x2C24 PUSH1 0x24 DUP4 PUSH2 0x235B JUMP JUMPDEST SWAP2 POP PUSH2 0x2C2F DUP3 PUSH2 0x2BC8 JUMP JUMPDEST PUSH1 0x40 DUP3 ADD SWAP1 POP SWAP2 SWAP1 POP JUMP JUMPDEST PUSH1 0x0 PUSH1 0x20 DUP3 ADD SWAP1 POP DUP2 DUP2 SUB PUSH1 0x0 DUP4 ADD MSTORE PUSH2 0x2C53 DUP2 PUSH2 0x2C17 JUMP JUMPDEST SWAP1 POP SWAP2 SWAP1 POP JUMP JUMPDEST PUSH32 0x444C54203A207472616E7366657220746F20746865207A65726F206164647265 PUSH1 0x0 DUP3 ADD MSTORE PUSH32 0x7373000000000000000000000000000000000000000000000000000000000000 PUSH1 0x20 DUP3 ADD MSTORE POP JUMP JUMPDEST PUSH1 0x0 PUSH2 0x2CB6 PUSH1 0x22 DUP4 PUSH2 0x235B JUMP JUMPDEST SWAP2 POP PUSH2 0x2CC1 DUP3 PUSH2 0x2C5A JUMP JUMPDEST PUSH1 0x40 DUP3 ADD SWAP1 POP SWAP2 SWAP1 POP JUMP JUMPDEST PUSH1 0x0 PUSH1 0x20 DUP3 ADD SWAP1 POP DUP2 DUP2 SUB PUSH1 0x0 DUP4 ADD MSTORE PUSH2 0x2CE5 DUP2 PUSH2 0x2CA9 JUMP JUMPDEST SWAP1 POP SWAP2 SWAP1 POP JUMP JUMPDEST PUSH32 0x444C54203A20696E73756666696369656E742062616C616E636520666F722074 PUSH1 0x0 DUP3 ADD MSTORE PUSH32 0x72616E7366657200000000000000000000000000000000000000000000000000 PUSH1 0x20 DUP3 ADD MSTORE POP JUMP JUMPDEST PUSH1 0x0 PUSH2 0x2D48 PUSH1 0x27 DUP4 PUSH2 0x235B JUMP JUMPDEST SWAP2 POP PUSH2 0x2D53 DUP3 PUSH2 0x2CEC JUMP JUMPDEST PUSH1 0x40 DUP3 ADD SWAP1 POP SWAP2 SWAP1 POP JUMP JUMPDEST PUSH1 0x0 PUSH1 0x20 DUP3 ADD SWAP1 POP DUP2 DUP2 SUB PUSH1 0x0 DUP4 ADD MSTORE PUSH2 0x2D77 DUP2 PUSH2 0x2D3B JUMP JUMPDEST SWAP1 POP SWAP2 SWAP1 POP JUMP JUMPDEST PUSH1 0x0 PUSH1 0x40 DUP3 ADD SWAP1 POP PUSH2 0x2D93 PUSH1 0x0 DUP4 ADD DUP6 PUSH2 0x1B7E JUMP JUMPDEST PUSH2 0x2DA0 PUSH1 0x20 DUP4 ADD DUP5 PUSH2 0x1B7E JUMP JUMPDEST SWAP4 SWAP3 POP POP POP JUMP JUMPDEST PUSH1 0x0 DUP2 MLOAD SWAP1 POP SWAP2 SWAP1 POP JUMP JUMPDEST PUSH1 0x0 DUP3 DUP3 MSTORE PUSH1 0x20 DUP3 ADD SWAP1 POP SWAP3 SWAP2 POP POP JUMP JUMPDEST PUSH1 0x0 JUMPDEST DUP4 DUP2 LT ISZERO PUSH2 0x2DE1 JUMPI DUP1 DUP3 ADD MLOAD DUP2 DUP5 ADD MSTORE PUSH1 0x20 DUP2 ADD SWAP1 POP PUSH2 0x2DC6 JUMP JUMPDEST PUSH1 0x0 DUP5 DUP5 ADD MSTORE POP POP POP POP JUMP JUMPDEST PUSH1 0x0 PUSH2 0x2DF8 DUP3 PUSH2 0x2DA7 JUMP JUMPDEST PUSH2 0x2E02 DUP2 DUP6 PUSH2 0x2DB2 JUMP JUMPDEST SWAP4 POP PUSH2 0x2E12 DUP2 DUP6 PUSH1 0x20 DUP7 ADD PUSH2 0x2DC3 JUMP JUMPDEST PUSH2 0x2E1B DUP2 PUSH2 0x1BB2 JUMP JUMPDEST DUP5 ADD SWAP2 POP POP SWAP3 SWAP2 POP POP JUMP JUMPDEST PUSH1 0x0 PUSH1 0xC0 DUP3 ADD SWAP1 POP PUSH2 0x2E3B PUSH1 0x0 DUP4 ADD DUP10 PUSH2 0x22F1 JUMP JUMPDEST PUSH2 0x2E48 PUSH1 0x20 DUP4 ADD DUP9 PUSH2 0x22F1 JUMP JUMPDEST DUP2 DUP2 SUB PUSH1 0x40 DUP4 ADD MSTORE PUSH2 0x2E5A DUP2 DUP8 PUSH2 0x1FC8 JUMP JUMPDEST SWAP1 POP DUP2 DUP2 SUB PUSH1 0x60 DUP4 ADD MSTORE PUSH2 0x2E6E DUP2 DUP7 PUSH2 0x1FC8 JUMP JUMPDEST SWAP1 POP DUP2 DUP2 SUB PUSH1 0x80 DUP4 ADD MSTORE PUSH2 0x2E82 DUP2 DUP6 PUSH2 0x1FC8 JUMP JUMPDEST SWAP1 POP DUP2 DUP2 SUB PUSH1 0xA0 DUP4 ADD MSTORE PUSH2 0x2E96 DUP2 DUP5 PUSH2 0x2DED JUMP JUMPDEST SWAP1 POP SWAP8 SWAP7 POP POP POP POP POP POP POP JUMP JUMPDEST PUSH1 0x0 PUSH32 0xFFFFFFFF00000000000000000000000000000000000000000000000000000000 DUP3 AND SWAP1 POP SWAP2 SWAP1 POP JUMP JUMPDEST PUSH2 0x2ED8 DUP2 PUSH2 0x2EA3 JUMP JUMPDEST DUP2 EQ PUSH2 0x2EE3 JUMPI PUSH1 0x0 DUP1 REVERT JUMPDEST POP JUMP JUMPDEST PUSH1 0x0 DUP2 MLOAD SWAP1 POP PUSH2 0x2EF5 DUP2 PUSH2 0x2ECF JUMP JUMPDEST SWAP3 SWAP2 POP POP JUMP JUMPDEST PUSH1 0x0 PUSH1 0x20 DUP3 DUP5 SUB SLT ISZERO PUSH2 0x2F11 JUMPI PUSH2 0x2F10 PUSH2 0x195C JUMP JUMPDEST JUMPDEST PUSH1 0x0 PUSH2 0x2F1F DUP5 DUP3 DUP6 ADD PUSH2 0x2EE6 JUMP JUMPDEST SWAP2 POP POP SWAP3 SWAP2 POP POP JUMP JUMPDEST PUSH1 0x0 PUSH1 0xC0 DUP3 ADD SWAP1 POP PUSH2 0x2F3D PUSH1 0x0 DUP4 ADD DUP10 PUSH2 0x22F1 JUMP JUMPDEST PUSH2 0x2F4A PUSH1 0x20 DUP4 ADD DUP9 PUSH2 0x22F1 JUMP JUMPDEST PUSH2 0x2F57 PUSH1 0x40 DUP4 ADD DUP8 PUSH2 0x1B7E JUMP JUMPDEST PUSH2 0x2F64 PUSH1 0x60 DUP4 ADD DUP7 PUSH2 0x1B7E JUMP JUMPDEST PUSH2 0x2F71 PUSH1 0x80 DUP4 ADD DUP6 PUSH2 0x1B7E JUMP JUMPDEST DUP2 DUP2 SUB PUSH1 0xA0 DUP4 ADD MSTORE PUSH2 0x2F83 DUP2 DUP5 PUSH2 0x2DED JUMP JUMPDEST SWAP1 POP SWAP8 SWAP7 POP POP POP POP POP POP POP JUMP INVALID LOG2 PUSH5 0x6970667358 0x22 SLT KECCAK256 0xAC SGT 0xBA DUP6 SAR PREVRANDAO RETURNDATACOPY 0xCF 0xEC SWAP13 PUSH26 0xD7F57E96B14955C502859E379C8D602C9B391DF44964736F6C63 NUMBER STOP ADDMOD SGT STOP CALLER "
		},
		"gasEstimates": {
			"creation": {
				"codeDepositCost": "2446000",
				"executionCost": "infinite",
				"totalCost": "infinite"
			},
			"external": {
				"SetApprovalForAll(address,bool)": "infinite",
				"allowance(address,address,uint256,uint256)": "infinite",
				"approve(address,uint256,uint256,uint256)": "infinite",
				"balanceOfBatch(address[],uint256[],uint256[])": "infinite",
				"isApprovedForAll(address,address)": "infinite",
				"mintWithTokenURI(address,uint256,uint256,uint256,string)": "infinite",
				"owner()": "2602",
				"safeBatchTransferFrom(address,address,uint256[],uint256[],uint256[],bytes)": "infinite",
				"safeTransferFrom(address,address,uint256,uint256,uint256)": "infinite",
				"safeTransferFrom(address,address,uint256,uint256,uint256,bytes)": "infinite",
				"subBalanceOf(address,uint256,uint256)": "infinite",
				"transferFrom(address,address,uint256,uint256,uint256)": "infinite"
			},
			"internal": {
				"_afterTokenTransfer(address,address,uint256,uint256,uint256,bytes memory)": "21",
				"_allowance(address,address,uint256,uint256)": "2476",
				"_approve(address,address,uint256,uint256,uint256)": "infinite",
				"_beforeTokenTransfer(address,address,uint256,uint256,uint256,bytes memory)": "21",
				"_burn(address,uint256,uint256,uint256)": "infinite",
				"_checkOnDLTBatchReceived(address,address,uint256[] memory,uint256[] memory,uint256[] memory,bytes memory)": "infinite",
				"_checkOnDLTReceived(address,address,uint256,uint256,uint256,bytes memory)": "infinite",
				"_isApprovedOrOwner(address,address)": "2440",
				"_mint(address,uint256,uint256,uint256)": "infinite",
				"_safeBatchTransferFrom(address,address,uint256[] memory,uint256[] memory,uint256[] memory,bytes memory)": "infinite",
				"_safeMint(address,uint256,uint256,uint256,bytes memory)": "infinite",
				"_safeTransfer(address,address,uint256,uint256,uint256,bytes memory)": "infinite",
				"_safeTransferFrom(address,address,uint256,uint256,uint256,bytes memory)": "infinite",
				"_setApprovalForAll(address,address,bool)": "infinite",
				"_spendAllowance(address,address,uint256,uint256,uint256)": "infinite",
				"_transfer(address,address,uint256,uint256,uint256)": "infinite",
				"_transferFrom(address,address,uint256,uint256,uint256)": "infinite"
			}
		},
		"methodIdentifiers": {
			"SetApprovalForAll(address,bool)": "11fb3e60",
			"allowance(address,address,uint256,uint256)": "443b63b9",
			"approve(address,uint256,uint256,uint256)": "4f4df442",
			"balanceOfBatch(address[],uint256[],uint256[])": "62b26417",
			"isApprovedForAll(address,address)": "e985e9c5",
			"mintWithTokenURI(address,uint256,uint256,uint256,string)": "6bd2e006",
			"owner()": "8da5cb5b",
			"safeBatchTransferFrom(address,address,uint256[],uint256[],uint256[],bytes)": "6b98fd1e",
			"safeTransferFrom(address,address,uint256,uint256,uint256)": "01b5e494",
			"safeTransferFrom(address,address,uint256,uint256,uint256,bytes)": "4d47fddb",
			"subBalanceOf(address,uint256,uint256)": "8536208d",
			"transferFrom(address,address,uint256,uint256,uint256)": "4aed53c2"
		}
	},
	"abi": [
		{
			"inputs": [
				{
					"internalType": "string",
					"name": "name",
					"type": "string"
				},
				{
					"internalType": "string",
					"name": "symbol",
					"type": "string"
				}
			],
			"stateMutability": "nonpayable",
			"type": "constructor"
		},
		{
			"anonymous": false,
			"inputs": [
				{
					"indexed": true,
					"internalType": "address",
					"name": "owner",
					"type": "address"
				},
				{
					"indexed": true,
					"internalType": "address",
					"name": "operator",
					"type": "address"
				},
				{
					"indexed": false,
					"internalType": "uint256",
					"name": "mainId",
					"type": "uint256"
				},
				{
					"indexed": false,
					"internalType": "uint256",
					"name": "subId",
					"type": "uint256"
				},
				{
					"indexed": false,
					"internalType": "uint256",
					"name": "amount",
					"type": "uint256"
				}
			],
			"name": "Approval",
			"type": "event"
		},
		{
			"anonymous": false,
			"inputs": [
				{
					"indexed": true,
					"internalType": "address",
					"name": "owner",
					"type": "address"
				},
				{
					"indexed": true,
					"internalType": "address",
					"name": "operator",
					"type": "address"
				},
				{
					"indexed": false,
					"internalType": "bool",
					"name": "approved",
					"type": "bool"
				}
			],
			"name": "ApprovalForAll",
			"type": "event"
		},
		{
			"anonymous": false,
			"inputs": [
				{
					"indexed": true,
					"internalType": "address",
					"name": "sender",
					"type": "address"
				},
				{
					"indexed": true,
					"internalType": "address",
					"name": "recipient",
					"type": "address"
				},
				{
					"indexed": true,
					"internalType": "uint256",
					"name": "mainId",
					"type": "uint256"
				},
				{
					"indexed": false,
					"internalType": "uint256",
					"name": "subId",
					"type": "uint256"
				},
				{
					"indexed": false,
					"internalType": "uint256",
					"name": "amount",
					"type": "uint256"
				}
			],
			"name": "Transfer",
			"type": "event"
		},
		{
			"anonymous": false,
			"inputs": [
				{
					"indexed": true,
					"internalType": "address",
					"name": "spender",
					"type": "address"
				},
				{
					"indexed": true,
					"internalType": "address",
					"name": "sender",
					"type": "address"
				},
				{
					"indexed": true,
					"internalType": "address",
					"name": "recipient",
					"type": "address"
				},
				{
					"indexed": false,
					"internalType": "uint256[]",
					"name": "mainIds",
					"type": "uint256[]"
				},
				{
					"indexed": false,
					"internalType": "uint256[]",
					"name": "subIds",
					"type": "uint256[]"
				},
				{
					"indexed": false,
					"internalType": "uint256[]",
					"name": "amounts",
					"type": "uint256[]"
				}
			],
			"name": "TransferBatch",
			"type": "event"
		},
		{
			"anonymous": false,
			"inputs": [
				{
					"indexed": false,
					"internalType": "string",
					"name": "oldValue",
					"type": "string"
				},
				{
					"indexed": false,
					"internalType": "string",
					"name": "newValue",
					"type": "string"
				},
				{
					"indexed": true,
					"internalType": "uint256",
					"name": "mainId",
					"type": "uint256"
				}
			],
			"name": "URI",
			"type": "event"
		},
		{
			"inputs": [
				{
					"internalType": "address",
					"name": "operator",
					"type": "address"
				},
				{
					"internalType": "bool",
					"name": "approved",
					"type": "bool"
				}
			],
			"name": "SetApprovalForAll",
			"outputs": [],
			"stateMutability": "nonpayable",
			"type": "function"
		},
		{
			"inputs": [
				{
					"internalType": "address",
					"name": "owner",
					"type": "address"
				},
				{
					"internalType": "address",
					"name": "spender",
					"type": "address"
				},
				{
					"internalType": "uint256",
					"name": "mainId",
					"type": "uint256"
				},
				{
					"internalType": "uint256",
					"name": "subId",
					"type": "uint256"
				}
			],
			"name": "allowance",
			"outputs": [
				{
					"internalType": "uint256",
					"name": "",
					"type": "uint256"
				}
			],
			"stateMutability": "view",
			"type": "function"
		},
		{
			"inputs": [
				{
					"internalType": "address",
					"name": "operator",
					"type": "address"
				},
				{
					"internalType": "uint256",
					"name": "mainId",
					"type": "uint256"
				},
				{
					"internalType": "uint256",
					"name": "subId",
					"type": "uint256"
				},
				{
					"internalType": "uint256",
					"name": "amount",
					"type": "uint256"
				}
			],
			"name": "approve",
			"outputs": [
				{
					"internalType": "bool",
					"name": "",
					"type": "bool"
				}
			],
			"stateMutability": "nonpayable",
			"type": "function"
		},
		{
			"inputs": [
				{
					"internalType": "address[]",
					"name": "accounts",
					"type": "address[]"
				},
				{
					"internalType": "uint256[]",
					"name": "mainIds",
					"type": "uint256[]"
				},
				{
					"internalType": "uint256[]",
					"name": "subIds",
					"type": "uint256[]"
				}
			],
			"name": "balanceOfBatch",
			"outputs": [
				{
					"internalType": "uint256[]",
					"name": "",
					"type": "uint256[]"
				}
			],
			"stateMutability": "view",
			"type": "function"
		},
		{
			"inputs": [
				{
					"internalType": "address",
					"name": "owner",
					"type": "address"
				},
				{
					"internalType": "address",
					"name": "operator",
					"type": "address"
				}
			],
			"name": "isApprovedForAll",
			"outputs": [
				{
					"internalType": "bool",
					"name": "",
					"type": "bool"
				}
			],
			"stateMutability": "view",
			"type": "function"
		},
		{
			"inputs": [
				{
					"internalType": "address",
					"name": "recipient",
					"type": "address"
				},
				{
					"internalType": "uint256",
					"name": "mainId",
					"type": "uint256"
				},
				{
					"internalType": "uint256",
					"name": "subId",
					"type": "uint256"
				},
				{
					"internalType": "uint256",
					"name": "amounts",
					"type": "uint256"
				},
				{
					"internalType": "string",
					"name": "tokenURI",
					"type": "string"
				}
			],
			"name": "mintWithTokenURI",
			"outputs": [
				{
					"internalType": "bool",
					"name": "",
					"type": "bool"
				}
			],
			"stateMutability": "nonpayable",
			"type": "function"
		},
		{
			"inputs": [],
			"name": "owner",
			"outputs": [
				{
					"internalType": "address",
					"name": "",
					"type": "address"
				}
			],
			"stateMutability": "view",
			"type": "function"
		},
		{
			"inputs": [
				{
					"internalType": "address",
					"name": "sender",
					"type": "address"
				},
				{
					"internalType": "address",
					"name": "recipient",
					"type": "address"
				},
				{
					"internalType": "uint256[]",
					"name": "mainIds",
					"type": "uint256[]"
				},
				{
					"internalType": "uint256[]",
					"name": "subIds",
					"type": "uint256[]"
				},
				{
					"internalType": "uint256[]",
					"name": "amounts",
					"type": "uint256[]"
				},
				{
					"internalType": "bytes",
					"name": "data",
					"type": "bytes"
				}
			],
			"name": "safeBatchTransferFrom",
			"outputs": [
				{
					"internalType": "bool",
					"name": "",
					"type": "bool"
				}
			],
			"stateMutability": "nonpayable",
			"type": "function"
		},
		{
			"inputs": [
				{
					"internalType": "address",
					"name": "sender",
					"type": "address"
				},
				{
					"internalType": "address",
					"name": "recipient",
					"type": "address"
				},
				{
					"internalType": "uint256",
					"name": "mainId",
					"type": "uint256"
				},
				{
					"internalType": "uint256",
					"name": "subId",
					"type": "uint256"
				},
				{
					"internalType": "uint256",
					"name": "amount",
					"type": "uint256"
				}
			],
			"name": "safeTransferFrom",
			"outputs": [
				{
					"internalType": "bool",
					"name": "",
					"type": "bool"
				}
			],
			"stateMutability": "nonpayable",
			"type": "function"
		},
		{
			"inputs": [
				{
					"internalType": "address",
					"name": "sender",
					"type": "address"
				},
				{
					"internalType": "address",
					"name": "recipient",
					"type": "address"
				},
				{
					"internalType": "uint256",
					"name": "mainId",
					"type": "uint256"
				},
				{
					"internalType": "uint256",
					"name": "subId",
					"type": "uint256"
				},
				{
					"internalType": "uint256",
					"name": "amount",
					"type": "uint256"
				},
				{
					"internalType": "bytes",
					"name": "data",
					"type": "bytes"
				}
			],
			"name": "safeTransferFrom",
			"outputs": [
				{
					"internalType": "bool",
					"name": "",
					"type": "bool"
				}
			],
			"stateMutability": "nonpayable",
			"type": "function"
		},
		{
			"inputs": [
				{
					"internalType": "address",
					"name": "account",
					"type": "address"
				},
				{
					"internalType": "uint256",
					"name": "mainId",
					"type": "uint256"
				},
				{
					"internalType": "uint256",
					"name": "subId",
					"type": "uint256"
				}
			],
			"name": "subBalanceOf",
			"outputs": [
				{
					"internalType": "uint256",
					"name": "",
					"type": "uint256"
				}
			],
			"stateMutability": "view",
			"type": "function"
		},
		{
			"inputs": [
				{
					"internalType": "address",
					"name": "sender",
					"type": "address"
				},
				{
					"internalType": "address",
					"name": "recipient",
					"type": "address"
				},
				{
					"internalType": "uint256",
					"name": "mainId",
					"type": "uint256"
				},
				{
					"internalType": "uint256",
					"name": "subId",
					"type": "uint256"
				},
				{
					"internalType": "uint256",
					"name": "amount",
					"type": "uint256"
				}
			],
			"name": "transferFrom",
			"outputs": [
				{
					"internalType": "bool",
					"name": "",
					"type": "bool"
				}
			],
			"stateMutability": "nonpayable",
			"type": "function"
		}
	]
}